ARM GAS  C:\Users\Administrator\AppData\Local\Temp\ccWW9SnK.s 			page 1


   1              		.cpu cortex-m4
   2              		.eabi_attribute 20, 1
   3              		.eabi_attribute 21, 1
   4              		.eabi_attribute 23, 3
   5              		.eabi_attribute 24, 1
   6              		.eabi_attribute 25, 1
   7              		.eabi_attribute 26, 1
   8              		.eabi_attribute 30, 1
   9              		.eabi_attribute 34, 1
  10              		.eabi_attribute 18, 4
  11              		.file	"cmd.c"
  12              		.text
  13              	.Ltext0:
  14              		.cfi_sections	.debug_frame
  15              		.section	.rodata.hello.str1.4,"aMS",%progbits,1
  16              		.align	2
  17              	.LC0:
  18 0000 48656C6C 		.ascii	"Hello RT-Thread!\012\000"
  18      6F205254 
  18      2D546872 
  18      65616421 
  18      0A00
  19              		.section	.text.hello,"ax",%progbits
  20              		.align	1
  21              		.global	hello
  22              		.arch armv7e-m
  23              		.syntax unified
  24              		.thumb
  25              		.thumb_func
  26              		.fpu softvfp
  28              	hello:
  29              	.LFB18:
  30              		.file 1 "Middlewares/Third_Party/RealThread_RTOS/components/finsh/cmd.c"
   1:Middlewares/Third_Party/RealThread_RTOS/components/finsh/cmd.c **** /*
   2:Middlewares/Third_Party/RealThread_RTOS/components/finsh/cmd.c ****  * Copyright (c) 2006-2021, RT-Thread Development Team
   3:Middlewares/Third_Party/RealThread_RTOS/components/finsh/cmd.c ****  *
   4:Middlewares/Third_Party/RealThread_RTOS/components/finsh/cmd.c ****  * SPDX-License-Identifier: Apache-2.0
   5:Middlewares/Third_Party/RealThread_RTOS/components/finsh/cmd.c ****  *
   6:Middlewares/Third_Party/RealThread_RTOS/components/finsh/cmd.c ****  * Change Logs:
   7:Middlewares/Third_Party/RealThread_RTOS/components/finsh/cmd.c ****  * Date           Author       Notes
   8:Middlewares/Third_Party/RealThread_RTOS/components/finsh/cmd.c ****  * 2006-04-30     Bernard      first implementation
   9:Middlewares/Third_Party/RealThread_RTOS/components/finsh/cmd.c ****  * 2006-05-04     Bernard      add list_thread,
  10:Middlewares/Third_Party/RealThread_RTOS/components/finsh/cmd.c ****  *                                 list_sem,
  11:Middlewares/Third_Party/RealThread_RTOS/components/finsh/cmd.c ****  *                                 list_timer
  12:Middlewares/Third_Party/RealThread_RTOS/components/finsh/cmd.c ****  * 2006-05-20     Bernard      add list_mutex,
  13:Middlewares/Third_Party/RealThread_RTOS/components/finsh/cmd.c ****  *                                 list_mailbox,
  14:Middlewares/Third_Party/RealThread_RTOS/components/finsh/cmd.c ****  *                                 list_msgqueue,
  15:Middlewares/Third_Party/RealThread_RTOS/components/finsh/cmd.c ****  *                                 list_event,
  16:Middlewares/Third_Party/RealThread_RTOS/components/finsh/cmd.c ****  *                                 list_fevent,
  17:Middlewares/Third_Party/RealThread_RTOS/components/finsh/cmd.c ****  *                                 list_mempool
  18:Middlewares/Third_Party/RealThread_RTOS/components/finsh/cmd.c ****  * 2006-06-03     Bernard      display stack information in list_thread
  19:Middlewares/Third_Party/RealThread_RTOS/components/finsh/cmd.c ****  * 2006-08-10     Bernard      change version to invoke rt_show_version
  20:Middlewares/Third_Party/RealThread_RTOS/components/finsh/cmd.c ****  * 2008-09-10     Bernard      update the list function for finsh syscall
  21:Middlewares/Third_Party/RealThread_RTOS/components/finsh/cmd.c ****  *                                 list and sysvar list
  22:Middlewares/Third_Party/RealThread_RTOS/components/finsh/cmd.c ****  * 2009-05-30     Bernard      add list_device
  23:Middlewares/Third_Party/RealThread_RTOS/components/finsh/cmd.c ****  * 2010-04-21     yi.qiu       add list_module
  24:Middlewares/Third_Party/RealThread_RTOS/components/finsh/cmd.c ****  * 2012-04-29     goprife      improve the command line auto-complete feature.
ARM GAS  C:\Users\Administrator\AppData\Local\Temp\ccWW9SnK.s 			page 2


  25:Middlewares/Third_Party/RealThread_RTOS/components/finsh/cmd.c ****  * 2012-06-02     lgnq         add list_memheap
  26:Middlewares/Third_Party/RealThread_RTOS/components/finsh/cmd.c ****  * 2012-10-22     Bernard      add MS VC++ patch.
  27:Middlewares/Third_Party/RealThread_RTOS/components/finsh/cmd.c ****  * 2016-06-02     armink       beautify the list_thread command
  28:Middlewares/Third_Party/RealThread_RTOS/components/finsh/cmd.c ****  * 2018-11-22     Jesven       list_thread add smp support
  29:Middlewares/Third_Party/RealThread_RTOS/components/finsh/cmd.c ****  * 2018-12-27     Jesven       Fix the problem that disable interrupt too long in list_thread
  30:Middlewares/Third_Party/RealThread_RTOS/components/finsh/cmd.c ****  *                             Provide protection for the "first layer of objects" when list_*
  31:Middlewares/Third_Party/RealThread_RTOS/components/finsh/cmd.c ****  */
  32:Middlewares/Third_Party/RealThread_RTOS/components/finsh/cmd.c **** 
  33:Middlewares/Third_Party/RealThread_RTOS/components/finsh/cmd.c **** #include <rthw.h>
  34:Middlewares/Third_Party/RealThread_RTOS/components/finsh/cmd.c **** #include <rtthread.h>
  35:Middlewares/Third_Party/RealThread_RTOS/components/finsh/cmd.c **** #include <finsh_config.h>
  36:Middlewares/Third_Party/RealThread_RTOS/components/finsh/cmd.c **** 
  37:Middlewares/Third_Party/RealThread_RTOS/components/finsh/cmd.c **** #ifdef RT_USING_FINSH
  38:Middlewares/Third_Party/RealThread_RTOS/components/finsh/cmd.c **** 
  39:Middlewares/Third_Party/RealThread_RTOS/components/finsh/cmd.c **** #include "finsh.h"
  40:Middlewares/Third_Party/RealThread_RTOS/components/finsh/cmd.c **** 
  41:Middlewares/Third_Party/RealThread_RTOS/components/finsh/cmd.c **** #define LIST_FIND_OBJ_NR 8
  42:Middlewares/Third_Party/RealThread_RTOS/components/finsh/cmd.c **** 
  43:Middlewares/Third_Party/RealThread_RTOS/components/finsh/cmd.c **** long hello(void)
  44:Middlewares/Third_Party/RealThread_RTOS/components/finsh/cmd.c **** {
  31              		.loc 1 44 1 view -0
  32              		.cfi_startproc
  33              		@ args = 0, pretend = 0, frame = 0
  34              		@ frame_needed = 0, uses_anonymous_args = 0
  35 0000 08B5     		push	{r3, lr}
  36              	.LCFI0:
  37              		.cfi_def_cfa_offset 8
  38              		.cfi_offset 3, -8
  39              		.cfi_offset 14, -4
  45:Middlewares/Third_Party/RealThread_RTOS/components/finsh/cmd.c ****     rt_kprintf("Hello RT-Thread!\n");
  40              		.loc 1 45 5 view .LVU1
  41 0002 0248     		ldr	r0, .L3
  42 0004 FFF7FEFF 		bl	rt_kprintf
  43              	.LVL0:
  46:Middlewares/Third_Party/RealThread_RTOS/components/finsh/cmd.c **** 
  47:Middlewares/Third_Party/RealThread_RTOS/components/finsh/cmd.c ****     return 0;
  44              		.loc 1 47 5 view .LVU2
  48:Middlewares/Third_Party/RealThread_RTOS/components/finsh/cmd.c **** }
  45              		.loc 1 48 1 is_stmt 0 view .LVU3
  46 0008 0020     		movs	r0, #0
  47 000a 08BD     		pop	{r3, pc}
  48              	.L4:
  49              		.align	2
  50              	.L3:
  51 000c 00000000 		.word	.LC0
  52              		.cfi_endproc
  53              	.LFE18:
  55              		.section	.rodata.show_wait_queue.str1.4,"aMS",%progbits,1
  56              		.align	2
  57              	.LC1:
  58 0000 257300   		.ascii	"%s\000"
  59 0003 00       		.align	2
  60              	.LC2:
  61 0004 2F00     		.ascii	"/\000"
  62              		.section	.text.show_wait_queue,"ax",%progbits
  63              		.align	1
  64              		.syntax unified
ARM GAS  C:\Users\Administrator\AppData\Local\Temp\ccWW9SnK.s 			page 3


  65              		.thumb
  66              		.thumb_func
  67              		.fpu softvfp
  69              	show_wait_queue:
  70              	.LVL1:
  71              	.LFB24:
  49:Middlewares/Third_Party/RealThread_RTOS/components/finsh/cmd.c **** FINSH_FUNCTION_EXPORT(hello, say hello world);
  50:Middlewares/Third_Party/RealThread_RTOS/components/finsh/cmd.c **** 
  51:Middlewares/Third_Party/RealThread_RTOS/components/finsh/cmd.c **** extern void rt_show_version(void);
  52:Middlewares/Third_Party/RealThread_RTOS/components/finsh/cmd.c **** long version(void)
  53:Middlewares/Third_Party/RealThread_RTOS/components/finsh/cmd.c **** {
  54:Middlewares/Third_Party/RealThread_RTOS/components/finsh/cmd.c ****     rt_show_version();
  55:Middlewares/Third_Party/RealThread_RTOS/components/finsh/cmd.c **** 
  56:Middlewares/Third_Party/RealThread_RTOS/components/finsh/cmd.c ****     return 0;
  57:Middlewares/Third_Party/RealThread_RTOS/components/finsh/cmd.c **** }
  58:Middlewares/Third_Party/RealThread_RTOS/components/finsh/cmd.c **** FINSH_FUNCTION_EXPORT(version, show RT-Thread version information);
  59:Middlewares/Third_Party/RealThread_RTOS/components/finsh/cmd.c **** MSH_CMD_EXPORT(version, show RT-Thread version information);
  60:Middlewares/Third_Party/RealThread_RTOS/components/finsh/cmd.c **** 
  61:Middlewares/Third_Party/RealThread_RTOS/components/finsh/cmd.c **** rt_inline void object_split(int len)
  62:Middlewares/Third_Party/RealThread_RTOS/components/finsh/cmd.c **** {
  63:Middlewares/Third_Party/RealThread_RTOS/components/finsh/cmd.c ****     while (len--) rt_kprintf("-");
  64:Middlewares/Third_Party/RealThread_RTOS/components/finsh/cmd.c **** }
  65:Middlewares/Third_Party/RealThread_RTOS/components/finsh/cmd.c **** 
  66:Middlewares/Third_Party/RealThread_RTOS/components/finsh/cmd.c **** typedef struct
  67:Middlewares/Third_Party/RealThread_RTOS/components/finsh/cmd.c **** {
  68:Middlewares/Third_Party/RealThread_RTOS/components/finsh/cmd.c ****     rt_list_t *list;
  69:Middlewares/Third_Party/RealThread_RTOS/components/finsh/cmd.c ****     rt_list_t **array;
  70:Middlewares/Third_Party/RealThread_RTOS/components/finsh/cmd.c ****     rt_uint8_t type;
  71:Middlewares/Third_Party/RealThread_RTOS/components/finsh/cmd.c ****     int nr;             /* input: max nr, can't be 0 */
  72:Middlewares/Third_Party/RealThread_RTOS/components/finsh/cmd.c ****     int nr_out;         /* out: got nr */
  73:Middlewares/Third_Party/RealThread_RTOS/components/finsh/cmd.c **** } list_get_next_t;
  74:Middlewares/Third_Party/RealThread_RTOS/components/finsh/cmd.c **** 
  75:Middlewares/Third_Party/RealThread_RTOS/components/finsh/cmd.c **** static void list_find_init(list_get_next_t *p, rt_uint8_t type, rt_list_t **array, int nr)
  76:Middlewares/Third_Party/RealThread_RTOS/components/finsh/cmd.c **** {
  77:Middlewares/Third_Party/RealThread_RTOS/components/finsh/cmd.c ****     struct rt_object_information *info;
  78:Middlewares/Third_Party/RealThread_RTOS/components/finsh/cmd.c ****     rt_list_t *list;
  79:Middlewares/Third_Party/RealThread_RTOS/components/finsh/cmd.c **** 
  80:Middlewares/Third_Party/RealThread_RTOS/components/finsh/cmd.c ****     info = rt_object_get_information((enum rt_object_class_type)type);
  81:Middlewares/Third_Party/RealThread_RTOS/components/finsh/cmd.c ****     list = &info->object_list;
  82:Middlewares/Third_Party/RealThread_RTOS/components/finsh/cmd.c **** 
  83:Middlewares/Third_Party/RealThread_RTOS/components/finsh/cmd.c ****     p->list = list;
  84:Middlewares/Third_Party/RealThread_RTOS/components/finsh/cmd.c ****     p->type = type;
  85:Middlewares/Third_Party/RealThread_RTOS/components/finsh/cmd.c ****     p->array = array;
  86:Middlewares/Third_Party/RealThread_RTOS/components/finsh/cmd.c ****     p->nr = nr;
  87:Middlewares/Third_Party/RealThread_RTOS/components/finsh/cmd.c ****     p->nr_out = 0;
  88:Middlewares/Third_Party/RealThread_RTOS/components/finsh/cmd.c **** }
  89:Middlewares/Third_Party/RealThread_RTOS/components/finsh/cmd.c **** 
  90:Middlewares/Third_Party/RealThread_RTOS/components/finsh/cmd.c **** static rt_list_t *list_get_next(rt_list_t *current, list_get_next_t *arg)
  91:Middlewares/Third_Party/RealThread_RTOS/components/finsh/cmd.c **** {
  92:Middlewares/Third_Party/RealThread_RTOS/components/finsh/cmd.c ****     int first_flag = 0;
  93:Middlewares/Third_Party/RealThread_RTOS/components/finsh/cmd.c ****     rt_ubase_t level;
  94:Middlewares/Third_Party/RealThread_RTOS/components/finsh/cmd.c ****     rt_list_t *node, *list;
  95:Middlewares/Third_Party/RealThread_RTOS/components/finsh/cmd.c ****     rt_list_t **array;
  96:Middlewares/Third_Party/RealThread_RTOS/components/finsh/cmd.c ****     int nr;
  97:Middlewares/Third_Party/RealThread_RTOS/components/finsh/cmd.c **** 
  98:Middlewares/Third_Party/RealThread_RTOS/components/finsh/cmd.c ****     arg->nr_out = 0;
  99:Middlewares/Third_Party/RealThread_RTOS/components/finsh/cmd.c **** 
ARM GAS  C:\Users\Administrator\AppData\Local\Temp\ccWW9SnK.s 			page 4


 100:Middlewares/Third_Party/RealThread_RTOS/components/finsh/cmd.c ****     if (!arg->nr || !arg->type)
 101:Middlewares/Third_Party/RealThread_RTOS/components/finsh/cmd.c ****     {
 102:Middlewares/Third_Party/RealThread_RTOS/components/finsh/cmd.c ****         return (rt_list_t *)RT_NULL;
 103:Middlewares/Third_Party/RealThread_RTOS/components/finsh/cmd.c ****     }
 104:Middlewares/Third_Party/RealThread_RTOS/components/finsh/cmd.c **** 
 105:Middlewares/Third_Party/RealThread_RTOS/components/finsh/cmd.c ****     list = arg->list;
 106:Middlewares/Third_Party/RealThread_RTOS/components/finsh/cmd.c **** 
 107:Middlewares/Third_Party/RealThread_RTOS/components/finsh/cmd.c ****     if (!current) /* find first */
 108:Middlewares/Third_Party/RealThread_RTOS/components/finsh/cmd.c ****     {
 109:Middlewares/Third_Party/RealThread_RTOS/components/finsh/cmd.c ****         node = list;
 110:Middlewares/Third_Party/RealThread_RTOS/components/finsh/cmd.c ****         first_flag = 1;
 111:Middlewares/Third_Party/RealThread_RTOS/components/finsh/cmd.c ****     }
 112:Middlewares/Third_Party/RealThread_RTOS/components/finsh/cmd.c ****     else
 113:Middlewares/Third_Party/RealThread_RTOS/components/finsh/cmd.c ****     {
 114:Middlewares/Third_Party/RealThread_RTOS/components/finsh/cmd.c ****         node = current;
 115:Middlewares/Third_Party/RealThread_RTOS/components/finsh/cmd.c ****     }
 116:Middlewares/Third_Party/RealThread_RTOS/components/finsh/cmd.c **** 
 117:Middlewares/Third_Party/RealThread_RTOS/components/finsh/cmd.c ****     level = rt_hw_interrupt_disable();
 118:Middlewares/Third_Party/RealThread_RTOS/components/finsh/cmd.c **** 
 119:Middlewares/Third_Party/RealThread_RTOS/components/finsh/cmd.c ****     if (!first_flag)
 120:Middlewares/Third_Party/RealThread_RTOS/components/finsh/cmd.c ****     {
 121:Middlewares/Third_Party/RealThread_RTOS/components/finsh/cmd.c ****         struct rt_object *obj;
 122:Middlewares/Third_Party/RealThread_RTOS/components/finsh/cmd.c ****         /* The node in the list? */
 123:Middlewares/Third_Party/RealThread_RTOS/components/finsh/cmd.c ****         obj = rt_list_entry(node, struct rt_object, list);
 124:Middlewares/Third_Party/RealThread_RTOS/components/finsh/cmd.c ****         if ((obj->type & ~RT_Object_Class_Static) != arg->type)
 125:Middlewares/Third_Party/RealThread_RTOS/components/finsh/cmd.c ****         {
 126:Middlewares/Third_Party/RealThread_RTOS/components/finsh/cmd.c ****             rt_hw_interrupt_enable(level);
 127:Middlewares/Third_Party/RealThread_RTOS/components/finsh/cmd.c ****             return (rt_list_t *)RT_NULL;
 128:Middlewares/Third_Party/RealThread_RTOS/components/finsh/cmd.c ****         }
 129:Middlewares/Third_Party/RealThread_RTOS/components/finsh/cmd.c ****     }
 130:Middlewares/Third_Party/RealThread_RTOS/components/finsh/cmd.c **** 
 131:Middlewares/Third_Party/RealThread_RTOS/components/finsh/cmd.c ****     nr = 0;
 132:Middlewares/Third_Party/RealThread_RTOS/components/finsh/cmd.c ****     array = arg->array;
 133:Middlewares/Third_Party/RealThread_RTOS/components/finsh/cmd.c ****     while (1)
 134:Middlewares/Third_Party/RealThread_RTOS/components/finsh/cmd.c ****     {
 135:Middlewares/Third_Party/RealThread_RTOS/components/finsh/cmd.c ****         node = node->next;
 136:Middlewares/Third_Party/RealThread_RTOS/components/finsh/cmd.c **** 
 137:Middlewares/Third_Party/RealThread_RTOS/components/finsh/cmd.c ****         if (node == list)
 138:Middlewares/Third_Party/RealThread_RTOS/components/finsh/cmd.c ****         {
 139:Middlewares/Third_Party/RealThread_RTOS/components/finsh/cmd.c ****             node = (rt_list_t *)RT_NULL;
 140:Middlewares/Third_Party/RealThread_RTOS/components/finsh/cmd.c ****             break;
 141:Middlewares/Third_Party/RealThread_RTOS/components/finsh/cmd.c ****         }
 142:Middlewares/Third_Party/RealThread_RTOS/components/finsh/cmd.c ****         nr++;
 143:Middlewares/Third_Party/RealThread_RTOS/components/finsh/cmd.c ****         *array++ = node;
 144:Middlewares/Third_Party/RealThread_RTOS/components/finsh/cmd.c ****         if (nr == arg->nr)
 145:Middlewares/Third_Party/RealThread_RTOS/components/finsh/cmd.c ****         {
 146:Middlewares/Third_Party/RealThread_RTOS/components/finsh/cmd.c ****             break;
 147:Middlewares/Third_Party/RealThread_RTOS/components/finsh/cmd.c ****         }
 148:Middlewares/Third_Party/RealThread_RTOS/components/finsh/cmd.c ****     }
 149:Middlewares/Third_Party/RealThread_RTOS/components/finsh/cmd.c **** 
 150:Middlewares/Third_Party/RealThread_RTOS/components/finsh/cmd.c ****     rt_hw_interrupt_enable(level);
 151:Middlewares/Third_Party/RealThread_RTOS/components/finsh/cmd.c ****     arg->nr_out = nr;
 152:Middlewares/Third_Party/RealThread_RTOS/components/finsh/cmd.c ****     return node;
 153:Middlewares/Third_Party/RealThread_RTOS/components/finsh/cmd.c **** }
 154:Middlewares/Third_Party/RealThread_RTOS/components/finsh/cmd.c **** 
 155:Middlewares/Third_Party/RealThread_RTOS/components/finsh/cmd.c **** long list_thread(void)
 156:Middlewares/Third_Party/RealThread_RTOS/components/finsh/cmd.c **** {
ARM GAS  C:\Users\Administrator\AppData\Local\Temp\ccWW9SnK.s 			page 5


 157:Middlewares/Third_Party/RealThread_RTOS/components/finsh/cmd.c ****     rt_ubase_t level;
 158:Middlewares/Third_Party/RealThread_RTOS/components/finsh/cmd.c ****     list_get_next_t find_arg;
 159:Middlewares/Third_Party/RealThread_RTOS/components/finsh/cmd.c ****     rt_list_t *obj_list[LIST_FIND_OBJ_NR];
 160:Middlewares/Third_Party/RealThread_RTOS/components/finsh/cmd.c ****     rt_list_t *next = (rt_list_t*)RT_NULL;
 161:Middlewares/Third_Party/RealThread_RTOS/components/finsh/cmd.c ****     const char *item_title = "thread";
 162:Middlewares/Third_Party/RealThread_RTOS/components/finsh/cmd.c ****     int maxlen;
 163:Middlewares/Third_Party/RealThread_RTOS/components/finsh/cmd.c **** 
 164:Middlewares/Third_Party/RealThread_RTOS/components/finsh/cmd.c ****     list_find_init(&find_arg, RT_Object_Class_Thread, obj_list, sizeof(obj_list)/sizeof(obj_list[0]
 165:Middlewares/Third_Party/RealThread_RTOS/components/finsh/cmd.c **** 
 166:Middlewares/Third_Party/RealThread_RTOS/components/finsh/cmd.c ****     maxlen = RT_NAME_MAX;
 167:Middlewares/Third_Party/RealThread_RTOS/components/finsh/cmd.c **** 
 168:Middlewares/Third_Party/RealThread_RTOS/components/finsh/cmd.c **** #ifdef RT_USING_SMP
 169:Middlewares/Third_Party/RealThread_RTOS/components/finsh/cmd.c ****     rt_kprintf("%-*.s cpu pri  status      sp     stack size max used left tick  error\n", maxlen, 
 170:Middlewares/Third_Party/RealThread_RTOS/components/finsh/cmd.c ****     rt_kprintf(     " --- ---  ------- ---------- ----------  ------  ---------- ---\n");
 171:Middlewares/Third_Party/RealThread_RTOS/components/finsh/cmd.c **** #else
 172:Middlewares/Third_Party/RealThread_RTOS/components/finsh/cmd.c ****     rt_kprintf("%-*.s pri  status      sp     stack size max used left tick  error\n", maxlen, item
 173:Middlewares/Third_Party/RealThread_RTOS/components/finsh/cmd.c ****     rt_kprintf(     " ---  ------- ---------- ----------  ------  ---------- ---\n");
 174:Middlewares/Third_Party/RealThread_RTOS/components/finsh/cmd.c **** #endif /*RT_USING_SMP*/
 175:Middlewares/Third_Party/RealThread_RTOS/components/finsh/cmd.c **** 
 176:Middlewares/Third_Party/RealThread_RTOS/components/finsh/cmd.c ****     do
 177:Middlewares/Third_Party/RealThread_RTOS/components/finsh/cmd.c ****     {
 178:Middlewares/Third_Party/RealThread_RTOS/components/finsh/cmd.c ****         next = list_get_next(next, &find_arg);
 179:Middlewares/Third_Party/RealThread_RTOS/components/finsh/cmd.c ****         {
 180:Middlewares/Third_Party/RealThread_RTOS/components/finsh/cmd.c ****             int i;
 181:Middlewares/Third_Party/RealThread_RTOS/components/finsh/cmd.c ****             for (i = 0; i < find_arg.nr_out; i++)
 182:Middlewares/Third_Party/RealThread_RTOS/components/finsh/cmd.c ****             {
 183:Middlewares/Third_Party/RealThread_RTOS/components/finsh/cmd.c ****                 struct rt_object *obj;
 184:Middlewares/Third_Party/RealThread_RTOS/components/finsh/cmd.c ****                 struct rt_thread thread_info, *thread;
 185:Middlewares/Third_Party/RealThread_RTOS/components/finsh/cmd.c **** 
 186:Middlewares/Third_Party/RealThread_RTOS/components/finsh/cmd.c ****                 obj = rt_list_entry(obj_list[i], struct rt_object, list);
 187:Middlewares/Third_Party/RealThread_RTOS/components/finsh/cmd.c ****                 level = rt_hw_interrupt_disable();
 188:Middlewares/Third_Party/RealThread_RTOS/components/finsh/cmd.c **** 
 189:Middlewares/Third_Party/RealThread_RTOS/components/finsh/cmd.c ****                 if ((obj->type & ~RT_Object_Class_Static) != find_arg.type)
 190:Middlewares/Third_Party/RealThread_RTOS/components/finsh/cmd.c ****                 {
 191:Middlewares/Third_Party/RealThread_RTOS/components/finsh/cmd.c ****                     rt_hw_interrupt_enable(level);
 192:Middlewares/Third_Party/RealThread_RTOS/components/finsh/cmd.c ****                     continue;
 193:Middlewares/Third_Party/RealThread_RTOS/components/finsh/cmd.c ****                 }
 194:Middlewares/Third_Party/RealThread_RTOS/components/finsh/cmd.c ****                 /* copy info */
 195:Middlewares/Third_Party/RealThread_RTOS/components/finsh/cmd.c ****                 memcpy(&thread_info, obj, sizeof thread_info);
 196:Middlewares/Third_Party/RealThread_RTOS/components/finsh/cmd.c ****                 rt_hw_interrupt_enable(level);
 197:Middlewares/Third_Party/RealThread_RTOS/components/finsh/cmd.c **** 
 198:Middlewares/Third_Party/RealThread_RTOS/components/finsh/cmd.c ****                 thread = (struct rt_thread*)obj;
 199:Middlewares/Third_Party/RealThread_RTOS/components/finsh/cmd.c ****                 {
 200:Middlewares/Third_Party/RealThread_RTOS/components/finsh/cmd.c ****                     rt_uint8_t stat;
 201:Middlewares/Third_Party/RealThread_RTOS/components/finsh/cmd.c ****                     rt_uint8_t *ptr;
 202:Middlewares/Third_Party/RealThread_RTOS/components/finsh/cmd.c **** 
 203:Middlewares/Third_Party/RealThread_RTOS/components/finsh/cmd.c **** #ifdef RT_USING_SMP
 204:Middlewares/Third_Party/RealThread_RTOS/components/finsh/cmd.c ****                     if (thread->oncpu != RT_CPU_DETACHED)
 205:Middlewares/Third_Party/RealThread_RTOS/components/finsh/cmd.c ****                         rt_kprintf("%-*.*s %3d %3d ", maxlen, RT_NAME_MAX, thread->name, thread->on
 206:Middlewares/Third_Party/RealThread_RTOS/components/finsh/cmd.c ****                     else
 207:Middlewares/Third_Party/RealThread_RTOS/components/finsh/cmd.c ****                         rt_kprintf("%-*.*s N/A %3d ", maxlen, RT_NAME_MAX, thread->name, thread->cu
 208:Middlewares/Third_Party/RealThread_RTOS/components/finsh/cmd.c **** 
 209:Middlewares/Third_Party/RealThread_RTOS/components/finsh/cmd.c **** #else
 210:Middlewares/Third_Party/RealThread_RTOS/components/finsh/cmd.c ****                     rt_kprintf("%-*.*s %3d ", maxlen, RT_NAME_MAX, thread->name, thread->current_pr
 211:Middlewares/Third_Party/RealThread_RTOS/components/finsh/cmd.c **** #endif /*RT_USING_SMP*/
 212:Middlewares/Third_Party/RealThread_RTOS/components/finsh/cmd.c ****                     stat = (thread->stat & RT_THREAD_STAT_MASK);
 213:Middlewares/Third_Party/RealThread_RTOS/components/finsh/cmd.c ****                     if (stat == RT_THREAD_READY)        rt_kprintf(" ready  ");
ARM GAS  C:\Users\Administrator\AppData\Local\Temp\ccWW9SnK.s 			page 6


 214:Middlewares/Third_Party/RealThread_RTOS/components/finsh/cmd.c ****                     else if (stat == RT_THREAD_SUSPEND) rt_kprintf(" suspend");
 215:Middlewares/Third_Party/RealThread_RTOS/components/finsh/cmd.c ****                     else if (stat == RT_THREAD_INIT)    rt_kprintf(" init   ");
 216:Middlewares/Third_Party/RealThread_RTOS/components/finsh/cmd.c ****                     else if (stat == RT_THREAD_CLOSE)   rt_kprintf(" close  ");
 217:Middlewares/Third_Party/RealThread_RTOS/components/finsh/cmd.c ****                     else if (stat == RT_THREAD_RUNNING) rt_kprintf(" running");
 218:Middlewares/Third_Party/RealThread_RTOS/components/finsh/cmd.c **** 
 219:Middlewares/Third_Party/RealThread_RTOS/components/finsh/cmd.c **** #if defined(ARCH_CPU_STACK_GROWS_UPWARD)
 220:Middlewares/Third_Party/RealThread_RTOS/components/finsh/cmd.c ****                     ptr = (rt_uint8_t *)thread->stack_addr + thread->stack_size - 1;
 221:Middlewares/Third_Party/RealThread_RTOS/components/finsh/cmd.c ****                     while (*ptr == '#')ptr --;
 222:Middlewares/Third_Party/RealThread_RTOS/components/finsh/cmd.c **** 
 223:Middlewares/Third_Party/RealThread_RTOS/components/finsh/cmd.c ****                     rt_kprintf(" 0x%08x 0x%08x    %02d%%   0x%08x %03d\n",
 224:Middlewares/Third_Party/RealThread_RTOS/components/finsh/cmd.c ****                             ((rt_ubase_t)thread->sp - (rt_ubase_t)thread->stack_addr),
 225:Middlewares/Third_Party/RealThread_RTOS/components/finsh/cmd.c ****                             thread->stack_size,
 226:Middlewares/Third_Party/RealThread_RTOS/components/finsh/cmd.c ****                             ((rt_ubase_t)ptr - (rt_ubase_t)thread->stack_addr) * 100 / thread->stac
 227:Middlewares/Third_Party/RealThread_RTOS/components/finsh/cmd.c ****                             thread->remaining_tick,
 228:Middlewares/Third_Party/RealThread_RTOS/components/finsh/cmd.c ****                             thread->error);
 229:Middlewares/Third_Party/RealThread_RTOS/components/finsh/cmd.c **** #else
 230:Middlewares/Third_Party/RealThread_RTOS/components/finsh/cmd.c ****                     ptr = (rt_uint8_t *)thread->stack_addr;
 231:Middlewares/Third_Party/RealThread_RTOS/components/finsh/cmd.c ****                     while (*ptr == '#')ptr ++;
 232:Middlewares/Third_Party/RealThread_RTOS/components/finsh/cmd.c **** 
 233:Middlewares/Third_Party/RealThread_RTOS/components/finsh/cmd.c ****                     rt_kprintf(" 0x%08x 0x%08x    %02d%%   0x%08x %03d\n",
 234:Middlewares/Third_Party/RealThread_RTOS/components/finsh/cmd.c ****                             thread->stack_size + ((rt_ubase_t)thread->stack_addr - (rt_ubase_t)thre
 235:Middlewares/Third_Party/RealThread_RTOS/components/finsh/cmd.c ****                             thread->stack_size,
 236:Middlewares/Third_Party/RealThread_RTOS/components/finsh/cmd.c ****                             (thread->stack_size - ((rt_ubase_t) ptr - (rt_ubase_t) thread->stack_ad
 237:Middlewares/Third_Party/RealThread_RTOS/components/finsh/cmd.c ****                             / thread->stack_size,
 238:Middlewares/Third_Party/RealThread_RTOS/components/finsh/cmd.c ****                             thread->remaining_tick,
 239:Middlewares/Third_Party/RealThread_RTOS/components/finsh/cmd.c ****                             thread->error);
 240:Middlewares/Third_Party/RealThread_RTOS/components/finsh/cmd.c **** #endif
 241:Middlewares/Third_Party/RealThread_RTOS/components/finsh/cmd.c ****                 }
 242:Middlewares/Third_Party/RealThread_RTOS/components/finsh/cmd.c ****             }
 243:Middlewares/Third_Party/RealThread_RTOS/components/finsh/cmd.c ****         }
 244:Middlewares/Third_Party/RealThread_RTOS/components/finsh/cmd.c ****     }
 245:Middlewares/Third_Party/RealThread_RTOS/components/finsh/cmd.c ****     while (next != (rt_list_t*)RT_NULL);
 246:Middlewares/Third_Party/RealThread_RTOS/components/finsh/cmd.c **** 
 247:Middlewares/Third_Party/RealThread_RTOS/components/finsh/cmd.c ****     return 0;
 248:Middlewares/Third_Party/RealThread_RTOS/components/finsh/cmd.c **** }
 249:Middlewares/Third_Party/RealThread_RTOS/components/finsh/cmd.c **** FINSH_FUNCTION_EXPORT(list_thread, list thread);
 250:Middlewares/Third_Party/RealThread_RTOS/components/finsh/cmd.c **** MSH_CMD_EXPORT(list_thread, list thread);
 251:Middlewares/Third_Party/RealThread_RTOS/components/finsh/cmd.c **** 
 252:Middlewares/Third_Party/RealThread_RTOS/components/finsh/cmd.c **** static void show_wait_queue(struct rt_list_node *list)
 253:Middlewares/Third_Party/RealThread_RTOS/components/finsh/cmd.c **** {
  72              		.loc 1 253 1 is_stmt 1 view -0
  73              		.cfi_startproc
  74              		@ args = 0, pretend = 0, frame = 0
  75              		@ frame_needed = 0, uses_anonymous_args = 0
  76              		.loc 1 253 1 is_stmt 0 view .LVU5
  77 0000 38B5     		push	{r3, r4, r5, lr}
  78              	.LCFI1:
  79              		.cfi_def_cfa_offset 16
  80              		.cfi_offset 3, -16
  81              		.cfi_offset 4, -12
  82              		.cfi_offset 5, -8
  83              		.cfi_offset 14, -4
  84 0002 0546     		mov	r5, r0
 254:Middlewares/Third_Party/RealThread_RTOS/components/finsh/cmd.c ****     struct rt_thread *thread;
  85              		.loc 1 254 5 is_stmt 1 view .LVU6
 255:Middlewares/Third_Party/RealThread_RTOS/components/finsh/cmd.c ****     struct rt_list_node *node;
  86              		.loc 1 255 5 view .LVU7
ARM GAS  C:\Users\Administrator\AppData\Local\Temp\ccWW9SnK.s 			page 7


 256:Middlewares/Third_Party/RealThread_RTOS/components/finsh/cmd.c **** 
 257:Middlewares/Third_Party/RealThread_RTOS/components/finsh/cmd.c ****     for (node = list->next; node != list; node = node->next)
  87              		.loc 1 257 5 view .LVU8
  88              		.loc 1 257 15 is_stmt 0 view .LVU9
  89 0004 0468     		ldr	r4, [r0]
  90              	.LVL2:
  91              		.loc 1 257 5 view .LVU10
  92 0006 00E0     		b	.L6
  93              	.LVL3:
  94              	.L7:
  95              		.loc 1 257 43 is_stmt 1 discriminator 2 view .LVU11
  96              		.loc 1 257 48 is_stmt 0 discriminator 2 view .LVU12
  97 0008 2468     		ldr	r4, [r4]
  98              	.LVL4:
  99              	.L6:
 100              		.loc 1 257 29 is_stmt 1 discriminator 1 view .LVU13
 101              		.loc 1 257 5 is_stmt 0 discriminator 1 view .LVU14
 102 000a AC42     		cmp	r4, r5
 103 000c 0BD0     		beq	.L10
 258:Middlewares/Third_Party/RealThread_RTOS/components/finsh/cmd.c ****     {
 259:Middlewares/Third_Party/RealThread_RTOS/components/finsh/cmd.c ****         thread = rt_list_entry(node, struct rt_thread, tlist);
 104              		.loc 1 259 9 is_stmt 1 view .LVU15
 105              	.LVL5:
 260:Middlewares/Third_Party/RealThread_RTOS/components/finsh/cmd.c ****         rt_kprintf("%s", thread->name);
 106              		.loc 1 260 9 view .LVU16
 107 000e A4F11401 		sub	r1, r4, #20
 108              	.LVL6:
 109              		.loc 1 260 9 is_stmt 0 view .LVU17
 110 0012 0548     		ldr	r0, .L11
 111 0014 FFF7FEFF 		bl	rt_kprintf
 112              	.LVL7:
 261:Middlewares/Third_Party/RealThread_RTOS/components/finsh/cmd.c **** 
 262:Middlewares/Third_Party/RealThread_RTOS/components/finsh/cmd.c ****         if (node->next != list)
 113              		.loc 1 262 9 is_stmt 1 view .LVU18
 114              		.loc 1 262 17 is_stmt 0 view .LVU19
 115 0018 2368     		ldr	r3, [r4]
 116              		.loc 1 262 12 view .LVU20
 117 001a AB42     		cmp	r3, r5
 118 001c F4D0     		beq	.L7
 263:Middlewares/Third_Party/RealThread_RTOS/components/finsh/cmd.c ****             rt_kprintf("/");
 119              		.loc 1 263 13 is_stmt 1 view .LVU21
 120 001e 0348     		ldr	r0, .L11+4
 121 0020 FFF7FEFF 		bl	rt_kprintf
 122              	.LVL8:
 123 0024 F0E7     		b	.L7
 124              	.LVL9:
 125              	.L10:
 264:Middlewares/Third_Party/RealThread_RTOS/components/finsh/cmd.c ****     }
 265:Middlewares/Third_Party/RealThread_RTOS/components/finsh/cmd.c **** }
 126              		.loc 1 265 1 is_stmt 0 view .LVU22
 127 0026 38BD     		pop	{r3, r4, r5, pc}
 128              	.LVL10:
 129              	.L12:
 130              		.loc 1 265 1 view .LVU23
 131              		.align	2
 132              	.L11:
 133 0028 00000000 		.word	.LC1
ARM GAS  C:\Users\Administrator\AppData\Local\Temp\ccWW9SnK.s 			page 8


 134 002c 04000000 		.word	.LC2
 135              		.cfi_endproc
 136              	.LFE24:
 138              		.section	.text.version,"ax",%progbits
 139              		.align	1
 140              		.global	version
 141              		.syntax unified
 142              		.thumb
 143              		.thumb_func
 144              		.fpu softvfp
 146              	version:
 147              	.LFB19:
  53:Middlewares/Third_Party/RealThread_RTOS/components/finsh/cmd.c ****     rt_show_version();
 148              		.loc 1 53 1 is_stmt 1 view -0
 149              		.cfi_startproc
 150              		@ args = 0, pretend = 0, frame = 0
 151              		@ frame_needed = 0, uses_anonymous_args = 0
 152 0000 08B5     		push	{r3, lr}
 153              	.LCFI2:
 154              		.cfi_def_cfa_offset 8
 155              		.cfi_offset 3, -8
 156              		.cfi_offset 14, -4
  54:Middlewares/Third_Party/RealThread_RTOS/components/finsh/cmd.c **** 
 157              		.loc 1 54 5 view .LVU25
 158 0002 FFF7FEFF 		bl	rt_show_version
 159              	.LVL11:
  56:Middlewares/Third_Party/RealThread_RTOS/components/finsh/cmd.c **** }
 160              		.loc 1 56 5 view .LVU26
  57:Middlewares/Third_Party/RealThread_RTOS/components/finsh/cmd.c **** FINSH_FUNCTION_EXPORT(version, show RT-Thread version information);
 161              		.loc 1 57 1 is_stmt 0 view .LVU27
 162 0006 0020     		movs	r0, #0
 163 0008 08BD     		pop	{r3, pc}
 164              		.cfi_endproc
 165              	.LFE19:
 167              		.section	.text.list_get_next,"ax",%progbits
 168              		.align	1
 169              		.syntax unified
 170              		.thumb
 171              		.thumb_func
 172              		.fpu softvfp
 174              	list_get_next:
 175              	.LVL12:
 176              	.LFB22:
  91:Middlewares/Third_Party/RealThread_RTOS/components/finsh/cmd.c ****     int first_flag = 0;
 177              		.loc 1 91 1 is_stmt 1 view -0
 178              		.cfi_startproc
 179              		@ args = 0, pretend = 0, frame = 0
 180              		@ frame_needed = 0, uses_anonymous_args = 0
  91:Middlewares/Third_Party/RealThread_RTOS/components/finsh/cmd.c ****     int first_flag = 0;
 181              		.loc 1 91 1 is_stmt 0 view .LVU29
 182 0000 F8B5     		push	{r3, r4, r5, r6, r7, lr}
 183              	.LCFI3:
 184              		.cfi_def_cfa_offset 24
 185              		.cfi_offset 3, -24
 186              		.cfi_offset 4, -20
 187              		.cfi_offset 5, -16
 188              		.cfi_offset 6, -12
ARM GAS  C:\Users\Administrator\AppData\Local\Temp\ccWW9SnK.s 			page 9


 189              		.cfi_offset 7, -8
 190              		.cfi_offset 14, -4
  92:Middlewares/Third_Party/RealThread_RTOS/components/finsh/cmd.c ****     rt_ubase_t level;
 191              		.loc 1 92 5 is_stmt 1 view .LVU30
 192              	.LVL13:
  93:Middlewares/Third_Party/RealThread_RTOS/components/finsh/cmd.c ****     rt_list_t *node, *list;
 193              		.loc 1 93 5 view .LVU31
  94:Middlewares/Third_Party/RealThread_RTOS/components/finsh/cmd.c ****     rt_list_t **array;
 194              		.loc 1 94 5 view .LVU32
  95:Middlewares/Third_Party/RealThread_RTOS/components/finsh/cmd.c ****     int nr;
 195              		.loc 1 95 5 view .LVU33
  96:Middlewares/Third_Party/RealThread_RTOS/components/finsh/cmd.c **** 
 196              		.loc 1 96 5 view .LVU34
  98:Middlewares/Third_Party/RealThread_RTOS/components/finsh/cmd.c **** 
 197              		.loc 1 98 5 view .LVU35
  98:Middlewares/Third_Party/RealThread_RTOS/components/finsh/cmd.c **** 
 198              		.loc 1 98 17 is_stmt 0 view .LVU36
 199 0002 0023     		movs	r3, #0
 200 0004 0B61     		str	r3, [r1, #16]
 100:Middlewares/Third_Party/RealThread_RTOS/components/finsh/cmd.c ****     {
 201              		.loc 1 100 5 is_stmt 1 view .LVU37
 100:Middlewares/Third_Party/RealThread_RTOS/components/finsh/cmd.c ****     {
 202              		.loc 1 100 13 is_stmt 0 view .LVU38
 203 0006 CB68     		ldr	r3, [r1, #12]
 100:Middlewares/Third_Party/RealThread_RTOS/components/finsh/cmd.c ****     {
 204              		.loc 1 100 8 view .LVU39
 205 0008 4BB3     		cbz	r3, .L21
 206 000a 0446     		mov	r4, r0
 207 000c 0E46     		mov	r6, r1
 100:Middlewares/Third_Party/RealThread_RTOS/components/finsh/cmd.c ****     {
 208              		.loc 1 100 25 discriminator 1 view .LVU40
 209 000e 0B7A     		ldrb	r3, [r1, #8]	@ zero_extendqisi2
 100:Middlewares/Third_Party/RealThread_RTOS/components/finsh/cmd.c ****     {
 210              		.loc 1 100 18 discriminator 1 view .LVU41
 211 0010 3BB3     		cbz	r3, .L22
 105:Middlewares/Third_Party/RealThread_RTOS/components/finsh/cmd.c **** 
 212              		.loc 1 105 5 is_stmt 1 view .LVU42
 105:Middlewares/Third_Party/RealThread_RTOS/components/finsh/cmd.c **** 
 213              		.loc 1 105 10 is_stmt 0 view .LVU43
 214 0012 0F68     		ldr	r7, [r1]
 215              	.LVL14:
 107:Middlewares/Third_Party/RealThread_RTOS/components/finsh/cmd.c ****     {
 216              		.loc 1 107 5 is_stmt 1 view .LVU44
 107:Middlewares/Third_Party/RealThread_RTOS/components/finsh/cmd.c ****     {
 217              		.loc 1 107 8 is_stmt 0 view .LVU45
 218 0014 B0B1     		cbz	r0, .L27
  92:Middlewares/Third_Party/RealThread_RTOS/components/finsh/cmd.c ****     rt_ubase_t level;
 219              		.loc 1 92 9 view .LVU46
 220 0016 0025     		movs	r5, #0
 221              	.L17:
 222              	.LVL15:
 117:Middlewares/Third_Party/RealThread_RTOS/components/finsh/cmd.c **** 
 223              		.loc 1 117 5 is_stmt 1 view .LVU47
 117:Middlewares/Third_Party/RealThread_RTOS/components/finsh/cmd.c **** 
 224              		.loc 1 117 13 is_stmt 0 view .LVU48
 225 0018 FFF7FEFF 		bl	rt_hw_interrupt_disable
 226              	.LVL16:
ARM GAS  C:\Users\Administrator\AppData\Local\Temp\ccWW9SnK.s 			page 10


 119:Middlewares/Third_Party/RealThread_RTOS/components/finsh/cmd.c ****     {
 227              		.loc 1 119 5 is_stmt 1 view .LVU49
 119:Middlewares/Third_Party/RealThread_RTOS/components/finsh/cmd.c ****     {
 228              		.loc 1 119 8 is_stmt 0 view .LVU50
 229 001c 35B9     		cbnz	r5, .L18
 230              	.LBB59:
 121:Middlewares/Third_Party/RealThread_RTOS/components/finsh/cmd.c ****         /* The node in the list? */
 231              		.loc 1 121 9 is_stmt 1 view .LVU51
 123:Middlewares/Third_Party/RealThread_RTOS/components/finsh/cmd.c ****         if ((obj->type & ~RT_Object_Class_Static) != arg->type)
 232              		.loc 1 123 9 view .LVU52
 233              	.LVL17:
 124:Middlewares/Third_Party/RealThread_RTOS/components/finsh/cmd.c ****         {
 234              		.loc 1 124 9 view .LVU53
 124:Middlewares/Third_Party/RealThread_RTOS/components/finsh/cmd.c ****         {
 235              		.loc 1 124 17 is_stmt 0 view .LVU54
 236 001e 14F8043C 		ldrb	r3, [r4, #-4]	@ zero_extendqisi2
 124:Middlewares/Third_Party/RealThread_RTOS/components/finsh/cmd.c ****         {
 237              		.loc 1 124 24 view .LVU55
 238 0022 23F08003 		bic	r3, r3, #128
 124:Middlewares/Third_Party/RealThread_RTOS/components/finsh/cmd.c ****         {
 239              		.loc 1 124 57 view .LVU56
 240 0026 327A     		ldrb	r2, [r6, #8]	@ zero_extendqisi2
 124:Middlewares/Third_Party/RealThread_RTOS/components/finsh/cmd.c ****         {
 241              		.loc 1 124 12 view .LVU57
 242 0028 9342     		cmp	r3, r2
 243 002a 0ED1     		bne	.L28
 244              	.LVL18:
 245              	.L18:
 124:Middlewares/Third_Party/RealThread_RTOS/components/finsh/cmd.c ****         {
 246              		.loc 1 124 12 view .LVU58
 247              	.LBE59:
 131:Middlewares/Third_Party/RealThread_RTOS/components/finsh/cmd.c ****     array = arg->array;
 248              		.loc 1 131 5 is_stmt 1 view .LVU59
 132:Middlewares/Third_Party/RealThread_RTOS/components/finsh/cmd.c ****     while (1)
 249              		.loc 1 132 5 view .LVU60
 132:Middlewares/Third_Party/RealThread_RTOS/components/finsh/cmd.c ****     while (1)
 250              		.loc 1 132 11 is_stmt 0 view .LVU61
 251 002c 7368     		ldr	r3, [r6, #4]
 252              	.LVL19:
 131:Middlewares/Third_Party/RealThread_RTOS/components/finsh/cmd.c ****     array = arg->array;
 253              		.loc 1 131 8 view .LVU62
 254 002e 0025     		movs	r5, #0
 255              	.LVL20:
 256              	.L20:
 133:Middlewares/Third_Party/RealThread_RTOS/components/finsh/cmd.c ****     {
 257              		.loc 1 133 5 is_stmt 1 view .LVU63
 135:Middlewares/Third_Party/RealThread_RTOS/components/finsh/cmd.c **** 
 258              		.loc 1 135 9 view .LVU64
 135:Middlewares/Third_Party/RealThread_RTOS/components/finsh/cmd.c **** 
 259              		.loc 1 135 14 is_stmt 0 view .LVU65
 260 0030 2468     		ldr	r4, [r4]
 261              	.LVL21:
 137:Middlewares/Third_Party/RealThread_RTOS/components/finsh/cmd.c ****         {
 262              		.loc 1 137 9 is_stmt 1 view .LVU66
 137:Middlewares/Third_Party/RealThread_RTOS/components/finsh/cmd.c ****         {
 263              		.loc 1 137 12 is_stmt 0 view .LVU67
 264 0032 A742     		cmp	r7, r4
ARM GAS  C:\Users\Administrator\AppData\Local\Temp\ccWW9SnK.s 			page 11


 265 0034 0DD0     		beq	.L24
 142:Middlewares/Third_Party/RealThread_RTOS/components/finsh/cmd.c ****         *array++ = node;
 266              		.loc 1 142 9 is_stmt 1 view .LVU68
 142:Middlewares/Third_Party/RealThread_RTOS/components/finsh/cmd.c ****         *array++ = node;
 267              		.loc 1 142 11 is_stmt 0 view .LVU69
 268 0036 0135     		adds	r5, r5, #1
 269              	.LVL22:
 143:Middlewares/Third_Party/RealThread_RTOS/components/finsh/cmd.c ****         if (nr == arg->nr)
 270              		.loc 1 143 9 is_stmt 1 view .LVU70
 143:Middlewares/Third_Party/RealThread_RTOS/components/finsh/cmd.c ****         if (nr == arg->nr)
 271              		.loc 1 143 18 is_stmt 0 view .LVU71
 272 0038 43F8044B 		str	r4, [r3], #4
 273              	.LVL23:
 144:Middlewares/Third_Party/RealThread_RTOS/components/finsh/cmd.c ****         {
 274              		.loc 1 144 9 is_stmt 1 view .LVU72
 144:Middlewares/Third_Party/RealThread_RTOS/components/finsh/cmd.c ****         {
 275              		.loc 1 144 22 is_stmt 0 view .LVU73
 276 003c F268     		ldr	r2, [r6, #12]
 144:Middlewares/Third_Party/RealThread_RTOS/components/finsh/cmd.c ****         {
 277              		.loc 1 144 12 view .LVU74
 278 003e AA42     		cmp	r2, r5
 279 0040 F6D1     		bne	.L20
 280 0042 07E0     		b	.L19
 281              	.LVL24:
 282              	.L27:
 109:Middlewares/Third_Party/RealThread_RTOS/components/finsh/cmd.c ****         first_flag = 1;
 283              		.loc 1 109 14 view .LVU75
 284 0044 3C46     		mov	r4, r7
 110:Middlewares/Third_Party/RealThread_RTOS/components/finsh/cmd.c ****     }
 285              		.loc 1 110 20 view .LVU76
 286 0046 0125     		movs	r5, #1
 287 0048 E6E7     		b	.L17
 288              	.LVL25:
 289              	.L28:
 290              	.LBB60:
 126:Middlewares/Third_Party/RealThread_RTOS/components/finsh/cmd.c ****             return (rt_list_t *)RT_NULL;
 291              		.loc 1 126 13 is_stmt 1 view .LVU77
 292 004a FFF7FEFF 		bl	rt_hw_interrupt_enable
 293              	.LVL26:
 127:Middlewares/Third_Party/RealThread_RTOS/components/finsh/cmd.c ****         }
 294              		.loc 1 127 13 view .LVU78
 127:Middlewares/Third_Party/RealThread_RTOS/components/finsh/cmd.c ****         }
 295              		.loc 1 127 20 is_stmt 0 view .LVU79
 296 004e 0024     		movs	r4, #0
 297              	.LVL27:
 127:Middlewares/Third_Party/RealThread_RTOS/components/finsh/cmd.c ****         }
 298              		.loc 1 127 20 view .LVU80
 299 0050 03E0     		b	.L15
 300              	.LVL28:
 301              	.L24:
 127:Middlewares/Third_Party/RealThread_RTOS/components/finsh/cmd.c ****         }
 302              		.loc 1 127 20 view .LVU81
 303              	.LBE60:
 139:Middlewares/Third_Party/RealThread_RTOS/components/finsh/cmd.c ****             break;
 304              		.loc 1 139 18 view .LVU82
 305 0052 0024     		movs	r4, #0
 306              	.LVL29:
ARM GAS  C:\Users\Administrator\AppData\Local\Temp\ccWW9SnK.s 			page 12


 307              	.L19:
 150:Middlewares/Third_Party/RealThread_RTOS/components/finsh/cmd.c ****     arg->nr_out = nr;
 308              		.loc 1 150 5 is_stmt 1 view .LVU83
 309 0054 FFF7FEFF 		bl	rt_hw_interrupt_enable
 310              	.LVL30:
 151:Middlewares/Third_Party/RealThread_RTOS/components/finsh/cmd.c ****     return node;
 311              		.loc 1 151 5 view .LVU84
 151:Middlewares/Third_Party/RealThread_RTOS/components/finsh/cmd.c ****     return node;
 312              		.loc 1 151 17 is_stmt 0 view .LVU85
 313 0058 3561     		str	r5, [r6, #16]
 152:Middlewares/Third_Party/RealThread_RTOS/components/finsh/cmd.c **** }
 314              		.loc 1 152 5 is_stmt 1 view .LVU86
 315              	.LVL31:
 316              	.L15:
 153:Middlewares/Third_Party/RealThread_RTOS/components/finsh/cmd.c **** 
 317              		.loc 1 153 1 is_stmt 0 view .LVU87
 318 005a 2046     		mov	r0, r4
 319 005c F8BD     		pop	{r3, r4, r5, r6, r7, pc}
 320              	.LVL32:
 321              	.L21:
 102:Middlewares/Third_Party/RealThread_RTOS/components/finsh/cmd.c ****     }
 322              		.loc 1 102 16 view .LVU88
 323 005e 0024     		movs	r4, #0
 324 0060 FBE7     		b	.L15
 325              	.L22:
 102:Middlewares/Third_Party/RealThread_RTOS/components/finsh/cmd.c ****     }
 326              		.loc 1 102 16 view .LVU89
 327 0062 0024     		movs	r4, #0
 328 0064 F9E7     		b	.L15
 329              		.cfi_endproc
 330              	.LFE22:
 332              		.section	.text.list_find_init,"ax",%progbits
 333              		.align	1
 334              		.syntax unified
 335              		.thumb
 336              		.thumb_func
 337              		.fpu softvfp
 339              	list_find_init:
 340              	.LVL33:
 341              	.LFB21:
  76:Middlewares/Third_Party/RealThread_RTOS/components/finsh/cmd.c ****     struct rt_object_information *info;
 342              		.loc 1 76 1 is_stmt 1 view -0
 343              		.cfi_startproc
 344              		@ args = 0, pretend = 0, frame = 0
 345              		@ frame_needed = 0, uses_anonymous_args = 0
  76:Middlewares/Third_Party/RealThread_RTOS/components/finsh/cmd.c ****     struct rt_object_information *info;
 346              		.loc 1 76 1 is_stmt 0 view .LVU91
 347 0000 F8B5     		push	{r3, r4, r5, r6, r7, lr}
 348              	.LCFI4:
 349              		.cfi_def_cfa_offset 24
 350              		.cfi_offset 3, -24
 351              		.cfi_offset 4, -20
 352              		.cfi_offset 5, -16
 353              		.cfi_offset 6, -12
 354              		.cfi_offset 7, -8
 355              		.cfi_offset 14, -4
 356 0002 0446     		mov	r4, r0
ARM GAS  C:\Users\Administrator\AppData\Local\Temp\ccWW9SnK.s 			page 13


 357 0004 0D46     		mov	r5, r1
 358 0006 1746     		mov	r7, r2
 359 0008 1E46     		mov	r6, r3
  77:Middlewares/Third_Party/RealThread_RTOS/components/finsh/cmd.c ****     rt_list_t *list;
 360              		.loc 1 77 5 is_stmt 1 view .LVU92
  78:Middlewares/Third_Party/RealThread_RTOS/components/finsh/cmd.c **** 
 361              		.loc 1 78 5 view .LVU93
  80:Middlewares/Third_Party/RealThread_RTOS/components/finsh/cmd.c ****     list = &info->object_list;
 362              		.loc 1 80 5 view .LVU94
  80:Middlewares/Third_Party/RealThread_RTOS/components/finsh/cmd.c ****     list = &info->object_list;
 363              		.loc 1 80 12 is_stmt 0 view .LVU95
 364 000a 0846     		mov	r0, r1
 365              	.LVL34:
  80:Middlewares/Third_Party/RealThread_RTOS/components/finsh/cmd.c ****     list = &info->object_list;
 366              		.loc 1 80 12 view .LVU96
 367 000c FFF7FEFF 		bl	rt_object_get_information
 368              	.LVL35:
  81:Middlewares/Third_Party/RealThread_RTOS/components/finsh/cmd.c **** 
 369              		.loc 1 81 5 is_stmt 1 view .LVU97
  81:Middlewares/Third_Party/RealThread_RTOS/components/finsh/cmd.c **** 
 370              		.loc 1 81 10 is_stmt 0 view .LVU98
 371 0010 0430     		adds	r0, r0, #4
 372              	.LVL36:
  83:Middlewares/Third_Party/RealThread_RTOS/components/finsh/cmd.c ****     p->type = type;
 373              		.loc 1 83 5 is_stmt 1 view .LVU99
  83:Middlewares/Third_Party/RealThread_RTOS/components/finsh/cmd.c ****     p->type = type;
 374              		.loc 1 83 13 is_stmt 0 view .LVU100
 375 0012 2060     		str	r0, [r4]
  84:Middlewares/Third_Party/RealThread_RTOS/components/finsh/cmd.c ****     p->array = array;
 376              		.loc 1 84 5 is_stmt 1 view .LVU101
  84:Middlewares/Third_Party/RealThread_RTOS/components/finsh/cmd.c ****     p->array = array;
 377              		.loc 1 84 13 is_stmt 0 view .LVU102
 378 0014 2572     		strb	r5, [r4, #8]
  85:Middlewares/Third_Party/RealThread_RTOS/components/finsh/cmd.c ****     p->nr = nr;
 379              		.loc 1 85 5 is_stmt 1 view .LVU103
  85:Middlewares/Third_Party/RealThread_RTOS/components/finsh/cmd.c ****     p->nr = nr;
 380              		.loc 1 85 14 is_stmt 0 view .LVU104
 381 0016 6760     		str	r7, [r4, #4]
  86:Middlewares/Third_Party/RealThread_RTOS/components/finsh/cmd.c ****     p->nr_out = 0;
 382              		.loc 1 86 5 is_stmt 1 view .LVU105
  86:Middlewares/Third_Party/RealThread_RTOS/components/finsh/cmd.c ****     p->nr_out = 0;
 383              		.loc 1 86 11 is_stmt 0 view .LVU106
 384 0018 E660     		str	r6, [r4, #12]
  87:Middlewares/Third_Party/RealThread_RTOS/components/finsh/cmd.c **** }
 385              		.loc 1 87 5 is_stmt 1 view .LVU107
  87:Middlewares/Third_Party/RealThread_RTOS/components/finsh/cmd.c **** }
 386              		.loc 1 87 15 is_stmt 0 view .LVU108
 387 001a 0023     		movs	r3, #0
 388 001c 2361     		str	r3, [r4, #16]
  88:Middlewares/Third_Party/RealThread_RTOS/components/finsh/cmd.c **** 
 389              		.loc 1 88 1 view .LVU109
 390 001e F8BD     		pop	{r3, r4, r5, r6, r7, pc}
  88:Middlewares/Third_Party/RealThread_RTOS/components/finsh/cmd.c **** 
 391              		.loc 1 88 1 view .LVU110
 392              		.cfi_endproc
 393              	.LFE21:
 395              		.section	.rodata.list_thread.str1.4,"aMS",%progbits,1
ARM GAS  C:\Users\Administrator\AppData\Local\Temp\ccWW9SnK.s 			page 14


 396              		.align	2
 397              	.LC3:
 398 0000 74687265 		.ascii	"thread\000"
 398      616400
 399 0007 00       		.align	2
 400              	.LC4:
 401 0008 252D2A2E 		.ascii	"%-*.s pri  status      sp     stack size max used l"
 401      73207072 
 401      69202073 
 401      74617475 
 401      73202020 
 402 003b 65667420 		.ascii	"eft tick  error\012\000"
 402      7469636B 
 402      20206572 
 402      726F720A 
 402      00
 403              		.align	2
 404              	.LC5:
 405 004c 2D00     		.ascii	"-\000"
 406 004e 0000     		.align	2
 407              	.LC6:
 408 0050 202D2D2D 		.ascii	" ---  ------- ---------- ----------  ------  ------"
 408      20202D2D 
 408      2D2D2D2D 
 408      2D202D2D 
 408      2D2D2D2D 
 409 0083 2D2D2D2D 		.ascii	"---- ---\012\000"
 409      202D2D2D 
 409      0A00
 410 008d 000000   		.align	2
 411              	.LC7:
 412 0090 252D2A2E 		.ascii	"%-*.*s %3d \000"
 412      2A732025 
 412      33642000 
 413              		.align	2
 414              	.LC8:
 415 009c 20726561 		.ascii	" ready  \000"
 415      64792020 
 415      00
 416 00a5 000000   		.align	2
 417              	.LC9:
 418 00a8 20737573 		.ascii	" suspend\000"
 418      70656E64 
 418      00
 419 00b1 000000   		.align	2
 420              	.LC10:
 421 00b4 20696E69 		.ascii	" init   \000"
 421      74202020 
 421      00
 422 00bd 000000   		.align	2
 423              	.LC11:
 424 00c0 20636C6F 		.ascii	" close  \000"
 424      73652020 
 424      00
 425 00c9 000000   		.align	2
 426              	.LC12:
 427 00cc 2072756E 		.ascii	" running\000"
ARM GAS  C:\Users\Administrator\AppData\Local\Temp\ccWW9SnK.s 			page 15


 427      6E696E67 
 427      00
 428 00d5 000000   		.align	2
 429              	.LC13:
 430 00d8 20307825 		.ascii	" 0x%08x 0x%08x    %02d%%   0x%08x %03d\012\000"
 430      30387820 
 430      30782530 
 430      38782020 
 430      20202530 
 431              		.section	.text.list_thread,"ax",%progbits
 432              		.align	1
 433              		.global	list_thread
 434              		.syntax unified
 435              		.thumb
 436              		.thumb_func
 437              		.fpu softvfp
 439              	list_thread:
 440              	.LFB23:
 156:Middlewares/Third_Party/RealThread_RTOS/components/finsh/cmd.c ****     rt_ubase_t level;
 441              		.loc 1 156 1 is_stmt 1 view -0
 442              		.cfi_startproc
 443              		@ args = 0, pretend = 0, frame = 184
 444              		@ frame_needed = 0, uses_anonymous_args = 0
 445 0000 2DE9F043 		push	{r4, r5, r6, r7, r8, r9, lr}
 446              	.LCFI5:
 447              		.cfi_def_cfa_offset 28
 448              		.cfi_offset 4, -28
 449              		.cfi_offset 5, -24
 450              		.cfi_offset 6, -20
 451              		.cfi_offset 7, -16
 452              		.cfi_offset 8, -12
 453              		.cfi_offset 9, -8
 454              		.cfi_offset 14, -4
 455 0004 B1B0     		sub	sp, sp, #196
 456              	.LCFI6:
 457              		.cfi_def_cfa_offset 224
 157:Middlewares/Third_Party/RealThread_RTOS/components/finsh/cmd.c ****     list_get_next_t find_arg;
 458              		.loc 1 157 5 view .LVU112
 158:Middlewares/Third_Party/RealThread_RTOS/components/finsh/cmd.c ****     rt_list_t *obj_list[LIST_FIND_OBJ_NR];
 459              		.loc 1 158 5 view .LVU113
 159:Middlewares/Third_Party/RealThread_RTOS/components/finsh/cmd.c ****     rt_list_t *next = (rt_list_t*)RT_NULL;
 460              		.loc 1 159 5 view .LVU114
 160:Middlewares/Third_Party/RealThread_RTOS/components/finsh/cmd.c ****     const char *item_title = "thread";
 461              		.loc 1 160 5 view .LVU115
 462              	.LVL37:
 161:Middlewares/Third_Party/RealThread_RTOS/components/finsh/cmd.c ****     int maxlen;
 463              		.loc 1 161 5 view .LVU116
 162:Middlewares/Third_Party/RealThread_RTOS/components/finsh/cmd.c **** 
 464              		.loc 1 162 5 view .LVU117
 164:Middlewares/Third_Party/RealThread_RTOS/components/finsh/cmd.c **** 
 465              		.loc 1 164 5 view .LVU118
 466 0006 0823     		movs	r3, #8
 467 0008 23AA     		add	r2, sp, #140
 468 000a 0121     		movs	r1, #1
 469 000c 2BA8     		add	r0, sp, #172
 470 000e FFF7FEFF 		bl	list_find_init
 471              	.LVL38:
ARM GAS  C:\Users\Administrator\AppData\Local\Temp\ccWW9SnK.s 			page 16


 166:Middlewares/Third_Party/RealThread_RTOS/components/finsh/cmd.c **** 
 472              		.loc 1 166 5 view .LVU119
 172:Middlewares/Third_Party/RealThread_RTOS/components/finsh/cmd.c ****     rt_kprintf(     " ---  ------- ---------- ----------  ------  ---------- ---\n");
 473              		.loc 1 172 5 view .LVU120
 474 0012 434A     		ldr	r2, .L55
 475 0014 0821     		movs	r1, #8
 476 0016 4348     		ldr	r0, .L55+4
 477 0018 FFF7FEFF 		bl	rt_kprintf
 478              	.LVL39:
 172:Middlewares/Third_Party/RealThread_RTOS/components/finsh/cmd.c ****     rt_kprintf(     " ---  ------- ---------- ----------  ------  ---------- ---\n");
 479              		.loc 1 172 109 view .LVU121
 480              	.LBB61:
 481              	.LBI61:
  61:Middlewares/Third_Party/RealThread_RTOS/components/finsh/cmd.c **** {
 482              		.loc 1 61 16 view .LVU122
 483              	.LBB62:
  63:Middlewares/Third_Party/RealThread_RTOS/components/finsh/cmd.c **** }
 484              		.loc 1 63 5 view .LVU123
  63:Middlewares/Third_Party/RealThread_RTOS/components/finsh/cmd.c **** }
 485              		.loc 1 63 11 is_stmt 0 view .LVU124
 486 001c 4FF00808 		mov	r8, #8
 487              	.LVL40:
 488              	.L32:
  63:Middlewares/Third_Party/RealThread_RTOS/components/finsh/cmd.c **** }
 489              		.loc 1 63 11 is_stmt 1 view .LVU125
  63:Middlewares/Third_Party/RealThread_RTOS/components/finsh/cmd.c **** }
 490              		.loc 1 63 15 is_stmt 0 view .LVU126
 491 0020 08F1FF34 		add	r4, r8, #-1
 492              	.LVL41:
  63:Middlewares/Third_Party/RealThread_RTOS/components/finsh/cmd.c **** }
 493              		.loc 1 63 11 view .LVU127
 494 0024 B8F1000F 		cmp	r8, #0
 495 0028 04D0     		beq	.L47
  63:Middlewares/Third_Party/RealThread_RTOS/components/finsh/cmd.c **** }
 496              		.loc 1 63 19 is_stmt 1 view .LVU128
 497 002a 3F48     		ldr	r0, .L55+8
 498 002c FFF7FEFF 		bl	rt_kprintf
 499              	.LVL42:
  63:Middlewares/Third_Party/RealThread_RTOS/components/finsh/cmd.c **** }
 500              		.loc 1 63 15 is_stmt 0 view .LVU129
 501 0030 A046     		mov	r8, r4
 502 0032 F5E7     		b	.L32
 503              	.L47:
 504              	.LVL43:
  63:Middlewares/Third_Party/RealThread_RTOS/components/finsh/cmd.c **** }
 505              		.loc 1 63 15 view .LVU130
 506              	.LBE62:
 507              	.LBE61:
 173:Middlewares/Third_Party/RealThread_RTOS/components/finsh/cmd.c **** #endif /*RT_USING_SMP*/
 508              		.loc 1 173 5 is_stmt 1 view .LVU131
 509 0034 3D48     		ldr	r0, .L55+12
 510 0036 FFF7FEFF 		bl	rt_kprintf
 511              	.LVL44:
 160:Middlewares/Third_Party/RealThread_RTOS/components/finsh/cmd.c ****     const char *item_title = "thread";
 512              		.loc 1 160 16 is_stmt 0 view .LVU132
 513 003a 0027     		movs	r7, #0
 514 003c 65E0     		b	.L45
ARM GAS  C:\Users\Administrator\AppData\Local\Temp\ccWW9SnK.s 			page 17


 515              	.LVL45:
 516              	.L35:
 517              	.LBB63:
 518              	.LBB64:
 195:Middlewares/Third_Party/RealThread_RTOS/components/finsh/cmd.c ****                 rt_hw_interrupt_enable(level);
 519              		.loc 1 195 17 is_stmt 1 view .LVU133
 520 003e 8022     		movs	r2, #128
 521 0040 4946     		mov	r1, r9
 522 0042 03A8     		add	r0, sp, #12
 523              	.LVL46:
 195:Middlewares/Third_Party/RealThread_RTOS/components/finsh/cmd.c ****                 rt_hw_interrupt_enable(level);
 524              		.loc 1 195 17 is_stmt 0 view .LVU134
 525 0044 FFF7FEFF 		bl	memcpy
 526              	.LVL47:
 196:Middlewares/Third_Party/RealThread_RTOS/components/finsh/cmd.c **** 
 527              		.loc 1 196 17 is_stmt 1 view .LVU135
 528 0048 3046     		mov	r0, r6
 529 004a FFF7FEFF 		bl	rt_hw_interrupt_enable
 530              	.LVL48:
 198:Middlewares/Third_Party/RealThread_RTOS/components/finsh/cmd.c ****                 {
 531              		.loc 1 198 17 view .LVU136
 532              	.LBB65:
 200:Middlewares/Third_Party/RealThread_RTOS/components/finsh/cmd.c ****                     rt_uint8_t *ptr;
 533              		.loc 1 200 21 view .LVU137
 201:Middlewares/Third_Party/RealThread_RTOS/components/finsh/cmd.c **** 
 534              		.loc 1 201 21 view .LVU138
 210:Middlewares/Third_Party/RealThread_RTOS/components/finsh/cmd.c **** #endif /*RT_USING_SMP*/
 535              		.loc 1 210 21 view .LVU139
 210:Middlewares/Third_Party/RealThread_RTOS/components/finsh/cmd.c **** #endif /*RT_USING_SMP*/
 536              		.loc 1 210 88 is_stmt 0 view .LVU140
 537 004e 94F82930 		ldrb	r3, [r4, #41]	@ zero_extendqisi2
 210:Middlewares/Third_Party/RealThread_RTOS/components/finsh/cmd.c **** #endif /*RT_USING_SMP*/
 538              		.loc 1 210 21 view .LVU141
 539 0052 0093     		str	r3, [sp]
 540 0054 A4F10C03 		sub	r3, r4, #12
 541 0058 0822     		movs	r2, #8
 542 005a 1146     		mov	r1, r2
 543 005c 3448     		ldr	r0, .L55+16
 544 005e FFF7FEFF 		bl	rt_kprintf
 545              	.LVL49:
 212:Middlewares/Third_Party/RealThread_RTOS/components/finsh/cmd.c ****                     if (stat == RT_THREAD_READY)        rt_kprintf(" ready  ");
 546              		.loc 1 212 21 is_stmt 1 view .LVU142
 212:Middlewares/Third_Party/RealThread_RTOS/components/finsh/cmd.c ****                     if (stat == RT_THREAD_READY)        rt_kprintf(" ready  ");
 547              		.loc 1 212 35 is_stmt 0 view .LVU143
 548 0062 94F82830 		ldrb	r3, [r4, #40]	@ zero_extendqisi2
 212:Middlewares/Third_Party/RealThread_RTOS/components/finsh/cmd.c ****                     if (stat == RT_THREAD_READY)        rt_kprintf(" ready  ");
 549              		.loc 1 212 26 view .LVU144
 550 0066 03F00F03 		and	r3, r3, #15
 551              	.LVL50:
 213:Middlewares/Third_Party/RealThread_RTOS/components/finsh/cmd.c ****                     else if (stat == RT_THREAD_SUSPEND) rt_kprintf(" suspend");
 552              		.loc 1 213 21 is_stmt 1 view .LVU145
 213:Middlewares/Third_Party/RealThread_RTOS/components/finsh/cmd.c ****                     else if (stat == RT_THREAD_SUSPEND) rt_kprintf(" suspend");
 553              		.loc 1 213 24 is_stmt 0 view .LVU146
 554 006a 012B     		cmp	r3, #1
 555 006c 09D0     		beq	.L48
 214:Middlewares/Third_Party/RealThread_RTOS/components/finsh/cmd.c ****                     else if (stat == RT_THREAD_INIT)    rt_kprintf(" init   ");
 556              		.loc 1 214 26 is_stmt 1 view .LVU147
ARM GAS  C:\Users\Administrator\AppData\Local\Temp\ccWW9SnK.s 			page 18


 214:Middlewares/Third_Party/RealThread_RTOS/components/finsh/cmd.c ****                     else if (stat == RT_THREAD_INIT)    rt_kprintf(" init   ");
 557              		.loc 1 214 29 is_stmt 0 view .LVU148
 558 006e 022B     		cmp	r3, #2
 559 0070 0BD0     		beq	.L49
 215:Middlewares/Third_Party/RealThread_RTOS/components/finsh/cmd.c ****                     else if (stat == RT_THREAD_CLOSE)   rt_kprintf(" close  ");
 560              		.loc 1 215 26 is_stmt 1 view .LVU149
 215:Middlewares/Third_Party/RealThread_RTOS/components/finsh/cmd.c ****                     else if (stat == RT_THREAD_CLOSE)   rt_kprintf(" close  ");
 561              		.loc 1 215 29 is_stmt 0 view .LVU150
 562 0072 73B1     		cbz	r3, .L50
 216:Middlewares/Third_Party/RealThread_RTOS/components/finsh/cmd.c ****                     else if (stat == RT_THREAD_RUNNING) rt_kprintf(" running");
 563              		.loc 1 216 26 is_stmt 1 view .LVU151
 216:Middlewares/Third_Party/RealThread_RTOS/components/finsh/cmd.c ****                     else if (stat == RT_THREAD_RUNNING) rt_kprintf(" running");
 564              		.loc 1 216 29 is_stmt 0 view .LVU152
 565 0074 042B     		cmp	r3, #4
 566 0076 10D0     		beq	.L51
 217:Middlewares/Third_Party/RealThread_RTOS/components/finsh/cmd.c **** 
 567              		.loc 1 217 26 is_stmt 1 view .LVU153
 217:Middlewares/Third_Party/RealThread_RTOS/components/finsh/cmd.c **** 
 568              		.loc 1 217 29 is_stmt 0 view .LVU154
 569 0078 032B     		cmp	r3, #3
 570 007a 12D0     		beq	.L52
 571              	.LVL51:
 572              	.L38:
 230:Middlewares/Third_Party/RealThread_RTOS/components/finsh/cmd.c ****                     while (*ptr == '#')ptr ++;
 573              		.loc 1 230 21 is_stmt 1 view .LVU155
 230:Middlewares/Third_Party/RealThread_RTOS/components/finsh/cmd.c ****                     while (*ptr == '#')ptr ++;
 574              		.loc 1 230 25 is_stmt 0 view .LVU156
 575 007c E069     		ldr	r0, [r4, #28]
 576              	.LVL52:
 231:Middlewares/Third_Party/RealThread_RTOS/components/finsh/cmd.c **** 
 577              		.loc 1 231 21 is_stmt 1 view .LVU157
 230:Middlewares/Third_Party/RealThread_RTOS/components/finsh/cmd.c ****                     while (*ptr == '#')ptr ++;
 578              		.loc 1 230 25 is_stmt 0 view .LVU158
 579 007e 0346     		mov	r3, r0
 231:Middlewares/Third_Party/RealThread_RTOS/components/finsh/cmd.c **** 
 580              		.loc 1 231 27 view .LVU159
 581 0080 14E0     		b	.L42
 582              	.LVL53:
 583              	.L48:
 213:Middlewares/Third_Party/RealThread_RTOS/components/finsh/cmd.c ****                     else if (stat == RT_THREAD_SUSPEND) rt_kprintf(" suspend");
 584              		.loc 1 213 57 is_stmt 1 discriminator 1 view .LVU160
 585 0082 2C48     		ldr	r0, .L55+20
 586 0084 FFF7FEFF 		bl	rt_kprintf
 587              	.LVL54:
 213:Middlewares/Third_Party/RealThread_RTOS/components/finsh/cmd.c ****                     else if (stat == RT_THREAD_SUSPEND) rt_kprintf(" suspend");
 588              		.loc 1 213 57 is_stmt 0 discriminator 1 view .LVU161
 589 0088 F8E7     		b	.L38
 590              	.LVL55:
 591              	.L49:
 214:Middlewares/Third_Party/RealThread_RTOS/components/finsh/cmd.c ****                     else if (stat == RT_THREAD_INIT)    rt_kprintf(" init   ");
 592              		.loc 1 214 57 is_stmt 1 discriminator 1 view .LVU162
 593 008a 2B48     		ldr	r0, .L55+24
 594 008c FFF7FEFF 		bl	rt_kprintf
 595              	.LVL56:
 214:Middlewares/Third_Party/RealThread_RTOS/components/finsh/cmd.c ****                     else if (stat == RT_THREAD_INIT)    rt_kprintf(" init   ");
 596              		.loc 1 214 57 is_stmt 0 discriminator 1 view .LVU163
 597 0090 F4E7     		b	.L38
ARM GAS  C:\Users\Administrator\AppData\Local\Temp\ccWW9SnK.s 			page 19


 598              	.LVL57:
 599              	.L50:
 215:Middlewares/Third_Party/RealThread_RTOS/components/finsh/cmd.c ****                     else if (stat == RT_THREAD_CLOSE)   rt_kprintf(" close  ");
 600              		.loc 1 215 57 is_stmt 1 discriminator 1 view .LVU164
 601 0092 2A48     		ldr	r0, .L55+28
 602 0094 FFF7FEFF 		bl	rt_kprintf
 603              	.LVL58:
 215:Middlewares/Third_Party/RealThread_RTOS/components/finsh/cmd.c ****                     else if (stat == RT_THREAD_CLOSE)   rt_kprintf(" close  ");
 604              		.loc 1 215 57 is_stmt 0 discriminator 1 view .LVU165
 605 0098 F0E7     		b	.L38
 606              	.LVL59:
 607              	.L51:
 216:Middlewares/Third_Party/RealThread_RTOS/components/finsh/cmd.c ****                     else if (stat == RT_THREAD_RUNNING) rt_kprintf(" running");
 608              		.loc 1 216 57 is_stmt 1 discriminator 1 view .LVU166
 609 009a 2948     		ldr	r0, .L55+32
 610 009c FFF7FEFF 		bl	rt_kprintf
 611              	.LVL60:
 216:Middlewares/Third_Party/RealThread_RTOS/components/finsh/cmd.c ****                     else if (stat == RT_THREAD_RUNNING) rt_kprintf(" running");
 612              		.loc 1 216 57 is_stmt 0 discriminator 1 view .LVU167
 613 00a0 ECE7     		b	.L38
 614              	.LVL61:
 615              	.L52:
 217:Middlewares/Third_Party/RealThread_RTOS/components/finsh/cmd.c **** 
 616              		.loc 1 217 57 is_stmt 1 discriminator 1 view .LVU168
 617 00a2 2848     		ldr	r0, .L55+36
 618 00a4 FFF7FEFF 		bl	rt_kprintf
 619              	.LVL62:
 217:Middlewares/Third_Party/RealThread_RTOS/components/finsh/cmd.c **** 
 620              		.loc 1 217 57 is_stmt 0 discriminator 1 view .LVU169
 621 00a8 E8E7     		b	.L38
 622              	.LVL63:
 623              	.L43:
 231:Middlewares/Third_Party/RealThread_RTOS/components/finsh/cmd.c **** 
 624              		.loc 1 231 40 is_stmt 1 discriminator 2 view .LVU170
 231:Middlewares/Third_Party/RealThread_RTOS/components/finsh/cmd.c **** 
 625              		.loc 1 231 44 is_stmt 0 discriminator 2 view .LVU171
 626 00aa 0133     		adds	r3, r3, #1
 627              	.LVL64:
 628              	.L42:
 231:Middlewares/Third_Party/RealThread_RTOS/components/finsh/cmd.c **** 
 629              		.loc 1 231 27 is_stmt 1 discriminator 1 view .LVU172
 231:Middlewares/Third_Party/RealThread_RTOS/components/finsh/cmd.c **** 
 630              		.loc 1 231 28 is_stmt 0 discriminator 1 view .LVU173
 631 00ac 1A78     		ldrb	r2, [r3]	@ zero_extendqisi2
 231:Middlewares/Third_Party/RealThread_RTOS/components/finsh/cmd.c **** 
 632              		.loc 1 231 27 discriminator 1 view .LVU174
 633 00ae 232A     		cmp	r2, #35
 634 00b0 FBD0     		beq	.L43
 233:Middlewares/Third_Party/RealThread_RTOS/components/finsh/cmd.c ****                             thread->stack_size + ((rt_ubase_t)thread->stack_addr - (rt_ubase_t)thre
 635              		.loc 1 233 21 is_stmt 1 view .LVU175
 234:Middlewares/Third_Party/RealThread_RTOS/components/finsh/cmd.c ****                             thread->stack_size,
 636              		.loc 1 234 35 is_stmt 0 view .LVU176
 637 00b2 226A     		ldr	r2, [r4, #32]
 234:Middlewares/Third_Party/RealThread_RTOS/components/finsh/cmd.c ****                             thread->stack_size,
 638              		.loc 1 234 102 view .LVU177
 639 00b4 2169     		ldr	r1, [r4, #16]
 234:Middlewares/Third_Party/RealThread_RTOS/components/finsh/cmd.c ****                             thread->stack_size,
ARM GAS  C:\Users\Administrator\AppData\Local\Temp\ccWW9SnK.s 			page 20


 640              		.loc 1 234 82 view .LVU178
 641 00b6 411A     		subs	r1, r0, r1
 236:Middlewares/Third_Party/RealThread_RTOS/components/finsh/cmd.c ****                             / thread->stack_size,
 642              		.loc 1 236 49 view .LVU179
 643 00b8 C31A     		subs	r3, r0, r3
 644              	.LVL65:
 236:Middlewares/Third_Party/RealThread_RTOS/components/finsh/cmd.c ****                             / thread->stack_size,
 645              		.loc 1 236 49 view .LVU180
 646 00ba 1344     		add	r3, r3, r2
 236:Middlewares/Third_Party/RealThread_RTOS/components/finsh/cmd.c ****                             / thread->stack_size,
 647              		.loc 1 236 105 view .LVU181
 648 00bc 6420     		movs	r0, #100
 649 00be 00FB03F3 		mul	r3, r0, r3
 233:Middlewares/Third_Party/RealThread_RTOS/components/finsh/cmd.c ****                             thread->stack_size + ((rt_ubase_t)thread->stack_addr - (rt_ubase_t)thre
 650              		.loc 1 233 21 view .LVU182
 651 00c2 606A     		ldr	r0, [r4, #36]
 652 00c4 0190     		str	r0, [sp, #4]
 653 00c6 E06B     		ldr	r0, [r4, #60]
 654 00c8 0090     		str	r0, [sp]
 655 00ca B3FBF2F3 		udiv	r3, r3, r2
 656 00ce 1144     		add	r1, r1, r2
 657 00d0 1D48     		ldr	r0, .L55+40
 658 00d2 FFF7FEFF 		bl	rt_kprintf
 659              	.LVL66:
 660              	.L36:
 233:Middlewares/Third_Party/RealThread_RTOS/components/finsh/cmd.c ****                             thread->stack_size + ((rt_ubase_t)thread->stack_addr - (rt_ubase_t)thre
 661              		.loc 1 233 21 view .LVU183
 662              	.LBE65:
 663              	.LBE64:
 181:Middlewares/Third_Party/RealThread_RTOS/components/finsh/cmd.c ****             {
 664              		.loc 1 181 46 is_stmt 1 discriminator 2 view .LVU184
 181:Middlewares/Third_Party/RealThread_RTOS/components/finsh/cmd.c ****             {
 665              		.loc 1 181 47 is_stmt 0 discriminator 2 view .LVU185
 666 00d6 0135     		adds	r5, r5, #1
 667              	.LVL67:
 668              	.L34:
 181:Middlewares/Third_Party/RealThread_RTOS/components/finsh/cmd.c ****             {
 669              		.loc 1 181 25 is_stmt 1 discriminator 1 view .LVU186
 181:Middlewares/Third_Party/RealThread_RTOS/components/finsh/cmd.c ****             {
 670              		.loc 1 181 37 is_stmt 0 discriminator 1 view .LVU187
 671 00d8 2F9B     		ldr	r3, [sp, #188]
 181:Middlewares/Third_Party/RealThread_RTOS/components/finsh/cmd.c ****             {
 672              		.loc 1 181 13 discriminator 1 view .LVU188
 673 00da AB42     		cmp	r3, r5
 674 00dc 14DD     		ble	.L53
 675              	.LBB66:
 183:Middlewares/Third_Party/RealThread_RTOS/components/finsh/cmd.c ****                 struct rt_thread thread_info, *thread;
 676              		.loc 1 183 17 is_stmt 1 view .LVU189
 184:Middlewares/Third_Party/RealThread_RTOS/components/finsh/cmd.c **** 
 677              		.loc 1 184 17 view .LVU190
 186:Middlewares/Third_Party/RealThread_RTOS/components/finsh/cmd.c ****                 level = rt_hw_interrupt_disable();
 678              		.loc 1 186 17 view .LVU191
 186:Middlewares/Third_Party/RealThread_RTOS/components/finsh/cmd.c ****                 level = rt_hw_interrupt_disable();
 679              		.loc 1 186 23 is_stmt 0 view .LVU192
 680 00de 30AB     		add	r3, sp, #192
 681 00e0 03EB8503 		add	r3, r3, r5, lsl #2
 682 00e4 53F8344C 		ldr	r4, [r3, #-52]
ARM GAS  C:\Users\Administrator\AppData\Local\Temp\ccWW9SnK.s 			page 21


 186:Middlewares/Third_Party/RealThread_RTOS/components/finsh/cmd.c ****                 level = rt_hw_interrupt_disable();
 683              		.loc 1 186 21 view .LVU193
 684 00e8 A4F10C09 		sub	r9, r4, #12
 685              	.LVL68:
 187:Middlewares/Third_Party/RealThread_RTOS/components/finsh/cmd.c **** 
 686              		.loc 1 187 17 is_stmt 1 view .LVU194
 187:Middlewares/Third_Party/RealThread_RTOS/components/finsh/cmd.c **** 
 687              		.loc 1 187 25 is_stmt 0 view .LVU195
 688 00ec FFF7FEFF 		bl	rt_hw_interrupt_disable
 689              	.LVL69:
 690 00f0 0646     		mov	r6, r0
 691              	.LVL70:
 189:Middlewares/Third_Party/RealThread_RTOS/components/finsh/cmd.c ****                 {
 692              		.loc 1 189 17 is_stmt 1 view .LVU196
 189:Middlewares/Third_Party/RealThread_RTOS/components/finsh/cmd.c ****                 {
 693              		.loc 1 189 25 is_stmt 0 view .LVU197
 694 00f2 14F8043C 		ldrb	r3, [r4, #-4]	@ zero_extendqisi2
 189:Middlewares/Third_Party/RealThread_RTOS/components/finsh/cmd.c ****                 {
 695              		.loc 1 189 32 view .LVU198
 696 00f6 23F08003 		bic	r3, r3, #128
 189:Middlewares/Third_Party/RealThread_RTOS/components/finsh/cmd.c ****                 {
 697              		.loc 1 189 70 view .LVU199
 698 00fa 9DF8B420 		ldrb	r2, [sp, #180]	@ zero_extendqisi2
 189:Middlewares/Third_Party/RealThread_RTOS/components/finsh/cmd.c ****                 {
 699              		.loc 1 189 20 view .LVU200
 700 00fe 9342     		cmp	r3, r2
 701 0100 9DD0     		beq	.L35
 191:Middlewares/Third_Party/RealThread_RTOS/components/finsh/cmd.c ****                     continue;
 702              		.loc 1 191 21 is_stmt 1 view .LVU201
 703 0102 FFF7FEFF 		bl	rt_hw_interrupt_enable
 704              	.LVL71:
 192:Middlewares/Third_Party/RealThread_RTOS/components/finsh/cmd.c ****                 }
 705              		.loc 1 192 21 view .LVU202
 706 0106 E6E7     		b	.L36
 707              	.LVL72:
 708              	.L53:
 192:Middlewares/Third_Party/RealThread_RTOS/components/finsh/cmd.c ****                 }
 709              		.loc 1 192 21 is_stmt 0 view .LVU203
 710              	.LBE66:
 711              	.LBE63:
 245:Middlewares/Third_Party/RealThread_RTOS/components/finsh/cmd.c **** 
 712              		.loc 1 245 11 is_stmt 1 view .LVU204
 245:Middlewares/Third_Party/RealThread_RTOS/components/finsh/cmd.c **** 
 713              		.loc 1 245 5 is_stmt 0 view .LVU205
 714 0108 37B1     		cbz	r7, .L54
 715              	.LVL73:
 716              	.L45:
 176:Middlewares/Third_Party/RealThread_RTOS/components/finsh/cmd.c ****     {
 717              		.loc 1 176 5 is_stmt 1 view .LVU206
 178:Middlewares/Third_Party/RealThread_RTOS/components/finsh/cmd.c ****         {
 718              		.loc 1 178 9 view .LVU207
 178:Middlewares/Third_Party/RealThread_RTOS/components/finsh/cmd.c ****         {
 719              		.loc 1 178 16 is_stmt 0 view .LVU208
 720 010a 2BA9     		add	r1, sp, #172
 721 010c 3846     		mov	r0, r7
 722 010e FFF7FEFF 		bl	list_get_next
 723              	.LVL74:
ARM GAS  C:\Users\Administrator\AppData\Local\Temp\ccWW9SnK.s 			page 22


 724 0112 0746     		mov	r7, r0
 725              	.LVL75:
 726              	.LBB67:
 180:Middlewares/Third_Party/RealThread_RTOS/components/finsh/cmd.c ****             for (i = 0; i < find_arg.nr_out; i++)
 727              		.loc 1 180 13 is_stmt 1 view .LVU209
 181:Middlewares/Third_Party/RealThread_RTOS/components/finsh/cmd.c ****             {
 728              		.loc 1 181 13 view .LVU210
 181:Middlewares/Third_Party/RealThread_RTOS/components/finsh/cmd.c ****             {
 729              		.loc 1 181 20 is_stmt 0 view .LVU211
 730 0114 4546     		mov	r5, r8
 181:Middlewares/Third_Party/RealThread_RTOS/components/finsh/cmd.c ****             {
 731              		.loc 1 181 13 view .LVU212
 732 0116 DFE7     		b	.L34
 733              	.LVL76:
 734              	.L54:
 181:Middlewares/Third_Party/RealThread_RTOS/components/finsh/cmd.c ****             {
 735              		.loc 1 181 13 view .LVU213
 736              	.LBE67:
 247:Middlewares/Third_Party/RealThread_RTOS/components/finsh/cmd.c **** }
 737              		.loc 1 247 5 is_stmt 1 view .LVU214
 248:Middlewares/Third_Party/RealThread_RTOS/components/finsh/cmd.c **** FINSH_FUNCTION_EXPORT(list_thread, list thread);
 738              		.loc 1 248 1 is_stmt 0 view .LVU215
 739 0118 0020     		movs	r0, #0
 740 011a 31B0     		add	sp, sp, #196
 741              	.LCFI7:
 742              		.cfi_def_cfa_offset 28
 743              		@ sp needed
 744 011c BDE8F083 		pop	{r4, r5, r6, r7, r8, r9, pc}
 745              	.LVL77:
 746              	.L56:
 248:Middlewares/Third_Party/RealThread_RTOS/components/finsh/cmd.c **** FINSH_FUNCTION_EXPORT(list_thread, list thread);
 747              		.loc 1 248 1 view .LVU216
 748              		.align	2
 749              	.L55:
 750 0120 00000000 		.word	.LC3
 751 0124 08000000 		.word	.LC4
 752 0128 4C000000 		.word	.LC5
 753 012c 50000000 		.word	.LC6
 754 0130 90000000 		.word	.LC7
 755 0134 9C000000 		.word	.LC8
 756 0138 A8000000 		.word	.LC9
 757 013c B4000000 		.word	.LC10
 758 0140 C0000000 		.word	.LC11
 759 0144 CC000000 		.word	.LC12
 760 0148 D8000000 		.word	.LC13
 761              		.cfi_endproc
 762              	.LFE23:
 764              		.section	.rodata.list_sem.str1.4,"aMS",%progbits,1
 765              		.align	2
 766              	.LC14:
 767 0000 73656D61 		.ascii	"semaphore\000"
 767      70686F72 
 767      6500
 768 000a 0000     		.align	2
 769              	.LC15:
 770 000c 252D2A2E 		.ascii	"%-*.s v   suspend thread\012\000"
 770      73207620 
ARM GAS  C:\Users\Administrator\AppData\Local\Temp\ccWW9SnK.s 			page 23


 770      20207375 
 770      7370656E 
 770      64207468 
 771 0026 0000     		.align	2
 772              	.LC16:
 773 0028 202D2D2D 		.ascii	" --- --------------\012\000"
 773      202D2D2D 
 773      2D2D2D2D 
 773      2D2D2D2D 
 773      2D2D2D0A 
 774 003d 000000   		.align	2
 775              	.LC17:
 776 0040 252D2A2E 		.ascii	"%-*.*s %03d %d:\000"
 776      2A732025 
 776      30336420 
 776      25643A00 
 777              		.align	2
 778              	.LC18:
 779 0050 0A00     		.ascii	"\012\000"
 780 0052 0000     		.align	2
 781              	.LC19:
 782 0054 252D2A2E 		.ascii	"%-*.*s %03d %d\012\000"
 782      2A732025 
 782      30336420 
 782      25640A00 
 783              		.section	.text.list_sem,"ax",%progbits
 784              		.align	1
 785              		.global	list_sem
 786              		.syntax unified
 787              		.thumb
 788              		.thumb_func
 789              		.fpu softvfp
 791              	list_sem:
 792              	.LFB25:
 266:Middlewares/Third_Party/RealThread_RTOS/components/finsh/cmd.c **** 
 267:Middlewares/Third_Party/RealThread_RTOS/components/finsh/cmd.c **** #ifdef RT_USING_SEMAPHORE
 268:Middlewares/Third_Party/RealThread_RTOS/components/finsh/cmd.c **** long list_sem(void)
 269:Middlewares/Third_Party/RealThread_RTOS/components/finsh/cmd.c **** {
 793              		.loc 1 269 1 is_stmt 1 view -0
 794              		.cfi_startproc
 795              		@ args = 0, pretend = 0, frame = 56
 796              		@ frame_needed = 0, uses_anonymous_args = 0
 797 0000 2DE9F041 		push	{r4, r5, r6, r7, r8, lr}
 798              	.LCFI8:
 799              		.cfi_def_cfa_offset 24
 800              		.cfi_offset 4, -24
 801              		.cfi_offset 5, -20
 802              		.cfi_offset 6, -16
 803              		.cfi_offset 7, -12
 804              		.cfi_offset 8, -8
 805              		.cfi_offset 14, -4
 806 0004 90B0     		sub	sp, sp, #64
 807              	.LCFI9:
 808              		.cfi_def_cfa_offset 88
 270:Middlewares/Third_Party/RealThread_RTOS/components/finsh/cmd.c ****     rt_ubase_t level;
 809              		.loc 1 270 5 view .LVU218
 271:Middlewares/Third_Party/RealThread_RTOS/components/finsh/cmd.c ****     list_get_next_t find_arg;
ARM GAS  C:\Users\Administrator\AppData\Local\Temp\ccWW9SnK.s 			page 24


 810              		.loc 1 271 5 view .LVU219
 272:Middlewares/Third_Party/RealThread_RTOS/components/finsh/cmd.c ****     rt_list_t *obj_list[LIST_FIND_OBJ_NR];
 811              		.loc 1 272 5 view .LVU220
 273:Middlewares/Third_Party/RealThread_RTOS/components/finsh/cmd.c ****     rt_list_t *next = (rt_list_t*)RT_NULL;
 812              		.loc 1 273 5 view .LVU221
 813              	.LVL78:
 274:Middlewares/Third_Party/RealThread_RTOS/components/finsh/cmd.c **** 
 275:Middlewares/Third_Party/RealThread_RTOS/components/finsh/cmd.c ****     int maxlen;
 814              		.loc 1 275 5 view .LVU222
 276:Middlewares/Third_Party/RealThread_RTOS/components/finsh/cmd.c ****     const char *item_title = "semaphore";
 815              		.loc 1 276 5 view .LVU223
 277:Middlewares/Third_Party/RealThread_RTOS/components/finsh/cmd.c **** 
 278:Middlewares/Third_Party/RealThread_RTOS/components/finsh/cmd.c ****     list_find_init(&find_arg, RT_Object_Class_Semaphore, obj_list, sizeof(obj_list)/sizeof(obj_list
 816              		.loc 1 278 5 view .LVU224
 817 0006 0823     		movs	r3, #8
 818 0008 03AA     		add	r2, sp, #12
 819 000a 0221     		movs	r1, #2
 820 000c 0BA8     		add	r0, sp, #44
 821 000e FFF7FEFF 		bl	list_find_init
 822              	.LVL79:
 279:Middlewares/Third_Party/RealThread_RTOS/components/finsh/cmd.c **** 
 280:Middlewares/Third_Party/RealThread_RTOS/components/finsh/cmd.c ****     maxlen = RT_NAME_MAX;
 823              		.loc 1 280 5 view .LVU225
 281:Middlewares/Third_Party/RealThread_RTOS/components/finsh/cmd.c **** 
 282:Middlewares/Third_Party/RealThread_RTOS/components/finsh/cmd.c ****     rt_kprintf("%-*.s v   suspend thread\n", maxlen, item_title); object_split(maxlen);
 824              		.loc 1 282 5 view .LVU226
 825 0012 344A     		ldr	r2, .L75
 826 0014 0821     		movs	r1, #8
 827 0016 3448     		ldr	r0, .L75+4
 828 0018 FFF7FEFF 		bl	rt_kprintf
 829              	.LVL80:
 830              		.loc 1 282 67 view .LVU227
 831              	.LBB68:
 832              	.LBI68:
  61:Middlewares/Third_Party/RealThread_RTOS/components/finsh/cmd.c **** {
 833              		.loc 1 61 16 view .LVU228
 834              	.LBB69:
  63:Middlewares/Third_Party/RealThread_RTOS/components/finsh/cmd.c **** }
 835              		.loc 1 63 5 view .LVU229
  63:Middlewares/Third_Party/RealThread_RTOS/components/finsh/cmd.c **** }
 836              		.loc 1 63 11 is_stmt 0 view .LVU230
 837 001c 4FF00808 		mov	r8, #8
 838              	.LVL81:
 839              	.L58:
  63:Middlewares/Third_Party/RealThread_RTOS/components/finsh/cmd.c **** }
 840              		.loc 1 63 11 is_stmt 1 view .LVU231
  63:Middlewares/Third_Party/RealThread_RTOS/components/finsh/cmd.c **** }
 841              		.loc 1 63 15 is_stmt 0 view .LVU232
 842 0020 08F1FF34 		add	r4, r8, #-1
 843              	.LVL82:
  63:Middlewares/Third_Party/RealThread_RTOS/components/finsh/cmd.c **** }
 844              		.loc 1 63 11 view .LVU233
 845 0024 B8F1000F 		cmp	r8, #0
 846 0028 04D0     		beq	.L71
  63:Middlewares/Third_Party/RealThread_RTOS/components/finsh/cmd.c **** }
 847              		.loc 1 63 19 is_stmt 1 view .LVU234
 848 002a 3048     		ldr	r0, .L75+8
ARM GAS  C:\Users\Administrator\AppData\Local\Temp\ccWW9SnK.s 			page 25


 849 002c FFF7FEFF 		bl	rt_kprintf
 850              	.LVL83:
  63:Middlewares/Third_Party/RealThread_RTOS/components/finsh/cmd.c **** }
 851              		.loc 1 63 15 is_stmt 0 view .LVU235
 852 0030 A046     		mov	r8, r4
 853 0032 F5E7     		b	.L58
 854              	.L71:
 855              	.LVL84:
  63:Middlewares/Third_Party/RealThread_RTOS/components/finsh/cmd.c **** }
 856              		.loc 1 63 15 view .LVU236
 857              	.LBE69:
 858              	.LBE68:
 283:Middlewares/Third_Party/RealThread_RTOS/components/finsh/cmd.c ****     rt_kprintf(     " --- --------------\n");
 859              		.loc 1 283 5 is_stmt 1 view .LVU237
 860 0034 2E48     		ldr	r0, .L75+12
 861 0036 FFF7FEFF 		bl	rt_kprintf
 862              	.LVL85:
 273:Middlewares/Third_Party/RealThread_RTOS/components/finsh/cmd.c **** 
 863              		.loc 1 273 16 is_stmt 0 view .LVU238
 864 003a 0027     		movs	r7, #0
 865 003c 46E0     		b	.L69
 866              	.LVL86:
 867              	.L73:
 868              	.LBB70:
 869              	.LBB71:
 284:Middlewares/Third_Party/RealThread_RTOS/components/finsh/cmd.c **** 
 285:Middlewares/Third_Party/RealThread_RTOS/components/finsh/cmd.c ****     do
 286:Middlewares/Third_Party/RealThread_RTOS/components/finsh/cmd.c ****     {
 287:Middlewares/Third_Party/RealThread_RTOS/components/finsh/cmd.c ****         next = list_get_next(next, &find_arg);
 288:Middlewares/Third_Party/RealThread_RTOS/components/finsh/cmd.c ****         {
 289:Middlewares/Third_Party/RealThread_RTOS/components/finsh/cmd.c ****             int i;
 290:Middlewares/Third_Party/RealThread_RTOS/components/finsh/cmd.c ****             for (i = 0; i < find_arg.nr_out; i++)
 291:Middlewares/Third_Party/RealThread_RTOS/components/finsh/cmd.c ****             {
 292:Middlewares/Third_Party/RealThread_RTOS/components/finsh/cmd.c ****                 struct rt_object *obj;
 293:Middlewares/Third_Party/RealThread_RTOS/components/finsh/cmd.c ****                 struct rt_semaphore *sem;
 294:Middlewares/Third_Party/RealThread_RTOS/components/finsh/cmd.c **** 
 295:Middlewares/Third_Party/RealThread_RTOS/components/finsh/cmd.c ****                 obj = rt_list_entry(obj_list[i], struct rt_object, list);
 296:Middlewares/Third_Party/RealThread_RTOS/components/finsh/cmd.c ****                 level = rt_hw_interrupt_disable();
 297:Middlewares/Third_Party/RealThread_RTOS/components/finsh/cmd.c ****                 if ((obj->type & ~RT_Object_Class_Static) != find_arg.type)
 298:Middlewares/Third_Party/RealThread_RTOS/components/finsh/cmd.c ****                 {
 299:Middlewares/Third_Party/RealThread_RTOS/components/finsh/cmd.c ****                     rt_hw_interrupt_enable(level);
 870              		.loc 1 299 21 is_stmt 1 view .LVU239
 871 003e FFF7FEFF 		bl	rt_hw_interrupt_enable
 872              	.LVL87:
 300:Middlewares/Third_Party/RealThread_RTOS/components/finsh/cmd.c ****                     continue;
 873              		.loc 1 300 21 view .LVU240
 874              	.L62:
 875              	.LBE71:
 290:Middlewares/Third_Party/RealThread_RTOS/components/finsh/cmd.c ****             {
 876              		.loc 1 290 46 discriminator 2 view .LVU241
 290:Middlewares/Third_Party/RealThread_RTOS/components/finsh/cmd.c ****             {
 877              		.loc 1 290 47 is_stmt 0 discriminator 2 view .LVU242
 878 0042 0135     		adds	r5, r5, #1
 879              	.LVL88:
 880              	.L60:
 290:Middlewares/Third_Party/RealThread_RTOS/components/finsh/cmd.c ****             {
 881              		.loc 1 290 25 is_stmt 1 discriminator 1 view .LVU243
ARM GAS  C:\Users\Administrator\AppData\Local\Temp\ccWW9SnK.s 			page 26


 290:Middlewares/Third_Party/RealThread_RTOS/components/finsh/cmd.c ****             {
 882              		.loc 1 290 37 is_stmt 0 discriminator 1 view .LVU244
 883 0044 0F9B     		ldr	r3, [sp, #60]
 290:Middlewares/Third_Party/RealThread_RTOS/components/finsh/cmd.c ****             {
 884              		.loc 1 290 13 discriminator 1 view .LVU245
 885 0046 AB42     		cmp	r3, r5
 886 0048 3FDD     		ble	.L72
 887              	.LBB78:
 292:Middlewares/Third_Party/RealThread_RTOS/components/finsh/cmd.c ****                 struct rt_semaphore *sem;
 888              		.loc 1 292 17 is_stmt 1 view .LVU246
 293:Middlewares/Third_Party/RealThread_RTOS/components/finsh/cmd.c **** 
 889              		.loc 1 293 17 view .LVU247
 295:Middlewares/Third_Party/RealThread_RTOS/components/finsh/cmd.c ****                 level = rt_hw_interrupt_disable();
 890              		.loc 1 295 17 view .LVU248
 295:Middlewares/Third_Party/RealThread_RTOS/components/finsh/cmd.c ****                 level = rt_hw_interrupt_disable();
 891              		.loc 1 295 23 is_stmt 0 view .LVU249
 892 004a 10AB     		add	r3, sp, #64
 893 004c 03EB8503 		add	r3, r3, r5, lsl #2
 894 0050 53F8346C 		ldr	r6, [r3, #-52]
 895              	.LVL89:
 296:Middlewares/Third_Party/RealThread_RTOS/components/finsh/cmd.c ****                 if ((obj->type & ~RT_Object_Class_Static) != find_arg.type)
 896              		.loc 1 296 17 is_stmt 1 view .LVU250
 296:Middlewares/Third_Party/RealThread_RTOS/components/finsh/cmd.c ****                 if ((obj->type & ~RT_Object_Class_Static) != find_arg.type)
 897              		.loc 1 296 25 is_stmt 0 view .LVU251
 898 0054 FFF7FEFF 		bl	rt_hw_interrupt_disable
 899              	.LVL90:
 297:Middlewares/Third_Party/RealThread_RTOS/components/finsh/cmd.c ****                 {
 900              		.loc 1 297 17 is_stmt 1 view .LVU252
 297:Middlewares/Third_Party/RealThread_RTOS/components/finsh/cmd.c ****                 {
 901              		.loc 1 297 25 is_stmt 0 view .LVU253
 902 0058 16F8043C 		ldrb	r3, [r6, #-4]	@ zero_extendqisi2
 297:Middlewares/Third_Party/RealThread_RTOS/components/finsh/cmd.c ****                 {
 903              		.loc 1 297 32 view .LVU254
 904 005c 23F08003 		bic	r3, r3, #128
 297:Middlewares/Third_Party/RealThread_RTOS/components/finsh/cmd.c ****                 {
 905              		.loc 1 297 70 view .LVU255
 906 0060 9DF83420 		ldrb	r2, [sp, #52]	@ zero_extendqisi2
 297:Middlewares/Third_Party/RealThread_RTOS/components/finsh/cmd.c ****                 {
 907              		.loc 1 297 20 view .LVU256
 908 0064 9342     		cmp	r3, r2
 909 0066 EAD1     		bne	.L73
 301:Middlewares/Third_Party/RealThread_RTOS/components/finsh/cmd.c ****                 }
 302:Middlewares/Third_Party/RealThread_RTOS/components/finsh/cmd.c ****                 rt_hw_interrupt_enable(level);
 910              		.loc 1 302 17 is_stmt 1 view .LVU257
 911 0068 FFF7FEFF 		bl	rt_hw_interrupt_enable
 912              	.LVL91:
 303:Middlewares/Third_Party/RealThread_RTOS/components/finsh/cmd.c **** 
 304:Middlewares/Third_Party/RealThread_RTOS/components/finsh/cmd.c ****                 sem = (struct rt_semaphore*)obj;
 913              		.loc 1 304 17 view .LVU258
 305:Middlewares/Third_Party/RealThread_RTOS/components/finsh/cmd.c ****                 if (!rt_list_isempty(&sem->parent.suspend_thread))
 914              		.loc 1 305 17 view .LVU259
 915              		.loc 1 305 38 is_stmt 0 view .LVU260
 916 006c 06F10804 		add	r4, r6, #8
 917              	.LVL92:
 918              	.LBB72:
 919              	.LBI72:
 920              		.file 2 "Middlewares/Third_Party/RealThread_RTOS/include/rtservice.h"
ARM GAS  C:\Users\Administrator\AppData\Local\Temp\ccWW9SnK.s 			page 27


   1:Middlewares/Third_Party/RealThread_RTOS/include/rtservice.h **** /*
   2:Middlewares/Third_Party/RealThread_RTOS/include/rtservice.h ****  * Copyright (c) 2006-2021, RT-Thread Development Team
   3:Middlewares/Third_Party/RealThread_RTOS/include/rtservice.h ****  *
   4:Middlewares/Third_Party/RealThread_RTOS/include/rtservice.h ****  * SPDX-License-Identifier: Apache-2.0
   5:Middlewares/Third_Party/RealThread_RTOS/include/rtservice.h ****  *
   6:Middlewares/Third_Party/RealThread_RTOS/include/rtservice.h ****  * Change Logs:
   7:Middlewares/Third_Party/RealThread_RTOS/include/rtservice.h ****  * Date           Author       Notes
   8:Middlewares/Third_Party/RealThread_RTOS/include/rtservice.h ****  * 2006-03-16     Bernard      the first version
   9:Middlewares/Third_Party/RealThread_RTOS/include/rtservice.h ****  * 2006-09-07     Bernard      move the kservice APIs to rtthread.h
  10:Middlewares/Third_Party/RealThread_RTOS/include/rtservice.h ****  * 2007-06-27     Bernard      fix the rt_list_remove bug
  11:Middlewares/Third_Party/RealThread_RTOS/include/rtservice.h ****  * 2012-03-22     Bernard      rename kservice.h to rtservice.h
  12:Middlewares/Third_Party/RealThread_RTOS/include/rtservice.h ****  * 2017-11-15     JasonJia     Modify rt_slist_foreach to rt_slist_for_each_entry.
  13:Middlewares/Third_Party/RealThread_RTOS/include/rtservice.h ****  *                             Make code cleanup.
  14:Middlewares/Third_Party/RealThread_RTOS/include/rtservice.h ****  */
  15:Middlewares/Third_Party/RealThread_RTOS/include/rtservice.h **** 
  16:Middlewares/Third_Party/RealThread_RTOS/include/rtservice.h **** #ifndef __RT_SERVICE_H__
  17:Middlewares/Third_Party/RealThread_RTOS/include/rtservice.h **** #define __RT_SERVICE_H__
  18:Middlewares/Third_Party/RealThread_RTOS/include/rtservice.h **** 
  19:Middlewares/Third_Party/RealThread_RTOS/include/rtservice.h **** #ifdef __cplusplus
  20:Middlewares/Third_Party/RealThread_RTOS/include/rtservice.h **** extern "C" {
  21:Middlewares/Third_Party/RealThread_RTOS/include/rtservice.h **** #endif
  22:Middlewares/Third_Party/RealThread_RTOS/include/rtservice.h **** 
  23:Middlewares/Third_Party/RealThread_RTOS/include/rtservice.h **** /**
  24:Middlewares/Third_Party/RealThread_RTOS/include/rtservice.h ****  * @addtogroup KernelService
  25:Middlewares/Third_Party/RealThread_RTOS/include/rtservice.h ****  */
  26:Middlewares/Third_Party/RealThread_RTOS/include/rtservice.h **** 
  27:Middlewares/Third_Party/RealThread_RTOS/include/rtservice.h **** /**@{*/
  28:Middlewares/Third_Party/RealThread_RTOS/include/rtservice.h **** 
  29:Middlewares/Third_Party/RealThread_RTOS/include/rtservice.h **** /**
  30:Middlewares/Third_Party/RealThread_RTOS/include/rtservice.h ****  * rt_container_of - return the member address of ptr, if the type of ptr is the
  31:Middlewares/Third_Party/RealThread_RTOS/include/rtservice.h ****  * struct type.
  32:Middlewares/Third_Party/RealThread_RTOS/include/rtservice.h ****  */
  33:Middlewares/Third_Party/RealThread_RTOS/include/rtservice.h **** #define rt_container_of(ptr, type, member) \
  34:Middlewares/Third_Party/RealThread_RTOS/include/rtservice.h ****     ((type *)((char *)(ptr) - (unsigned long)(&((type *)0)->member)))
  35:Middlewares/Third_Party/RealThread_RTOS/include/rtservice.h **** 
  36:Middlewares/Third_Party/RealThread_RTOS/include/rtservice.h **** 
  37:Middlewares/Third_Party/RealThread_RTOS/include/rtservice.h **** /**
  38:Middlewares/Third_Party/RealThread_RTOS/include/rtservice.h ****  * @brief initialize a list object
  39:Middlewares/Third_Party/RealThread_RTOS/include/rtservice.h ****  */
  40:Middlewares/Third_Party/RealThread_RTOS/include/rtservice.h **** #define RT_LIST_OBJECT_INIT(object) { &(object), &(object) }
  41:Middlewares/Third_Party/RealThread_RTOS/include/rtservice.h **** 
  42:Middlewares/Third_Party/RealThread_RTOS/include/rtservice.h **** /**
  43:Middlewares/Third_Party/RealThread_RTOS/include/rtservice.h ****  * @brief initialize a list
  44:Middlewares/Third_Party/RealThread_RTOS/include/rtservice.h ****  *
  45:Middlewares/Third_Party/RealThread_RTOS/include/rtservice.h ****  * @param l list to be initialized
  46:Middlewares/Third_Party/RealThread_RTOS/include/rtservice.h ****  */
  47:Middlewares/Third_Party/RealThread_RTOS/include/rtservice.h **** rt_inline void rt_list_init(rt_list_t *l)
  48:Middlewares/Third_Party/RealThread_RTOS/include/rtservice.h **** {
  49:Middlewares/Third_Party/RealThread_RTOS/include/rtservice.h ****     l->next = l->prev = l;
  50:Middlewares/Third_Party/RealThread_RTOS/include/rtservice.h **** }
  51:Middlewares/Third_Party/RealThread_RTOS/include/rtservice.h **** 
  52:Middlewares/Third_Party/RealThread_RTOS/include/rtservice.h **** /**
  53:Middlewares/Third_Party/RealThread_RTOS/include/rtservice.h ****  * @brief insert a node after a list
  54:Middlewares/Third_Party/RealThread_RTOS/include/rtservice.h ****  *
  55:Middlewares/Third_Party/RealThread_RTOS/include/rtservice.h ****  * @param l list to insert it
  56:Middlewares/Third_Party/RealThread_RTOS/include/rtservice.h ****  * @param n new node to be inserted
  57:Middlewares/Third_Party/RealThread_RTOS/include/rtservice.h ****  */
ARM GAS  C:\Users\Administrator\AppData\Local\Temp\ccWW9SnK.s 			page 28


  58:Middlewares/Third_Party/RealThread_RTOS/include/rtservice.h **** rt_inline void rt_list_insert_after(rt_list_t *l, rt_list_t *n)
  59:Middlewares/Third_Party/RealThread_RTOS/include/rtservice.h **** {
  60:Middlewares/Third_Party/RealThread_RTOS/include/rtservice.h ****     l->next->prev = n;
  61:Middlewares/Third_Party/RealThread_RTOS/include/rtservice.h ****     n->next = l->next;
  62:Middlewares/Third_Party/RealThread_RTOS/include/rtservice.h **** 
  63:Middlewares/Third_Party/RealThread_RTOS/include/rtservice.h ****     l->next = n;
  64:Middlewares/Third_Party/RealThread_RTOS/include/rtservice.h ****     n->prev = l;
  65:Middlewares/Third_Party/RealThread_RTOS/include/rtservice.h **** }
  66:Middlewares/Third_Party/RealThread_RTOS/include/rtservice.h **** 
  67:Middlewares/Third_Party/RealThread_RTOS/include/rtservice.h **** /**
  68:Middlewares/Third_Party/RealThread_RTOS/include/rtservice.h ****  * @brief insert a node before a list
  69:Middlewares/Third_Party/RealThread_RTOS/include/rtservice.h ****  *
  70:Middlewares/Third_Party/RealThread_RTOS/include/rtservice.h ****  * @param n new node to be inserted
  71:Middlewares/Third_Party/RealThread_RTOS/include/rtservice.h ****  * @param l list to insert it
  72:Middlewares/Third_Party/RealThread_RTOS/include/rtservice.h ****  */
  73:Middlewares/Third_Party/RealThread_RTOS/include/rtservice.h **** rt_inline void rt_list_insert_before(rt_list_t *l, rt_list_t *n)
  74:Middlewares/Third_Party/RealThread_RTOS/include/rtservice.h **** {
  75:Middlewares/Third_Party/RealThread_RTOS/include/rtservice.h ****     l->prev->next = n;
  76:Middlewares/Third_Party/RealThread_RTOS/include/rtservice.h ****     n->prev = l->prev;
  77:Middlewares/Third_Party/RealThread_RTOS/include/rtservice.h **** 
  78:Middlewares/Third_Party/RealThread_RTOS/include/rtservice.h ****     l->prev = n;
  79:Middlewares/Third_Party/RealThread_RTOS/include/rtservice.h ****     n->next = l;
  80:Middlewares/Third_Party/RealThread_RTOS/include/rtservice.h **** }
  81:Middlewares/Third_Party/RealThread_RTOS/include/rtservice.h **** 
  82:Middlewares/Third_Party/RealThread_RTOS/include/rtservice.h **** /**
  83:Middlewares/Third_Party/RealThread_RTOS/include/rtservice.h ****  * @brief remove node from list.
  84:Middlewares/Third_Party/RealThread_RTOS/include/rtservice.h ****  * @param n the node to remove from the list.
  85:Middlewares/Third_Party/RealThread_RTOS/include/rtservice.h ****  */
  86:Middlewares/Third_Party/RealThread_RTOS/include/rtservice.h **** rt_inline void rt_list_remove(rt_list_t *n)
  87:Middlewares/Third_Party/RealThread_RTOS/include/rtservice.h **** {
  88:Middlewares/Third_Party/RealThread_RTOS/include/rtservice.h ****     n->next->prev = n->prev;
  89:Middlewares/Third_Party/RealThread_RTOS/include/rtservice.h ****     n->prev->next = n->next;
  90:Middlewares/Third_Party/RealThread_RTOS/include/rtservice.h **** 
  91:Middlewares/Third_Party/RealThread_RTOS/include/rtservice.h ****     n->next = n->prev = n;
  92:Middlewares/Third_Party/RealThread_RTOS/include/rtservice.h **** }
  93:Middlewares/Third_Party/RealThread_RTOS/include/rtservice.h **** 
  94:Middlewares/Third_Party/RealThread_RTOS/include/rtservice.h **** /**
  95:Middlewares/Third_Party/RealThread_RTOS/include/rtservice.h ****  * @brief tests whether a list is empty
  96:Middlewares/Third_Party/RealThread_RTOS/include/rtservice.h ****  * @param l the list to test.
  97:Middlewares/Third_Party/RealThread_RTOS/include/rtservice.h ****  */
  98:Middlewares/Third_Party/RealThread_RTOS/include/rtservice.h **** rt_inline int rt_list_isempty(const rt_list_t *l)
 921              		.loc 2 98 15 is_stmt 1 view .LVU261
 922              	.LBB73:
  99:Middlewares/Third_Party/RealThread_RTOS/include/rtservice.h **** {
 100:Middlewares/Third_Party/RealThread_RTOS/include/rtservice.h ****     return l->next == l;
 923              		.loc 2 100 5 view .LVU262
 924              		.loc 2 100 13 is_stmt 0 view .LVU263
 925 0070 B368     		ldr	r3, [r6, #8]
 926              	.LVL93:
 927              		.loc 2 100 13 view .LVU264
 928              	.LBE73:
 929              	.LBE72:
 930              		.loc 1 305 20 view .LVU265
 931 0072 9C42     		cmp	r4, r3
 932 0074 17D0     		beq	.L63
 306:Middlewares/Third_Party/RealThread_RTOS/components/finsh/cmd.c ****                 {
 307:Middlewares/Third_Party/RealThread_RTOS/components/finsh/cmd.c ****                     rt_kprintf("%-*.*s %03d %d:",
ARM GAS  C:\Users\Administrator\AppData\Local\Temp\ccWW9SnK.s 			page 29


 933              		.loc 1 307 21 is_stmt 1 view .LVU266
 308:Middlewares/Third_Party/RealThread_RTOS/components/finsh/cmd.c ****                             maxlen, RT_NAME_MAX,
 309:Middlewares/Third_Party/RealThread_RTOS/components/finsh/cmd.c ****                             sem->parent.parent.name,
 934              		.loc 1 309 47 is_stmt 0 view .LVU267
 935 0076 A6F10C03 		sub	r3, r6, #12
 936              	.LVL94:
 310:Middlewares/Third_Party/RealThread_RTOS/components/finsh/cmd.c ****                             sem->value,
 937              		.loc 1 310 32 view .LVU268
 938 007a 308A     		ldrh	r0, [r6, #16]
 939              	.LVL95:
 940              	.LBB74:
 941              	.LBI74:
 101:Middlewares/Third_Party/RealThread_RTOS/include/rtservice.h **** }
 102:Middlewares/Third_Party/RealThread_RTOS/include/rtservice.h **** 
 103:Middlewares/Third_Party/RealThread_RTOS/include/rtservice.h **** /**
 104:Middlewares/Third_Party/RealThread_RTOS/include/rtservice.h ****  * @brief get the list length
 105:Middlewares/Third_Party/RealThread_RTOS/include/rtservice.h ****  * @param l the list to get.
 106:Middlewares/Third_Party/RealThread_RTOS/include/rtservice.h ****  */
 107:Middlewares/Third_Party/RealThread_RTOS/include/rtservice.h **** rt_inline unsigned int rt_list_len(const rt_list_t *l)
 942              		.loc 2 107 24 is_stmt 1 view .LVU269
 943              	.LBB75:
 108:Middlewares/Third_Party/RealThread_RTOS/include/rtservice.h **** {
 109:Middlewares/Third_Party/RealThread_RTOS/include/rtservice.h ****     unsigned int len = 0;
 944              		.loc 2 109 5 view .LVU270
 110:Middlewares/Third_Party/RealThread_RTOS/include/rtservice.h ****     const rt_list_t *p = l;
 945              		.loc 2 110 5 view .LVU271
 111:Middlewares/Third_Party/RealThread_RTOS/include/rtservice.h ****     while (p->next != l)
 946              		.loc 2 111 5 view .LVU272
 110:Middlewares/Third_Party/RealThread_RTOS/include/rtservice.h ****     const rt_list_t *p = l;
 947              		.loc 2 110 22 is_stmt 0 view .LVU273
 948 007c 2246     		mov	r2, r4
 109:Middlewares/Third_Party/RealThread_RTOS/include/rtservice.h ****     const rt_list_t *p = l;
 949              		.loc 2 109 18 view .LVU274
 950 007e 0021     		movs	r1, #0
 951              		.loc 2 111 11 view .LVU275
 952 0080 00E0     		b	.L64
 953              	.LVL96:
 954              	.L65:
 112:Middlewares/Third_Party/RealThread_RTOS/include/rtservice.h ****     {
 113:Middlewares/Third_Party/RealThread_RTOS/include/rtservice.h ****         p = p->next;
 955              		.loc 2 113 9 is_stmt 1 view .LVU276
 114:Middlewares/Third_Party/RealThread_RTOS/include/rtservice.h ****         len ++;
 956              		.loc 2 114 9 view .LVU277
 957              		.loc 2 114 13 is_stmt 0 view .LVU278
 958 0082 0131     		adds	r1, r1, #1
 959              	.LVL97:
 960              	.L64:
 111:Middlewares/Third_Party/RealThread_RTOS/include/rtservice.h ****     {
 961              		.loc 2 111 11 is_stmt 1 view .LVU279
 111:Middlewares/Third_Party/RealThread_RTOS/include/rtservice.h ****     {
 962              		.loc 2 111 13 is_stmt 0 view .LVU280
 963 0084 1268     		ldr	r2, [r2]
 964              	.LVL98:
 111:Middlewares/Third_Party/RealThread_RTOS/include/rtservice.h ****     {
 965              		.loc 2 111 11 view .LVU281
 966 0086 9442     		cmp	r4, r2
 967 0088 FBD1     		bne	.L65
ARM GAS  C:\Users\Administrator\AppData\Local\Temp\ccWW9SnK.s 			page 30


 115:Middlewares/Third_Party/RealThread_RTOS/include/rtservice.h ****     }
 116:Middlewares/Third_Party/RealThread_RTOS/include/rtservice.h **** 
 117:Middlewares/Third_Party/RealThread_RTOS/include/rtservice.h ****     return len;
 968              		.loc 2 117 5 is_stmt 1 view .LVU282
 969              	.LVL99:
 970              		.loc 2 117 5 is_stmt 0 view .LVU283
 971              	.LBE75:
 972              	.LBE74:
 307:Middlewares/Third_Party/RealThread_RTOS/components/finsh/cmd.c ****                             maxlen, RT_NAME_MAX,
 973              		.loc 1 307 21 view .LVU284
 974 008a 0191     		str	r1, [sp, #4]
 975 008c 0090     		str	r0, [sp]
 976 008e 0822     		movs	r2, #8
 977 0090 1146     		mov	r1, r2
 978 0092 1848     		ldr	r0, .L75+16
 979 0094 FFF7FEFF 		bl	rt_kprintf
 980              	.LVL100:
 311:Middlewares/Third_Party/RealThread_RTOS/components/finsh/cmd.c ****                             rt_list_len(&sem->parent.suspend_thread));
 312:Middlewares/Third_Party/RealThread_RTOS/components/finsh/cmd.c ****                     show_wait_queue(&(sem->parent.suspend_thread));
 981              		.loc 1 312 21 is_stmt 1 view .LVU285
 982 0098 2046     		mov	r0, r4
 983 009a FFF7FEFF 		bl	show_wait_queue
 984              	.LVL101:
 313:Middlewares/Third_Party/RealThread_RTOS/components/finsh/cmd.c ****                     rt_kprintf("\n");
 985              		.loc 1 313 21 view .LVU286
 986 009e 1648     		ldr	r0, .L75+20
 987 00a0 FFF7FEFF 		bl	rt_kprintf
 988              	.LVL102:
 989 00a4 CDE7     		b	.L62
 990              	.L63:
 314:Middlewares/Third_Party/RealThread_RTOS/components/finsh/cmd.c ****                 }
 315:Middlewares/Third_Party/RealThread_RTOS/components/finsh/cmd.c ****                 else
 316:Middlewares/Third_Party/RealThread_RTOS/components/finsh/cmd.c ****                 {
 317:Middlewares/Third_Party/RealThread_RTOS/components/finsh/cmd.c ****                     rt_kprintf("%-*.*s %03d %d\n",
 991              		.loc 1 317 21 view .LVU287
 318:Middlewares/Third_Party/RealThread_RTOS/components/finsh/cmd.c ****                             maxlen, RT_NAME_MAX,
 319:Middlewares/Third_Party/RealThread_RTOS/components/finsh/cmd.c ****                             sem->parent.parent.name,
 992              		.loc 1 319 47 is_stmt 0 view .LVU288
 993 00a6 A6F10C03 		sub	r3, r6, #12
 320:Middlewares/Third_Party/RealThread_RTOS/components/finsh/cmd.c ****                             sem->value,
 994              		.loc 1 320 32 view .LVU289
 995 00aa 308A     		ldrh	r0, [r6, #16]
 996              	.LVL103:
 997              	.LBB76:
 998              	.LBI76:
 107:Middlewares/Third_Party/RealThread_RTOS/include/rtservice.h **** {
 999              		.loc 2 107 24 is_stmt 1 view .LVU290
 1000              	.LBB77:
 109:Middlewares/Third_Party/RealThread_RTOS/include/rtservice.h ****     const rt_list_t *p = l;
 1001              		.loc 2 109 5 view .LVU291
 110:Middlewares/Third_Party/RealThread_RTOS/include/rtservice.h ****     while (p->next != l)
 1002              		.loc 2 110 5 view .LVU292
 111:Middlewares/Third_Party/RealThread_RTOS/include/rtservice.h ****     {
 1003              		.loc 2 111 5 view .LVU293
 110:Middlewares/Third_Party/RealThread_RTOS/include/rtservice.h ****     while (p->next != l)
 1004              		.loc 2 110 22 is_stmt 0 view .LVU294
 1005 00ac 2246     		mov	r2, r4
ARM GAS  C:\Users\Administrator\AppData\Local\Temp\ccWW9SnK.s 			page 31


 109:Middlewares/Third_Party/RealThread_RTOS/include/rtservice.h ****     const rt_list_t *p = l;
 1006              		.loc 2 109 18 view .LVU295
 1007 00ae 0021     		movs	r1, #0
 111:Middlewares/Third_Party/RealThread_RTOS/include/rtservice.h ****     {
 1008              		.loc 2 111 11 view .LVU296
 1009 00b0 00E0     		b	.L66
 1010              	.LVL104:
 1011              	.L67:
 113:Middlewares/Third_Party/RealThread_RTOS/include/rtservice.h ****         len ++;
 1012              		.loc 2 113 9 is_stmt 1 view .LVU297
 114:Middlewares/Third_Party/RealThread_RTOS/include/rtservice.h ****     }
 1013              		.loc 2 114 9 view .LVU298
 114:Middlewares/Third_Party/RealThread_RTOS/include/rtservice.h ****     }
 1014              		.loc 2 114 13 is_stmt 0 view .LVU299
 1015 00b2 0131     		adds	r1, r1, #1
 1016              	.LVL105:
 1017              	.L66:
 111:Middlewares/Third_Party/RealThread_RTOS/include/rtservice.h ****     {
 1018              		.loc 2 111 11 is_stmt 1 view .LVU300
 111:Middlewares/Third_Party/RealThread_RTOS/include/rtservice.h ****     {
 1019              		.loc 2 111 13 is_stmt 0 view .LVU301
 1020 00b4 1268     		ldr	r2, [r2]
 1021              	.LVL106:
 111:Middlewares/Third_Party/RealThread_RTOS/include/rtservice.h ****     {
 1022              		.loc 2 111 11 view .LVU302
 1023 00b6 9442     		cmp	r4, r2
 1024 00b8 FBD1     		bne	.L67
 1025              		.loc 2 117 5 is_stmt 1 view .LVU303
 1026              	.LVL107:
 1027              		.loc 2 117 5 is_stmt 0 view .LVU304
 1028              	.LBE77:
 1029              	.LBE76:
 317:Middlewares/Third_Party/RealThread_RTOS/components/finsh/cmd.c ****                             maxlen, RT_NAME_MAX,
 1030              		.loc 1 317 21 view .LVU305
 1031 00ba 0191     		str	r1, [sp, #4]
 1032 00bc 0090     		str	r0, [sp]
 1033 00be 0822     		movs	r2, #8
 1034 00c0 1146     		mov	r1, r2
 1035 00c2 0E48     		ldr	r0, .L75+24
 1036 00c4 FFF7FEFF 		bl	rt_kprintf
 1037              	.LVL108:
 1038 00c8 BBE7     		b	.L62
 1039              	.LVL109:
 1040              	.L72:
 317:Middlewares/Third_Party/RealThread_RTOS/components/finsh/cmd.c ****                             maxlen, RT_NAME_MAX,
 1041              		.loc 1 317 21 view .LVU306
 1042              	.LBE78:
 1043              	.LBE70:
 321:Middlewares/Third_Party/RealThread_RTOS/components/finsh/cmd.c ****                             rt_list_len(&sem->parent.suspend_thread));
 322:Middlewares/Third_Party/RealThread_RTOS/components/finsh/cmd.c ****                 }
 323:Middlewares/Third_Party/RealThread_RTOS/components/finsh/cmd.c ****             }
 324:Middlewares/Third_Party/RealThread_RTOS/components/finsh/cmd.c ****         }
 325:Middlewares/Third_Party/RealThread_RTOS/components/finsh/cmd.c ****     }
 326:Middlewares/Third_Party/RealThread_RTOS/components/finsh/cmd.c ****     while (next != (rt_list_t*)RT_NULL);
 1044              		.loc 1 326 11 is_stmt 1 view .LVU307
 1045              		.loc 1 326 5 is_stmt 0 view .LVU308
 1046 00ca 37B1     		cbz	r7, .L74
ARM GAS  C:\Users\Administrator\AppData\Local\Temp\ccWW9SnK.s 			page 32


 1047              	.LVL110:
 1048              	.L69:
 285:Middlewares/Third_Party/RealThread_RTOS/components/finsh/cmd.c ****     {
 1049              		.loc 1 285 5 is_stmt 1 view .LVU309
 287:Middlewares/Third_Party/RealThread_RTOS/components/finsh/cmd.c ****         {
 1050              		.loc 1 287 9 view .LVU310
 287:Middlewares/Third_Party/RealThread_RTOS/components/finsh/cmd.c ****         {
 1051              		.loc 1 287 16 is_stmt 0 view .LVU311
 1052 00cc 0BA9     		add	r1, sp, #44
 1053 00ce 3846     		mov	r0, r7
 1054 00d0 FFF7FEFF 		bl	list_get_next
 1055              	.LVL111:
 1056 00d4 0746     		mov	r7, r0
 1057              	.LVL112:
 1058              	.LBB79:
 289:Middlewares/Third_Party/RealThread_RTOS/components/finsh/cmd.c ****             for (i = 0; i < find_arg.nr_out; i++)
 1059              		.loc 1 289 13 is_stmt 1 view .LVU312
 290:Middlewares/Third_Party/RealThread_RTOS/components/finsh/cmd.c ****             {
 1060              		.loc 1 290 13 view .LVU313
 290:Middlewares/Third_Party/RealThread_RTOS/components/finsh/cmd.c ****             {
 1061              		.loc 1 290 20 is_stmt 0 view .LVU314
 1062 00d6 4546     		mov	r5, r8
 290:Middlewares/Third_Party/RealThread_RTOS/components/finsh/cmd.c ****             {
 1063              		.loc 1 290 13 view .LVU315
 1064 00d8 B4E7     		b	.L60
 1065              	.LVL113:
 1066              	.L74:
 290:Middlewares/Third_Party/RealThread_RTOS/components/finsh/cmd.c ****             {
 1067              		.loc 1 290 13 view .LVU316
 1068              	.LBE79:
 327:Middlewares/Third_Party/RealThread_RTOS/components/finsh/cmd.c **** 
 328:Middlewares/Third_Party/RealThread_RTOS/components/finsh/cmd.c ****     return 0;
 1069              		.loc 1 328 5 is_stmt 1 view .LVU317
 329:Middlewares/Third_Party/RealThread_RTOS/components/finsh/cmd.c **** }
 1070              		.loc 1 329 1 is_stmt 0 view .LVU318
 1071 00da 0020     		movs	r0, #0
 1072 00dc 10B0     		add	sp, sp, #64
 1073              	.LCFI10:
 1074              		.cfi_def_cfa_offset 24
 1075              		@ sp needed
 1076 00de BDE8F081 		pop	{r4, r5, r6, r7, r8, pc}
 1077              	.LVL114:
 1078              	.L76:
 1079              		.loc 1 329 1 view .LVU319
 1080 00e2 00BF     		.align	2
 1081              	.L75:
 1082 00e4 00000000 		.word	.LC14
 1083 00e8 0C000000 		.word	.LC15
 1084 00ec 4C000000 		.word	.LC5
 1085 00f0 28000000 		.word	.LC16
 1086 00f4 40000000 		.word	.LC17
 1087 00f8 50000000 		.word	.LC18
 1088 00fc 54000000 		.word	.LC19
 1089              		.cfi_endproc
 1090              	.LFE25:
 1092              		.section	.rodata.list_event.str1.4,"aMS",%progbits,1
 1093              		.align	2
ARM GAS  C:\Users\Administrator\AppData\Local\Temp\ccWW9SnK.s 			page 33


 1094              	.LC20:
 1095 0000 6576656E 		.ascii	"event\000"
 1095      7400
 1096 0006 0000     		.align	2
 1097              	.LC21:
 1098 0008 252D2A2E 		.ascii	"%-*.s      set    suspend thread\012\000"
 1098      73202020 
 1098      20202073 
 1098      65742020 
 1098      20207375 
 1099 002a 0000     		.align	2
 1100              	.LC22:
 1101 002c 20202D2D 		.ascii	"  ---------- --------------\012\000"
 1101      2D2D2D2D 
 1101      2D2D2D2D 
 1101      202D2D2D 
 1101      2D2D2D2D 
 1102 0049 000000   		.align	2
 1103              	.LC23:
 1104 004c 252D2A2E 		.ascii	"%-*.*s  0x%08x %03d:\000"
 1104      2A732020 
 1104      30782530 
 1104      38782025 
 1104      3033643A 
 1105 0061 000000   		.align	2
 1106              	.LC24:
 1107 0064 252D2A2E 		.ascii	"%-*.*s  0x%08x 0\012\000"
 1107      2A732020 
 1107      30782530 
 1107      38782030 
 1107      0A00
 1108              		.section	.text.list_event,"ax",%progbits
 1109              		.align	1
 1110              		.global	list_event
 1111              		.syntax unified
 1112              		.thumb
 1113              		.thumb_func
 1114              		.fpu softvfp
 1116              	list_event:
 1117              	.LFB26:
 330:Middlewares/Third_Party/RealThread_RTOS/components/finsh/cmd.c **** FINSH_FUNCTION_EXPORT(list_sem, list semaphore in system);
 331:Middlewares/Third_Party/RealThread_RTOS/components/finsh/cmd.c **** MSH_CMD_EXPORT(list_sem, list semaphore in system);
 332:Middlewares/Third_Party/RealThread_RTOS/components/finsh/cmd.c **** #endif
 333:Middlewares/Third_Party/RealThread_RTOS/components/finsh/cmd.c **** 
 334:Middlewares/Third_Party/RealThread_RTOS/components/finsh/cmd.c **** #ifdef RT_USING_EVENT
 335:Middlewares/Third_Party/RealThread_RTOS/components/finsh/cmd.c **** long list_event(void)
 336:Middlewares/Third_Party/RealThread_RTOS/components/finsh/cmd.c **** {
 1118              		.loc 1 336 1 is_stmt 1 view -0
 1119              		.cfi_startproc
 1120              		@ args = 0, pretend = 0, frame = 56
 1121              		@ frame_needed = 0, uses_anonymous_args = 0
 1122 0000 2DE9F041 		push	{r4, r5, r6, r7, r8, lr}
 1123              	.LCFI11:
 1124              		.cfi_def_cfa_offset 24
 1125              		.cfi_offset 4, -24
 1126              		.cfi_offset 5, -20
 1127              		.cfi_offset 6, -16
ARM GAS  C:\Users\Administrator\AppData\Local\Temp\ccWW9SnK.s 			page 34


 1128              		.cfi_offset 7, -12
 1129              		.cfi_offset 8, -8
 1130              		.cfi_offset 14, -4
 1131 0004 90B0     		sub	sp, sp, #64
 1132              	.LCFI12:
 1133              		.cfi_def_cfa_offset 88
 337:Middlewares/Third_Party/RealThread_RTOS/components/finsh/cmd.c ****     rt_ubase_t level;
 1134              		.loc 1 337 5 view .LVU321
 338:Middlewares/Third_Party/RealThread_RTOS/components/finsh/cmd.c ****     list_get_next_t find_arg;
 1135              		.loc 1 338 5 view .LVU322
 339:Middlewares/Third_Party/RealThread_RTOS/components/finsh/cmd.c ****     rt_list_t *obj_list[LIST_FIND_OBJ_NR];
 1136              		.loc 1 339 5 view .LVU323
 340:Middlewares/Third_Party/RealThread_RTOS/components/finsh/cmd.c ****     rt_list_t *next = (rt_list_t*)RT_NULL;
 1137              		.loc 1 340 5 view .LVU324
 1138              	.LVL115:
 341:Middlewares/Third_Party/RealThread_RTOS/components/finsh/cmd.c **** 
 342:Middlewares/Third_Party/RealThread_RTOS/components/finsh/cmd.c ****     int maxlen;
 1139              		.loc 1 342 5 view .LVU325
 343:Middlewares/Third_Party/RealThread_RTOS/components/finsh/cmd.c ****     const char *item_title = "event";
 1140              		.loc 1 343 5 view .LVU326
 344:Middlewares/Third_Party/RealThread_RTOS/components/finsh/cmd.c **** 
 345:Middlewares/Third_Party/RealThread_RTOS/components/finsh/cmd.c ****     list_find_init(&find_arg, RT_Object_Class_Event, obj_list, sizeof(obj_list)/sizeof(obj_list[0])
 1141              		.loc 1 345 5 view .LVU327
 1142 0006 0823     		movs	r3, #8
 1143 0008 03AA     		add	r2, sp, #12
 1144 000a 0421     		movs	r1, #4
 1145 000c 0BA8     		add	r0, sp, #44
 1146 000e FFF7FEFF 		bl	list_find_init
 1147              	.LVL116:
 346:Middlewares/Third_Party/RealThread_RTOS/components/finsh/cmd.c **** 
 347:Middlewares/Third_Party/RealThread_RTOS/components/finsh/cmd.c ****     maxlen = RT_NAME_MAX;
 1148              		.loc 1 347 5 view .LVU328
 348:Middlewares/Third_Party/RealThread_RTOS/components/finsh/cmd.c **** 
 349:Middlewares/Third_Party/RealThread_RTOS/components/finsh/cmd.c ****     rt_kprintf("%-*.s      set    suspend thread\n", maxlen, item_title); object_split(maxlen);
 1149              		.loc 1 349 5 view .LVU329
 1150 0012 304A     		ldr	r2, .L93
 1151 0014 0821     		movs	r1, #8
 1152 0016 3048     		ldr	r0, .L93+4
 1153 0018 FFF7FEFF 		bl	rt_kprintf
 1154              	.LVL117:
 1155              		.loc 1 349 75 view .LVU330
 1156              	.LBB80:
 1157              	.LBI80:
  61:Middlewares/Third_Party/RealThread_RTOS/components/finsh/cmd.c **** {
 1158              		.loc 1 61 16 view .LVU331
 1159              	.LBB81:
  63:Middlewares/Third_Party/RealThread_RTOS/components/finsh/cmd.c **** }
 1160              		.loc 1 63 5 view .LVU332
  63:Middlewares/Third_Party/RealThread_RTOS/components/finsh/cmd.c **** }
 1161              		.loc 1 63 11 is_stmt 0 view .LVU333
 1162 001c 4FF00808 		mov	r8, #8
 1163              	.LVL118:
 1164              	.L78:
  63:Middlewares/Third_Party/RealThread_RTOS/components/finsh/cmd.c **** }
 1165              		.loc 1 63 11 is_stmt 1 view .LVU334
  63:Middlewares/Third_Party/RealThread_RTOS/components/finsh/cmd.c **** }
 1166              		.loc 1 63 15 is_stmt 0 view .LVU335
ARM GAS  C:\Users\Administrator\AppData\Local\Temp\ccWW9SnK.s 			page 35


 1167 0020 08F1FF34 		add	r4, r8, #-1
 1168              	.LVL119:
  63:Middlewares/Third_Party/RealThread_RTOS/components/finsh/cmd.c **** }
 1169              		.loc 1 63 11 view .LVU336
 1170 0024 B8F1000F 		cmp	r8, #0
 1171 0028 04D0     		beq	.L89
  63:Middlewares/Third_Party/RealThread_RTOS/components/finsh/cmd.c **** }
 1172              		.loc 1 63 19 is_stmt 1 view .LVU337
 1173 002a 2C48     		ldr	r0, .L93+8
 1174 002c FFF7FEFF 		bl	rt_kprintf
 1175              	.LVL120:
  63:Middlewares/Third_Party/RealThread_RTOS/components/finsh/cmd.c **** }
 1176              		.loc 1 63 15 is_stmt 0 view .LVU338
 1177 0030 A046     		mov	r8, r4
 1178 0032 F5E7     		b	.L78
 1179              	.L89:
 1180              	.LVL121:
  63:Middlewares/Third_Party/RealThread_RTOS/components/finsh/cmd.c **** }
 1181              		.loc 1 63 15 view .LVU339
 1182              	.LBE81:
 1183              	.LBE80:
 350:Middlewares/Third_Party/RealThread_RTOS/components/finsh/cmd.c ****     rt_kprintf(     "  ---------- --------------\n");
 1184              		.loc 1 350 5 is_stmt 1 view .LVU340
 1185 0034 2A48     		ldr	r0, .L93+12
 1186 0036 FFF7FEFF 		bl	rt_kprintf
 1187              	.LVL122:
 340:Middlewares/Third_Party/RealThread_RTOS/components/finsh/cmd.c **** 
 1188              		.loc 1 340 16 is_stmt 0 view .LVU341
 1189 003a 0027     		movs	r7, #0
 1190 003c 3EE0     		b	.L87
 1191              	.LVL123:
 1192              	.L91:
 1193              	.LBB82:
 1194              	.LBB83:
 351:Middlewares/Third_Party/RealThread_RTOS/components/finsh/cmd.c **** 
 352:Middlewares/Third_Party/RealThread_RTOS/components/finsh/cmd.c ****     do
 353:Middlewares/Third_Party/RealThread_RTOS/components/finsh/cmd.c ****     {
 354:Middlewares/Third_Party/RealThread_RTOS/components/finsh/cmd.c ****         next = list_get_next(next, &find_arg);
 355:Middlewares/Third_Party/RealThread_RTOS/components/finsh/cmd.c ****         {
 356:Middlewares/Third_Party/RealThread_RTOS/components/finsh/cmd.c ****             int i;
 357:Middlewares/Third_Party/RealThread_RTOS/components/finsh/cmd.c ****             for (i = 0; i < find_arg.nr_out; i++)
 358:Middlewares/Third_Party/RealThread_RTOS/components/finsh/cmd.c ****             {
 359:Middlewares/Third_Party/RealThread_RTOS/components/finsh/cmd.c ****                 struct rt_object *obj;
 360:Middlewares/Third_Party/RealThread_RTOS/components/finsh/cmd.c ****                 struct rt_event *e;
 361:Middlewares/Third_Party/RealThread_RTOS/components/finsh/cmd.c **** 
 362:Middlewares/Third_Party/RealThread_RTOS/components/finsh/cmd.c ****                 obj = rt_list_entry(obj_list[i], struct rt_object, list);
 363:Middlewares/Third_Party/RealThread_RTOS/components/finsh/cmd.c ****                 level = rt_hw_interrupt_disable();
 364:Middlewares/Third_Party/RealThread_RTOS/components/finsh/cmd.c ****                 if ((obj->type & ~RT_Object_Class_Static) != find_arg.type)
 365:Middlewares/Third_Party/RealThread_RTOS/components/finsh/cmd.c ****                 {
 366:Middlewares/Third_Party/RealThread_RTOS/components/finsh/cmd.c ****                     rt_hw_interrupt_enable(level);
 1195              		.loc 1 366 21 is_stmt 1 view .LVU342
 1196 003e FFF7FEFF 		bl	rt_hw_interrupt_enable
 1197              	.LVL124:
 367:Middlewares/Third_Party/RealThread_RTOS/components/finsh/cmd.c ****                     continue;
 1198              		.loc 1 367 21 view .LVU343
 1199              	.L82:
 1200              	.LBE83:
ARM GAS  C:\Users\Administrator\AppData\Local\Temp\ccWW9SnK.s 			page 36


 357:Middlewares/Third_Party/RealThread_RTOS/components/finsh/cmd.c ****             {
 1201              		.loc 1 357 46 discriminator 2 view .LVU344
 357:Middlewares/Third_Party/RealThread_RTOS/components/finsh/cmd.c ****             {
 1202              		.loc 1 357 47 is_stmt 0 discriminator 2 view .LVU345
 1203 0042 0135     		adds	r5, r5, #1
 1204              	.LVL125:
 1205              	.L80:
 357:Middlewares/Third_Party/RealThread_RTOS/components/finsh/cmd.c ****             {
 1206              		.loc 1 357 25 is_stmt 1 discriminator 1 view .LVU346
 357:Middlewares/Third_Party/RealThread_RTOS/components/finsh/cmd.c ****             {
 1207              		.loc 1 357 37 is_stmt 0 discriminator 1 view .LVU347
 1208 0044 0F9B     		ldr	r3, [sp, #60]
 357:Middlewares/Third_Party/RealThread_RTOS/components/finsh/cmd.c ****             {
 1209              		.loc 1 357 13 discriminator 1 view .LVU348
 1210 0046 AB42     		cmp	r3, r5
 1211 0048 37DD     		ble	.L90
 1212              	.LBB88:
 359:Middlewares/Third_Party/RealThread_RTOS/components/finsh/cmd.c ****                 struct rt_event *e;
 1213              		.loc 1 359 17 is_stmt 1 view .LVU349
 360:Middlewares/Third_Party/RealThread_RTOS/components/finsh/cmd.c **** 
 1214              		.loc 1 360 17 view .LVU350
 362:Middlewares/Third_Party/RealThread_RTOS/components/finsh/cmd.c ****                 level = rt_hw_interrupt_disable();
 1215              		.loc 1 362 17 view .LVU351
 362:Middlewares/Third_Party/RealThread_RTOS/components/finsh/cmd.c ****                 level = rt_hw_interrupt_disable();
 1216              		.loc 1 362 23 is_stmt 0 view .LVU352
 1217 004a 10AB     		add	r3, sp, #64
 1218 004c 03EB8503 		add	r3, r3, r5, lsl #2
 1219 0050 53F8346C 		ldr	r6, [r3, #-52]
 1220              	.LVL126:
 363:Middlewares/Third_Party/RealThread_RTOS/components/finsh/cmd.c ****                 if ((obj->type & ~RT_Object_Class_Static) != find_arg.type)
 1221              		.loc 1 363 17 is_stmt 1 view .LVU353
 363:Middlewares/Third_Party/RealThread_RTOS/components/finsh/cmd.c ****                 if ((obj->type & ~RT_Object_Class_Static) != find_arg.type)
 1222              		.loc 1 363 25 is_stmt 0 view .LVU354
 1223 0054 FFF7FEFF 		bl	rt_hw_interrupt_disable
 1224              	.LVL127:
 364:Middlewares/Third_Party/RealThread_RTOS/components/finsh/cmd.c ****                 {
 1225              		.loc 1 364 17 is_stmt 1 view .LVU355
 364:Middlewares/Third_Party/RealThread_RTOS/components/finsh/cmd.c ****                 {
 1226              		.loc 1 364 25 is_stmt 0 view .LVU356
 1227 0058 16F8043C 		ldrb	r3, [r6, #-4]	@ zero_extendqisi2
 364:Middlewares/Third_Party/RealThread_RTOS/components/finsh/cmd.c ****                 {
 1228              		.loc 1 364 32 view .LVU357
 1229 005c 23F08003 		bic	r3, r3, #128
 364:Middlewares/Third_Party/RealThread_RTOS/components/finsh/cmd.c ****                 {
 1230              		.loc 1 364 70 view .LVU358
 1231 0060 9DF83420 		ldrb	r2, [sp, #52]	@ zero_extendqisi2
 364:Middlewares/Third_Party/RealThread_RTOS/components/finsh/cmd.c ****                 {
 1232              		.loc 1 364 20 view .LVU359
 1233 0064 9342     		cmp	r3, r2
 1234 0066 EAD1     		bne	.L91
 368:Middlewares/Third_Party/RealThread_RTOS/components/finsh/cmd.c ****                 }
 369:Middlewares/Third_Party/RealThread_RTOS/components/finsh/cmd.c **** 
 370:Middlewares/Third_Party/RealThread_RTOS/components/finsh/cmd.c ****                 rt_hw_interrupt_enable(level);
 1235              		.loc 1 370 17 is_stmt 1 view .LVU360
 1236 0068 FFF7FEFF 		bl	rt_hw_interrupt_enable
 1237              	.LVL128:
 371:Middlewares/Third_Party/RealThread_RTOS/components/finsh/cmd.c **** 
ARM GAS  C:\Users\Administrator\AppData\Local\Temp\ccWW9SnK.s 			page 37


 372:Middlewares/Third_Party/RealThread_RTOS/components/finsh/cmd.c ****                 e = (struct rt_event *)obj;
 1238              		.loc 1 372 17 view .LVU361
 373:Middlewares/Third_Party/RealThread_RTOS/components/finsh/cmd.c ****                 if (!rt_list_isempty(&e->parent.suspend_thread))
 1239              		.loc 1 373 17 view .LVU362
 1240              		.loc 1 373 38 is_stmt 0 view .LVU363
 1241 006c 06F10804 		add	r4, r6, #8
 1242              	.LVL129:
 1243              	.LBB84:
 1244              	.LBI84:
  98:Middlewares/Third_Party/RealThread_RTOS/include/rtservice.h **** {
 1245              		.loc 2 98 15 is_stmt 1 view .LVU364
 1246              	.LBB85:
 100:Middlewares/Third_Party/RealThread_RTOS/include/rtservice.h **** }
 1247              		.loc 2 100 5 view .LVU365
 100:Middlewares/Third_Party/RealThread_RTOS/include/rtservice.h **** }
 1248              		.loc 2 100 13 is_stmt 0 view .LVU366
 1249 0070 B368     		ldr	r3, [r6, #8]
 1250              	.LVL130:
 100:Middlewares/Third_Party/RealThread_RTOS/include/rtservice.h **** }
 1251              		.loc 2 100 13 view .LVU367
 1252              	.LBE85:
 1253              	.LBE84:
 1254              		.loc 1 373 20 view .LVU368
 1255 0072 9C42     		cmp	r4, r3
 1256 0074 17D0     		beq	.L83
 374:Middlewares/Third_Party/RealThread_RTOS/components/finsh/cmd.c ****                 {
 375:Middlewares/Third_Party/RealThread_RTOS/components/finsh/cmd.c ****                     rt_kprintf("%-*.*s  0x%08x %03d:",
 1257              		.loc 1 375 21 is_stmt 1 view .LVU369
 376:Middlewares/Third_Party/RealThread_RTOS/components/finsh/cmd.c ****                             maxlen, RT_NAME_MAX,
 377:Middlewares/Third_Party/RealThread_RTOS/components/finsh/cmd.c ****                             e->parent.parent.name,
 1258              		.loc 1 377 45 is_stmt 0 view .LVU370
 1259 0076 A6F10C03 		sub	r3, r6, #12
 1260              	.LVL131:
 375:Middlewares/Third_Party/RealThread_RTOS/components/finsh/cmd.c ****                             maxlen, RT_NAME_MAX,
 1261              		.loc 1 375 21 view .LVU371
 1262 007a 3069     		ldr	r0, [r6, #16]
 1263              	.LVL132:
 1264              	.LBB86:
 1265              	.LBI86:
 107:Middlewares/Third_Party/RealThread_RTOS/include/rtservice.h **** {
 1266              		.loc 2 107 24 is_stmt 1 view .LVU372
 1267              	.LBB87:
 109:Middlewares/Third_Party/RealThread_RTOS/include/rtservice.h ****     const rt_list_t *p = l;
 1268              		.loc 2 109 5 view .LVU373
 110:Middlewares/Third_Party/RealThread_RTOS/include/rtservice.h ****     while (p->next != l)
 1269              		.loc 2 110 5 view .LVU374
 111:Middlewares/Third_Party/RealThread_RTOS/include/rtservice.h ****     {
 1270              		.loc 2 111 5 view .LVU375
 110:Middlewares/Third_Party/RealThread_RTOS/include/rtservice.h ****     while (p->next != l)
 1271              		.loc 2 110 22 is_stmt 0 view .LVU376
 1272 007c 2246     		mov	r2, r4
 109:Middlewares/Third_Party/RealThread_RTOS/include/rtservice.h ****     const rt_list_t *p = l;
 1273              		.loc 2 109 18 view .LVU377
 1274 007e 0021     		movs	r1, #0
 111:Middlewares/Third_Party/RealThread_RTOS/include/rtservice.h ****     {
 1275              		.loc 2 111 11 view .LVU378
 1276 0080 00E0     		b	.L84
ARM GAS  C:\Users\Administrator\AppData\Local\Temp\ccWW9SnK.s 			page 38


 1277              	.LVL133:
 1278              	.L85:
 113:Middlewares/Third_Party/RealThread_RTOS/include/rtservice.h ****         len ++;
 1279              		.loc 2 113 9 is_stmt 1 view .LVU379
 114:Middlewares/Third_Party/RealThread_RTOS/include/rtservice.h ****     }
 1280              		.loc 2 114 9 view .LVU380
 114:Middlewares/Third_Party/RealThread_RTOS/include/rtservice.h ****     }
 1281              		.loc 2 114 13 is_stmt 0 view .LVU381
 1282 0082 0131     		adds	r1, r1, #1
 1283              	.LVL134:
 1284              	.L84:
 111:Middlewares/Third_Party/RealThread_RTOS/include/rtservice.h ****     {
 1285              		.loc 2 111 11 is_stmt 1 view .LVU382
 111:Middlewares/Third_Party/RealThread_RTOS/include/rtservice.h ****     {
 1286              		.loc 2 111 13 is_stmt 0 view .LVU383
 1287 0084 1268     		ldr	r2, [r2]
 1288              	.LVL135:
 111:Middlewares/Third_Party/RealThread_RTOS/include/rtservice.h ****     {
 1289              		.loc 2 111 11 view .LVU384
 1290 0086 9442     		cmp	r4, r2
 1291 0088 FBD1     		bne	.L85
 1292              		.loc 2 117 5 is_stmt 1 view .LVU385
 1293              	.LVL136:
 1294              		.loc 2 117 5 is_stmt 0 view .LVU386
 1295              	.LBE87:
 1296              	.LBE86:
 375:Middlewares/Third_Party/RealThread_RTOS/components/finsh/cmd.c ****                             maxlen, RT_NAME_MAX,
 1297              		.loc 1 375 21 view .LVU387
 1298 008a 0191     		str	r1, [sp, #4]
 1299 008c 0090     		str	r0, [sp]
 1300 008e 0822     		movs	r2, #8
 1301 0090 1146     		mov	r1, r2
 1302 0092 1448     		ldr	r0, .L93+16
 1303 0094 FFF7FEFF 		bl	rt_kprintf
 1304              	.LVL137:
 378:Middlewares/Third_Party/RealThread_RTOS/components/finsh/cmd.c ****                             e->set,
 379:Middlewares/Third_Party/RealThread_RTOS/components/finsh/cmd.c ****                             rt_list_len(&e->parent.suspend_thread));
 380:Middlewares/Third_Party/RealThread_RTOS/components/finsh/cmd.c ****                     show_wait_queue(&(e->parent.suspend_thread));
 1305              		.loc 1 380 21 is_stmt 1 view .LVU388
 1306 0098 2046     		mov	r0, r4
 1307 009a FFF7FEFF 		bl	show_wait_queue
 1308              	.LVL138:
 381:Middlewares/Third_Party/RealThread_RTOS/components/finsh/cmd.c ****                     rt_kprintf("\n");
 1309              		.loc 1 381 21 view .LVU389
 1310 009e 1248     		ldr	r0, .L93+20
 1311 00a0 FFF7FEFF 		bl	rt_kprintf
 1312              	.LVL139:
 1313 00a4 CDE7     		b	.L82
 1314              	.L83:
 382:Middlewares/Third_Party/RealThread_RTOS/components/finsh/cmd.c ****                 }
 383:Middlewares/Third_Party/RealThread_RTOS/components/finsh/cmd.c ****                 else
 384:Middlewares/Third_Party/RealThread_RTOS/components/finsh/cmd.c ****                 {
 385:Middlewares/Third_Party/RealThread_RTOS/components/finsh/cmd.c ****                     rt_kprintf("%-*.*s  0x%08x 0\n",
 1315              		.loc 1 385 21 view .LVU390
 1316 00a6 3369     		ldr	r3, [r6, #16]
 1317 00a8 0093     		str	r3, [sp]
 1318 00aa A6F10C03 		sub	r3, r6, #12
ARM GAS  C:\Users\Administrator\AppData\Local\Temp\ccWW9SnK.s 			page 39


 1319 00ae 0822     		movs	r2, #8
 1320 00b0 1146     		mov	r1, r2
 1321 00b2 0E48     		ldr	r0, .L93+24
 1322 00b4 FFF7FEFF 		bl	rt_kprintf
 1323              	.LVL140:
 1324 00b8 C3E7     		b	.L82
 1325              	.LVL141:
 1326              	.L90:
 1327              		.loc 1 385 21 is_stmt 0 view .LVU391
 1328              	.LBE88:
 1329              	.LBE82:
 386:Middlewares/Third_Party/RealThread_RTOS/components/finsh/cmd.c ****                             maxlen, RT_NAME_MAX, e->parent.parent.name, e->set);
 387:Middlewares/Third_Party/RealThread_RTOS/components/finsh/cmd.c ****                 }
 388:Middlewares/Third_Party/RealThread_RTOS/components/finsh/cmd.c ****             }
 389:Middlewares/Third_Party/RealThread_RTOS/components/finsh/cmd.c ****         }
 390:Middlewares/Third_Party/RealThread_RTOS/components/finsh/cmd.c ****     }
 391:Middlewares/Third_Party/RealThread_RTOS/components/finsh/cmd.c ****     while (next != (rt_list_t*)RT_NULL);
 1330              		.loc 1 391 11 is_stmt 1 view .LVU392
 1331              		.loc 1 391 5 is_stmt 0 view .LVU393
 1332 00ba 37B1     		cbz	r7, .L92
 1333              	.LVL142:
 1334              	.L87:
 352:Middlewares/Third_Party/RealThread_RTOS/components/finsh/cmd.c ****     {
 1335              		.loc 1 352 5 is_stmt 1 view .LVU394
 354:Middlewares/Third_Party/RealThread_RTOS/components/finsh/cmd.c ****         {
 1336              		.loc 1 354 9 view .LVU395
 354:Middlewares/Third_Party/RealThread_RTOS/components/finsh/cmd.c ****         {
 1337              		.loc 1 354 16 is_stmt 0 view .LVU396
 1338 00bc 0BA9     		add	r1, sp, #44
 1339 00be 3846     		mov	r0, r7
 1340 00c0 FFF7FEFF 		bl	list_get_next
 1341              	.LVL143:
 1342 00c4 0746     		mov	r7, r0
 1343              	.LVL144:
 1344              	.LBB89:
 356:Middlewares/Third_Party/RealThread_RTOS/components/finsh/cmd.c ****             for (i = 0; i < find_arg.nr_out; i++)
 1345              		.loc 1 356 13 is_stmt 1 view .LVU397
 357:Middlewares/Third_Party/RealThread_RTOS/components/finsh/cmd.c ****             {
 1346              		.loc 1 357 13 view .LVU398
 357:Middlewares/Third_Party/RealThread_RTOS/components/finsh/cmd.c ****             {
 1347              		.loc 1 357 20 is_stmt 0 view .LVU399
 1348 00c6 4546     		mov	r5, r8
 357:Middlewares/Third_Party/RealThread_RTOS/components/finsh/cmd.c ****             {
 1349              		.loc 1 357 13 view .LVU400
 1350 00c8 BCE7     		b	.L80
 1351              	.LVL145:
 1352              	.L92:
 357:Middlewares/Third_Party/RealThread_RTOS/components/finsh/cmd.c ****             {
 1353              		.loc 1 357 13 view .LVU401
 1354              	.LBE89:
 392:Middlewares/Third_Party/RealThread_RTOS/components/finsh/cmd.c **** 
 393:Middlewares/Third_Party/RealThread_RTOS/components/finsh/cmd.c ****     return 0;
 1355              		.loc 1 393 5 is_stmt 1 view .LVU402
 394:Middlewares/Third_Party/RealThread_RTOS/components/finsh/cmd.c **** }
 1356              		.loc 1 394 1 is_stmt 0 view .LVU403
 1357 00ca 0020     		movs	r0, #0
 1358 00cc 10B0     		add	sp, sp, #64
ARM GAS  C:\Users\Administrator\AppData\Local\Temp\ccWW9SnK.s 			page 40


 1359              	.LCFI13:
 1360              		.cfi_def_cfa_offset 24
 1361              		@ sp needed
 1362 00ce BDE8F081 		pop	{r4, r5, r6, r7, r8, pc}
 1363              	.LVL146:
 1364              	.L94:
 1365              		.loc 1 394 1 view .LVU404
 1366 00d2 00BF     		.align	2
 1367              	.L93:
 1368 00d4 00000000 		.word	.LC20
 1369 00d8 08000000 		.word	.LC21
 1370 00dc 4C000000 		.word	.LC5
 1371 00e0 2C000000 		.word	.LC22
 1372 00e4 4C000000 		.word	.LC23
 1373 00e8 50000000 		.word	.LC18
 1374 00ec 64000000 		.word	.LC24
 1375              		.cfi_endproc
 1376              	.LFE26:
 1378              		.section	.rodata.list_mutex.str1.4,"aMS",%progbits,1
 1379              		.align	2
 1380              	.LC25:
 1381 0000 6D757465 		.ascii	"mutex\000"
 1381      7800
 1382 0006 0000     		.align	2
 1383              	.LC26:
 1384 0008 252D2A2E 		.ascii	"%-*.s   owner  hold suspend thread\012\000"
 1384      73202020 
 1384      6F776E65 
 1384      72202068 
 1384      6F6C6420 
 1385              		.align	2
 1386              	.LC27:
 1387 002c 202D2D2D 		.ascii	" -------- ---- --------------\012\000"
 1387      2D2D2D2D 
 1387      2D202D2D 
 1387      2D2D202D 
 1387      2D2D2D2D 
 1388 004b 00       		.align	2
 1389              	.LC28:
 1390 004c 252D2A2E 		.ascii	"%-*.*s %-8.*s %04d %d\012\000"
 1390      2A732025 
 1390      2D382E2A 
 1390      73202530 
 1390      34642025 
 1391              		.section	.text.list_mutex,"ax",%progbits
 1392              		.align	1
 1393              		.global	list_mutex
 1394              		.syntax unified
 1395              		.thumb
 1396              		.thumb_func
 1397              		.fpu softvfp
 1399              	list_mutex:
 1400              	.LFB27:
 395:Middlewares/Third_Party/RealThread_RTOS/components/finsh/cmd.c **** FINSH_FUNCTION_EXPORT(list_event, list event in system);
 396:Middlewares/Third_Party/RealThread_RTOS/components/finsh/cmd.c **** MSH_CMD_EXPORT(list_event, list event in system);
 397:Middlewares/Third_Party/RealThread_RTOS/components/finsh/cmd.c **** #endif
 398:Middlewares/Third_Party/RealThread_RTOS/components/finsh/cmd.c **** 
ARM GAS  C:\Users\Administrator\AppData\Local\Temp\ccWW9SnK.s 			page 41


 399:Middlewares/Third_Party/RealThread_RTOS/components/finsh/cmd.c **** #ifdef RT_USING_MUTEX
 400:Middlewares/Third_Party/RealThread_RTOS/components/finsh/cmd.c **** long list_mutex(void)
 401:Middlewares/Third_Party/RealThread_RTOS/components/finsh/cmd.c **** {
 1401              		.loc 1 401 1 is_stmt 1 view -0
 1402              		.cfi_startproc
 1403              		@ args = 0, pretend = 0, frame = 56
 1404              		@ frame_needed = 0, uses_anonymous_args = 0
 1405 0000 F0B5     		push	{r4, r5, r6, r7, lr}
 1406              	.LCFI14:
 1407              		.cfi_def_cfa_offset 20
 1408              		.cfi_offset 4, -20
 1409              		.cfi_offset 5, -16
 1410              		.cfi_offset 6, -12
 1411              		.cfi_offset 7, -8
 1412              		.cfi_offset 14, -4
 1413 0002 93B0     		sub	sp, sp, #76
 1414              	.LCFI15:
 1415              		.cfi_def_cfa_offset 96
 402:Middlewares/Third_Party/RealThread_RTOS/components/finsh/cmd.c ****     rt_ubase_t level;
 1416              		.loc 1 402 5 view .LVU406
 403:Middlewares/Third_Party/RealThread_RTOS/components/finsh/cmd.c ****     list_get_next_t find_arg;
 1417              		.loc 1 403 5 view .LVU407
 404:Middlewares/Third_Party/RealThread_RTOS/components/finsh/cmd.c ****     rt_list_t *obj_list[LIST_FIND_OBJ_NR];
 1418              		.loc 1 404 5 view .LVU408
 405:Middlewares/Third_Party/RealThread_RTOS/components/finsh/cmd.c ****     rt_list_t *next = (rt_list_t*)RT_NULL;
 1419              		.loc 1 405 5 view .LVU409
 1420              	.LVL147:
 406:Middlewares/Third_Party/RealThread_RTOS/components/finsh/cmd.c **** 
 407:Middlewares/Third_Party/RealThread_RTOS/components/finsh/cmd.c ****     int maxlen;
 1421              		.loc 1 407 5 view .LVU410
 408:Middlewares/Third_Party/RealThread_RTOS/components/finsh/cmd.c ****     const char *item_title = "mutex";
 1422              		.loc 1 408 5 view .LVU411
 409:Middlewares/Third_Party/RealThread_RTOS/components/finsh/cmd.c **** 
 410:Middlewares/Third_Party/RealThread_RTOS/components/finsh/cmd.c ****     list_find_init(&find_arg, RT_Object_Class_Mutex, obj_list, sizeof(obj_list)/sizeof(obj_list[0])
 1423              		.loc 1 410 5 view .LVU412
 1424 0004 0823     		movs	r3, #8
 1425 0006 05AA     		add	r2, sp, #20
 1426 0008 0321     		movs	r1, #3
 1427 000a 0DA8     		add	r0, sp, #52
 1428 000c FFF7FEFF 		bl	list_find_init
 1429              	.LVL148:
 411:Middlewares/Third_Party/RealThread_RTOS/components/finsh/cmd.c **** 
 412:Middlewares/Third_Party/RealThread_RTOS/components/finsh/cmd.c ****     maxlen = RT_NAME_MAX;
 1430              		.loc 1 412 5 view .LVU413
 413:Middlewares/Third_Party/RealThread_RTOS/components/finsh/cmd.c **** 
 414:Middlewares/Third_Party/RealThread_RTOS/components/finsh/cmd.c ****     rt_kprintf("%-*.s   owner  hold suspend thread\n", maxlen, item_title); object_split(maxlen);
 1431              		.loc 1 414 5 view .LVU414
 1432 0010 254A     		ldr	r2, .L109
 1433 0012 0821     		movs	r1, #8
 1434 0014 2548     		ldr	r0, .L109+4
 1435 0016 FFF7FEFF 		bl	rt_kprintf
 1436              	.LVL149:
 1437              		.loc 1 414 77 view .LVU415
 1438              	.LBB90:
 1439              	.LBI90:
  61:Middlewares/Third_Party/RealThread_RTOS/components/finsh/cmd.c **** {
 1440              		.loc 1 61 16 view .LVU416
ARM GAS  C:\Users\Administrator\AppData\Local\Temp\ccWW9SnK.s 			page 42


 1441              	.LBB91:
  63:Middlewares/Third_Party/RealThread_RTOS/components/finsh/cmd.c **** }
 1442              		.loc 1 63 5 view .LVU417
  63:Middlewares/Third_Party/RealThread_RTOS/components/finsh/cmd.c **** }
 1443              		.loc 1 63 11 is_stmt 0 view .LVU418
 1444 001a 0827     		movs	r7, #8
 1445              	.LVL150:
 1446              	.L96:
  63:Middlewares/Third_Party/RealThread_RTOS/components/finsh/cmd.c **** }
 1447              		.loc 1 63 11 is_stmt 1 view .LVU419
  63:Middlewares/Third_Party/RealThread_RTOS/components/finsh/cmd.c **** }
 1448              		.loc 1 63 15 is_stmt 0 view .LVU420
 1449 001c 7C1E     		subs	r4, r7, #1
 1450              	.LVL151:
  63:Middlewares/Third_Party/RealThread_RTOS/components/finsh/cmd.c **** }
 1451              		.loc 1 63 11 view .LVU421
 1452 001e 27B1     		cbz	r7, .L106
  63:Middlewares/Third_Party/RealThread_RTOS/components/finsh/cmd.c **** }
 1453              		.loc 1 63 19 is_stmt 1 view .LVU422
 1454 0020 2348     		ldr	r0, .L109+8
 1455 0022 FFF7FEFF 		bl	rt_kprintf
 1456              	.LVL152:
  63:Middlewares/Third_Party/RealThread_RTOS/components/finsh/cmd.c **** }
 1457              		.loc 1 63 15 is_stmt 0 view .LVU423
 1458 0026 2746     		mov	r7, r4
 1459 0028 F8E7     		b	.L96
 1460              	.L106:
 1461              	.LVL153:
  63:Middlewares/Third_Party/RealThread_RTOS/components/finsh/cmd.c **** }
 1462              		.loc 1 63 15 view .LVU424
 1463              	.LBE91:
 1464              	.LBE90:
 415:Middlewares/Third_Party/RealThread_RTOS/components/finsh/cmd.c ****     rt_kprintf(     " -------- ---- --------------\n");
 1465              		.loc 1 415 5 is_stmt 1 view .LVU425
 1466 002a 2248     		ldr	r0, .L109+12
 1467 002c FFF7FEFF 		bl	rt_kprintf
 1468              	.LVL154:
 405:Middlewares/Third_Party/RealThread_RTOS/components/finsh/cmd.c **** 
 1469              		.loc 1 405 16 is_stmt 0 view .LVU426
 1470 0030 0026     		movs	r6, #0
 1471 0032 2FE0     		b	.L104
 1472              	.LVL155:
 1473              	.L99:
 1474              	.LBB92:
 1475              	.LBB93:
 416:Middlewares/Third_Party/RealThread_RTOS/components/finsh/cmd.c **** 
 417:Middlewares/Third_Party/RealThread_RTOS/components/finsh/cmd.c ****     do
 418:Middlewares/Third_Party/RealThread_RTOS/components/finsh/cmd.c ****     {
 419:Middlewares/Third_Party/RealThread_RTOS/components/finsh/cmd.c ****         next = list_get_next(next, &find_arg);
 420:Middlewares/Third_Party/RealThread_RTOS/components/finsh/cmd.c ****         {
 421:Middlewares/Third_Party/RealThread_RTOS/components/finsh/cmd.c ****             int i;
 422:Middlewares/Third_Party/RealThread_RTOS/components/finsh/cmd.c ****             for (i = 0; i < find_arg.nr_out; i++)
 423:Middlewares/Third_Party/RealThread_RTOS/components/finsh/cmd.c ****             {
 424:Middlewares/Third_Party/RealThread_RTOS/components/finsh/cmd.c ****                 struct rt_object *obj;
 425:Middlewares/Third_Party/RealThread_RTOS/components/finsh/cmd.c ****                 struct rt_mutex *m;
 426:Middlewares/Third_Party/RealThread_RTOS/components/finsh/cmd.c **** 
 427:Middlewares/Third_Party/RealThread_RTOS/components/finsh/cmd.c ****                 obj = rt_list_entry(obj_list[i], struct rt_object, list);
ARM GAS  C:\Users\Administrator\AppData\Local\Temp\ccWW9SnK.s 			page 43


 428:Middlewares/Third_Party/RealThread_RTOS/components/finsh/cmd.c ****                 level = rt_hw_interrupt_disable();
 429:Middlewares/Third_Party/RealThread_RTOS/components/finsh/cmd.c ****                 if ((obj->type & ~RT_Object_Class_Static) != find_arg.type)
 430:Middlewares/Third_Party/RealThread_RTOS/components/finsh/cmd.c ****                 {
 431:Middlewares/Third_Party/RealThread_RTOS/components/finsh/cmd.c ****                     rt_hw_interrupt_enable(level);
 432:Middlewares/Third_Party/RealThread_RTOS/components/finsh/cmd.c ****                     continue;
 433:Middlewares/Third_Party/RealThread_RTOS/components/finsh/cmd.c ****                 }
 434:Middlewares/Third_Party/RealThread_RTOS/components/finsh/cmd.c **** 
 435:Middlewares/Third_Party/RealThread_RTOS/components/finsh/cmd.c ****                 rt_hw_interrupt_enable(level);
 1476              		.loc 1 435 17 is_stmt 1 view .LVU427
 1477 0034 FFF7FEFF 		bl	rt_hw_interrupt_enable
 1478              	.LVL156:
 436:Middlewares/Third_Party/RealThread_RTOS/components/finsh/cmd.c **** 
 437:Middlewares/Third_Party/RealThread_RTOS/components/finsh/cmd.c ****                 m = (struct rt_mutex *)obj;
 1479              		.loc 1 437 17 view .LVU428
 438:Middlewares/Third_Party/RealThread_RTOS/components/finsh/cmd.c ****                 rt_kprintf("%-*.*s %-8.*s %04d %d\n",
 1480              		.loc 1 438 17 view .LVU429
 439:Middlewares/Third_Party/RealThread_RTOS/components/finsh/cmd.c ****                         maxlen, RT_NAME_MAX,
 440:Middlewares/Third_Party/RealThread_RTOS/components/finsh/cmd.c ****                         m->parent.parent.name,
 1481              		.loc 1 440 41 is_stmt 0 view .LVU430
 1482 0038 A4F10C03 		sub	r3, r4, #12
 441:Middlewares/Third_Party/RealThread_RTOS/components/finsh/cmd.c ****                         RT_NAME_MAX,
 442:Middlewares/Third_Party/RealThread_RTOS/components/finsh/cmd.c ****                         m->owner->name,
 1483              		.loc 1 442 26 view .LVU431
 1484 003c 6069     		ldr	r0, [r4, #20]
 443:Middlewares/Third_Party/RealThread_RTOS/components/finsh/cmd.c ****                         m->hold,
 1485              		.loc 1 443 26 view .LVU432
 1486 003e 94F813C0 		ldrb	ip, [r4, #19]	@ zero_extendqisi2
 444:Middlewares/Third_Party/RealThread_RTOS/components/finsh/cmd.c ****                         rt_list_len(&m->parent.suspend_thread));
 1487              		.loc 1 444 37 view .LVU433
 1488 0042 0834     		adds	r4, r4, #8
 1489              	.LVL157:
 1490              	.LBB94:
 1491              	.LBI94:
 107:Middlewares/Third_Party/RealThread_RTOS/include/rtservice.h **** {
 1492              		.loc 2 107 24 is_stmt 1 view .LVU434
 1493              	.LBB95:
 109:Middlewares/Third_Party/RealThread_RTOS/include/rtservice.h ****     const rt_list_t *p = l;
 1494              		.loc 2 109 5 view .LVU435
 110:Middlewares/Third_Party/RealThread_RTOS/include/rtservice.h ****     while (p->next != l)
 1495              		.loc 2 110 5 view .LVU436
 111:Middlewares/Third_Party/RealThread_RTOS/include/rtservice.h ****     {
 1496              		.loc 2 111 5 view .LVU437
 110:Middlewares/Third_Party/RealThread_RTOS/include/rtservice.h ****     while (p->next != l)
 1497              		.loc 2 110 22 is_stmt 0 view .LVU438
 1498 0044 2246     		mov	r2, r4
 109:Middlewares/Third_Party/RealThread_RTOS/include/rtservice.h ****     const rt_list_t *p = l;
 1499              		.loc 2 109 18 view .LVU439
 1500 0046 0021     		movs	r1, #0
 111:Middlewares/Third_Party/RealThread_RTOS/include/rtservice.h ****     {
 1501              		.loc 2 111 11 view .LVU440
 1502 0048 00E0     		b	.L101
 1503              	.LVL158:
 1504              	.L102:
 113:Middlewares/Third_Party/RealThread_RTOS/include/rtservice.h ****         len ++;
 1505              		.loc 2 113 9 is_stmt 1 view .LVU441
 114:Middlewares/Third_Party/RealThread_RTOS/include/rtservice.h ****     }
 1506              		.loc 2 114 9 view .LVU442
ARM GAS  C:\Users\Administrator\AppData\Local\Temp\ccWW9SnK.s 			page 44


 114:Middlewares/Third_Party/RealThread_RTOS/include/rtservice.h ****     }
 1507              		.loc 2 114 13 is_stmt 0 view .LVU443
 1508 004a 0131     		adds	r1, r1, #1
 1509              	.LVL159:
 1510              	.L101:
 111:Middlewares/Third_Party/RealThread_RTOS/include/rtservice.h ****     {
 1511              		.loc 2 111 11 is_stmt 1 view .LVU444
 111:Middlewares/Third_Party/RealThread_RTOS/include/rtservice.h ****     {
 1512              		.loc 2 111 13 is_stmt 0 view .LVU445
 1513 004c 1268     		ldr	r2, [r2]
 1514              	.LVL160:
 111:Middlewares/Third_Party/RealThread_RTOS/include/rtservice.h ****     {
 1515              		.loc 2 111 11 view .LVU446
 1516 004e 9442     		cmp	r4, r2
 1517 0050 FBD1     		bne	.L102
 1518              		.loc 2 117 5 is_stmt 1 view .LVU447
 1519              	.LVL161:
 1520              		.loc 2 117 5 is_stmt 0 view .LVU448
 1521              	.LBE95:
 1522              	.LBE94:
 438:Middlewares/Third_Party/RealThread_RTOS/components/finsh/cmd.c ****                         maxlen, RT_NAME_MAX,
 1523              		.loc 1 438 17 view .LVU449
 1524 0052 0391     		str	r1, [sp, #12]
 1525 0054 CDF808C0 		str	ip, [sp, #8]
 1526 0058 0190     		str	r0, [sp, #4]
 1527 005a 0821     		movs	r1, #8
 1528 005c 0091     		str	r1, [sp]
 1529 005e 0A46     		mov	r2, r1
 1530 0060 1548     		ldr	r0, .L109+16
 1531 0062 FFF7FEFF 		bl	rt_kprintf
 1532              	.LVL162:
 1533              	.L100:
 438:Middlewares/Third_Party/RealThread_RTOS/components/finsh/cmd.c ****                         maxlen, RT_NAME_MAX,
 1534              		.loc 1 438 17 view .LVU450
 1535              	.LBE93:
 422:Middlewares/Third_Party/RealThread_RTOS/components/finsh/cmd.c ****             {
 1536              		.loc 1 422 46 is_stmt 1 discriminator 2 view .LVU451
 422:Middlewares/Third_Party/RealThread_RTOS/components/finsh/cmd.c ****             {
 1537              		.loc 1 422 47 is_stmt 0 discriminator 2 view .LVU452
 1538 0066 0135     		adds	r5, r5, #1
 1539              	.LVL163:
 1540              	.L98:
 422:Middlewares/Third_Party/RealThread_RTOS/components/finsh/cmd.c ****             {
 1541              		.loc 1 422 25 is_stmt 1 discriminator 1 view .LVU453
 422:Middlewares/Third_Party/RealThread_RTOS/components/finsh/cmd.c ****             {
 1542              		.loc 1 422 37 is_stmt 0 discriminator 1 view .LVU454
 1543 0068 119B     		ldr	r3, [sp, #68]
 422:Middlewares/Third_Party/RealThread_RTOS/components/finsh/cmd.c ****             {
 1544              		.loc 1 422 13 discriminator 1 view .LVU455
 1545 006a AB42     		cmp	r3, r5
 1546 006c 11DD     		ble	.L107
 1547              	.LBB96:
 424:Middlewares/Third_Party/RealThread_RTOS/components/finsh/cmd.c ****                 struct rt_mutex *m;
 1548              		.loc 1 424 17 is_stmt 1 view .LVU456
 425:Middlewares/Third_Party/RealThread_RTOS/components/finsh/cmd.c **** 
 1549              		.loc 1 425 17 view .LVU457
 427:Middlewares/Third_Party/RealThread_RTOS/components/finsh/cmd.c ****                 level = rt_hw_interrupt_disable();
ARM GAS  C:\Users\Administrator\AppData\Local\Temp\ccWW9SnK.s 			page 45


 1550              		.loc 1 427 17 view .LVU458
 427:Middlewares/Third_Party/RealThread_RTOS/components/finsh/cmd.c ****                 level = rt_hw_interrupt_disable();
 1551              		.loc 1 427 23 is_stmt 0 view .LVU459
 1552 006e 12AB     		add	r3, sp, #72
 1553 0070 03EB8503 		add	r3, r3, r5, lsl #2
 1554 0074 53F8344C 		ldr	r4, [r3, #-52]
 1555              	.LVL164:
 428:Middlewares/Third_Party/RealThread_RTOS/components/finsh/cmd.c ****                 if ((obj->type & ~RT_Object_Class_Static) != find_arg.type)
 1556              		.loc 1 428 17 is_stmt 1 view .LVU460
 428:Middlewares/Third_Party/RealThread_RTOS/components/finsh/cmd.c ****                 if ((obj->type & ~RT_Object_Class_Static) != find_arg.type)
 1557              		.loc 1 428 25 is_stmt 0 view .LVU461
 1558 0078 FFF7FEFF 		bl	rt_hw_interrupt_disable
 1559              	.LVL165:
 429:Middlewares/Third_Party/RealThread_RTOS/components/finsh/cmd.c ****                 {
 1560              		.loc 1 429 17 is_stmt 1 view .LVU462
 429:Middlewares/Third_Party/RealThread_RTOS/components/finsh/cmd.c ****                 {
 1561              		.loc 1 429 25 is_stmt 0 view .LVU463
 1562 007c 14F8043C 		ldrb	r3, [r4, #-4]	@ zero_extendqisi2
 429:Middlewares/Third_Party/RealThread_RTOS/components/finsh/cmd.c ****                 {
 1563              		.loc 1 429 32 view .LVU464
 1564 0080 23F08003 		bic	r3, r3, #128
 429:Middlewares/Third_Party/RealThread_RTOS/components/finsh/cmd.c ****                 {
 1565              		.loc 1 429 70 view .LVU465
 1566 0084 9DF83C20 		ldrb	r2, [sp, #60]	@ zero_extendqisi2
 429:Middlewares/Third_Party/RealThread_RTOS/components/finsh/cmd.c ****                 {
 1567              		.loc 1 429 20 view .LVU466
 1568 0088 9342     		cmp	r3, r2
 1569 008a D3D0     		beq	.L99
 431:Middlewares/Third_Party/RealThread_RTOS/components/finsh/cmd.c ****                     continue;
 1570              		.loc 1 431 21 is_stmt 1 view .LVU467
 1571 008c FFF7FEFF 		bl	rt_hw_interrupt_enable
 1572              	.LVL166:
 432:Middlewares/Third_Party/RealThread_RTOS/components/finsh/cmd.c ****                 }
 1573              		.loc 1 432 21 view .LVU468
 1574 0090 E9E7     		b	.L100
 1575              	.LVL167:
 1576              	.L107:
 432:Middlewares/Third_Party/RealThread_RTOS/components/finsh/cmd.c ****                 }
 1577              		.loc 1 432 21 is_stmt 0 view .LVU469
 1578              	.LBE96:
 1579              	.LBE92:
 445:Middlewares/Third_Party/RealThread_RTOS/components/finsh/cmd.c **** 
 446:Middlewares/Third_Party/RealThread_RTOS/components/finsh/cmd.c ****             }
 447:Middlewares/Third_Party/RealThread_RTOS/components/finsh/cmd.c ****         }
 448:Middlewares/Third_Party/RealThread_RTOS/components/finsh/cmd.c ****     }
 449:Middlewares/Third_Party/RealThread_RTOS/components/finsh/cmd.c ****     while (next != (rt_list_t*)RT_NULL);
 1580              		.loc 1 449 11 is_stmt 1 view .LVU470
 1581              		.loc 1 449 5 is_stmt 0 view .LVU471
 1582 0092 36B1     		cbz	r6, .L108
 1583              	.LVL168:
 1584              	.L104:
 417:Middlewares/Third_Party/RealThread_RTOS/components/finsh/cmd.c ****     {
 1585              		.loc 1 417 5 is_stmt 1 view .LVU472
 419:Middlewares/Third_Party/RealThread_RTOS/components/finsh/cmd.c ****         {
 1586              		.loc 1 419 9 view .LVU473
 419:Middlewares/Third_Party/RealThread_RTOS/components/finsh/cmd.c ****         {
 1587              		.loc 1 419 16 is_stmt 0 view .LVU474
ARM GAS  C:\Users\Administrator\AppData\Local\Temp\ccWW9SnK.s 			page 46


 1588 0094 0DA9     		add	r1, sp, #52
 1589 0096 3046     		mov	r0, r6
 1590 0098 FFF7FEFF 		bl	list_get_next
 1591              	.LVL169:
 1592 009c 0646     		mov	r6, r0
 1593              	.LVL170:
 1594              	.LBB97:
 421:Middlewares/Third_Party/RealThread_RTOS/components/finsh/cmd.c ****             for (i = 0; i < find_arg.nr_out; i++)
 1595              		.loc 1 421 13 is_stmt 1 view .LVU475
 422:Middlewares/Third_Party/RealThread_RTOS/components/finsh/cmd.c ****             {
 1596              		.loc 1 422 13 view .LVU476
 422:Middlewares/Third_Party/RealThread_RTOS/components/finsh/cmd.c ****             {
 1597              		.loc 1 422 20 is_stmt 0 view .LVU477
 1598 009e 3D46     		mov	r5, r7
 422:Middlewares/Third_Party/RealThread_RTOS/components/finsh/cmd.c ****             {
 1599              		.loc 1 422 13 view .LVU478
 1600 00a0 E2E7     		b	.L98
 1601              	.LVL171:
 1602              	.L108:
 422:Middlewares/Third_Party/RealThread_RTOS/components/finsh/cmd.c ****             {
 1603              		.loc 1 422 13 view .LVU479
 1604              	.LBE97:
 450:Middlewares/Third_Party/RealThread_RTOS/components/finsh/cmd.c **** 
 451:Middlewares/Third_Party/RealThread_RTOS/components/finsh/cmd.c ****     return 0;
 1605              		.loc 1 451 5 is_stmt 1 view .LVU480
 452:Middlewares/Third_Party/RealThread_RTOS/components/finsh/cmd.c **** }
 1606              		.loc 1 452 1 is_stmt 0 view .LVU481
 1607 00a2 0020     		movs	r0, #0
 1608 00a4 13B0     		add	sp, sp, #76
 1609              	.LCFI16:
 1610              		.cfi_def_cfa_offset 20
 1611              		@ sp needed
 1612 00a6 F0BD     		pop	{r4, r5, r6, r7, pc}
 1613              	.LVL172:
 1614              	.L110:
 1615              		.loc 1 452 1 view .LVU482
 1616              		.align	2
 1617              	.L109:
 1618 00a8 00000000 		.word	.LC25
 1619 00ac 08000000 		.word	.LC26
 1620 00b0 4C000000 		.word	.LC5
 1621 00b4 2C000000 		.word	.LC27
 1622 00b8 4C000000 		.word	.LC28
 1623              		.cfi_endproc
 1624              	.LFE27:
 1626              		.section	.rodata.list_mailbox.str1.4,"aMS",%progbits,1
 1627              		.align	2
 1628              	.LC29:
 1629 0000 6D61696C 		.ascii	"mailbox\000"
 1629      626F7800 
 1630              		.align	2
 1631              	.LC30:
 1632 0008 252D2A2E 		.ascii	"%-*.s entry size suspend thread\012\000"
 1632      7320656E 
 1632      74727920 
 1632      73697A65 
 1632      20737573 
ARM GAS  C:\Users\Administrator\AppData\Local\Temp\ccWW9SnK.s 			page 47


 1633 0029 000000   		.align	2
 1634              	.LC31:
 1635 002c 202D2D2D 		.ascii	" ----  ---- --------------\012\000"
 1635      2D20202D 
 1635      2D2D2D20 
 1635      2D2D2D2D 
 1635      2D2D2D2D 
 1636              		.align	2
 1637              	.LC32:
 1638 0048 252D2A2E 		.ascii	"%-*.*s %04d  %04d %d:\000"
 1638      2A732025 
 1638      30346420 
 1638      20253034 
 1638      64202564 
 1639 005e 0000     		.align	2
 1640              	.LC33:
 1641 0060 252D2A2E 		.ascii	"%-*.*s %04d  %04d %d\012\000"
 1641      2A732025 
 1641      30346420 
 1641      20253034 
 1641      64202564 
 1642              		.section	.text.list_mailbox,"ax",%progbits
 1643              		.align	1
 1644              		.global	list_mailbox
 1645              		.syntax unified
 1646              		.thumb
 1647              		.thumb_func
 1648              		.fpu softvfp
 1650              	list_mailbox:
 1651              	.LFB28:
 453:Middlewares/Third_Party/RealThread_RTOS/components/finsh/cmd.c **** FINSH_FUNCTION_EXPORT(list_mutex, list mutex in system);
 454:Middlewares/Third_Party/RealThread_RTOS/components/finsh/cmd.c **** MSH_CMD_EXPORT(list_mutex, list mutex in system);
 455:Middlewares/Third_Party/RealThread_RTOS/components/finsh/cmd.c **** #endif
 456:Middlewares/Third_Party/RealThread_RTOS/components/finsh/cmd.c **** 
 457:Middlewares/Third_Party/RealThread_RTOS/components/finsh/cmd.c **** #ifdef RT_USING_MAILBOX
 458:Middlewares/Third_Party/RealThread_RTOS/components/finsh/cmd.c **** long list_mailbox(void)
 459:Middlewares/Third_Party/RealThread_RTOS/components/finsh/cmd.c **** {
 1652              		.loc 1 459 1 is_stmt 1 view -0
 1653              		.cfi_startproc
 1654              		@ args = 0, pretend = 0, frame = 56
 1655              		@ frame_needed = 0, uses_anonymous_args = 0
 1656 0000 2DE9F041 		push	{r4, r5, r6, r7, r8, lr}
 1657              	.LCFI17:
 1658              		.cfi_def_cfa_offset 24
 1659              		.cfi_offset 4, -24
 1660              		.cfi_offset 5, -20
 1661              		.cfi_offset 6, -16
 1662              		.cfi_offset 7, -12
 1663              		.cfi_offset 8, -8
 1664              		.cfi_offset 14, -4
 1665 0004 92B0     		sub	sp, sp, #72
 1666              	.LCFI18:
 1667              		.cfi_def_cfa_offset 96
 460:Middlewares/Third_Party/RealThread_RTOS/components/finsh/cmd.c ****     rt_ubase_t level;
 1668              		.loc 1 460 5 view .LVU484
 461:Middlewares/Third_Party/RealThread_RTOS/components/finsh/cmd.c ****     list_get_next_t find_arg;
 1669              		.loc 1 461 5 view .LVU485
ARM GAS  C:\Users\Administrator\AppData\Local\Temp\ccWW9SnK.s 			page 48


 462:Middlewares/Third_Party/RealThread_RTOS/components/finsh/cmd.c ****     rt_list_t *obj_list[LIST_FIND_OBJ_NR];
 1670              		.loc 1 462 5 view .LVU486
 463:Middlewares/Third_Party/RealThread_RTOS/components/finsh/cmd.c ****     rt_list_t *next = (rt_list_t*)RT_NULL;
 1671              		.loc 1 463 5 view .LVU487
 1672              	.LVL173:
 464:Middlewares/Third_Party/RealThread_RTOS/components/finsh/cmd.c **** 
 465:Middlewares/Third_Party/RealThread_RTOS/components/finsh/cmd.c ****     int maxlen;
 1673              		.loc 1 465 5 view .LVU488
 466:Middlewares/Third_Party/RealThread_RTOS/components/finsh/cmd.c ****     const char *item_title = "mailbox";
 1674              		.loc 1 466 5 view .LVU489
 467:Middlewares/Third_Party/RealThread_RTOS/components/finsh/cmd.c **** 
 468:Middlewares/Third_Party/RealThread_RTOS/components/finsh/cmd.c ****     list_find_init(&find_arg, RT_Object_Class_MailBox, obj_list, sizeof(obj_list)/sizeof(obj_list[0
 1675              		.loc 1 468 5 view .LVU490
 1676 0006 0823     		movs	r3, #8
 1677 0008 05AA     		add	r2, sp, #20
 1678 000a 0521     		movs	r1, #5
 1679 000c 0DA8     		add	r0, sp, #52
 1680 000e FFF7FEFF 		bl	list_find_init
 1681              	.LVL174:
 469:Middlewares/Third_Party/RealThread_RTOS/components/finsh/cmd.c **** 
 470:Middlewares/Third_Party/RealThread_RTOS/components/finsh/cmd.c ****     maxlen = RT_NAME_MAX;
 1682              		.loc 1 470 5 view .LVU491
 471:Middlewares/Third_Party/RealThread_RTOS/components/finsh/cmd.c **** 
 472:Middlewares/Third_Party/RealThread_RTOS/components/finsh/cmd.c ****     rt_kprintf("%-*.s entry size suspend thread\n", maxlen, item_title); object_split(maxlen);
 1683              		.loc 1 472 5 view .LVU492
 1684 0012 364A     		ldr	r2, .L129
 1685 0014 0821     		movs	r1, #8
 1686 0016 3648     		ldr	r0, .L129+4
 1687 0018 FFF7FEFF 		bl	rt_kprintf
 1688              	.LVL175:
 1689              		.loc 1 472 74 view .LVU493
 1690              	.LBB98:
 1691              	.LBI98:
  61:Middlewares/Third_Party/RealThread_RTOS/components/finsh/cmd.c **** {
 1692              		.loc 1 61 16 view .LVU494
 1693              	.LBB99:
  63:Middlewares/Third_Party/RealThread_RTOS/components/finsh/cmd.c **** }
 1694              		.loc 1 63 5 view .LVU495
  63:Middlewares/Third_Party/RealThread_RTOS/components/finsh/cmd.c **** }
 1695              		.loc 1 63 11 is_stmt 0 view .LVU496
 1696 001c 4FF00808 		mov	r8, #8
 1697              	.LVL176:
 1698              	.L112:
  63:Middlewares/Third_Party/RealThread_RTOS/components/finsh/cmd.c **** }
 1699              		.loc 1 63 11 is_stmt 1 view .LVU497
  63:Middlewares/Third_Party/RealThread_RTOS/components/finsh/cmd.c **** }
 1700              		.loc 1 63 15 is_stmt 0 view .LVU498
 1701 0020 08F1FF34 		add	r4, r8, #-1
 1702              	.LVL177:
  63:Middlewares/Third_Party/RealThread_RTOS/components/finsh/cmd.c **** }
 1703              		.loc 1 63 11 view .LVU499
 1704 0024 B8F1000F 		cmp	r8, #0
 1705 0028 04D0     		beq	.L125
  63:Middlewares/Third_Party/RealThread_RTOS/components/finsh/cmd.c **** }
 1706              		.loc 1 63 19 is_stmt 1 view .LVU500
 1707 002a 3248     		ldr	r0, .L129+8
 1708 002c FFF7FEFF 		bl	rt_kprintf
ARM GAS  C:\Users\Administrator\AppData\Local\Temp\ccWW9SnK.s 			page 49


 1709              	.LVL178:
  63:Middlewares/Third_Party/RealThread_RTOS/components/finsh/cmd.c **** }
 1710              		.loc 1 63 15 is_stmt 0 view .LVU501
 1711 0030 A046     		mov	r8, r4
 1712 0032 F5E7     		b	.L112
 1713              	.L125:
 1714              	.LVL179:
  63:Middlewares/Third_Party/RealThread_RTOS/components/finsh/cmd.c **** }
 1715              		.loc 1 63 15 view .LVU502
 1716              	.LBE99:
 1717              	.LBE98:
 473:Middlewares/Third_Party/RealThread_RTOS/components/finsh/cmd.c ****     rt_kprintf(     " ----  ---- --------------\n");
 1718              		.loc 1 473 5 is_stmt 1 view .LVU503
 1719 0034 3048     		ldr	r0, .L129+12
 1720 0036 FFF7FEFF 		bl	rt_kprintf
 1721              	.LVL180:
 463:Middlewares/Third_Party/RealThread_RTOS/components/finsh/cmd.c **** 
 1722              		.loc 1 463 16 is_stmt 0 view .LVU504
 1723 003a 0027     		movs	r7, #0
 1724 003c 4AE0     		b	.L123
 1725              	.LVL181:
 1726              	.L127:
 1727              	.LBB100:
 1728              	.LBB101:
 474:Middlewares/Third_Party/RealThread_RTOS/components/finsh/cmd.c **** 
 475:Middlewares/Third_Party/RealThread_RTOS/components/finsh/cmd.c ****     do
 476:Middlewares/Third_Party/RealThread_RTOS/components/finsh/cmd.c ****     {
 477:Middlewares/Third_Party/RealThread_RTOS/components/finsh/cmd.c ****         next = list_get_next(next, &find_arg);
 478:Middlewares/Third_Party/RealThread_RTOS/components/finsh/cmd.c ****         {
 479:Middlewares/Third_Party/RealThread_RTOS/components/finsh/cmd.c ****             int i;
 480:Middlewares/Third_Party/RealThread_RTOS/components/finsh/cmd.c ****             for (i = 0; i < find_arg.nr_out; i++)
 481:Middlewares/Third_Party/RealThread_RTOS/components/finsh/cmd.c ****             {
 482:Middlewares/Third_Party/RealThread_RTOS/components/finsh/cmd.c ****                 struct rt_object *obj;
 483:Middlewares/Third_Party/RealThread_RTOS/components/finsh/cmd.c ****                 struct rt_mailbox *m;
 484:Middlewares/Third_Party/RealThread_RTOS/components/finsh/cmd.c **** 
 485:Middlewares/Third_Party/RealThread_RTOS/components/finsh/cmd.c ****                 obj = rt_list_entry(obj_list[i], struct rt_object, list);
 486:Middlewares/Third_Party/RealThread_RTOS/components/finsh/cmd.c ****                 level = rt_hw_interrupt_disable();
 487:Middlewares/Third_Party/RealThread_RTOS/components/finsh/cmd.c ****                 if ((obj->type & ~RT_Object_Class_Static) != find_arg.type)
 488:Middlewares/Third_Party/RealThread_RTOS/components/finsh/cmd.c ****                 {
 489:Middlewares/Third_Party/RealThread_RTOS/components/finsh/cmd.c ****                     rt_hw_interrupt_enable(level);
 1729              		.loc 1 489 21 is_stmt 1 view .LVU505
 1730 003e FFF7FEFF 		bl	rt_hw_interrupt_enable
 1731              	.LVL182:
 490:Middlewares/Third_Party/RealThread_RTOS/components/finsh/cmd.c ****                     continue;
 1732              		.loc 1 490 21 view .LVU506
 1733              	.L116:
 1734              		.loc 1 490 21 is_stmt 0 view .LVU507
 1735              	.LBE101:
 480:Middlewares/Third_Party/RealThread_RTOS/components/finsh/cmd.c ****             {
 1736              		.loc 1 480 46 is_stmt 1 discriminator 2 view .LVU508
 480:Middlewares/Third_Party/RealThread_RTOS/components/finsh/cmd.c ****             {
 1737              		.loc 1 480 47 is_stmt 0 discriminator 2 view .LVU509
 1738 0042 0136     		adds	r6, r6, #1
 1739              	.LVL183:
 1740              	.L114:
 480:Middlewares/Third_Party/RealThread_RTOS/components/finsh/cmd.c ****             {
 1741              		.loc 1 480 25 is_stmt 1 discriminator 1 view .LVU510
ARM GAS  C:\Users\Administrator\AppData\Local\Temp\ccWW9SnK.s 			page 50


 480:Middlewares/Third_Party/RealThread_RTOS/components/finsh/cmd.c ****             {
 1742              		.loc 1 480 37 is_stmt 0 discriminator 1 view .LVU511
 1743 0044 119B     		ldr	r3, [sp, #68]
 480:Middlewares/Third_Party/RealThread_RTOS/components/finsh/cmd.c ****             {
 1744              		.loc 1 480 13 discriminator 1 view .LVU512
 1745 0046 B342     		cmp	r3, r6
 1746 0048 43DD     		ble	.L126
 1747              	.LBB108:
 482:Middlewares/Third_Party/RealThread_RTOS/components/finsh/cmd.c ****                 struct rt_mailbox *m;
 1748              		.loc 1 482 17 is_stmt 1 view .LVU513
 483:Middlewares/Third_Party/RealThread_RTOS/components/finsh/cmd.c **** 
 1749              		.loc 1 483 17 view .LVU514
 485:Middlewares/Third_Party/RealThread_RTOS/components/finsh/cmd.c ****                 level = rt_hw_interrupt_disable();
 1750              		.loc 1 485 17 view .LVU515
 485:Middlewares/Third_Party/RealThread_RTOS/components/finsh/cmd.c ****                 level = rt_hw_interrupt_disable();
 1751              		.loc 1 485 23 is_stmt 0 view .LVU516
 1752 004a 12AB     		add	r3, sp, #72
 1753 004c 03EB8603 		add	r3, r3, r6, lsl #2
 1754 0050 53F8345C 		ldr	r5, [r3, #-52]
 1755              	.LVL184:
 486:Middlewares/Third_Party/RealThread_RTOS/components/finsh/cmd.c ****                 if ((obj->type & ~RT_Object_Class_Static) != find_arg.type)
 1756              		.loc 1 486 17 is_stmt 1 view .LVU517
 486:Middlewares/Third_Party/RealThread_RTOS/components/finsh/cmd.c ****                 if ((obj->type & ~RT_Object_Class_Static) != find_arg.type)
 1757              		.loc 1 486 25 is_stmt 0 view .LVU518
 1758 0054 FFF7FEFF 		bl	rt_hw_interrupt_disable
 1759              	.LVL185:
 487:Middlewares/Third_Party/RealThread_RTOS/components/finsh/cmd.c ****                 {
 1760              		.loc 1 487 17 is_stmt 1 view .LVU519
 487:Middlewares/Third_Party/RealThread_RTOS/components/finsh/cmd.c ****                 {
 1761              		.loc 1 487 25 is_stmt 0 view .LVU520
 1762 0058 15F8043C 		ldrb	r3, [r5, #-4]	@ zero_extendqisi2
 487:Middlewares/Third_Party/RealThread_RTOS/components/finsh/cmd.c ****                 {
 1763              		.loc 1 487 32 view .LVU521
 1764 005c 23F08003 		bic	r3, r3, #128
 487:Middlewares/Third_Party/RealThread_RTOS/components/finsh/cmd.c ****                 {
 1765              		.loc 1 487 70 view .LVU522
 1766 0060 9DF83C20 		ldrb	r2, [sp, #60]	@ zero_extendqisi2
 487:Middlewares/Third_Party/RealThread_RTOS/components/finsh/cmd.c ****                 {
 1767              		.loc 1 487 20 view .LVU523
 1768 0064 9342     		cmp	r3, r2
 1769 0066 EAD1     		bne	.L127
 491:Middlewares/Third_Party/RealThread_RTOS/components/finsh/cmd.c ****                 }
 492:Middlewares/Third_Party/RealThread_RTOS/components/finsh/cmd.c **** 
 493:Middlewares/Third_Party/RealThread_RTOS/components/finsh/cmd.c ****                 rt_hw_interrupt_enable(level);
 1770              		.loc 1 493 17 is_stmt 1 view .LVU524
 1771 0068 FFF7FEFF 		bl	rt_hw_interrupt_enable
 1772              	.LVL186:
 494:Middlewares/Third_Party/RealThread_RTOS/components/finsh/cmd.c **** 
 495:Middlewares/Third_Party/RealThread_RTOS/components/finsh/cmd.c ****                 m = (struct rt_mailbox *)obj;
 1773              		.loc 1 495 17 view .LVU525
 496:Middlewares/Third_Party/RealThread_RTOS/components/finsh/cmd.c ****                 if (!rt_list_isempty(&m->parent.suspend_thread))
 1774              		.loc 1 496 17 view .LVU526
 1775              		.loc 1 496 38 is_stmt 0 view .LVU527
 1776 006c 05F10804 		add	r4, r5, #8
 1777              	.LVL187:
 1778              	.LBB102:
 1779              	.LBI102:
ARM GAS  C:\Users\Administrator\AppData\Local\Temp\ccWW9SnK.s 			page 51


  98:Middlewares/Third_Party/RealThread_RTOS/include/rtservice.h **** {
 1780              		.loc 2 98 15 is_stmt 1 view .LVU528
 1781              	.LBB103:
 100:Middlewares/Third_Party/RealThread_RTOS/include/rtservice.h **** }
 1782              		.loc 2 100 5 view .LVU529
 100:Middlewares/Third_Party/RealThread_RTOS/include/rtservice.h **** }
 1783              		.loc 2 100 13 is_stmt 0 view .LVU530
 1784 0070 AB68     		ldr	r3, [r5, #8]
 1785              	.LVL188:
 100:Middlewares/Third_Party/RealThread_RTOS/include/rtservice.h **** }
 1786              		.loc 2 100 13 view .LVU531
 1787              	.LBE103:
 1788              	.LBE102:
 1789              		.loc 1 496 20 view .LVU532
 1790 0072 9C42     		cmp	r4, r3
 1791 0074 19D0     		beq	.L117
 497:Middlewares/Third_Party/RealThread_RTOS/components/finsh/cmd.c ****                 {
 498:Middlewares/Third_Party/RealThread_RTOS/components/finsh/cmd.c ****                     rt_kprintf("%-*.*s %04d  %04d %d:",
 1792              		.loc 1 498 21 is_stmt 1 view .LVU533
 499:Middlewares/Third_Party/RealThread_RTOS/components/finsh/cmd.c ****                             maxlen, RT_NAME_MAX,
 500:Middlewares/Third_Party/RealThread_RTOS/components/finsh/cmd.c ****                             m->parent.parent.name,
 1793              		.loc 1 500 45 is_stmt 0 view .LVU534
 1794 0076 A5F10C03 		sub	r3, r5, #12
 1795              	.LVL189:
 501:Middlewares/Third_Party/RealThread_RTOS/components/finsh/cmd.c ****                             m->entry,
 1796              		.loc 1 501 30 view .LVU535
 1797 007a E88A     		ldrh	r0, [r5, #22]
 502:Middlewares/Third_Party/RealThread_RTOS/components/finsh/cmd.c ****                             m->size,
 1798              		.loc 1 502 30 view .LVU536
 1799 007c AD8A     		ldrh	r5, [r5, #20]
 1800              	.LVL190:
 1801              	.LBB104:
 1802              	.LBI104:
 107:Middlewares/Third_Party/RealThread_RTOS/include/rtservice.h **** {
 1803              		.loc 2 107 24 is_stmt 1 view .LVU537
 1804              	.LBB105:
 109:Middlewares/Third_Party/RealThread_RTOS/include/rtservice.h ****     const rt_list_t *p = l;
 1805              		.loc 2 109 5 view .LVU538
 110:Middlewares/Third_Party/RealThread_RTOS/include/rtservice.h ****     while (p->next != l)
 1806              		.loc 2 110 5 view .LVU539
 111:Middlewares/Third_Party/RealThread_RTOS/include/rtservice.h ****     {
 1807              		.loc 2 111 5 view .LVU540
 110:Middlewares/Third_Party/RealThread_RTOS/include/rtservice.h ****     while (p->next != l)
 1808              		.loc 2 110 22 is_stmt 0 view .LVU541
 1809 007e 2246     		mov	r2, r4
 109:Middlewares/Third_Party/RealThread_RTOS/include/rtservice.h ****     const rt_list_t *p = l;
 1810              		.loc 2 109 18 view .LVU542
 1811 0080 0021     		movs	r1, #0
 111:Middlewares/Third_Party/RealThread_RTOS/include/rtservice.h ****     {
 1812              		.loc 2 111 11 view .LVU543
 1813 0082 00E0     		b	.L118
 1814              	.LVL191:
 1815              	.L119:
 113:Middlewares/Third_Party/RealThread_RTOS/include/rtservice.h ****         len ++;
 1816              		.loc 2 113 9 is_stmt 1 view .LVU544
 114:Middlewares/Third_Party/RealThread_RTOS/include/rtservice.h ****     }
 1817              		.loc 2 114 9 view .LVU545
ARM GAS  C:\Users\Administrator\AppData\Local\Temp\ccWW9SnK.s 			page 52


 114:Middlewares/Third_Party/RealThread_RTOS/include/rtservice.h ****     }
 1818              		.loc 2 114 13 is_stmt 0 view .LVU546
 1819 0084 0131     		adds	r1, r1, #1
 1820              	.LVL192:
 1821              	.L118:
 111:Middlewares/Third_Party/RealThread_RTOS/include/rtservice.h ****     {
 1822              		.loc 2 111 11 is_stmt 1 view .LVU547
 111:Middlewares/Third_Party/RealThread_RTOS/include/rtservice.h ****     {
 1823              		.loc 2 111 13 is_stmt 0 view .LVU548
 1824 0086 1268     		ldr	r2, [r2]
 1825              	.LVL193:
 111:Middlewares/Third_Party/RealThread_RTOS/include/rtservice.h ****     {
 1826              		.loc 2 111 11 view .LVU549
 1827 0088 9442     		cmp	r4, r2
 1828 008a FBD1     		bne	.L119
 1829              		.loc 2 117 5 is_stmt 1 view .LVU550
 1830              	.LVL194:
 1831              		.loc 2 117 5 is_stmt 0 view .LVU551
 1832              	.LBE105:
 1833              	.LBE104:
 498:Middlewares/Third_Party/RealThread_RTOS/components/finsh/cmd.c ****                             maxlen, RT_NAME_MAX,
 1834              		.loc 1 498 21 view .LVU552
 1835 008c 0291     		str	r1, [sp, #8]
 1836 008e 0195     		str	r5, [sp, #4]
 1837 0090 0090     		str	r0, [sp]
 1838 0092 0822     		movs	r2, #8
 1839 0094 1146     		mov	r1, r2
 1840 0096 1948     		ldr	r0, .L129+16
 1841 0098 FFF7FEFF 		bl	rt_kprintf
 1842              	.LVL195:
 503:Middlewares/Third_Party/RealThread_RTOS/components/finsh/cmd.c ****                             rt_list_len(&m->parent.suspend_thread));
 504:Middlewares/Third_Party/RealThread_RTOS/components/finsh/cmd.c ****                     show_wait_queue(&(m->parent.suspend_thread));
 1843              		.loc 1 504 21 is_stmt 1 view .LVU553
 1844 009c 2046     		mov	r0, r4
 1845 009e FFF7FEFF 		bl	show_wait_queue
 1846              	.LVL196:
 505:Middlewares/Third_Party/RealThread_RTOS/components/finsh/cmd.c ****                     rt_kprintf("\n");
 1847              		.loc 1 505 21 view .LVU554
 1848 00a2 1748     		ldr	r0, .L129+20
 1849 00a4 FFF7FEFF 		bl	rt_kprintf
 1850              	.LVL197:
 1851 00a8 CBE7     		b	.L116
 1852              	.LVL198:
 1853              	.L117:
 506:Middlewares/Third_Party/RealThread_RTOS/components/finsh/cmd.c ****                 }
 507:Middlewares/Third_Party/RealThread_RTOS/components/finsh/cmd.c ****                 else
 508:Middlewares/Third_Party/RealThread_RTOS/components/finsh/cmd.c ****                 {
 509:Middlewares/Third_Party/RealThread_RTOS/components/finsh/cmd.c ****                     rt_kprintf("%-*.*s %04d  %04d %d\n",
 1854              		.loc 1 509 21 view .LVU555
 510:Middlewares/Third_Party/RealThread_RTOS/components/finsh/cmd.c ****                             maxlen, RT_NAME_MAX,
 511:Middlewares/Third_Party/RealThread_RTOS/components/finsh/cmd.c ****                             m->parent.parent.name,
 1855              		.loc 1 511 45 is_stmt 0 view .LVU556
 1856 00aa A5F10C03 		sub	r3, r5, #12
 512:Middlewares/Third_Party/RealThread_RTOS/components/finsh/cmd.c ****                             m->entry,
 1857              		.loc 1 512 30 view .LVU557
 1858 00ae E88A     		ldrh	r0, [r5, #22]
 513:Middlewares/Third_Party/RealThread_RTOS/components/finsh/cmd.c ****                             m->size,
ARM GAS  C:\Users\Administrator\AppData\Local\Temp\ccWW9SnK.s 			page 53


 1859              		.loc 1 513 30 view .LVU558
 1860 00b0 AD8A     		ldrh	r5, [r5, #20]
 1861              	.LVL199:
 1862              	.LBB106:
 1863              	.LBI106:
 107:Middlewares/Third_Party/RealThread_RTOS/include/rtservice.h **** {
 1864              		.loc 2 107 24 is_stmt 1 view .LVU559
 1865              	.LBB107:
 109:Middlewares/Third_Party/RealThread_RTOS/include/rtservice.h ****     const rt_list_t *p = l;
 1866              		.loc 2 109 5 view .LVU560
 110:Middlewares/Third_Party/RealThread_RTOS/include/rtservice.h ****     while (p->next != l)
 1867              		.loc 2 110 5 view .LVU561
 111:Middlewares/Third_Party/RealThread_RTOS/include/rtservice.h ****     {
 1868              		.loc 2 111 5 view .LVU562
 110:Middlewares/Third_Party/RealThread_RTOS/include/rtservice.h ****     while (p->next != l)
 1869              		.loc 2 110 22 is_stmt 0 view .LVU563
 1870 00b2 2246     		mov	r2, r4
 109:Middlewares/Third_Party/RealThread_RTOS/include/rtservice.h ****     const rt_list_t *p = l;
 1871              		.loc 2 109 18 view .LVU564
 1872 00b4 0021     		movs	r1, #0
 111:Middlewares/Third_Party/RealThread_RTOS/include/rtservice.h ****     {
 1873              		.loc 2 111 11 view .LVU565
 1874 00b6 00E0     		b	.L120
 1875              	.LVL200:
 1876              	.L121:
 113:Middlewares/Third_Party/RealThread_RTOS/include/rtservice.h ****         len ++;
 1877              		.loc 2 113 9 is_stmt 1 view .LVU566
 114:Middlewares/Third_Party/RealThread_RTOS/include/rtservice.h ****     }
 1878              		.loc 2 114 9 view .LVU567
 114:Middlewares/Third_Party/RealThread_RTOS/include/rtservice.h ****     }
 1879              		.loc 2 114 13 is_stmt 0 view .LVU568
 1880 00b8 0131     		adds	r1, r1, #1
 1881              	.LVL201:
 1882              	.L120:
 111:Middlewares/Third_Party/RealThread_RTOS/include/rtservice.h ****     {
 1883              		.loc 2 111 11 is_stmt 1 view .LVU569
 111:Middlewares/Third_Party/RealThread_RTOS/include/rtservice.h ****     {
 1884              		.loc 2 111 13 is_stmt 0 view .LVU570
 1885 00ba 1268     		ldr	r2, [r2]
 1886              	.LVL202:
 111:Middlewares/Third_Party/RealThread_RTOS/include/rtservice.h ****     {
 1887              		.loc 2 111 11 view .LVU571
 1888 00bc 9442     		cmp	r4, r2
 1889 00be FBD1     		bne	.L121
 1890              		.loc 2 117 5 is_stmt 1 view .LVU572
 1891              	.LVL203:
 1892              		.loc 2 117 5 is_stmt 0 view .LVU573
 1893              	.LBE107:
 1894              	.LBE106:
 509:Middlewares/Third_Party/RealThread_RTOS/components/finsh/cmd.c ****                             maxlen, RT_NAME_MAX,
 1895              		.loc 1 509 21 view .LVU574
 1896 00c0 0291     		str	r1, [sp, #8]
 1897 00c2 0195     		str	r5, [sp, #4]
 1898 00c4 0090     		str	r0, [sp]
 1899 00c6 0822     		movs	r2, #8
 1900 00c8 1146     		mov	r1, r2
 1901 00ca 0E48     		ldr	r0, .L129+24
ARM GAS  C:\Users\Administrator\AppData\Local\Temp\ccWW9SnK.s 			page 54


 1902 00cc FFF7FEFF 		bl	rt_kprintf
 1903              	.LVL204:
 509:Middlewares/Third_Party/RealThread_RTOS/components/finsh/cmd.c ****                             maxlen, RT_NAME_MAX,
 1904              		.loc 1 509 21 view .LVU575
 1905 00d0 B7E7     		b	.L116
 1906              	.LVL205:
 1907              	.L126:
 509:Middlewares/Third_Party/RealThread_RTOS/components/finsh/cmd.c ****                             maxlen, RT_NAME_MAX,
 1908              		.loc 1 509 21 view .LVU576
 1909              	.LBE108:
 1910              	.LBE100:
 514:Middlewares/Third_Party/RealThread_RTOS/components/finsh/cmd.c ****                             rt_list_len(&m->parent.suspend_thread));
 515:Middlewares/Third_Party/RealThread_RTOS/components/finsh/cmd.c ****                 }
 516:Middlewares/Third_Party/RealThread_RTOS/components/finsh/cmd.c **** 
 517:Middlewares/Third_Party/RealThread_RTOS/components/finsh/cmd.c ****             }
 518:Middlewares/Third_Party/RealThread_RTOS/components/finsh/cmd.c ****         }
 519:Middlewares/Third_Party/RealThread_RTOS/components/finsh/cmd.c ****     }
 520:Middlewares/Third_Party/RealThread_RTOS/components/finsh/cmd.c ****     while (next != (rt_list_t*)RT_NULL);
 1911              		.loc 1 520 11 is_stmt 1 view .LVU577
 1912              		.loc 1 520 5 is_stmt 0 view .LVU578
 1913 00d2 37B1     		cbz	r7, .L128
 1914              	.LVL206:
 1915              	.L123:
 475:Middlewares/Third_Party/RealThread_RTOS/components/finsh/cmd.c ****     {
 1916              		.loc 1 475 5 is_stmt 1 view .LVU579
 477:Middlewares/Third_Party/RealThread_RTOS/components/finsh/cmd.c ****         {
 1917              		.loc 1 477 9 view .LVU580
 477:Middlewares/Third_Party/RealThread_RTOS/components/finsh/cmd.c ****         {
 1918              		.loc 1 477 16 is_stmt 0 view .LVU581
 1919 00d4 0DA9     		add	r1, sp, #52
 1920 00d6 3846     		mov	r0, r7
 1921 00d8 FFF7FEFF 		bl	list_get_next
 1922              	.LVL207:
 1923 00dc 0746     		mov	r7, r0
 1924              	.LVL208:
 1925              	.LBB109:
 479:Middlewares/Third_Party/RealThread_RTOS/components/finsh/cmd.c ****             for (i = 0; i < find_arg.nr_out; i++)
 1926              		.loc 1 479 13 is_stmt 1 view .LVU582
 480:Middlewares/Third_Party/RealThread_RTOS/components/finsh/cmd.c ****             {
 1927              		.loc 1 480 13 view .LVU583
 480:Middlewares/Third_Party/RealThread_RTOS/components/finsh/cmd.c ****             {
 1928              		.loc 1 480 20 is_stmt 0 view .LVU584
 1929 00de 4646     		mov	r6, r8
 480:Middlewares/Third_Party/RealThread_RTOS/components/finsh/cmd.c ****             {
 1930              		.loc 1 480 13 view .LVU585
 1931 00e0 B0E7     		b	.L114
 1932              	.LVL209:
 1933              	.L128:
 480:Middlewares/Third_Party/RealThread_RTOS/components/finsh/cmd.c ****             {
 1934              		.loc 1 480 13 view .LVU586
 1935              	.LBE109:
 521:Middlewares/Third_Party/RealThread_RTOS/components/finsh/cmd.c **** 
 522:Middlewares/Third_Party/RealThread_RTOS/components/finsh/cmd.c ****     return 0;
 1936              		.loc 1 522 5 is_stmt 1 view .LVU587
 523:Middlewares/Third_Party/RealThread_RTOS/components/finsh/cmd.c **** }
 1937              		.loc 1 523 1 is_stmt 0 view .LVU588
 1938 00e2 0020     		movs	r0, #0
ARM GAS  C:\Users\Administrator\AppData\Local\Temp\ccWW9SnK.s 			page 55


 1939 00e4 12B0     		add	sp, sp, #72
 1940              	.LCFI19:
 1941              		.cfi_def_cfa_offset 24
 1942              		@ sp needed
 1943 00e6 BDE8F081 		pop	{r4, r5, r6, r7, r8, pc}
 1944              	.LVL210:
 1945              	.L130:
 1946              		.loc 1 523 1 view .LVU589
 1947 00ea 00BF     		.align	2
 1948              	.L129:
 1949 00ec 00000000 		.word	.LC29
 1950 00f0 08000000 		.word	.LC30
 1951 00f4 4C000000 		.word	.LC5
 1952 00f8 2C000000 		.word	.LC31
 1953 00fc 48000000 		.word	.LC32
 1954 0100 50000000 		.word	.LC18
 1955 0104 60000000 		.word	.LC33
 1956              		.cfi_endproc
 1957              	.LFE28:
 1959              		.section	.rodata.list_msgqueue.str1.4,"aMS",%progbits,1
 1960              		.align	2
 1961              	.LC34:
 1962 0000 6D736771 		.ascii	"msgqueue\000"
 1962      75657565 
 1962      00
 1963 0009 000000   		.align	2
 1964              	.LC35:
 1965 000c 252D2A2E 		.ascii	"%-*.s entry suspend thread\012\000"
 1965      7320656E 
 1965      74727920 
 1965      73757370 
 1965      656E6420 
 1966              		.align	2
 1967              	.LC36:
 1968 0028 202D2D2D 		.ascii	" ----  --------------\012\000"
 1968      2D20202D 
 1968      2D2D2D2D 
 1968      2D2D2D2D 
 1968      2D2D2D2D 
 1969 003f 00       		.align	2
 1970              	.LC37:
 1971 0040 252D2A2E 		.ascii	"%-*.*s %04d  %d:\000"
 1971      2A732025 
 1971      30346420 
 1971      2025643A 
 1971      00
 1972 0051 000000   		.align	2
 1973              	.LC38:
 1974 0054 252D2A2E 		.ascii	"%-*.*s %04d  %d\012\000"
 1974      2A732025 
 1974      30346420 
 1974      2025640A 
 1974      00
 1975              		.section	.text.list_msgqueue,"ax",%progbits
 1976              		.align	1
 1977              		.global	list_msgqueue
 1978              		.syntax unified
ARM GAS  C:\Users\Administrator\AppData\Local\Temp\ccWW9SnK.s 			page 56


 1979              		.thumb
 1980              		.thumb_func
 1981              		.fpu softvfp
 1983              	list_msgqueue:
 1984              	.LFB29:
 524:Middlewares/Third_Party/RealThread_RTOS/components/finsh/cmd.c **** FINSH_FUNCTION_EXPORT(list_mailbox, list mail box in system);
 525:Middlewares/Third_Party/RealThread_RTOS/components/finsh/cmd.c **** MSH_CMD_EXPORT(list_mailbox, list mail box in system);
 526:Middlewares/Third_Party/RealThread_RTOS/components/finsh/cmd.c **** #endif
 527:Middlewares/Third_Party/RealThread_RTOS/components/finsh/cmd.c **** 
 528:Middlewares/Third_Party/RealThread_RTOS/components/finsh/cmd.c **** #ifdef RT_USING_MESSAGEQUEUE
 529:Middlewares/Third_Party/RealThread_RTOS/components/finsh/cmd.c **** long list_msgqueue(void)
 530:Middlewares/Third_Party/RealThread_RTOS/components/finsh/cmd.c **** {
 1985              		.loc 1 530 1 is_stmt 1 view -0
 1986              		.cfi_startproc
 1987              		@ args = 0, pretend = 0, frame = 56
 1988              		@ frame_needed = 0, uses_anonymous_args = 0
 1989 0000 2DE9F041 		push	{r4, r5, r6, r7, r8, lr}
 1990              	.LCFI20:
 1991              		.cfi_def_cfa_offset 24
 1992              		.cfi_offset 4, -24
 1993              		.cfi_offset 5, -20
 1994              		.cfi_offset 6, -16
 1995              		.cfi_offset 7, -12
 1996              		.cfi_offset 8, -8
 1997              		.cfi_offset 14, -4
 1998 0004 90B0     		sub	sp, sp, #64
 1999              	.LCFI21:
 2000              		.cfi_def_cfa_offset 88
 531:Middlewares/Third_Party/RealThread_RTOS/components/finsh/cmd.c ****     rt_ubase_t level;
 2001              		.loc 1 531 5 view .LVU591
 532:Middlewares/Third_Party/RealThread_RTOS/components/finsh/cmd.c ****     list_get_next_t find_arg;
 2002              		.loc 1 532 5 view .LVU592
 533:Middlewares/Third_Party/RealThread_RTOS/components/finsh/cmd.c ****     rt_list_t *obj_list[LIST_FIND_OBJ_NR];
 2003              		.loc 1 533 5 view .LVU593
 534:Middlewares/Third_Party/RealThread_RTOS/components/finsh/cmd.c ****     rt_list_t *next = (rt_list_t*)RT_NULL;
 2004              		.loc 1 534 5 view .LVU594
 2005              	.LVL211:
 535:Middlewares/Third_Party/RealThread_RTOS/components/finsh/cmd.c **** 
 536:Middlewares/Third_Party/RealThread_RTOS/components/finsh/cmd.c ****     int maxlen;
 2006              		.loc 1 536 5 view .LVU595
 537:Middlewares/Third_Party/RealThread_RTOS/components/finsh/cmd.c ****     const char *item_title = "msgqueue";
 2007              		.loc 1 537 5 view .LVU596
 538:Middlewares/Third_Party/RealThread_RTOS/components/finsh/cmd.c **** 
 539:Middlewares/Third_Party/RealThread_RTOS/components/finsh/cmd.c ****     list_find_init(&find_arg, RT_Object_Class_MessageQueue, obj_list, sizeof(obj_list)/sizeof(obj_l
 2008              		.loc 1 539 5 view .LVU597
 2009 0006 0823     		movs	r3, #8
 2010 0008 03AA     		add	r2, sp, #12
 2011 000a 0621     		movs	r1, #6
 2012 000c 0BA8     		add	r0, sp, #44
 2013 000e FFF7FEFF 		bl	list_find_init
 2014              	.LVL212:
 540:Middlewares/Third_Party/RealThread_RTOS/components/finsh/cmd.c **** 
 541:Middlewares/Third_Party/RealThread_RTOS/components/finsh/cmd.c ****     maxlen = RT_NAME_MAX;
 2015              		.loc 1 541 5 view .LVU598
 542:Middlewares/Third_Party/RealThread_RTOS/components/finsh/cmd.c **** 
 543:Middlewares/Third_Party/RealThread_RTOS/components/finsh/cmd.c ****     rt_kprintf("%-*.s entry suspend thread\n", maxlen, item_title); object_split(maxlen);
 2016              		.loc 1 543 5 view .LVU599
ARM GAS  C:\Users\Administrator\AppData\Local\Temp\ccWW9SnK.s 			page 57


 2017 0012 344A     		ldr	r2, .L149
 2018 0014 0821     		movs	r1, #8
 2019 0016 3448     		ldr	r0, .L149+4
 2020 0018 FFF7FEFF 		bl	rt_kprintf
 2021              	.LVL213:
 2022              		.loc 1 543 69 view .LVU600
 2023              	.LBB110:
 2024              	.LBI110:
  61:Middlewares/Third_Party/RealThread_RTOS/components/finsh/cmd.c **** {
 2025              		.loc 1 61 16 view .LVU601
 2026              	.LBB111:
  63:Middlewares/Third_Party/RealThread_RTOS/components/finsh/cmd.c **** }
 2027              		.loc 1 63 5 view .LVU602
  63:Middlewares/Third_Party/RealThread_RTOS/components/finsh/cmd.c **** }
 2028              		.loc 1 63 11 is_stmt 0 view .LVU603
 2029 001c 4FF00808 		mov	r8, #8
 2030              	.LVL214:
 2031              	.L132:
  63:Middlewares/Third_Party/RealThread_RTOS/components/finsh/cmd.c **** }
 2032              		.loc 1 63 11 is_stmt 1 view .LVU604
  63:Middlewares/Third_Party/RealThread_RTOS/components/finsh/cmd.c **** }
 2033              		.loc 1 63 15 is_stmt 0 view .LVU605
 2034 0020 08F1FF34 		add	r4, r8, #-1
 2035              	.LVL215:
  63:Middlewares/Third_Party/RealThread_RTOS/components/finsh/cmd.c **** }
 2036              		.loc 1 63 11 view .LVU606
 2037 0024 B8F1000F 		cmp	r8, #0
 2038 0028 04D0     		beq	.L145
  63:Middlewares/Third_Party/RealThread_RTOS/components/finsh/cmd.c **** }
 2039              		.loc 1 63 19 is_stmt 1 view .LVU607
 2040 002a 3048     		ldr	r0, .L149+8
 2041 002c FFF7FEFF 		bl	rt_kprintf
 2042              	.LVL216:
  63:Middlewares/Third_Party/RealThread_RTOS/components/finsh/cmd.c **** }
 2043              		.loc 1 63 15 is_stmt 0 view .LVU608
 2044 0030 A046     		mov	r8, r4
 2045 0032 F5E7     		b	.L132
 2046              	.L145:
 2047              	.LVL217:
  63:Middlewares/Third_Party/RealThread_RTOS/components/finsh/cmd.c **** }
 2048              		.loc 1 63 15 view .LVU609
 2049              	.LBE111:
 2050              	.LBE110:
 544:Middlewares/Third_Party/RealThread_RTOS/components/finsh/cmd.c ****     rt_kprintf(     " ----  --------------\n");
 2051              		.loc 1 544 5 is_stmt 1 view .LVU610
 2052 0034 2E48     		ldr	r0, .L149+12
 2053 0036 FFF7FEFF 		bl	rt_kprintf
 2054              	.LVL218:
 534:Middlewares/Third_Party/RealThread_RTOS/components/finsh/cmd.c **** 
 2055              		.loc 1 534 16 is_stmt 0 view .LVU611
 2056 003a 0027     		movs	r7, #0
 2057 003c 46E0     		b	.L143
 2058              	.LVL219:
 2059              	.L147:
 2060              	.LBB112:
 2061              	.LBB113:
 545:Middlewares/Third_Party/RealThread_RTOS/components/finsh/cmd.c ****     do
ARM GAS  C:\Users\Administrator\AppData\Local\Temp\ccWW9SnK.s 			page 58


 546:Middlewares/Third_Party/RealThread_RTOS/components/finsh/cmd.c ****     {
 547:Middlewares/Third_Party/RealThread_RTOS/components/finsh/cmd.c ****         next = list_get_next(next, &find_arg);
 548:Middlewares/Third_Party/RealThread_RTOS/components/finsh/cmd.c ****         {
 549:Middlewares/Third_Party/RealThread_RTOS/components/finsh/cmd.c ****             int i;
 550:Middlewares/Third_Party/RealThread_RTOS/components/finsh/cmd.c ****             for (i = 0; i < find_arg.nr_out; i++)
 551:Middlewares/Third_Party/RealThread_RTOS/components/finsh/cmd.c ****             {
 552:Middlewares/Third_Party/RealThread_RTOS/components/finsh/cmd.c ****                 struct rt_object *obj;
 553:Middlewares/Third_Party/RealThread_RTOS/components/finsh/cmd.c ****                 struct rt_messagequeue *m;
 554:Middlewares/Third_Party/RealThread_RTOS/components/finsh/cmd.c **** 
 555:Middlewares/Third_Party/RealThread_RTOS/components/finsh/cmd.c ****                 obj = rt_list_entry(obj_list[i], struct rt_object, list);
 556:Middlewares/Third_Party/RealThread_RTOS/components/finsh/cmd.c ****                 level = rt_hw_interrupt_disable();
 557:Middlewares/Third_Party/RealThread_RTOS/components/finsh/cmd.c ****                 if ((obj->type & ~RT_Object_Class_Static) != find_arg.type)
 558:Middlewares/Third_Party/RealThread_RTOS/components/finsh/cmd.c ****                 {
 559:Middlewares/Third_Party/RealThread_RTOS/components/finsh/cmd.c ****                     rt_hw_interrupt_enable(level);
 2062              		.loc 1 559 21 is_stmt 1 view .LVU612
 2063 003e FFF7FEFF 		bl	rt_hw_interrupt_enable
 2064              	.LVL220:
 560:Middlewares/Third_Party/RealThread_RTOS/components/finsh/cmd.c ****                     continue;
 2065              		.loc 1 560 21 view .LVU613
 2066              	.L136:
 2067              	.LBE113:
 550:Middlewares/Third_Party/RealThread_RTOS/components/finsh/cmd.c ****             {
 2068              		.loc 1 550 46 discriminator 2 view .LVU614
 550:Middlewares/Third_Party/RealThread_RTOS/components/finsh/cmd.c ****             {
 2069              		.loc 1 550 47 is_stmt 0 discriminator 2 view .LVU615
 2070 0042 0135     		adds	r5, r5, #1
 2071              	.LVL221:
 2072              	.L134:
 550:Middlewares/Third_Party/RealThread_RTOS/components/finsh/cmd.c ****             {
 2073              		.loc 1 550 25 is_stmt 1 discriminator 1 view .LVU616
 550:Middlewares/Third_Party/RealThread_RTOS/components/finsh/cmd.c ****             {
 2074              		.loc 1 550 37 is_stmt 0 discriminator 1 view .LVU617
 2075 0044 0F9B     		ldr	r3, [sp, #60]
 550:Middlewares/Third_Party/RealThread_RTOS/components/finsh/cmd.c ****             {
 2076              		.loc 1 550 13 discriminator 1 view .LVU618
 2077 0046 AB42     		cmp	r3, r5
 2078 0048 3FDD     		ble	.L146
 2079              	.LBB120:
 552:Middlewares/Third_Party/RealThread_RTOS/components/finsh/cmd.c ****                 struct rt_messagequeue *m;
 2080              		.loc 1 552 17 is_stmt 1 view .LVU619
 553:Middlewares/Third_Party/RealThread_RTOS/components/finsh/cmd.c **** 
 2081              		.loc 1 553 17 view .LVU620
 555:Middlewares/Third_Party/RealThread_RTOS/components/finsh/cmd.c ****                 level = rt_hw_interrupt_disable();
 2082              		.loc 1 555 17 view .LVU621
 555:Middlewares/Third_Party/RealThread_RTOS/components/finsh/cmd.c ****                 level = rt_hw_interrupt_disable();
 2083              		.loc 1 555 23 is_stmt 0 view .LVU622
 2084 004a 10AB     		add	r3, sp, #64
 2085 004c 03EB8503 		add	r3, r3, r5, lsl #2
 2086 0050 53F8346C 		ldr	r6, [r3, #-52]
 2087              	.LVL222:
 556:Middlewares/Third_Party/RealThread_RTOS/components/finsh/cmd.c ****                 if ((obj->type & ~RT_Object_Class_Static) != find_arg.type)
 2088              		.loc 1 556 17 is_stmt 1 view .LVU623
 556:Middlewares/Third_Party/RealThread_RTOS/components/finsh/cmd.c ****                 if ((obj->type & ~RT_Object_Class_Static) != find_arg.type)
 2089              		.loc 1 556 25 is_stmt 0 view .LVU624
 2090 0054 FFF7FEFF 		bl	rt_hw_interrupt_disable
 2091              	.LVL223:
 557:Middlewares/Third_Party/RealThread_RTOS/components/finsh/cmd.c ****                 {
ARM GAS  C:\Users\Administrator\AppData\Local\Temp\ccWW9SnK.s 			page 59


 2092              		.loc 1 557 17 is_stmt 1 view .LVU625
 557:Middlewares/Third_Party/RealThread_RTOS/components/finsh/cmd.c ****                 {
 2093              		.loc 1 557 25 is_stmt 0 view .LVU626
 2094 0058 16F8043C 		ldrb	r3, [r6, #-4]	@ zero_extendqisi2
 557:Middlewares/Third_Party/RealThread_RTOS/components/finsh/cmd.c ****                 {
