ARM GAS  C:\Users\Administrator\AppData\Local\Temp\cc1MLFNh.s 			page 1


   1              		.cpu cortex-m4
   2              		.eabi_attribute 20, 1
   3              		.eabi_attribute 21, 1
   4              		.eabi_attribute 23, 3
   5              		.eabi_attribute 24, 1
   6              		.eabi_attribute 25, 1
   7              		.eabi_attribute 26, 1
   8              		.eabi_attribute 30, 1
   9              		.eabi_attribute 34, 1
  10              		.eabi_attribute 18, 4
  11              		.file	"components.c"
  12              		.text
  13              	.Ltext0:
  14              		.cfi_sections	.debug_frame
  15              		.section	.text.rti_start,"ax",%progbits
  16              		.align	1
  17              		.arch armv7e-m
  18              		.syntax unified
  19              		.thumb
  20              		.thumb_func
  21              		.fpu softvfp
  23              	rti_start:
  24              	.LFB15:
  25              		.file 1 "Middlewares/Third_Party/RealThread_RTOS/src/components.c"
   1:Middlewares/Third_Party/RealThread_RTOS/src/components.c **** /*
   2:Middlewares/Third_Party/RealThread_RTOS/src/components.c ****  * Copyright (c) 2006-2021, RT-Thread Development Team
   3:Middlewares/Third_Party/RealThread_RTOS/src/components.c ****  *
   4:Middlewares/Third_Party/RealThread_RTOS/src/components.c ****  * SPDX-License-Identifier: Apache-2.0
   5:Middlewares/Third_Party/RealThread_RTOS/src/components.c ****  *
   6:Middlewares/Third_Party/RealThread_RTOS/src/components.c ****  * Change Logs:
   7:Middlewares/Third_Party/RealThread_RTOS/src/components.c ****  * Date           Author       Notes
   8:Middlewares/Third_Party/RealThread_RTOS/src/components.c ****  * 2012-09-20     Bernard      Change the name to components.c
   9:Middlewares/Third_Party/RealThread_RTOS/src/components.c ****  *                             And all components related header files.
  10:Middlewares/Third_Party/RealThread_RTOS/src/components.c ****  * 2012-12-23     Bernard      fix the pthread initialization issue.
  11:Middlewares/Third_Party/RealThread_RTOS/src/components.c ****  * 2013-06-23     Bernard      Add the init_call for components initialization.
  12:Middlewares/Third_Party/RealThread_RTOS/src/components.c ****  * 2013-07-05     Bernard      Remove initialization feature for MS VC++ compiler
  13:Middlewares/Third_Party/RealThread_RTOS/src/components.c ****  * 2015-02-06     Bernard      Remove the MS VC++ support and move to the kernel
  14:Middlewares/Third_Party/RealThread_RTOS/src/components.c ****  * 2015-05-04     Bernard      Rename it to components.c because compiling issue
  15:Middlewares/Third_Party/RealThread_RTOS/src/components.c ****  *                             in some IDEs.
  16:Middlewares/Third_Party/RealThread_RTOS/src/components.c ****  * 2015-07-29     Arda.Fu      Add support to use RT_USING_USER_MAIN with IAR
  17:Middlewares/Third_Party/RealThread_RTOS/src/components.c ****  * 2018-11-22     Jesven       Add secondary cpu boot up
  18:Middlewares/Third_Party/RealThread_RTOS/src/components.c ****  */
  19:Middlewares/Third_Party/RealThread_RTOS/src/components.c **** 
  20:Middlewares/Third_Party/RealThread_RTOS/src/components.c **** #include <rthw.h>
  21:Middlewares/Third_Party/RealThread_RTOS/src/components.c **** #include <rtthread.h>
  22:Middlewares/Third_Party/RealThread_RTOS/src/components.c **** 
  23:Middlewares/Third_Party/RealThread_RTOS/src/components.c **** #ifdef RT_USING_USER_MAIN
  24:Middlewares/Third_Party/RealThread_RTOS/src/components.c **** #ifndef RT_MAIN_THREAD_STACK_SIZE
  25:Middlewares/Third_Party/RealThread_RTOS/src/components.c **** #define RT_MAIN_THREAD_STACK_SIZE     2048
  26:Middlewares/Third_Party/RealThread_RTOS/src/components.c **** #endif
  27:Middlewares/Third_Party/RealThread_RTOS/src/components.c **** #ifndef RT_MAIN_THREAD_PRIORITY
  28:Middlewares/Third_Party/RealThread_RTOS/src/components.c **** #define RT_MAIN_THREAD_PRIORITY       (RT_THREAD_PRIORITY_MAX / 3)
  29:Middlewares/Third_Party/RealThread_RTOS/src/components.c **** #endif
  30:Middlewares/Third_Party/RealThread_RTOS/src/components.c **** #endif
  31:Middlewares/Third_Party/RealThread_RTOS/src/components.c **** 
  32:Middlewares/Third_Party/RealThread_RTOS/src/components.c **** #ifdef RT_USING_COMPONENTS_INIT
  33:Middlewares/Third_Party/RealThread_RTOS/src/components.c **** /*
ARM GAS  C:\Users\Administrator\AppData\Local\Temp\cc1MLFNh.s 			page 2


  34:Middlewares/Third_Party/RealThread_RTOS/src/components.c ****  * Components Initialization will initialize some driver and components as following
  35:Middlewares/Third_Party/RealThread_RTOS/src/components.c ****  * order:
  36:Middlewares/Third_Party/RealThread_RTOS/src/components.c ****  * rti_start         --> 0
  37:Middlewares/Third_Party/RealThread_RTOS/src/components.c ****  * BOARD_EXPORT      --> 1
  38:Middlewares/Third_Party/RealThread_RTOS/src/components.c ****  * rti_board_end     --> 1.end
  39:Middlewares/Third_Party/RealThread_RTOS/src/components.c ****  *
  40:Middlewares/Third_Party/RealThread_RTOS/src/components.c ****  * DEVICE_EXPORT     --> 2
  41:Middlewares/Third_Party/RealThread_RTOS/src/components.c ****  * COMPONENT_EXPORT  --> 3
  42:Middlewares/Third_Party/RealThread_RTOS/src/components.c ****  * FS_EXPORT         --> 4
  43:Middlewares/Third_Party/RealThread_RTOS/src/components.c ****  * ENV_EXPORT        --> 5
  44:Middlewares/Third_Party/RealThread_RTOS/src/components.c ****  * APP_EXPORT        --> 6
  45:Middlewares/Third_Party/RealThread_RTOS/src/components.c ****  *
  46:Middlewares/Third_Party/RealThread_RTOS/src/components.c ****  * rti_end           --> 6.end
  47:Middlewares/Third_Party/RealThread_RTOS/src/components.c ****  *
  48:Middlewares/Third_Party/RealThread_RTOS/src/components.c ****  * These automatically initialization, the driver or component initial function must
  49:Middlewares/Third_Party/RealThread_RTOS/src/components.c ****  * be defined with:
  50:Middlewares/Third_Party/RealThread_RTOS/src/components.c ****  * INIT_BOARD_EXPORT(fn);
  51:Middlewares/Third_Party/RealThread_RTOS/src/components.c ****  * INIT_DEVICE_EXPORT(fn);
  52:Middlewares/Third_Party/RealThread_RTOS/src/components.c ****  * ...
  53:Middlewares/Third_Party/RealThread_RTOS/src/components.c ****  * INIT_APP_EXPORT(fn);
  54:Middlewares/Third_Party/RealThread_RTOS/src/components.c ****  * etc.
  55:Middlewares/Third_Party/RealThread_RTOS/src/components.c ****  */
  56:Middlewares/Third_Party/RealThread_RTOS/src/components.c **** static int rti_start(void)
  57:Middlewares/Third_Party/RealThread_RTOS/src/components.c **** {
  26              		.loc 1 57 1 view -0
  27              		.cfi_startproc
  28              		@ args = 0, pretend = 0, frame = 0
  29              		@ frame_needed = 0, uses_anonymous_args = 0
  30              		@ link register save eliminated.
  58:Middlewares/Third_Party/RealThread_RTOS/src/components.c ****     return 0;
  31              		.loc 1 58 5 view .LVU1
  59:Middlewares/Third_Party/RealThread_RTOS/src/components.c **** }
  32              		.loc 1 59 1 is_stmt 0 view .LVU2
  33 0000 0020     		movs	r0, #0
  34 0002 7047     		bx	lr
  35              		.cfi_endproc
  36              	.LFE15:
  38              		.section	.text.rti_board_start,"ax",%progbits
  39              		.align	1
  40              		.syntax unified
  41              		.thumb
  42              		.thumb_func
  43              		.fpu softvfp
  45              	rti_board_start:
  46              	.LFB16:
  60:Middlewares/Third_Party/RealThread_RTOS/src/components.c **** INIT_EXPORT(rti_start, "0");
  61:Middlewares/Third_Party/RealThread_RTOS/src/components.c **** 
  62:Middlewares/Third_Party/RealThread_RTOS/src/components.c **** static int rti_board_start(void)
  63:Middlewares/Third_Party/RealThread_RTOS/src/components.c **** {
  47              		.loc 1 63 1 is_stmt 1 view -0
  48              		.cfi_startproc
  49              		@ args = 0, pretend = 0, frame = 0
  50              		@ frame_needed = 0, uses_anonymous_args = 0
  51              		@ link register save eliminated.
  64:Middlewares/Third_Party/RealThread_RTOS/src/components.c ****     return 0;
  52              		.loc 1 64 5 view .LVU4
  65:Middlewares/Third_Party/RealThread_RTOS/src/components.c **** }
ARM GAS  C:\Users\Administrator\AppData\Local\Temp\cc1MLFNh.s 			page 3


  53              		.loc 1 65 1 is_stmt 0 view .LVU5
  54 0000 0020     		movs	r0, #0
  55 0002 7047     		bx	lr
  56              		.cfi_endproc
  57              	.LFE16:
  59              		.section	.text.rti_board_end,"ax",%progbits
  60              		.align	1
  61              		.syntax unified
  62              		.thumb
  63              		.thumb_func
  64              		.fpu softvfp
  66              	rti_board_end:
  67              	.LFB17:
  66:Middlewares/Third_Party/RealThread_RTOS/src/components.c **** INIT_EXPORT(rti_board_start, "0.end");
  67:Middlewares/Third_Party/RealThread_RTOS/src/components.c **** 
  68:Middlewares/Third_Party/RealThread_RTOS/src/components.c **** static int rti_board_end(void)
  69:Middlewares/Third_Party/RealThread_RTOS/src/components.c **** {
  68              		.loc 1 69 1 is_stmt 1 view -0
  69              		.cfi_startproc
  70              		@ args = 0, pretend = 0, frame = 0
  71              		@ frame_needed = 0, uses_anonymous_args = 0
  72              		@ link register save eliminated.
  70:Middlewares/Third_Party/RealThread_RTOS/src/components.c ****     return 0;
  73              		.loc 1 70 5 view .LVU7
  71:Middlewares/Third_Party/RealThread_RTOS/src/components.c **** }
  74              		.loc 1 71 1 is_stmt 0 view .LVU8
  75 0000 0020     		movs	r0, #0
  76 0002 7047     		bx	lr
  77              		.cfi_endproc
  78              	.LFE17:
  80              		.section	.text.rti_end,"ax",%progbits
  81              		.align	1
  82              		.syntax unified
  83              		.thumb
  84              		.thumb_func
  85              		.fpu softvfp
  87              	rti_end:
  88              	.LFB18:
  72:Middlewares/Third_Party/RealThread_RTOS/src/components.c **** INIT_EXPORT(rti_board_end, "1.end");
  73:Middlewares/Third_Party/RealThread_RTOS/src/components.c **** 
  74:Middlewares/Third_Party/RealThread_RTOS/src/components.c **** static int rti_end(void)
  75:Middlewares/Third_Party/RealThread_RTOS/src/components.c **** {
  89              		.loc 1 75 1 is_stmt 1 view -0
  90              		.cfi_startproc
  91              		@ args = 0, pretend = 0, frame = 0
  92              		@ frame_needed = 0, uses_anonymous_args = 0
  93              		@ link register save eliminated.
  76:Middlewares/Third_Party/RealThread_RTOS/src/components.c ****     return 0;
  94              		.loc 1 76 5 view .LVU10
  77:Middlewares/Third_Party/RealThread_RTOS/src/components.c **** }
  95              		.loc 1 77 1 is_stmt 0 view .LVU11
  96 0000 0020     		movs	r0, #0
  97 0002 7047     		bx	lr
  98              		.cfi_endproc
  99              	.LFE18:
 101              		.section	.rodata.rt_components_board_init.str1.4,"aMS",%progbits,1
 102              		.align	2
ARM GAS  C:\Users\Administrator\AppData\Local\Temp\cc1MLFNh.s 			page 4


 103              	.LC0:
 104 0000 696E6974 		.ascii	"initialize %s\000"
 104      69616C69 
 104      7A652025 
 104      7300
 105 000e 0000     		.align	2
 106              	.LC1:
 107 0010 3A256420 		.ascii	":%d done\012\000"
 107      646F6E65 
 107      0A00
 108              		.section	.text.rt_components_board_init,"ax",%progbits
 109              		.align	1
 110              		.global	rt_components_board_init
 111              		.syntax unified
 112              		.thumb
 113              		.thumb_func
 114              		.fpu softvfp
 116              	rt_components_board_init:
 117              	.LFB19:
  78:Middlewares/Third_Party/RealThread_RTOS/src/components.c **** INIT_EXPORT(rti_end, "6.end");
  79:Middlewares/Third_Party/RealThread_RTOS/src/components.c **** 
  80:Middlewares/Third_Party/RealThread_RTOS/src/components.c **** /**
  81:Middlewares/Third_Party/RealThread_RTOS/src/components.c ****  * RT-Thread Components Initialization for board
  82:Middlewares/Third_Party/RealThread_RTOS/src/components.c ****  */
  83:Middlewares/Third_Party/RealThread_RTOS/src/components.c **** void rt_components_board_init(void)
  84:Middlewares/Third_Party/RealThread_RTOS/src/components.c **** {
 118              		.loc 1 84 1 is_stmt 1 view -0
 119              		.cfi_startproc
 120              		@ args = 0, pretend = 0, frame = 0
 121              		@ frame_needed = 0, uses_anonymous_args = 0
 122 0000 10B5     		push	{r4, lr}
 123              	.LCFI0:
 124              		.cfi_def_cfa_offset 8
 125              		.cfi_offset 4, -8
 126              		.cfi_offset 14, -4
  85:Middlewares/Third_Party/RealThread_RTOS/src/components.c **** #if RT_DEBUG_INIT
  86:Middlewares/Third_Party/RealThread_RTOS/src/components.c ****     int result;
 127              		.loc 1 86 5 view .LVU13
  87:Middlewares/Third_Party/RealThread_RTOS/src/components.c ****     const struct rt_init_desc *desc;
 128              		.loc 1 87 5 view .LVU14
  88:Middlewares/Third_Party/RealThread_RTOS/src/components.c ****     for (desc = &__rt_init_desc_rti_board_start; desc < &__rt_init_desc_rti_board_end; desc ++)
 129              		.loc 1 88 5 view .LVU15
 130              	.LVL0:
 131              		.loc 1 88 15 is_stmt 0 view .LVU16
 132 0002 084C     		ldr	r4, .L9
 133              		.loc 1 88 5 view .LVU17
 134 0004 0AE0     		b	.L6
 135              	.LVL1:
 136              	.L7:
  89:Middlewares/Third_Party/RealThread_RTOS/src/components.c ****     {
  90:Middlewares/Third_Party/RealThread_RTOS/src/components.c ****         rt_kprintf("initialize %s", desc->fn_name);
 137              		.loc 1 90 9 is_stmt 1 discriminator 3 view .LVU18
 138 0006 2168     		ldr	r1, [r4]
 139 0008 0748     		ldr	r0, .L9+4
 140 000a FFF7FEFF 		bl	rt_kprintf
 141              	.LVL2:
  91:Middlewares/Third_Party/RealThread_RTOS/src/components.c ****         result = desc->fn();
ARM GAS  C:\Users\Administrator\AppData\Local\Temp\cc1MLFNh.s 			page 5


 142              		.loc 1 91 9 discriminator 3 view .LVU19
 143              		.loc 1 91 22 is_stmt 0 discriminator 3 view .LVU20
 144 000e 6368     		ldr	r3, [r4, #4]
 145              		.loc 1 91 18 discriminator 3 view .LVU21
 146 0010 9847     		blx	r3
 147              	.LVL3:
 148 0012 0146     		mov	r1, r0
 149              	.LVL4:
  92:Middlewares/Third_Party/RealThread_RTOS/src/components.c ****         rt_kprintf(":%d done\n", result);
 150              		.loc 1 92 9 is_stmt 1 discriminator 3 view .LVU22
 151 0014 0548     		ldr	r0, .L9+8
 152              	.LVL5:
 153              		.loc 1 92 9 is_stmt 0 discriminator 3 view .LVU23
 154 0016 FFF7FEFF 		bl	rt_kprintf
 155              	.LVL6:
  88:Middlewares/Third_Party/RealThread_RTOS/src/components.c ****     {
 156              		.loc 1 88 88 is_stmt 1 discriminator 3 view .LVU24
  88:Middlewares/Third_Party/RealThread_RTOS/src/components.c ****     {
 157              		.loc 1 88 93 is_stmt 0 discriminator 3 view .LVU25
 158 001a 0834     		adds	r4, r4, #8
 159              	.LVL7:
 160              	.L6:
  88:Middlewares/Third_Party/RealThread_RTOS/src/components.c ****     {
 161              		.loc 1 88 50 is_stmt 1 discriminator 1 view .LVU26
  88:Middlewares/Third_Party/RealThread_RTOS/src/components.c ****     {
 162              		.loc 1 88 5 is_stmt 0 discriminator 1 view .LVU27
 163 001c 044B     		ldr	r3, .L9+12
 164 001e 9C42     		cmp	r4, r3
 165 0020 F1D3     		bcc	.L7
  93:Middlewares/Third_Party/RealThread_RTOS/src/components.c ****     }
  94:Middlewares/Third_Party/RealThread_RTOS/src/components.c **** #else
  95:Middlewares/Third_Party/RealThread_RTOS/src/components.c ****     volatile const init_fn_t *fn_ptr;
  96:Middlewares/Third_Party/RealThread_RTOS/src/components.c **** 
  97:Middlewares/Third_Party/RealThread_RTOS/src/components.c ****     for (fn_ptr = &__rt_init_rti_board_start; fn_ptr < &__rt_init_rti_board_end; fn_ptr++)
  98:Middlewares/Third_Party/RealThread_RTOS/src/components.c ****     {
  99:Middlewares/Third_Party/RealThread_RTOS/src/components.c ****         (*fn_ptr)();
 100:Middlewares/Third_Party/RealThread_RTOS/src/components.c ****     }
 101:Middlewares/Third_Party/RealThread_RTOS/src/components.c **** #endif
 102:Middlewares/Third_Party/RealThread_RTOS/src/components.c **** }
 166              		.loc 1 102 1 view .LVU28
 167 0022 10BD     		pop	{r4, pc}
 168              	.LVL8:
 169              	.L10:
 170              		.loc 1 102 1 view .LVU29
 171              		.align	2
 172              	.L9:
 173 0024 00000000 		.word	.LANCHOR0
 174 0028 00000000 		.word	.LC0
 175 002c 10000000 		.word	.LC1
 176 0030 00000000 		.word	.LANCHOR1
 177              		.cfi_endproc
 178              	.LFE19:
 180              		.section	.rodata.rt_components_init.str1.4,"aMS",%progbits,1
 181              		.align	2
 182              	.LC2:
 183 0000 646F2063 		.ascii	"do components initialization.\012\000"
 183      6F6D706F 
ARM GAS  C:\Users\Administrator\AppData\Local\Temp\cc1MLFNh.s 			page 6


 183      6E656E74 
 183      7320696E 
 183      69746961 
 184              		.section	.text.rt_components_init,"ax",%progbits
 185              		.align	1
 186              		.global	rt_components_init
 187              		.syntax unified
 188              		.thumb
 189              		.thumb_func
 190              		.fpu softvfp
 192              	rt_components_init:
 193              	.LFB20:
 103:Middlewares/Third_Party/RealThread_RTOS/src/components.c **** 
 104:Middlewares/Third_Party/RealThread_RTOS/src/components.c **** /**
 105:Middlewares/Third_Party/RealThread_RTOS/src/components.c ****  * RT-Thread Components Initialization
 106:Middlewares/Third_Party/RealThread_RTOS/src/components.c ****  */
 107:Middlewares/Third_Party/RealThread_RTOS/src/components.c **** void rt_components_init(void)
 108:Middlewares/Third_Party/RealThread_RTOS/src/components.c **** {
 194              		.loc 1 108 1 is_stmt 1 view -0
 195              		.cfi_startproc
 196              		@ args = 0, pretend = 0, frame = 0
 197              		@ frame_needed = 0, uses_anonymous_args = 0
 198 0000 10B5     		push	{r4, lr}
 199              	.LCFI1:
 200              		.cfi_def_cfa_offset 8
 201              		.cfi_offset 4, -8
 202              		.cfi_offset 14, -4
 109:Middlewares/Third_Party/RealThread_RTOS/src/components.c **** #if RT_DEBUG_INIT
 110:Middlewares/Third_Party/RealThread_RTOS/src/components.c ****     int result;
 203              		.loc 1 110 5 view .LVU31
 111:Middlewares/Third_Party/RealThread_RTOS/src/components.c ****     const struct rt_init_desc *desc;
 204              		.loc 1 111 5 view .LVU32
 112:Middlewares/Third_Party/RealThread_RTOS/src/components.c **** 
 113:Middlewares/Third_Party/RealThread_RTOS/src/components.c ****     rt_kprintf("do components initialization.\n");
 205              		.loc 1 113 5 view .LVU33
 206 0002 0A48     		ldr	r0, .L15
 207 0004 FFF7FEFF 		bl	rt_kprintf
 208              	.LVL9:
 114:Middlewares/Third_Party/RealThread_RTOS/src/components.c ****     for (desc = &__rt_init_desc_rti_board_end; desc < &__rt_init_desc_rti_end; desc ++)
 209              		.loc 1 114 5 view .LVU34
 210              		.loc 1 114 15 is_stmt 0 view .LVU35
 211 0008 094C     		ldr	r4, .L15+4
 212              		.loc 1 114 5 view .LVU36
 213 000a 0AE0     		b	.L12
 214              	.LVL10:
 215              	.L13:
 115:Middlewares/Third_Party/RealThread_RTOS/src/components.c ****     {
 116:Middlewares/Third_Party/RealThread_RTOS/src/components.c ****         rt_kprintf("initialize %s", desc->fn_name);
 216              		.loc 1 116 9 is_stmt 1 discriminator 3 view .LVU37
 217 000c 2168     		ldr	r1, [r4]
 218 000e 0948     		ldr	r0, .L15+8
 219 0010 FFF7FEFF 		bl	rt_kprintf
 220              	.LVL11:
 117:Middlewares/Third_Party/RealThread_RTOS/src/components.c ****         result = desc->fn();
 221              		.loc 1 117 9 discriminator 3 view .LVU38
 222              		.loc 1 117 22 is_stmt 0 discriminator 3 view .LVU39
 223 0014 6368     		ldr	r3, [r4, #4]
ARM GAS  C:\Users\Administrator\AppData\Local\Temp\cc1MLFNh.s 			page 7


 224              		.loc 1 117 18 discriminator 3 view .LVU40
 225 0016 9847     		blx	r3
 226              	.LVL12:
 227 0018 0146     		mov	r1, r0
 228              	.LVL13:
 118:Middlewares/Third_Party/RealThread_RTOS/src/components.c ****         rt_kprintf(":%d done\n", result);
 229              		.loc 1 118 9 is_stmt 1 discriminator 3 view .LVU41
 230 001a 0748     		ldr	r0, .L15+12
 231              	.LVL14:
 232              		.loc 1 118 9 is_stmt 0 discriminator 3 view .LVU42
 233 001c FFF7FEFF 		bl	rt_kprintf
 234              	.LVL15:
 114:Middlewares/Third_Party/RealThread_RTOS/src/components.c ****     {
 235              		.loc 1 114 80 is_stmt 1 discriminator 3 view .LVU43
 114:Middlewares/Third_Party/RealThread_RTOS/src/components.c ****     {
 236              		.loc 1 114 85 is_stmt 0 discriminator 3 view .LVU44
 237 0020 0834     		adds	r4, r4, #8
 238              	.LVL16:
 239              	.L12:
 114:Middlewares/Third_Party/RealThread_RTOS/src/components.c ****     {
 240              		.loc 1 114 48 is_stmt 1 discriminator 1 view .LVU45
 114:Middlewares/Third_Party/RealThread_RTOS/src/components.c ****     {
 241              		.loc 1 114 5 is_stmt 0 discriminator 1 view .LVU46
 242 0022 064B     		ldr	r3, .L15+16
 243 0024 9C42     		cmp	r4, r3
 244 0026 F1D3     		bcc	.L13
 119:Middlewares/Third_Party/RealThread_RTOS/src/components.c ****     }
 120:Middlewares/Third_Party/RealThread_RTOS/src/components.c **** #else
 121:Middlewares/Third_Party/RealThread_RTOS/src/components.c ****     volatile const init_fn_t *fn_ptr;
 122:Middlewares/Third_Party/RealThread_RTOS/src/components.c **** 
 123:Middlewares/Third_Party/RealThread_RTOS/src/components.c ****     for (fn_ptr = &__rt_init_rti_board_end; fn_ptr < &__rt_init_rti_end; fn_ptr ++)
 124:Middlewares/Third_Party/RealThread_RTOS/src/components.c ****     {
 125:Middlewares/Third_Party/RealThread_RTOS/src/components.c ****         (*fn_ptr)();
 126:Middlewares/Third_Party/RealThread_RTOS/src/components.c ****     }
 127:Middlewares/Third_Party/RealThread_RTOS/src/components.c **** #endif
 128:Middlewares/Third_Party/RealThread_RTOS/src/components.c **** }
 245              		.loc 1 128 1 view .LVU47
 246 0028 10BD     		pop	{r4, pc}
 247              	.LVL17:
 248              	.L16:
 249              		.loc 1 128 1 view .LVU48
 250 002a 00BF     		.align	2
 251              	.L15:
 252 002c 00000000 		.word	.LC2
 253 0030 00000000 		.word	.LANCHOR1
 254 0034 00000000 		.word	.LC0
 255 0038 10000000 		.word	.LC1
 256 003c 00000000 		.word	.LANCHOR2
 257              		.cfi_endproc
 258              	.LFE20:
 260              		.section	.text.main_thread_entry,"ax",%progbits
 261              		.align	1
 262              		.global	main_thread_entry
 263              		.syntax unified
 264              		.thumb
 265              		.thumb_func
 266              		.fpu softvfp
ARM GAS  C:\Users\Administrator\AppData\Local\Temp\cc1MLFNh.s 			page 8


 268              	main_thread_entry:
 269              	.LVL18:
 270              	.LFB22:
 129:Middlewares/Third_Party/RealThread_RTOS/src/components.c **** #endif   /* RT_USING_COMPONENTS_INIT */
 130:Middlewares/Third_Party/RealThread_RTOS/src/components.c **** 
 131:Middlewares/Third_Party/RealThread_RTOS/src/components.c **** #ifdef RT_USING_USER_MAIN
 132:Middlewares/Third_Party/RealThread_RTOS/src/components.c **** 
 133:Middlewares/Third_Party/RealThread_RTOS/src/components.c **** void rt_application_init(void);
 134:Middlewares/Third_Party/RealThread_RTOS/src/components.c **** void rt_hw_board_init(void);
 135:Middlewares/Third_Party/RealThread_RTOS/src/components.c **** int rtthread_startup(void);
 136:Middlewares/Third_Party/RealThread_RTOS/src/components.c **** 
 137:Middlewares/Third_Party/RealThread_RTOS/src/components.c **** #if defined(__CC_ARM) || defined(__CLANG_ARM)
 138:Middlewares/Third_Party/RealThread_RTOS/src/components.c **** extern int $Super$$main(void);
 139:Middlewares/Third_Party/RealThread_RTOS/src/components.c **** /* re-define main function */
 140:Middlewares/Third_Party/RealThread_RTOS/src/components.c **** int $Sub$$main(void)
 141:Middlewares/Third_Party/RealThread_RTOS/src/components.c **** {
 142:Middlewares/Third_Party/RealThread_RTOS/src/components.c ****     rtthread_startup();
 143:Middlewares/Third_Party/RealThread_RTOS/src/components.c ****     return 0;
 144:Middlewares/Third_Party/RealThread_RTOS/src/components.c **** }
 145:Middlewares/Third_Party/RealThread_RTOS/src/components.c **** #elif defined(__ICCARM__)
 146:Middlewares/Third_Party/RealThread_RTOS/src/components.c **** extern int main(void);
 147:Middlewares/Third_Party/RealThread_RTOS/src/components.c **** /* __low_level_init will auto called by IAR cstartup */
 148:Middlewares/Third_Party/RealThread_RTOS/src/components.c **** extern void __iar_data_init3(void);
 149:Middlewares/Third_Party/RealThread_RTOS/src/components.c **** int __low_level_init(void)
 150:Middlewares/Third_Party/RealThread_RTOS/src/components.c **** {
 151:Middlewares/Third_Party/RealThread_RTOS/src/components.c ****     // call IAR table copy function.
 152:Middlewares/Third_Party/RealThread_RTOS/src/components.c ****     __iar_data_init3();
 153:Middlewares/Third_Party/RealThread_RTOS/src/components.c ****     rtthread_startup();
 154:Middlewares/Third_Party/RealThread_RTOS/src/components.c ****     return 0;
 155:Middlewares/Third_Party/RealThread_RTOS/src/components.c **** }
 156:Middlewares/Third_Party/RealThread_RTOS/src/components.c **** #elif defined(__GNUC__)
 157:Middlewares/Third_Party/RealThread_RTOS/src/components.c **** /* Add -eentry to arm-none-eabi-gcc argument */
 158:Middlewares/Third_Party/RealThread_RTOS/src/components.c **** int entry(void)
 159:Middlewares/Third_Party/RealThread_RTOS/src/components.c **** {
 160:Middlewares/Third_Party/RealThread_RTOS/src/components.c ****     rtthread_startup();
 161:Middlewares/Third_Party/RealThread_RTOS/src/components.c ****     return 0;
 162:Middlewares/Third_Party/RealThread_RTOS/src/components.c **** }
 163:Middlewares/Third_Party/RealThread_RTOS/src/components.c **** #endif
 164:Middlewares/Third_Party/RealThread_RTOS/src/components.c **** 
 165:Middlewares/Third_Party/RealThread_RTOS/src/components.c **** #ifndef RT_USING_HEAP
 166:Middlewares/Third_Party/RealThread_RTOS/src/components.c **** /* if there is not enable heap, we should use static thread and stack. */
 167:Middlewares/Third_Party/RealThread_RTOS/src/components.c **** ALIGN(8)
 168:Middlewares/Third_Party/RealThread_RTOS/src/components.c **** static rt_uint8_t main_stack[RT_MAIN_THREAD_STACK_SIZE];
 169:Middlewares/Third_Party/RealThread_RTOS/src/components.c **** struct rt_thread main_thread;
 170:Middlewares/Third_Party/RealThread_RTOS/src/components.c **** #endif
 171:Middlewares/Third_Party/RealThread_RTOS/src/components.c **** 
 172:Middlewares/Third_Party/RealThread_RTOS/src/components.c **** /* the system main thread */
 173:Middlewares/Third_Party/RealThread_RTOS/src/components.c **** void main_thread_entry(void *parameter)
 174:Middlewares/Third_Party/RealThread_RTOS/src/components.c **** {
 271              		.loc 1 174 1 is_stmt 1 view -0
 272              		.cfi_startproc
 273              		@ args = 0, pretend = 0, frame = 0
 274              		@ frame_needed = 0, uses_anonymous_args = 0
 275              		.loc 1 174 1 is_stmt 0 view .LVU50
 276 0000 08B5     		push	{r3, lr}
 277              	.LCFI2:
 278              		.cfi_def_cfa_offset 8
ARM GAS  C:\Users\Administrator\AppData\Local\Temp\cc1MLFNh.s 			page 9


 279              		.cfi_offset 3, -8
 280              		.cfi_offset 14, -4
 175:Middlewares/Third_Party/RealThread_RTOS/src/components.c ****     extern int main(void);
 281              		.loc 1 175 5 is_stmt 1 view .LVU51
 176:Middlewares/Third_Party/RealThread_RTOS/src/components.c ****     extern int $Super$$main(void);
 282              		.loc 1 176 5 view .LVU52
 177:Middlewares/Third_Party/RealThread_RTOS/src/components.c **** 
 178:Middlewares/Third_Party/RealThread_RTOS/src/components.c **** #ifdef RT_USING_COMPONENTS_INIT
 179:Middlewares/Third_Party/RealThread_RTOS/src/components.c ****     /* RT-Thread components initialization */
 180:Middlewares/Third_Party/RealThread_RTOS/src/components.c ****     rt_components_init();
 283              		.loc 1 180 5 view .LVU53
 284 0002 FFF7FEFF 		bl	rt_components_init
 285              	.LVL19:
 181:Middlewares/Third_Party/RealThread_RTOS/src/components.c **** #endif
 182:Middlewares/Third_Party/RealThread_RTOS/src/components.c ****     /* invoke system main function */
 183:Middlewares/Third_Party/RealThread_RTOS/src/components.c **** #if defined(__CC_ARM) || defined(__CLANG_ARM)
 184:Middlewares/Third_Party/RealThread_RTOS/src/components.c ****     $Super$$main(); /* for ARMCC. */
 185:Middlewares/Third_Party/RealThread_RTOS/src/components.c **** #elif defined(__ICCARM__) || defined(__GNUC__)
 186:Middlewares/Third_Party/RealThread_RTOS/src/components.c ****     main();
 286              		.loc 1 186 5 view .LVU54
 287 0006 FFF7FEFF 		bl	main
 288              	.LVL20:
 187:Middlewares/Third_Party/RealThread_RTOS/src/components.c **** #endif
 188:Middlewares/Third_Party/RealThread_RTOS/src/components.c **** }
 289              		.loc 1 188 1 is_stmt 0 view .LVU55
 290 000a 08BD     		pop	{r3, pc}
 291              		.cfi_endproc
 292              	.LFE22:
 294              		.section	.rodata.rt_application_init.str1.4,"aMS",%progbits,1
 295              		.align	2
 296              	.LC3:
 297 0000 6D61696E 		.ascii	"main\000"
 297      00
 298 0005 000000   		.align	2
 299              	.LC4:
 300 0008 74696420 		.ascii	"tid != RT_NULL\000"
 300      213D2052 
 300      545F4E55 
 300      4C4C00
 301              		.section	.text.rt_application_init,"ax",%progbits
 302              		.align	1
 303              		.global	rt_application_init
 304              		.syntax unified
 305              		.thumb
 306              		.thumb_func
 307              		.fpu softvfp
 309              	rt_application_init:
 310              	.LFB23:
 189:Middlewares/Third_Party/RealThread_RTOS/src/components.c **** 
 190:Middlewares/Third_Party/RealThread_RTOS/src/components.c **** void rt_application_init(void)
 191:Middlewares/Third_Party/RealThread_RTOS/src/components.c **** {
 311              		.loc 1 191 1 is_stmt 1 view -0
 312              		.cfi_startproc
 313              		@ args = 0, pretend = 0, frame = 0
 314              		@ frame_needed = 0, uses_anonymous_args = 0
 315 0000 10B5     		push	{r4, lr}
 316              	.LCFI3:
ARM GAS  C:\Users\Administrator\AppData\Local\Temp\cc1MLFNh.s 			page 10


 317              		.cfi_def_cfa_offset 8
 318              		.cfi_offset 4, -8
 319              		.cfi_offset 14, -4
 320 0002 82B0     		sub	sp, sp, #8
 321              	.LCFI4:
 322              		.cfi_def_cfa_offset 16
 192:Middlewares/Third_Party/RealThread_RTOS/src/components.c ****     rt_thread_t tid;
 323              		.loc 1 192 5 view .LVU57
 193:Middlewares/Third_Party/RealThread_RTOS/src/components.c **** 
 194:Middlewares/Third_Party/RealThread_RTOS/src/components.c **** #ifdef RT_USING_HEAP
 195:Middlewares/Third_Party/RealThread_RTOS/src/components.c ****     tid = rt_thread_create("main", main_thread_entry, RT_NULL,
 324              		.loc 1 195 5 view .LVU58
 325              		.loc 1 195 11 is_stmt 0 view .LVU59
 326 0004 1423     		movs	r3, #20
 327 0006 0193     		str	r3, [sp, #4]
 328 0008 0A23     		movs	r3, #10
 329 000a 0093     		str	r3, [sp]
 330 000c 4FF48063 		mov	r3, #1024
 331 0010 0022     		movs	r2, #0
 332 0012 0849     		ldr	r1, .L23
 333 0014 0848     		ldr	r0, .L23+4
 334 0016 FFF7FEFF 		bl	rt_thread_create
 335              	.LVL21:
 196:Middlewares/Third_Party/RealThread_RTOS/src/components.c ****                            RT_MAIN_THREAD_STACK_SIZE, RT_MAIN_THREAD_PRIORITY, 20);
 197:Middlewares/Third_Party/RealThread_RTOS/src/components.c ****     RT_ASSERT(tid != RT_NULL);
 336              		.loc 1 197 5 is_stmt 1 view .LVU60
 337 001a 0446     		mov	r4, r0
 338 001c 20B1     		cbz	r0, .L22
 339              	.LVL22:
 340              	.L20:
 341              		.loc 1 197 30 discriminator 3 view .LVU61
 198:Middlewares/Third_Party/RealThread_RTOS/src/components.c **** #else
 199:Middlewares/Third_Party/RealThread_RTOS/src/components.c ****     rt_err_t result;
 200:Middlewares/Third_Party/RealThread_RTOS/src/components.c **** 
 201:Middlewares/Third_Party/RealThread_RTOS/src/components.c ****     tid = &main_thread;
 202:Middlewares/Third_Party/RealThread_RTOS/src/components.c ****     result = rt_thread_init(tid, "main", main_thread_entry, RT_NULL,
 203:Middlewares/Third_Party/RealThread_RTOS/src/components.c ****                             main_stack, sizeof(main_stack), RT_MAIN_THREAD_PRIORITY, 20);
 204:Middlewares/Third_Party/RealThread_RTOS/src/components.c ****     RT_ASSERT(result == RT_EOK);
 205:Middlewares/Third_Party/RealThread_RTOS/src/components.c **** 
 206:Middlewares/Third_Party/RealThread_RTOS/src/components.c ****     /* if not define RT_USING_HEAP, using to eliminate the warning */
 207:Middlewares/Third_Party/RealThread_RTOS/src/components.c ****     (void)result;
 208:Middlewares/Third_Party/RealThread_RTOS/src/components.c **** #endif
 209:Middlewares/Third_Party/RealThread_RTOS/src/components.c **** 
 210:Middlewares/Third_Party/RealThread_RTOS/src/components.c ****     rt_thread_startup(tid);
 342              		.loc 1 210 5 discriminator 3 view .LVU62
 343 001e 2046     		mov	r0, r4
 344 0020 FFF7FEFF 		bl	rt_thread_startup
 345              	.LVL23:
 211:Middlewares/Third_Party/RealThread_RTOS/src/components.c **** }
 346              		.loc 1 211 1 is_stmt 0 discriminator 3 view .LVU63
 347 0024 02B0     		add	sp, sp, #8
 348              	.LCFI5:
 349              		.cfi_remember_state
 350              		.cfi_def_cfa_offset 8
 351              		@ sp needed
 352 0026 10BD     		pop	{r4, pc}
 353              	.LVL24:
ARM GAS  C:\Users\Administrator\AppData\Local\Temp\cc1MLFNh.s 			page 11


 354              	.L22:
 355              	.LCFI6:
 356              		.cfi_restore_state
 197:Middlewares/Third_Party/RealThread_RTOS/src/components.c **** #else
 357              		.loc 1 197 5 is_stmt 1 discriminator 1 view .LVU64
 358 0028 C522     		movs	r2, #197
 359 002a 0449     		ldr	r1, .L23+8
 360 002c 0448     		ldr	r0, .L23+12
 361              	.LVL25:
 197:Middlewares/Third_Party/RealThread_RTOS/src/components.c **** #else
 362              		.loc 1 197 5 is_stmt 0 discriminator 1 view .LVU65
 363 002e FFF7FEFF 		bl	rt_assert_handler
 364              	.LVL26:
 365 0032 F4E7     		b	.L20
 366              	.L24:
 367              		.align	2
 368              	.L23:
 369 0034 00000000 		.word	main_thread_entry
 370 0038 00000000 		.word	.LC3
 371 003c 00000000 		.word	.LANCHOR3
 372 0040 08000000 		.word	.LC4
 373              		.cfi_endproc
 374              	.LFE23:
 376              		.section	.text.rtthread_startup,"ax",%progbits
 377              		.align	1
 378              		.global	rtthread_startup
 379              		.syntax unified
 380              		.thumb
 381              		.thumb_func
 382              		.fpu softvfp
 384              	rtthread_startup:
 385              	.LFB24:
 212:Middlewares/Third_Party/RealThread_RTOS/src/components.c **** 
 213:Middlewares/Third_Party/RealThread_RTOS/src/components.c **** int rtthread_startup(void)
 214:Middlewares/Third_Party/RealThread_RTOS/src/components.c **** {
 386              		.loc 1 214 1 is_stmt 1 view -0
 387              		.cfi_startproc
 388              		@ args = 0, pretend = 0, frame = 0
 389              		@ frame_needed = 0, uses_anonymous_args = 0
 390 0000 08B5     		push	{r3, lr}
 391              	.LCFI7:
 392              		.cfi_def_cfa_offset 8
 393              		.cfi_offset 3, -8
 394              		.cfi_offset 14, -4
 215:Middlewares/Third_Party/RealThread_RTOS/src/components.c ****     rt_hw_interrupt_disable();
 395              		.loc 1 215 5 view .LVU67
 396 0002 FFF7FEFF 		bl	rt_hw_interrupt_disable
 397              	.LVL27:
 216:Middlewares/Third_Party/RealThread_RTOS/src/components.c **** 
 217:Middlewares/Third_Party/RealThread_RTOS/src/components.c ****     /* board level initialization
 218:Middlewares/Third_Party/RealThread_RTOS/src/components.c ****      * NOTE: please initialize heap inside board initialization.
 219:Middlewares/Third_Party/RealThread_RTOS/src/components.c ****      */
 220:Middlewares/Third_Party/RealThread_RTOS/src/components.c ****     rt_hw_board_init();
 398              		.loc 1 220 5 view .LVU68
 399 0006 FFF7FEFF 		bl	rt_hw_board_init
 400              	.LVL28:
 221:Middlewares/Third_Party/RealThread_RTOS/src/components.c **** 
ARM GAS  C:\Users\Administrator\AppData\Local\Temp\cc1MLFNh.s 			page 12


 222:Middlewares/Third_Party/RealThread_RTOS/src/components.c ****     /* show RT-Thread version */
 223:Middlewares/Third_Party/RealThread_RTOS/src/components.c ****     rt_show_version();
 401              		.loc 1 223 5 view .LVU69
 402 000a FFF7FEFF 		bl	rt_show_version
 403              	.LVL29:
 224:Middlewares/Third_Party/RealThread_RTOS/src/components.c **** 
 225:Middlewares/Third_Party/RealThread_RTOS/src/components.c ****     /* timer system initialization */
 226:Middlewares/Third_Party/RealThread_RTOS/src/components.c ****     rt_system_timer_init();
 404              		.loc 1 226 5 view .LVU70
 405 000e FFF7FEFF 		bl	rt_system_timer_init
 406              	.LVL30:
 227:Middlewares/Third_Party/RealThread_RTOS/src/components.c **** 
 228:Middlewares/Third_Party/RealThread_RTOS/src/components.c ****     /* scheduler system initialization */
 229:Middlewares/Third_Party/RealThread_RTOS/src/components.c ****     rt_system_scheduler_init();
 407              		.loc 1 229 5 view .LVU71
 408 0012 FFF7FEFF 		bl	rt_system_scheduler_init
 409              	.LVL31:
 230:Middlewares/Third_Party/RealThread_RTOS/src/components.c **** 
 231:Middlewares/Third_Party/RealThread_RTOS/src/components.c ****     /* create init_thread */
 232:Middlewares/Third_Party/RealThread_RTOS/src/components.c ****     rt_application_init();
 410              		.loc 1 232 5 view .LVU72
 411 0016 FFF7FEFF 		bl	rt_application_init
 412              	.LVL32:
 233:Middlewares/Third_Party/RealThread_RTOS/src/components.c **** 
 234:Middlewares/Third_Party/RealThread_RTOS/src/components.c ****     /* timer thread initialization */
 235:Middlewares/Third_Party/RealThread_RTOS/src/components.c ****     rt_system_timer_thread_init();
 413              		.loc 1 235 5 view .LVU73
 414 001a FFF7FEFF 		bl	rt_system_timer_thread_init
 415              	.LVL33:
 236:Middlewares/Third_Party/RealThread_RTOS/src/components.c **** 
 237:Middlewares/Third_Party/RealThread_RTOS/src/components.c ****     /* idle thread initialization */
 238:Middlewares/Third_Party/RealThread_RTOS/src/components.c ****     rt_thread_idle_init();
 416              		.loc 1 238 5 view .LVU74
 417 001e FFF7FEFF 		bl	rt_thread_idle_init
 418              	.LVL34:
 239:Middlewares/Third_Party/RealThread_RTOS/src/components.c **** 
 240:Middlewares/Third_Party/RealThread_RTOS/src/components.c ****     /* start scheduler */
 241:Middlewares/Third_Party/RealThread_RTOS/src/components.c ****     rt_system_scheduler_start();
 419              		.loc 1 241 5 view .LVU75
 420 0022 FFF7FEFF 		bl	rt_system_scheduler_start
 421              	.LVL35:
 242:Middlewares/Third_Party/RealThread_RTOS/src/components.c **** 
 243:Middlewares/Third_Party/RealThread_RTOS/src/components.c ****     /* never reach here */
 244:Middlewares/Third_Party/RealThread_RTOS/src/components.c ****     return 0;
 422              		.loc 1 244 5 view .LVU76
 245:Middlewares/Third_Party/RealThread_RTOS/src/components.c **** }
 423              		.loc 1 245 1 is_stmt 0 view .LVU77
 424 0026 0020     		movs	r0, #0
 425 0028 08BD     		pop	{r3, pc}
 426              		.cfi_endproc
 427              	.LFE24:
 429              		.section	.text.entry,"ax",%progbits
 430              		.align	1
 431              		.global	entry
 432              		.syntax unified
 433              		.thumb
 434              		.thumb_func
ARM GAS  C:\Users\Administrator\AppData\Local\Temp\cc1MLFNh.s 			page 13


 435              		.fpu softvfp
 437              	entry:
 438              	.LFB21:
 159:Middlewares/Third_Party/RealThread_RTOS/src/components.c ****     rtthread_startup();
 439              		.loc 1 159 1 is_stmt 1 view -0
 440              		.cfi_startproc
 441              		@ args = 0, pretend = 0, frame = 0
 442              		@ frame_needed = 0, uses_anonymous_args = 0
 443 0000 08B5     		push	{r3, lr}
 444              	.LCFI8:
 445              		.cfi_def_cfa_offset 8
 446              		.cfi_offset 3, -8
 447              		.cfi_offset 14, -4
 160:Middlewares/Third_Party/RealThread_RTOS/src/components.c ****     return 0;
 448              		.loc 1 160 5 view .LVU79
 449 0002 FFF7FEFF 		bl	rtthread_startup
 450              	.LVL36:
 161:Middlewares/Third_Party/RealThread_RTOS/src/components.c **** }
 451              		.loc 1 161 5 view .LVU80
 162:Middlewares/Third_Party/RealThread_RTOS/src/components.c **** #endif
 452              		.loc 1 162 1 is_stmt 0 view .LVU81
 453 0006 0020     		movs	r0, #0
 454 0008 08BD     		pop	{r3, pc}
 455              		.cfi_endproc
 456              	.LFE21:
 458              		.global	__rt_init_desc_rti_end
 459              		.global	__rti_rti_end_name
 460              		.global	__rt_init_desc_rti_board_end
 461              		.global	__rti_rti_board_end_name
 462              		.global	__rt_init_desc_rti_board_start
 463              		.global	__rti_rti_board_start_name
 464              		.global	__rt_init_desc_rti_start
 465              		.global	__rti_rti_start_name
 466              		.section	.rodata.__FUNCTION__.0,"a"
 467              		.align	2
 468              		.set	.LANCHOR3,. + 0
 471              	__FUNCTION__.0:
 472 0000 72745F61 		.ascii	"rt_application_init\000"
 472      70706C69 
 472      63617469 
 472      6F6E5F69 
 472      6E697400 
 473              		.section	.rodata.__rti_rti_board_end_name,"a"
 474              		.align	2
 477              	__rti_rti_board_end_name:
 478 0000 7274695F 		.ascii	"rti_board_end\000"
 478      626F6172 
 478      645F656E 
 478      6400
 479              		.section	.rodata.__rti_rti_board_start_name,"a"
 480              		.align	2
 483              	__rti_rti_board_start_name:
 484 0000 7274695F 		.ascii	"rti_board_start\000"
 484      626F6172 
 484      645F7374 
 484      61727400 
 485              		.section	.rodata.__rti_rti_end_name,"a"
ARM GAS  C:\Users\Administrator\AppData\Local\Temp\cc1MLFNh.s 			page 14


 486              		.align	2
 489              	__rti_rti_end_name:
 490 0000 7274695F 		.ascii	"rti_end\000"
 490      656E6400 
 491              		.section	.rodata.__rti_rti_start_name,"a"
 492              		.align	2
 495              	__rti_rti_start_name:
 496 0000 7274695F 		.ascii	"rti_start\000"
 496      73746172 
 496      7400
 497              		.section	.rti_fn.0,"a"
 498              		.align	2
 501              	__rt_init_desc_rti_start:
 502 0000 00000000 		.word	__rti_rti_start_name
 503 0004 00000000 		.word	rti_start
 504              		.section	.rti_fn.0.end,"a"
 505              		.align	2
 506              		.set	.LANCHOR0,. + 0
 509              	__rt_init_desc_rti_board_start:
 510 0000 00000000 		.word	__rti_rti_board_start_name
 511 0004 00000000 		.word	rti_board_start
 512              		.section	.rti_fn.1.end,"a"
 513              		.align	2
 514              		.set	.LANCHOR1,. + 0
 517              	__rt_init_desc_rti_board_end:
 518 0000 00000000 		.word	__rti_rti_board_end_name
 519 0004 00000000 		.word	rti_board_end
 520              		.section	.rti_fn.6.end,"a"
 521              		.align	2
 522              		.set	.LANCHOR2,. + 0
 525              	__rt_init_desc_rti_end:
 526 0000 00000000 		.word	__rti_rti_end_name
 527 0004 00000000 		.word	rti_end
 528              		.text
 529              	.Letext0:
 530              		.file 2 "Middlewares/Third_Party/RealThread_RTOS/include/rtdef.h"
 531              		.file 3 "Middlewares/Third_Party/RealThread_RTOS/include/rthw.h"
 532              		.file 4 "Middlewares/Third_Party/RealThread_RTOS/include/rtthread.h"
ARM GAS  C:\Users\Administrator\AppData\Local\Temp\cc1MLFNh.s 			page 15


DEFINED SYMBOLS
                            *ABS*:00000000 components.c
C:\Users\Administrator\AppData\Local\Temp\cc1MLFNh.s:16     .text.rti_start:00000000 $t
C:\Users\Administrator\AppData\Local\Temp\cc1MLFNh.s:23     .text.rti_start:00000000 rti_start
C:\Users\Administrator\AppData\Local\Temp\cc1MLFNh.s:39     .text.rti_board_start:00000000 $t
C:\Users\Administrator\AppData\Local\Temp\cc1MLFNh.s:45     .text.rti_board_start:00000000 rti_board_start
C:\Users\Administrator\AppData\Local\Temp\cc1MLFNh.s:60     .text.rti_board_end:00000000 $t
C:\Users\Administrator\AppData\Local\Temp\cc1MLFNh.s:66     .text.rti_board_end:00000000 rti_board_end
C:\Users\Administrator\AppData\Local\Temp\cc1MLFNh.s:81     .text.rti_end:00000000 $t
C:\Users\Administrator\AppData\Local\Temp\cc1MLFNh.s:87     .text.rti_end:00000000 rti_end
C:\Users\Administrator\AppData\Local\Temp\cc1MLFNh.s:102    .rodata.rt_components_board_init.str1.4:00000000 $d
C:\Users\Administrator\AppData\Local\Temp\cc1MLFNh.s:109    .text.rt_components_board_init:00000000 $t
C:\Users\Administrator\AppData\Local\Temp\cc1MLFNh.s:116    .text.rt_components_board_init:00000000 rt_components_board_init
C:\Users\Administrator\AppData\Local\Temp\cc1MLFNh.s:173    .text.rt_components_board_init:00000024 $d
C:\Users\Administrator\AppData\Local\Temp\cc1MLFNh.s:181    .rodata.rt_components_init.str1.4:00000000 $d
C:\Users\Administrator\AppData\Local\Temp\cc1MLFNh.s:185    .text.rt_components_init:00000000 $t
C:\Users\Administrator\AppData\Local\Temp\cc1MLFNh.s:192    .text.rt_components_init:00000000 rt_components_init
C:\Users\Administrator\AppData\Local\Temp\cc1MLFNh.s:252    .text.rt_components_init:0000002c $d
C:\Users\Administrator\AppData\Local\Temp\cc1MLFNh.s:261    .text.main_thread_entry:00000000 $t
C:\Users\Administrator\AppData\Local\Temp\cc1MLFNh.s:268    .text.main_thread_entry:00000000 main_thread_entry
C:\Users\Administrator\AppData\Local\Temp\cc1MLFNh.s:295    .rodata.rt_application_init.str1.4:00000000 $d
C:\Users\Administrator\AppData\Local\Temp\cc1MLFNh.s:302    .text.rt_application_init:00000000 $t
C:\Users\Administrator\AppData\Local\Temp\cc1MLFNh.s:309    .text.rt_application_init:00000000 rt_application_init
C:\Users\Administrator\AppData\Local\Temp\cc1MLFNh.s:369    .text.rt_application_init:00000034 $d
C:\Users\Administrator\AppData\Local\Temp\cc1MLFNh.s:377    .text.rtthread_startup:00000000 $t
C:\Users\Administrator\AppData\Local\Temp\cc1MLFNh.s:384    .text.rtthread_startup:00000000 rtthread_startup
C:\Users\Administrator\AppData\Local\Temp\cc1MLFNh.s:430    .text.entry:00000000 $t
C:\Users\Administrator\AppData\Local\Temp\cc1MLFNh.s:437    .text.entry:00000000 entry
C:\Users\Administrator\AppData\Local\Temp\cc1MLFNh.s:525    .rti_fn.6.end:00000000 __rt_init_desc_rti_end
C:\Users\Administrator\AppData\Local\Temp\cc1MLFNh.s:489    .rodata.__rti_rti_end_name:00000000 __rti_rti_end_name
C:\Users\Administrator\AppData\Local\Temp\cc1MLFNh.s:517    .rti_fn.1.end:00000000 __rt_init_desc_rti_board_end
C:\Users\Administrator\AppData\Local\Temp\cc1MLFNh.s:477    .rodata.__rti_rti_board_end_name:00000000 __rti_rti_board_end_name
C:\Users\Administrator\AppData\Local\Temp\cc1MLFNh.s:509    .rti_fn.0.end:00000000 __rt_init_desc_rti_board_start
C:\Users\Administrator\AppData\Local\Temp\cc1MLFNh.s:483    .rodata.__rti_rti_board_start_name:00000000 __rti_rti_board_start_name
C:\Users\Administrator\AppData\Local\Temp\cc1MLFNh.s:501    .rti_fn.0:00000000 __rt_init_desc_rti_start
C:\Users\Administrator\AppData\Local\Temp\cc1MLFNh.s:495    .rodata.__rti_rti_start_name:00000000 __rti_rti_start_name
C:\Users\Administrator\AppData\Local\Temp\cc1MLFNh.s:467    .rodata.__FUNCTION__.0:00000000 $d
C:\Users\Administrator\AppData\Local\Temp\cc1MLFNh.s:471    .rodata.__FUNCTION__.0:00000000 __FUNCTION__.0
C:\Users\Administrator\AppData\Local\Temp\cc1MLFNh.s:474    .rodata.__rti_rti_board_end_name:00000000 $d
C:\Users\Administrator\AppData\Local\Temp\cc1MLFNh.s:480    .rodata.__rti_rti_board_start_name:00000000 $d
C:\Users\Administrator\AppData\Local\Temp\cc1MLFNh.s:486    .rodata.__rti_rti_end_name:00000000 $d
C:\Users\Administrator\AppData\Local\Temp\cc1MLFNh.s:492    .rodata.__rti_rti_start_name:00000000 $d
C:\Users\Administrator\AppData\Local\Temp\cc1MLFNh.s:498    .rti_fn.0:00000000 $d
C:\Users\Administrator\AppData\Local\Temp\cc1MLFNh.s:505    .rti_fn.0.end:00000000 $d
C:\Users\Administrator\AppData\Local\Temp\cc1MLFNh.s:513    .rti_fn.1.end:00000000 $d
C:\Users\Administrator\AppData\Local\Temp\cc1MLFNh.s:521    .rti_fn.6.end:00000000 $d

UNDEFINED SYMBOLS
rt_kprintf
main
rt_thread_create
rt_thread_startup
rt_assert_handler
rt_hw_interrupt_disable
rt_hw_board_init
rt_show_version
rt_system_timer_init
ARM GAS  C:\Users\Administrator\AppData\Local\Temp\cc1MLFNh.s 			page 16


rt_system_scheduler_init
rt_system_timer_thread_init
rt_thread_idle_init
rt_system_scheduler_start
