ARM GAS  C:\Users\Administrator\AppData\Local\Temp\ccKo279t.s 			page 1


   1              		.cpu cortex-m4
   2              		.eabi_attribute 20, 1
   3              		.eabi_attribute 21, 1
   4              		.eabi_attribute 23, 3
   5              		.eabi_attribute 24, 1
   6              		.eabi_attribute 25, 1
   7              		.eabi_attribute 26, 1
   8              		.eabi_attribute 30, 1
   9              		.eabi_attribute 34, 1
  10              		.eabi_attribute 18, 4
  11              		.file	"cpuport.c"
  12              		.text
  13              	.Ltext0:
  14              		.cfi_sections	.debug_frame
  15              		.section	.rodata.bus_fault_track.str1.4,"aMS",%progbits,1
  16              		.align	2
  17              	.LC0:
  18 0000 62757320 		.ascii	"bus fault:\012\000"
  18      6661756C 
  18      743A0A00 
  19              		.align	2
  20              	.LC1:
  21 000c 5343425F 		.ascii	"SCB_CFSR_BFSR:0x%02X \000"
  21      43465352 
  21      5F424653 
  21      523A3078 
  21      25303258 
  22 0022 0000     		.align	2
  23              	.LC2:
  24 0024 49425553 		.ascii	"IBUSERR \000"
  24      45525220 
  24      00
  25 002d 000000   		.align	2
  26              	.LC3:
  27 0030 50524543 		.ascii	"PRECISERR \000"
  27      49534552 
  27      522000
  28 003b 00       		.align	2
  29              	.LC4:
  30 003c 494D5052 		.ascii	"IMPRECISERR \000"
  30      45434953 
  30      45525220 
  30      00
  31 0049 000000   		.align	2
  32              	.LC5:
  33 004c 554E5354 		.ascii	"UNSTKERR \000"
  33      4B455252 
  33      2000
  34 0056 0000     		.align	2
  35              	.LC6:
  36 0058 53544B45 		.ascii	"STKERR \000"
  36      52522000 
  37              		.align	2
  38              	.LC7:
  39 0060 5343422D 		.ascii	"SCB->BFAR:%08X\012\000"
  39      3E424641 
  39      523A2530 
ARM GAS  C:\Users\Administrator\AppData\Local\Temp\ccKo279t.s 			page 2


  39      38580A00 
  40              		.align	2
  41              	.LC8:
  42 0070 0A00     		.ascii	"\012\000"
  43              		.section	.text.bus_fault_track,"ax",%progbits
  44              		.align	1
  45              		.arch armv7e-m
  46              		.syntax unified
  47              		.thumb
  48              		.thumb_func
  49              		.fpu softvfp
  51              	bus_fault_track:
  52              	.LFB18:
  53              		.file 1 "Middlewares/Third_Party/RealThread_RTOS/libcpu/arm/cortex-m4/cpuport.c"
   1:Middlewares/Third_Party/RealThread_RTOS/libcpu/arm/cortex-m4/cpuport.c **** /*
   2:Middlewares/Third_Party/RealThread_RTOS/libcpu/arm/cortex-m4/cpuport.c ****  * Copyright (c) 2006-2021, RT-Thread Development Team
   3:Middlewares/Third_Party/RealThread_RTOS/libcpu/arm/cortex-m4/cpuport.c ****  *
   4:Middlewares/Third_Party/RealThread_RTOS/libcpu/arm/cortex-m4/cpuport.c ****  * SPDX-License-Identifier: Apache-2.0
   5:Middlewares/Third_Party/RealThread_RTOS/libcpu/arm/cortex-m4/cpuport.c ****  *
   6:Middlewares/Third_Party/RealThread_RTOS/libcpu/arm/cortex-m4/cpuport.c ****  * Change Logs:
   7:Middlewares/Third_Party/RealThread_RTOS/libcpu/arm/cortex-m4/cpuport.c ****  * Date           Author       Notes
   8:Middlewares/Third_Party/RealThread_RTOS/libcpu/arm/cortex-m4/cpuport.c ****  * 2011-10-21     Bernard      the first version.
   9:Middlewares/Third_Party/RealThread_RTOS/libcpu/arm/cortex-m4/cpuport.c ****  * 2011-10-27     aozima       update for cortex-M4 FPU.
  10:Middlewares/Third_Party/RealThread_RTOS/libcpu/arm/cortex-m4/cpuport.c ****  * 2011-12-31     aozima       fixed stack align issues.
  11:Middlewares/Third_Party/RealThread_RTOS/libcpu/arm/cortex-m4/cpuport.c ****  * 2012-01-01     aozima       support context switch load/store FPU register.
  12:Middlewares/Third_Party/RealThread_RTOS/libcpu/arm/cortex-m4/cpuport.c ****  * 2012-12-11     lgnq         fixed the coding style.
  13:Middlewares/Third_Party/RealThread_RTOS/libcpu/arm/cortex-m4/cpuport.c ****  * 2012-12-23     aozima       stack addr align to 8byte.
  14:Middlewares/Third_Party/RealThread_RTOS/libcpu/arm/cortex-m4/cpuport.c ****  * 2012-12-29     Bernard      Add exception hook.
  15:Middlewares/Third_Party/RealThread_RTOS/libcpu/arm/cortex-m4/cpuport.c ****  * 2013-06-23     aozima       support lazy stack optimized.
  16:Middlewares/Third_Party/RealThread_RTOS/libcpu/arm/cortex-m4/cpuport.c ****  * 2018-07-24     aozima       enhancement hard fault exception handler.
  17:Middlewares/Third_Party/RealThread_RTOS/libcpu/arm/cortex-m4/cpuport.c ****  * 2019-07-03     yangjie      add __rt_ffs() for armclang.
  18:Middlewares/Third_Party/RealThread_RTOS/libcpu/arm/cortex-m4/cpuport.c ****  */
  19:Middlewares/Third_Party/RealThread_RTOS/libcpu/arm/cortex-m4/cpuport.c **** 
  20:Middlewares/Third_Party/RealThread_RTOS/libcpu/arm/cortex-m4/cpuport.c **** #include <rtthread.h>
  21:Middlewares/Third_Party/RealThread_RTOS/libcpu/arm/cortex-m4/cpuport.c **** 
  22:Middlewares/Third_Party/RealThread_RTOS/libcpu/arm/cortex-m4/cpuport.c **** #if               /* ARMCC */ (  (defined ( __CC_ARM ) && defined ( __TARGET_FPU_VFP ))    \
  23:Middlewares/Third_Party/RealThread_RTOS/libcpu/arm/cortex-m4/cpuport.c ****                   /* Clang */ || (defined ( __CLANG_ARM ) && defined ( __VFP_FP__ ) && !defined(__S
  24:Middlewares/Third_Party/RealThread_RTOS/libcpu/arm/cortex-m4/cpuport.c ****                   /* IAR */   || (defined ( __ICCARM__ ) && defined ( __ARMVFP__ ))        \
  25:Middlewares/Third_Party/RealThread_RTOS/libcpu/arm/cortex-m4/cpuport.c ****                   /* GNU */   || (defined ( __GNUC__ ) && defined ( __VFP_FP__ ) && !defined(__SOFT
  26:Middlewares/Third_Party/RealThread_RTOS/libcpu/arm/cortex-m4/cpuport.c **** #define USE_FPU   1
  27:Middlewares/Third_Party/RealThread_RTOS/libcpu/arm/cortex-m4/cpuport.c **** #else
  28:Middlewares/Third_Party/RealThread_RTOS/libcpu/arm/cortex-m4/cpuport.c **** #define USE_FPU   0
  29:Middlewares/Third_Party/RealThread_RTOS/libcpu/arm/cortex-m4/cpuport.c **** #endif
  30:Middlewares/Third_Party/RealThread_RTOS/libcpu/arm/cortex-m4/cpuport.c **** 
  31:Middlewares/Third_Party/RealThread_RTOS/libcpu/arm/cortex-m4/cpuport.c **** /* exception and interrupt handler table */
  32:Middlewares/Third_Party/RealThread_RTOS/libcpu/arm/cortex-m4/cpuport.c **** rt_uint32_t rt_interrupt_from_thread;
  33:Middlewares/Third_Party/RealThread_RTOS/libcpu/arm/cortex-m4/cpuport.c **** rt_uint32_t rt_interrupt_to_thread;
  34:Middlewares/Third_Party/RealThread_RTOS/libcpu/arm/cortex-m4/cpuport.c **** rt_uint32_t rt_thread_switch_interrupt_flag;
  35:Middlewares/Third_Party/RealThread_RTOS/libcpu/arm/cortex-m4/cpuport.c **** /* exception hook */
  36:Middlewares/Third_Party/RealThread_RTOS/libcpu/arm/cortex-m4/cpuport.c **** static rt_err_t (*rt_exception_hook)(void *context) = RT_NULL;
  37:Middlewares/Third_Party/RealThread_RTOS/libcpu/arm/cortex-m4/cpuport.c **** 
  38:Middlewares/Third_Party/RealThread_RTOS/libcpu/arm/cortex-m4/cpuport.c **** struct exception_stack_frame
  39:Middlewares/Third_Party/RealThread_RTOS/libcpu/arm/cortex-m4/cpuport.c **** {
  40:Middlewares/Third_Party/RealThread_RTOS/libcpu/arm/cortex-m4/cpuport.c ****     rt_uint32_t r0;
  41:Middlewares/Third_Party/RealThread_RTOS/libcpu/arm/cortex-m4/cpuport.c ****     rt_uint32_t r1;
  42:Middlewares/Third_Party/RealThread_RTOS/libcpu/arm/cortex-m4/cpuport.c ****     rt_uint32_t r2;
  43:Middlewares/Third_Party/RealThread_RTOS/libcpu/arm/cortex-m4/cpuport.c ****     rt_uint32_t r3;
ARM GAS  C:\Users\Administrator\AppData\Local\Temp\ccKo279t.s 			page 3


  44:Middlewares/Third_Party/RealThread_RTOS/libcpu/arm/cortex-m4/cpuport.c ****     rt_uint32_t r12;
  45:Middlewares/Third_Party/RealThread_RTOS/libcpu/arm/cortex-m4/cpuport.c ****     rt_uint32_t lr;
  46:Middlewares/Third_Party/RealThread_RTOS/libcpu/arm/cortex-m4/cpuport.c ****     rt_uint32_t pc;
  47:Middlewares/Third_Party/RealThread_RTOS/libcpu/arm/cortex-m4/cpuport.c ****     rt_uint32_t psr;
  48:Middlewares/Third_Party/RealThread_RTOS/libcpu/arm/cortex-m4/cpuport.c **** };
  49:Middlewares/Third_Party/RealThread_RTOS/libcpu/arm/cortex-m4/cpuport.c **** 
  50:Middlewares/Third_Party/RealThread_RTOS/libcpu/arm/cortex-m4/cpuport.c **** struct stack_frame
  51:Middlewares/Third_Party/RealThread_RTOS/libcpu/arm/cortex-m4/cpuport.c **** {
  52:Middlewares/Third_Party/RealThread_RTOS/libcpu/arm/cortex-m4/cpuport.c **** #if USE_FPU
  53:Middlewares/Third_Party/RealThread_RTOS/libcpu/arm/cortex-m4/cpuport.c ****     rt_uint32_t flag;
  54:Middlewares/Third_Party/RealThread_RTOS/libcpu/arm/cortex-m4/cpuport.c **** #endif /* USE_FPU */
  55:Middlewares/Third_Party/RealThread_RTOS/libcpu/arm/cortex-m4/cpuport.c **** 
  56:Middlewares/Third_Party/RealThread_RTOS/libcpu/arm/cortex-m4/cpuport.c ****     /* r4 ~ r11 register */
  57:Middlewares/Third_Party/RealThread_RTOS/libcpu/arm/cortex-m4/cpuport.c ****     rt_uint32_t r4;
  58:Middlewares/Third_Party/RealThread_RTOS/libcpu/arm/cortex-m4/cpuport.c ****     rt_uint32_t r5;
  59:Middlewares/Third_Party/RealThread_RTOS/libcpu/arm/cortex-m4/cpuport.c ****     rt_uint32_t r6;
  60:Middlewares/Third_Party/RealThread_RTOS/libcpu/arm/cortex-m4/cpuport.c ****     rt_uint32_t r7;
  61:Middlewares/Third_Party/RealThread_RTOS/libcpu/arm/cortex-m4/cpuport.c ****     rt_uint32_t r8;
  62:Middlewares/Third_Party/RealThread_RTOS/libcpu/arm/cortex-m4/cpuport.c ****     rt_uint32_t r9;
  63:Middlewares/Third_Party/RealThread_RTOS/libcpu/arm/cortex-m4/cpuport.c ****     rt_uint32_t r10;
  64:Middlewares/Third_Party/RealThread_RTOS/libcpu/arm/cortex-m4/cpuport.c ****     rt_uint32_t r11;
  65:Middlewares/Third_Party/RealThread_RTOS/libcpu/arm/cortex-m4/cpuport.c **** 
  66:Middlewares/Third_Party/RealThread_RTOS/libcpu/arm/cortex-m4/cpuport.c ****     struct exception_stack_frame exception_stack_frame;
  67:Middlewares/Third_Party/RealThread_RTOS/libcpu/arm/cortex-m4/cpuport.c **** };
  68:Middlewares/Third_Party/RealThread_RTOS/libcpu/arm/cortex-m4/cpuport.c **** 
  69:Middlewares/Third_Party/RealThread_RTOS/libcpu/arm/cortex-m4/cpuport.c **** struct exception_stack_frame_fpu
  70:Middlewares/Third_Party/RealThread_RTOS/libcpu/arm/cortex-m4/cpuport.c **** {
  71:Middlewares/Third_Party/RealThread_RTOS/libcpu/arm/cortex-m4/cpuport.c ****     rt_uint32_t r0;
  72:Middlewares/Third_Party/RealThread_RTOS/libcpu/arm/cortex-m4/cpuport.c ****     rt_uint32_t r1;
  73:Middlewares/Third_Party/RealThread_RTOS/libcpu/arm/cortex-m4/cpuport.c ****     rt_uint32_t r2;
  74:Middlewares/Third_Party/RealThread_RTOS/libcpu/arm/cortex-m4/cpuport.c ****     rt_uint32_t r3;
  75:Middlewares/Third_Party/RealThread_RTOS/libcpu/arm/cortex-m4/cpuport.c ****     rt_uint32_t r12;
  76:Middlewares/Third_Party/RealThread_RTOS/libcpu/arm/cortex-m4/cpuport.c ****     rt_uint32_t lr;
  77:Middlewares/Third_Party/RealThread_RTOS/libcpu/arm/cortex-m4/cpuport.c ****     rt_uint32_t pc;
  78:Middlewares/Third_Party/RealThread_RTOS/libcpu/arm/cortex-m4/cpuport.c ****     rt_uint32_t psr;
  79:Middlewares/Third_Party/RealThread_RTOS/libcpu/arm/cortex-m4/cpuport.c **** 
  80:Middlewares/Third_Party/RealThread_RTOS/libcpu/arm/cortex-m4/cpuport.c **** #if USE_FPU
  81:Middlewares/Third_Party/RealThread_RTOS/libcpu/arm/cortex-m4/cpuport.c ****     /* FPU register */
  82:Middlewares/Third_Party/RealThread_RTOS/libcpu/arm/cortex-m4/cpuport.c ****     rt_uint32_t S0;
  83:Middlewares/Third_Party/RealThread_RTOS/libcpu/arm/cortex-m4/cpuport.c ****     rt_uint32_t S1;
  84:Middlewares/Third_Party/RealThread_RTOS/libcpu/arm/cortex-m4/cpuport.c ****     rt_uint32_t S2;
  85:Middlewares/Third_Party/RealThread_RTOS/libcpu/arm/cortex-m4/cpuport.c ****     rt_uint32_t S3;
  86:Middlewares/Third_Party/RealThread_RTOS/libcpu/arm/cortex-m4/cpuport.c ****     rt_uint32_t S4;
  87:Middlewares/Third_Party/RealThread_RTOS/libcpu/arm/cortex-m4/cpuport.c ****     rt_uint32_t S5;
  88:Middlewares/Third_Party/RealThread_RTOS/libcpu/arm/cortex-m4/cpuport.c ****     rt_uint32_t S6;
  89:Middlewares/Third_Party/RealThread_RTOS/libcpu/arm/cortex-m4/cpuport.c ****     rt_uint32_t S7;
  90:Middlewares/Third_Party/RealThread_RTOS/libcpu/arm/cortex-m4/cpuport.c ****     rt_uint32_t S8;
  91:Middlewares/Third_Party/RealThread_RTOS/libcpu/arm/cortex-m4/cpuport.c ****     rt_uint32_t S9;
  92:Middlewares/Third_Party/RealThread_RTOS/libcpu/arm/cortex-m4/cpuport.c ****     rt_uint32_t S10;
  93:Middlewares/Third_Party/RealThread_RTOS/libcpu/arm/cortex-m4/cpuport.c ****     rt_uint32_t S11;
  94:Middlewares/Third_Party/RealThread_RTOS/libcpu/arm/cortex-m4/cpuport.c ****     rt_uint32_t S12;
  95:Middlewares/Third_Party/RealThread_RTOS/libcpu/arm/cortex-m4/cpuport.c ****     rt_uint32_t S13;
  96:Middlewares/Third_Party/RealThread_RTOS/libcpu/arm/cortex-m4/cpuport.c ****     rt_uint32_t S14;
  97:Middlewares/Third_Party/RealThread_RTOS/libcpu/arm/cortex-m4/cpuport.c ****     rt_uint32_t S15;
  98:Middlewares/Third_Party/RealThread_RTOS/libcpu/arm/cortex-m4/cpuport.c ****     rt_uint32_t FPSCR;
  99:Middlewares/Third_Party/RealThread_RTOS/libcpu/arm/cortex-m4/cpuport.c ****     rt_uint32_t NO_NAME;
 100:Middlewares/Third_Party/RealThread_RTOS/libcpu/arm/cortex-m4/cpuport.c **** #endif
ARM GAS  C:\Users\Administrator\AppData\Local\Temp\ccKo279t.s 			page 4


 101:Middlewares/Third_Party/RealThread_RTOS/libcpu/arm/cortex-m4/cpuport.c **** };
 102:Middlewares/Third_Party/RealThread_RTOS/libcpu/arm/cortex-m4/cpuport.c **** 
 103:Middlewares/Third_Party/RealThread_RTOS/libcpu/arm/cortex-m4/cpuport.c **** struct stack_frame_fpu
 104:Middlewares/Third_Party/RealThread_RTOS/libcpu/arm/cortex-m4/cpuport.c **** {
 105:Middlewares/Third_Party/RealThread_RTOS/libcpu/arm/cortex-m4/cpuport.c ****     rt_uint32_t flag;
 106:Middlewares/Third_Party/RealThread_RTOS/libcpu/arm/cortex-m4/cpuport.c **** 
 107:Middlewares/Third_Party/RealThread_RTOS/libcpu/arm/cortex-m4/cpuport.c ****     /* r4 ~ r11 register */
 108:Middlewares/Third_Party/RealThread_RTOS/libcpu/arm/cortex-m4/cpuport.c ****     rt_uint32_t r4;
 109:Middlewares/Third_Party/RealThread_RTOS/libcpu/arm/cortex-m4/cpuport.c ****     rt_uint32_t r5;
 110:Middlewares/Third_Party/RealThread_RTOS/libcpu/arm/cortex-m4/cpuport.c ****     rt_uint32_t r6;
 111:Middlewares/Third_Party/RealThread_RTOS/libcpu/arm/cortex-m4/cpuport.c ****     rt_uint32_t r7;
 112:Middlewares/Third_Party/RealThread_RTOS/libcpu/arm/cortex-m4/cpuport.c ****     rt_uint32_t r8;
 113:Middlewares/Third_Party/RealThread_RTOS/libcpu/arm/cortex-m4/cpuport.c ****     rt_uint32_t r9;
 114:Middlewares/Third_Party/RealThread_RTOS/libcpu/arm/cortex-m4/cpuport.c ****     rt_uint32_t r10;
 115:Middlewares/Third_Party/RealThread_RTOS/libcpu/arm/cortex-m4/cpuport.c ****     rt_uint32_t r11;
 116:Middlewares/Third_Party/RealThread_RTOS/libcpu/arm/cortex-m4/cpuport.c **** 
 117:Middlewares/Third_Party/RealThread_RTOS/libcpu/arm/cortex-m4/cpuport.c **** #if USE_FPU
 118:Middlewares/Third_Party/RealThread_RTOS/libcpu/arm/cortex-m4/cpuport.c ****     /* FPU register s16 ~ s31 */
 119:Middlewares/Third_Party/RealThread_RTOS/libcpu/arm/cortex-m4/cpuport.c ****     rt_uint32_t s16;
 120:Middlewares/Third_Party/RealThread_RTOS/libcpu/arm/cortex-m4/cpuport.c ****     rt_uint32_t s17;
 121:Middlewares/Third_Party/RealThread_RTOS/libcpu/arm/cortex-m4/cpuport.c ****     rt_uint32_t s18;
 122:Middlewares/Third_Party/RealThread_RTOS/libcpu/arm/cortex-m4/cpuport.c ****     rt_uint32_t s19;
 123:Middlewares/Third_Party/RealThread_RTOS/libcpu/arm/cortex-m4/cpuport.c ****     rt_uint32_t s20;
 124:Middlewares/Third_Party/RealThread_RTOS/libcpu/arm/cortex-m4/cpuport.c ****     rt_uint32_t s21;
 125:Middlewares/Third_Party/RealThread_RTOS/libcpu/arm/cortex-m4/cpuport.c ****     rt_uint32_t s22;
 126:Middlewares/Third_Party/RealThread_RTOS/libcpu/arm/cortex-m4/cpuport.c ****     rt_uint32_t s23;
 127:Middlewares/Third_Party/RealThread_RTOS/libcpu/arm/cortex-m4/cpuport.c ****     rt_uint32_t s24;
 128:Middlewares/Third_Party/RealThread_RTOS/libcpu/arm/cortex-m4/cpuport.c ****     rt_uint32_t s25;
 129:Middlewares/Third_Party/RealThread_RTOS/libcpu/arm/cortex-m4/cpuport.c ****     rt_uint32_t s26;
 130:Middlewares/Third_Party/RealThread_RTOS/libcpu/arm/cortex-m4/cpuport.c ****     rt_uint32_t s27;
 131:Middlewares/Third_Party/RealThread_RTOS/libcpu/arm/cortex-m4/cpuport.c ****     rt_uint32_t s28;
 132:Middlewares/Third_Party/RealThread_RTOS/libcpu/arm/cortex-m4/cpuport.c ****     rt_uint32_t s29;
 133:Middlewares/Third_Party/RealThread_RTOS/libcpu/arm/cortex-m4/cpuport.c ****     rt_uint32_t s30;
 134:Middlewares/Third_Party/RealThread_RTOS/libcpu/arm/cortex-m4/cpuport.c ****     rt_uint32_t s31;
 135:Middlewares/Third_Party/RealThread_RTOS/libcpu/arm/cortex-m4/cpuport.c **** #endif
 136:Middlewares/Third_Party/RealThread_RTOS/libcpu/arm/cortex-m4/cpuport.c **** 
 137:Middlewares/Third_Party/RealThread_RTOS/libcpu/arm/cortex-m4/cpuport.c ****     struct exception_stack_frame_fpu exception_stack_frame;
 138:Middlewares/Third_Party/RealThread_RTOS/libcpu/arm/cortex-m4/cpuport.c **** };
 139:Middlewares/Third_Party/RealThread_RTOS/libcpu/arm/cortex-m4/cpuport.c **** 
 140:Middlewares/Third_Party/RealThread_RTOS/libcpu/arm/cortex-m4/cpuport.c **** rt_uint8_t *rt_hw_stack_init(void       *tentry,
 141:Middlewares/Third_Party/RealThread_RTOS/libcpu/arm/cortex-m4/cpuport.c ****                              void       *parameter,
 142:Middlewares/Third_Party/RealThread_RTOS/libcpu/arm/cortex-m4/cpuport.c ****                              rt_uint8_t *stack_addr,
 143:Middlewares/Third_Party/RealThread_RTOS/libcpu/arm/cortex-m4/cpuport.c ****                              void       *texit)
 144:Middlewares/Third_Party/RealThread_RTOS/libcpu/arm/cortex-m4/cpuport.c **** {
 145:Middlewares/Third_Party/RealThread_RTOS/libcpu/arm/cortex-m4/cpuport.c ****     struct stack_frame *stack_frame;
 146:Middlewares/Third_Party/RealThread_RTOS/libcpu/arm/cortex-m4/cpuport.c ****     rt_uint8_t         *stk;
 147:Middlewares/Third_Party/RealThread_RTOS/libcpu/arm/cortex-m4/cpuport.c ****     unsigned long       i;
 148:Middlewares/Third_Party/RealThread_RTOS/libcpu/arm/cortex-m4/cpuport.c **** 
 149:Middlewares/Third_Party/RealThread_RTOS/libcpu/arm/cortex-m4/cpuport.c ****     stk  = stack_addr + sizeof(rt_uint32_t);
 150:Middlewares/Third_Party/RealThread_RTOS/libcpu/arm/cortex-m4/cpuport.c ****     stk  = (rt_uint8_t *)RT_ALIGN_DOWN((rt_uint32_t)stk, 8);
 151:Middlewares/Third_Party/RealThread_RTOS/libcpu/arm/cortex-m4/cpuport.c ****     stk -= sizeof(struct stack_frame);
 152:Middlewares/Third_Party/RealThread_RTOS/libcpu/arm/cortex-m4/cpuport.c **** 
 153:Middlewares/Third_Party/RealThread_RTOS/libcpu/arm/cortex-m4/cpuport.c ****     stack_frame = (struct stack_frame *)stk;
 154:Middlewares/Third_Party/RealThread_RTOS/libcpu/arm/cortex-m4/cpuport.c **** 
 155:Middlewares/Third_Party/RealThread_RTOS/libcpu/arm/cortex-m4/cpuport.c ****     /* init all register */
 156:Middlewares/Third_Party/RealThread_RTOS/libcpu/arm/cortex-m4/cpuport.c ****     for (i = 0; i < sizeof(struct stack_frame) / sizeof(rt_uint32_t); i ++)
 157:Middlewares/Third_Party/RealThread_RTOS/libcpu/arm/cortex-m4/cpuport.c ****     {
ARM GAS  C:\Users\Administrator\AppData\Local\Temp\ccKo279t.s 			page 5


 158:Middlewares/Third_Party/RealThread_RTOS/libcpu/arm/cortex-m4/cpuport.c ****         ((rt_uint32_t *)stack_frame)[i] = 0xdeadbeef;
 159:Middlewares/Third_Party/RealThread_RTOS/libcpu/arm/cortex-m4/cpuport.c ****     }
 160:Middlewares/Third_Party/RealThread_RTOS/libcpu/arm/cortex-m4/cpuport.c **** 
 161:Middlewares/Third_Party/RealThread_RTOS/libcpu/arm/cortex-m4/cpuport.c ****     stack_frame->exception_stack_frame.r0  = (unsigned long)parameter; /* r0 : argument */
 162:Middlewares/Third_Party/RealThread_RTOS/libcpu/arm/cortex-m4/cpuport.c ****     stack_frame->exception_stack_frame.r1  = 0;                        /* r1 */
 163:Middlewares/Third_Party/RealThread_RTOS/libcpu/arm/cortex-m4/cpuport.c ****     stack_frame->exception_stack_frame.r2  = 0;                        /* r2 */
 164:Middlewares/Third_Party/RealThread_RTOS/libcpu/arm/cortex-m4/cpuport.c ****     stack_frame->exception_stack_frame.r3  = 0;                        /* r3 */
 165:Middlewares/Third_Party/RealThread_RTOS/libcpu/arm/cortex-m4/cpuport.c ****     stack_frame->exception_stack_frame.r12 = 0;                        /* r12 */
 166:Middlewares/Third_Party/RealThread_RTOS/libcpu/arm/cortex-m4/cpuport.c ****     stack_frame->exception_stack_frame.lr  = (unsigned long)texit;     /* lr */
 167:Middlewares/Third_Party/RealThread_RTOS/libcpu/arm/cortex-m4/cpuport.c ****     stack_frame->exception_stack_frame.pc  = (unsigned long)tentry;    /* entry point, pc */
 168:Middlewares/Third_Party/RealThread_RTOS/libcpu/arm/cortex-m4/cpuport.c ****     stack_frame->exception_stack_frame.psr = 0x01000000L;              /* PSR */
 169:Middlewares/Third_Party/RealThread_RTOS/libcpu/arm/cortex-m4/cpuport.c **** 
 170:Middlewares/Third_Party/RealThread_RTOS/libcpu/arm/cortex-m4/cpuport.c **** #if USE_FPU
 171:Middlewares/Third_Party/RealThread_RTOS/libcpu/arm/cortex-m4/cpuport.c ****     stack_frame->flag = 0;
 172:Middlewares/Third_Party/RealThread_RTOS/libcpu/arm/cortex-m4/cpuport.c **** #endif /* USE_FPU */
 173:Middlewares/Third_Party/RealThread_RTOS/libcpu/arm/cortex-m4/cpuport.c **** 
 174:Middlewares/Third_Party/RealThread_RTOS/libcpu/arm/cortex-m4/cpuport.c ****     /* return task's current stack address */
 175:Middlewares/Third_Party/RealThread_RTOS/libcpu/arm/cortex-m4/cpuport.c ****     return stk;
 176:Middlewares/Third_Party/RealThread_RTOS/libcpu/arm/cortex-m4/cpuport.c **** }
 177:Middlewares/Third_Party/RealThread_RTOS/libcpu/arm/cortex-m4/cpuport.c **** 
 178:Middlewares/Third_Party/RealThread_RTOS/libcpu/arm/cortex-m4/cpuport.c **** /**
 179:Middlewares/Third_Party/RealThread_RTOS/libcpu/arm/cortex-m4/cpuport.c ****  * This function set the hook, which is invoked on fault exception handling.
 180:Middlewares/Third_Party/RealThread_RTOS/libcpu/arm/cortex-m4/cpuport.c ****  *
 181:Middlewares/Third_Party/RealThread_RTOS/libcpu/arm/cortex-m4/cpuport.c ****  * @param exception_handle the exception handling hook function.
 182:Middlewares/Third_Party/RealThread_RTOS/libcpu/arm/cortex-m4/cpuport.c ****  */
 183:Middlewares/Third_Party/RealThread_RTOS/libcpu/arm/cortex-m4/cpuport.c **** void rt_hw_exception_install(rt_err_t (*exception_handle)(void *context))
 184:Middlewares/Third_Party/RealThread_RTOS/libcpu/arm/cortex-m4/cpuport.c **** {
 185:Middlewares/Third_Party/RealThread_RTOS/libcpu/arm/cortex-m4/cpuport.c ****     rt_exception_hook = exception_handle;
 186:Middlewares/Third_Party/RealThread_RTOS/libcpu/arm/cortex-m4/cpuport.c **** }
 187:Middlewares/Third_Party/RealThread_RTOS/libcpu/arm/cortex-m4/cpuport.c **** 
 188:Middlewares/Third_Party/RealThread_RTOS/libcpu/arm/cortex-m4/cpuport.c **** #define SCB_CFSR        (*(volatile const unsigned *)0xE000ED28) /* Configurable Fault Status Regis
 189:Middlewares/Third_Party/RealThread_RTOS/libcpu/arm/cortex-m4/cpuport.c **** #define SCB_HFSR        (*(volatile const unsigned *)0xE000ED2C) /* HardFault Status Register */
 190:Middlewares/Third_Party/RealThread_RTOS/libcpu/arm/cortex-m4/cpuport.c **** #define SCB_MMAR        (*(volatile const unsigned *)0xE000ED34) /* MemManage Fault Address registe
 191:Middlewares/Third_Party/RealThread_RTOS/libcpu/arm/cortex-m4/cpuport.c **** #define SCB_BFAR        (*(volatile const unsigned *)0xE000ED38) /* Bus Fault Address Register */
 192:Middlewares/Third_Party/RealThread_RTOS/libcpu/arm/cortex-m4/cpuport.c **** #define SCB_AIRCR       (*(volatile unsigned long *)0xE000ED0C)  /* Reset control Address Register 
 193:Middlewares/Third_Party/RealThread_RTOS/libcpu/arm/cortex-m4/cpuport.c **** #define SCB_RESET_VALUE 0x05FA0004                               /* Reset value, write to SCB_AIRCR
 194:Middlewares/Third_Party/RealThread_RTOS/libcpu/arm/cortex-m4/cpuport.c **** 
 195:Middlewares/Third_Party/RealThread_RTOS/libcpu/arm/cortex-m4/cpuport.c **** #define SCB_CFSR_MFSR   (*(volatile const unsigned char*)0xE000ED28)  /* Memory-management Fault St
 196:Middlewares/Third_Party/RealThread_RTOS/libcpu/arm/cortex-m4/cpuport.c **** #define SCB_CFSR_BFSR   (*(volatile const unsigned char*)0xE000ED29)  /* Bus Fault Status Register 
 197:Middlewares/Third_Party/RealThread_RTOS/libcpu/arm/cortex-m4/cpuport.c **** #define SCB_CFSR_UFSR   (*(volatile const unsigned short*)0xE000ED2A) /* Usage Fault Status Registe
 198:Middlewares/Third_Party/RealThread_RTOS/libcpu/arm/cortex-m4/cpuport.c **** 
 199:Middlewares/Third_Party/RealThread_RTOS/libcpu/arm/cortex-m4/cpuport.c **** #ifdef RT_USING_FINSH
 200:Middlewares/Third_Party/RealThread_RTOS/libcpu/arm/cortex-m4/cpuport.c **** static void usage_fault_track(void)
 201:Middlewares/Third_Party/RealThread_RTOS/libcpu/arm/cortex-m4/cpuport.c **** {
 202:Middlewares/Third_Party/RealThread_RTOS/libcpu/arm/cortex-m4/cpuport.c ****     rt_kprintf("usage fault:\n");
 203:Middlewares/Third_Party/RealThread_RTOS/libcpu/arm/cortex-m4/cpuport.c ****     rt_kprintf("SCB_CFSR_UFSR:0x%02X ", SCB_CFSR_UFSR);
 204:Middlewares/Third_Party/RealThread_RTOS/libcpu/arm/cortex-m4/cpuport.c **** 
 205:Middlewares/Third_Party/RealThread_RTOS/libcpu/arm/cortex-m4/cpuport.c ****     if(SCB_CFSR_UFSR & (1<<0))
 206:Middlewares/Third_Party/RealThread_RTOS/libcpu/arm/cortex-m4/cpuport.c ****     {
 207:Middlewares/Third_Party/RealThread_RTOS/libcpu/arm/cortex-m4/cpuport.c ****         /* [0]:UNDEFINSTR */
 208:Middlewares/Third_Party/RealThread_RTOS/libcpu/arm/cortex-m4/cpuport.c ****         rt_kprintf("UNDEFINSTR ");
 209:Middlewares/Third_Party/RealThread_RTOS/libcpu/arm/cortex-m4/cpuport.c ****     }
 210:Middlewares/Third_Party/RealThread_RTOS/libcpu/arm/cortex-m4/cpuport.c **** 
 211:Middlewares/Third_Party/RealThread_RTOS/libcpu/arm/cortex-m4/cpuport.c ****     if(SCB_CFSR_UFSR & (1<<1))
 212:Middlewares/Third_Party/RealThread_RTOS/libcpu/arm/cortex-m4/cpuport.c ****     {
 213:Middlewares/Third_Party/RealThread_RTOS/libcpu/arm/cortex-m4/cpuport.c ****         /* [1]:INVSTATE */
 214:Middlewares/Third_Party/RealThread_RTOS/libcpu/arm/cortex-m4/cpuport.c ****         rt_kprintf("INVSTATE ");
ARM GAS  C:\Users\Administrator\AppData\Local\Temp\ccKo279t.s 			page 6


 215:Middlewares/Third_Party/RealThread_RTOS/libcpu/arm/cortex-m4/cpuport.c ****     }
 216:Middlewares/Third_Party/RealThread_RTOS/libcpu/arm/cortex-m4/cpuport.c **** 
 217:Middlewares/Third_Party/RealThread_RTOS/libcpu/arm/cortex-m4/cpuport.c ****     if(SCB_CFSR_UFSR & (1<<2))
 218:Middlewares/Third_Party/RealThread_RTOS/libcpu/arm/cortex-m4/cpuport.c ****     {
 219:Middlewares/Third_Party/RealThread_RTOS/libcpu/arm/cortex-m4/cpuport.c ****         /* [2]:INVPC */
 220:Middlewares/Third_Party/RealThread_RTOS/libcpu/arm/cortex-m4/cpuport.c ****         rt_kprintf("INVPC ");
 221:Middlewares/Third_Party/RealThread_RTOS/libcpu/arm/cortex-m4/cpuport.c ****     }
 222:Middlewares/Third_Party/RealThread_RTOS/libcpu/arm/cortex-m4/cpuport.c **** 
 223:Middlewares/Third_Party/RealThread_RTOS/libcpu/arm/cortex-m4/cpuport.c ****     if(SCB_CFSR_UFSR & (1<<3))
 224:Middlewares/Third_Party/RealThread_RTOS/libcpu/arm/cortex-m4/cpuport.c ****     {
 225:Middlewares/Third_Party/RealThread_RTOS/libcpu/arm/cortex-m4/cpuport.c ****         /* [3]:NOCP */
 226:Middlewares/Third_Party/RealThread_RTOS/libcpu/arm/cortex-m4/cpuport.c ****         rt_kprintf("NOCP ");
 227:Middlewares/Third_Party/RealThread_RTOS/libcpu/arm/cortex-m4/cpuport.c ****     }
 228:Middlewares/Third_Party/RealThread_RTOS/libcpu/arm/cortex-m4/cpuport.c **** 
 229:Middlewares/Third_Party/RealThread_RTOS/libcpu/arm/cortex-m4/cpuport.c ****     if(SCB_CFSR_UFSR & (1<<8))
 230:Middlewares/Third_Party/RealThread_RTOS/libcpu/arm/cortex-m4/cpuport.c ****     {
 231:Middlewares/Third_Party/RealThread_RTOS/libcpu/arm/cortex-m4/cpuport.c ****         /* [8]:UNALIGNED */
 232:Middlewares/Third_Party/RealThread_RTOS/libcpu/arm/cortex-m4/cpuport.c ****         rt_kprintf("UNALIGNED ");
 233:Middlewares/Third_Party/RealThread_RTOS/libcpu/arm/cortex-m4/cpuport.c ****     }
 234:Middlewares/Third_Party/RealThread_RTOS/libcpu/arm/cortex-m4/cpuport.c **** 
 235:Middlewares/Third_Party/RealThread_RTOS/libcpu/arm/cortex-m4/cpuport.c ****     if(SCB_CFSR_UFSR & (1<<9))
 236:Middlewares/Third_Party/RealThread_RTOS/libcpu/arm/cortex-m4/cpuport.c ****     {
 237:Middlewares/Third_Party/RealThread_RTOS/libcpu/arm/cortex-m4/cpuport.c ****         /* [9]:DIVBYZERO */
 238:Middlewares/Third_Party/RealThread_RTOS/libcpu/arm/cortex-m4/cpuport.c ****         rt_kprintf("DIVBYZERO ");
 239:Middlewares/Third_Party/RealThread_RTOS/libcpu/arm/cortex-m4/cpuport.c ****     }
 240:Middlewares/Third_Party/RealThread_RTOS/libcpu/arm/cortex-m4/cpuport.c **** 
 241:Middlewares/Third_Party/RealThread_RTOS/libcpu/arm/cortex-m4/cpuport.c ****     rt_kprintf("\n");
 242:Middlewares/Third_Party/RealThread_RTOS/libcpu/arm/cortex-m4/cpuport.c **** }
 243:Middlewares/Third_Party/RealThread_RTOS/libcpu/arm/cortex-m4/cpuport.c **** 
 244:Middlewares/Third_Party/RealThread_RTOS/libcpu/arm/cortex-m4/cpuport.c **** static void bus_fault_track(void)
 245:Middlewares/Third_Party/RealThread_RTOS/libcpu/arm/cortex-m4/cpuport.c **** {
  54              		.loc 1 245 1 view -0
  55              		.cfi_startproc
  56              		@ args = 0, pretend = 0, frame = 0
  57              		@ frame_needed = 0, uses_anonymous_args = 0
  58 0000 10B5     		push	{r4, lr}
  59              	.LCFI0:
  60              		.cfi_def_cfa_offset 8
  61              		.cfi_offset 4, -8
  62              		.cfi_offset 14, -4
 246:Middlewares/Third_Party/RealThread_RTOS/libcpu/arm/cortex-m4/cpuport.c ****     rt_kprintf("bus fault:\n");
  63              		.loc 1 246 5 view .LVU1
  64 0002 2648     		ldr	r0, .L16
  65 0004 FFF7FEFF 		bl	rt_kprintf
  66              	.LVL0:
 247:Middlewares/Third_Party/RealThread_RTOS/libcpu/arm/cortex-m4/cpuport.c ****     rt_kprintf("SCB_CFSR_BFSR:0x%02X ", SCB_CFSR_BFSR);
  67              		.loc 1 247 5 view .LVU2
  68              		.loc 1 247 41 is_stmt 0 view .LVU3
  69 0008 254C     		ldr	r4, .L16+4
  70 000a 94F82910 		ldrb	r1, [r4, #41]	@ zero_extendqisi2
  71              		.loc 1 247 5 view .LVU4
  72 000e 2548     		ldr	r0, .L16+8
  73 0010 FFF7FEFF 		bl	rt_kprintf
  74              	.LVL1:
 248:Middlewares/Third_Party/RealThread_RTOS/libcpu/arm/cortex-m4/cpuport.c **** 
 249:Middlewares/Third_Party/RealThread_RTOS/libcpu/arm/cortex-m4/cpuport.c ****     if(SCB_CFSR_BFSR & (1<<0))
  75              		.loc 1 249 5 is_stmt 1 view .LVU5
ARM GAS  C:\Users\Administrator\AppData\Local\Temp\ccKo279t.s 			page 7


  76              		.loc 1 249 8 is_stmt 0 view .LVU6
  77 0014 94F82930 		ldrb	r3, [r4, #41]	@ zero_extendqisi2
  78              		.loc 1 249 7 view .LVU7
  79 0018 13F0010F 		tst	r3, #1
  80 001c 21D1     		bne	.L10
  81              	.L2:
 250:Middlewares/Third_Party/RealThread_RTOS/libcpu/arm/cortex-m4/cpuport.c ****     {
 251:Middlewares/Third_Party/RealThread_RTOS/libcpu/arm/cortex-m4/cpuport.c ****         /* [0]:IBUSERR */
 252:Middlewares/Third_Party/RealThread_RTOS/libcpu/arm/cortex-m4/cpuport.c ****         rt_kprintf("IBUSERR ");
 253:Middlewares/Third_Party/RealThread_RTOS/libcpu/arm/cortex-m4/cpuport.c ****     }
 254:Middlewares/Third_Party/RealThread_RTOS/libcpu/arm/cortex-m4/cpuport.c **** 
 255:Middlewares/Third_Party/RealThread_RTOS/libcpu/arm/cortex-m4/cpuport.c ****     if(SCB_CFSR_BFSR & (1<<1))
  82              		.loc 1 255 5 is_stmt 1 view .LVU8
  83              		.loc 1 255 8 is_stmt 0 view .LVU9
  84 001e 204B     		ldr	r3, .L16+4
  85 0020 93F82930 		ldrb	r3, [r3, #41]	@ zero_extendqisi2
  86              		.loc 1 255 7 view .LVU10
  87 0024 13F0020F 		tst	r3, #2
  88 0028 1FD1     		bne	.L11
  89              	.L3:
 256:Middlewares/Third_Party/RealThread_RTOS/libcpu/arm/cortex-m4/cpuport.c ****     {
 257:Middlewares/Third_Party/RealThread_RTOS/libcpu/arm/cortex-m4/cpuport.c ****         /* [1]:PRECISERR */
 258:Middlewares/Third_Party/RealThread_RTOS/libcpu/arm/cortex-m4/cpuport.c ****         rt_kprintf("PRECISERR ");
 259:Middlewares/Third_Party/RealThread_RTOS/libcpu/arm/cortex-m4/cpuport.c ****     }
 260:Middlewares/Third_Party/RealThread_RTOS/libcpu/arm/cortex-m4/cpuport.c **** 
 261:Middlewares/Third_Party/RealThread_RTOS/libcpu/arm/cortex-m4/cpuport.c ****     if(SCB_CFSR_BFSR & (1<<2))
  90              		.loc 1 261 5 is_stmt 1 view .LVU11
  91              		.loc 1 261 8 is_stmt 0 view .LVU12
  92 002a 1D4B     		ldr	r3, .L16+4
  93 002c 93F82930 		ldrb	r3, [r3, #41]	@ zero_extendqisi2
  94              		.loc 1 261 7 view .LVU13
  95 0030 13F0040F 		tst	r3, #4
  96 0034 1DD1     		bne	.L12
  97              	.L4:
 262:Middlewares/Third_Party/RealThread_RTOS/libcpu/arm/cortex-m4/cpuport.c ****     {
 263:Middlewares/Third_Party/RealThread_RTOS/libcpu/arm/cortex-m4/cpuport.c ****         /* [2]:IMPRECISERR */
 264:Middlewares/Third_Party/RealThread_RTOS/libcpu/arm/cortex-m4/cpuport.c ****         rt_kprintf("IMPRECISERR ");
 265:Middlewares/Third_Party/RealThread_RTOS/libcpu/arm/cortex-m4/cpuport.c ****     }
 266:Middlewares/Third_Party/RealThread_RTOS/libcpu/arm/cortex-m4/cpuport.c **** 
 267:Middlewares/Third_Party/RealThread_RTOS/libcpu/arm/cortex-m4/cpuport.c ****     if(SCB_CFSR_BFSR & (1<<3))
  98              		.loc 1 267 5 is_stmt 1 view .LVU14
  99              		.loc 1 267 8 is_stmt 0 view .LVU15
 100 0036 1A4B     		ldr	r3, .L16+4
 101 0038 93F82930 		ldrb	r3, [r3, #41]	@ zero_extendqisi2
 102              		.loc 1 267 7 view .LVU16
 103 003c 13F0080F 		tst	r3, #8
 104 0040 1BD1     		bne	.L13
 105              	.L5:
 268:Middlewares/Third_Party/RealThread_RTOS/libcpu/arm/cortex-m4/cpuport.c ****     {
 269:Middlewares/Third_Party/RealThread_RTOS/libcpu/arm/cortex-m4/cpuport.c ****         /* [3]:UNSTKERR */
 270:Middlewares/Third_Party/RealThread_RTOS/libcpu/arm/cortex-m4/cpuport.c ****         rt_kprintf("UNSTKERR ");
 271:Middlewares/Third_Party/RealThread_RTOS/libcpu/arm/cortex-m4/cpuport.c ****     }
 272:Middlewares/Third_Party/RealThread_RTOS/libcpu/arm/cortex-m4/cpuport.c **** 
 273:Middlewares/Third_Party/RealThread_RTOS/libcpu/arm/cortex-m4/cpuport.c ****     if(SCB_CFSR_BFSR & (1<<4))
 106              		.loc 1 273 5 is_stmt 1 view .LVU17
 107              		.loc 1 273 8 is_stmt 0 view .LVU18
 108 0042 174B     		ldr	r3, .L16+4
ARM GAS  C:\Users\Administrator\AppData\Local\Temp\ccKo279t.s 			page 8


 109 0044 93F82930 		ldrb	r3, [r3, #41]	@ zero_extendqisi2
 110              		.loc 1 273 7 view .LVU19
 111 0048 13F0100F 		tst	r3, #16
 112 004c 19D1     		bne	.L14
 113              	.L6:
 274:Middlewares/Third_Party/RealThread_RTOS/libcpu/arm/cortex-m4/cpuport.c ****     {
 275:Middlewares/Third_Party/RealThread_RTOS/libcpu/arm/cortex-m4/cpuport.c ****         /* [4]:STKERR */
 276:Middlewares/Third_Party/RealThread_RTOS/libcpu/arm/cortex-m4/cpuport.c ****         rt_kprintf("STKERR ");
 277:Middlewares/Third_Party/RealThread_RTOS/libcpu/arm/cortex-m4/cpuport.c ****     }
 278:Middlewares/Third_Party/RealThread_RTOS/libcpu/arm/cortex-m4/cpuport.c **** 
 279:Middlewares/Third_Party/RealThread_RTOS/libcpu/arm/cortex-m4/cpuport.c ****     if(SCB_CFSR_BFSR & (1<<7))
 114              		.loc 1 279 5 is_stmt 1 view .LVU20
 115              		.loc 1 279 8 is_stmt 0 view .LVU21
 116 004e 144B     		ldr	r3, .L16+4
 117 0050 93F82930 		ldrb	r3, [r3, #41]	@ zero_extendqisi2
 118              		.loc 1 279 7 view .LVU22
 119 0054 13F0800F 		tst	r3, #128
 120 0058 17D1     		bne	.L15
 280:Middlewares/Third_Party/RealThread_RTOS/libcpu/arm/cortex-m4/cpuport.c ****     {
 281:Middlewares/Third_Party/RealThread_RTOS/libcpu/arm/cortex-m4/cpuport.c ****         rt_kprintf("SCB->BFAR:%08X\n", SCB_BFAR);
 282:Middlewares/Third_Party/RealThread_RTOS/libcpu/arm/cortex-m4/cpuport.c ****     }
 283:Middlewares/Third_Party/RealThread_RTOS/libcpu/arm/cortex-m4/cpuport.c ****     else
 284:Middlewares/Third_Party/RealThread_RTOS/libcpu/arm/cortex-m4/cpuport.c ****     {
 285:Middlewares/Third_Party/RealThread_RTOS/libcpu/arm/cortex-m4/cpuport.c ****         rt_kprintf("\n");
 121              		.loc 1 285 9 is_stmt 1 view .LVU23
 122 005a 1348     		ldr	r0, .L16+12
 123 005c FFF7FEFF 		bl	rt_kprintf
 124              	.LVL2:
 125              	.L1:
 286:Middlewares/Third_Party/RealThread_RTOS/libcpu/arm/cortex-m4/cpuport.c ****     }
 287:Middlewares/Third_Party/RealThread_RTOS/libcpu/arm/cortex-m4/cpuport.c **** }
 126              		.loc 1 287 1 is_stmt 0 view .LVU24
 127 0060 10BD     		pop	{r4, pc}
 128              	.L10:
 252:Middlewares/Third_Party/RealThread_RTOS/libcpu/arm/cortex-m4/cpuport.c ****     }
 129              		.loc 1 252 9 is_stmt 1 view .LVU25
 130 0062 1248     		ldr	r0, .L16+16
 131 0064 FFF7FEFF 		bl	rt_kprintf
 132              	.LVL3:
 133 0068 D9E7     		b	.L2
 134              	.L11:
 258:Middlewares/Third_Party/RealThread_RTOS/libcpu/arm/cortex-m4/cpuport.c ****     }
 135              		.loc 1 258 9 view .LVU26
 136 006a 1148     		ldr	r0, .L16+20
 137 006c FFF7FEFF 		bl	rt_kprintf
 138              	.LVL4:
 139 0070 DBE7     		b	.L3
 140              	.L12:
 264:Middlewares/Third_Party/RealThread_RTOS/libcpu/arm/cortex-m4/cpuport.c ****     }
 141              		.loc 1 264 9 view .LVU27
 142 0072 1048     		ldr	r0, .L16+24
 143 0074 FFF7FEFF 		bl	rt_kprintf
 144              	.LVL5:
 145 0078 DDE7     		b	.L4
 146              	.L13:
 270:Middlewares/Third_Party/RealThread_RTOS/libcpu/arm/cortex-m4/cpuport.c ****     }
 147              		.loc 1 270 9 view .LVU28
ARM GAS  C:\Users\Administrator\AppData\Local\Temp\ccKo279t.s 			page 9


 148 007a 0F48     		ldr	r0, .L16+28
 149 007c FFF7FEFF 		bl	rt_kprintf
 150              	.LVL6:
 151 0080 DFE7     		b	.L5
 152              	.L14:
 276:Middlewares/Third_Party/RealThread_RTOS/libcpu/arm/cortex-m4/cpuport.c ****     }
 153              		.loc 1 276 9 view .LVU29
 154 0082 0E48     		ldr	r0, .L16+32
 155 0084 FFF7FEFF 		bl	rt_kprintf
 156              	.LVL7:
 157 0088 E1E7     		b	.L6
 158              	.L15:
 281:Middlewares/Third_Party/RealThread_RTOS/libcpu/arm/cortex-m4/cpuport.c ****     }
 159              		.loc 1 281 9 view .LVU30
 160 008a 4FF0E023 		mov	r3, #-536813568
 161 008e D3F8381D 		ldr	r1, [r3, #3384]
 162 0092 0B48     		ldr	r0, .L16+36
 163 0094 FFF7FEFF 		bl	rt_kprintf
 164              	.LVL8:
 165 0098 E2E7     		b	.L1
 166              	.L17:
 167 009a 00BF     		.align	2
 168              	.L16:
 169 009c 00000000 		.word	.LC0
 170 00a0 00ED00E0 		.word	-536810240
 171 00a4 0C000000 		.word	.LC1
 172 00a8 70000000 		.word	.LC8
 173 00ac 24000000 		.word	.LC2
 174 00b0 30000000 		.word	.LC3
 175 00b4 3C000000 		.word	.LC4
 176 00b8 4C000000 		.word	.LC5
 177 00bc 58000000 		.word	.LC6
 178 00c0 60000000 		.word	.LC7
 179              		.cfi_endproc
 180              	.LFE18:
 182              		.section	.rodata.mem_manage_fault_track.str1.4,"aMS",%progbits,1
 183              		.align	2
 184              	.LC9:
 185 0000 6D656D20 		.ascii	"mem manage fault:\012\000"
 185      6D616E61 
 185      67652066 
 185      61756C74 
 185      3A0A00
 186 0013 00       		.align	2
 187              	.LC10:
 188 0014 5343425F 		.ascii	"SCB_CFSR_MFSR:0x%02X \000"
 188      43465352 
 188      5F4D4653 
 188      523A3078 
 188      25303258 
 189 002a 0000     		.align	2
 190              	.LC11:
 191 002c 49414343 		.ascii	"IACCVIOL \000"
 191      56494F4C 
 191      2000
 192 0036 0000     		.align	2
 193              	.LC12:
ARM GAS  C:\Users\Administrator\AppData\Local\Temp\ccKo279t.s 			page 10


 194 0038 44414343 		.ascii	"DACCVIOL \000"
 194      56494F4C 
 194      2000
 195 0042 0000     		.align	2
 196              	.LC13:
 197 0044 4D554E53 		.ascii	"MUNSTKERR \000"
 197      544B4552 
 197      522000
 198 004f 00       		.align	2
 199              	.LC14:
 200 0050 4D53544B 		.ascii	"MSTKERR \000"
 200      45525220 
 200      00
 201 0059 000000   		.align	2
 202              	.LC15:
 203 005c 5343422D 		.ascii	"SCB->MMAR:%08X\012\000"
 203      3E4D4D41 
 203      523A2530 
 203      38580A00 
 204              		.section	.text.mem_manage_fault_track,"ax",%progbits
 205              		.align	1
 206              		.syntax unified
 207              		.thumb
 208              		.thumb_func
 209              		.fpu softvfp
 211              	mem_manage_fault_track:
 212              	.LFB19:
 288:Middlewares/Third_Party/RealThread_RTOS/libcpu/arm/cortex-m4/cpuport.c **** 
 289:Middlewares/Third_Party/RealThread_RTOS/libcpu/arm/cortex-m4/cpuport.c **** static void mem_manage_fault_track(void)
 290:Middlewares/Third_Party/RealThread_RTOS/libcpu/arm/cortex-m4/cpuport.c **** {
 213              		.loc 1 290 1 view -0
 214              		.cfi_startproc
 215              		@ args = 0, pretend = 0, frame = 0
 216              		@ frame_needed = 0, uses_anonymous_args = 0
 217 0000 10B5     		push	{r4, lr}
 218              	.LCFI1:
 219              		.cfi_def_cfa_offset 8
 220              		.cfi_offset 4, -8
 221              		.cfi_offset 14, -4
 291:Middlewares/Third_Party/RealThread_RTOS/libcpu/arm/cortex-m4/cpuport.c ****     rt_kprintf("mem manage fault:\n");
 222              		.loc 1 291 5 view .LVU32
 223 0002 2148     		ldr	r0, .L31
 224 0004 FFF7FEFF 		bl	rt_kprintf
 225              	.LVL9:
 292:Middlewares/Third_Party/RealThread_RTOS/libcpu/arm/cortex-m4/cpuport.c ****     rt_kprintf("SCB_CFSR_MFSR:0x%02X ", SCB_CFSR_MFSR);
 226              		.loc 1 292 5 view .LVU33
 227              		.loc 1 292 41 is_stmt 0 view .LVU34
 228 0008 204C     		ldr	r4, .L31+4
 229 000a 94F82810 		ldrb	r1, [r4, #40]	@ zero_extendqisi2
 230              		.loc 1 292 5 view .LVU35
 231 000e 2048     		ldr	r0, .L31+8
 232 0010 FFF7FEFF 		bl	rt_kprintf
 233              	.LVL10:
 293:Middlewares/Third_Party/RealThread_RTOS/libcpu/arm/cortex-m4/cpuport.c **** 
 294:Middlewares/Third_Party/RealThread_RTOS/libcpu/arm/cortex-m4/cpuport.c ****     if(SCB_CFSR_MFSR & (1<<0))
 234              		.loc 1 294 5 is_stmt 1 view .LVU36
 235              		.loc 1 294 8 is_stmt 0 view .LVU37
ARM GAS  C:\Users\Administrator\AppData\Local\Temp\ccKo279t.s 			page 11


 236 0014 94F82830 		ldrb	r3, [r4, #40]	@ zero_extendqisi2
 237              		.loc 1 294 7 view .LVU38
 238 0018 13F0010F 		tst	r3, #1
 239 001c 1BD1     		bne	.L26
 240              	.L19:
 295:Middlewares/Third_Party/RealThread_RTOS/libcpu/arm/cortex-m4/cpuport.c ****     {
 296:Middlewares/Third_Party/RealThread_RTOS/libcpu/arm/cortex-m4/cpuport.c ****         /* [0]:IACCVIOL */
 297:Middlewares/Third_Party/RealThread_RTOS/libcpu/arm/cortex-m4/cpuport.c ****         rt_kprintf("IACCVIOL ");
 298:Middlewares/Third_Party/RealThread_RTOS/libcpu/arm/cortex-m4/cpuport.c ****     }
 299:Middlewares/Third_Party/RealThread_RTOS/libcpu/arm/cortex-m4/cpuport.c **** 
 300:Middlewares/Third_Party/RealThread_RTOS/libcpu/arm/cortex-m4/cpuport.c ****     if(SCB_CFSR_MFSR & (1<<1))
 241              		.loc 1 300 5 is_stmt 1 view .LVU39
 242              		.loc 1 300 8 is_stmt 0 view .LVU40
 243 001e 1B4B     		ldr	r3, .L31+4
 244 0020 93F82830 		ldrb	r3, [r3, #40]	@ zero_extendqisi2
 245              		.loc 1 300 7 view .LVU41
 246 0024 13F0020F 		tst	r3, #2
 247 0028 19D1     		bne	.L27
 248              	.L20:
 301:Middlewares/Third_Party/RealThread_RTOS/libcpu/arm/cortex-m4/cpuport.c ****     {
 302:Middlewares/Third_Party/RealThread_RTOS/libcpu/arm/cortex-m4/cpuport.c ****         /* [1]:DACCVIOL */
 303:Middlewares/Third_Party/RealThread_RTOS/libcpu/arm/cortex-m4/cpuport.c ****         rt_kprintf("DACCVIOL ");
 304:Middlewares/Third_Party/RealThread_RTOS/libcpu/arm/cortex-m4/cpuport.c ****     }
 305:Middlewares/Third_Party/RealThread_RTOS/libcpu/arm/cortex-m4/cpuport.c **** 
 306:Middlewares/Third_Party/RealThread_RTOS/libcpu/arm/cortex-m4/cpuport.c ****     if(SCB_CFSR_MFSR & (1<<3))
 249              		.loc 1 306 5 is_stmt 1 view .LVU42
 250              		.loc 1 306 8 is_stmt 0 view .LVU43
 251 002a 184B     		ldr	r3, .L31+4
 252 002c 93F82830 		ldrb	r3, [r3, #40]	@ zero_extendqisi2
 253              		.loc 1 306 7 view .LVU44
 254 0030 13F0080F 		tst	r3, #8
 255 0034 17D1     		bne	.L28
 256              	.L21:
 307:Middlewares/Third_Party/RealThread_RTOS/libcpu/arm/cortex-m4/cpuport.c ****     {
 308:Middlewares/Third_Party/RealThread_RTOS/libcpu/arm/cortex-m4/cpuport.c ****         /* [3]:MUNSTKERR */
 309:Middlewares/Third_Party/RealThread_RTOS/libcpu/arm/cortex-m4/cpuport.c ****         rt_kprintf("MUNSTKERR ");
 310:Middlewares/Third_Party/RealThread_RTOS/libcpu/arm/cortex-m4/cpuport.c ****     }
 311:Middlewares/Third_Party/RealThread_RTOS/libcpu/arm/cortex-m4/cpuport.c **** 
 312:Middlewares/Third_Party/RealThread_RTOS/libcpu/arm/cortex-m4/cpuport.c ****     if(SCB_CFSR_MFSR & (1<<4))
 257              		.loc 1 312 5 is_stmt 1 view .LVU45
 258              		.loc 1 312 8 is_stmt 0 view .LVU46
 259 0036 154B     		ldr	r3, .L31+4
 260 0038 93F82830 		ldrb	r3, [r3, #40]	@ zero_extendqisi2
 261              		.loc 1 312 7 view .LVU47
 262 003c 13F0100F 		tst	r3, #16
 263 0040 15D1     		bne	.L29
 264              	.L22:
 313:Middlewares/Third_Party/RealThread_RTOS/libcpu/arm/cortex-m4/cpuport.c ****     {
 314:Middlewares/Third_Party/RealThread_RTOS/libcpu/arm/cortex-m4/cpuport.c ****         /* [4]:MSTKERR */
 315:Middlewares/Third_Party/RealThread_RTOS/libcpu/arm/cortex-m4/cpuport.c ****         rt_kprintf("MSTKERR ");
 316:Middlewares/Third_Party/RealThread_RTOS/libcpu/arm/cortex-m4/cpuport.c ****     }
 317:Middlewares/Third_Party/RealThread_RTOS/libcpu/arm/cortex-m4/cpuport.c **** 
 318:Middlewares/Third_Party/RealThread_RTOS/libcpu/arm/cortex-m4/cpuport.c ****     if(SCB_CFSR_MFSR & (1<<7))
 265              		.loc 1 318 5 is_stmt 1 view .LVU48
 266              		.loc 1 318 8 is_stmt 0 view .LVU49
 267 0042 124B     		ldr	r3, .L31+4
 268 0044 93F82830 		ldrb	r3, [r3, #40]	@ zero_extendqisi2
ARM GAS  C:\Users\Administrator\AppData\Local\Temp\ccKo279t.s 			page 12


 269              		.loc 1 318 7 view .LVU50
 270 0048 13F0800F 		tst	r3, #128
 271 004c 13D1     		bne	.L30
 319:Middlewares/Third_Party/RealThread_RTOS/libcpu/arm/cortex-m4/cpuport.c ****     {
 320:Middlewares/Third_Party/RealThread_RTOS/libcpu/arm/cortex-m4/cpuport.c ****         /* [7]:MMARVALID */
 321:Middlewares/Third_Party/RealThread_RTOS/libcpu/arm/cortex-m4/cpuport.c ****         rt_kprintf("SCB->MMAR:%08X\n", SCB_MMAR);
 322:Middlewares/Third_Party/RealThread_RTOS/libcpu/arm/cortex-m4/cpuport.c ****     }
 323:Middlewares/Third_Party/RealThread_RTOS/libcpu/arm/cortex-m4/cpuport.c ****     else
 324:Middlewares/Third_Party/RealThread_RTOS/libcpu/arm/cortex-m4/cpuport.c ****     {
 325:Middlewares/Third_Party/RealThread_RTOS/libcpu/arm/cortex-m4/cpuport.c ****         rt_kprintf("\n");
 272              		.loc 1 325 9 is_stmt 1 view .LVU51
 273 004e 1148     		ldr	r0, .L31+12
 274 0050 FFF7FEFF 		bl	rt_kprintf
 275              	.LVL11:
 276              	.L18:
 326:Middlewares/Third_Party/RealThread_RTOS/libcpu/arm/cortex-m4/cpuport.c ****     }
 327:Middlewares/Third_Party/RealThread_RTOS/libcpu/arm/cortex-m4/cpuport.c **** }
 277              		.loc 1 327 1 is_stmt 0 view .LVU52
 278 0054 10BD     		pop	{r4, pc}
 279              	.L26:
 297:Middlewares/Third_Party/RealThread_RTOS/libcpu/arm/cortex-m4/cpuport.c ****     }
 280              		.loc 1 297 9 is_stmt 1 view .LVU53
 281 0056 1048     		ldr	r0, .L31+16
 282 0058 FFF7FEFF 		bl	rt_kprintf
 283              	.LVL12:
 284 005c DFE7     		b	.L19
 285              	.L27:
 303:Middlewares/Third_Party/RealThread_RTOS/libcpu/arm/cortex-m4/cpuport.c ****     }
 286              		.loc 1 303 9 view .LVU54
 287 005e 0F48     		ldr	r0, .L31+20
 288 0060 FFF7FEFF 		bl	rt_kprintf
 289              	.LVL13:
 290 0064 E1E7     		b	.L20
 291              	.L28:
 309:Middlewares/Third_Party/RealThread_RTOS/libcpu/arm/cortex-m4/cpuport.c ****     }
 292              		.loc 1 309 9 view .LVU55
 293 0066 0E48     		ldr	r0, .L31+24
 294 0068 FFF7FEFF 		bl	rt_kprintf
 295              	.LVL14:
 296 006c E3E7     		b	.L21
 297              	.L29:
 315:Middlewares/Third_Party/RealThread_RTOS/libcpu/arm/cortex-m4/cpuport.c ****     }
 298              		.loc 1 315 9 view .LVU56
 299 006e 0D48     		ldr	r0, .L31+28
 300 0070 FFF7FEFF 		bl	rt_kprintf
 301              	.LVL15:
 302 0074 E5E7     		b	.L22
 303              	.L30:
 321:Middlewares/Third_Party/RealThread_RTOS/libcpu/arm/cortex-m4/cpuport.c ****     }
 304              		.loc 1 321 9 view .LVU57
 305 0076 4FF0E023 		mov	r3, #-536813568
 306 007a D3F8341D 		ldr	r1, [r3, #3380]
 307 007e 0A48     		ldr	r0, .L31+32
 308 0080 FFF7FEFF 		bl	rt_kprintf
 309              	.LVL16:
 310 0084 E6E7     		b	.L18
 311              	.L32:
ARM GAS  C:\Users\Administrator\AppData\Local\Temp\ccKo279t.s 			page 13


 312 0086 00BF     		.align	2
 313              	.L31:
 314 0088 00000000 		.word	.LC9
 315 008c 00ED00E0 		.word	-536810240
 316 0090 14000000 		.word	.LC10
 317 0094 70000000 		.word	.LC8
 318 0098 2C000000 		.word	.LC11
 319 009c 38000000 		.word	.LC12
 320 00a0 44000000 		.word	.LC13
 321 00a4 50000000 		.word	.LC14
 322 00a8 5C000000 		.word	.LC15
 323              		.cfi_endproc
 324              	.LFE19:
 326              		.section	.rodata.usage_fault_track.str1.4,"aMS",%progbits,1
 327              		.align	2
 328              	.LC16:
 329 0000 75736167 		.ascii	"usage fault:\012\000"
 329      65206661 
 329      756C743A 
 329      0A00
 330 000e 0000     		.align	2
 331              	.LC17:
 332 0010 5343425F 		.ascii	"SCB_CFSR_UFSR:0x%02X \000"
 332      43465352 
 332      5F554653 
 332      523A3078 
 332      25303258 
 333 0026 0000     		.align	2
 334              	.LC18:
 335 0028 554E4445 		.ascii	"UNDEFINSTR \000"
 335      46494E53 
 335      54522000 
 336              		.align	2
 337              	.LC19:
 338 0034 494E5653 		.ascii	"INVSTATE \000"
 338      54415445 
 338      2000
 339 003e 0000     		.align	2
 340              	.LC20:
 341 0040 494E5650 		.ascii	"INVPC \000"
 341      432000
 342 0047 00       		.align	2
 343              	.LC21:
 344 0048 4E4F4350 		.ascii	"NOCP \000"
 344      2000
 345 004e 0000     		.align	2
 346              	.LC22:
 347 0050 554E414C 		.ascii	"UNALIGNED \000"
 347      49474E45 
 347      442000
 348 005b 00       		.align	2
 349              	.LC23:
 350 005c 44495642 		.ascii	"DIVBYZERO \000"
 350      595A4552 
 350      4F2000
 351              		.section	.text.usage_fault_track,"ax",%progbits
 352              		.align	1
ARM GAS  C:\Users\Administrator\AppData\Local\Temp\ccKo279t.s 			page 14


 353              		.syntax unified
 354              		.thumb
 355              		.thumb_func
 356              		.fpu softvfp
 358              	usage_fault_track:
 359              	.LFB17:
 201:Middlewares/Third_Party/RealThread_RTOS/libcpu/arm/cortex-m4/cpuport.c ****     rt_kprintf("usage fault:\n");
 360              		.loc 1 201 1 view -0
 361              		.cfi_startproc
 362              		@ args = 0, pretend = 0, frame = 0
 363              		@ frame_needed = 0, uses_anonymous_args = 0
 364 0000 10B5     		push	{r4, lr}
 365              	.LCFI2:
 366              		.cfi_def_cfa_offset 8
 367              		.cfi_offset 4, -8
 368              		.cfi_offset 14, -4
 202:Middlewares/Third_Party/RealThread_RTOS/libcpu/arm/cortex-m4/cpuport.c ****     rt_kprintf("SCB_CFSR_UFSR:0x%02X ", SCB_CFSR_UFSR);
 369              		.loc 1 202 5 view .LVU59
 370 0002 2148     		ldr	r0, .L47
 371 0004 FFF7FEFF 		bl	rt_kprintf
 372              	.LVL17:
 203:Middlewares/Third_Party/RealThread_RTOS/libcpu/arm/cortex-m4/cpuport.c **** 
 373              		.loc 1 203 5 view .LVU60
 203:Middlewares/Third_Party/RealThread_RTOS/libcpu/arm/cortex-m4/cpuport.c **** 
 374              		.loc 1 203 41 is_stmt 0 view .LVU61
 375 0008 204C     		ldr	r4, .L47+4
 376 000a 618D     		ldrh	r1, [r4, #42]
 203:Middlewares/Third_Party/RealThread_RTOS/libcpu/arm/cortex-m4/cpuport.c **** 
 377              		.loc 1 203 5 view .LVU62
 378 000c 89B2     		uxth	r1, r1
 379 000e 2048     		ldr	r0, .L47+8
 380 0010 FFF7FEFF 		bl	rt_kprintf
 381              	.LVL18:
 205:Middlewares/Third_Party/RealThread_RTOS/libcpu/arm/cortex-m4/cpuport.c ****     {
 382              		.loc 1 205 5 is_stmt 1 view .LVU63
 205:Middlewares/Third_Party/RealThread_RTOS/libcpu/arm/cortex-m4/cpuport.c ****     {
 383              		.loc 1 205 8 is_stmt 0 view .LVU64
 384 0014 638D     		ldrh	r3, [r4, #42]
 205:Middlewares/Third_Party/RealThread_RTOS/libcpu/arm/cortex-m4/cpuport.c ****     {
 385              		.loc 1 205 7 view .LVU65
 386 0016 13F0010F 		tst	r3, #1
 387 001a 1CD1     		bne	.L41
 388              	.L34:
 211:Middlewares/Third_Party/RealThread_RTOS/libcpu/arm/cortex-m4/cpuport.c ****     {
 389              		.loc 1 211 5 is_stmt 1 view .LVU66
 211:Middlewares/Third_Party/RealThread_RTOS/libcpu/arm/cortex-m4/cpuport.c ****     {
 390              		.loc 1 211 8 is_stmt 0 view .LVU67
 391 001c 1B4B     		ldr	r3, .L47+4
 392 001e 5B8D     		ldrh	r3, [r3, #42]
 211:Middlewares/Third_Party/RealThread_RTOS/libcpu/arm/cortex-m4/cpuport.c ****     {
 393              		.loc 1 211 7 view .LVU68
 394 0020 13F0020F 		tst	r3, #2
 395 0024 1BD1     		bne	.L42
 396              	.L35:
 217:Middlewares/Third_Party/RealThread_RTOS/libcpu/arm/cortex-m4/cpuport.c ****     {
 397              		.loc 1 217 5 is_stmt 1 view .LVU69
 217:Middlewares/Third_Party/RealThread_RTOS/libcpu/arm/cortex-m4/cpuport.c ****     {
ARM GAS  C:\Users\Administrator\AppData\Local\Temp\ccKo279t.s 			page 15


 398              		.loc 1 217 8 is_stmt 0 view .LVU70
 399 0026 194B     		ldr	r3, .L47+4
 400 0028 5B8D     		ldrh	r3, [r3, #42]
 217:Middlewares/Third_Party/RealThread_RTOS/libcpu/arm/cortex-m4/cpuport.c ****     {
 401              		.loc 1 217 7 view .LVU71
 402 002a 13F0040F 		tst	r3, #4
 403 002e 1AD1     		bne	.L43
 404              	.L36:
 223:Middlewares/Third_Party/RealThread_RTOS/libcpu/arm/cortex-m4/cpuport.c ****     {
 405              		.loc 1 223 5 is_stmt 1 view .LVU72
 223:Middlewares/Third_Party/RealThread_RTOS/libcpu/arm/cortex-m4/cpuport.c ****     {
 406              		.loc 1 223 8 is_stmt 0 view .LVU73
 407 0030 164B     		ldr	r3, .L47+4
 408 0032 5B8D     		ldrh	r3, [r3, #42]
 223:Middlewares/Third_Party/RealThread_RTOS/libcpu/arm/cortex-m4/cpuport.c ****     {
 409              		.loc 1 223 7 view .LVU74
 410 0034 13F0080F 		tst	r3, #8
 411 0038 19D1     		bne	.L44
 412              	.L37:
 229:Middlewares/Third_Party/RealThread_RTOS/libcpu/arm/cortex-m4/cpuport.c ****     {
 413              		.loc 1 229 5 is_stmt 1 view .LVU75
 229:Middlewares/Third_Party/RealThread_RTOS/libcpu/arm/cortex-m4/cpuport.c ****     {
 414              		.loc 1 229 8 is_stmt 0 view .LVU76
 415 003a 144B     		ldr	r3, .L47+4
 416 003c 5B8D     		ldrh	r3, [r3, #42]
 229:Middlewares/Third_Party/RealThread_RTOS/libcpu/arm/cortex-m4/cpuport.c ****     {
 417              		.loc 1 229 7 view .LVU77
 418 003e 13F4807F 		tst	r3, #256
 419 0042 18D1     		bne	.L45
 420              	.L38:
 235:Middlewares/Third_Party/RealThread_RTOS/libcpu/arm/cortex-m4/cpuport.c ****     {
 421              		.loc 1 235 5 is_stmt 1 view .LVU78
 235:Middlewares/Third_Party/RealThread_RTOS/libcpu/arm/cortex-m4/cpuport.c ****     {
 422              		.loc 1 235 8 is_stmt 0 view .LVU79
 423 0044 114B     		ldr	r3, .L47+4
 424 0046 5B8D     		ldrh	r3, [r3, #42]
 235:Middlewares/Third_Party/RealThread_RTOS/libcpu/arm/cortex-m4/cpuport.c ****     {
 425              		.loc 1 235 7 view .LVU80
 426 0048 13F4007F 		tst	r3, #512
 427 004c 17D1     		bne	.L46
 428              	.L39:
 241:Middlewares/Third_Party/RealThread_RTOS/libcpu/arm/cortex-m4/cpuport.c **** }
 429              		.loc 1 241 5 is_stmt 1 view .LVU81
 430 004e 1148     		ldr	r0, .L47+12
 431 0050 FFF7FEFF 		bl	rt_kprintf
 432              	.LVL19:
 242:Middlewares/Third_Party/RealThread_RTOS/libcpu/arm/cortex-m4/cpuport.c **** 
 433              		.loc 1 242 1 is_stmt 0 view .LVU82
 434 0054 10BD     		pop	{r4, pc}
 435              	.L41:
 208:Middlewares/Third_Party/RealThread_RTOS/libcpu/arm/cortex-m4/cpuport.c ****     }
 436              		.loc 1 208 9 is_stmt 1 view .LVU83
 437 0056 1048     		ldr	r0, .L47+16
 438 0058 FFF7FEFF 		bl	rt_kprintf
 439              	.LVL20:
 440 005c DEE7     		b	.L34
 441              	.L42:
ARM GAS  C:\Users\Administrator\AppData\Local\Temp\ccKo279t.s 			page 16


 214:Middlewares/Third_Party/RealThread_RTOS/libcpu/arm/cortex-m4/cpuport.c ****     }
 442              		.loc 1 214 9 view .LVU84
 443 005e 0F48     		ldr	r0, .L47+20
 444 0060 FFF7FEFF 		bl	rt_kprintf
 445              	.LVL21:
 446 0064 DFE7     		b	.L35
 447              	.L43:
 220:Middlewares/Third_Party/RealThread_RTOS/libcpu/arm/cortex-m4/cpuport.c ****     }
 448              		.loc 1 220 9 view .LVU85
 449 0066 0E48     		ldr	r0, .L47+24
 450 0068 FFF7FEFF 		bl	rt_kprintf
 451              	.LVL22:
 452 006c E0E7     		b	.L36
 453              	.L44:
 226:Middlewares/Third_Party/RealThread_RTOS/libcpu/arm/cortex-m4/cpuport.c ****     }
 454              		.loc 1 226 9 view .LVU86
 455 006e 0D48     		ldr	r0, .L47+28
 456 0070 FFF7FEFF 		bl	rt_kprintf
 457              	.LVL23:
 458 0074 E1E7     		b	.L37
 459              	.L45:
 232:Middlewares/Third_Party/RealThread_RTOS/libcpu/arm/cortex-m4/cpuport.c ****     }
 460              		.loc 1 232 9 view .LVU87
 461 0076 0C48     		ldr	r0, .L47+32
 462 0078 FFF7FEFF 		bl	rt_kprintf
 463              	.LVL24:
 464 007c E2E7     		b	.L38
 465              	.L46:
 238:Middlewares/Third_Party/RealThread_RTOS/libcpu/arm/cortex-m4/cpuport.c ****     }
 466              		.loc 1 238 9 view .LVU88
 467 007e 0B48     		ldr	r0, .L47+36
 468 0080 FFF7FEFF 		bl	rt_kprintf
 469              	.LVL25:
 470 0084 E3E7     		b	.L39
 471              	.L48:
 472 0086 00BF     		.align	2
 473              	.L47:
 474 0088 00000000 		.word	.LC16
 475 008c 00ED00E0 		.word	-536810240
 476 0090 10000000 		.word	.LC17
 477 0094 70000000 		.word	.LC8
 478 0098 28000000 		.word	.LC18
 479 009c 34000000 		.word	.LC19
 480 00a0 40000000 		.word	.LC20
 481 00a4 48000000 		.word	.LC21
 482 00a8 50000000 		.word	.LC22
 483 00ac 5C000000 		.word	.LC23
 484              		.cfi_endproc
 485              	.LFE17:
 487              		.section	.rodata.hard_fault_track.str1.4,"aMS",%progbits,1
 488              		.align	2
 489              	.LC24:
 490 0000 6661696C 		.ascii	"failed vector fetch\012\000"
 490      65642076 
 490      6563746F 
 490      72206665 
 490      7463680A 
ARM GAS  C:\Users\Administrator\AppData\Local\Temp\ccKo279t.s 			page 17


 491 0015 000000   		.align	2
 492              	.LC25:
 493 0018 64656275 		.ascii	"debug event\012\000"
 493      67206576 
 493      656E740A 
 493      00
 494              		.section	.text.hard_fault_track,"ax",%progbits
 495              		.align	1
 496              		.syntax unified
 497              		.thumb
 498              		.thumb_func
 499              		.fpu softvfp
 501              	hard_fault_track:
 502              	.LFB20:
 328:Middlewares/Third_Party/RealThread_RTOS/libcpu/arm/cortex-m4/cpuport.c **** 
 329:Middlewares/Third_Party/RealThread_RTOS/libcpu/arm/cortex-m4/cpuport.c **** static void hard_fault_track(void)
 330:Middlewares/Third_Party/RealThread_RTOS/libcpu/arm/cortex-m4/cpuport.c **** {
 503              		.loc 1 330 1 view -0
 504              		.cfi_startproc
 505              		@ args = 0, pretend = 0, frame = 0
 506              		@ frame_needed = 0, uses_anonymous_args = 0
 507 0000 08B5     		push	{r3, lr}
 508              	.LCFI3:
 509              		.cfi_def_cfa_offset 8
 510              		.cfi_offset 3, -8
 511              		.cfi_offset 14, -4
 331:Middlewares/Third_Party/RealThread_RTOS/libcpu/arm/cortex-m4/cpuport.c ****     if(SCB_HFSR & (1UL<<1))
 512              		.loc 1 331 5 view .LVU90
 513              		.loc 1 331 8 is_stmt 0 view .LVU91
 514 0002 4FF0E023 		mov	r3, #-536813568
 515 0006 D3F82C3D 		ldr	r3, [r3, #3372]
 516              		.loc 1 331 7 view .LVU92
 517 000a 13F0020F 		tst	r3, #2
 518 000e 19D1     		bne	.L56
 519              	.L50:
 332:Middlewares/Third_Party/RealThread_RTOS/libcpu/arm/cortex-m4/cpuport.c ****     {
 333:Middlewares/Third_Party/RealThread_RTOS/libcpu/arm/cortex-m4/cpuport.c ****         /* [1]:VECTBL, Indicates hard fault is caused by failed vector fetch. */
 334:Middlewares/Third_Party/RealThread_RTOS/libcpu/arm/cortex-m4/cpuport.c ****         rt_kprintf("failed vector fetch\n");
 335:Middlewares/Third_Party/RealThread_RTOS/libcpu/arm/cortex-m4/cpuport.c ****     }
 336:Middlewares/Third_Party/RealThread_RTOS/libcpu/arm/cortex-m4/cpuport.c **** 
 337:Middlewares/Third_Party/RealThread_RTOS/libcpu/arm/cortex-m4/cpuport.c ****     if(SCB_HFSR & (1UL<<30))
 520              		.loc 1 337 5 is_stmt 1 view .LVU93
 521              		.loc 1 337 8 is_stmt 0 view .LVU94
 522 0010 4FF0E023 		mov	r3, #-536813568
 523 0014 D3F82C3D 		ldr	r3, [r3, #3372]
 524              		.loc 1 337 7 view .LVU95
 525 0018 13F0804F 		tst	r3, #1073741824
 526 001c 0BD0     		beq	.L51
 338:Middlewares/Third_Party/RealThread_RTOS/libcpu/arm/cortex-m4/cpuport.c ****     {
 339:Middlewares/Third_Party/RealThread_RTOS/libcpu/arm/cortex-m4/cpuport.c ****         /* [30]:FORCED, Indicates hard fault is taken because of bus fault,
 340:Middlewares/Third_Party/RealThread_RTOS/libcpu/arm/cortex-m4/cpuport.c ****                         memory management fault, or usage fault. */
 341:Middlewares/Third_Party/RealThread_RTOS/libcpu/arm/cortex-m4/cpuport.c ****         if(SCB_CFSR_BFSR)
 527              		.loc 1 341 9 is_stmt 1 view .LVU96
 528              		.loc 1 341 12 is_stmt 0 view .LVU97
 529 001e 124B     		ldr	r3, .L61
 530 0020 93F82930 		ldrb	r3, [r3, #41]	@ zero_extendqisi2
 531              		.loc 1 341 11 view .LVU98
ARM GAS  C:\Users\Administrator\AppData\Local\Temp\ccKo279t.s 			page 18


 532 0024 93B9     		cbnz	r3, .L57
 533              	.L52:
 342:Middlewares/Third_Party/RealThread_RTOS/libcpu/arm/cortex-m4/cpuport.c ****         {
 343:Middlewares/Third_Party/RealThread_RTOS/libcpu/arm/cortex-m4/cpuport.c ****             bus_fault_track();
 344:Middlewares/Third_Party/RealThread_RTOS/libcpu/arm/cortex-m4/cpuport.c ****         }
 345:Middlewares/Third_Party/RealThread_RTOS/libcpu/arm/cortex-m4/cpuport.c **** 
 346:Middlewares/Third_Party/RealThread_RTOS/libcpu/arm/cortex-m4/cpuport.c ****         if(SCB_CFSR_MFSR)
 534              		.loc 1 346 9 is_stmt 1 view .LVU99
 535              		.loc 1 346 12 is_stmt 0 view .LVU100
 536 0026 104B     		ldr	r3, .L61
 537 0028 93F82830 		ldrb	r3, [r3, #40]	@ zero_extendqisi2
 538              		.loc 1 346 11 view .LVU101
 539 002c 8BB9     		cbnz	r3, .L58
 540              	.L53:
 347:Middlewares/Third_Party/RealThread_RTOS/libcpu/arm/cortex-m4/cpuport.c ****         {
 348:Middlewares/Third_Party/RealThread_RTOS/libcpu/arm/cortex-m4/cpuport.c ****             mem_manage_fault_track();
 349:Middlewares/Third_Party/RealThread_RTOS/libcpu/arm/cortex-m4/cpuport.c ****         }
 350:Middlewares/Third_Party/RealThread_RTOS/libcpu/arm/cortex-m4/cpuport.c **** 
 351:Middlewares/Third_Party/RealThread_RTOS/libcpu/arm/cortex-m4/cpuport.c ****         if(SCB_CFSR_UFSR)
 541              		.loc 1 351 9 is_stmt 1 view .LVU102
 542              		.loc 1 351 12 is_stmt 0 view .LVU103
 543 002e 0E4B     		ldr	r3, .L61
 544 0030 5B8D     		ldrh	r3, [r3, #42]
 545 0032 9BB2     		uxth	r3, r3
 546              		.loc 1 351 11 view .LVU104
 547 0034 83B9     		cbnz	r3, .L59
 548              	.L51:
 352:Middlewares/Third_Party/RealThread_RTOS/libcpu/arm/cortex-m4/cpuport.c ****         {
 353:Middlewares/Third_Party/RealThread_RTOS/libcpu/arm/cortex-m4/cpuport.c ****             usage_fault_track();
 354:Middlewares/Third_Party/RealThread_RTOS/libcpu/arm/cortex-m4/cpuport.c ****         }
 355:Middlewares/Third_Party/RealThread_RTOS/libcpu/arm/cortex-m4/cpuport.c ****     }
 356:Middlewares/Third_Party/RealThread_RTOS/libcpu/arm/cortex-m4/cpuport.c **** 
 357:Middlewares/Third_Party/RealThread_RTOS/libcpu/arm/cortex-m4/cpuport.c ****     if(SCB_HFSR & (1UL<<31))
 549              		.loc 1 357 5 is_stmt 1 view .LVU105
 550              		.loc 1 357 8 is_stmt 0 view .LVU106
 551 0036 4FF0E023 		mov	r3, #-536813568
 552 003a D3F82C3D 		ldr	r3, [r3, #3372]
 553              		.loc 1 357 7 view .LVU107
 554 003e 002B     		cmp	r3, #0
 555 0040 0DDB     		blt	.L60
 556              	.L49:
 358:Middlewares/Third_Party/RealThread_RTOS/libcpu/arm/cortex-m4/cpuport.c ****     {
 359:Middlewares/Third_Party/RealThread_RTOS/libcpu/arm/cortex-m4/cpuport.c ****         /* [31]:DEBUGEVT, Indicates hard fault is triggered by debug event. */
 360:Middlewares/Third_Party/RealThread_RTOS/libcpu/arm/cortex-m4/cpuport.c ****         rt_kprintf("debug event\n");
 361:Middlewares/Third_Party/RealThread_RTOS/libcpu/arm/cortex-m4/cpuport.c ****     }
 362:Middlewares/Third_Party/RealThread_RTOS/libcpu/arm/cortex-m4/cpuport.c **** }
 557              		.loc 1 362 1 view .LVU108
 558 0042 08BD     		pop	{r3, pc}
 559              	.L56:
 334:Middlewares/Third_Party/RealThread_RTOS/libcpu/arm/cortex-m4/cpuport.c ****     }
 560              		.loc 1 334 9 is_stmt 1 view .LVU109
 561 0044 0948     		ldr	r0, .L61+4
 562 0046 FFF7FEFF 		bl	rt_kprintf
 563              	.LVL26:
 564 004a E1E7     		b	.L50
 565              	.L57:
 343:Middlewares/Third_Party/RealThread_RTOS/libcpu/arm/cortex-m4/cpuport.c ****         }
ARM GAS  C:\Users\Administrator\AppData\Local\Temp\ccKo279t.s 			page 19


 566              		.loc 1 343 13 view .LVU110
 567 004c FFF7FEFF 		bl	bus_fault_track
 568              	.LVL27:
 569 0050 E9E7     		b	.L52
 570              	.L58:
 348:Middlewares/Third_Party/RealThread_RTOS/libcpu/arm/cortex-m4/cpuport.c ****         }
 571              		.loc 1 348 13 view .LVU111
 572 0052 FFF7FEFF 		bl	mem_manage_fault_track
 573              	.LVL28:
 574 0056 EAE7     		b	.L53
 575              	.L59:
 353:Middlewares/Third_Party/RealThread_RTOS/libcpu/arm/cortex-m4/cpuport.c ****         }
 576              		.loc 1 353 13 view .LVU112
 577 0058 FFF7FEFF 		bl	usage_fault_track
 578              	.LVL29:
 579 005c EBE7     		b	.L51
 580              	.L60:
 360:Middlewares/Third_Party/RealThread_RTOS/libcpu/arm/cortex-m4/cpuport.c ****     }
 581              		.loc 1 360 9 view .LVU113
 582 005e 0448     		ldr	r0, .L61+8
 583 0060 FFF7FEFF 		bl	rt_kprintf
 584              	.LVL30:
 585              		.loc 1 362 1 is_stmt 0 view .LVU114
 586 0064 EDE7     		b	.L49
 587              	.L62:
 588 0066 00BF     		.align	2
 589              	.L61:
 590 0068 00ED00E0 		.word	-536810240
 591 006c 00000000 		.word	.LC24
 592 0070 18000000 		.word	.LC25
 593              		.cfi_endproc
 594              	.LFE20:
 596              		.section	.text.rt_hw_stack_init,"ax",%progbits
 597              		.align	1
 598              		.global	rt_hw_stack_init
 599              		.syntax unified
 600              		.thumb
 601              		.thumb_func
 602              		.fpu softvfp
 604              	rt_hw_stack_init:
 605              	.LVL31:
 606              	.LFB15:
 144:Middlewares/Third_Party/RealThread_RTOS/libcpu/arm/cortex-m4/cpuport.c ****     struct stack_frame *stack_frame;
 607              		.loc 1 144 1 is_stmt 1 view -0
 608              		.cfi_startproc
 609              		@ args = 0, pretend = 0, frame = 0
 610              		@ frame_needed = 0, uses_anonymous_args = 0
 611              		@ link register save eliminated.
 144:Middlewares/Third_Party/RealThread_RTOS/libcpu/arm/cortex-m4/cpuport.c ****     struct stack_frame *stack_frame;
 612              		.loc 1 144 1 is_stmt 0 view .LVU116
 613 0000 30B4     		push	{r4, r5}
 614              	.LCFI4:
 615              		.cfi_def_cfa_offset 8
 616              		.cfi_offset 4, -8
 617              		.cfi_offset 5, -4
 618 0002 0546     		mov	r5, r0
 145:Middlewares/Third_Party/RealThread_RTOS/libcpu/arm/cortex-m4/cpuport.c ****     rt_uint8_t         *stk;
ARM GAS  C:\Users\Administrator\AppData\Local\Temp\ccKo279t.s 			page 20


 619              		.loc 1 145 5 is_stmt 1 view .LVU117
 146:Middlewares/Third_Party/RealThread_RTOS/libcpu/arm/cortex-m4/cpuport.c ****     unsigned long       i;
 620              		.loc 1 146 5 view .LVU118
 147:Middlewares/Third_Party/RealThread_RTOS/libcpu/arm/cortex-m4/cpuport.c **** 
 621              		.loc 1 147 5 view .LVU119
 149:Middlewares/Third_Party/RealThread_RTOS/libcpu/arm/cortex-m4/cpuport.c ****     stk  = (rt_uint8_t *)RT_ALIGN_DOWN((rt_uint32_t)stk, 8);
 622              		.loc 1 149 5 view .LVU120
 149:Middlewares/Third_Party/RealThread_RTOS/libcpu/arm/cortex-m4/cpuport.c ****     stk  = (rt_uint8_t *)RT_ALIGN_DOWN((rt_uint32_t)stk, 8);
 623              		.loc 1 149 10 is_stmt 0 view .LVU121
 624 0004 0432     		adds	r2, r2, #4
 625              	.LVL32:
 150:Middlewares/Third_Party/RealThread_RTOS/libcpu/arm/cortex-m4/cpuport.c ****     stk -= sizeof(struct stack_frame);
 626              		.loc 1 150 5 is_stmt 1 view .LVU122
 150:Middlewares/Third_Party/RealThread_RTOS/libcpu/arm/cortex-m4/cpuport.c ****     stk -= sizeof(struct stack_frame);
 627              		.loc 1 150 26 is_stmt 0 view .LVU123
 628 0006 22F0070C 		bic	ip, r2, #7
 629              	.LVL33:
 151:Middlewares/Third_Party/RealThread_RTOS/libcpu/arm/cortex-m4/cpuport.c **** 
 630              		.loc 1 151 5 is_stmt 1 view .LVU124
 151:Middlewares/Third_Party/RealThread_RTOS/libcpu/arm/cortex-m4/cpuport.c **** 
 631              		.loc 1 151 9 is_stmt 0 view .LVU125
 632 000a ACF14000 		sub	r0, ip, #64
 633              	.LVL34:
 153:Middlewares/Third_Party/RealThread_RTOS/libcpu/arm/cortex-m4/cpuport.c **** 
 634              		.loc 1 153 5 is_stmt 1 view .LVU126
 156:Middlewares/Third_Party/RealThread_RTOS/libcpu/arm/cortex-m4/cpuport.c ****     {
 635              		.loc 1 156 5 view .LVU127
 156:Middlewares/Third_Party/RealThread_RTOS/libcpu/arm/cortex-m4/cpuport.c ****     {
 636              		.loc 1 156 12 is_stmt 0 view .LVU128
 637 000e 0022     		movs	r2, #0
 638              	.LVL35:
 156:Middlewares/Third_Party/RealThread_RTOS/libcpu/arm/cortex-m4/cpuport.c ****     {
 639              		.loc 1 156 5 view .LVU129
 640 0010 03E0     		b	.L64
 641              	.LVL36:
 642              	.L65:
 158:Middlewares/Third_Party/RealThread_RTOS/libcpu/arm/cortex-m4/cpuport.c ****     }
 643              		.loc 1 158 9 is_stmt 1 discriminator 3 view .LVU130
 158:Middlewares/Third_Party/RealThread_RTOS/libcpu/arm/cortex-m4/cpuport.c ****     }
 644              		.loc 1 158 41 is_stmt 0 discriminator 3 view .LVU131
 645 0012 0D4C     		ldr	r4, .L67
 646 0014 40F82240 		str	r4, [r0, r2, lsl #2]
 156:Middlewares/Third_Party/RealThread_RTOS/libcpu/arm/cortex-m4/cpuport.c ****     {
 647              		.loc 1 156 71 is_stmt 1 discriminator 3 view .LVU132
 156:Middlewares/Third_Party/RealThread_RTOS/libcpu/arm/cortex-m4/cpuport.c ****     {
 648              		.loc 1 156 73 is_stmt 0 discriminator 3 view .LVU133
 649 0018 0132     		adds	r2, r2, #1
 650              	.LVL37:
 651              	.L64:
 156:Middlewares/Third_Party/RealThread_RTOS/libcpu/arm/cortex-m4/cpuport.c ****     {
 652              		.loc 1 156 17 is_stmt 1 discriminator 1 view .LVU134
 156:Middlewares/Third_Party/RealThread_RTOS/libcpu/arm/cortex-m4/cpuport.c ****     {
 653              		.loc 1 156 5 is_stmt 0 discriminator 1 view .LVU135
 654 001a 0F2A     		cmp	r2, #15
 655 001c F9D9     		bls	.L65
 161:Middlewares/Third_Party/RealThread_RTOS/libcpu/arm/cortex-m4/cpuport.c ****     stack_frame->exception_stack_frame.r1  = 0;                        /* r1 */
 656              		.loc 1 161 5 is_stmt 1 view .LVU136
ARM GAS  C:\Users\Administrator\AppData\Local\Temp\ccKo279t.s 			page 21


 161:Middlewares/Third_Party/RealThread_RTOS/libcpu/arm/cortex-m4/cpuport.c ****     stack_frame->exception_stack_frame.r1  = 0;                        /* r1 */
 657              		.loc 1 161 44 is_stmt 0 view .LVU137
 658 001e 4CF8201C 		str	r1, [ip, #-32]
 162:Middlewares/Third_Party/RealThread_RTOS/libcpu/arm/cortex-m4/cpuport.c ****     stack_frame->exception_stack_frame.r2  = 0;                        /* r2 */
 659              		.loc 1 162 5 is_stmt 1 view .LVU138
 162:Middlewares/Third_Party/RealThread_RTOS/libcpu/arm/cortex-m4/cpuport.c ****     stack_frame->exception_stack_frame.r2  = 0;                        /* r2 */
 660              		.loc 1 162 44 is_stmt 0 view .LVU139
 661 0022 0022     		movs	r2, #0
 662              	.LVL38:
 162:Middlewares/Third_Party/RealThread_RTOS/libcpu/arm/cortex-m4/cpuport.c ****     stack_frame->exception_stack_frame.r2  = 0;                        /* r2 */
 663              		.loc 1 162 44 view .LVU140
 664 0024 4CF81C2C 		str	r2, [ip, #-28]
 163:Middlewares/Third_Party/RealThread_RTOS/libcpu/arm/cortex-m4/cpuport.c ****     stack_frame->exception_stack_frame.r3  = 0;                        /* r3 */
 665              		.loc 1 163 5 is_stmt 1 view .LVU141
 163:Middlewares/Third_Party/RealThread_RTOS/libcpu/arm/cortex-m4/cpuport.c ****     stack_frame->exception_stack_frame.r3  = 0;                        /* r3 */
 666              		.loc 1 163 44 is_stmt 0 view .LVU142
 667 0028 4CF8182C 		str	r2, [ip, #-24]
 164:Middlewares/Third_Party/RealThread_RTOS/libcpu/arm/cortex-m4/cpuport.c ****     stack_frame->exception_stack_frame.r12 = 0;                        /* r12 */
 668              		.loc 1 164 5 is_stmt 1 view .LVU143
 164:Middlewares/Third_Party/RealThread_RTOS/libcpu/arm/cortex-m4/cpuport.c ****     stack_frame->exception_stack_frame.r12 = 0;                        /* r12 */
 669              		.loc 1 164 44 is_stmt 0 view .LVU144
 670 002c 4CF8142C 		str	r2, [ip, #-20]
 165:Middlewares/Third_Party/RealThread_RTOS/libcpu/arm/cortex-m4/cpuport.c ****     stack_frame->exception_stack_frame.lr  = (unsigned long)texit;     /* lr */
 671              		.loc 1 165 5 is_stmt 1 view .LVU145
 165:Middlewares/Third_Party/RealThread_RTOS/libcpu/arm/cortex-m4/cpuport.c ****     stack_frame->exception_stack_frame.lr  = (unsigned long)texit;     /* lr */
 672              		.loc 1 165 44 is_stmt 0 view .LVU146
 673 0030 4CF8102C 		str	r2, [ip, #-16]
 166:Middlewares/Third_Party/RealThread_RTOS/libcpu/arm/cortex-m4/cpuport.c ****     stack_frame->exception_stack_frame.pc  = (unsigned long)tentry;    /* entry point, pc */
 674              		.loc 1 166 5 is_stmt 1 view .LVU147
 166:Middlewares/Third_Party/RealThread_RTOS/libcpu/arm/cortex-m4/cpuport.c ****     stack_frame->exception_stack_frame.pc  = (unsigned long)tentry;    /* entry point, pc */
 675              		.loc 1 166 44 is_stmt 0 view .LVU148
 676 0034 4CF80C3C 		str	r3, [ip, #-12]
 167:Middlewares/Third_Party/RealThread_RTOS/libcpu/arm/cortex-m4/cpuport.c ****     stack_frame->exception_stack_frame.psr = 0x01000000L;              /* PSR */
 677              		.loc 1 167 5 is_stmt 1 view .LVU149
 167:Middlewares/Third_Party/RealThread_RTOS/libcpu/arm/cortex-m4/cpuport.c ****     stack_frame->exception_stack_frame.psr = 0x01000000L;              /* PSR */
 678              		.loc 1 167 44 is_stmt 0 view .LVU150
 679 0038 4CF8085C 		str	r5, [ip, #-8]
 168:Middlewares/Third_Party/RealThread_RTOS/libcpu/arm/cortex-m4/cpuport.c **** 
 680              		.loc 1 168 5 is_stmt 1 view .LVU151
 168:Middlewares/Third_Party/RealThread_RTOS/libcpu/arm/cortex-m4/cpuport.c **** 
 681              		.loc 1 168 44 is_stmt 0 view .LVU152
 682 003c 4FF08073 		mov	r3, #16777216
 683              	.LVL39:
 168:Middlewares/Third_Party/RealThread_RTOS/libcpu/arm/cortex-m4/cpuport.c **** 
 684              		.loc 1 168 44 view .LVU153
 685 0040 4CF8043C 		str	r3, [ip, #-4]
 175:Middlewares/Third_Party/RealThread_RTOS/libcpu/arm/cortex-m4/cpuport.c **** }
 686              		.loc 1 175 5 is_stmt 1 view .LVU154
 176:Middlewares/Third_Party/RealThread_RTOS/libcpu/arm/cortex-m4/cpuport.c **** 
 687              		.loc 1 176 1 is_stmt 0 view .LVU155
 688 0044 30BC     		pop	{r4, r5}
 689              	.LCFI5:
 690              		.cfi_restore 5
 691              		.cfi_restore 4
 692              		.cfi_def_cfa_offset 0
 693              	.LVL40:
 176:Middlewares/Third_Party/RealThread_RTOS/libcpu/arm/cortex-m4/cpuport.c **** 
ARM GAS  C:\Users\Administrator\AppData\Local\Temp\ccKo279t.s 			page 22


 694              		.loc 1 176 1 view .LVU156
 695 0046 7047     		bx	lr
 696              	.L68:
 697              		.align	2
 698              	.L67:
 699 0048 EFBEADDE 		.word	-559038737
 700              		.cfi_endproc
 701              	.LFE15:
 703              		.section	.text.rt_hw_exception_install,"ax",%progbits
 704              		.align	1
 705              		.global	rt_hw_exception_install
 706              		.syntax unified
 707              		.thumb
 708              		.thumb_func
 709              		.fpu softvfp
 711              	rt_hw_exception_install:
 712              	.LVL41:
 713              	.LFB16:
 184:Middlewares/Third_Party/RealThread_RTOS/libcpu/arm/cortex-m4/cpuport.c ****     rt_exception_hook = exception_handle;
 714              		.loc 1 184 1 is_stmt 1 view -0
 715              		.cfi_startproc
 716              		@ args = 0, pretend = 0, frame = 0
 717              		@ frame_needed = 0, uses_anonymous_args = 0
 718              		@ link register save eliminated.
 185:Middlewares/Third_Party/RealThread_RTOS/libcpu/arm/cortex-m4/cpuport.c **** }
 719              		.loc 1 185 5 view .LVU158
 185:Middlewares/Third_Party/RealThread_RTOS/libcpu/arm/cortex-m4/cpuport.c **** }
 720              		.loc 1 185 23 is_stmt 0 view .LVU159
 721 0000 014B     		ldr	r3, .L70
 722 0002 1860     		str	r0, [r3]
 186:Middlewares/Third_Party/RealThread_RTOS/libcpu/arm/cortex-m4/cpuport.c **** 
 723              		.loc 1 186 1 view .LVU160
 724 0004 7047     		bx	lr
 725              	.L71:
 726 0006 00BF     		.align	2
 727              	.L70:
 728 0008 00000000 		.word	.LANCHOR0
 729              		.cfi_endproc
 730              	.LFE16:
 732              		.section	.rodata.rt_hw_hard_fault_exception.str1.4,"aMS",%progbits,1
 733              		.align	2
 734              	.LC26:
 735 0000 7073723A 		.ascii	"psr: 0x%08x\012\000"
 735      20307825 
 735      3038780A 
 735      00
 736 000d 000000   		.align	2
 737              	.LC27:
 738 0010 7230303A 		.ascii	"r00: 0x%08x\012\000"
 738      20307825 
 738      3038780A 
 738      00
 739 001d 000000   		.align	2
 740              	.LC28:
 741 0020 7230313A 		.ascii	"r01: 0x%08x\012\000"
 741      20307825 
 741      3038780A 
ARM GAS  C:\Users\Administrator\AppData\Local\Temp\ccKo279t.s 			page 23


 741      00
 742 002d 000000   		.align	2
 743              	.LC29:
 744 0030 7230323A 		.ascii	"r02: 0x%08x\012\000"
 744      20307825 
 744      3038780A 
 744      00
 745 003d 000000   		.align	2
 746              	.LC30:
 747 0040 7230333A 		.ascii	"r03: 0x%08x\012\000"
 747      20307825 
 747      3038780A 
 747      00
 748 004d 000000   		.align	2
 749              	.LC31:
 750 0050 7230343A 		.ascii	"r04: 0x%08x\012\000"
 750      20307825 
 750      3038780A 
 750      00
 751 005d 000000   		.align	2
 752              	.LC32:
 753 0060 7230353A 		.ascii	"r05: 0x%08x\012\000"
 753      20307825 
 753      3038780A 
 753      00
 754 006d 000000   		.align	2
 755              	.LC33:
 756 0070 7230363A 		.ascii	"r06: 0x%08x\012\000"
 756      20307825 
 756      3038780A 
 756      00
 757 007d 000000   		.align	2
 758              	.LC34:
 759 0080 7230373A 		.ascii	"r07: 0x%08x\012\000"
 759      20307825 
 759      3038780A 
 759      00
 760 008d 000000   		.align	2
 761              	.LC35:
 762 0090 7230383A 		.ascii	"r08: 0x%08x\012\000"
 762      20307825 
 762      3038780A 
 762      00
 763 009d 000000   		.align	2
 764              	.LC36:
 765 00a0 7230393A 		.ascii	"r09: 0x%08x\012\000"
 765      20307825 
 765      3038780A 
 765      00
 766 00ad 000000   		.align	2
 767              	.LC37:
 768 00b0 7231303A 		.ascii	"r10: 0x%08x\012\000"
 768      20307825 
 768      3038780A 
 768      00
 769 00bd 000000   		.align	2
 770              	.LC38:
ARM GAS  C:\Users\Administrator\AppData\Local\Temp\ccKo279t.s 			page 24


 771 00c0 7231313A 		.ascii	"r11: 0x%08x\012\000"
 771      20307825 
 771      3038780A 
 771      00
 772 00cd 000000   		.align	2
 773              	.LC39:
 774 00d0 7231323A 		.ascii	"r12: 0x%08x\012\000"
 774      20307825 
 774      3038780A 
 774      00
 775 00dd 000000   		.align	2
 776              	.LC40:
 777 00e0 206C723A 		.ascii	" lr: 0x%08x\012\000"
 777      20307825 
 777      3038780A 
 777      00
 778 00ed 000000   		.align	2
 779              	.LC41:
 780 00f0 2070633A 		.ascii	" pc: 0x%08x\012\000"
 780      20307825 
 780      3038780A 
 780      00
 781 00fd 000000   		.align	2
 782              	.LC42:
 783 0100 68617264 		.ascii	"hard fault on thread: %s\015\012\015\012\000"
 783      20666175 
 783      6C74206F 
 783      6E207468 
 783      72656164 
 784 011d 000000   		.align	2
 785              	.LC43:
 786 0120 68617264 		.ascii	"hard fault on handler\015\012\015\012\000"
 786      20666175 
 786      6C74206F 
 786      6E206861 
 786      6E646C65 
 787 013a 0000     		.align	2
 788              	.LC44:
 789 013c 46505520 		.ascii	"FPU active!\015\012\000"
 789      61637469 
 789      7665210D 
 789      0A00
 790              		.section	.text.rt_hw_hard_fault_exception,"ax",%progbits
 791              		.align	1
 792              		.global	rt_hw_hard_fault_exception
 793              		.syntax unified
 794              		.thumb
 795              		.thumb_func
 796              		.fpu softvfp
 798              	rt_hw_hard_fault_exception:
 799              	.LVL42:
 800              	.LFB21:
 363:Middlewares/Third_Party/RealThread_RTOS/libcpu/arm/cortex-m4/cpuport.c **** #endif /* RT_USING_FINSH */
 364:Middlewares/Third_Party/RealThread_RTOS/libcpu/arm/cortex-m4/cpuport.c **** 
 365:Middlewares/Third_Party/RealThread_RTOS/libcpu/arm/cortex-m4/cpuport.c **** struct exception_info
 366:Middlewares/Third_Party/RealThread_RTOS/libcpu/arm/cortex-m4/cpuport.c **** {
 367:Middlewares/Third_Party/RealThread_RTOS/libcpu/arm/cortex-m4/cpuport.c ****     rt_uint32_t exc_return;
ARM GAS  C:\Users\Administrator\AppData\Local\Temp\ccKo279t.s 			page 25


 368:Middlewares/Third_Party/RealThread_RTOS/libcpu/arm/cortex-m4/cpuport.c ****     struct stack_frame stack_frame;
 369:Middlewares/Third_Party/RealThread_RTOS/libcpu/arm/cortex-m4/cpuport.c **** };
 370:Middlewares/Third_Party/RealThread_RTOS/libcpu/arm/cortex-m4/cpuport.c **** 
 371:Middlewares/Third_Party/RealThread_RTOS/libcpu/arm/cortex-m4/cpuport.c **** void rt_hw_hard_fault_exception(struct exception_info *exception_info)
 372:Middlewares/Third_Party/RealThread_RTOS/libcpu/arm/cortex-m4/cpuport.c **** {
 801              		.loc 1 372 1 is_stmt 1 view -0
 802              		.cfi_startproc
 803              		@ args = 0, pretend = 0, frame = 0
 804              		@ frame_needed = 0, uses_anonymous_args = 0
 805              		.loc 1 372 1 is_stmt 0 view .LVU162
 806 0000 10B5     		push	{r4, lr}
 807              	.LCFI6:
 808              		.cfi_def_cfa_offset 8
 809              		.cfi_offset 4, -8
 810              		.cfi_offset 14, -4
 811 0002 0446     		mov	r4, r0
 373:Middlewares/Third_Party/RealThread_RTOS/libcpu/arm/cortex-m4/cpuport.c ****     extern long list_thread(void);
 812              		.loc 1 373 5 is_stmt 1 view .LVU163
 374:Middlewares/Third_Party/RealThread_RTOS/libcpu/arm/cortex-m4/cpuport.c ****     struct exception_stack_frame *exception_stack = &exception_info->stack_frame.exception_stack_fr
 813              		.loc 1 374 5 view .LVU164
 814              	.LVL43:
 375:Middlewares/Third_Party/RealThread_RTOS/libcpu/arm/cortex-m4/cpuport.c ****     struct stack_frame *context = &exception_info->stack_frame;
 815              		.loc 1 375 5 view .LVU165
 376:Middlewares/Third_Party/RealThread_RTOS/libcpu/arm/cortex-m4/cpuport.c **** 
 377:Middlewares/Third_Party/RealThread_RTOS/libcpu/arm/cortex-m4/cpuport.c ****     if (rt_exception_hook != RT_NULL)
 816              		.loc 1 377 5 view .LVU166
 817              		.loc 1 377 27 is_stmt 0 view .LVU167
 818 0004 314B     		ldr	r3, .L81
 819 0006 1B68     		ldr	r3, [r3]
 820              		.loc 1 377 8 view .LVU168
 821 0008 1BB1     		cbz	r3, .L73
 822 000a 2430     		adds	r0, r0, #36
 823              	.LVL44:
 824              	.LBB2:
 378:Middlewares/Third_Party/RealThread_RTOS/libcpu/arm/cortex-m4/cpuport.c ****     {
 379:Middlewares/Third_Party/RealThread_RTOS/libcpu/arm/cortex-m4/cpuport.c ****         rt_err_t result;
 825              		.loc 1 379 9 is_stmt 1 view .LVU169
 380:Middlewares/Third_Party/RealThread_RTOS/libcpu/arm/cortex-m4/cpuport.c **** 
 381:Middlewares/Third_Party/RealThread_RTOS/libcpu/arm/cortex-m4/cpuport.c ****         result = rt_exception_hook(exception_stack);
 826              		.loc 1 381 9 view .LVU170
 827              		.loc 1 381 18 is_stmt 0 view .LVU171
 828 000c 9847     		blx	r3
 829              	.LVL45:
 382:Middlewares/Third_Party/RealThread_RTOS/libcpu/arm/cortex-m4/cpuport.c ****         if (result == RT_EOK) return;
 830              		.loc 1 382 9 is_stmt 1 view .LVU172
 831              		.loc 1 382 12 is_stmt 0 view .LVU173
 832 000e 0028     		cmp	r0, #0
 833 0010 5AD0     		beq	.L78
 834              	.LVL46:
 835              	.L73:
 836              		.loc 1 382 12 view .LVU174
 837              	.LBE2:
 383:Middlewares/Third_Party/RealThread_RTOS/libcpu/arm/cortex-m4/cpuport.c ****     }
 384:Middlewares/Third_Party/RealThread_RTOS/libcpu/arm/cortex-m4/cpuport.c **** 
 385:Middlewares/Third_Party/RealThread_RTOS/libcpu/arm/cortex-m4/cpuport.c ****     rt_kprintf("psr: 0x%08x\n", context->exception_stack_frame.psr);
 838              		.loc 1 385 5 is_stmt 1 view .LVU175
 839 0012 216C     		ldr	r1, [r4, #64]
ARM GAS  C:\Users\Administrator\AppData\Local\Temp\ccKo279t.s 			page 26


 840 0014 2E48     		ldr	r0, .L81+4
 841 0016 FFF7FEFF 		bl	rt_kprintf
 842              	.LVL47:
 386:Middlewares/Third_Party/RealThread_RTOS/libcpu/arm/cortex-m4/cpuport.c **** 
 387:Middlewares/Third_Party/RealThread_RTOS/libcpu/arm/cortex-m4/cpuport.c ****     rt_kprintf("r00: 0x%08x\n", context->exception_stack_frame.r0);
 843              		.loc 1 387 5 view .LVU176
 844 001a 616A     		ldr	r1, [r4, #36]
 845 001c 2D48     		ldr	r0, .L81+8
 846 001e FFF7FEFF 		bl	rt_kprintf
 847              	.LVL48:
 388:Middlewares/Third_Party/RealThread_RTOS/libcpu/arm/cortex-m4/cpuport.c ****     rt_kprintf("r01: 0x%08x\n", context->exception_stack_frame.r1);
 848              		.loc 1 388 5 view .LVU177
 849 0022 A16A     		ldr	r1, [r4, #40]
 850 0024 2C48     		ldr	r0, .L81+12
 851 0026 FFF7FEFF 		bl	rt_kprintf
 852              	.LVL49:
 389:Middlewares/Third_Party/RealThread_RTOS/libcpu/arm/cortex-m4/cpuport.c ****     rt_kprintf("r02: 0x%08x\n", context->exception_stack_frame.r2);
 853              		.loc 1 389 5 view .LVU178
 854 002a E16A     		ldr	r1, [r4, #44]
 855 002c 2B48     		ldr	r0, .L81+16
 856 002e FFF7FEFF 		bl	rt_kprintf
 857              	.LVL50:
 390:Middlewares/Third_Party/RealThread_RTOS/libcpu/arm/cortex-m4/cpuport.c ****     rt_kprintf("r03: 0x%08x\n", context->exception_stack_frame.r3);
 858              		.loc 1 390 5 view .LVU179
 859 0032 216B     		ldr	r1, [r4, #48]
 860 0034 2A48     		ldr	r0, .L81+20
 861 0036 FFF7FEFF 		bl	rt_kprintf
 862              	.LVL51:
 391:Middlewares/Third_Party/RealThread_RTOS/libcpu/arm/cortex-m4/cpuport.c ****     rt_kprintf("r04: 0x%08x\n", context->r4);
 863              		.loc 1 391 5 view .LVU180
 864 003a 6168     		ldr	r1, [r4, #4]
 865 003c 2948     		ldr	r0, .L81+24
 866 003e FFF7FEFF 		bl	rt_kprintf
 867              	.LVL52:
 392:Middlewares/Third_Party/RealThread_RTOS/libcpu/arm/cortex-m4/cpuport.c ****     rt_kprintf("r05: 0x%08x\n", context->r5);
 868              		.loc 1 392 5 view .LVU181
 869 0042 A168     		ldr	r1, [r4, #8]
 870 0044 2848     		ldr	r0, .L81+28
 871 0046 FFF7FEFF 		bl	rt_kprintf
 872              	.LVL53:
 393:Middlewares/Third_Party/RealThread_RTOS/libcpu/arm/cortex-m4/cpuport.c ****     rt_kprintf("r06: 0x%08x\n", context->r6);
 873              		.loc 1 393 5 view .LVU182
 874 004a E168     		ldr	r1, [r4, #12]
 875 004c 2748     		ldr	r0, .L81+32
 876 004e FFF7FEFF 		bl	rt_kprintf
 877              	.LVL54:
 394:Middlewares/Third_Party/RealThread_RTOS/libcpu/arm/cortex-m4/cpuport.c ****     rt_kprintf("r07: 0x%08x\n", context->r7);
 878              		.loc 1 394 5 view .LVU183
 879 0052 2169     		ldr	r1, [r4, #16]
 880 0054 2648     		ldr	r0, .L81+36
 881 0056 FFF7FEFF 		bl	rt_kprintf
 882              	.LVL55:
 395:Middlewares/Third_Party/RealThread_RTOS/libcpu/arm/cortex-m4/cpuport.c ****     rt_kprintf("r08: 0x%08x\n", context->r8);
 883              		.loc 1 395 5 view .LVU184
 884 005a 6169     		ldr	r1, [r4, #20]
 885 005c 2548     		ldr	r0, .L81+40
 886 005e FFF7FEFF 		bl	rt_kprintf
ARM GAS  C:\Users\Administrator\AppData\Local\Temp\ccKo279t.s 			page 27


 887              	.LVL56:
 396:Middlewares/Third_Party/RealThread_RTOS/libcpu/arm/cortex-m4/cpuport.c ****     rt_kprintf("r09: 0x%08x\n", context->r9);
 888              		.loc 1 396 5 view .LVU185
 889 0062 A169     		ldr	r1, [r4, #24]
 890 0064 2448     		ldr	r0, .L81+44
 891 0066 FFF7FEFF 		bl	rt_kprintf
 892              	.LVL57:
 397:Middlewares/Third_Party/RealThread_RTOS/libcpu/arm/cortex-m4/cpuport.c ****     rt_kprintf("r10: 0x%08x\n", context->r10);
 893              		.loc 1 397 5 view .LVU186
 894 006a E169     		ldr	r1, [r4, #28]
 895 006c 2348     		ldr	r0, .L81+48
 896 006e FFF7FEFF 		bl	rt_kprintf
 897              	.LVL58:
 398:Middlewares/Third_Party/RealThread_RTOS/libcpu/arm/cortex-m4/cpuport.c ****     rt_kprintf("r11: 0x%08x\n", context->r11);
 898              		.loc 1 398 5 view .LVU187
 899 0072 216A     		ldr	r1, [r4, #32]
 900 0074 2248     		ldr	r0, .L81+52
 901 0076 FFF7FEFF 		bl	rt_kprintf
 902              	.LVL59:
 399:Middlewares/Third_Party/RealThread_RTOS/libcpu/arm/cortex-m4/cpuport.c ****     rt_kprintf("r12: 0x%08x\n", context->exception_stack_frame.r12);
 903              		.loc 1 399 5 view .LVU188
 904 007a 616B     		ldr	r1, [r4, #52]
 905 007c 2148     		ldr	r0, .L81+56
 906 007e FFF7FEFF 		bl	rt_kprintf
 907              	.LVL60:
 400:Middlewares/Third_Party/RealThread_RTOS/libcpu/arm/cortex-m4/cpuport.c ****     rt_kprintf(" lr: 0x%08x\n", context->exception_stack_frame.lr);
 908              		.loc 1 400 5 view .LVU189
 909 0082 A16B     		ldr	r1, [r4, #56]
 910 0084 2048     		ldr	r0, .L81+60
 911 0086 FFF7FEFF 		bl	rt_kprintf
 912              	.LVL61:
 401:Middlewares/Third_Party/RealThread_RTOS/libcpu/arm/cortex-m4/cpuport.c ****     rt_kprintf(" pc: 0x%08x\n", context->exception_stack_frame.pc);
 913              		.loc 1 401 5 view .LVU190
 914 008a E16B     		ldr	r1, [r4, #60]
 915 008c 1F48     		ldr	r0, .L81+64
 916 008e FFF7FEFF 		bl	rt_kprintf
 917              	.LVL62:
 402:Middlewares/Third_Party/RealThread_RTOS/libcpu/arm/cortex-m4/cpuport.c **** 
 403:Middlewares/Third_Party/RealThread_RTOS/libcpu/arm/cortex-m4/cpuport.c ****     if (exception_info->exc_return & (1 << 2))
 918              		.loc 1 403 5 view .LVU191
 919              		.loc 1 403 23 is_stmt 0 view .LVU192
 920 0092 2368     		ldr	r3, [r4]
 921              		.loc 1 403 8 view .LVU193
 922 0094 13F0040F 		tst	r3, #4
 923 0098 0ED0     		beq	.L74
 404:Middlewares/Third_Party/RealThread_RTOS/libcpu/arm/cortex-m4/cpuport.c ****     {
 405:Middlewares/Third_Party/RealThread_RTOS/libcpu/arm/cortex-m4/cpuport.c ****         rt_kprintf("hard fault on thread: %s\r\n\r\n", rt_thread_self()->name);
 924              		.loc 1 405 9 is_stmt 1 view .LVU194
 925              		.loc 1 405 56 is_stmt 0 view .LVU195
 926 009a FFF7FEFF 		bl	rt_thread_self
 927              	.LVL63:
 928 009e 0146     		mov	r1, r0
 929              		.loc 1 405 9 view .LVU196
 930 00a0 1B48     		ldr	r0, .L81+68
 931 00a2 FFF7FEFF 		bl	rt_kprintf
 932              	.LVL64:
 406:Middlewares/Third_Party/RealThread_RTOS/libcpu/arm/cortex-m4/cpuport.c **** 
ARM GAS  C:\Users\Administrator\AppData\Local\Temp\ccKo279t.s 			page 28


 407:Middlewares/Third_Party/RealThread_RTOS/libcpu/arm/cortex-m4/cpuport.c **** #ifdef RT_USING_FINSH
 408:Middlewares/Third_Party/RealThread_RTOS/libcpu/arm/cortex-m4/cpuport.c ****         list_thread();
 933              		.loc 1 408 9 is_stmt 1 view .LVU197
 934 00a6 FFF7FEFF 		bl	list_thread
 935              	.LVL65:
 936              	.L75:
 409:Middlewares/Third_Party/RealThread_RTOS/libcpu/arm/cortex-m4/cpuport.c **** #endif
 410:Middlewares/Third_Party/RealThread_RTOS/libcpu/arm/cortex-m4/cpuport.c ****     }
 411:Middlewares/Third_Party/RealThread_RTOS/libcpu/arm/cortex-m4/cpuport.c ****     else
 412:Middlewares/Third_Party/RealThread_RTOS/libcpu/arm/cortex-m4/cpuport.c ****     {
 413:Middlewares/Third_Party/RealThread_RTOS/libcpu/arm/cortex-m4/cpuport.c ****         rt_kprintf("hard fault on handler\r\n\r\n");
 414:Middlewares/Third_Party/RealThread_RTOS/libcpu/arm/cortex-m4/cpuport.c ****     }
 415:Middlewares/Third_Party/RealThread_RTOS/libcpu/arm/cortex-m4/cpuport.c **** 
 416:Middlewares/Third_Party/RealThread_RTOS/libcpu/arm/cortex-m4/cpuport.c ****     if ( (exception_info->exc_return & 0x10) == 0)
 937              		.loc 1 416 5 view .LVU198
 938              		.loc 1 416 25 is_stmt 0 view .LVU199
 939 00aa 2368     		ldr	r3, [r4]
 940              		.loc 1 416 8 view .LVU200
 941 00ac 13F0100F 		tst	r3, #16
 942 00b0 06D0     		beq	.L80
 943              	.L76:
 417:Middlewares/Third_Party/RealThread_RTOS/libcpu/arm/cortex-m4/cpuport.c ****     {
 418:Middlewares/Third_Party/RealThread_RTOS/libcpu/arm/cortex-m4/cpuport.c ****         rt_kprintf("FPU active!\r\n");
 419:Middlewares/Third_Party/RealThread_RTOS/libcpu/arm/cortex-m4/cpuport.c ****     }
 420:Middlewares/Third_Party/RealThread_RTOS/libcpu/arm/cortex-m4/cpuport.c **** 
 421:Middlewares/Third_Party/RealThread_RTOS/libcpu/arm/cortex-m4/cpuport.c **** #ifdef RT_USING_FINSH
 422:Middlewares/Third_Party/RealThread_RTOS/libcpu/arm/cortex-m4/cpuport.c ****     hard_fault_track();
 944              		.loc 1 422 5 is_stmt 1 view .LVU201
 945 00b2 FFF7FEFF 		bl	hard_fault_track
 946              	.LVL66:
 947              	.L77:
 423:Middlewares/Third_Party/RealThread_RTOS/libcpu/arm/cortex-m4/cpuport.c **** #endif /* RT_USING_FINSH */
 424:Middlewares/Third_Party/RealThread_RTOS/libcpu/arm/cortex-m4/cpuport.c **** 
 425:Middlewares/Third_Party/RealThread_RTOS/libcpu/arm/cortex-m4/cpuport.c ****     while (1);
 948              		.loc 1 425 5 discriminator 1 view .LVU202
 949              		.loc 1 425 14 discriminator 1 view .LVU203
 950              		.loc 1 425 11 discriminator 1 view .LVU204
 951 00b6 FEE7     		b	.L77
 952              	.L74:
 413:Middlewares/Third_Party/RealThread_RTOS/libcpu/arm/cortex-m4/cpuport.c ****     }
 953              		.loc 1 413 9 view .LVU205
 954 00b8 1648     		ldr	r0, .L81+72
 955 00ba FFF7FEFF 		bl	rt_kprintf
 956              	.LVL67:
 957 00be F4E7     		b	.L75
 958              	.L80:
 418:Middlewares/Third_Party/RealThread_RTOS/libcpu/arm/cortex-m4/cpuport.c ****     }
 959              		.loc 1 418 9 view .LVU206
 960 00c0 1548     		ldr	r0, .L81+76
 961 00c2 FFF7FEFF 		bl	rt_kprintf
 962              	.LVL68:
 963 00c6 F4E7     		b	.L76
 964              	.LVL69:
 965              	.L78:
 426:Middlewares/Third_Party/RealThread_RTOS/libcpu/arm/cortex-m4/cpuport.c **** }
 966              		.loc 1 426 1 is_stmt 0 view .LVU207
 967 00c8 10BD     		pop	{r4, pc}
ARM GAS  C:\Users\Administrator\AppData\Local\Temp\ccKo279t.s 			page 29


 968              	.LVL70:
 969              	.L82:
 970              		.loc 1 426 1 view .LVU208
 971 00ca 00BF     		.align	2
 972              	.L81:
 973 00cc 00000000 		.word	.LANCHOR0
 974 00d0 00000000 		.word	.LC26
 975 00d4 10000000 		.word	.LC27
 976 00d8 20000000 		.word	.LC28
 977 00dc 30000000 		.word	.LC29
 978 00e0 40000000 		.word	.LC30
 979 00e4 50000000 		.word	.LC31
 980 00e8 60000000 		.word	.LC32
 981 00ec 70000000 		.word	.LC33
 982 00f0 80000000 		.word	.LC34
 983 00f4 90000000 		.word	.LC35
 984 00f8 A0000000 		.word	.LC36
 985 00fc B0000000 		.word	.LC37
 986 0100 C0000000 		.word	.LC38
 987 0104 D0000000 		.word	.LC39
 988 0108 E0000000 		.word	.LC40
 989 010c F0000000 		.word	.LC41
 990 0110 00010000 		.word	.LC42
 991 0114 20010000 		.word	.LC43
 992 0118 3C010000 		.word	.LC44
 993              		.cfi_endproc
 994              	.LFE21:
 996              		.section	.rodata.rt_hw_cpu_shutdown.str1.4,"aMS",%progbits,1
 997              		.align	2
 998              	.LC45:
 999 0000 73687574 		.ascii	"shutdown...\012\000"
 999      646F776E 
 999      2E2E2E0A 
 999      00
 1000 000d 000000   		.align	2
 1001              	.LC46:
 1002 0010 3000     		.ascii	"0\000"
 1003              		.section	.text.rt_hw_cpu_shutdown,"ax",%progbits
 1004              		.align	1
 1005              		.global	rt_hw_cpu_shutdown
 1006              		.syntax unified
 1007              		.thumb
 1008              		.thumb_func
 1009              		.fpu softvfp
 1011              	rt_hw_cpu_shutdown:
 1012              	.LFB22:
 427:Middlewares/Third_Party/RealThread_RTOS/libcpu/arm/cortex-m4/cpuport.c **** 
 428:Middlewares/Third_Party/RealThread_RTOS/libcpu/arm/cortex-m4/cpuport.c **** /**
 429:Middlewares/Third_Party/RealThread_RTOS/libcpu/arm/cortex-m4/cpuport.c ****  * shutdown CPU
 430:Middlewares/Third_Party/RealThread_RTOS/libcpu/arm/cortex-m4/cpuport.c ****  */
 431:Middlewares/Third_Party/RealThread_RTOS/libcpu/arm/cortex-m4/cpuport.c **** void rt_hw_cpu_shutdown(void)
 432:Middlewares/Third_Party/RealThread_RTOS/libcpu/arm/cortex-m4/cpuport.c **** {
 1013              		.loc 1 432 1 is_stmt 1 view -0
 1014              		.cfi_startproc
 1015              		@ args = 0, pretend = 0, frame = 0
 1016              		@ frame_needed = 0, uses_anonymous_args = 0
 1017 0000 08B5     		push	{r3, lr}
ARM GAS  C:\Users\Administrator\AppData\Local\Temp\ccKo279t.s 			page 30


 1018              	.LCFI7:
 1019              		.cfi_def_cfa_offset 8
 1020              		.cfi_offset 3, -8
 1021              		.cfi_offset 14, -4
 433:Middlewares/Third_Party/RealThread_RTOS/libcpu/arm/cortex-m4/cpuport.c ****     rt_kprintf("shutdown...\n");
 1022              		.loc 1 433 5 view .LVU210
 1023 0002 0548     		ldr	r0, .L85
 1024 0004 FFF7FEFF 		bl	rt_kprintf
 1025              	.LVL71:
 434:Middlewares/Third_Party/RealThread_RTOS/libcpu/arm/cortex-m4/cpuport.c **** 
 435:Middlewares/Third_Party/RealThread_RTOS/libcpu/arm/cortex-m4/cpuport.c ****     RT_ASSERT(0);
 1026              		.loc 1 435 5 view .LVU211
 1027              		.loc 1 435 5 view .LVU212
 1028 0008 40F2B312 		movw	r2, #435
 1029 000c 0349     		ldr	r1, .L85+4
 1030 000e 0448     		ldr	r0, .L85+8
 1031 0010 FFF7FEFF 		bl	rt_assert_handler
 1032              	.LVL72:
 1033              		.loc 1 435 17 view .LVU213
 436:Middlewares/Third_Party/RealThread_RTOS/libcpu/arm/cortex-m4/cpuport.c **** }
 1034              		.loc 1 436 1 is_stmt 0 view .LVU214
 1035 0014 08BD     		pop	{r3, pc}
 1036              	.L86:
 1037 0016 00BF     		.align	2
 1038              	.L85:
 1039 0018 00000000 		.word	.LC45
 1040 001c 00000000 		.word	.LANCHOR1
 1041 0020 10000000 		.word	.LC46
 1042              		.cfi_endproc
 1043              	.LFE22:
 1045              		.section	.text.rt_hw_cpu_reset,"ax",%progbits
 1046              		.align	1
 1047              		.weak	rt_hw_cpu_reset
 1048              		.syntax unified
 1049              		.thumb
 1050              		.thumb_func
 1051              		.fpu softvfp
 1053              	rt_hw_cpu_reset:
 1054              	.LFB23:
 437:Middlewares/Third_Party/RealThread_RTOS/libcpu/arm/cortex-m4/cpuport.c **** 
 438:Middlewares/Third_Party/RealThread_RTOS/libcpu/arm/cortex-m4/cpuport.c **** /**
 439:Middlewares/Third_Party/RealThread_RTOS/libcpu/arm/cortex-m4/cpuport.c ****  * reset CPU
 440:Middlewares/Third_Party/RealThread_RTOS/libcpu/arm/cortex-m4/cpuport.c ****  */
 441:Middlewares/Third_Party/RealThread_RTOS/libcpu/arm/cortex-m4/cpuport.c **** RT_WEAK void rt_hw_cpu_reset(void)
 442:Middlewares/Third_Party/RealThread_RTOS/libcpu/arm/cortex-m4/cpuport.c **** {
 1055              		.loc 1 442 1 is_stmt 1 view -0
 1056              		.cfi_startproc
 1057              		@ args = 0, pretend = 0, frame = 0
 1058              		@ frame_needed = 0, uses_anonymous_args = 0
 1059              		@ link register save eliminated.
 443:Middlewares/Third_Party/RealThread_RTOS/libcpu/arm/cortex-m4/cpuport.c ****     SCB_AIRCR = SCB_RESET_VALUE;
 1060              		.loc 1 443 5 view .LVU216
 1061              		.loc 1 443 15 is_stmt 0 view .LVU217
 1062 0000 4FF0E023 		mov	r3, #-536813568
 1063 0004 014A     		ldr	r2, .L88
 1064 0006 C3F80C2D 		str	r2, [r3, #3340]
 444:Middlewares/Third_Party/RealThread_RTOS/libcpu/arm/cortex-m4/cpuport.c **** }
ARM GAS  C:\Users\Administrator\AppData\Local\Temp\ccKo279t.s 			page 31


 1065              		.loc 1 444 1 view .LVU218
 1066 000a 7047     		bx	lr
 1067              	.L89:
 1068              		.align	2
 1069              	.L88:
 1070 000c 0400FA05 		.word	100270084
 1071              		.cfi_endproc
 1072              	.LFE23:
 1074              		.global	rt_thread_switch_interrupt_flag
 1075              		.global	rt_interrupt_to_thread
 1076              		.global	rt_interrupt_from_thread
 1077              		.section	.bss.rt_exception_hook,"aw",%nobits
 1078              		.align	2
 1079              		.set	.LANCHOR0,. + 0
 1082              	rt_exception_hook:
 1083 0000 00000000 		.space	4
 1084              		.section	.bss.rt_interrupt_from_thread,"aw",%nobits
 1085              		.align	2
 1088              	rt_interrupt_from_thread:
 1089 0000 00000000 		.space	4
 1090              		.section	.bss.rt_interrupt_to_thread,"aw",%nobits
 1091              		.align	2
 1094              	rt_interrupt_to_thread:
 1095 0000 00000000 		.space	4
 1096              		.section	.bss.rt_thread_switch_interrupt_flag,"aw",%nobits
 1097              		.align	2
 1100              	rt_thread_switch_interrupt_flag:
 1101 0000 00000000 		.space	4
 1102              		.section	.rodata.__FUNCTION__.0,"a"
 1103              		.align	2
 1104              		.set	.LANCHOR1,. + 0
 1107              	__FUNCTION__.0:
 1108 0000 72745F68 		.ascii	"rt_hw_cpu_shutdown\000"
 1108      775F6370 
 1108      755F7368 
 1108      7574646F 
 1108      776E00
 1109              		.text
 1110              	.Letext0:
 1111              		.file 2 "Middlewares/Third_Party/RealThread_RTOS/include/rtdef.h"
 1112              		.file 3 "Middlewares/Third_Party/RealThread_RTOS/include/rtthread.h"
ARM GAS  C:\Users\Administrator\AppData\Local\Temp\ccKo279t.s 			page 32


DEFINED SYMBOLS
                            *ABS*:00000000 cpuport.c
C:\Users\Administrator\AppData\Local\Temp\ccKo279t.s:16     .rodata.bus_fault_track.str1.4:00000000 $d
C:\Users\Administrator\AppData\Local\Temp\ccKo279t.s:44     .text.bus_fault_track:00000000 $t
C:\Users\Administrator\AppData\Local\Temp\ccKo279t.s:51     .text.bus_fault_track:00000000 bus_fault_track
C:\Users\Administrator\AppData\Local\Temp\ccKo279t.s:169    .text.bus_fault_track:0000009c $d
C:\Users\Administrator\AppData\Local\Temp\ccKo279t.s:183    .rodata.mem_manage_fault_track.str1.4:00000000 $d
C:\Users\Administrator\AppData\Local\Temp\ccKo279t.s:205    .text.mem_manage_fault_track:00000000 $t
C:\Users\Administrator\AppData\Local\Temp\ccKo279t.s:211    .text.mem_manage_fault_track:00000000 mem_manage_fault_track
C:\Users\Administrator\AppData\Local\Temp\ccKo279t.s:314    .text.mem_manage_fault_track:00000088 $d
C:\Users\Administrator\AppData\Local\Temp\ccKo279t.s:327    .rodata.usage_fault_track.str1.4:00000000 $d
C:\Users\Administrator\AppData\Local\Temp\ccKo279t.s:352    .text.usage_fault_track:00000000 $t
C:\Users\Administrator\AppData\Local\Temp\ccKo279t.s:358    .text.usage_fault_track:00000000 usage_fault_track
C:\Users\Administrator\AppData\Local\Temp\ccKo279t.s:474    .text.usage_fault_track:00000088 $d
C:\Users\Administrator\AppData\Local\Temp\ccKo279t.s:488    .rodata.hard_fault_track.str1.4:00000000 $d
C:\Users\Administrator\AppData\Local\Temp\ccKo279t.s:495    .text.hard_fault_track:00000000 $t
C:\Users\Administrator\AppData\Local\Temp\ccKo279t.s:501    .text.hard_fault_track:00000000 hard_fault_track
C:\Users\Administrator\AppData\Local\Temp\ccKo279t.s:590    .text.hard_fault_track:00000068 $d
C:\Users\Administrator\AppData\Local\Temp\ccKo279t.s:597    .text.rt_hw_stack_init:00000000 $t
C:\Users\Administrator\AppData\Local\Temp\ccKo279t.s:604    .text.rt_hw_stack_init:00000000 rt_hw_stack_init
C:\Users\Administrator\AppData\Local\Temp\ccKo279t.s:699    .text.rt_hw_stack_init:00000048 $d
C:\Users\Administrator\AppData\Local\Temp\ccKo279t.s:704    .text.rt_hw_exception_install:00000000 $t
C:\Users\Administrator\AppData\Local\Temp\ccKo279t.s:711    .text.rt_hw_exception_install:00000000 rt_hw_exception_install
C:\Users\Administrator\AppData\Local\Temp\ccKo279t.s:728    .text.rt_hw_exception_install:00000008 $d
C:\Users\Administrator\AppData\Local\Temp\ccKo279t.s:733    .rodata.rt_hw_hard_fault_exception.str1.4:00000000 $d
C:\Users\Administrator\AppData\Local\Temp\ccKo279t.s:791    .text.rt_hw_hard_fault_exception:00000000 $t
C:\Users\Administrator\AppData\Local\Temp\ccKo279t.s:798    .text.rt_hw_hard_fault_exception:00000000 rt_hw_hard_fault_exception
C:\Users\Administrator\AppData\Local\Temp\ccKo279t.s:973    .text.rt_hw_hard_fault_exception:000000cc $d
C:\Users\Administrator\AppData\Local\Temp\ccKo279t.s:997    .rodata.rt_hw_cpu_shutdown.str1.4:00000000 $d
C:\Users\Administrator\AppData\Local\Temp\ccKo279t.s:1004   .text.rt_hw_cpu_shutdown:00000000 $t
C:\Users\Administrator\AppData\Local\Temp\ccKo279t.s:1011   .text.rt_hw_cpu_shutdown:00000000 rt_hw_cpu_shutdown
C:\Users\Administrator\AppData\Local\Temp\ccKo279t.s:1039   .text.rt_hw_cpu_shutdown:00000018 $d
C:\Users\Administrator\AppData\Local\Temp\ccKo279t.s:1046   .text.rt_hw_cpu_reset:00000000 $t
C:\Users\Administrator\AppData\Local\Temp\ccKo279t.s:1053   .text.rt_hw_cpu_reset:00000000 rt_hw_cpu_reset
C:\Users\Administrator\AppData\Local\Temp\ccKo279t.s:1070   .text.rt_hw_cpu_reset:0000000c $d
C:\Users\Administrator\AppData\Local\Temp\ccKo279t.s:1100   .bss.rt_thread_switch_interrupt_flag:00000000 rt_thread_switch_interrupt_flag
C:\Users\Administrator\AppData\Local\Temp\ccKo279t.s:1094   .bss.rt_interrupt_to_thread:00000000 rt_interrupt_to_thread
C:\Users\Administrator\AppData\Local\Temp\ccKo279t.s:1088   .bss.rt_interrupt_from_thread:00000000 rt_interrupt_from_thread
C:\Users\Administrator\AppData\Local\Temp\ccKo279t.s:1078   .bss.rt_exception_hook:00000000 $d
C:\Users\Administrator\AppData\Local\Temp\ccKo279t.s:1082   .bss.rt_exception_hook:00000000 rt_exception_hook
C:\Users\Administrator\AppData\Local\Temp\ccKo279t.s:1085   .bss.rt_interrupt_from_thread:00000000 $d
C:\Users\Administrator\AppData\Local\Temp\ccKo279t.s:1091   .bss.rt_interrupt_to_thread:00000000 $d
C:\Users\Administrator\AppData\Local\Temp\ccKo279t.s:1097   .bss.rt_thread_switch_interrupt_flag:00000000 $d
C:\Users\Administrator\AppData\Local\Temp\ccKo279t.s:1103   .rodata.__FUNCTION__.0:00000000 $d
C:\Users\Administrator\AppData\Local\Temp\ccKo279t.s:1107   .rodata.__FUNCTION__.0:00000000 __FUNCTION__.0

UNDEFINED SYMBOLS
rt_kprintf
rt_thread_self
list_thread
rt_assert_handler
