ARM GAS  C:\Users\Administrator\AppData\Local\Temp\cc5I1bXo.s 			page 1


   1              		.cpu cortex-m4
   2              		.eabi_attribute 20, 1
   3              		.eabi_attribute 21, 1
   4              		.eabi_attribute 23, 3
   5              		.eabi_attribute 24, 1
   6              		.eabi_attribute 25, 1
   7              		.eabi_attribute 26, 1
   8              		.eabi_attribute 30, 1
   9              		.eabi_attribute 34, 1
  10              		.eabi_attribute 18, 4
  11              		.file	"device.c"
  12              		.text
  13              	.Ltext0:
  14              		.cfi_sections	.debug_frame
  15              		.section	.rodata.rt_device_unregister.str1.4,"aMS",%progbits,1
  16              		.align	2
  17              	.LC0:
  18 0000 64657620 		.ascii	"dev != RT_NULL\000"
  18      213D2052 
  18      545F4E55 
  18      4C4C00
  19 000f 00       		.align	2
  20              	.LC1:
  21 0010 72745F6F 		.ascii	"rt_object_get_type(&dev->parent) == RT_Object_Class"
  21      626A6563 
  21      745F6765 
  21      745F7479 
  21      70652826 
  22 0043 5F446576 		.ascii	"_Device\000"
  22      69636500 
  23 004b 00       		.align	2
  24              	.LC2:
  25 004c 72745F6F 		.ascii	"rt_object_is_systemobject(&dev->parent)\000"
  25      626A6563 
  25      745F6973 
  25      5F737973 
  25      74656D6F 
  26              		.section	.text.rt_device_unregister,"ax",%progbits
  27              		.align	1
  28              		.global	rt_device_unregister
  29              		.arch armv7e-m
  30              		.syntax unified
  31              		.thumb
  32              		.thumb_func
  33              		.fpu softvfp
  35              	rt_device_unregister:
  36              	.LVL0:
  37              	.LFB16:
  38              		.file 1 "Middlewares/Third_Party/RealThread_RTOS/components/device/device.c"
   1:Middlewares/Third_Party/RealThread_RTOS/components/device/device.c **** /*
   2:Middlewares/Third_Party/RealThread_RTOS/components/device/device.c ****  * Copyright (c) 2006-2021, RT-Thread Development Team
   3:Middlewares/Third_Party/RealThread_RTOS/components/device/device.c ****  *
   4:Middlewares/Third_Party/RealThread_RTOS/components/device/device.c ****  * SPDX-License-Identifier: Apache-2.0
   5:Middlewares/Third_Party/RealThread_RTOS/components/device/device.c ****  *
   6:Middlewares/Third_Party/RealThread_RTOS/components/device/device.c ****  * Change Logs:
   7:Middlewares/Third_Party/RealThread_RTOS/components/device/device.c ****  * Date           Author       Notes
   8:Middlewares/Third_Party/RealThread_RTOS/components/device/device.c ****  * 2007-01-21     Bernard      the first version
ARM GAS  C:\Users\Administrator\AppData\Local\Temp\cc5I1bXo.s 			page 2


   9:Middlewares/Third_Party/RealThread_RTOS/components/device/device.c ****  * 2010-05-04     Bernard      add rt_device_init implementation
  10:Middlewares/Third_Party/RealThread_RTOS/components/device/device.c ****  * 2012-10-20     Bernard      add device check in register function,
  11:Middlewares/Third_Party/RealThread_RTOS/components/device/device.c ****  *                             provided by Rob <rdent@iinet.net.au>
  12:Middlewares/Third_Party/RealThread_RTOS/components/device/device.c ****  * 2012-12-25     Bernard      return RT_EOK if the device interface not exist.
  13:Middlewares/Third_Party/RealThread_RTOS/components/device/device.c ****  * 2013-07-09     Grissiom     add ref_count support
  14:Middlewares/Third_Party/RealThread_RTOS/components/device/device.c ****  * 2016-04-02     Bernard      fix the open_flag initialization issue.
  15:Middlewares/Third_Party/RealThread_RTOS/components/device/device.c ****  */
  16:Middlewares/Third_Party/RealThread_RTOS/components/device/device.c **** 
  17:Middlewares/Third_Party/RealThread_RTOS/components/device/device.c **** #include <rtthread.h>
  18:Middlewares/Third_Party/RealThread_RTOS/components/device/device.c **** #if defined(RT_USING_POSIX)
  19:Middlewares/Third_Party/RealThread_RTOS/components/device/device.c **** #include <rtdevice.h> /* for wqueue_init */
  20:Middlewares/Third_Party/RealThread_RTOS/components/device/device.c **** #endif
  21:Middlewares/Third_Party/RealThread_RTOS/components/device/device.c **** 
  22:Middlewares/Third_Party/RealThread_RTOS/components/device/device.c **** #ifdef RT_USING_DEVICE
  23:Middlewares/Third_Party/RealThread_RTOS/components/device/device.c **** 
  24:Middlewares/Third_Party/RealThread_RTOS/components/device/device.c **** #ifdef RT_USING_DEVICE_OPS
  25:Middlewares/Third_Party/RealThread_RTOS/components/device/device.c **** #define device_init     (dev->ops->init)
  26:Middlewares/Third_Party/RealThread_RTOS/components/device/device.c **** #define device_open     (dev->ops->open)
  27:Middlewares/Third_Party/RealThread_RTOS/components/device/device.c **** #define device_close    (dev->ops->close)
  28:Middlewares/Third_Party/RealThread_RTOS/components/device/device.c **** #define device_read     (dev->ops->read)
  29:Middlewares/Third_Party/RealThread_RTOS/components/device/device.c **** #define device_write    (dev->ops->write)
  30:Middlewares/Third_Party/RealThread_RTOS/components/device/device.c **** #define device_control  (dev->ops->control)
  31:Middlewares/Third_Party/RealThread_RTOS/components/device/device.c **** #else
  32:Middlewares/Third_Party/RealThread_RTOS/components/device/device.c **** #define device_init     (dev->init)
  33:Middlewares/Third_Party/RealThread_RTOS/components/device/device.c **** #define device_open     (dev->open)
  34:Middlewares/Third_Party/RealThread_RTOS/components/device/device.c **** #define device_close    (dev->close)
  35:Middlewares/Third_Party/RealThread_RTOS/components/device/device.c **** #define device_read     (dev->read)
  36:Middlewares/Third_Party/RealThread_RTOS/components/device/device.c **** #define device_write    (dev->write)
  37:Middlewares/Third_Party/RealThread_RTOS/components/device/device.c **** #define device_control  (dev->control)
  38:Middlewares/Third_Party/RealThread_RTOS/components/device/device.c **** #endif
  39:Middlewares/Third_Party/RealThread_RTOS/components/device/device.c **** 
  40:Middlewares/Third_Party/RealThread_RTOS/components/device/device.c **** /**
  41:Middlewares/Third_Party/RealThread_RTOS/components/device/device.c ****  * This function registers a device driver with specified name.
  42:Middlewares/Third_Party/RealThread_RTOS/components/device/device.c ****  *
  43:Middlewares/Third_Party/RealThread_RTOS/components/device/device.c ****  * @param dev the pointer of device driver structure
  44:Middlewares/Third_Party/RealThread_RTOS/components/device/device.c ****  * @param name the device driver's name
  45:Middlewares/Third_Party/RealThread_RTOS/components/device/device.c ****  * @param flags the capabilities flag of device
  46:Middlewares/Third_Party/RealThread_RTOS/components/device/device.c ****  *
  47:Middlewares/Third_Party/RealThread_RTOS/components/device/device.c ****  * @return the error code, RT_EOK on initialization successfully.
  48:Middlewares/Third_Party/RealThread_RTOS/components/device/device.c ****  */
  49:Middlewares/Third_Party/RealThread_RTOS/components/device/device.c **** rt_err_t rt_device_register(rt_device_t dev,
  50:Middlewares/Third_Party/RealThread_RTOS/components/device/device.c ****                             const char *name,
  51:Middlewares/Third_Party/RealThread_RTOS/components/device/device.c ****                             rt_uint16_t flags)
  52:Middlewares/Third_Party/RealThread_RTOS/components/device/device.c **** {
  53:Middlewares/Third_Party/RealThread_RTOS/components/device/device.c ****     if (dev == RT_NULL)
  54:Middlewares/Third_Party/RealThread_RTOS/components/device/device.c ****         return -RT_ERROR;
  55:Middlewares/Third_Party/RealThread_RTOS/components/device/device.c **** 
  56:Middlewares/Third_Party/RealThread_RTOS/components/device/device.c ****     if (rt_device_find(name) != RT_NULL)
  57:Middlewares/Third_Party/RealThread_RTOS/components/device/device.c ****         return -RT_ERROR;
  58:Middlewares/Third_Party/RealThread_RTOS/components/device/device.c **** 
  59:Middlewares/Third_Party/RealThread_RTOS/components/device/device.c ****     rt_object_init(&(dev->parent), RT_Object_Class_Device, name);
  60:Middlewares/Third_Party/RealThread_RTOS/components/device/device.c ****     dev->flag = flags;
  61:Middlewares/Third_Party/RealThread_RTOS/components/device/device.c ****     dev->ref_count = 0;
  62:Middlewares/Third_Party/RealThread_RTOS/components/device/device.c ****     dev->open_flag = 0;
  63:Middlewares/Third_Party/RealThread_RTOS/components/device/device.c **** 
  64:Middlewares/Third_Party/RealThread_RTOS/components/device/device.c **** #if defined(RT_USING_POSIX)
  65:Middlewares/Third_Party/RealThread_RTOS/components/device/device.c ****     dev->fops = RT_NULL;
ARM GAS  C:\Users\Administrator\AppData\Local\Temp\cc5I1bXo.s 			page 3


  66:Middlewares/Third_Party/RealThread_RTOS/components/device/device.c ****     rt_wqueue_init(&(dev->wait_queue));
  67:Middlewares/Third_Party/RealThread_RTOS/components/device/device.c **** #endif
  68:Middlewares/Third_Party/RealThread_RTOS/components/device/device.c **** 
  69:Middlewares/Third_Party/RealThread_RTOS/components/device/device.c ****     return RT_EOK;
  70:Middlewares/Third_Party/RealThread_RTOS/components/device/device.c **** }
  71:Middlewares/Third_Party/RealThread_RTOS/components/device/device.c **** 
  72:Middlewares/Third_Party/RealThread_RTOS/components/device/device.c **** /**
  73:Middlewares/Third_Party/RealThread_RTOS/components/device/device.c ****  * This function removes a previously registered device driver
  74:Middlewares/Third_Party/RealThread_RTOS/components/device/device.c ****  *
  75:Middlewares/Third_Party/RealThread_RTOS/components/device/device.c ****  * @param dev the pointer of device driver structure
  76:Middlewares/Third_Party/RealThread_RTOS/components/device/device.c ****  *
  77:Middlewares/Third_Party/RealThread_RTOS/components/device/device.c ****  * @return the error code, RT_EOK on successfully.
  78:Middlewares/Third_Party/RealThread_RTOS/components/device/device.c ****  */
  79:Middlewares/Third_Party/RealThread_RTOS/components/device/device.c **** rt_err_t rt_device_unregister(rt_device_t dev)
  80:Middlewares/Third_Party/RealThread_RTOS/components/device/device.c **** {
  39              		.loc 1 80 1 view -0
  40              		.cfi_startproc
  41              		@ args = 0, pretend = 0, frame = 0
  42              		@ frame_needed = 0, uses_anonymous_args = 0
  43              		.loc 1 80 1 is_stmt 0 view .LVU1
  44 0000 10B5     		push	{r4, lr}
  45              	.LCFI0:
  46              		.cfi_def_cfa_offset 8
  47              		.cfi_offset 4, -8
  48              		.cfi_offset 14, -4
  81:Middlewares/Third_Party/RealThread_RTOS/components/device/device.c ****     RT_ASSERT(dev != RT_NULL);
  49              		.loc 1 81 5 is_stmt 1 view .LVU2
  50 0002 0446     		mov	r4, r0
  51 0004 68B1     		cbz	r0, .L6
  52              	.LVL1:
  53              	.L2:
  54              		.loc 1 81 30 discriminator 3 view .LVU3
  82:Middlewares/Third_Party/RealThread_RTOS/components/device/device.c ****     RT_ASSERT(rt_object_get_type(&dev->parent) == RT_Object_Class_Device);
  55              		.loc 1 82 5 discriminator 3 view .LVU4
  56 0006 2046     		mov	r0, r4
  57 0008 FFF7FEFF 		bl	rt_object_get_type
  58              	.LVL2:
  59 000c 0928     		cmp	r0, #9
  60 000e 0ED1     		bne	.L7
  61              	.L3:
  62              		.loc 1 82 74 discriminator 3 view .LVU5
  83:Middlewares/Third_Party/RealThread_RTOS/components/device/device.c ****     RT_ASSERT(rt_object_is_systemobject(&dev->parent));
  63              		.loc 1 83 5 discriminator 3 view .LVU6
  64 0010 2046     		mov	r0, r4
  65 0012 FFF7FEFF 		bl	rt_object_is_systemobject
  66              	.LVL3:
  67 0016 80B1     		cbz	r0, .L8
  68              	.L4:
  69              		.loc 1 83 55 discriminator 3 view .LVU7
  84:Middlewares/Third_Party/RealThread_RTOS/components/device/device.c **** 
  85:Middlewares/Third_Party/RealThread_RTOS/components/device/device.c ****     rt_object_detach(&(dev->parent));
  70              		.loc 1 85 5 discriminator 3 view .LVU8
  71 0018 2046     		mov	r0, r4
  72 001a FFF7FEFF 		bl	rt_object_detach
  73              	.LVL4:
  86:Middlewares/Third_Party/RealThread_RTOS/components/device/device.c **** 
  87:Middlewares/Third_Party/RealThread_RTOS/components/device/device.c ****     return RT_EOK;
ARM GAS  C:\Users\Administrator\AppData\Local\Temp\cc5I1bXo.s 			page 4


  74              		.loc 1 87 5 discriminator 3 view .LVU9
  88:Middlewares/Third_Party/RealThread_RTOS/components/device/device.c **** }
  75              		.loc 1 88 1 is_stmt 0 discriminator 3 view .LVU10
  76 001e 0020     		movs	r0, #0
  77 0020 10BD     		pop	{r4, pc}
  78              	.LVL5:
  79              	.L6:
  81:Middlewares/Third_Party/RealThread_RTOS/components/device/device.c ****     RT_ASSERT(rt_object_get_type(&dev->parent) == RT_Object_Class_Device);
  80              		.loc 1 81 5 is_stmt 1 discriminator 1 view .LVU11
  81 0022 5122     		movs	r2, #81
  82 0024 0849     		ldr	r1, .L9
  83 0026 0948     		ldr	r0, .L9+4
  84              	.LVL6:
  81:Middlewares/Third_Party/RealThread_RTOS/components/device/device.c ****     RT_ASSERT(rt_object_get_type(&dev->parent) == RT_Object_Class_Device);
  85              		.loc 1 81 5 is_stmt 0 discriminator 1 view .LVU12
  86 0028 FFF7FEFF 		bl	rt_assert_handler
  87              	.LVL7:
  88 002c EBE7     		b	.L2
  89              	.L7:
  82:Middlewares/Third_Party/RealThread_RTOS/components/device/device.c ****     RT_ASSERT(rt_object_is_systemobject(&dev->parent));
  90              		.loc 1 82 5 is_stmt 1 discriminator 1 view .LVU13
  91 002e 5222     		movs	r2, #82
  92 0030 0549     		ldr	r1, .L9
  93 0032 0748     		ldr	r0, .L9+8
  94 0034 FFF7FEFF 		bl	rt_assert_handler
  95              	.LVL8:
  96 0038 EAE7     		b	.L3
  97              	.L8:
  83:Middlewares/Third_Party/RealThread_RTOS/components/device/device.c **** 
  98              		.loc 1 83 5 discriminator 1 view .LVU14
  99 003a 5322     		movs	r2, #83
 100 003c 0249     		ldr	r1, .L9
 101 003e 0548     		ldr	r0, .L9+12
 102 0040 FFF7FEFF 		bl	rt_assert_handler
 103              	.LVL9:
 104 0044 E8E7     		b	.L4
 105              	.L10:
 106 0046 00BF     		.align	2
 107              	.L9:
 108 0048 00000000 		.word	.LANCHOR0
 109 004c 00000000 		.word	.LC0
 110 0050 10000000 		.word	.LC1
 111 0054 4C000000 		.word	.LC2
 112              		.cfi_endproc
 113              	.LFE16:
 115              		.section	.text.rt_device_init_all,"ax",%progbits
 116              		.align	1
 117              		.global	rt_device_init_all
 118              		.syntax unified
 119              		.thumb
 120              		.thumb_func
 121              		.fpu softvfp
 123              	rt_device_init_all:
 124              	.LFB17:
  89:Middlewares/Third_Party/RealThread_RTOS/components/device/device.c **** 
  90:Middlewares/Third_Party/RealThread_RTOS/components/device/device.c **** /**
  91:Middlewares/Third_Party/RealThread_RTOS/components/device/device.c ****  * This function initializes all registered device driver
ARM GAS  C:\Users\Administrator\AppData\Local\Temp\cc5I1bXo.s 			page 5


  92:Middlewares/Third_Party/RealThread_RTOS/components/device/device.c ****  *
  93:Middlewares/Third_Party/RealThread_RTOS/components/device/device.c ****  * @return the error code, RT_EOK on successfully.
  94:Middlewares/Third_Party/RealThread_RTOS/components/device/device.c ****  *
  95:Middlewares/Third_Party/RealThread_RTOS/components/device/device.c ****  * @deprecated since 1.2.x, this function is not needed because the initialization
  96:Middlewares/Third_Party/RealThread_RTOS/components/device/device.c ****  *             of a device is performed when application opens it.
  97:Middlewares/Third_Party/RealThread_RTOS/components/device/device.c ****  */
  98:Middlewares/Third_Party/RealThread_RTOS/components/device/device.c **** rt_err_t rt_device_init_all(void)
  99:Middlewares/Third_Party/RealThread_RTOS/components/device/device.c **** {
 125              		.loc 1 99 1 view -0
 126              		.cfi_startproc
 127              		@ args = 0, pretend = 0, frame = 0
 128              		@ frame_needed = 0, uses_anonymous_args = 0
 129              		@ link register save eliminated.
 100:Middlewares/Third_Party/RealThread_RTOS/components/device/device.c ****     return RT_EOK;
 130              		.loc 1 100 5 view .LVU16
 101:Middlewares/Third_Party/RealThread_RTOS/components/device/device.c **** }
 131              		.loc 1 101 1 is_stmt 0 view .LVU17
 132 0000 0020     		movs	r0, #0
 133 0002 7047     		bx	lr
 134              		.cfi_endproc
 135              	.LFE17:
 137              		.section	.text.rt_device_find,"ax",%progbits
 138              		.align	1
 139              		.global	rt_device_find
 140              		.syntax unified
 141              		.thumb
 142              		.thumb_func
 143              		.fpu softvfp
 145              	rt_device_find:
 146              	.LVL10:
 147              	.LFB18:
 102:Middlewares/Third_Party/RealThread_RTOS/components/device/device.c **** 
 103:Middlewares/Third_Party/RealThread_RTOS/components/device/device.c **** /**
 104:Middlewares/Third_Party/RealThread_RTOS/components/device/device.c ****  * This function finds a device driver by specified name.
 105:Middlewares/Third_Party/RealThread_RTOS/components/device/device.c ****  *
 106:Middlewares/Third_Party/RealThread_RTOS/components/device/device.c ****  * @param name the device driver's name
 107:Middlewares/Third_Party/RealThread_RTOS/components/device/device.c ****  *
 108:Middlewares/Third_Party/RealThread_RTOS/components/device/device.c ****  * @return the registered device driver on successful, or RT_NULL on failure.
 109:Middlewares/Third_Party/RealThread_RTOS/components/device/device.c ****  */
 110:Middlewares/Third_Party/RealThread_RTOS/components/device/device.c **** rt_device_t rt_device_find(const char *name)
 111:Middlewares/Third_Party/RealThread_RTOS/components/device/device.c **** {
 148              		.loc 1 111 1 is_stmt 1 view -0
 149              		.cfi_startproc
 150              		@ args = 0, pretend = 0, frame = 0
 151              		@ frame_needed = 0, uses_anonymous_args = 0
 152              		.loc 1 111 1 is_stmt 0 view .LVU19
 153 0000 08B5     		push	{r3, lr}
 154              	.LCFI1:
 155              		.cfi_def_cfa_offset 8
 156              		.cfi_offset 3, -8
 157              		.cfi_offset 14, -4
 112:Middlewares/Third_Party/RealThread_RTOS/components/device/device.c ****     return (rt_device_t)rt_object_find(name, RT_Object_Class_Device);
 158              		.loc 1 112 5 is_stmt 1 view .LVU20
 159              		.loc 1 112 25 is_stmt 0 view .LVU21
 160 0002 0921     		movs	r1, #9
 161 0004 FFF7FEFF 		bl	rt_object_find
 162              	.LVL11:
ARM GAS  C:\Users\Administrator\AppData\Local\Temp\cc5I1bXo.s 			page 6


 113:Middlewares/Third_Party/RealThread_RTOS/components/device/device.c **** }
 163              		.loc 1 113 1 view .LVU22
 164 0008 08BD     		pop	{r3, pc}
 165              		.cfi_endproc
 166              	.LFE18:
 168              		.section	.text.rt_device_register,"ax",%progbits
 169              		.align	1
 170              		.global	rt_device_register
 171              		.syntax unified
 172              		.thumb
 173              		.thumb_func
 174              		.fpu softvfp
 176              	rt_device_register:
 177              	.LVL12:
 178              	.LFB15:
  52:Middlewares/Third_Party/RealThread_RTOS/components/device/device.c ****     if (dev == RT_NULL)
 179              		.loc 1 52 1 is_stmt 1 view -0
 180              		.cfi_startproc
 181              		@ args = 0, pretend = 0, frame = 0
 182              		@ frame_needed = 0, uses_anonymous_args = 0
  53:Middlewares/Third_Party/RealThread_RTOS/components/device/device.c ****         return -RT_ERROR;
 183              		.loc 1 53 5 view .LVU24
  53:Middlewares/Third_Party/RealThread_RTOS/components/device/device.c ****         return -RT_ERROR;
 184              		.loc 1 53 8 is_stmt 0 view .LVU25
 185 0000 88B1     		cbz	r0, .L16
  52:Middlewares/Third_Party/RealThread_RTOS/components/device/device.c ****     if (dev == RT_NULL)
 186              		.loc 1 52 1 view .LVU26
 187 0002 70B5     		push	{r4, r5, r6, lr}
 188              	.LCFI2:
 189              		.cfi_def_cfa_offset 16
 190              		.cfi_offset 4, -16
 191              		.cfi_offset 5, -12
 192              		.cfi_offset 6, -8
 193              		.cfi_offset 14, -4
 194 0004 0C46     		mov	r4, r1
 195 0006 1646     		mov	r6, r2
 196 0008 0546     		mov	r5, r0
  56:Middlewares/Third_Party/RealThread_RTOS/components/device/device.c ****         return -RT_ERROR;
 197              		.loc 1 56 5 is_stmt 1 view .LVU27
  56:Middlewares/Third_Party/RealThread_RTOS/components/device/device.c ****         return -RT_ERROR;
 198              		.loc 1 56 9 is_stmt 0 view .LVU28
 199 000a 0846     		mov	r0, r1
 200              	.LVL13:
  56:Middlewares/Third_Party/RealThread_RTOS/components/device/device.c ****         return -RT_ERROR;
 201              		.loc 1 56 9 view .LVU29
 202 000c FFF7FEFF 		bl	rt_device_find
 203              	.LVL14:
  56:Middlewares/Third_Party/RealThread_RTOS/components/device/device.c ****         return -RT_ERROR;
 204              		.loc 1 56 8 view .LVU30
 205 0010 60B9     		cbnz	r0, .L17
  59:Middlewares/Third_Party/RealThread_RTOS/components/device/device.c ****     dev->flag = flags;
 206              		.loc 1 59 5 is_stmt 1 view .LVU31
 207 0012 2246     		mov	r2, r4
 208 0014 0921     		movs	r1, #9
 209 0016 2846     		mov	r0, r5
 210 0018 FFF7FEFF 		bl	rt_object_init
 211              	.LVL15:
ARM GAS  C:\Users\Administrator\AppData\Local\Temp\cc5I1bXo.s 			page 7


  60:Middlewares/Third_Party/RealThread_RTOS/components/device/device.c ****     dev->ref_count = 0;
 212              		.loc 1 60 5 view .LVU32
  60:Middlewares/Third_Party/RealThread_RTOS/components/device/device.c ****     dev->ref_count = 0;
 213              		.loc 1 60 15 is_stmt 0 view .LVU33
 214 001c EE82     		strh	r6, [r5, #22]	@ movhi
  61:Middlewares/Third_Party/RealThread_RTOS/components/device/device.c ****     dev->open_flag = 0;
 215              		.loc 1 61 5 is_stmt 1 view .LVU34
  61:Middlewares/Third_Party/RealThread_RTOS/components/device/device.c ****     dev->open_flag = 0;
 216              		.loc 1 61 20 is_stmt 0 view .LVU35
 217 001e 0020     		movs	r0, #0
 218 0020 A876     		strb	r0, [r5, #26]
  62:Middlewares/Third_Party/RealThread_RTOS/components/device/device.c **** 
 219              		.loc 1 62 5 is_stmt 1 view .LVU36
  62:Middlewares/Third_Party/RealThread_RTOS/components/device/device.c **** 
 220              		.loc 1 62 20 is_stmt 0 view .LVU37
 221 0022 2883     		strh	r0, [r5, #24]	@ movhi
  69:Middlewares/Third_Party/RealThread_RTOS/components/device/device.c **** }
 222              		.loc 1 69 5 is_stmt 1 view .LVU38
 223              	.L14:
  70:Middlewares/Third_Party/RealThread_RTOS/components/device/device.c **** 
 224              		.loc 1 70 1 is_stmt 0 view .LVU39
 225 0024 70BD     		pop	{r4, r5, r6, pc}
 226              	.LVL16:
 227              	.L16:
 228              	.LCFI3:
 229              		.cfi_def_cfa_offset 0
 230              		.cfi_restore 4
 231              		.cfi_restore 5
 232              		.cfi_restore 6
 233              		.cfi_restore 14
  54:Middlewares/Third_Party/RealThread_RTOS/components/device/device.c **** 
 234              		.loc 1 54 16 view .LVU40
 235 0026 4FF0FF30 		mov	r0, #-1
 236              	.LVL17:
  70:Middlewares/Third_Party/RealThread_RTOS/components/device/device.c **** 
 237              		.loc 1 70 1 view .LVU41
 238 002a 7047     		bx	lr
 239              	.LVL18:
 240              	.L17:
 241              	.LCFI4:
 242              		.cfi_def_cfa_offset 16
 243              		.cfi_offset 4, -16
 244              		.cfi_offset 5, -12
 245              		.cfi_offset 6, -8
 246              		.cfi_offset 14, -4
  57:Middlewares/Third_Party/RealThread_RTOS/components/device/device.c **** 
 247              		.loc 1 57 16 view .LVU42
 248 002c 4FF0FF30 		mov	r0, #-1
 249 0030 F8E7     		b	.L14
 250              		.cfi_endproc
 251              	.LFE15:
 253              		.section	.text.rt_device_create,"ax",%progbits
 254              		.align	1
 255              		.global	rt_device_create
 256              		.syntax unified
 257              		.thumb
 258              		.thumb_func
ARM GAS  C:\Users\Administrator\AppData\Local\Temp\cc5I1bXo.s 			page 8


 259              		.fpu softvfp
 261              	rt_device_create:
 262              	.LVL19:
 263              	.LFB19:
 114:Middlewares/Third_Party/RealThread_RTOS/components/device/device.c **** 
 115:Middlewares/Third_Party/RealThread_RTOS/components/device/device.c **** #ifdef RT_USING_HEAP
 116:Middlewares/Third_Party/RealThread_RTOS/components/device/device.c **** /**
 117:Middlewares/Third_Party/RealThread_RTOS/components/device/device.c ****  * This function creates a device object with user data size.
 118:Middlewares/Third_Party/RealThread_RTOS/components/device/device.c ****  *
 119:Middlewares/Third_Party/RealThread_RTOS/components/device/device.c ****  * @param type, the kind type of this device object.
 120:Middlewares/Third_Party/RealThread_RTOS/components/device/device.c ****  * @param attach_size, the size of user data.
 121:Middlewares/Third_Party/RealThread_RTOS/components/device/device.c ****  *
 122:Middlewares/Third_Party/RealThread_RTOS/components/device/device.c ****  * @return the allocated device object, or RT_NULL when failed.
 123:Middlewares/Third_Party/RealThread_RTOS/components/device/device.c ****  */
 124:Middlewares/Third_Party/RealThread_RTOS/components/device/device.c **** rt_device_t rt_device_create(int type, int attach_size)
 125:Middlewares/Third_Party/RealThread_RTOS/components/device/device.c **** {
 264              		.loc 1 125 1 is_stmt 1 view -0
 265              		.cfi_startproc
 266              		@ args = 0, pretend = 0, frame = 0
 267              		@ frame_needed = 0, uses_anonymous_args = 0
 268              		.loc 1 125 1 is_stmt 0 view .LVU44
 269 0000 38B5     		push	{r3, r4, r5, lr}
 270              	.LCFI5:
 271              		.cfi_def_cfa_offset 16
 272              		.cfi_offset 3, -16
 273              		.cfi_offset 4, -12
 274              		.cfi_offset 5, -8
 275              		.cfi_offset 14, -4
 276 0002 0446     		mov	r4, r0
 126:Middlewares/Third_Party/RealThread_RTOS/components/device/device.c ****     int size;
 277              		.loc 1 126 5 is_stmt 1 view .LVU45
 127:Middlewares/Third_Party/RealThread_RTOS/components/device/device.c ****     rt_device_t device;
 278              		.loc 1 127 5 view .LVU46
 128:Middlewares/Third_Party/RealThread_RTOS/components/device/device.c **** 
 129:Middlewares/Third_Party/RealThread_RTOS/components/device/device.c ****     size = RT_ALIGN(sizeof(struct rt_device), RT_ALIGN_SIZE);
 279              		.loc 1 129 5 view .LVU47
 280              	.LVL20:
 130:Middlewares/Third_Party/RealThread_RTOS/components/device/device.c ****     attach_size = RT_ALIGN(attach_size, RT_ALIGN_SIZE);
 281              		.loc 1 130 5 view .LVU48
 282              		.loc 1 130 19 is_stmt 0 view .LVU49
 283 0004 0331     		adds	r1, r1, #3
 284              	.LVL21:
 285              		.loc 1 130 17 view .LVU50
 286 0006 21F00301 		bic	r1, r1, #3
 287              	.LVL22:
 131:Middlewares/Third_Party/RealThread_RTOS/components/device/device.c ****     /* use the total size */
 132:Middlewares/Third_Party/RealThread_RTOS/components/device/device.c ****     size += attach_size;
 288              		.loc 1 132 5 is_stmt 1 view .LVU51
 133:Middlewares/Third_Party/RealThread_RTOS/components/device/device.c **** 
 134:Middlewares/Third_Party/RealThread_RTOS/components/device/device.c ****     device = (rt_device_t)rt_malloc(size);
 289              		.loc 1 134 5 view .LVU52
 290              		.loc 1 134 27 is_stmt 0 view .LVU53
 291 000a 01F14000 		add	r0, r1, #64
 292              	.LVL23:
 293              		.loc 1 134 27 view .LVU54
 294 000e FFF7FEFF 		bl	rt_malloc
 295              	.LVL24:
ARM GAS  C:\Users\Administrator\AppData\Local\Temp\cc5I1bXo.s 			page 9


 135:Middlewares/Third_Party/RealThread_RTOS/components/device/device.c ****     if (device)
 296              		.loc 1 135 5 is_stmt 1 view .LVU55
 297              		.loc 1 135 8 is_stmt 0 view .LVU56
 298 0012 0546     		mov	r5, r0
 299 0014 20B1     		cbz	r0, .L22
 136:Middlewares/Third_Party/RealThread_RTOS/components/device/device.c ****     {
 137:Middlewares/Third_Party/RealThread_RTOS/components/device/device.c ****         rt_memset(device, 0x0, sizeof(struct rt_device));
 300              		.loc 1 137 9 is_stmt 1 view .LVU57
 301 0016 4022     		movs	r2, #64
 302 0018 0021     		movs	r1, #0
 303 001a FFF7FEFF 		bl	rt_memset
 304              	.LVL25:
 138:Middlewares/Third_Party/RealThread_RTOS/components/device/device.c ****         device->type = (enum rt_device_class_type)type;
 305              		.loc 1 138 9 view .LVU58
 306              		.loc 1 138 22 is_stmt 0 view .LVU59
 307 001e 2C75     		strb	r4, [r5, #20]
 139:Middlewares/Third_Party/RealThread_RTOS/components/device/device.c ****     }
 140:Middlewares/Third_Party/RealThread_RTOS/components/device/device.c **** 
 141:Middlewares/Third_Party/RealThread_RTOS/components/device/device.c ****     return device;
 308              		.loc 1 141 5 is_stmt 1 view .LVU60
 309              	.L22:
 142:Middlewares/Third_Party/RealThread_RTOS/components/device/device.c **** }
 310              		.loc 1 142 1 is_stmt 0 view .LVU61
 311 0020 2846     		mov	r0, r5
 312 0022 38BD     		pop	{r3, r4, r5, pc}
 313              		.loc 1 142 1 view .LVU62
 314              		.cfi_endproc
 315              	.LFE19:
 317              		.section	.rodata.rt_device_destroy.str1.4,"aMS",%progbits,1
 318              		.align	2
 319              	.LC3:
 320 0000 72745F6F 		.ascii	"rt_object_is_systemobject(&dev->parent) == RT_FALSE"
 320      626A6563 
 320      745F6973 
 320      5F737973 
 320      74656D6F 
 321 0033 00       		.ascii	"\000"
 322              		.section	.text.rt_device_destroy,"ax",%progbits
 323              		.align	1
 324              		.global	rt_device_destroy
 325              		.syntax unified
 326              		.thumb
 327              		.thumb_func
 328              		.fpu softvfp
 330              	rt_device_destroy:
 331              	.LVL26:
 332              	.LFB20:
 143:Middlewares/Third_Party/RealThread_RTOS/components/device/device.c **** 
 144:Middlewares/Third_Party/RealThread_RTOS/components/device/device.c **** /**
 145:Middlewares/Third_Party/RealThread_RTOS/components/device/device.c ****  * This function destroy the specific device object.
 146:Middlewares/Third_Party/RealThread_RTOS/components/device/device.c ****  *
 147:Middlewares/Third_Party/RealThread_RTOS/components/device/device.c ****  * @param dev, the specific device object.
 148:Middlewares/Third_Party/RealThread_RTOS/components/device/device.c ****  */
 149:Middlewares/Third_Party/RealThread_RTOS/components/device/device.c **** void rt_device_destroy(rt_device_t dev)
 150:Middlewares/Third_Party/RealThread_RTOS/components/device/device.c **** {
 333              		.loc 1 150 1 is_stmt 1 view -0
 334              		.cfi_startproc
ARM GAS  C:\Users\Administrator\AppData\Local\Temp\cc5I1bXo.s 			page 10


 335              		@ args = 0, pretend = 0, frame = 0
 336              		@ frame_needed = 0, uses_anonymous_args = 0
 337              		.loc 1 150 1 is_stmt 0 view .LVU64
 338 0000 10B5     		push	{r4, lr}
 339              	.LCFI6:
 340              		.cfi_def_cfa_offset 8
 341              		.cfi_offset 4, -8
 342              		.cfi_offset 14, -4
 151:Middlewares/Third_Party/RealThread_RTOS/components/device/device.c ****     RT_ASSERT(dev != RT_NULL);
 343              		.loc 1 151 5 is_stmt 1 view .LVU65
 344 0002 0446     		mov	r4, r0
 345 0004 78B1     		cbz	r0, .L30
 346              	.LVL27:
 347              	.L26:
 348              		.loc 1 151 30 discriminator 3 view .LVU66
 152:Middlewares/Third_Party/RealThread_RTOS/components/device/device.c ****     RT_ASSERT(rt_object_get_type(&dev->parent) == RT_Object_Class_Device);
 349              		.loc 1 152 5 discriminator 3 view .LVU67
 350 0006 2046     		mov	r0, r4
 351 0008 FFF7FEFF 		bl	rt_object_get_type
 352              	.LVL28:
 353 000c 0928     		cmp	r0, #9
 354 000e 10D1     		bne	.L31
 355              	.L27:
 356              		.loc 1 152 74 discriminator 3 view .LVU68
 153:Middlewares/Third_Party/RealThread_RTOS/components/device/device.c ****     RT_ASSERT(rt_object_is_systemobject(&dev->parent) == RT_FALSE);
 357              		.loc 1 153 5 discriminator 3 view .LVU69
 358 0010 2046     		mov	r0, r4
 359 0012 FFF7FEFF 		bl	rt_object_is_systemobject
 360              	.LVL29:
 361 0016 90B9     		cbnz	r0, .L32
 362              	.L28:
 363              		.loc 1 153 67 discriminator 3 view .LVU70
 154:Middlewares/Third_Party/RealThread_RTOS/components/device/device.c **** 
 155:Middlewares/Third_Party/RealThread_RTOS/components/device/device.c ****     rt_object_detach(&(dev->parent));
 364              		.loc 1 155 5 discriminator 3 view .LVU71
 365 0018 2046     		mov	r0, r4
 366 001a FFF7FEFF 		bl	rt_object_detach
 367              	.LVL30:
 156:Middlewares/Third_Party/RealThread_RTOS/components/device/device.c **** 
 157:Middlewares/Third_Party/RealThread_RTOS/components/device/device.c ****     /* release this device object */
 158:Middlewares/Third_Party/RealThread_RTOS/components/device/device.c ****     rt_free(dev);
 368              		.loc 1 158 5 discriminator 3 view .LVU72
 369 001e 2046     		mov	r0, r4
 370 0020 FFF7FEFF 		bl	rt_free
 371              	.LVL31:
 159:Middlewares/Third_Party/RealThread_RTOS/components/device/device.c **** }
 372              		.loc 1 159 1 is_stmt 0 discriminator 3 view .LVU73
 373 0024 10BD     		pop	{r4, pc}
 374              	.LVL32:
 375              	.L30:
 151:Middlewares/Third_Party/RealThread_RTOS/components/device/device.c ****     RT_ASSERT(rt_object_get_type(&dev->parent) == RT_Object_Class_Device);
 376              		.loc 1 151 5 is_stmt 1 discriminator 1 view .LVU74
 377 0026 9722     		movs	r2, #151
 378 0028 0849     		ldr	r1, .L33
 379 002a 0948     		ldr	r0, .L33+4
 380              	.LVL33:
 151:Middlewares/Third_Party/RealThread_RTOS/components/device/device.c ****     RT_ASSERT(rt_object_get_type(&dev->parent) == RT_Object_Class_Device);
ARM GAS  C:\Users\Administrator\AppData\Local\Temp\cc5I1bXo.s 			page 11


 381              		.loc 1 151 5 is_stmt 0 discriminator 1 view .LVU75
 382 002c FFF7FEFF 		bl	rt_assert_handler
 383              	.LVL34:
 384 0030 E9E7     		b	.L26
 385              	.L31:
 152:Middlewares/Third_Party/RealThread_RTOS/components/device/device.c ****     RT_ASSERT(rt_object_is_systemobject(&dev->parent) == RT_FALSE);
 386              		.loc 1 152 5 is_stmt 1 discriminator 1 view .LVU76
 387 0032 9822     		movs	r2, #152
 388 0034 0549     		ldr	r1, .L33
 389 0036 0748     		ldr	r0, .L33+8
 390 0038 FFF7FEFF 		bl	rt_assert_handler
 391              	.LVL35:
 392 003c E8E7     		b	.L27
 393              	.L32:
 153:Middlewares/Third_Party/RealThread_RTOS/components/device/device.c **** 
 394              		.loc 1 153 5 discriminator 1 view .LVU77
 395 003e 9922     		movs	r2, #153
 396 0040 0249     		ldr	r1, .L33
 397 0042 0548     		ldr	r0, .L33+12
 398 0044 FFF7FEFF 		bl	rt_assert_handler
 399              	.LVL36:
 400 0048 E6E7     		b	.L28
 401              	.L34:
 402 004a 00BF     		.align	2
 403              	.L33:
 404 004c 00000000 		.word	.LANCHOR1
 405 0050 00000000 		.word	.LC0
 406 0054 10000000 		.word	.LC1
 407 0058 00000000 		.word	.LC3
 408              		.cfi_endproc
 409              	.LFE20:
 411              		.section	.rodata.rt_device_init.str1.4,"aMS",%progbits,1
 412              		.align	2
 413              	.LC4:
 414 0000 546F2069 		.ascii	"To initialize device:%s failed. The error code is %"
 414      6E697469 
 414      616C697A 
 414      65206465 
 414      76696365 
 415 0033 640A00   		.ascii	"d\012\000"
 416              		.section	.text.rt_device_init,"ax",%progbits
 417              		.align	1
 418              		.global	rt_device_init
 419              		.syntax unified
 420              		.thumb
 421              		.thumb_func
 422              		.fpu softvfp
 424              	rt_device_init:
 425              	.LVL37:
 426              	.LFB21:
 160:Middlewares/Third_Party/RealThread_RTOS/components/device/device.c **** #endif
 161:Middlewares/Third_Party/RealThread_RTOS/components/device/device.c **** 
 162:Middlewares/Third_Party/RealThread_RTOS/components/device/device.c **** /**
 163:Middlewares/Third_Party/RealThread_RTOS/components/device/device.c ****  * This function will initialize the specified device
 164:Middlewares/Third_Party/RealThread_RTOS/components/device/device.c ****  *
 165:Middlewares/Third_Party/RealThread_RTOS/components/device/device.c ****  * @param dev the pointer of device driver structure
 166:Middlewares/Third_Party/RealThread_RTOS/components/device/device.c ****  *
ARM GAS  C:\Users\Administrator\AppData\Local\Temp\cc5I1bXo.s 			page 12


 167:Middlewares/Third_Party/RealThread_RTOS/components/device/device.c ****  * @return the result
 168:Middlewares/Third_Party/RealThread_RTOS/components/device/device.c ****  */
 169:Middlewares/Third_Party/RealThread_RTOS/components/device/device.c **** rt_err_t rt_device_init(rt_device_t dev)
 170:Middlewares/Third_Party/RealThread_RTOS/components/device/device.c **** {
 427              		.loc 1 170 1 view -0
 428              		.cfi_startproc
 429              		@ args = 0, pretend = 0, frame = 0
 430              		@ frame_needed = 0, uses_anonymous_args = 0
 431              		.loc 1 170 1 is_stmt 0 view .LVU79
 432 0000 38B5     		push	{r3, r4, r5, lr}
 433              	.LCFI7:
 434              		.cfi_def_cfa_offset 16
 435              		.cfi_offset 3, -16
 436              		.cfi_offset 4, -12
 437              		.cfi_offset 5, -8
 438              		.cfi_offset 14, -4
 171:Middlewares/Third_Party/RealThread_RTOS/components/device/device.c ****     rt_err_t result = RT_EOK;
 439              		.loc 1 171 5 is_stmt 1 view .LVU80
 440              	.LVL38:
 172:Middlewares/Third_Party/RealThread_RTOS/components/device/device.c **** 
 173:Middlewares/Third_Party/RealThread_RTOS/components/device/device.c ****     RT_ASSERT(dev != RT_NULL);
 441              		.loc 1 173 5 view .LVU81
 442 0002 0446     		mov	r4, r0
 443 0004 70B1     		cbz	r0, .L42
 444              	.LVL39:
 445              	.L36:
 446              		.loc 1 173 30 discriminator 3 view .LVU82
 174:Middlewares/Third_Party/RealThread_RTOS/components/device/device.c **** 
 175:Middlewares/Third_Party/RealThread_RTOS/components/device/device.c ****     /* get device_init handler */
 176:Middlewares/Third_Party/RealThread_RTOS/components/device/device.c ****     if (device_init != RT_NULL)
 447              		.loc 1 176 5 discriminator 3 view .LVU83
 448              		.loc 1 176 9 is_stmt 0 discriminator 3 view .LVU84
 449 0006 636A     		ldr	r3, [r4, #36]
 450              		.loc 1 176 8 discriminator 3 view .LVU85
 451 0008 C3B1     		cbz	r3, .L39
 177:Middlewares/Third_Party/RealThread_RTOS/components/device/device.c ****     {
 178:Middlewares/Third_Party/RealThread_RTOS/components/device/device.c ****         if (!(dev->flag & RT_DEVICE_FLAG_ACTIVATED))
 452              		.loc 1 178 9 is_stmt 1 view .LVU86
 453              		.loc 1 178 18 is_stmt 0 view .LVU87
 454 000a E28A     		ldrh	r2, [r4, #22]
 455              		.loc 1 178 12 view .LVU88
 456 000c 12F0100F 		tst	r2, #16
 457 0010 16D1     		bne	.L40
 179:Middlewares/Third_Party/RealThread_RTOS/components/device/device.c ****         {
 180:Middlewares/Third_Party/RealThread_RTOS/components/device/device.c ****             result = device_init(dev);
 458              		.loc 1 180 13 is_stmt 1 view .LVU89
 459              		.loc 1 180 22 is_stmt 0 view .LVU90
 460 0012 2046     		mov	r0, r4
 461 0014 9847     		blx	r3
 462              	.LVL40:
 181:Middlewares/Third_Party/RealThread_RTOS/components/device/device.c ****             if (result != RT_EOK)
 463              		.loc 1 181 13 is_stmt 1 view .LVU91
 464              		.loc 1 181 16 is_stmt 0 view .LVU92
 465 0016 0546     		mov	r5, r0
 466 0018 50B9     		cbnz	r0, .L43
 182:Middlewares/Third_Party/RealThread_RTOS/components/device/device.c ****             {
 183:Middlewares/Third_Party/RealThread_RTOS/components/device/device.c ****                 rt_kprintf("To initialize device:%s failed. The error code is %d\n",
ARM GAS  C:\Users\Administrator\AppData\Local\Temp\cc5I1bXo.s 			page 13


 184:Middlewares/Third_Party/RealThread_RTOS/components/device/device.c ****                            dev->parent.name, result);
 185:Middlewares/Third_Party/RealThread_RTOS/components/device/device.c ****             }
 186:Middlewares/Third_Party/RealThread_RTOS/components/device/device.c ****             else
 187:Middlewares/Third_Party/RealThread_RTOS/components/device/device.c ****             {
 188:Middlewares/Third_Party/RealThread_RTOS/components/device/device.c ****                 dev->flag |= RT_DEVICE_FLAG_ACTIVATED;
 467              		.loc 1 188 17 is_stmt 1 view .LVU93
 468              		.loc 1 188 27 is_stmt 0 view .LVU94
 469 001a E38A     		ldrh	r3, [r4, #22]
 470 001c 43F01003 		orr	r3, r3, #16
 471 0020 E382     		strh	r3, [r4, #22]	@ movhi
 472 0022 0EE0     		b	.L35
 473              	.LVL41:
 474              	.L42:
 173:Middlewares/Third_Party/RealThread_RTOS/components/device/device.c **** 
 475              		.loc 1 173 5 is_stmt 1 discriminator 1 view .LVU95
 476 0024 AD22     		movs	r2, #173
 477 0026 0849     		ldr	r1, .L44
 478 0028 0848     		ldr	r0, .L44+4
 479              	.LVL42:
 173:Middlewares/Third_Party/RealThread_RTOS/components/device/device.c **** 
 480              		.loc 1 173 5 is_stmt 0 discriminator 1 view .LVU96
 481 002a FFF7FEFF 		bl	rt_assert_handler
 482              	.LVL43:
 483 002e EAE7     		b	.L36
 484              	.LVL44:
 485              	.L43:
 183:Middlewares/Third_Party/RealThread_RTOS/components/device/device.c ****                            dev->parent.name, result);
 486              		.loc 1 183 17 is_stmt 1 view .LVU97
 487 0030 0246     		mov	r2, r0
 488 0032 2146     		mov	r1, r4
 489 0034 0648     		ldr	r0, .L44+8
 490              	.LVL45:
 183:Middlewares/Third_Party/RealThread_RTOS/components/device/device.c ****                            dev->parent.name, result);
 491              		.loc 1 183 17 is_stmt 0 view .LVU98
 492 0036 FFF7FEFF 		bl	rt_kprintf
 493              	.LVL46:
 494 003a 02E0     		b	.L35
 495              	.LVL47:
 496              	.L39:
 171:Middlewares/Third_Party/RealThread_RTOS/components/device/device.c **** 
 497              		.loc 1 171 14 view .LVU99
 498 003c 0025     		movs	r5, #0
 499 003e 00E0     		b	.L35
 500              	.L40:
 501 0040 0025     		movs	r5, #0
 189:Middlewares/Third_Party/RealThread_RTOS/components/device/device.c ****             }
 190:Middlewares/Third_Party/RealThread_RTOS/components/device/device.c ****         }
 191:Middlewares/Third_Party/RealThread_RTOS/components/device/device.c ****     }
 192:Middlewares/Third_Party/RealThread_RTOS/components/device/device.c **** 
 193:Middlewares/Third_Party/RealThread_RTOS/components/device/device.c ****     return result;
 502              		.loc 1 193 5 is_stmt 1 view .LVU100
 503              	.LVL48:
 504              	.L35:
 194:Middlewares/Third_Party/RealThread_RTOS/components/device/device.c **** }
 505              		.loc 1 194 1 is_stmt 0 view .LVU101
 506 0042 2846     		mov	r0, r5
 507 0044 38BD     		pop	{r3, r4, r5, pc}
ARM GAS  C:\Users\Administrator\AppData\Local\Temp\cc5I1bXo.s 			page 14


 508              	.LVL49:
 509              	.L45:
 510              		.loc 1 194 1 view .LVU102
 511 0046 00BF     		.align	2
 512              	.L44:
 513 0048 00000000 		.word	.LANCHOR2
 514 004c 00000000 		.word	.LC0
 515 0050 00000000 		.word	.LC4
 516              		.cfi_endproc
 517              	.LFE21:
 519              		.section	.rodata.rt_device_open.str1.4,"aMS",%progbits,1
 520              		.align	2
 521              	.LC5:
 522 0000 6465762D 		.ascii	"dev->ref_count != 0\000"
 522      3E726566 
 522      5F636F75 
 522      6E742021 
 522      3D203000 
 523              		.section	.text.rt_device_open,"ax",%progbits
 524              		.align	1
 525              		.global	rt_device_open
 526              		.syntax unified
 527              		.thumb
 528              		.thumb_func
 529              		.fpu softvfp
 531              	rt_device_open:
 532              	.LVL50:
 533              	.LFB22:
 195:Middlewares/Third_Party/RealThread_RTOS/components/device/device.c **** 
 196:Middlewares/Third_Party/RealThread_RTOS/components/device/device.c **** /**
 197:Middlewares/Third_Party/RealThread_RTOS/components/device/device.c ****  * This function will open a device
 198:Middlewares/Third_Party/RealThread_RTOS/components/device/device.c ****  *
 199:Middlewares/Third_Party/RealThread_RTOS/components/device/device.c ****  * @param dev the pointer of device driver structure
 200:Middlewares/Third_Party/RealThread_RTOS/components/device/device.c ****  * @param oflag the flags for device open
 201:Middlewares/Third_Party/RealThread_RTOS/components/device/device.c ****  *
 202:Middlewares/Third_Party/RealThread_RTOS/components/device/device.c ****  * @return the result
 203:Middlewares/Third_Party/RealThread_RTOS/components/device/device.c ****  */
 204:Middlewares/Third_Party/RealThread_RTOS/components/device/device.c **** rt_err_t rt_device_open(rt_device_t dev, rt_uint16_t oflag)
 205:Middlewares/Third_Party/RealThread_RTOS/components/device/device.c **** {
 534              		.loc 1 205 1 is_stmt 1 view -0
 535              		.cfi_startproc
 536              		@ args = 0, pretend = 0, frame = 0
 537              		@ frame_needed = 0, uses_anonymous_args = 0
 538              		.loc 1 205 1 is_stmt 0 view .LVU104
 539 0000 70B5     		push	{r4, r5, r6, lr}
 540              	.LCFI8:
 541              		.cfi_def_cfa_offset 16
 542              		.cfi_offset 4, -16
 543              		.cfi_offset 5, -12
 544              		.cfi_offset 6, -8
 545              		.cfi_offset 14, -4
 546 0002 0E46     		mov	r6, r1
 206:Middlewares/Third_Party/RealThread_RTOS/components/device/device.c ****     rt_err_t result = RT_EOK;
 547              		.loc 1 206 5 is_stmt 1 view .LVU105
 548              	.LVL51:
 207:Middlewares/Third_Party/RealThread_RTOS/components/device/device.c **** 
 208:Middlewares/Third_Party/RealThread_RTOS/components/device/device.c ****     RT_ASSERT(dev != RT_NULL);
ARM GAS  C:\Users\Administrator\AppData\Local\Temp\cc5I1bXo.s 			page 15


 549              		.loc 1 208 5 view .LVU106
 550 0004 0446     		mov	r4, r0
 551 0006 98B1     		cbz	r0, .L60
 552              	.LVL52:
 553              	.L47:
 554              		.loc 1 208 30 discriminator 3 view .LVU107
 209:Middlewares/Third_Party/RealThread_RTOS/components/device/device.c ****     RT_ASSERT(rt_object_get_type(&dev->parent) == RT_Object_Class_Device);
 555              		.loc 1 209 5 discriminator 3 view .LVU108
 556 0008 2046     		mov	r0, r4
 557 000a FFF7FEFF 		bl	rt_object_get_type
 558              	.LVL53:
 559 000e 0928     		cmp	r0, #9
 560 0010 14D1     		bne	.L61
 561              	.L48:
 562              		.loc 1 209 74 discriminator 3 view .LVU109
 210:Middlewares/Third_Party/RealThread_RTOS/components/device/device.c **** 
 211:Middlewares/Third_Party/RealThread_RTOS/components/device/device.c ****     /* if device is not initialized, initialize it. */
 212:Middlewares/Third_Party/RealThread_RTOS/components/device/device.c ****     if (!(dev->flag & RT_DEVICE_FLAG_ACTIVATED))
 563              		.loc 1 212 5 discriminator 3 view .LVU110
 564              		.loc 1 212 14 is_stmt 0 discriminator 3 view .LVU111
 565 0012 E38A     		ldrh	r3, [r4, #22]
 566              		.loc 1 212 8 discriminator 3 view .LVU112
 567 0014 13F0100F 		tst	r3, #16
 568 0018 1ED1     		bne	.L56
 213:Middlewares/Third_Party/RealThread_RTOS/components/device/device.c ****     {
 214:Middlewares/Third_Party/RealThread_RTOS/components/device/device.c ****         if (device_init != RT_NULL)
 569              		.loc 1 214 9 is_stmt 1 view .LVU113
 570              		.loc 1 214 13 is_stmt 0 view .LVU114
 571 001a 636A     		ldr	r3, [r4, #36]
 572              		.loc 1 214 12 view .LVU115
 573 001c D3B1     		cbz	r3, .L57
 215:Middlewares/Third_Party/RealThread_RTOS/components/device/device.c ****         {
 216:Middlewares/Third_Party/RealThread_RTOS/components/device/device.c ****             result = device_init(dev);
 574              		.loc 1 216 13 is_stmt 1 view .LVU116
 575              		.loc 1 216 22 is_stmt 0 view .LVU117
 576 001e 2046     		mov	r0, r4
 577 0020 9847     		blx	r3
 578              	.LVL54:
 217:Middlewares/Third_Party/RealThread_RTOS/components/device/device.c ****             if (result != RT_EOK)
 579              		.loc 1 217 13 is_stmt 1 view .LVU118
 580              		.loc 1 217 16 is_stmt 0 view .LVU119
 581 0022 0546     		mov	r5, r0
 582 0024 80B9     		cbnz	r0, .L62
 583              	.LVL55:
 584              	.L50:
 218:Middlewares/Third_Party/RealThread_RTOS/components/device/device.c ****             {
 219:Middlewares/Third_Party/RealThread_RTOS/components/device/device.c ****                 rt_kprintf("To initialize device:%s failed. The error code is %d\n",
 220:Middlewares/Third_Party/RealThread_RTOS/components/device/device.c ****                            dev->parent.name, result);
 221:Middlewares/Third_Party/RealThread_RTOS/components/device/device.c **** 
 222:Middlewares/Third_Party/RealThread_RTOS/components/device/device.c ****                 return result;
 223:Middlewares/Third_Party/RealThread_RTOS/components/device/device.c ****             }
 224:Middlewares/Third_Party/RealThread_RTOS/components/device/device.c ****         }
 225:Middlewares/Third_Party/RealThread_RTOS/components/device/device.c **** 
 226:Middlewares/Third_Party/RealThread_RTOS/components/device/device.c ****         dev->flag |= RT_DEVICE_FLAG_ACTIVATED;
 585              		.loc 1 226 9 is_stmt 1 view .LVU120
 586              		.loc 1 226 19 is_stmt 0 view .LVU121
 587 0026 E38A     		ldrh	r3, [r4, #22]
ARM GAS  C:\Users\Administrator\AppData\Local\Temp\cc5I1bXo.s 			page 16


 588 0028 43F01003 		orr	r3, r3, #16
 589 002c E382     		strh	r3, [r4, #22]	@ movhi
 590 002e 14E0     		b	.L49
 591              	.LVL56:
 592              	.L60:
 208:Middlewares/Third_Party/RealThread_RTOS/components/device/device.c ****     RT_ASSERT(rt_object_get_type(&dev->parent) == RT_Object_Class_Device);
 593              		.loc 1 208 5 is_stmt 1 discriminator 1 view .LVU122
 594 0030 D022     		movs	r2, #208
 595 0032 1F49     		ldr	r1, .L64
 596              	.LVL57:
 208:Middlewares/Third_Party/RealThread_RTOS/components/device/device.c ****     RT_ASSERT(rt_object_get_type(&dev->parent) == RT_Object_Class_Device);
 597              		.loc 1 208 5 is_stmt 0 discriminator 1 view .LVU123
 598 0034 1F48     		ldr	r0, .L64+4
 599              	.LVL58:
 208:Middlewares/Third_Party/RealThread_RTOS/components/device/device.c ****     RT_ASSERT(rt_object_get_type(&dev->parent) == RT_Object_Class_Device);
 600              		.loc 1 208 5 discriminator 1 view .LVU124
 601 0036 FFF7FEFF 		bl	rt_assert_handler
 602              	.LVL59:
 603 003a E5E7     		b	.L47
 604              	.L61:
 209:Middlewares/Third_Party/RealThread_RTOS/components/device/device.c **** 
 605              		.loc 1 209 5 is_stmt 1 discriminator 1 view .LVU125
 606 003c D122     		movs	r2, #209
 607 003e 1C49     		ldr	r1, .L64
 608 0040 1D48     		ldr	r0, .L64+8
 609 0042 FFF7FEFF 		bl	rt_assert_handler
 610              	.LVL60:
 611 0046 E4E7     		b	.L48
 612              	.LVL61:
 613              	.L62:
 219:Middlewares/Third_Party/RealThread_RTOS/components/device/device.c ****                            dev->parent.name, result);
 614              		.loc 1 219 17 view .LVU126
 615 0048 0246     		mov	r2, r0
 616 004a 2146     		mov	r1, r4
 617 004c 1B48     		ldr	r0, .L64+12
 618              	.LVL62:
 219:Middlewares/Third_Party/RealThread_RTOS/components/device/device.c ****                            dev->parent.name, result);
 619              		.loc 1 219 17 is_stmt 0 view .LVU127
 620 004e FFF7FEFF 		bl	rt_kprintf
 621              	.LVL63:
 222:Middlewares/Third_Party/RealThread_RTOS/components/device/device.c ****             }
 622              		.loc 1 222 17 is_stmt 1 view .LVU128
 222:Middlewares/Third_Party/RealThread_RTOS/components/device/device.c ****             }
 623              		.loc 1 222 24 is_stmt 0 view .LVU129
 624 0052 1DE0     		b	.L46
 625              	.LVL64:
 626              	.L57:
 206:Middlewares/Third_Party/RealThread_RTOS/components/device/device.c **** 
 627              		.loc 1 206 14 view .LVU130
 628 0054 0025     		movs	r5, #0
 629 0056 E6E7     		b	.L50
 630              	.L56:
 631 0058 0025     		movs	r5, #0
 632              	.LVL65:
 633              	.L49:
 227:Middlewares/Third_Party/RealThread_RTOS/components/device/device.c ****     }
 228:Middlewares/Third_Party/RealThread_RTOS/components/device/device.c **** 
ARM GAS  C:\Users\Administrator\AppData\Local\Temp\cc5I1bXo.s 			page 17


 229:Middlewares/Third_Party/RealThread_RTOS/components/device/device.c ****     /* device is a stand alone device and opened */
 230:Middlewares/Third_Party/RealThread_RTOS/components/device/device.c ****     if ((dev->flag & RT_DEVICE_FLAG_STANDALONE) &&
 634              		.loc 1 230 5 is_stmt 1 view .LVU131
 635              		.loc 1 230 13 is_stmt 0 view .LVU132
 636 005a E38A     		ldrh	r3, [r4, #22]
 637              		.loc 1 230 8 view .LVU133
 638 005c 13F0080F 		tst	r3, #8
 639 0060 03D0     		beq	.L52
 231:Middlewares/Third_Party/RealThread_RTOS/components/device/device.c ****         (dev->open_flag & RT_DEVICE_OFLAG_OPEN))
 640              		.loc 1 231 13 discriminator 1 view .LVU134
 641 0062 238B     		ldrh	r3, [r4, #24]
 230:Middlewares/Third_Party/RealThread_RTOS/components/device/device.c ****         (dev->open_flag & RT_DEVICE_OFLAG_OPEN))
 642              		.loc 1 230 49 discriminator 1 view .LVU135
 643 0064 13F0080F 		tst	r3, #8
 644 0068 1FD1     		bne	.L58
 645              	.L52:
 232:Middlewares/Third_Party/RealThread_RTOS/components/device/device.c ****     {
 233:Middlewares/Third_Party/RealThread_RTOS/components/device/device.c ****         return -RT_EBUSY;
 234:Middlewares/Third_Party/RealThread_RTOS/components/device/device.c ****     }
 235:Middlewares/Third_Party/RealThread_RTOS/components/device/device.c **** 
 236:Middlewares/Third_Party/RealThread_RTOS/components/device/device.c ****     /* call device_open interface */
 237:Middlewares/Third_Party/RealThread_RTOS/components/device/device.c ****     if (device_open != RT_NULL)
 646              		.loc 1 237 5 is_stmt 1 view .LVU136
 647              		.loc 1 237 9 is_stmt 0 view .LVU137
 648 006a A36A     		ldr	r3, [r4, #40]
 649              		.loc 1 237 8 view .LVU138
 650 006c 93B1     		cbz	r3, .L53
 238:Middlewares/Third_Party/RealThread_RTOS/components/device/device.c ****     {
 239:Middlewares/Third_Party/RealThread_RTOS/components/device/device.c ****         result = device_open(dev, oflag);
 651              		.loc 1 239 9 is_stmt 1 view .LVU139
 652              		.loc 1 239 18 is_stmt 0 view .LVU140
 653 006e 3146     		mov	r1, r6
 654 0070 2046     		mov	r0, r4
 655 0072 9847     		blx	r3
 656              	.LVL66:
 657 0074 0546     		mov	r5, r0
 658              	.LVL67:
 659              	.L54:
 240:Middlewares/Third_Party/RealThread_RTOS/components/device/device.c ****     }
 241:Middlewares/Third_Party/RealThread_RTOS/components/device/device.c ****     else
 242:Middlewares/Third_Party/RealThread_RTOS/components/device/device.c ****     {
 243:Middlewares/Third_Party/RealThread_RTOS/components/device/device.c ****         /* set open flag */
 244:Middlewares/Third_Party/RealThread_RTOS/components/device/device.c ****         dev->open_flag = (oflag & RT_DEVICE_OFLAG_MASK);
 245:Middlewares/Third_Party/RealThread_RTOS/components/device/device.c ****     }
 246:Middlewares/Third_Party/RealThread_RTOS/components/device/device.c **** 
 247:Middlewares/Third_Party/RealThread_RTOS/components/device/device.c ****     /* set open flag */
 248:Middlewares/Third_Party/RealThread_RTOS/components/device/device.c ****     if (result == RT_EOK || result == -RT_ENOSYS)
 660              		.loc 1 248 5 is_stmt 1 view .LVU141
 661              		.loc 1 248 8 is_stmt 0 view .LVU142
 662 0076 15B1     		cbz	r5, .L55
 663              		.loc 1 248 26 discriminator 1 view .LVU143
 664 0078 15F1060F 		cmn	r5, #6
 665 007c 08D1     		bne	.L46
 666              	.L55:
 249:Middlewares/Third_Party/RealThread_RTOS/components/device/device.c ****     {
 250:Middlewares/Third_Party/RealThread_RTOS/components/device/device.c ****         dev->open_flag |= RT_DEVICE_OFLAG_OPEN;
 667              		.loc 1 250 9 is_stmt 1 view .LVU144
ARM GAS  C:\Users\Administrator\AppData\Local\Temp\cc5I1bXo.s 			page 18


 668              		.loc 1 250 24 is_stmt 0 view .LVU145
 669 007e 238B     		ldrh	r3, [r4, #24]
 670 0080 43F00803 		orr	r3, r3, #8
 671 0084 2383     		strh	r3, [r4, #24]	@ movhi
 251:Middlewares/Third_Party/RealThread_RTOS/components/device/device.c **** 
 252:Middlewares/Third_Party/RealThread_RTOS/components/device/device.c ****         dev->ref_count++;
 672              		.loc 1 252 9 is_stmt 1 view .LVU146
 673              		.loc 1 252 12 is_stmt 0 view .LVU147
 674 0086 A37E     		ldrb	r3, [r4, #26]	@ zero_extendqisi2
 675              		.loc 1 252 23 view .LVU148
 676 0088 0133     		adds	r3, r3, #1
 677 008a DBB2     		uxtb	r3, r3
 678 008c A376     		strb	r3, [r4, #26]
 253:Middlewares/Third_Party/RealThread_RTOS/components/device/device.c ****         /* don't let bad things happen silently. If you are bitten by this assert,
 254:Middlewares/Third_Party/RealThread_RTOS/components/device/device.c ****          * please set the ref_count to a bigger type. */
 255:Middlewares/Third_Party/RealThread_RTOS/components/device/device.c ****         RT_ASSERT(dev->ref_count != 0);
 679              		.loc 1 255 9 is_stmt 1 view .LVU149
 680 008e 33B1     		cbz	r3, .L63
 681              	.LVL68:
 682              	.L46:
 256:Middlewares/Third_Party/RealThread_RTOS/components/device/device.c ****     }
 257:Middlewares/Third_Party/RealThread_RTOS/components/device/device.c **** 
 258:Middlewares/Third_Party/RealThread_RTOS/components/device/device.c ****     return result;
 259:Middlewares/Third_Party/RealThread_RTOS/components/device/device.c **** }
 683              		.loc 1 259 1 is_stmt 0 view .LVU150
 684 0090 2846     		mov	r0, r5
 685 0092 70BD     		pop	{r4, r5, r6, pc}
 686              	.LVL69:
 687              	.L53:
 244:Middlewares/Third_Party/RealThread_RTOS/components/device/device.c ****     }
 688              		.loc 1 244 9 is_stmt 1 view .LVU151
 244:Middlewares/Third_Party/RealThread_RTOS/components/device/device.c ****     }
 689              		.loc 1 244 33 is_stmt 0 view .LVU152
 690 0094 40F60F71 		movw	r1, #3855
 691 0098 3140     		ands	r1, r1, r6
 244:Middlewares/Third_Party/RealThread_RTOS/components/device/device.c ****     }
 692              		.loc 1 244 24 view .LVU153
 693 009a 2183     		strh	r1, [r4, #24]	@ movhi
 694 009c EBE7     		b	.L54
 695              	.L63:
 255:Middlewares/Third_Party/RealThread_RTOS/components/device/device.c ****     }
 696              		.loc 1 255 9 is_stmt 1 discriminator 1 view .LVU154
 697 009e FF22     		movs	r2, #255
 698 00a0 0349     		ldr	r1, .L64
 699 00a2 0748     		ldr	r0, .L64+16
 700 00a4 FFF7FEFF 		bl	rt_assert_handler
 701              	.LVL70:
 702 00a8 F2E7     		b	.L46
 703              	.L58:
 233:Middlewares/Third_Party/RealThread_RTOS/components/device/device.c ****     }
 704              		.loc 1 233 16 is_stmt 0 view .LVU155
 705 00aa 6FF00605 		mvn	r5, #6
 706              	.LVL71:
 233:Middlewares/Third_Party/RealThread_RTOS/components/device/device.c ****     }
 707              		.loc 1 233 16 view .LVU156
 708 00ae EFE7     		b	.L46
 709              	.L65:
ARM GAS  C:\Users\Administrator\AppData\Local\Temp\cc5I1bXo.s 			page 19


 710              		.align	2
 711              	.L64:
 712 00b0 00000000 		.word	.LANCHOR3
 713 00b4 00000000 		.word	.LC0
 714 00b8 10000000 		.word	.LC1
 715 00bc 00000000 		.word	.LC4
 716 00c0 00000000 		.word	.LC5
 717              		.cfi_endproc
 718              	.LFE22:
 720              		.section	.text.rt_device_close,"ax",%progbits
 721              		.align	1
 722              		.global	rt_device_close
 723              		.syntax unified
 724              		.thumb
 725              		.thumb_func
 726              		.fpu softvfp
 728              	rt_device_close:
 729              	.LVL72:
 730              	.LFB23:
 260:Middlewares/Third_Party/RealThread_RTOS/components/device/device.c **** 
 261:Middlewares/Third_Party/RealThread_RTOS/components/device/device.c **** /**
 262:Middlewares/Third_Party/RealThread_RTOS/components/device/device.c ****  * This function will close a device
 263:Middlewares/Third_Party/RealThread_RTOS/components/device/device.c ****  *
 264:Middlewares/Third_Party/RealThread_RTOS/components/device/device.c ****  * @param dev the pointer of device driver structure
 265:Middlewares/Third_Party/RealThread_RTOS/components/device/device.c ****  *
 266:Middlewares/Third_Party/RealThread_RTOS/components/device/device.c ****  * @return the result
 267:Middlewares/Third_Party/RealThread_RTOS/components/device/device.c ****  */
 268:Middlewares/Third_Party/RealThread_RTOS/components/device/device.c **** rt_err_t rt_device_close(rt_device_t dev)
 269:Middlewares/Third_Party/RealThread_RTOS/components/device/device.c **** {
 731              		.loc 1 269 1 is_stmt 1 view -0
 732              		.cfi_startproc
 733              		@ args = 0, pretend = 0, frame = 0
 734              		@ frame_needed = 0, uses_anonymous_args = 0
 735              		.loc 1 269 1 is_stmt 0 view .LVU158
 736 0000 10B5     		push	{r4, lr}
 737              	.LCFI9:
 738              		.cfi_def_cfa_offset 8
 739              		.cfi_offset 4, -8
 740              		.cfi_offset 14, -4
 270:Middlewares/Third_Party/RealThread_RTOS/components/device/device.c ****     rt_err_t result = RT_EOK;
 741              		.loc 1 270 5 is_stmt 1 view .LVU159
 742              	.LVL73:
 271:Middlewares/Third_Party/RealThread_RTOS/components/device/device.c **** 
 272:Middlewares/Third_Party/RealThread_RTOS/components/device/device.c ****     RT_ASSERT(dev != RT_NULL);
 743              		.loc 1 272 5 view .LVU160
 744 0002 0446     		mov	r4, r0
 745 0004 98B1     		cbz	r0, .L75
 746              	.LVL74:
 747              	.L67:
 748              		.loc 1 272 30 discriminator 3 view .LVU161
 273:Middlewares/Third_Party/RealThread_RTOS/components/device/device.c ****     RT_ASSERT(rt_object_get_type(&dev->parent) == RT_Object_Class_Device);
 749              		.loc 1 273 5 discriminator 3 view .LVU162
 750 0006 2046     		mov	r0, r4
 751 0008 FFF7FEFF 		bl	rt_object_get_type
 752              	.LVL75:
 753 000c 0928     		cmp	r0, #9
 754 000e 15D1     		bne	.L76
ARM GAS  C:\Users\Administrator\AppData\Local\Temp\cc5I1bXo.s 			page 20


 755              	.L68:
 756              		.loc 1 273 74 discriminator 3 view .LVU163
 274:Middlewares/Third_Party/RealThread_RTOS/components/device/device.c **** 
 275:Middlewares/Third_Party/RealThread_RTOS/components/device/device.c ****     if (dev->ref_count == 0)
 757              		.loc 1 275 5 discriminator 3 view .LVU164
 758              		.loc 1 275 12 is_stmt 0 discriminator 3 view .LVU165
 759 0010 A37E     		ldrb	r3, [r4, #26]	@ zero_extendqisi2
 760              		.loc 1 275 8 discriminator 3 view .LVU166
 761 0012 F3B1     		cbz	r3, .L71
 276:Middlewares/Third_Party/RealThread_RTOS/components/device/device.c ****         return -RT_ERROR;
 277:Middlewares/Third_Party/RealThread_RTOS/components/device/device.c **** 
 278:Middlewares/Third_Party/RealThread_RTOS/components/device/device.c ****     dev->ref_count--;
 762              		.loc 1 278 5 is_stmt 1 view .LVU167
 763              		.loc 1 278 19 is_stmt 0 view .LVU168
 764 0014 013B     		subs	r3, r3, #1
 765 0016 DBB2     		uxtb	r3, r3
 766 0018 A376     		strb	r3, [r4, #26]
 279:Middlewares/Third_Party/RealThread_RTOS/components/device/device.c **** 
 280:Middlewares/Third_Party/RealThread_RTOS/components/device/device.c ****     if (dev->ref_count != 0)
 767              		.loc 1 280 5 is_stmt 1 view .LVU169
 768              		.loc 1 280 8 is_stmt 0 view .LVU170
 769 001a EBB9     		cbnz	r3, .L72
 281:Middlewares/Third_Party/RealThread_RTOS/components/device/device.c ****         return RT_EOK;
 282:Middlewares/Third_Party/RealThread_RTOS/components/device/device.c **** 
 283:Middlewares/Third_Party/RealThread_RTOS/components/device/device.c ****     /* call device_close interface */
 284:Middlewares/Third_Party/RealThread_RTOS/components/device/device.c ****     if (device_close != RT_NULL)
 770              		.loc 1 284 5 is_stmt 1 view .LVU171
 771              		.loc 1 284 9 is_stmt 0 view .LVU172
 772 001c E36A     		ldr	r3, [r4, #44]
 773              		.loc 1 284 8 view .LVU173
 774 001e A3B1     		cbz	r3, .L73
 285:Middlewares/Third_Party/RealThread_RTOS/components/device/device.c ****     {
 286:Middlewares/Third_Party/RealThread_RTOS/components/device/device.c ****         result = device_close(dev);
 775              		.loc 1 286 9 is_stmt 1 view .LVU174
 776              		.loc 1 286 18 is_stmt 0 view .LVU175
 777 0020 2046     		mov	r0, r4
 778 0022 9847     		blx	r3
 779              	.LVL76:
 287:Middlewares/Third_Party/RealThread_RTOS/components/device/device.c ****     }
 288:Middlewares/Third_Party/RealThread_RTOS/components/device/device.c **** 
 289:Middlewares/Third_Party/RealThread_RTOS/components/device/device.c ****     /* set open flag */
 290:Middlewares/Third_Party/RealThread_RTOS/components/device/device.c ****     if (result == RT_EOK || result == -RT_ENOSYS)
 780              		.loc 1 290 5 is_stmt 1 view .LVU176
 781              		.loc 1 290 8 is_stmt 0 view .LVU177
 782 0024 90B1     		cbz	r0, .L70
 783              		.loc 1 290 26 discriminator 1 view .LVU178
 784 0026 10F1060F 		cmn	r0, #6
 785 002a 11D1     		bne	.L66
 786 002c 0EE0     		b	.L70
 787              	.LVL77:
 788              	.L75:
 272:Middlewares/Third_Party/RealThread_RTOS/components/device/device.c ****     RT_ASSERT(rt_object_get_type(&dev->parent) == RT_Object_Class_Device);
 789              		.loc 1 272 5 is_stmt 1 discriminator 1 view .LVU179
 790 002e 4FF48872 		mov	r2, #272
 791 0032 0A49     		ldr	r1, .L77
 792 0034 0A48     		ldr	r0, .L77+4
 793              	.LVL78:
ARM GAS  C:\Users\Administrator\AppData\Local\Temp\cc5I1bXo.s 			page 21


 272:Middlewares/Third_Party/RealThread_RTOS/components/device/device.c ****     RT_ASSERT(rt_object_get_type(&dev->parent) == RT_Object_Class_Device);
 794              		.loc 1 272 5 is_stmt 0 discriminator 1 view .LVU180
 795 0036 FFF7FEFF 		bl	rt_assert_handler
 796              	.LVL79:
 797 003a E4E7     		b	.L67
 798              	.L76:
 273:Middlewares/Third_Party/RealThread_RTOS/components/device/device.c **** 
 799              		.loc 1 273 5 is_stmt 1 discriminator 1 view .LVU181
 800 003c 40F21112 		movw	r2, #273
 801 0040 0649     		ldr	r1, .L77
 802 0042 0848     		ldr	r0, .L77+8
 803 0044 FFF7FEFF 		bl	rt_assert_handler
 804              	.LVL80:
 805 0048 E2E7     		b	.L68
 806              	.L73:
 270:Middlewares/Third_Party/RealThread_RTOS/components/device/device.c **** 
 807              		.loc 1 270 14 is_stmt 0 view .LVU182
 808 004a 0020     		movs	r0, #0
 809              	.LVL81:
 810              	.L70:
 291:Middlewares/Third_Party/RealThread_RTOS/components/device/device.c ****         dev->open_flag = RT_DEVICE_OFLAG_CLOSE;
 811              		.loc 1 291 9 is_stmt 1 view .LVU183
 812              		.loc 1 291 24 is_stmt 0 view .LVU184
 813 004c 0023     		movs	r3, #0
 814 004e 2383     		strh	r3, [r4, #24]	@ movhi
 815              	.L66:
 292:Middlewares/Third_Party/RealThread_RTOS/components/device/device.c **** 
 293:Middlewares/Third_Party/RealThread_RTOS/components/device/device.c ****     return result;
 294:Middlewares/Third_Party/RealThread_RTOS/components/device/device.c **** }
 816              		.loc 1 294 1 view .LVU185
 817 0050 10BD     		pop	{r4, pc}
 818              	.LVL82:
 819              	.L71:
 276:Middlewares/Third_Party/RealThread_RTOS/components/device/device.c **** 
 820              		.loc 1 276 16 view .LVU186
 821 0052 4FF0FF30 		mov	r0, #-1
 822 0056 FBE7     		b	.L66
 823              	.L72:
 281:Middlewares/Third_Party/RealThread_RTOS/components/device/device.c **** 
 824              		.loc 1 281 16 view .LVU187
 825 0058 0020     		movs	r0, #0
 826 005a F9E7     		b	.L66
 827              	.L78:
 828              		.align	2
 829              	.L77:
 830 005c 00000000 		.word	.LANCHOR4
 831 0060 00000000 		.word	.LC0
 832 0064 10000000 		.word	.LC1
 833              		.cfi_endproc
 834              	.LFE23:
 836              		.section	.text.rt_device_read,"ax",%progbits
 837              		.align	1
 838              		.global	rt_device_read
 839              		.syntax unified
 840              		.thumb
 841              		.thumb_func
 842              		.fpu softvfp
ARM GAS  C:\Users\Administrator\AppData\Local\Temp\cc5I1bXo.s 			page 22


 844              	rt_device_read:
 845              	.LVL83:
 846              	.LFB24:
 295:Middlewares/Third_Party/RealThread_RTOS/components/device/device.c **** 
 296:Middlewares/Third_Party/RealThread_RTOS/components/device/device.c **** /**
 297:Middlewares/Third_Party/RealThread_RTOS/components/device/device.c ****  * This function will read some data from a device.
 298:Middlewares/Third_Party/RealThread_RTOS/components/device/device.c ****  *
 299:Middlewares/Third_Party/RealThread_RTOS/components/device/device.c ****  * @param dev the pointer of device driver structure
 300:Middlewares/Third_Party/RealThread_RTOS/components/device/device.c ****  * @param pos the position of reading
 301:Middlewares/Third_Party/RealThread_RTOS/components/device/device.c ****  * @param buffer the data buffer to save read data
 302:Middlewares/Third_Party/RealThread_RTOS/components/device/device.c ****  * @param size the size of buffer
 303:Middlewares/Third_Party/RealThread_RTOS/components/device/device.c ****  *
 304:Middlewares/Third_Party/RealThread_RTOS/components/device/device.c ****  * @return the actually read size on successful, otherwise negative returned.
 305:Middlewares/Third_Party/RealThread_RTOS/components/device/device.c ****  *
 306:Middlewares/Third_Party/RealThread_RTOS/components/device/device.c ****  * @note since 0.4.0, the unit of size/pos is a block for block device.
 307:Middlewares/Third_Party/RealThread_RTOS/components/device/device.c ****  */
 308:Middlewares/Third_Party/RealThread_RTOS/components/device/device.c **** rt_size_t rt_device_read(rt_device_t dev,
 309:Middlewares/Third_Party/RealThread_RTOS/components/device/device.c ****                          rt_off_t    pos,
 310:Middlewares/Third_Party/RealThread_RTOS/components/device/device.c ****                          void       *buffer,
 311:Middlewares/Third_Party/RealThread_RTOS/components/device/device.c ****                          rt_size_t   size)
 312:Middlewares/Third_Party/RealThread_RTOS/components/device/device.c **** {
 847              		.loc 1 312 1 is_stmt 1 view -0
 848              		.cfi_startproc
 849              		@ args = 0, pretend = 0, frame = 0
 850              		@ frame_needed = 0, uses_anonymous_args = 0
 851              		.loc 1 312 1 is_stmt 0 view .LVU189
 852 0000 2DE9F041 		push	{r4, r5, r6, r7, r8, lr}
 853              	.LCFI10:
 854              		.cfi_def_cfa_offset 24
 855              		.cfi_offset 4, -24
 856              		.cfi_offset 5, -20
 857              		.cfi_offset 6, -16
 858              		.cfi_offset 7, -12
 859              		.cfi_offset 8, -8
 860              		.cfi_offset 14, -4
 861 0004 0D46     		mov	r5, r1
 862 0006 1646     		mov	r6, r2
 863 0008 1F46     		mov	r7, r3
 313:Middlewares/Third_Party/RealThread_RTOS/components/device/device.c ****     RT_ASSERT(dev != RT_NULL);
 864              		.loc 1 313 5 is_stmt 1 view .LVU190
 865 000a 0446     		mov	r4, r0
 866 000c 90B1     		cbz	r0, .L86
 867              	.LVL84:
 868              	.L80:
 869              		.loc 1 313 30 discriminator 3 view .LVU191
 314:Middlewares/Third_Party/RealThread_RTOS/components/device/device.c ****     RT_ASSERT(rt_object_get_type(&dev->parent) == RT_Object_Class_Device);
 870              		.loc 1 314 5 discriminator 3 view .LVU192
 871 000e 2046     		mov	r0, r4
 872 0010 FFF7FEFF 		bl	rt_object_get_type
 873              	.LVL85:
 874 0014 0928     		cmp	r0, #9
 875 0016 14D1     		bne	.L87
 876              	.L81:
 877              		.loc 1 314 74 discriminator 3 view .LVU193
 315:Middlewares/Third_Party/RealThread_RTOS/components/device/device.c **** 
 316:Middlewares/Third_Party/RealThread_RTOS/components/device/device.c ****     if (dev->ref_count == 0)
 878              		.loc 1 316 5 discriminator 3 view .LVU194
ARM GAS  C:\Users\Administrator\AppData\Local\Temp\cc5I1bXo.s 			page 23


 879              		.loc 1 316 12 is_stmt 0 discriminator 3 view .LVU195
 880 0018 A37E     		ldrb	r3, [r4, #26]	@ zero_extendqisi2
 881              		.loc 1 316 8 discriminator 3 view .LVU196
 882 001a CBB1     		cbz	r3, .L88
 317:Middlewares/Third_Party/RealThread_RTOS/components/device/device.c ****     {
 318:Middlewares/Third_Party/RealThread_RTOS/components/device/device.c ****         rt_set_errno(-RT_ERROR);
 319:Middlewares/Third_Party/RealThread_RTOS/components/device/device.c ****         return 0;
 320:Middlewares/Third_Party/RealThread_RTOS/components/device/device.c ****     }
 321:Middlewares/Third_Party/RealThread_RTOS/components/device/device.c **** 
 322:Middlewares/Third_Party/RealThread_RTOS/components/device/device.c ****     /* call device_read interface */
 323:Middlewares/Third_Party/RealThread_RTOS/components/device/device.c ****     if (device_read != RT_NULL)
 883              		.loc 1 323 5 is_stmt 1 view .LVU197
 884              		.loc 1 323 9 is_stmt 0 view .LVU198
 885 001c D4F83080 		ldr	r8, [r4, #48]
 886              		.loc 1 323 8 view .LVU199
 887 0020 B8F1000F 		cmp	r8, #0
 888 0024 1AD0     		beq	.L84
 324:Middlewares/Third_Party/RealThread_RTOS/components/device/device.c ****     {
 325:Middlewares/Third_Party/RealThread_RTOS/components/device/device.c ****         return device_read(dev, pos, buffer, size);
 889              		.loc 1 325 9 is_stmt 1 view .LVU200
 890              		.loc 1 325 16 is_stmt 0 view .LVU201
 891 0026 3B46     		mov	r3, r7
 892 0028 3246     		mov	r2, r6
 893 002a 2946     		mov	r1, r5
 894 002c 2046     		mov	r0, r4
 895 002e C047     		blx	r8
 896              	.LVL86:
 897              	.L79:
 326:Middlewares/Third_Party/RealThread_RTOS/components/device/device.c ****     }
 327:Middlewares/Third_Party/RealThread_RTOS/components/device/device.c **** 
 328:Middlewares/Third_Party/RealThread_RTOS/components/device/device.c ****     /* set error code */
 329:Middlewares/Third_Party/RealThread_RTOS/components/device/device.c ****     rt_set_errno(-RT_ENOSYS);
 330:Middlewares/Third_Party/RealThread_RTOS/components/device/device.c **** 
 331:Middlewares/Third_Party/RealThread_RTOS/components/device/device.c ****     return 0;
 332:Middlewares/Third_Party/RealThread_RTOS/components/device/device.c **** }
 898              		.loc 1 332 1 view .LVU202
 899 0030 BDE8F081 		pop	{r4, r5, r6, r7, r8, pc}
 900              	.LVL87:
 901              	.L86:
 313:Middlewares/Third_Party/RealThread_RTOS/components/device/device.c ****     RT_ASSERT(rt_object_get_type(&dev->parent) == RT_Object_Class_Device);
 902              		.loc 1 313 5 is_stmt 1 discriminator 1 view .LVU203
 903 0034 40F23912 		movw	r2, #313
 904              	.LVL88:
 313:Middlewares/Third_Party/RealThread_RTOS/components/device/device.c ****     RT_ASSERT(rt_object_get_type(&dev->parent) == RT_Object_Class_Device);
 905              		.loc 1 313 5 is_stmt 0 discriminator 1 view .LVU204
 906 0038 0B49     		ldr	r1, .L89
 907              	.LVL89:
 313:Middlewares/Third_Party/RealThread_RTOS/components/device/device.c ****     RT_ASSERT(rt_object_get_type(&dev->parent) == RT_Object_Class_Device);
 908              		.loc 1 313 5 discriminator 1 view .LVU205
 909 003a 0C48     		ldr	r0, .L89+4
 910              	.LVL90:
 313:Middlewares/Third_Party/RealThread_RTOS/components/device/device.c ****     RT_ASSERT(rt_object_get_type(&dev->parent) == RT_Object_Class_Device);
 911              		.loc 1 313 5 discriminator 1 view .LVU206
 912 003c FFF7FEFF 		bl	rt_assert_handler
 913              	.LVL91:
 313:Middlewares/Third_Party/RealThread_RTOS/components/device/device.c ****     RT_ASSERT(rt_object_get_type(&dev->parent) == RT_Object_Class_Device);
 914              		.loc 1 313 5 discriminator 1 view .LVU207
ARM GAS  C:\Users\Administrator\AppData\Local\Temp\cc5I1bXo.s 			page 24


 915 0040 E5E7     		b	.L80
 916              	.L87:
 314:Middlewares/Third_Party/RealThread_RTOS/components/device/device.c **** 
 917              		.loc 1 314 5 is_stmt 1 discriminator 1 view .LVU208
 918 0042 4FF49D72 		mov	r2, #314
 919 0046 0849     		ldr	r1, .L89
 920 0048 0948     		ldr	r0, .L89+8
 921 004a FFF7FEFF 		bl	rt_assert_handler
 922              	.LVL92:
 923 004e E3E7     		b	.L81
 924              	.L88:
 318:Middlewares/Third_Party/RealThread_RTOS/components/device/device.c ****         return 0;
 925              		.loc 1 318 9 view .LVU209
 926 0050 4FF0FF30 		mov	r0, #-1
 927 0054 FFF7FEFF 		bl	rt_set_errno
 928              	.LVL93:
 319:Middlewares/Third_Party/RealThread_RTOS/components/device/device.c ****     }
 929              		.loc 1 319 9 view .LVU210
 319:Middlewares/Third_Party/RealThread_RTOS/components/device/device.c ****     }
 930              		.loc 1 319 16 is_stmt 0 view .LVU211
 931 0058 0020     		movs	r0, #0
 932 005a E9E7     		b	.L79
 933              	.L84:
 329:Middlewares/Third_Party/RealThread_RTOS/components/device/device.c **** 
 934              		.loc 1 329 5 is_stmt 1 view .LVU212
 935 005c 6FF00500 		mvn	r0, #5
 936 0060 FFF7FEFF 		bl	rt_set_errno
 937              	.LVL94:
 331:Middlewares/Third_Party/RealThread_RTOS/components/device/device.c **** }
 938              		.loc 1 331 5 view .LVU213
 331:Middlewares/Third_Party/RealThread_RTOS/components/device/device.c **** }
 939              		.loc 1 331 12 is_stmt 0 view .LVU214
 940 0064 0020     		movs	r0, #0
 941 0066 E3E7     		b	.L79
 942              	.L90:
 943              		.align	2
 944              	.L89:
 945 0068 00000000 		.word	.LANCHOR5
 946 006c 00000000 		.word	.LC0
 947 0070 10000000 		.word	.LC1
 948              		.cfi_endproc
 949              	.LFE24:
 951              		.section	.text.rt_device_write,"ax",%progbits
 952              		.align	1
 953              		.global	rt_device_write
 954              		.syntax unified
 955              		.thumb
 956              		.thumb_func
 957              		.fpu softvfp
 959              	rt_device_write:
 960              	.LVL95:
 961              	.LFB25:
 333:Middlewares/Third_Party/RealThread_RTOS/components/device/device.c **** 
 334:Middlewares/Third_Party/RealThread_RTOS/components/device/device.c **** /**
 335:Middlewares/Third_Party/RealThread_RTOS/components/device/device.c ****  * This function will write some data to a device.
 336:Middlewares/Third_Party/RealThread_RTOS/components/device/device.c ****  *
 337:Middlewares/Third_Party/RealThread_RTOS/components/device/device.c ****  * @param dev the pointer of device driver structure
ARM GAS  C:\Users\Administrator\AppData\Local\Temp\cc5I1bXo.s 			page 25


 338:Middlewares/Third_Party/RealThread_RTOS/components/device/device.c ****  * @param pos the position of written
 339:Middlewares/Third_Party/RealThread_RTOS/components/device/device.c ****  * @param buffer the data buffer to be written to device
 340:Middlewares/Third_Party/RealThread_RTOS/components/device/device.c ****  * @param size the size of buffer
 341:Middlewares/Third_Party/RealThread_RTOS/components/device/device.c ****  *
 342:Middlewares/Third_Party/RealThread_RTOS/components/device/device.c ****  * @return the actually written size on successful, otherwise negative returned.
 343:Middlewares/Third_Party/RealThread_RTOS/components/device/device.c ****  *
 344:Middlewares/Third_Party/RealThread_RTOS/components/device/device.c ****  * @note since 0.4.0, the unit of size/pos is a block for block device.
 345:Middlewares/Third_Party/RealThread_RTOS/components/device/device.c ****  */
 346:Middlewares/Third_Party/RealThread_RTOS/components/device/device.c **** rt_size_t rt_device_write(rt_device_t dev,
 347:Middlewares/Third_Party/RealThread_RTOS/components/device/device.c ****                           rt_off_t    pos,
 348:Middlewares/Third_Party/RealThread_RTOS/components/device/device.c ****                           const void *buffer,
 349:Middlewares/Third_Party/RealThread_RTOS/components/device/device.c ****                           rt_size_t   size)
 350:Middlewares/Third_Party/RealThread_RTOS/components/device/device.c **** {
 962              		.loc 1 350 1 is_stmt 1 view -0
 963              		.cfi_startproc
 964              		@ args = 0, pretend = 0, frame = 0
 965              		@ frame_needed = 0, uses_anonymous_args = 0
 966              		.loc 1 350 1 is_stmt 0 view .LVU216
 967 0000 2DE9F041 		push	{r4, r5, r6, r7, r8, lr}
 968              	.LCFI11:
 969              		.cfi_def_cfa_offset 24
 970              		.cfi_offset 4, -24
 971              		.cfi_offset 5, -20
 972              		.cfi_offset 6, -16
 973              		.cfi_offset 7, -12
 974              		.cfi_offset 8, -8
 975              		.cfi_offset 14, -4
 976 0004 0D46     		mov	r5, r1
 977 0006 1646     		mov	r6, r2
 978 0008 1F46     		mov	r7, r3
 351:Middlewares/Third_Party/RealThread_RTOS/components/device/device.c ****     RT_ASSERT(dev != RT_NULL);
 979              		.loc 1 351 5 is_stmt 1 view .LVU217
 980 000a 0446     		mov	r4, r0
 981 000c 90B1     		cbz	r0, .L98
 982              	.LVL96:
 983              	.L92:
 984              		.loc 1 351 30 discriminator 3 view .LVU218
 352:Middlewares/Third_Party/RealThread_RTOS/components/device/device.c ****     RT_ASSERT(rt_object_get_type(&dev->parent) == RT_Object_Class_Device);
 985              		.loc 1 352 5 discriminator 3 view .LVU219
 986 000e 2046     		mov	r0, r4
 987 0010 FFF7FEFF 		bl	rt_object_get_type
 988              	.LVL97:
 989 0014 0928     		cmp	r0, #9
 990 0016 14D1     		bne	.L99
 991              	.L93:
 992              		.loc 1 352 74 discriminator 3 view .LVU220
 353:Middlewares/Third_Party/RealThread_RTOS/components/device/device.c **** 
 354:Middlewares/Third_Party/RealThread_RTOS/components/device/device.c ****     if (dev->ref_count == 0)
 993              		.loc 1 354 5 discriminator 3 view .LVU221
 994              		.loc 1 354 12 is_stmt 0 discriminator 3 view .LVU222
 995 0018 A37E     		ldrb	r3, [r4, #26]	@ zero_extendqisi2
 996              		.loc 1 354 8 discriminator 3 view .LVU223
 997 001a CBB1     		cbz	r3, .L100
 355:Middlewares/Third_Party/RealThread_RTOS/components/device/device.c ****     {
 356:Middlewares/Third_Party/RealThread_RTOS/components/device/device.c ****         rt_set_errno(-RT_ERROR);
 357:Middlewares/Third_Party/RealThread_RTOS/components/device/device.c ****         return 0;
 358:Middlewares/Third_Party/RealThread_RTOS/components/device/device.c ****     }
ARM GAS  C:\Users\Administrator\AppData\Local\Temp\cc5I1bXo.s 			page 26


 359:Middlewares/Third_Party/RealThread_RTOS/components/device/device.c **** 
 360:Middlewares/Third_Party/RealThread_RTOS/components/device/device.c ****     /* call device_write interface */
 361:Middlewares/Third_Party/RealThread_RTOS/components/device/device.c ****     if (device_write != RT_NULL)
 998              		.loc 1 361 5 is_stmt 1 view .LVU224
 999              		.loc 1 361 9 is_stmt 0 view .LVU225
 1000 001c D4F83480 		ldr	r8, [r4, #52]
 1001              		.loc 1 361 8 view .LVU226
 1002 0020 B8F1000F 		cmp	r8, #0
 1003 0024 1AD0     		beq	.L96
 362:Middlewares/Third_Party/RealThread_RTOS/components/device/device.c ****     {
 363:Middlewares/Third_Party/RealThread_RTOS/components/device/device.c ****         return device_write(dev, pos, buffer, size);
 1004              		.loc 1 363 9 is_stmt 1 view .LVU227
 1005              		.loc 1 363 16 is_stmt 0 view .LVU228
 1006 0026 3B46     		mov	r3, r7
 1007 0028 3246     		mov	r2, r6
 1008 002a 2946     		mov	r1, r5
 1009 002c 2046     		mov	r0, r4
 1010 002e C047     		blx	r8
 1011              	.LVL98:
 1012              	.L91:
 364:Middlewares/Third_Party/RealThread_RTOS/components/device/device.c ****     }
 365:Middlewares/Third_Party/RealThread_RTOS/components/device/device.c **** 
 366:Middlewares/Third_Party/RealThread_RTOS/components/device/device.c ****     /* set error code */
 367:Middlewares/Third_Party/RealThread_RTOS/components/device/device.c ****     rt_set_errno(-RT_ENOSYS);
 368:Middlewares/Third_Party/RealThread_RTOS/components/device/device.c **** 
 369:Middlewares/Third_Party/RealThread_RTOS/components/device/device.c ****     return 0;
 370:Middlewares/Third_Party/RealThread_RTOS/components/device/device.c **** }
 1013              		.loc 1 370 1 view .LVU229
 1014 0030 BDE8F081 		pop	{r4, r5, r6, r7, r8, pc}
 1015              	.LVL99:
 1016              	.L98:
 351:Middlewares/Third_Party/RealThread_RTOS/components/device/device.c ****     RT_ASSERT(rt_object_get_type(&dev->parent) == RT_Object_Class_Device);
 1017              		.loc 1 351 5 is_stmt 1 discriminator 1 view .LVU230
 1018 0034 40F25F12 		movw	r2, #351
 1019              	.LVL100:
 351:Middlewares/Third_Party/RealThread_RTOS/components/device/device.c ****     RT_ASSERT(rt_object_get_type(&dev->parent) == RT_Object_Class_Device);
 1020              		.loc 1 351 5 is_stmt 0 discriminator 1 view .LVU231
 1021 0038 0B49     		ldr	r1, .L101
 1022              	.LVL101:
 351:Middlewares/Third_Party/RealThread_RTOS/components/device/device.c ****     RT_ASSERT(rt_object_get_type(&dev->parent) == RT_Object_Class_Device);
 1023              		.loc 1 351 5 discriminator 1 view .LVU232
 1024 003a 0C48     		ldr	r0, .L101+4
 1025              	.LVL102:
 351:Middlewares/Third_Party/RealThread_RTOS/components/device/device.c ****     RT_ASSERT(rt_object_get_type(&dev->parent) == RT_Object_Class_Device);
 1026              		.loc 1 351 5 discriminator 1 view .LVU233
 1027 003c FFF7FEFF 		bl	rt_assert_handler
 1028              	.LVL103:
 351:Middlewares/Third_Party/RealThread_RTOS/components/device/device.c ****     RT_ASSERT(rt_object_get_type(&dev->parent) == RT_Object_Class_Device);
 1029              		.loc 1 351 5 discriminator 1 view .LVU234
 1030 0040 E5E7     		b	.L92
 1031              	.L99:
 352:Middlewares/Third_Party/RealThread_RTOS/components/device/device.c **** 
 1032              		.loc 1 352 5 is_stmt 1 discriminator 1 view .LVU235
 1033 0042 4FF4B072 		mov	r2, #352
 1034 0046 0849     		ldr	r1, .L101
 1035 0048 0948     		ldr	r0, .L101+8
 1036 004a FFF7FEFF 		bl	rt_assert_handler
ARM GAS  C:\Users\Administrator\AppData\Local\Temp\cc5I1bXo.s 			page 27


 1037              	.LVL104:
 1038 004e E3E7     		b	.L93
 1039              	.L100:
 356:Middlewares/Third_Party/RealThread_RTOS/components/device/device.c ****         return 0;
 1040              		.loc 1 356 9 view .LVU236
 1041 0050 4FF0FF30 		mov	r0, #-1
 1042 0054 FFF7FEFF 		bl	rt_set_errno
 1043              	.LVL105:
 357:Middlewares/Third_Party/RealThread_RTOS/components/device/device.c ****     }
 1044              		.loc 1 357 9 view .LVU237
 357:Middlewares/Third_Party/RealThread_RTOS/components/device/device.c ****     }
 1045              		.loc 1 357 16 is_stmt 0 view .LVU238
 1046 0058 0020     		movs	r0, #0
 1047 005a E9E7     		b	.L91
 1048              	.L96:
 367:Middlewares/Third_Party/RealThread_RTOS/components/device/device.c **** 
 1049              		.loc 1 367 5 is_stmt 1 view .LVU239
 1050 005c 6FF00500 		mvn	r0, #5
 1051 0060 FFF7FEFF 		bl	rt_set_errno
 1052              	.LVL106:
 369:Middlewares/Third_Party/RealThread_RTOS/components/device/device.c **** }
 1053              		.loc 1 369 5 view .LVU240
 369:Middlewares/Third_Party/RealThread_RTOS/components/device/device.c **** }
 1054              		.loc 1 369 12 is_stmt 0 view .LVU241
 1055 0064 0020     		movs	r0, #0
 1056 0066 E3E7     		b	.L91
 1057              	.L102:
 1058              		.align	2
 1059              	.L101:
 1060 0068 00000000 		.word	.LANCHOR6
 1061 006c 00000000 		.word	.LC0
 1062 0070 10000000 		.word	.LC1
 1063              		.cfi_endproc
 1064              	.LFE25:
 1066              		.section	.text.rt_device_control,"ax",%progbits
 1067              		.align	1
 1068              		.global	rt_device_control
 1069              		.syntax unified
 1070              		.thumb
 1071              		.thumb_func
 1072              		.fpu softvfp
 1074              	rt_device_control:
 1075              	.LVL107:
 1076              	.LFB26:
 371:Middlewares/Third_Party/RealThread_RTOS/components/device/device.c **** 
 372:Middlewares/Third_Party/RealThread_RTOS/components/device/device.c **** /**
 373:Middlewares/Third_Party/RealThread_RTOS/components/device/device.c ****  * This function will perform a variety of control functions on devices.
 374:Middlewares/Third_Party/RealThread_RTOS/components/device/device.c ****  *
 375:Middlewares/Third_Party/RealThread_RTOS/components/device/device.c ****  * @param dev the pointer of device driver structure
 376:Middlewares/Third_Party/RealThread_RTOS/components/device/device.c ****  * @param cmd the command sent to device
 377:Middlewares/Third_Party/RealThread_RTOS/components/device/device.c ****  * @param arg the argument of command
 378:Middlewares/Third_Party/RealThread_RTOS/components/device/device.c ****  *
 379:Middlewares/Third_Party/RealThread_RTOS/components/device/device.c ****  * @return the result
 380:Middlewares/Third_Party/RealThread_RTOS/components/device/device.c ****  */
 381:Middlewares/Third_Party/RealThread_RTOS/components/device/device.c **** rt_err_t rt_device_control(rt_device_t dev, int cmd, void *arg)
 382:Middlewares/Third_Party/RealThread_RTOS/components/device/device.c **** {
 1077              		.loc 1 382 1 is_stmt 1 view -0
ARM GAS  C:\Users\Administrator\AppData\Local\Temp\cc5I1bXo.s 			page 28


 1078              		.cfi_startproc
 1079              		@ args = 0, pretend = 0, frame = 0
 1080              		@ frame_needed = 0, uses_anonymous_args = 0
 1081              		.loc 1 382 1 is_stmt 0 view .LVU243
 1082 0000 70B5     		push	{r4, r5, r6, lr}
 1083              	.LCFI12:
 1084              		.cfi_def_cfa_offset 16
 1085              		.cfi_offset 4, -16
 1086              		.cfi_offset 5, -12
 1087              		.cfi_offset 6, -8
 1088              		.cfi_offset 14, -4
 1089 0002 0D46     		mov	r5, r1
 1090 0004 1646     		mov	r6, r2
 383:Middlewares/Third_Party/RealThread_RTOS/components/device/device.c ****     RT_ASSERT(dev != RT_NULL);
 1091              		.loc 1 383 5 is_stmt 1 view .LVU244
 1092 0006 0446     		mov	r4, r0
 1093 0008 58B1     		cbz	r0, .L109
 1094              	.LVL108:
 1095              	.L104:
 1096              		.loc 1 383 30 discriminator 3 view .LVU245
 384:Middlewares/Third_Party/RealThread_RTOS/components/device/device.c ****     RT_ASSERT(rt_object_get_type(&dev->parent) == RT_Object_Class_Device);
 1097              		.loc 1 384 5 discriminator 3 view .LVU246
 1098 000a 2046     		mov	r0, r4
 1099 000c FFF7FEFF 		bl	rt_object_get_type
 1100              	.LVL109:
 1101 0010 0928     		cmp	r0, #9
 1102 0012 0DD1     		bne	.L110
 1103              	.L105:
 1104              		.loc 1 384 74 discriminator 3 view .LVU247
 385:Middlewares/Third_Party/RealThread_RTOS/components/device/device.c **** 
 386:Middlewares/Third_Party/RealThread_RTOS/components/device/device.c ****     /* call device_write interface */
 387:Middlewares/Third_Party/RealThread_RTOS/components/device/device.c ****     if (device_control != RT_NULL)
 1105              		.loc 1 387 5 discriminator 3 view .LVU248
 1106              		.loc 1 387 9 is_stmt 0 discriminator 3 view .LVU249
 1107 0014 A36B     		ldr	r3, [r4, #56]
 1108              		.loc 1 387 8 discriminator 3 view .LVU250
 1109 0016 93B1     		cbz	r3, .L107
 388:Middlewares/Third_Party/RealThread_RTOS/components/device/device.c ****     {
 389:Middlewares/Third_Party/RealThread_RTOS/components/device/device.c ****         return device_control(dev, cmd, arg);
 1110              		.loc 1 389 9 is_stmt 1 view .LVU251
 1111              		.loc 1 389 16 is_stmt 0 view .LVU252
 1112 0018 3246     		mov	r2, r6
 1113 001a 2946     		mov	r1, r5
 1114 001c 2046     		mov	r0, r4
 1115 001e 9847     		blx	r3
 1116              	.LVL110:
 1117              	.L103:
 390:Middlewares/Third_Party/RealThread_RTOS/components/device/device.c ****     }
 391:Middlewares/Third_Party/RealThread_RTOS/components/device/device.c **** 
 392:Middlewares/Third_Party/RealThread_RTOS/components/device/device.c ****     return -RT_ENOSYS;
 393:Middlewares/Third_Party/RealThread_RTOS/components/device/device.c **** }
 1118              		.loc 1 393 1 view .LVU253
 1119 0020 70BD     		pop	{r4, r5, r6, pc}
 1120              	.LVL111:
 1121              	.L109:
 383:Middlewares/Third_Party/RealThread_RTOS/components/device/device.c ****     RT_ASSERT(rt_object_get_type(&dev->parent) == RT_Object_Class_Device);
 1122              		.loc 1 383 5 is_stmt 1 discriminator 1 view .LVU254
ARM GAS  C:\Users\Administrator\AppData\Local\Temp\cc5I1bXo.s 			page 29


 1123 0022 40F27F12 		movw	r2, #383
 1124              	.LVL112:
 383:Middlewares/Third_Party/RealThread_RTOS/components/device/device.c ****     RT_ASSERT(rt_object_get_type(&dev->parent) == RT_Object_Class_Device);
 1125              		.loc 1 383 5 is_stmt 0 discriminator 1 view .LVU255
 1126 0026 0749     		ldr	r1, .L111
 1127              	.LVL113:
 383:Middlewares/Third_Party/RealThread_RTOS/components/device/device.c ****     RT_ASSERT(rt_object_get_type(&dev->parent) == RT_Object_Class_Device);
 1128              		.loc 1 383 5 discriminator 1 view .LVU256
 1129 0028 0748     		ldr	r0, .L111+4
 1130              	.LVL114:
 383:Middlewares/Third_Party/RealThread_RTOS/components/device/device.c ****     RT_ASSERT(rt_object_get_type(&dev->parent) == RT_Object_Class_Device);
 1131              		.loc 1 383 5 discriminator 1 view .LVU257
 1132 002a FFF7FEFF 		bl	rt_assert_handler
 1133              	.LVL115:
 1134 002e ECE7     		b	.L104
 1135              	.L110:
 384:Middlewares/Third_Party/RealThread_RTOS/components/device/device.c **** 
 1136              		.loc 1 384 5 is_stmt 1 discriminator 1 view .LVU258
 1137 0030 4FF4C072 		mov	r2, #384
 1138 0034 0349     		ldr	r1, .L111
 1139 0036 0548     		ldr	r0, .L111+8
 1140 0038 FFF7FEFF 		bl	rt_assert_handler
 1141              	.LVL116:
 1142 003c EAE7     		b	.L105
 1143              	.L107:
 392:Middlewares/Third_Party/RealThread_RTOS/components/device/device.c **** }
 1144              		.loc 1 392 12 is_stmt 0 view .LVU259
 1145 003e 6FF00500 		mvn	r0, #5
 1146 0042 EDE7     		b	.L103
 1147              	.L112:
 1148              		.align	2
 1149              	.L111:
 1150 0044 00000000 		.word	.LANCHOR7
 1151 0048 00000000 		.word	.LC0
 1152 004c 10000000 		.word	.LC1
 1153              		.cfi_endproc
 1154              	.LFE26:
 1156              		.section	.text.rt_device_set_rx_indicate,"ax",%progbits
 1157              		.align	1
 1158              		.global	rt_device_set_rx_indicate
 1159              		.syntax unified
 1160              		.thumb
 1161              		.thumb_func
 1162              		.fpu softvfp
 1164              	rt_device_set_rx_indicate:
 1165              	.LVL117:
 1166              	.LFB27:
 394:Middlewares/Third_Party/RealThread_RTOS/components/device/device.c **** 
 395:Middlewares/Third_Party/RealThread_RTOS/components/device/device.c **** /**
 396:Middlewares/Third_Party/RealThread_RTOS/components/device/device.c ****  * This function will set the reception indication callback function. This callback function
 397:Middlewares/Third_Party/RealThread_RTOS/components/device/device.c ****  * is invoked when this device receives data.
 398:Middlewares/Third_Party/RealThread_RTOS/components/device/device.c ****  *
 399:Middlewares/Third_Party/RealThread_RTOS/components/device/device.c ****  * @param dev the pointer of device driver structure
 400:Middlewares/Third_Party/RealThread_RTOS/components/device/device.c ****  * @param rx_ind the indication callback function
 401:Middlewares/Third_Party/RealThread_RTOS/components/device/device.c ****  *
 402:Middlewares/Third_Party/RealThread_RTOS/components/device/device.c ****  * @return RT_EOK
 403:Middlewares/Third_Party/RealThread_RTOS/components/device/device.c ****  */
ARM GAS  C:\Users\Administrator\AppData\Local\Temp\cc5I1bXo.s 			page 30


 404:Middlewares/Third_Party/RealThread_RTOS/components/device/device.c **** rt_err_t
 405:Middlewares/Third_Party/RealThread_RTOS/components/device/device.c **** rt_device_set_rx_indicate(rt_device_t dev,
 406:Middlewares/Third_Party/RealThread_RTOS/components/device/device.c ****                           rt_err_t (*rx_ind)(rt_device_t dev, rt_size_t size))
 407:Middlewares/Third_Party/RealThread_RTOS/components/device/device.c **** {
 1167              		.loc 1 407 1 is_stmt 1 view -0
 1168              		.cfi_startproc
 1169              		@ args = 0, pretend = 0, frame = 0
 1170              		@ frame_needed = 0, uses_anonymous_args = 0
 1171              		.loc 1 407 1 is_stmt 0 view .LVU261
 1172 0000 38B5     		push	{r3, r4, r5, lr}
 1173              	.LCFI13:
 1174              		.cfi_def_cfa_offset 16
 1175              		.cfi_offset 3, -16
 1176              		.cfi_offset 4, -12
 1177              		.cfi_offset 5, -8
 1178              		.cfi_offset 14, -4
 1179 0002 0C46     		mov	r4, r1
 408:Middlewares/Third_Party/RealThread_RTOS/components/device/device.c ****     RT_ASSERT(dev != RT_NULL);
 1180              		.loc 1 408 5 is_stmt 1 view .LVU262
 1181 0004 0546     		mov	r5, r0
 1182 0006 38B1     		cbz	r0, .L117
 1183              	.LVL118:
 1184              	.L114:
 1185              		.loc 1 408 30 discriminator 3 view .LVU263
 409:Middlewares/Third_Party/RealThread_RTOS/components/device/device.c ****     RT_ASSERT(rt_object_get_type(&dev->parent) == RT_Object_Class_Device);
 1186              		.loc 1 409 5 discriminator 3 view .LVU264
 1187 0008 2846     		mov	r0, r5
 1188 000a FFF7FEFF 		bl	rt_object_get_type
 1189              	.LVL119:
 1190 000e 0928     		cmp	r0, #9
 1191 0010 09D1     		bne	.L118
 1192              	.L115:
 1193              		.loc 1 409 74 discriminator 3 view .LVU265
 410:Middlewares/Third_Party/RealThread_RTOS/components/device/device.c **** 
 411:Middlewares/Third_Party/RealThread_RTOS/components/device/device.c ****     dev->rx_indicate = rx_ind;
 1194              		.loc 1 411 5 discriminator 3 view .LVU266
 1195              		.loc 1 411 22 is_stmt 0 discriminator 3 view .LVU267
 1196 0012 EC61     		str	r4, [r5, #28]
 412:Middlewares/Third_Party/RealThread_RTOS/components/device/device.c **** 
 413:Middlewares/Third_Party/RealThread_RTOS/components/device/device.c ****     return RT_EOK;
 1197              		.loc 1 413 5 is_stmt 1 discriminator 3 view .LVU268
 414:Middlewares/Third_Party/RealThread_RTOS/components/device/device.c **** }
 1198              		.loc 1 414 1 is_stmt 0 discriminator 3 view .LVU269
 1199 0014 0020     		movs	r0, #0
 1200 0016 38BD     		pop	{r3, r4, r5, pc}
 1201              	.LVL120:
 1202              	.L117:
 408:Middlewares/Third_Party/RealThread_RTOS/components/device/device.c ****     RT_ASSERT(rt_object_get_type(&dev->parent) == RT_Object_Class_Device);
 1203              		.loc 1 408 5 is_stmt 1 discriminator 1 view .LVU270
 1204 0018 4FF4CC72 		mov	r2, #408
 1205 001c 0549     		ldr	r1, .L119
 1206              	.LVL121:
 408:Middlewares/Third_Party/RealThread_RTOS/components/device/device.c ****     RT_ASSERT(rt_object_get_type(&dev->parent) == RT_Object_Class_Device);
 1207              		.loc 1 408 5 is_stmt 0 discriminator 1 view .LVU271
 1208 001e 0648     		ldr	r0, .L119+4
 1209              	.LVL122:
 408:Middlewares/Third_Party/RealThread_RTOS/components/device/device.c ****     RT_ASSERT(rt_object_get_type(&dev->parent) == RT_Object_Class_Device);
ARM GAS  C:\Users\Administrator\AppData\Local\Temp\cc5I1bXo.s 			page 31


 1210              		.loc 1 408 5 discriminator 1 view .LVU272
 1211 0020 FFF7FEFF 		bl	rt_assert_handler
 1212              	.LVL123:
 1213 0024 F0E7     		b	.L114
 1214              	.L118:
 409:Middlewares/Third_Party/RealThread_RTOS/components/device/device.c **** 
 1215              		.loc 1 409 5 is_stmt 1 discriminator 1 view .LVU273
 1216 0026 40F29912 		movw	r2, #409
 1217 002a 0249     		ldr	r1, .L119
 1218 002c 0348     		ldr	r0, .L119+8
 1219 002e FFF7FEFF 		bl	rt_assert_handler
 1220              	.LVL124:
 1221 0032 EEE7     		b	.L115
 1222              	.L120:
 1223              		.align	2
 1224              	.L119:
 1225 0034 00000000 		.word	.LANCHOR8
 1226 0038 00000000 		.word	.LC0
 1227 003c 10000000 		.word	.LC1
 1228              		.cfi_endproc
 1229              	.LFE27:
 1231              		.section	.text.rt_device_set_tx_complete,"ax",%progbits
 1232              		.align	1
 1233              		.global	rt_device_set_tx_complete
 1234              		.syntax unified
 1235              		.thumb
 1236              		.thumb_func
 1237              		.fpu softvfp
 1239              	rt_device_set_tx_complete:
 1240              	.LVL125:
 1241              	.LFB28:
 415:Middlewares/Third_Party/RealThread_RTOS/components/device/device.c **** 
 416:Middlewares/Third_Party/RealThread_RTOS/components/device/device.c **** /**
 417:Middlewares/Third_Party/RealThread_RTOS/components/device/device.c ****  * This function will set the indication callback function when device has
 418:Middlewares/Third_Party/RealThread_RTOS/components/device/device.c ****  * written data to physical hardware.
 419:Middlewares/Third_Party/RealThread_RTOS/components/device/device.c ****  *
 420:Middlewares/Third_Party/RealThread_RTOS/components/device/device.c ****  * @param dev the pointer of device driver structure
 421:Middlewares/Third_Party/RealThread_RTOS/components/device/device.c ****  * @param tx_done the indication callback function
 422:Middlewares/Third_Party/RealThread_RTOS/components/device/device.c ****  *
 423:Middlewares/Third_Party/RealThread_RTOS/components/device/device.c ****  * @return RT_EOK
 424:Middlewares/Third_Party/RealThread_RTOS/components/device/device.c ****  */
 425:Middlewares/Third_Party/RealThread_RTOS/components/device/device.c **** rt_err_t
 426:Middlewares/Third_Party/RealThread_RTOS/components/device/device.c **** rt_device_set_tx_complete(rt_device_t dev,
 427:Middlewares/Third_Party/RealThread_RTOS/components/device/device.c ****                           rt_err_t (*tx_done)(rt_device_t dev, void *buffer))
 428:Middlewares/Third_Party/RealThread_RTOS/components/device/device.c **** {
 1242              		.loc 1 428 1 view -0
 1243              		.cfi_startproc
 1244              		@ args = 0, pretend = 0, frame = 0
 1245              		@ frame_needed = 0, uses_anonymous_args = 0
 1246              		.loc 1 428 1 is_stmt 0 view .LVU275
 1247 0000 38B5     		push	{r3, r4, r5, lr}
 1248              	.LCFI14:
 1249              		.cfi_def_cfa_offset 16
 1250              		.cfi_offset 3, -16
 1251              		.cfi_offset 4, -12
 1252              		.cfi_offset 5, -8
 1253              		.cfi_offset 14, -4
ARM GAS  C:\Users\Administrator\AppData\Local\Temp\cc5I1bXo.s 			page 32


 1254 0002 0C46     		mov	r4, r1
 429:Middlewares/Third_Party/RealThread_RTOS/components/device/device.c ****     RT_ASSERT(dev != RT_NULL);
 1255              		.loc 1 429 5 is_stmt 1 view .LVU276
 1256 0004 0546     		mov	r5, r0
 1257 0006 38B1     		cbz	r0, .L125
 1258              	.LVL126:
 1259              	.L122:
 1260              		.loc 1 429 30 discriminator 3 view .LVU277
 430:Middlewares/Third_Party/RealThread_RTOS/components/device/device.c ****     RT_ASSERT(rt_object_get_type(&dev->parent) == RT_Object_Class_Device);
 1261              		.loc 1 430 5 discriminator 3 view .LVU278
 1262 0008 2846     		mov	r0, r5
 1263 000a FFF7FEFF 		bl	rt_object_get_type
 1264              	.LVL127:
 1265 000e 0928     		cmp	r0, #9
 1266 0010 09D1     		bne	.L126
 1267              	.L123:
 1268              		.loc 1 430 74 discriminator 3 view .LVU279
 431:Middlewares/Third_Party/RealThread_RTOS/components/device/device.c **** 
 432:Middlewares/Third_Party/RealThread_RTOS/components/device/device.c ****     dev->tx_complete = tx_done;
 1269              		.loc 1 432 5 discriminator 3 view .LVU280
 1270              		.loc 1 432 22 is_stmt 0 discriminator 3 view .LVU281
 1271 0012 2C62     		str	r4, [r5, #32]
 433:Middlewares/Third_Party/RealThread_RTOS/components/device/device.c **** 
 434:Middlewares/Third_Party/RealThread_RTOS/components/device/device.c ****     return RT_EOK;
 1272              		.loc 1 434 5 is_stmt 1 discriminator 3 view .LVU282
 435:Middlewares/Third_Party/RealThread_RTOS/components/device/device.c **** }
 1273              		.loc 1 435 1 is_stmt 0 discriminator 3 view .LVU283
 1274 0014 0020     		movs	r0, #0
 1275 0016 38BD     		pop	{r3, r4, r5, pc}
 1276              	.LVL128:
 1277              	.L125:
 429:Middlewares/Third_Party/RealThread_RTOS/components/device/device.c ****     RT_ASSERT(rt_object_get_type(&dev->parent) == RT_Object_Class_Device);
 1278              		.loc 1 429 5 is_stmt 1 discriminator 1 view .LVU284
 1279 0018 40F2AD12 		movw	r2, #429
 1280 001c 0549     		ldr	r1, .L127
 1281              	.LVL129:
 429:Middlewares/Third_Party/RealThread_RTOS/components/device/device.c ****     RT_ASSERT(rt_object_get_type(&dev->parent) == RT_Object_Class_Device);
 1282              		.loc 1 429 5 is_stmt 0 discriminator 1 view .LVU285
 1283 001e 0648     		ldr	r0, .L127+4
 1284              	.LVL130:
 429:Middlewares/Third_Party/RealThread_RTOS/components/device/device.c ****     RT_ASSERT(rt_object_get_type(&dev->parent) == RT_Object_Class_Device);
 1285              		.loc 1 429 5 discriminator 1 view .LVU286
 1286 0020 FFF7FEFF 		bl	rt_assert_handler
 1287              	.LVL131:
 1288 0024 F0E7     		b	.L122
 1289              	.L126:
 430:Middlewares/Third_Party/RealThread_RTOS/components/device/device.c **** 
 1290              		.loc 1 430 5 is_stmt 1 discriminator 1 view .LVU287
 1291 0026 4FF4D772 		mov	r2, #430
 1292 002a 0249     		ldr	r1, .L127
 1293 002c 0348     		ldr	r0, .L127+8
 1294 002e FFF7FEFF 		bl	rt_assert_handler
 1295              	.LVL132:
 1296 0032 EEE7     		b	.L123
 1297              	.L128:
 1298              		.align	2
 1299              	.L127:
ARM GAS  C:\Users\Administrator\AppData\Local\Temp\cc5I1bXo.s 			page 33


 1300 0034 00000000 		.word	.LANCHOR9
 1301 0038 00000000 		.word	.LC0
 1302 003c 10000000 		.word	.LC1
 1303              		.cfi_endproc
 1304              	.LFE28:
 1306              		.section	.rodata.__FUNCTION__.0,"a"
 1307              		.align	2
 1308              		.set	.LANCHOR9,. + 0
 1311              	__FUNCTION__.0:
 1312 0000 72745F64 		.ascii	"rt_device_set_tx_complete\000"
 1312      65766963 
 1312      655F7365 
 1312      745F7478 
 1312      5F636F6D 
 1313              		.section	.rodata.__FUNCTION__.1,"a"
 1314              		.align	2
 1315              		.set	.LANCHOR8,. + 0
 1318              	__FUNCTION__.1:
 1319 0000 72745F64 		.ascii	"rt_device_set_rx_indicate\000"
 1319      65766963 
 1319      655F7365 
 1319      745F7278 
 1319      5F696E64 
 1320              		.section	.rodata.__FUNCTION__.2,"a"
 1321              		.align	2
 1322              		.set	.LANCHOR7,. + 0
 1325              	__FUNCTION__.2:
 1326 0000 72745F64 		.ascii	"rt_device_control\000"
 1326      65766963 
 1326      655F636F 
 1326      6E74726F 
 1326      6C00
 1327              		.section	.rodata.__FUNCTION__.3,"a"
 1328              		.align	2
 1329              		.set	.LANCHOR6,. + 0
 1332              	__FUNCTION__.3:
 1333 0000 72745F64 		.ascii	"rt_device_write\000"
 1333      65766963 
 1333      655F7772 
 1333      69746500 
 1334              		.section	.rodata.__FUNCTION__.4,"a"
 1335              		.align	2
 1336              		.set	.LANCHOR5,. + 0
 1339              	__FUNCTION__.4:
 1340 0000 72745F64 		.ascii	"rt_device_read\000"
 1340      65766963 
 1340      655F7265 
 1340      616400
 1341              		.section	.rodata.__FUNCTION__.5,"a"
 1342              		.align	2
 1343              		.set	.LANCHOR4,. + 0
 1346              	__FUNCTION__.5:
 1347 0000 72745F64 		.ascii	"rt_device_close\000"
 1347      65766963 
 1347      655F636C 
 1347      6F736500 
 1348              		.section	.rodata.__FUNCTION__.6,"a"
ARM GAS  C:\Users\Administrator\AppData\Local\Temp\cc5I1bXo.s 			page 34


 1349              		.align	2
 1350              		.set	.LANCHOR3,. + 0
 1353              	__FUNCTION__.6:
 1354 0000 72745F64 		.ascii	"rt_device_open\000"
 1354      65766963 
 1354      655F6F70 
 1354      656E00
 1355              		.section	.rodata.__FUNCTION__.7,"a"
 1356              		.align	2
 1357              		.set	.LANCHOR2,. + 0
 1360              	__FUNCTION__.7:
 1361 0000 72745F64 		.ascii	"rt_device_init\000"
 1361      65766963 
 1361      655F696E 
 1361      697400
 1362              		.section	.rodata.__FUNCTION__.8,"a"
 1363              		.align	2
 1364              		.set	.LANCHOR1,. + 0
 1367              	__FUNCTION__.8:
 1368 0000 72745F64 		.ascii	"rt_device_destroy\000"
 1368      65766963 
 1368      655F6465 
 1368      7374726F 
 1368      7900
 1369              		.section	.rodata.__FUNCTION__.9,"a"
 1370              		.align	2
 1371              		.set	.LANCHOR0,. + 0
 1374              	__FUNCTION__.9:
 1375 0000 72745F64 		.ascii	"rt_device_unregister\000"
 1375      65766963 
 1375      655F756E 
 1375      72656769 
 1375      73746572 
 1376              		.text
 1377              	.Letext0:
 1378              		.file 2 "Middlewares/Third_Party/RealThread_RTOS/include/rtdef.h"
 1379              		.file 3 "Middlewares/Third_Party/RealThread_RTOS/include/rtthread.h"
ARM GAS  C:\Users\Administrator\AppData\Local\Temp\cc5I1bXo.s 			page 35


DEFINED SYMBOLS
                            *ABS*:00000000 device.c
C:\Users\Administrator\AppData\Local\Temp\cc5I1bXo.s:16     .rodata.rt_device_unregister.str1.4:00000000 $d
C:\Users\Administrator\AppData\Local\Temp\cc5I1bXo.s:27     .text.rt_device_unregister:00000000 $t
C:\Users\Administrator\AppData\Local\Temp\cc5I1bXo.s:35     .text.rt_device_unregister:00000000 rt_device_unregister
C:\Users\Administrator\AppData\Local\Temp\cc5I1bXo.s:108    .text.rt_device_unregister:00000048 $d
C:\Users\Administrator\AppData\Local\Temp\cc5I1bXo.s:116    .text.rt_device_init_all:00000000 $t
C:\Users\Administrator\AppData\Local\Temp\cc5I1bXo.s:123    .text.rt_device_init_all:00000000 rt_device_init_all
C:\Users\Administrator\AppData\Local\Temp\cc5I1bXo.s:138    .text.rt_device_find:00000000 $t
C:\Users\Administrator\AppData\Local\Temp\cc5I1bXo.s:145    .text.rt_device_find:00000000 rt_device_find
C:\Users\Administrator\AppData\Local\Temp\cc5I1bXo.s:169    .text.rt_device_register:00000000 $t
C:\Users\Administrator\AppData\Local\Temp\cc5I1bXo.s:176    .text.rt_device_register:00000000 rt_device_register
C:\Users\Administrator\AppData\Local\Temp\cc5I1bXo.s:254    .text.rt_device_create:00000000 $t
C:\Users\Administrator\AppData\Local\Temp\cc5I1bXo.s:261    .text.rt_device_create:00000000 rt_device_create
C:\Users\Administrator\AppData\Local\Temp\cc5I1bXo.s:318    .rodata.rt_device_destroy.str1.4:00000000 $d
C:\Users\Administrator\AppData\Local\Temp\cc5I1bXo.s:323    .text.rt_device_destroy:00000000 $t
C:\Users\Administrator\AppData\Local\Temp\cc5I1bXo.s:330    .text.rt_device_destroy:00000000 rt_device_destroy
C:\Users\Administrator\AppData\Local\Temp\cc5I1bXo.s:404    .text.rt_device_destroy:0000004c $d
C:\Users\Administrator\AppData\Local\Temp\cc5I1bXo.s:412    .rodata.rt_device_init.str1.4:00000000 $d
C:\Users\Administrator\AppData\Local\Temp\cc5I1bXo.s:417    .text.rt_device_init:00000000 $t
C:\Users\Administrator\AppData\Local\Temp\cc5I1bXo.s:424    .text.rt_device_init:00000000 rt_device_init
C:\Users\Administrator\AppData\Local\Temp\cc5I1bXo.s:513    .text.rt_device_init:00000048 $d
C:\Users\Administrator\AppData\Local\Temp\cc5I1bXo.s:520    .rodata.rt_device_open.str1.4:00000000 $d
C:\Users\Administrator\AppData\Local\Temp\cc5I1bXo.s:524    .text.rt_device_open:00000000 $t
C:\Users\Administrator\AppData\Local\Temp\cc5I1bXo.s:531    .text.rt_device_open:00000000 rt_device_open
C:\Users\Administrator\AppData\Local\Temp\cc5I1bXo.s:712    .text.rt_device_open:000000b0 $d
C:\Users\Administrator\AppData\Local\Temp\cc5I1bXo.s:721    .text.rt_device_close:00000000 $t
C:\Users\Administrator\AppData\Local\Temp\cc5I1bXo.s:728    .text.rt_device_close:00000000 rt_device_close
C:\Users\Administrator\AppData\Local\Temp\cc5I1bXo.s:830    .text.rt_device_close:0000005c $d
C:\Users\Administrator\AppData\Local\Temp\cc5I1bXo.s:837    .text.rt_device_read:00000000 $t
C:\Users\Administrator\AppData\Local\Temp\cc5I1bXo.s:844    .text.rt_device_read:00000000 rt_device_read
C:\Users\Administrator\AppData\Local\Temp\cc5I1bXo.s:945    .text.rt_device_read:00000068 $d
C:\Users\Administrator\AppData\Local\Temp\cc5I1bXo.s:952    .text.rt_device_write:00000000 $t
C:\Users\Administrator\AppData\Local\Temp\cc5I1bXo.s:959    .text.rt_device_write:00000000 rt_device_write
C:\Users\Administrator\AppData\Local\Temp\cc5I1bXo.s:1060   .text.rt_device_write:00000068 $d
C:\Users\Administrator\AppData\Local\Temp\cc5I1bXo.s:1067   .text.rt_device_control:00000000 $t
C:\Users\Administrator\AppData\Local\Temp\cc5I1bXo.s:1074   .text.rt_device_control:00000000 rt_device_control
C:\Users\Administrator\AppData\Local\Temp\cc5I1bXo.s:1150   .text.rt_device_control:00000044 $d
C:\Users\Administrator\AppData\Local\Temp\cc5I1bXo.s:1157   .text.rt_device_set_rx_indicate:00000000 $t
C:\Users\Administrator\AppData\Local\Temp\cc5I1bXo.s:1164   .text.rt_device_set_rx_indicate:00000000 rt_device_set_rx_indicate
C:\Users\Administrator\AppData\Local\Temp\cc5I1bXo.s:1225   .text.rt_device_set_rx_indicate:00000034 $d
C:\Users\Administrator\AppData\Local\Temp\cc5I1bXo.s:1232   .text.rt_device_set_tx_complete:00000000 $t
C:\Users\Administrator\AppData\Local\Temp\cc5I1bXo.s:1239   .text.rt_device_set_tx_complete:00000000 rt_device_set_tx_complete
C:\Users\Administrator\AppData\Local\Temp\cc5I1bXo.s:1300   .text.rt_device_set_tx_complete:00000034 $d
C:\Users\Administrator\AppData\Local\Temp\cc5I1bXo.s:1307   .rodata.__FUNCTION__.0:00000000 $d
C:\Users\Administrator\AppData\Local\Temp\cc5I1bXo.s:1311   .rodata.__FUNCTION__.0:00000000 __FUNCTION__.0
C:\Users\Administrator\AppData\Local\Temp\cc5I1bXo.s:1314   .rodata.__FUNCTION__.1:00000000 $d
C:\Users\Administrator\AppData\Local\Temp\cc5I1bXo.s:1318   .rodata.__FUNCTION__.1:00000000 __FUNCTION__.1
C:\Users\Administrator\AppData\Local\Temp\cc5I1bXo.s:1321   .rodata.__FUNCTION__.2:00000000 $d
C:\Users\Administrator\AppData\Local\Temp\cc5I1bXo.s:1325   .rodata.__FUNCTION__.2:00000000 __FUNCTION__.2
C:\Users\Administrator\AppData\Local\Temp\cc5I1bXo.s:1328   .rodata.__FUNCTION__.3:00000000 $d
C:\Users\Administrator\AppData\Local\Temp\cc5I1bXo.s:1332   .rodata.__FUNCTION__.3:00000000 __FUNCTION__.3
C:\Users\Administrator\AppData\Local\Temp\cc5I1bXo.s:1335   .rodata.__FUNCTION__.4:00000000 $d
C:\Users\Administrator\AppData\Local\Temp\cc5I1bXo.s:1339   .rodata.__FUNCTION__.4:00000000 __FUNCTION__.4
C:\Users\Administrator\AppData\Local\Temp\cc5I1bXo.s:1342   .rodata.__FUNCTION__.5:00000000 $d
C:\Users\Administrator\AppData\Local\Temp\cc5I1bXo.s:1346   .rodata.__FUNCTION__.5:00000000 __FUNCTION__.5
C:\Users\Administrator\AppData\Local\Temp\cc5I1bXo.s:1349   .rodata.__FUNCTION__.6:00000000 $d
ARM GAS  C:\Users\Administrator\AppData\Local\Temp\cc5I1bXo.s 			page 36


C:\Users\Administrator\AppData\Local\Temp\cc5I1bXo.s:1353   .rodata.__FUNCTION__.6:00000000 __FUNCTION__.6
C:\Users\Administrator\AppData\Local\Temp\cc5I1bXo.s:1356   .rodata.__FUNCTION__.7:00000000 $d
C:\Users\Administrator\AppData\Local\Temp\cc5I1bXo.s:1360   .rodata.__FUNCTION__.7:00000000 __FUNCTION__.7
C:\Users\Administrator\AppData\Local\Temp\cc5I1bXo.s:1363   .rodata.__FUNCTION__.8:00000000 $d
C:\Users\Administrator\AppData\Local\Temp\cc5I1bXo.s:1367   .rodata.__FUNCTION__.8:00000000 __FUNCTION__.8
C:\Users\Administrator\AppData\Local\Temp\cc5I1bXo.s:1370   .rodata.__FUNCTION__.9:00000000 $d
C:\Users\Administrator\AppData\Local\Temp\cc5I1bXo.s:1374   .rodata.__FUNCTION__.9:00000000 __FUNCTION__.9

UNDEFINED SYMBOLS
rt_object_get_type
rt_object_is_systemobject
rt_object_detach
rt_assert_handler
rt_object_find
rt_object_init
rt_malloc
rt_memset
rt_free
rt_kprintf
rt_set_errno
