ARM GAS  C:\Users\Administrator\AppData\Local\Temp\cc9qZCNj.s 			page 1


   1              		.cpu cortex-m4
   2              		.eabi_attribute 20, 1
   3              		.eabi_attribute 21, 1
   4              		.eabi_attribute 23, 3
   5              		.eabi_attribute 24, 1
   6              		.eabi_attribute 25, 1
   7              		.eabi_attribute 26, 1
   8              		.eabi_attribute 30, 1
   9              		.eabi_attribute 34, 1
  10              		.eabi_attribute 18, 4
  11              		.file	"gpio.c"
  12              		.text
  13              	.Ltext0:
  14              		.cfi_sections	.debug_frame
  15              		.section	.text.MX_GPIO_Init,"ax",%progbits
  16              		.align	1
  17              		.global	MX_GPIO_Init
  18              		.arch armv7e-m
  19              		.syntax unified
  20              		.thumb
  21              		.thumb_func
  22              		.fpu softvfp
  24              	MX_GPIO_Init:
  25              	.LFB130:
  26              		.file 1 "Core/Src/gpio.c"
   1:Core/Src/gpio.c **** /* USER CODE BEGIN Header */
   2:Core/Src/gpio.c **** /**
   3:Core/Src/gpio.c ****   ******************************************************************************
   4:Core/Src/gpio.c ****   * @file    gpio.c
   5:Core/Src/gpio.c ****   * @brief   This file provides code for the configuration
   6:Core/Src/gpio.c ****   *          of all used GPIO pins.
   7:Core/Src/gpio.c ****   ******************************************************************************
   8:Core/Src/gpio.c ****   * @attention
   9:Core/Src/gpio.c ****   *
  10:Core/Src/gpio.c ****   * Copyright (c) 2022 STMicroelectronics.
  11:Core/Src/gpio.c ****   * All rights reserved.
  12:Core/Src/gpio.c ****   *
  13:Core/Src/gpio.c ****   * This software is licensed under terms that can be found in the LICENSE file
  14:Core/Src/gpio.c ****   * in the root directory of this software component.
  15:Core/Src/gpio.c ****   * If no LICENSE file comes with this software, it is provided AS-IS.
  16:Core/Src/gpio.c ****   *
  17:Core/Src/gpio.c ****   ******************************************************************************
  18:Core/Src/gpio.c ****   */
  19:Core/Src/gpio.c **** /* USER CODE END Header */
  20:Core/Src/gpio.c **** 
  21:Core/Src/gpio.c **** /* Includes ------------------------------------------------------------------*/
  22:Core/Src/gpio.c **** #include "gpio.h"
  23:Core/Src/gpio.c **** 
  24:Core/Src/gpio.c **** /* USER CODE BEGIN 0 */
  25:Core/Src/gpio.c **** 
  26:Core/Src/gpio.c **** /* USER CODE END 0 */
  27:Core/Src/gpio.c **** 
  28:Core/Src/gpio.c **** /*----------------------------------------------------------------------------*/
  29:Core/Src/gpio.c **** /* Configure GPIO                                                             */
  30:Core/Src/gpio.c **** /*----------------------------------------------------------------------------*/
  31:Core/Src/gpio.c **** /* USER CODE BEGIN 1 */
  32:Core/Src/gpio.c **** 
ARM GAS  C:\Users\Administrator\AppData\Local\Temp\cc9qZCNj.s 			page 2


  33:Core/Src/gpio.c **** /* USER CODE END 1 */
  34:Core/Src/gpio.c **** 
  35:Core/Src/gpio.c **** /** Configure pins as
  36:Core/Src/gpio.c ****         * Analog
  37:Core/Src/gpio.c ****         * Input
  38:Core/Src/gpio.c ****         * Output
  39:Core/Src/gpio.c ****         * EVENT_OUT
  40:Core/Src/gpio.c ****         * EXTI
  41:Core/Src/gpio.c ****         * Free pins are configured automatically as Analog (this feature is enabled through
  42:Core/Src/gpio.c ****         * the Code Generation settings)
  43:Core/Src/gpio.c **** */
  44:Core/Src/gpio.c **** void MX_GPIO_Init(void)
  45:Core/Src/gpio.c **** {
  27              		.loc 1 45 1 view -0
  28              		.cfi_startproc
  29              		@ args = 0, pretend = 0, frame = 56
  30              		@ frame_needed = 0, uses_anonymous_args = 0
  31 0000 F0B5     		push	{r4, r5, r6, r7, lr}
  32              	.LCFI0:
  33              		.cfi_def_cfa_offset 20
  34              		.cfi_offset 4, -20
  35              		.cfi_offset 5, -16
  36              		.cfi_offset 6, -12
  37              		.cfi_offset 7, -8
  38              		.cfi_offset 14, -4
  39 0002 8FB0     		sub	sp, sp, #60
  40              	.LCFI1:
  41              		.cfi_def_cfa_offset 80
  46:Core/Src/gpio.c **** 
  47:Core/Src/gpio.c ****   GPIO_InitTypeDef GPIO_InitStruct = {0};
  42              		.loc 1 47 3 view .LVU1
  43              		.loc 1 47 20 is_stmt 0 view .LVU2
  44 0004 0024     		movs	r4, #0
  45 0006 0994     		str	r4, [sp, #36]
  46 0008 0A94     		str	r4, [sp, #40]
  47 000a 0B94     		str	r4, [sp, #44]
  48 000c 0C94     		str	r4, [sp, #48]
  49 000e 0D94     		str	r4, [sp, #52]
  48:Core/Src/gpio.c **** 
  49:Core/Src/gpio.c ****   /* GPIO Ports Clock Enable */
  50:Core/Src/gpio.c ****   __HAL_RCC_GPIOE_CLK_ENABLE();
  50              		.loc 1 50 3 is_stmt 1 view .LVU3
  51              	.LBB2:
  52              		.loc 1 50 3 view .LVU4
  53 0010 0094     		str	r4, [sp]
  54              		.loc 1 50 3 view .LVU5
  55 0012 5F4B     		ldr	r3, .L3
  56 0014 1A6B     		ldr	r2, [r3, #48]
  57 0016 42F01002 		orr	r2, r2, #16
  58 001a 1A63     		str	r2, [r3, #48]
  59              		.loc 1 50 3 view .LVU6
  60 001c 1A6B     		ldr	r2, [r3, #48]
  61 001e 02F01002 		and	r2, r2, #16
  62 0022 0092     		str	r2, [sp]
  63              		.loc 1 50 3 view .LVU7
  64 0024 009A     		ldr	r2, [sp]
  65              	.LBE2:
ARM GAS  C:\Users\Administrator\AppData\Local\Temp\cc9qZCNj.s 			page 3


  66              		.loc 1 50 3 view .LVU8
  51:Core/Src/gpio.c ****   __HAL_RCC_GPIOI_CLK_ENABLE();
  67              		.loc 1 51 3 view .LVU9
  68              	.LBB3:
  69              		.loc 1 51 3 view .LVU10
  70 0026 0194     		str	r4, [sp, #4]
  71              		.loc 1 51 3 view .LVU11
  72 0028 1A6B     		ldr	r2, [r3, #48]
  73 002a 42F48072 		orr	r2, r2, #256
  74 002e 1A63     		str	r2, [r3, #48]
  75              		.loc 1 51 3 view .LVU12
  76 0030 1A6B     		ldr	r2, [r3, #48]
  77 0032 02F48072 		and	r2, r2, #256
  78 0036 0192     		str	r2, [sp, #4]
  79              		.loc 1 51 3 view .LVU13
  80 0038 019A     		ldr	r2, [sp, #4]
  81              	.LBE3:
  82              		.loc 1 51 3 view .LVU14
  52:Core/Src/gpio.c ****   __HAL_RCC_GPIOC_CLK_ENABLE();
  83              		.loc 1 52 3 view .LVU15
  84              	.LBB4:
  85              		.loc 1 52 3 view .LVU16
  86 003a 0294     		str	r4, [sp, #8]
  87              		.loc 1 52 3 view .LVU17
  88 003c 1A6B     		ldr	r2, [r3, #48]
  89 003e 42F00402 		orr	r2, r2, #4
  90 0042 1A63     		str	r2, [r3, #48]
  91              		.loc 1 52 3 view .LVU18
  92 0044 1A6B     		ldr	r2, [r3, #48]
  93 0046 02F00402 		and	r2, r2, #4
  94 004a 0292     		str	r2, [sp, #8]
  95              		.loc 1 52 3 view .LVU19
  96 004c 029A     		ldr	r2, [sp, #8]
  97              	.LBE4:
  98              		.loc 1 52 3 view .LVU20
  53:Core/Src/gpio.c ****   __HAL_RCC_GPIOF_CLK_ENABLE();
  99              		.loc 1 53 3 view .LVU21
 100              	.LBB5:
 101              		.loc 1 53 3 view .LVU22
 102 004e 0394     		str	r4, [sp, #12]
 103              		.loc 1 53 3 view .LVU23
 104 0050 1A6B     		ldr	r2, [r3, #48]
 105 0052 42F02002 		orr	r2, r2, #32
 106 0056 1A63     		str	r2, [r3, #48]
 107              		.loc 1 53 3 view .LVU24
 108 0058 1A6B     		ldr	r2, [r3, #48]
 109 005a 02F02002 		and	r2, r2, #32
 110 005e 0392     		str	r2, [sp, #12]
 111              		.loc 1 53 3 view .LVU25
 112 0060 039A     		ldr	r2, [sp, #12]
 113              	.LBE5:
 114              		.loc 1 53 3 view .LVU26
  54:Core/Src/gpio.c ****   __HAL_RCC_GPIOH_CLK_ENABLE();
 115              		.loc 1 54 3 view .LVU27
 116              	.LBB6:
 117              		.loc 1 54 3 view .LVU28
 118 0062 0494     		str	r4, [sp, #16]
ARM GAS  C:\Users\Administrator\AppData\Local\Temp\cc9qZCNj.s 			page 4


 119              		.loc 1 54 3 view .LVU29
 120 0064 1A6B     		ldr	r2, [r3, #48]
 121 0066 42F08002 		orr	r2, r2, #128
 122 006a 1A63     		str	r2, [r3, #48]
 123              		.loc 1 54 3 view .LVU30
 124 006c 1A6B     		ldr	r2, [r3, #48]
 125 006e 02F08002 		and	r2, r2, #128
 126 0072 0492     		str	r2, [sp, #16]
 127              		.loc 1 54 3 view .LVU31
 128 0074 049A     		ldr	r2, [sp, #16]
 129              	.LBE6:
 130              		.loc 1 54 3 view .LVU32
  55:Core/Src/gpio.c ****   __HAL_RCC_GPIOA_CLK_ENABLE();
 131              		.loc 1 55 3 view .LVU33
 132              	.LBB7:
 133              		.loc 1 55 3 view .LVU34
 134 0076 0594     		str	r4, [sp, #20]
 135              		.loc 1 55 3 view .LVU35
 136 0078 1A6B     		ldr	r2, [r3, #48]
 137 007a 42F00102 		orr	r2, r2, #1
 138 007e 1A63     		str	r2, [r3, #48]
 139              		.loc 1 55 3 view .LVU36
 140 0080 1A6B     		ldr	r2, [r3, #48]
 141 0082 02F00102 		and	r2, r2, #1
 142 0086 0592     		str	r2, [sp, #20]
 143              		.loc 1 55 3 view .LVU37
 144 0088 059A     		ldr	r2, [sp, #20]
 145              	.LBE7:
 146              		.loc 1 55 3 view .LVU38
  56:Core/Src/gpio.c ****   __HAL_RCC_GPIOB_CLK_ENABLE();
 147              		.loc 1 56 3 view .LVU39
 148              	.LBB8:
 149              		.loc 1 56 3 view .LVU40
 150 008a 0694     		str	r4, [sp, #24]
 151              		.loc 1 56 3 view .LVU41
 152 008c 1A6B     		ldr	r2, [r3, #48]
 153 008e 42F00202 		orr	r2, r2, #2
 154 0092 1A63     		str	r2, [r3, #48]
 155              		.loc 1 56 3 view .LVU42
 156 0094 1A6B     		ldr	r2, [r3, #48]
 157 0096 02F00202 		and	r2, r2, #2
 158 009a 0692     		str	r2, [sp, #24]
 159              		.loc 1 56 3 view .LVU43
 160 009c 069A     		ldr	r2, [sp, #24]
 161              	.LBE8:
 162              		.loc 1 56 3 view .LVU44
  57:Core/Src/gpio.c ****   __HAL_RCC_GPIOG_CLK_ENABLE();
 163              		.loc 1 57 3 view .LVU45
 164              	.LBB9:
 165              		.loc 1 57 3 view .LVU46
 166 009e 0794     		str	r4, [sp, #28]
 167              		.loc 1 57 3 view .LVU47
 168 00a0 1A6B     		ldr	r2, [r3, #48]
 169 00a2 42F04002 		orr	r2, r2, #64
 170 00a6 1A63     		str	r2, [r3, #48]
 171              		.loc 1 57 3 view .LVU48
 172 00a8 1A6B     		ldr	r2, [r3, #48]
ARM GAS  C:\Users\Administrator\AppData\Local\Temp\cc9qZCNj.s 			page 5


 173 00aa 02F04002 		and	r2, r2, #64
 174 00ae 0792     		str	r2, [sp, #28]
 175              		.loc 1 57 3 view .LVU49
 176 00b0 079A     		ldr	r2, [sp, #28]
 177              	.LBE9:
 178              		.loc 1 57 3 view .LVU50
  58:Core/Src/gpio.c ****   __HAL_RCC_GPIOD_CLK_ENABLE();
 179              		.loc 1 58 3 view .LVU51
 180              	.LBB10:
 181              		.loc 1 58 3 view .LVU52
 182 00b2 0894     		str	r4, [sp, #32]
 183              		.loc 1 58 3 view .LVU53
 184 00b4 1A6B     		ldr	r2, [r3, #48]
 185 00b6 42F00802 		orr	r2, r2, #8
 186 00ba 1A63     		str	r2, [r3, #48]
 187              		.loc 1 58 3 view .LVU54
 188 00bc 1B6B     		ldr	r3, [r3, #48]
 189 00be 03F00803 		and	r3, r3, #8
 190 00c2 0893     		str	r3, [sp, #32]
 191              		.loc 1 58 3 view .LVU55
 192 00c4 089B     		ldr	r3, [sp, #32]
 193              	.LBE10:
 194              		.loc 1 58 3 view .LVU56
  59:Core/Src/gpio.c **** 
  60:Core/Src/gpio.c ****   /*Configure GPIO pin Output Level */
  61:Core/Src/gpio.c ****   HAL_GPIO_WritePin(GPIOE, LED0_Pin|LED1_Pin, GPIO_PIN_RESET);
 195              		.loc 1 61 3 view .LVU57
 196 00c6 334E     		ldr	r6, .L3+4
 197 00c8 2246     		mov	r2, r4
 198 00ca 0321     		movs	r1, #3
 199 00cc 3046     		mov	r0, r6
 200 00ce FFF7FEFF 		bl	HAL_GPIO_WritePin
 201              	.LVL0:
  62:Core/Src/gpio.c **** 
  63:Core/Src/gpio.c ****   /*Configure GPIO pins : PEPin PEPin PEPin */
  64:Core/Src/gpio.c ****   GPIO_InitStruct.Pin = KEY0_Pin|KEY1_Pin|KEY2_Pin;
 202              		.loc 1 64 3 view .LVU58
 203              		.loc 1 64 23 is_stmt 0 view .LVU59
 204 00d2 1C23     		movs	r3, #28
 205 00d4 0993     		str	r3, [sp, #36]
  65:Core/Src/gpio.c ****   GPIO_InitStruct.Mode = GPIO_MODE_INPUT;
 206              		.loc 1 65 3 is_stmt 1 view .LVU60
 207              		.loc 1 65 24 is_stmt 0 view .LVU61
 208 00d6 0A94     		str	r4, [sp, #40]
  66:Core/Src/gpio.c ****   GPIO_InitStruct.Pull = GPIO_NOPULL;
 209              		.loc 1 66 3 is_stmt 1 view .LVU62
 210              		.loc 1 66 24 is_stmt 0 view .LVU63
 211 00d8 0B94     		str	r4, [sp, #44]
  67:Core/Src/gpio.c ****   HAL_GPIO_Init(GPIOE, &GPIO_InitStruct);
 212              		.loc 1 67 3 is_stmt 1 view .LVU64
 213 00da 09A9     		add	r1, sp, #36
 214 00dc 3046     		mov	r0, r6
 215 00de FFF7FEFF 		bl	HAL_GPIO_Init
 216              	.LVL1:
  68:Core/Src/gpio.c **** 
  69:Core/Src/gpio.c ****   /*Configure GPIO pins : PE5 PE6 PE7 PE8
  70:Core/Src/gpio.c ****                            PE9 PE10 PE11 PE12
ARM GAS  C:\Users\Administrator\AppData\Local\Temp\cc9qZCNj.s 			page 6


  71:Core/Src/gpio.c ****                            PE13 PE14 PE15 */
  72:Core/Src/gpio.c ****   GPIO_InitStruct.Pin = GPIO_PIN_5|GPIO_PIN_6|GPIO_PIN_7|GPIO_PIN_8
 217              		.loc 1 72 3 view .LVU65
 218              		.loc 1 72 23 is_stmt 0 view .LVU66
 219 00e2 4FF6E073 		movw	r3, #65504
 220 00e6 0993     		str	r3, [sp, #36]
  73:Core/Src/gpio.c ****                           |GPIO_PIN_9|GPIO_PIN_10|GPIO_PIN_11|GPIO_PIN_12
  74:Core/Src/gpio.c ****                           |GPIO_PIN_13|GPIO_PIN_14|GPIO_PIN_15;
  75:Core/Src/gpio.c ****   GPIO_InitStruct.Mode = GPIO_MODE_ANALOG;
 221              		.loc 1 75 3 is_stmt 1 view .LVU67
 222              		.loc 1 75 24 is_stmt 0 view .LVU68
 223 00e8 0325     		movs	r5, #3
 224 00ea 0A95     		str	r5, [sp, #40]
  76:Core/Src/gpio.c ****   GPIO_InitStruct.Pull = GPIO_NOPULL;
 225              		.loc 1 76 3 is_stmt 1 view .LVU69
 226              		.loc 1 76 24 is_stmt 0 view .LVU70
 227 00ec 0B94     		str	r4, [sp, #44]
  77:Core/Src/gpio.c ****   HAL_GPIO_Init(GPIOE, &GPIO_InitStruct);
 228              		.loc 1 77 3 is_stmt 1 view .LVU71
 229 00ee 09A9     		add	r1, sp, #36
 230 00f0 3046     		mov	r0, r6
 231 00f2 FFF7FEFF 		bl	HAL_GPIO_Init
 232              	.LVL2:
  78:Core/Src/gpio.c **** 
  79:Core/Src/gpio.c ****   /*Configure GPIO pins : PI8 PI9 PI10 PI11
  80:Core/Src/gpio.c ****                            PI0 PI1 PI2 PI3
  81:Core/Src/gpio.c ****                            PI4 PI5 PI6 PI7 */
  82:Core/Src/gpio.c ****   GPIO_InitStruct.Pin = GPIO_PIN_8|GPIO_PIN_9|GPIO_PIN_10|GPIO_PIN_11
 233              		.loc 1 82 3 view .LVU72
 234              		.loc 1 82 23 is_stmt 0 view .LVU73
 235 00f6 40F6FF73 		movw	r3, #4095
 236 00fa 0993     		str	r3, [sp, #36]
  83:Core/Src/gpio.c ****                           |GPIO_PIN_0|GPIO_PIN_1|GPIO_PIN_2|GPIO_PIN_3
  84:Core/Src/gpio.c ****                           |GPIO_PIN_4|GPIO_PIN_5|GPIO_PIN_6|GPIO_PIN_7;
  85:Core/Src/gpio.c ****   GPIO_InitStruct.Mode = GPIO_MODE_ANALOG;
 237              		.loc 1 85 3 is_stmt 1 view .LVU74
 238              		.loc 1 85 24 is_stmt 0 view .LVU75
 239 00fc 0A95     		str	r5, [sp, #40]
  86:Core/Src/gpio.c ****   GPIO_InitStruct.Pull = GPIO_NOPULL;
 240              		.loc 1 86 3 is_stmt 1 view .LVU76
 241              		.loc 1 86 24 is_stmt 0 view .LVU77
 242 00fe 0B94     		str	r4, [sp, #44]
  87:Core/Src/gpio.c ****   HAL_GPIO_Init(GPIOI, &GPIO_InitStruct);
 243              		.loc 1 87 3 is_stmt 1 view .LVU78
 244 0100 09A9     		add	r1, sp, #36
 245 0102 2548     		ldr	r0, .L3+8
 246 0104 FFF7FEFF 		bl	HAL_GPIO_Init
 247              	.LVL3:
  88:Core/Src/gpio.c **** 
  89:Core/Src/gpio.c ****   /*Configure GPIO pins : PC13 PC14 PC15 PC0
  90:Core/Src/gpio.c ****                            PC1 PC2 PC3 PC4
  91:Core/Src/gpio.c ****                            PC5 PC6 PC7 PC8
  92:Core/Src/gpio.c ****                            PC9 PC10 PC11 PC12 */
  93:Core/Src/gpio.c ****   GPIO_InitStruct.Pin = GPIO_PIN_13|GPIO_PIN_14|GPIO_PIN_15|GPIO_PIN_0
 248              		.loc 1 93 3 view .LVU79
 249              		.loc 1 93 23 is_stmt 0 view .LVU80
 250 0108 4FF6FF77 		movw	r7, #65535
ARM GAS  C:\Users\Administrator\AppData\Local\Temp\cc9qZCNj.s 			page 7


 251 010c 0997     		str	r7, [sp, #36]
  94:Core/Src/gpio.c ****                           |GPIO_PIN_1|GPIO_PIN_2|GPIO_PIN_3|GPIO_PIN_4
  95:Core/Src/gpio.c ****                           |GPIO_PIN_5|GPIO_PIN_6|GPIO_PIN_7|GPIO_PIN_8
  96:Core/Src/gpio.c ****                           |GPIO_PIN_9|GPIO_PIN_10|GPIO_PIN_11|GPIO_PIN_12;
  97:Core/Src/gpio.c ****   GPIO_InitStruct.Mode = GPIO_MODE_ANALOG;
 252              		.loc 1 97 3 is_stmt 1 view .LVU81
 253              		.loc 1 97 24 is_stmt 0 view .LVU82
 254 010e 0A95     		str	r5, [sp, #40]
  98:Core/Src/gpio.c ****   GPIO_InitStruct.Pull = GPIO_NOPULL;
 255              		.loc 1 98 3 is_stmt 1 view .LVU83
 256              		.loc 1 98 24 is_stmt 0 view .LVU84
 257 0110 0B94     		str	r4, [sp, #44]
  99:Core/Src/gpio.c ****   HAL_GPIO_Init(GPIOC, &GPIO_InitStruct);
 258              		.loc 1 99 3 is_stmt 1 view .LVU85
 259 0112 09A9     		add	r1, sp, #36
 260 0114 2148     		ldr	r0, .L3+12
 261 0116 FFF7FEFF 		bl	HAL_GPIO_Init
 262              	.LVL4:
 100:Core/Src/gpio.c **** 
 101:Core/Src/gpio.c ****   /*Configure GPIO pins : PF0 PF1 PF2 PF3
 102:Core/Src/gpio.c ****                            PF4 PF5 PF6 PF7
 103:Core/Src/gpio.c ****                            PF8 PF9 PF10 PF11
 104:Core/Src/gpio.c ****                            PF12 PF13 PF14 PF15 */
 105:Core/Src/gpio.c ****   GPIO_InitStruct.Pin = GPIO_PIN_0|GPIO_PIN_1|GPIO_PIN_2|GPIO_PIN_3
 263              		.loc 1 105 3 view .LVU86
 264              		.loc 1 105 23 is_stmt 0 view .LVU87
 265 011a 0997     		str	r7, [sp, #36]
 106:Core/Src/gpio.c ****                           |GPIO_PIN_4|GPIO_PIN_5|GPIO_PIN_6|GPIO_PIN_7
 107:Core/Src/gpio.c ****                           |GPIO_PIN_8|GPIO_PIN_9|GPIO_PIN_10|GPIO_PIN_11
 108:Core/Src/gpio.c ****                           |GPIO_PIN_12|GPIO_PIN_13|GPIO_PIN_14|GPIO_PIN_15;
 109:Core/Src/gpio.c ****   GPIO_InitStruct.Mode = GPIO_MODE_ANALOG;
 266              		.loc 1 109 3 is_stmt 1 view .LVU88
 267              		.loc 1 109 24 is_stmt 0 view .LVU89
 268 011c 0A95     		str	r5, [sp, #40]
 110:Core/Src/gpio.c ****   GPIO_InitStruct.Pull = GPIO_NOPULL;
 269              		.loc 1 110 3 is_stmt 1 view .LVU90
 270              		.loc 1 110 24 is_stmt 0 view .LVU91
 271 011e 0B94     		str	r4, [sp, #44]
 111:Core/Src/gpio.c ****   HAL_GPIO_Init(GPIOF, &GPIO_InitStruct);
 272              		.loc 1 111 3 is_stmt 1 view .LVU92
 273 0120 09A9     		add	r1, sp, #36
 274 0122 1F48     		ldr	r0, .L3+16
 275 0124 FFF7FEFF 		bl	HAL_GPIO_Init
 276              	.LVL5:
 112:Core/Src/gpio.c **** 
 113:Core/Src/gpio.c ****   /*Configure GPIO pins : PA0 PA1 PA2 PA3
 114:Core/Src/gpio.c ****                            PA4 PA5 PA6 PA7
 115:Core/Src/gpio.c ****                            PA8 PA9 PA10 PA11
 116:Core/Src/gpio.c ****                            PA12 PA15 */
 117:Core/Src/gpio.c ****   GPIO_InitStruct.Pin = GPIO_PIN_0|GPIO_PIN_1|GPIO_PIN_2|GPIO_PIN_3
 277              		.loc 1 117 3 view .LVU93
 278              		.loc 1 117 23 is_stmt 0 view .LVU94
 279 0128 49F6FF73 		movw	r3, #40959
 280 012c 0993     		str	r3, [sp, #36]
 118:Core/Src/gpio.c ****                           |GPIO_PIN_4|GPIO_PIN_5|GPIO_PIN_6|GPIO_PIN_7
 119:Core/Src/gpio.c ****                           |GPIO_PIN_8|GPIO_PIN_9|GPIO_PIN_10|GPIO_PIN_11
 120:Core/Src/gpio.c ****                           |GPIO_PIN_12|GPIO_PIN_15;
ARM GAS  C:\Users\Administrator\AppData\Local\Temp\cc9qZCNj.s 			page 8


 121:Core/Src/gpio.c ****   GPIO_InitStruct.Mode = GPIO_MODE_ANALOG;
 281              		.loc 1 121 3 is_stmt 1 view .LVU95
 282              		.loc 1 121 24 is_stmt 0 view .LVU96
 283 012e 0A95     		str	r5, [sp, #40]
 122:Core/Src/gpio.c ****   GPIO_InitStruct.Pull = GPIO_NOPULL;
 284              		.loc 1 122 3 is_stmt 1 view .LVU97
 285              		.loc 1 122 24 is_stmt 0 view .LVU98
 286 0130 0B94     		str	r4, [sp, #44]
 123:Core/Src/gpio.c ****   HAL_GPIO_Init(GPIOA, &GPIO_InitStruct);
 287              		.loc 1 123 3 is_stmt 1 view .LVU99
 288 0132 09A9     		add	r1, sp, #36
 289 0134 1B48     		ldr	r0, .L3+20
 290 0136 FFF7FEFF 		bl	HAL_GPIO_Init
 291              	.LVL6:
 124:Core/Src/gpio.c **** 
 125:Core/Src/gpio.c ****   /*Configure GPIO pins : PH2 PH3 PH4 PH5
 126:Core/Src/gpio.c ****                            PH6 PH7 PH8 PH9
 127:Core/Src/gpio.c ****                            PH10 PH11 PH12 PH13
 128:Core/Src/gpio.c ****                            PH14 PH15 */
 129:Core/Src/gpio.c ****   GPIO_InitStruct.Pin = GPIO_PIN_2|GPIO_PIN_3|GPIO_PIN_4|GPIO_PIN_5
 292              		.loc 1 129 3 view .LVU100
 293              		.loc 1 129 23 is_stmt 0 view .LVU101
 294 013a 4FF6FC73 		movw	r3, #65532
 295 013e 0993     		str	r3, [sp, #36]
 130:Core/Src/gpio.c ****                           |GPIO_PIN_6|GPIO_PIN_7|GPIO_PIN_8|GPIO_PIN_9
 131:Core/Src/gpio.c ****                           |GPIO_PIN_10|GPIO_PIN_11|GPIO_PIN_12|GPIO_PIN_13
 132:Core/Src/gpio.c ****                           |GPIO_PIN_14|GPIO_PIN_15;
 133:Core/Src/gpio.c ****   GPIO_InitStruct.Mode = GPIO_MODE_ANALOG;
 296              		.loc 1 133 3 is_stmt 1 view .LVU102
 297              		.loc 1 133 24 is_stmt 0 view .LVU103
 298 0140 0A95     		str	r5, [sp, #40]
 134:Core/Src/gpio.c ****   GPIO_InitStruct.Pull = GPIO_NOPULL;
 299              		.loc 1 134 3 is_stmt 1 view .LVU104
 300              		.loc 1 134 24 is_stmt 0 view .LVU105
 301 0142 0B94     		str	r4, [sp, #44]
 135:Core/Src/gpio.c ****   HAL_GPIO_Init(GPIOH, &GPIO_InitStruct);
 302              		.loc 1 135 3 is_stmt 1 view .LVU106
 303 0144 09A9     		add	r1, sp, #36
 304 0146 1848     		ldr	r0, .L3+24
 305 0148 FFF7FEFF 		bl	HAL_GPIO_Init
 306              	.LVL7:
 136:Core/Src/gpio.c **** 
 137:Core/Src/gpio.c ****   /*Configure GPIO pins : PB0 PB1 PB2 PB10
 138:Core/Src/gpio.c ****                            PB11 PB12 PB13 PB14
 139:Core/Src/gpio.c ****                            PB15 PB3 PB4 PB5
 140:Core/Src/gpio.c ****                            PB8 PB9 */
 141:Core/Src/gpio.c ****   GPIO_InitStruct.Pin = GPIO_PIN_0|GPIO_PIN_1|GPIO_PIN_2|GPIO_PIN_10
 307              		.loc 1 141 3 view .LVU107
 308              		.loc 1 141 23 is_stmt 0 view .LVU108
 309 014c 4FF63F73 		movw	r3, #65343
 310 0150 0993     		str	r3, [sp, #36]
 142:Core/Src/gpio.c ****                           |GPIO_PIN_11|GPIO_PIN_12|GPIO_PIN_13|GPIO_PIN_14
 143:Core/Src/gpio.c ****                           |GPIO_PIN_15|GPIO_PIN_3|GPIO_PIN_4|GPIO_PIN_5
 144:Core/Src/gpio.c ****                           |GPIO_PIN_8|GPIO_PIN_9;
 145:Core/Src/gpio.c ****   GPIO_InitStruct.Mode = GPIO_MODE_ANALOG;
 311              		.loc 1 145 3 is_stmt 1 view .LVU109
 312              		.loc 1 145 24 is_stmt 0 view .LVU110
ARM GAS  C:\Users\Administrator\AppData\Local\Temp\cc9qZCNj.s 			page 9


 313 0152 0A95     		str	r5, [sp, #40]
 146:Core/Src/gpio.c ****   GPIO_InitStruct.Pull = GPIO_NOPULL;
 314              		.loc 1 146 3 is_stmt 1 view .LVU111
 315              		.loc 1 146 24 is_stmt 0 view .LVU112
 316 0154 0B94     		str	r4, [sp, #44]
 147:Core/Src/gpio.c ****   HAL_GPIO_Init(GPIOB, &GPIO_InitStruct);
 317              		.loc 1 147 3 is_stmt 1 view .LVU113
 318 0156 09A9     		add	r1, sp, #36
 319 0158 1448     		ldr	r0, .L3+28
 320 015a FFF7FEFF 		bl	HAL_GPIO_Init
 321              	.LVL8:
 148:Core/Src/gpio.c **** 
 149:Core/Src/gpio.c ****   /*Configure GPIO pins : PG0 PG1 PG2 PG3
 150:Core/Src/gpio.c ****                            PG4 PG5 PG6 PG7
 151:Core/Src/gpio.c ****                            PG8 PG9 PG10 PG11
 152:Core/Src/gpio.c ****                            PG12 PG13 PG14 PG15 */
 153:Core/Src/gpio.c ****   GPIO_InitStruct.Pin = GPIO_PIN_0|GPIO_PIN_1|GPIO_PIN_2|GPIO_PIN_3
 322              		.loc 1 153 3 view .LVU114
 323              		.loc 1 153 23 is_stmt 0 view .LVU115
 324 015e 0997     		str	r7, [sp, #36]
 154:Core/Src/gpio.c ****                           |GPIO_PIN_4|GPIO_PIN_5|GPIO_PIN_6|GPIO_PIN_7
 155:Core/Src/gpio.c ****                           |GPIO_PIN_8|GPIO_PIN_9|GPIO_PIN_10|GPIO_PIN_11
 156:Core/Src/gpio.c ****                           |GPIO_PIN_12|GPIO_PIN_13|GPIO_PIN_14|GPIO_PIN_15;
 157:Core/Src/gpio.c ****   GPIO_InitStruct.Mode = GPIO_MODE_ANALOG;
 325              		.loc 1 157 3 is_stmt 1 view .LVU116
 326              		.loc 1 157 24 is_stmt 0 view .LVU117
 327 0160 0A95     		str	r5, [sp, #40]
 158:Core/Src/gpio.c ****   GPIO_InitStruct.Pull = GPIO_NOPULL;
 328              		.loc 1 158 3 is_stmt 1 view .LVU118
 329              		.loc 1 158 24 is_stmt 0 view .LVU119
 330 0162 0B94     		str	r4, [sp, #44]
 159:Core/Src/gpio.c ****   HAL_GPIO_Init(GPIOG, &GPIO_InitStruct);
 331              		.loc 1 159 3 is_stmt 1 view .LVU120
 332 0164 09A9     		add	r1, sp, #36
 333 0166 1248     		ldr	r0, .L3+32
 334 0168 FFF7FEFF 		bl	HAL_GPIO_Init
 335              	.LVL9:
 160:Core/Src/gpio.c **** 
 161:Core/Src/gpio.c ****   /*Configure GPIO pins : PD8 PD9 PD10 PD11
 162:Core/Src/gpio.c ****                            PD12 PD13 PD14 PD15
 163:Core/Src/gpio.c ****                            PD0 PD1 PD2 PD3
 164:Core/Src/gpio.c ****                            PD4 PD5 PD6 PD7 */
 165:Core/Src/gpio.c ****   GPIO_InitStruct.Pin = GPIO_PIN_8|GPIO_PIN_9|GPIO_PIN_10|GPIO_PIN_11
 336              		.loc 1 165 3 view .LVU121
 337              		.loc 1 165 23 is_stmt 0 view .LVU122
 338 016c 0997     		str	r7, [sp, #36]
 166:Core/Src/gpio.c ****                           |GPIO_PIN_12|GPIO_PIN_13|GPIO_PIN_14|GPIO_PIN_15
 167:Core/Src/gpio.c ****                           |GPIO_PIN_0|GPIO_PIN_1|GPIO_PIN_2|GPIO_PIN_3
 168:Core/Src/gpio.c ****                           |GPIO_PIN_4|GPIO_PIN_5|GPIO_PIN_6|GPIO_PIN_7;
 169:Core/Src/gpio.c ****   GPIO_InitStruct.Mode = GPIO_MODE_ANALOG;
 339              		.loc 1 169 3 is_stmt 1 view .LVU123
 340              		.loc 1 169 24 is_stmt 0 view .LVU124
 341 016e 0A95     		str	r5, [sp, #40]
 170:Core/Src/gpio.c ****   GPIO_InitStruct.Pull = GPIO_NOPULL;
 342              		.loc 1 170 3 is_stmt 1 view .LVU125
 343              		.loc 1 170 24 is_stmt 0 view .LVU126
 344 0170 0B94     		str	r4, [sp, #44]
ARM GAS  C:\Users\Administrator\AppData\Local\Temp\cc9qZCNj.s 			page 10


 171:Core/Src/gpio.c ****   HAL_GPIO_Init(GPIOD, &GPIO_InitStruct);
 345              		.loc 1 171 3 is_stmt 1 view .LVU127
 346 0172 09A9     		add	r1, sp, #36
 347 0174 0F48     		ldr	r0, .L3+36
 348 0176 FFF7FEFF 		bl	HAL_GPIO_Init
 349              	.LVL10:
 172:Core/Src/gpio.c **** 
 173:Core/Src/gpio.c ****   /*Configure GPIO pins : PEPin PEPin */
 174:Core/Src/gpio.c ****   GPIO_InitStruct.Pin = LED0_Pin|LED1_Pin;
 350              		.loc 1 174 3 view .LVU128
 351              		.loc 1 174 23 is_stmt 0 view .LVU129
 352 017a 0995     		str	r5, [sp, #36]
 175:Core/Src/gpio.c ****   GPIO_InitStruct.Mode = GPIO_MODE_OUTPUT_PP;
 353              		.loc 1 175 3 is_stmt 1 view .LVU130
 354              		.loc 1 175 24 is_stmt 0 view .LVU131
 355 017c 0123     		movs	r3, #1
 356 017e 0A93     		str	r3, [sp, #40]
 176:Core/Src/gpio.c ****   GPIO_InitStruct.Pull = GPIO_NOPULL;
 357              		.loc 1 176 3 is_stmt 1 view .LVU132
 358              		.loc 1 176 24 is_stmt 0 view .LVU133
 359 0180 0B94     		str	r4, [sp, #44]
 177:Core/Src/gpio.c ****   GPIO_InitStruct.Speed = GPIO_SPEED_FREQ_LOW;
 360              		.loc 1 177 3 is_stmt 1 view .LVU134
 361              		.loc 1 177 25 is_stmt 0 view .LVU135
 362 0182 0C94     		str	r4, [sp, #48]
 178:Core/Src/gpio.c ****   HAL_GPIO_Init(GPIOE, &GPIO_InitStruct);
 363              		.loc 1 178 3 is_stmt 1 view .LVU136
 364 0184 09A9     		add	r1, sp, #36
 365 0186 3046     		mov	r0, r6
 366 0188 FFF7FEFF 		bl	HAL_GPIO_Init
 367              	.LVL11:
 179:Core/Src/gpio.c **** 
 180:Core/Src/gpio.c **** }
 368              		.loc 1 180 1 is_stmt 0 view .LVU137
 369 018c 0FB0     		add	sp, sp, #60
 370              	.LCFI2:
 371              		.cfi_def_cfa_offset 20
 372              		@ sp needed
 373 018e F0BD     		pop	{r4, r5, r6, r7, pc}
 374              	.L4:
 375              		.align	2
 376              	.L3:
 377 0190 00380240 		.word	1073887232
 378 0194 00100240 		.word	1073876992
 379 0198 00200240 		.word	1073881088
 380 019c 00080240 		.word	1073874944
 381 01a0 00140240 		.word	1073878016
 382 01a4 00000240 		.word	1073872896
 383 01a8 001C0240 		.word	1073880064
 384 01ac 00040240 		.word	1073873920
 385 01b0 00180240 		.word	1073879040
 386 01b4 000C0240 		.word	1073875968
 387              		.cfi_endproc
 388              	.LFE130:
 390              		.text
 391              	.Letext0:
 392              		.file 2 "c:\\gcc-arm-none-eabi-10-2020-q4-major\\arm-none-eabi\\include\\machine\\_default_types.h
ARM GAS  C:\Users\Administrator\AppData\Local\Temp\cc9qZCNj.s 			page 11


 393              		.file 3 "c:\\gcc-arm-none-eabi-10-2020-q4-major\\arm-none-eabi\\include\\sys\\_stdint.h"
 394              		.file 4 "Drivers/CMSIS/Device/ST/STM32F4xx/Include/stm32f407xx.h"
 395              		.file 5 "Drivers/STM32F4xx_HAL_Driver/Inc/stm32f4xx_hal_gpio.h"
ARM GAS  C:\Users\Administrator\AppData\Local\Temp\cc9qZCNj.s 			page 12


DEFINED SYMBOLS
                            *ABS*:00000000 gpio.c
C:\Users\Administrator\AppData\Local\Temp\cc9qZCNj.s:16     .text.MX_GPIO_Init:00000000 $t
C:\Users\Administrator\AppData\Local\Temp\cc9qZCNj.s:24     .text.MX_GPIO_Init:00000000 MX_GPIO_Init
C:\Users\Administrator\AppData\Local\Temp\cc9qZCNj.s:377    .text.MX_GPIO_Init:00000190 $d

UNDEFINED SYMBOLS
HAL_GPIO_WritePin
HAL_GPIO_Init
