ARM GAS  C:\Users\Administrator\AppData\Local\Temp\ccwcq5qk.s 			page 1


   1              		.cpu cortex-m4
   2              		.eabi_attribute 20, 1
   3              		.eabi_attribute 21, 1
   4              		.eabi_attribute 23, 3
   5              		.eabi_attribute 24, 1
   6              		.eabi_attribute 25, 1
   7              		.eabi_attribute 26, 1
   8              		.eabi_attribute 30, 1
   9              		.eabi_attribute 34, 1
  10              		.eabi_attribute 18, 4
  11              		.file	"idle.c"
  12              		.text
  13              	.Ltext0:
  14              		.cfi_sections	.debug_frame
  15              		.section	.text.rt_thread_idle_sethook,"ax",%progbits
  16              		.align	1
  17              		.global	rt_thread_idle_sethook
  18              		.arch armv7e-m
  19              		.syntax unified
  20              		.thumb
  21              		.thumb_func
  22              		.fpu softvfp
  24              	rt_thread_idle_sethook:
  25              	.LVL0:
  26              	.LFB15:
  27              		.file 1 "Middlewares/Third_Party/RealThread_RTOS/src/idle.c"
   1:Middlewares/Third_Party/RealThread_RTOS/src/idle.c **** /*
   2:Middlewares/Third_Party/RealThread_RTOS/src/idle.c ****  * Copyright (c) 2006-2021, RT-Thread Development Team
   3:Middlewares/Third_Party/RealThread_RTOS/src/idle.c ****  *
   4:Middlewares/Third_Party/RealThread_RTOS/src/idle.c ****  * SPDX-License-Identifier: Apache-2.0
   5:Middlewares/Third_Party/RealThread_RTOS/src/idle.c ****  *
   6:Middlewares/Third_Party/RealThread_RTOS/src/idle.c ****  * Change Logs:
   7:Middlewares/Third_Party/RealThread_RTOS/src/idle.c ****  * Date           Author       Notes
   8:Middlewares/Third_Party/RealThread_RTOS/src/idle.c ****  * 2006-03-23     Bernard      the first version
   9:Middlewares/Third_Party/RealThread_RTOS/src/idle.c ****  * 2010-11-10     Bernard      add cleanup callback function in thread exit.
  10:Middlewares/Third_Party/RealThread_RTOS/src/idle.c ****  * 2012-12-29     Bernard      fix compiling warning.
  11:Middlewares/Third_Party/RealThread_RTOS/src/idle.c ****  * 2013-12-21     Grissiom     let rt_thread_idle_excute loop until there is no
  12:Middlewares/Third_Party/RealThread_RTOS/src/idle.c ****  *                             dead thread.
  13:Middlewares/Third_Party/RealThread_RTOS/src/idle.c ****  * 2016-08-09     ArdaFu       add method to get the handler of the idle thread.
  14:Middlewares/Third_Party/RealThread_RTOS/src/idle.c ****  * 2018-02-07     Bernard      lock scheduler to protect tid->cleanup.
  15:Middlewares/Third_Party/RealThread_RTOS/src/idle.c ****  * 2018-07-14     armink       add idle hook list
  16:Middlewares/Third_Party/RealThread_RTOS/src/idle.c ****  * 2018-11-22     Jesven       add per cpu idle task
  17:Middlewares/Third_Party/RealThread_RTOS/src/idle.c ****  *                             combine the code of primary and secondary cpu
  18:Middlewares/Third_Party/RealThread_RTOS/src/idle.c ****  */
  19:Middlewares/Third_Party/RealThread_RTOS/src/idle.c **** 
  20:Middlewares/Third_Party/RealThread_RTOS/src/idle.c **** #include <rthw.h>
  21:Middlewares/Third_Party/RealThread_RTOS/src/idle.c **** #include <rtthread.h>
  22:Middlewares/Third_Party/RealThread_RTOS/src/idle.c **** 
  23:Middlewares/Third_Party/RealThread_RTOS/src/idle.c **** #if defined (RT_USING_HOOK)
  24:Middlewares/Third_Party/RealThread_RTOS/src/idle.c **** #ifndef RT_USING_IDLE_HOOK
  25:Middlewares/Third_Party/RealThread_RTOS/src/idle.c **** #define RT_USING_IDLE_HOOK
  26:Middlewares/Third_Party/RealThread_RTOS/src/idle.c **** #endif
  27:Middlewares/Third_Party/RealThread_RTOS/src/idle.c **** #endif
  28:Middlewares/Third_Party/RealThread_RTOS/src/idle.c **** 
  29:Middlewares/Third_Party/RealThread_RTOS/src/idle.c **** #ifndef IDLE_THREAD_STACK_SIZE
  30:Middlewares/Third_Party/RealThread_RTOS/src/idle.c **** #if defined (RT_USING_IDLE_HOOK) || defined(RT_USING_HEAP)
  31:Middlewares/Third_Party/RealThread_RTOS/src/idle.c **** #define IDLE_THREAD_STACK_SIZE  256
ARM GAS  C:\Users\Administrator\AppData\Local\Temp\ccwcq5qk.s 			page 2


  32:Middlewares/Third_Party/RealThread_RTOS/src/idle.c **** #else
  33:Middlewares/Third_Party/RealThread_RTOS/src/idle.c **** #define IDLE_THREAD_STACK_SIZE  128
  34:Middlewares/Third_Party/RealThread_RTOS/src/idle.c **** #endif
  35:Middlewares/Third_Party/RealThread_RTOS/src/idle.c **** #endif
  36:Middlewares/Third_Party/RealThread_RTOS/src/idle.c **** 
  37:Middlewares/Third_Party/RealThread_RTOS/src/idle.c **** extern rt_list_t rt_thread_defunct;
  38:Middlewares/Third_Party/RealThread_RTOS/src/idle.c **** 
  39:Middlewares/Third_Party/RealThread_RTOS/src/idle.c **** static struct rt_thread idle;
  40:Middlewares/Third_Party/RealThread_RTOS/src/idle.c **** ALIGN(RT_ALIGN_SIZE)
  41:Middlewares/Third_Party/RealThread_RTOS/src/idle.c **** static rt_uint8_t rt_thread_stack[IDLE_THREAD_STACK_SIZE];
  42:Middlewares/Third_Party/RealThread_RTOS/src/idle.c **** 
  43:Middlewares/Third_Party/RealThread_RTOS/src/idle.c **** #ifdef RT_USING_IDLE_HOOK
  44:Middlewares/Third_Party/RealThread_RTOS/src/idle.c **** #ifndef RT_IDLE_HOOK_LIST_SIZE
  45:Middlewares/Third_Party/RealThread_RTOS/src/idle.c **** #define RT_IDLE_HOOK_LIST_SIZE  4
  46:Middlewares/Third_Party/RealThread_RTOS/src/idle.c **** #endif
  47:Middlewares/Third_Party/RealThread_RTOS/src/idle.c **** 
  48:Middlewares/Third_Party/RealThread_RTOS/src/idle.c **** static void (*idle_hook_list[RT_IDLE_HOOK_LIST_SIZE])(void);
  49:Middlewares/Third_Party/RealThread_RTOS/src/idle.c **** 
  50:Middlewares/Third_Party/RealThread_RTOS/src/idle.c **** /**
  51:Middlewares/Third_Party/RealThread_RTOS/src/idle.c ****  * @ingroup Hook
  52:Middlewares/Third_Party/RealThread_RTOS/src/idle.c ****  * This function sets a hook function to idle thread loop. When the system performs
  53:Middlewares/Third_Party/RealThread_RTOS/src/idle.c ****  * idle loop, this hook function should be invoked.
  54:Middlewares/Third_Party/RealThread_RTOS/src/idle.c ****  *
  55:Middlewares/Third_Party/RealThread_RTOS/src/idle.c ****  * @param hook the specified hook function
  56:Middlewares/Third_Party/RealThread_RTOS/src/idle.c ****  *
  57:Middlewares/Third_Party/RealThread_RTOS/src/idle.c ****  * @return RT_EOK: set OK
  58:Middlewares/Third_Party/RealThread_RTOS/src/idle.c ****  *         -RT_EFULL: hook list is full
  59:Middlewares/Third_Party/RealThread_RTOS/src/idle.c ****  *
  60:Middlewares/Third_Party/RealThread_RTOS/src/idle.c ****  * @note the hook function must be simple and never be blocked or suspend.
  61:Middlewares/Third_Party/RealThread_RTOS/src/idle.c ****  */
  62:Middlewares/Third_Party/RealThread_RTOS/src/idle.c **** rt_err_t rt_thread_idle_sethook(void (*hook)(void))
  63:Middlewares/Third_Party/RealThread_RTOS/src/idle.c **** {
  28              		.loc 1 63 1 view -0
  29              		.cfi_startproc
  30              		@ args = 0, pretend = 0, frame = 0
  31              		@ frame_needed = 0, uses_anonymous_args = 0
  32              		.loc 1 63 1 is_stmt 0 view .LVU1
  33 0000 10B5     		push	{r4, lr}
  34              	.LCFI0:
  35              		.cfi_def_cfa_offset 8
  36              		.cfi_offset 4, -8
  37              		.cfi_offset 14, -4
  38 0002 0446     		mov	r4, r0
  64:Middlewares/Third_Party/RealThread_RTOS/src/idle.c ****     rt_size_t i;
  39              		.loc 1 64 5 is_stmt 1 view .LVU2
  65:Middlewares/Third_Party/RealThread_RTOS/src/idle.c ****     rt_base_t level;
  40              		.loc 1 65 5 view .LVU3
  66:Middlewares/Third_Party/RealThread_RTOS/src/idle.c ****     rt_err_t ret = -RT_EFULL;
  41              		.loc 1 66 5 view .LVU4
  42              	.LVL1:
  67:Middlewares/Third_Party/RealThread_RTOS/src/idle.c **** 
  68:Middlewares/Third_Party/RealThread_RTOS/src/idle.c ****     /* disable interrupt */
  69:Middlewares/Third_Party/RealThread_RTOS/src/idle.c ****     level = rt_hw_interrupt_disable();
  43              		.loc 1 69 5 view .LVU5
  44              		.loc 1 69 13 is_stmt 0 view .LVU6
  45 0004 FFF7FEFF 		bl	rt_hw_interrupt_disable
  46              	.LVL2:
ARM GAS  C:\Users\Administrator\AppData\Local\Temp\ccwcq5qk.s 			page 3


  70:Middlewares/Third_Party/RealThread_RTOS/src/idle.c **** 
  71:Middlewares/Third_Party/RealThread_RTOS/src/idle.c ****     for (i = 0; i < RT_IDLE_HOOK_LIST_SIZE; i++)
  47              		.loc 1 71 5 is_stmt 1 view .LVU7
  48              		.loc 1 71 12 is_stmt 0 view .LVU8
  49 0008 0023     		movs	r3, #0
  50              	.LVL3:
  51              	.L2:
  52              		.loc 1 71 17 is_stmt 1 discriminator 1 view .LVU9
  53              		.loc 1 71 5 is_stmt 0 discriminator 1 view .LVU10
  54 000a 032B     		cmp	r3, #3
  55 000c 0AD8     		bhi	.L7
  72:Middlewares/Third_Party/RealThread_RTOS/src/idle.c ****     {
  73:Middlewares/Third_Party/RealThread_RTOS/src/idle.c ****         if (idle_hook_list[i] == RT_NULL)
  56              		.loc 1 73 9 is_stmt 1 view .LVU11
  57              		.loc 1 73 27 is_stmt 0 view .LVU12
  58 000e 084A     		ldr	r2, .L9
  59 0010 52F82320 		ldr	r2, [r2, r3, lsl #2]
  60              		.loc 1 73 12 view .LVU13
  61 0014 0AB1     		cbz	r2, .L8
  71:Middlewares/Third_Party/RealThread_RTOS/src/idle.c ****     {
  62              		.loc 1 71 45 is_stmt 1 discriminator 2 view .LVU14
  71:Middlewares/Third_Party/RealThread_RTOS/src/idle.c ****     {
  63              		.loc 1 71 46 is_stmt 0 discriminator 2 view .LVU15
  64 0016 0133     		adds	r3, r3, #1
  65              	.LVL4:
  71:Middlewares/Third_Party/RealThread_RTOS/src/idle.c ****     {
  66              		.loc 1 71 46 discriminator 2 view .LVU16
  67 0018 F7E7     		b	.L2
  68              	.L8:
  74:Middlewares/Third_Party/RealThread_RTOS/src/idle.c ****         {
  75:Middlewares/Third_Party/RealThread_RTOS/src/idle.c ****             idle_hook_list[i] = hook;
  69              		.loc 1 75 13 is_stmt 1 view .LVU17
  70              		.loc 1 75 31 is_stmt 0 view .LVU18
  71 001a 054A     		ldr	r2, .L9
  72 001c 42F82340 		str	r4, [r2, r3, lsl #2]
  76:Middlewares/Third_Party/RealThread_RTOS/src/idle.c ****             ret = RT_EOK;
  73              		.loc 1 76 13 is_stmt 1 view .LVU19
  74              	.LVL5:
  77:Middlewares/Third_Party/RealThread_RTOS/src/idle.c ****             break;
  75              		.loc 1 77 13 view .LVU20
  76:Middlewares/Third_Party/RealThread_RTOS/src/idle.c ****             ret = RT_EOK;
  76              		.loc 1 76 17 is_stmt 0 view .LVU21
  77 0020 0024     		movs	r4, #0
  78              	.LVL6:
  79              		.loc 1 77 13 view .LVU22
  80 0022 01E0     		b	.L4
  81              	.LVL7:
  82              	.L7:
  66:Middlewares/Third_Party/RealThread_RTOS/src/idle.c **** 
  83              		.loc 1 66 14 view .LVU23
  84 0024 6FF00204 		mvn	r4, #2
  85              	.LVL8:
  86              	.L4:
  78:Middlewares/Third_Party/RealThread_RTOS/src/idle.c ****         }
  79:Middlewares/Third_Party/RealThread_RTOS/src/idle.c ****     }
  80:Middlewares/Third_Party/RealThread_RTOS/src/idle.c ****     /* enable interrupt */
  81:Middlewares/Third_Party/RealThread_RTOS/src/idle.c ****     rt_hw_interrupt_enable(level);
ARM GAS  C:\Users\Administrator\AppData\Local\Temp\ccwcq5qk.s 			page 4


  87              		.loc 1 81 5 is_stmt 1 view .LVU24
  88 0028 FFF7FEFF 		bl	rt_hw_interrupt_enable
  89              	.LVL9:
  82:Middlewares/Third_Party/RealThread_RTOS/src/idle.c **** 
  83:Middlewares/Third_Party/RealThread_RTOS/src/idle.c ****     return ret;
  90              		.loc 1 83 5 view .LVU25
  84:Middlewares/Third_Party/RealThread_RTOS/src/idle.c **** }
  91              		.loc 1 84 1 is_stmt 0 view .LVU26
  92 002c 2046     		mov	r0, r4
  93 002e 10BD     		pop	{r4, pc}
  94              	.LVL10:
  95              	.L10:
  96              		.loc 1 84 1 view .LVU27
  97              		.align	2
  98              	.L9:
  99 0030 00000000 		.word	.LANCHOR0
 100              		.cfi_endproc
 101              	.LFE15:
 103              		.section	.text.rt_thread_idle_delhook,"ax",%progbits
 104              		.align	1
 105              		.global	rt_thread_idle_delhook
 106              		.syntax unified
 107              		.thumb
 108              		.thumb_func
 109              		.fpu softvfp
 111              	rt_thread_idle_delhook:
 112              	.LVL11:
 113              	.LFB16:
  85:Middlewares/Third_Party/RealThread_RTOS/src/idle.c **** 
  86:Middlewares/Third_Party/RealThread_RTOS/src/idle.c **** /**
  87:Middlewares/Third_Party/RealThread_RTOS/src/idle.c ****  * delete the idle hook on hook list
  88:Middlewares/Third_Party/RealThread_RTOS/src/idle.c ****  *
  89:Middlewares/Third_Party/RealThread_RTOS/src/idle.c ****  * @param hook the specified hook function
  90:Middlewares/Third_Party/RealThread_RTOS/src/idle.c ****  *
  91:Middlewares/Third_Party/RealThread_RTOS/src/idle.c ****  * @return RT_EOK: delete OK
  92:Middlewares/Third_Party/RealThread_RTOS/src/idle.c ****  *         -RT_ENOSYS: hook was not found
  93:Middlewares/Third_Party/RealThread_RTOS/src/idle.c ****  */
  94:Middlewares/Third_Party/RealThread_RTOS/src/idle.c **** rt_err_t rt_thread_idle_delhook(void (*hook)(void))
  95:Middlewares/Third_Party/RealThread_RTOS/src/idle.c **** {
 114              		.loc 1 95 1 is_stmt 1 view -0
 115              		.cfi_startproc
 116              		@ args = 0, pretend = 0, frame = 0
 117              		@ frame_needed = 0, uses_anonymous_args = 0
 118              		.loc 1 95 1 is_stmt 0 view .LVU29
 119 0000 10B5     		push	{r4, lr}
 120              	.LCFI1:
 121              		.cfi_def_cfa_offset 8
 122              		.cfi_offset 4, -8
 123              		.cfi_offset 14, -4
 124 0002 0446     		mov	r4, r0
  96:Middlewares/Third_Party/RealThread_RTOS/src/idle.c ****     rt_size_t i;
 125              		.loc 1 96 5 is_stmt 1 view .LVU30
  97:Middlewares/Third_Party/RealThread_RTOS/src/idle.c ****     rt_base_t level;
 126              		.loc 1 97 5 view .LVU31
  98:Middlewares/Third_Party/RealThread_RTOS/src/idle.c ****     rt_err_t ret = -RT_ENOSYS;
 127              		.loc 1 98 5 view .LVU32
 128              	.LVL12:
ARM GAS  C:\Users\Administrator\AppData\Local\Temp\ccwcq5qk.s 			page 5


  99:Middlewares/Third_Party/RealThread_RTOS/src/idle.c **** 
 100:Middlewares/Third_Party/RealThread_RTOS/src/idle.c ****     /* disable interrupt */
 101:Middlewares/Third_Party/RealThread_RTOS/src/idle.c ****     level = rt_hw_interrupt_disable();
 129              		.loc 1 101 5 view .LVU33
 130              		.loc 1 101 13 is_stmt 0 view .LVU34
 131 0004 FFF7FEFF 		bl	rt_hw_interrupt_disable
 132              	.LVL13:
 102:Middlewares/Third_Party/RealThread_RTOS/src/idle.c **** 
 103:Middlewares/Third_Party/RealThread_RTOS/src/idle.c ****     for (i = 0; i < RT_IDLE_HOOK_LIST_SIZE; i++)
 133              		.loc 1 103 5 is_stmt 1 view .LVU35
 134              		.loc 1 103 12 is_stmt 0 view .LVU36
 135 0008 0023     		movs	r3, #0
 136              	.LVL14:
 137              	.L12:
 138              		.loc 1 103 17 is_stmt 1 discriminator 1 view .LVU37
 139              		.loc 1 103 5 is_stmt 0 discriminator 1 view .LVU38
 140 000a 032B     		cmp	r3, #3
 141 000c 0BD8     		bhi	.L17
 104:Middlewares/Third_Party/RealThread_RTOS/src/idle.c ****     {
 105:Middlewares/Third_Party/RealThread_RTOS/src/idle.c ****         if (idle_hook_list[i] == hook)
 142              		.loc 1 105 9 is_stmt 1 view .LVU39
 143              		.loc 1 105 27 is_stmt 0 view .LVU40
 144 000e 094A     		ldr	r2, .L19
 145 0010 52F82320 		ldr	r2, [r2, r3, lsl #2]
 146              		.loc 1 105 12 view .LVU41
 147 0014 A242     		cmp	r2, r4
 148 0016 01D0     		beq	.L18
 103:Middlewares/Third_Party/RealThread_RTOS/src/idle.c ****     {
 149              		.loc 1 103 45 is_stmt 1 discriminator 2 view .LVU42
 103:Middlewares/Third_Party/RealThread_RTOS/src/idle.c ****     {
 150              		.loc 1 103 46 is_stmt 0 discriminator 2 view .LVU43
 151 0018 0133     		adds	r3, r3, #1
 152              	.LVL15:
 103:Middlewares/Third_Party/RealThread_RTOS/src/idle.c ****     {
 153              		.loc 1 103 46 discriminator 2 view .LVU44
 154 001a F6E7     		b	.L12
 155              	.L18:
 106:Middlewares/Third_Party/RealThread_RTOS/src/idle.c ****         {
 107:Middlewares/Third_Party/RealThread_RTOS/src/idle.c ****             idle_hook_list[i] = RT_NULL;
 156              		.loc 1 107 13 is_stmt 1 view .LVU45
 157              		.loc 1 107 31 is_stmt 0 view .LVU46
 158 001c 0024     		movs	r4, #0
 159              	.LVL16:
 160              		.loc 1 107 31 view .LVU47
 161 001e 054A     		ldr	r2, .L19
 162 0020 42F82340 		str	r4, [r2, r3, lsl #2]
 108:Middlewares/Third_Party/RealThread_RTOS/src/idle.c ****             ret = RT_EOK;
 163              		.loc 1 108 13 is_stmt 1 view .LVU48
 164              	.LVL17:
 109:Middlewares/Third_Party/RealThread_RTOS/src/idle.c ****             break;
 165              		.loc 1 109 13 view .LVU49
 166 0024 01E0     		b	.L14
 167              	.LVL18:
 168              	.L17:
  98:Middlewares/Third_Party/RealThread_RTOS/src/idle.c **** 
 169              		.loc 1 98 14 is_stmt 0 view .LVU50
 170 0026 6FF00504 		mvn	r4, #5
ARM GAS  C:\Users\Administrator\AppData\Local\Temp\ccwcq5qk.s 			page 6


 171              	.LVL19:
 172              	.L14:
 110:Middlewares/Third_Party/RealThread_RTOS/src/idle.c ****         }
 111:Middlewares/Third_Party/RealThread_RTOS/src/idle.c ****     }
 112:Middlewares/Third_Party/RealThread_RTOS/src/idle.c ****     /* enable interrupt */
 113:Middlewares/Third_Party/RealThread_RTOS/src/idle.c ****     rt_hw_interrupt_enable(level);
 173              		.loc 1 113 5 is_stmt 1 view .LVU51
 174 002a FFF7FEFF 		bl	rt_hw_interrupt_enable
 175              	.LVL20:
 114:Middlewares/Third_Party/RealThread_RTOS/src/idle.c **** 
 115:Middlewares/Third_Party/RealThread_RTOS/src/idle.c ****     return ret;
 176              		.loc 1 115 5 view .LVU52
 116:Middlewares/Third_Party/RealThread_RTOS/src/idle.c **** }
 177              		.loc 1 116 1 is_stmt 0 view .LVU53
 178 002e 2046     		mov	r0, r4
 179 0030 10BD     		pop	{r4, pc}
 180              	.LVL21:
 181              	.L20:
 182              		.loc 1 116 1 view .LVU54
 183 0032 00BF     		.align	2
 184              	.L19:
 185 0034 00000000 		.word	.LANCHOR0
 186              		.cfi_endproc
 187              	.LFE16:
 189              		.section	.rodata.rt_thread_idle_excute.str1.4,"aMS",%progbits,1
 190              		.align	2
 191              	.LC0:
 192 0000 46756E63 		.ascii	"Function[%s] shall not be used in ISR\012\000"
 192      74696F6E 
 192      5B25735D 
 192      20736861 
 192      6C6C206E 
 193 0027 00       		.align	2
 194              	.LC1:
 195 0028 3000     		.ascii	"0\000"
 196              		.section	.text.rt_thread_idle_excute,"ax",%progbits
 197              		.align	1
 198              		.global	rt_thread_idle_excute
 199              		.syntax unified
 200              		.thumb
 201              		.thumb_func
 202              		.fpu softvfp
 204              	rt_thread_idle_excute:
 205              	.LFB18:
 117:Middlewares/Third_Party/RealThread_RTOS/src/idle.c **** 
 118:Middlewares/Third_Party/RealThread_RTOS/src/idle.c **** #endif
 119:Middlewares/Third_Party/RealThread_RTOS/src/idle.c **** 
 120:Middlewares/Third_Party/RealThread_RTOS/src/idle.c **** #ifdef RT_USING_HEAP
 121:Middlewares/Third_Party/RealThread_RTOS/src/idle.c **** /* Return whether there is defunctional thread to be deleted. */
 122:Middlewares/Third_Party/RealThread_RTOS/src/idle.c **** rt_inline int _has_defunct_thread(void)
 123:Middlewares/Third_Party/RealThread_RTOS/src/idle.c **** {
 124:Middlewares/Third_Party/RealThread_RTOS/src/idle.c ****     /* The rt_list_isempty has prototype of "int rt_list_isempty(const rt_list_t *l)".
 125:Middlewares/Third_Party/RealThread_RTOS/src/idle.c ****      * So the compiler has a good reason that the rt_thread_defunct list does
 126:Middlewares/Third_Party/RealThread_RTOS/src/idle.c ****      * not change within rt_thread_idle_excute thus optimize the "while" loop
 127:Middlewares/Third_Party/RealThread_RTOS/src/idle.c ****      * into a "if".
 128:Middlewares/Third_Party/RealThread_RTOS/src/idle.c ****      *
 129:Middlewares/Third_Party/RealThread_RTOS/src/idle.c ****      * So add the volatile qualifier here. */
ARM GAS  C:\Users\Administrator\AppData\Local\Temp\ccwcq5qk.s 			page 7


 130:Middlewares/Third_Party/RealThread_RTOS/src/idle.c ****     const volatile rt_list_t *l = (const volatile rt_list_t *)&rt_thread_defunct;
 131:Middlewares/Third_Party/RealThread_RTOS/src/idle.c **** 
 132:Middlewares/Third_Party/RealThread_RTOS/src/idle.c ****     return l->next != l;
 133:Middlewares/Third_Party/RealThread_RTOS/src/idle.c **** }
 134:Middlewares/Third_Party/RealThread_RTOS/src/idle.c **** #endif
 135:Middlewares/Third_Party/RealThread_RTOS/src/idle.c **** 
 136:Middlewares/Third_Party/RealThread_RTOS/src/idle.c **** /**
 137:Middlewares/Third_Party/RealThread_RTOS/src/idle.c ****  * @ingroup Thread
 138:Middlewares/Third_Party/RealThread_RTOS/src/idle.c ****  *
 139:Middlewares/Third_Party/RealThread_RTOS/src/idle.c ****  * This function will perform system background job when system idle.
 140:Middlewares/Third_Party/RealThread_RTOS/src/idle.c ****  */
 141:Middlewares/Third_Party/RealThread_RTOS/src/idle.c **** void rt_thread_idle_excute(void)
 142:Middlewares/Third_Party/RealThread_RTOS/src/idle.c **** {
 206              		.loc 1 142 1 is_stmt 1 view -0
 207              		.cfi_startproc
 208              		@ args = 0, pretend = 0, frame = 0
 209              		@ frame_needed = 0, uses_anonymous_args = 0
 210 0000 38B5     		push	{r3, r4, r5, lr}
 211              	.LCFI2:
 212              		.cfi_def_cfa_offset 16
 213              		.cfi_offset 3, -16
 214              		.cfi_offset 4, -12
 215              		.cfi_offset 5, -8
 216              		.cfi_offset 14, -4
 143:Middlewares/Third_Party/RealThread_RTOS/src/idle.c ****     /* Loop until there is no dead thread. So one call to rt_thread_idle_excute
 144:Middlewares/Third_Party/RealThread_RTOS/src/idle.c ****      * will do all the cleanups. */
 145:Middlewares/Third_Party/RealThread_RTOS/src/idle.c ****     /* disable interrupt */
 146:Middlewares/Third_Party/RealThread_RTOS/src/idle.c **** 
 147:Middlewares/Third_Party/RealThread_RTOS/src/idle.c ****     RT_DEBUG_NOT_IN_INTERRUPT;
 217              		.loc 1 147 5 view .LVU56
 218              	.LBB8:
 219              		.loc 1 147 5 view .LVU57
 220              		.loc 1 147 5 view .LVU58
 221 0002 FFF7FEFF 		bl	rt_hw_interrupt_disable
 222              	.LVL22:
 223 0006 0446     		mov	r4, r0
 224              	.LVL23:
 225              		.loc 1 147 5 view .LVU59
 226 0008 FFF7FEFF 		bl	rt_interrupt_get_nest
 227              	.LVL24:
 228              		.loc 1 147 5 is_stmt 0 view .LVU60
 229 000c 18B9     		cbnz	r0, .L27
 230              	.L22:
 231              		.loc 1 147 5 is_stmt 1 discriminator 5 view .LVU61
 232 000e 2046     		mov	r0, r4
 233 0010 FFF7FEFF 		bl	rt_hw_interrupt_enable
 234              	.LVL25:
 235 0014 1EE0     		b	.L24
 236              	.L27:
 237              		.loc 1 147 5 discriminator 1 view .LVU62
 238 0016 144D     		ldr	r5, .L28
 239 0018 2946     		mov	r1, r5
 240 001a 1448     		ldr	r0, .L28+4
 241 001c FFF7FEFF 		bl	rt_kprintf
 242              	.LVL26:
 243              		.loc 1 147 5 discriminator 1 view .LVU63
 244              		.loc 1 147 5 discriminator 1 view .LVU64
ARM GAS  C:\Users\Administrator\AppData\Local\Temp\ccwcq5qk.s 			page 8


 245 0020 9322     		movs	r2, #147
 246 0022 2946     		mov	r1, r5
 247 0024 1248     		ldr	r0, .L28+8
 248 0026 FFF7FEFF 		bl	rt_assert_handler
 249              	.LVL27:
 250 002a F0E7     		b	.L22
 251              	.LVL28:
 252              	.L23:
 253              		.loc 1 147 5 is_stmt 0 discriminator 1 view .LVU65
 254              	.LBE8:
 255              	.LBB9:
 148:Middlewares/Third_Party/RealThread_RTOS/src/idle.c **** 
 149:Middlewares/Third_Party/RealThread_RTOS/src/idle.c **** #ifdef RT_USING_HEAP
 150:Middlewares/Third_Party/RealThread_RTOS/src/idle.c ****     while (1)
 151:Middlewares/Third_Party/RealThread_RTOS/src/idle.c ****     {
 152:Middlewares/Third_Party/RealThread_RTOS/src/idle.c ****         rt_base_t lock;
 153:Middlewares/Third_Party/RealThread_RTOS/src/idle.c ****         rt_thread_t thread;
 154:Middlewares/Third_Party/RealThread_RTOS/src/idle.c **** 
 155:Middlewares/Third_Party/RealThread_RTOS/src/idle.c ****         lock = rt_hw_interrupt_disable();
 156:Middlewares/Third_Party/RealThread_RTOS/src/idle.c **** 
 157:Middlewares/Third_Party/RealThread_RTOS/src/idle.c ****         /* check whether list is empty */
 158:Middlewares/Third_Party/RealThread_RTOS/src/idle.c ****         if (!_has_defunct_thread())
 159:Middlewares/Third_Party/RealThread_RTOS/src/idle.c ****         {
 160:Middlewares/Third_Party/RealThread_RTOS/src/idle.c ****             rt_hw_interrupt_enable(lock);
 161:Middlewares/Third_Party/RealThread_RTOS/src/idle.c ****             break;
 162:Middlewares/Third_Party/RealThread_RTOS/src/idle.c ****         }
 163:Middlewares/Third_Party/RealThread_RTOS/src/idle.c ****         /* get defunct thread */
 164:Middlewares/Third_Party/RealThread_RTOS/src/idle.c ****         thread = rt_list_entry(rt_thread_defunct.next,
 256              		.loc 1 164 9 is_stmt 1 view .LVU66
 257              		.loc 1 164 18 is_stmt 0 view .LVU67
 258 002c 114B     		ldr	r3, .L28+12
 259 002e 1B68     		ldr	r3, [r3]
 260              		.loc 1 164 16 view .LVU68
 261 0030 1D46     		mov	r5, r3
 262              	.LVL29:
 165:Middlewares/Third_Party/RealThread_RTOS/src/idle.c ****                 struct rt_thread,
 166:Middlewares/Third_Party/RealThread_RTOS/src/idle.c ****                 tlist);
 167:Middlewares/Third_Party/RealThread_RTOS/src/idle.c ****         /* remove defunct thread */
 168:Middlewares/Third_Party/RealThread_RTOS/src/idle.c ****         rt_list_remove(&(thread->tlist));
 263              		.loc 1 168 9 is_stmt 1 view .LVU69
 264              	.LBB10:
 265              	.LBI10:
 266              		.file 2 "Middlewares/Third_Party/RealThread_RTOS/include/rtservice.h"
   1:Middlewares/Third_Party/RealThread_RTOS/include/rtservice.h **** /*
   2:Middlewares/Third_Party/RealThread_RTOS/include/rtservice.h ****  * Copyright (c) 2006-2021, RT-Thread Development Team
   3:Middlewares/Third_Party/RealThread_RTOS/include/rtservice.h ****  *
   4:Middlewares/Third_Party/RealThread_RTOS/include/rtservice.h ****  * SPDX-License-Identifier: Apache-2.0
   5:Middlewares/Third_Party/RealThread_RTOS/include/rtservice.h ****  *
   6:Middlewares/Third_Party/RealThread_RTOS/include/rtservice.h ****  * Change Logs:
   7:Middlewares/Third_Party/RealThread_RTOS/include/rtservice.h ****  * Date           Author       Notes
   8:Middlewares/Third_Party/RealThread_RTOS/include/rtservice.h ****  * 2006-03-16     Bernard      the first version
   9:Middlewares/Third_Party/RealThread_RTOS/include/rtservice.h ****  * 2006-09-07     Bernard      move the kservice APIs to rtthread.h
  10:Middlewares/Third_Party/RealThread_RTOS/include/rtservice.h ****  * 2007-06-27     Bernard      fix the rt_list_remove bug
  11:Middlewares/Third_Party/RealThread_RTOS/include/rtservice.h ****  * 2012-03-22     Bernard      rename kservice.h to rtservice.h
  12:Middlewares/Third_Party/RealThread_RTOS/include/rtservice.h ****  * 2017-11-15     JasonJia     Modify rt_slist_foreach to rt_slist_for_each_entry.
  13:Middlewares/Third_Party/RealThread_RTOS/include/rtservice.h ****  *                             Make code cleanup.
  14:Middlewares/Third_Party/RealThread_RTOS/include/rtservice.h ****  */
ARM GAS  C:\Users\Administrator\AppData\Local\Temp\ccwcq5qk.s 			page 9


  15:Middlewares/Third_Party/RealThread_RTOS/include/rtservice.h **** 
  16:Middlewares/Third_Party/RealThread_RTOS/include/rtservice.h **** #ifndef __RT_SERVICE_H__
  17:Middlewares/Third_Party/RealThread_RTOS/include/rtservice.h **** #define __RT_SERVICE_H__
  18:Middlewares/Third_Party/RealThread_RTOS/include/rtservice.h **** 
  19:Middlewares/Third_Party/RealThread_RTOS/include/rtservice.h **** #ifdef __cplusplus
  20:Middlewares/Third_Party/RealThread_RTOS/include/rtservice.h **** extern "C" {
  21:Middlewares/Third_Party/RealThread_RTOS/include/rtservice.h **** #endif
  22:Middlewares/Third_Party/RealThread_RTOS/include/rtservice.h **** 
  23:Middlewares/Third_Party/RealThread_RTOS/include/rtservice.h **** /**
  24:Middlewares/Third_Party/RealThread_RTOS/include/rtservice.h ****  * @addtogroup KernelService
  25:Middlewares/Third_Party/RealThread_RTOS/include/rtservice.h ****  */
  26:Middlewares/Third_Party/RealThread_RTOS/include/rtservice.h **** 
  27:Middlewares/Third_Party/RealThread_RTOS/include/rtservice.h **** /**@{*/
  28:Middlewares/Third_Party/RealThread_RTOS/include/rtservice.h **** 
  29:Middlewares/Third_Party/RealThread_RTOS/include/rtservice.h **** /**
  30:Middlewares/Third_Party/RealThread_RTOS/include/rtservice.h ****  * rt_container_of - return the member address of ptr, if the type of ptr is the
  31:Middlewares/Third_Party/RealThread_RTOS/include/rtservice.h ****  * struct type.
  32:Middlewares/Third_Party/RealThread_RTOS/include/rtservice.h ****  */
  33:Middlewares/Third_Party/RealThread_RTOS/include/rtservice.h **** #define rt_container_of(ptr, type, member) \
  34:Middlewares/Third_Party/RealThread_RTOS/include/rtservice.h ****     ((type *)((char *)(ptr) - (unsigned long)(&((type *)0)->member)))
  35:Middlewares/Third_Party/RealThread_RTOS/include/rtservice.h **** 
  36:Middlewares/Third_Party/RealThread_RTOS/include/rtservice.h **** 
  37:Middlewares/Third_Party/RealThread_RTOS/include/rtservice.h **** /**
  38:Middlewares/Third_Party/RealThread_RTOS/include/rtservice.h ****  * @brief initialize a list object
  39:Middlewares/Third_Party/RealThread_RTOS/include/rtservice.h ****  */
  40:Middlewares/Third_Party/RealThread_RTOS/include/rtservice.h **** #define RT_LIST_OBJECT_INIT(object) { &(object), &(object) }
  41:Middlewares/Third_Party/RealThread_RTOS/include/rtservice.h **** 
  42:Middlewares/Third_Party/RealThread_RTOS/include/rtservice.h **** /**
  43:Middlewares/Third_Party/RealThread_RTOS/include/rtservice.h ****  * @brief initialize a list
  44:Middlewares/Third_Party/RealThread_RTOS/include/rtservice.h ****  *
  45:Middlewares/Third_Party/RealThread_RTOS/include/rtservice.h ****  * @param l list to be initialized
  46:Middlewares/Third_Party/RealThread_RTOS/include/rtservice.h ****  */
  47:Middlewares/Third_Party/RealThread_RTOS/include/rtservice.h **** rt_inline void rt_list_init(rt_list_t *l)
  48:Middlewares/Third_Party/RealThread_RTOS/include/rtservice.h **** {
  49:Middlewares/Third_Party/RealThread_RTOS/include/rtservice.h ****     l->next = l->prev = l;
  50:Middlewares/Third_Party/RealThread_RTOS/include/rtservice.h **** }
  51:Middlewares/Third_Party/RealThread_RTOS/include/rtservice.h **** 
  52:Middlewares/Third_Party/RealThread_RTOS/include/rtservice.h **** /**
  53:Middlewares/Third_Party/RealThread_RTOS/include/rtservice.h ****  * @brief insert a node after a list
  54:Middlewares/Third_Party/RealThread_RTOS/include/rtservice.h ****  *
  55:Middlewares/Third_Party/RealThread_RTOS/include/rtservice.h ****  * @param l list to insert it
  56:Middlewares/Third_Party/RealThread_RTOS/include/rtservice.h ****  * @param n new node to be inserted
  57:Middlewares/Third_Party/RealThread_RTOS/include/rtservice.h ****  */
  58:Middlewares/Third_Party/RealThread_RTOS/include/rtservice.h **** rt_inline void rt_list_insert_after(rt_list_t *l, rt_list_t *n)
  59:Middlewares/Third_Party/RealThread_RTOS/include/rtservice.h **** {
  60:Middlewares/Third_Party/RealThread_RTOS/include/rtservice.h ****     l->next->prev = n;
  61:Middlewares/Third_Party/RealThread_RTOS/include/rtservice.h ****     n->next = l->next;
  62:Middlewares/Third_Party/RealThread_RTOS/include/rtservice.h **** 
  63:Middlewares/Third_Party/RealThread_RTOS/include/rtservice.h ****     l->next = n;
  64:Middlewares/Third_Party/RealThread_RTOS/include/rtservice.h ****     n->prev = l;
  65:Middlewares/Third_Party/RealThread_RTOS/include/rtservice.h **** }
  66:Middlewares/Third_Party/RealThread_RTOS/include/rtservice.h **** 
  67:Middlewares/Third_Party/RealThread_RTOS/include/rtservice.h **** /**
  68:Middlewares/Third_Party/RealThread_RTOS/include/rtservice.h ****  * @brief insert a node before a list
  69:Middlewares/Third_Party/RealThread_RTOS/include/rtservice.h ****  *
  70:Middlewares/Third_Party/RealThread_RTOS/include/rtservice.h ****  * @param n new node to be inserted
  71:Middlewares/Third_Party/RealThread_RTOS/include/rtservice.h ****  * @param l list to insert it
ARM GAS  C:\Users\Administrator\AppData\Local\Temp\ccwcq5qk.s 			page 10


  72:Middlewares/Third_Party/RealThread_RTOS/include/rtservice.h ****  */
  73:Middlewares/Third_Party/RealThread_RTOS/include/rtservice.h **** rt_inline void rt_list_insert_before(rt_list_t *l, rt_list_t *n)
  74:Middlewares/Third_Party/RealThread_RTOS/include/rtservice.h **** {
  75:Middlewares/Third_Party/RealThread_RTOS/include/rtservice.h ****     l->prev->next = n;
  76:Middlewares/Third_Party/RealThread_RTOS/include/rtservice.h ****     n->prev = l->prev;
  77:Middlewares/Third_Party/RealThread_RTOS/include/rtservice.h **** 
  78:Middlewares/Third_Party/RealThread_RTOS/include/rtservice.h ****     l->prev = n;
  79:Middlewares/Third_Party/RealThread_RTOS/include/rtservice.h ****     n->next = l;
  80:Middlewares/Third_Party/RealThread_RTOS/include/rtservice.h **** }
  81:Middlewares/Third_Party/RealThread_RTOS/include/rtservice.h **** 
  82:Middlewares/Third_Party/RealThread_RTOS/include/rtservice.h **** /**
  83:Middlewares/Third_Party/RealThread_RTOS/include/rtservice.h ****  * @brief remove node from list.
  84:Middlewares/Third_Party/RealThread_RTOS/include/rtservice.h ****  * @param n the node to remove from the list.
  85:Middlewares/Third_Party/RealThread_RTOS/include/rtservice.h ****  */
  86:Middlewares/Third_Party/RealThread_RTOS/include/rtservice.h **** rt_inline void rt_list_remove(rt_list_t *n)
 267              		.loc 2 86 16 view .LVU70
 268              	.LBB11:
  87:Middlewares/Third_Party/RealThread_RTOS/include/rtservice.h **** {
  88:Middlewares/Third_Party/RealThread_RTOS/include/rtservice.h ****     n->next->prev = n->prev;
 269              		.loc 2 88 5 view .LVU71
 270              		.loc 2 88 6 is_stmt 0 view .LVU72
 271 0032 55F81419 		ldr	r1, [r5], #-20
 272              	.LVL30:
 273              		.loc 2 88 22 view .LVU73
 274 0036 5A68     		ldr	r2, [r3, #4]
 275              		.loc 2 88 19 view .LVU74
 276 0038 4A60     		str	r2, [r1, #4]
  89:Middlewares/Third_Party/RealThread_RTOS/include/rtservice.h ****     n->prev->next = n->next;
 277              		.loc 2 89 5 is_stmt 1 view .LVU75
 278              		.loc 2 89 22 is_stmt 0 view .LVU76
 279 003a 1968     		ldr	r1, [r3]
 280              		.loc 2 89 19 view .LVU77
 281 003c 1160     		str	r1, [r2]
  90:Middlewares/Third_Party/RealThread_RTOS/include/rtservice.h **** 
  91:Middlewares/Third_Party/RealThread_RTOS/include/rtservice.h ****     n->next = n->prev = n;
 282              		.loc 2 91 5 is_stmt 1 view .LVU78
 283              		.loc 2 91 23 is_stmt 0 view .LVU79
 284 003e 5B60     		str	r3, [r3, #4]
 285              		.loc 2 91 13 view .LVU80
 286 0040 1B60     		str	r3, [r3]
 287              	.LVL31:
 288              		.loc 2 91 13 view .LVU81
 289              	.LBE11:
 290              	.LBE10:
 169:Middlewares/Third_Party/RealThread_RTOS/src/idle.c ****         /* release thread's stack */
 170:Middlewares/Third_Party/RealThread_RTOS/src/idle.c ****         RT_KERNEL_FREE(thread->stack_addr);
 291              		.loc 1 170 9 is_stmt 1 view .LVU82
 292 0042 5869     		ldr	r0, [r3, #20]
 293              	.LVL32:
 294              		.loc 1 170 9 is_stmt 0 view .LVU83
 295 0044 FFF7FEFF 		bl	rt_free
 296              	.LVL33:
 171:Middlewares/Third_Party/RealThread_RTOS/src/idle.c ****         /* delete thread object */
 172:Middlewares/Third_Party/RealThread_RTOS/src/idle.c ****         rt_object_delete((rt_object_t)thread);
 297              		.loc 1 172 9 is_stmt 1 view .LVU84
 298 0048 2846     		mov	r0, r5
 299 004a FFF7FEFF 		bl	rt_object_delete
ARM GAS  C:\Users\Administrator\AppData\Local\Temp\ccwcq5qk.s 			page 11


 300              	.LVL34:
 173:Middlewares/Third_Party/RealThread_RTOS/src/idle.c ****         rt_hw_interrupt_enable(lock);
 301              		.loc 1 173 9 view .LVU85
 302 004e 2046     		mov	r0, r4
 303 0050 FFF7FEFF 		bl	rt_hw_interrupt_enable
 304              	.LVL35:
 305              	.LBE9:
 150:Middlewares/Third_Party/RealThread_RTOS/src/idle.c ****     {
 306              		.loc 1 150 11 view .LVU86
 307              	.L24:
 147:Middlewares/Third_Party/RealThread_RTOS/src/idle.c **** 
 308              		.loc 1 147 5 discriminator 6 view .LVU87
 150:Middlewares/Third_Party/RealThread_RTOS/src/idle.c ****     {
 309              		.loc 1 150 5 discriminator 6 view .LVU88
 310              	.LBB14:
 152:Middlewares/Third_Party/RealThread_RTOS/src/idle.c ****         rt_thread_t thread;
 311              		.loc 1 152 9 discriminator 6 view .LVU89
 153:Middlewares/Third_Party/RealThread_RTOS/src/idle.c **** 
 312              		.loc 1 153 9 discriminator 6 view .LVU90
 155:Middlewares/Third_Party/RealThread_RTOS/src/idle.c **** 
 313              		.loc 1 155 9 discriminator 6 view .LVU91
 155:Middlewares/Third_Party/RealThread_RTOS/src/idle.c **** 
 314              		.loc 1 155 16 is_stmt 0 discriminator 6 view .LVU92
 315 0054 FFF7FEFF 		bl	rt_hw_interrupt_disable
 316              	.LVL36:
 317 0058 0446     		mov	r4, r0
 318              	.LVL37:
 158:Middlewares/Third_Party/RealThread_RTOS/src/idle.c ****         {
 319              		.loc 1 158 9 is_stmt 1 discriminator 6 view .LVU93
 320              	.LBB12:
 321              	.LBI12:
 122:Middlewares/Third_Party/RealThread_RTOS/src/idle.c **** {
 322              		.loc 1 122 15 discriminator 6 view .LVU94
 323              	.LBB13:
 130:Middlewares/Third_Party/RealThread_RTOS/src/idle.c **** 
 324              		.loc 1 130 5 discriminator 6 view .LVU95
 132:Middlewares/Third_Party/RealThread_RTOS/src/idle.c **** }
 325              		.loc 1 132 5 discriminator 6 view .LVU96
 132:Middlewares/Third_Party/RealThread_RTOS/src/idle.c **** }
 326              		.loc 1 132 13 is_stmt 0 discriminator 6 view .LVU97
 327 005a 064B     		ldr	r3, .L28+12
 328 005c 1A68     		ldr	r2, [r3]
 329              	.LBE13:
 330              	.LBE12:
 158:Middlewares/Third_Party/RealThread_RTOS/src/idle.c ****         {
 331              		.loc 1 158 12 discriminator 6 view .LVU98
 332 005e 9A42     		cmp	r2, r3
 333 0060 E4D1     		bne	.L23
 160:Middlewares/Third_Party/RealThread_RTOS/src/idle.c ****             break;
 334              		.loc 1 160 13 is_stmt 1 view .LVU99
 335 0062 FFF7FEFF 		bl	rt_hw_interrupt_enable
 336              	.LVL38:
 161:Middlewares/Third_Party/RealThread_RTOS/src/idle.c ****         }
 337              		.loc 1 161 13 view .LVU100
 338              	.LBE14:
 174:Middlewares/Third_Party/RealThread_RTOS/src/idle.c ****     }
 175:Middlewares/Third_Party/RealThread_RTOS/src/idle.c **** #endif
ARM GAS  C:\Users\Administrator\AppData\Local\Temp\ccwcq5qk.s 			page 12


 176:Middlewares/Third_Party/RealThread_RTOS/src/idle.c **** }
 339              		.loc 1 176 1 is_stmt 0 view .LVU101
 340 0066 38BD     		pop	{r3, r4, r5, pc}
 341              	.LVL39:
 342              	.L29:
 343              		.loc 1 176 1 view .LVU102
 344              		.align	2
 345              	.L28:
 346 0068 00000000 		.word	.LANCHOR1
 347 006c 00000000 		.word	.LC0
 348 0070 28000000 		.word	.LC1
 349 0074 00000000 		.word	rt_thread_defunct
 350              		.cfi_endproc
 351              	.LFE18:
 353              		.section	.text.rt_thread_idle_entry,"ax",%progbits
 354              		.align	1
 355              		.syntax unified
 356              		.thumb
 357              		.thumb_func
 358              		.fpu softvfp
 360              	rt_thread_idle_entry:
 361              	.LFB19:
 177:Middlewares/Third_Party/RealThread_RTOS/src/idle.c **** 
 178:Middlewares/Third_Party/RealThread_RTOS/src/idle.c **** extern void rt_system_power_manager(void);
 179:Middlewares/Third_Party/RealThread_RTOS/src/idle.c **** static void rt_thread_idle_entry(void *parameter)
 180:Middlewares/Third_Party/RealThread_RTOS/src/idle.c **** {
 362              		.loc 1 180 1 is_stmt 1 view -0
 363              		.cfi_startproc
 364              		@ args = 0, pretend = 0, frame = 0
 365              		@ frame_needed = 0, uses_anonymous_args = 0
 366              	.LVL40:
 367              		.loc 1 180 1 is_stmt 0 view .LVU104
 368 0000 10B5     		push	{r4, lr}
 369              	.LCFI3:
 370              		.cfi_def_cfa_offset 8
 371              		.cfi_offset 4, -8
 372              		.cfi_offset 14, -4
 373 0002 0BE0     		b	.L34
 374              	.LVL41:
 375              	.L32:
 376              	.LBB15:
 181:Middlewares/Third_Party/RealThread_RTOS/src/idle.c ****     while (1)
 182:Middlewares/Third_Party/RealThread_RTOS/src/idle.c ****     {
 183:Middlewares/Third_Party/RealThread_RTOS/src/idle.c **** 
 184:Middlewares/Third_Party/RealThread_RTOS/src/idle.c **** #ifdef RT_USING_IDLE_HOOK
 185:Middlewares/Third_Party/RealThread_RTOS/src/idle.c ****         rt_size_t i;
 186:Middlewares/Third_Party/RealThread_RTOS/src/idle.c **** 
 187:Middlewares/Third_Party/RealThread_RTOS/src/idle.c ****         for (i = 0; i < RT_IDLE_HOOK_LIST_SIZE; i++)
 377              		.loc 1 187 49 is_stmt 1 discriminator 2 view .LVU105
 378              		.loc 1 187 50 is_stmt 0 discriminator 2 view .LVU106
 379 0004 0134     		adds	r4, r4, #1
 380              	.LVL42:
 381              	.L31:
 382              		.loc 1 187 21 is_stmt 1 discriminator 1 view .LVU107
 383              		.loc 1 187 9 is_stmt 0 discriminator 1 view .LVU108
 384 0006 032C     		cmp	r4, #3
 385 0008 06D8     		bhi	.L36
ARM GAS  C:\Users\Administrator\AppData\Local\Temp\ccwcq5qk.s 			page 13


 188:Middlewares/Third_Party/RealThread_RTOS/src/idle.c ****         {
 189:Middlewares/Third_Party/RealThread_RTOS/src/idle.c ****             if (idle_hook_list[i] != RT_NULL)
 386              		.loc 1 189 13 is_stmt 1 view .LVU109
 387              		.loc 1 189 31 is_stmt 0 view .LVU110
 388 000a 054B     		ldr	r3, .L37
 389 000c 53F82430 		ldr	r3, [r3, r4, lsl #2]
 390              		.loc 1 189 16 view .LVU111
 391 0010 002B     		cmp	r3, #0
 392 0012 F7D0     		beq	.L32
 190:Middlewares/Third_Party/RealThread_RTOS/src/idle.c ****             {
 191:Middlewares/Third_Party/RealThread_RTOS/src/idle.c ****                 idle_hook_list[i]();
 393              		.loc 1 191 17 is_stmt 1 view .LVU112
 394 0014 9847     		blx	r3
 395              	.LVL43:
 396 0016 F5E7     		b	.L32
 397              	.L36:
 192:Middlewares/Third_Party/RealThread_RTOS/src/idle.c ****             }
 193:Middlewares/Third_Party/RealThread_RTOS/src/idle.c ****         }
 194:Middlewares/Third_Party/RealThread_RTOS/src/idle.c **** #endif
 195:Middlewares/Third_Party/RealThread_RTOS/src/idle.c **** 
 196:Middlewares/Third_Party/RealThread_RTOS/src/idle.c ****         rt_thread_idle_excute();
 398              		.loc 1 196 9 view .LVU113
 399 0018 FFF7FEFF 		bl	rt_thread_idle_excute
 400              	.LVL44:
 401              	.LBE15:
 181:Middlewares/Third_Party/RealThread_RTOS/src/idle.c ****     {
 402              		.loc 1 181 11 view .LVU114
 403              	.L34:
 181:Middlewares/Third_Party/RealThread_RTOS/src/idle.c ****     {
 404              		.loc 1 181 5 view .LVU115
 405              	.LBB16:
 185:Middlewares/Third_Party/RealThread_RTOS/src/idle.c **** 
 406              		.loc 1 185 9 view .LVU116
 187:Middlewares/Third_Party/RealThread_RTOS/src/idle.c ****         {
 407              		.loc 1 187 9 view .LVU117
 187:Middlewares/Third_Party/RealThread_RTOS/src/idle.c ****         {
 408              		.loc 1 187 16 is_stmt 0 view .LVU118
 409 001c 0024     		movs	r4, #0
 187:Middlewares/Third_Party/RealThread_RTOS/src/idle.c ****         {
 410              		.loc 1 187 9 view .LVU119
 411 001e F2E7     		b	.L31
 412              	.L38:
 413              		.align	2
 414              	.L37:
 415 0020 00000000 		.word	.LANCHOR0
 416              	.LBE16:
 417              		.cfi_endproc
 418              	.LFE19:
 420              		.section	.rodata.rt_thread_idle_init.str1.4,"aMS",%progbits,1
 421              		.align	2
 422              	.LC2:
 423 0000 7469646C 		.ascii	"tidle\000"
 423      6500
 424              		.section	.text.rt_thread_idle_init,"ax",%progbits
 425              		.align	1
 426              		.global	rt_thread_idle_init
 427              		.syntax unified
ARM GAS  C:\Users\Administrator\AppData\Local\Temp\ccwcq5qk.s 			page 14


 428              		.thumb
 429              		.thumb_func
 430              		.fpu softvfp
 432              	rt_thread_idle_init:
 433              	.LFB20:
 197:Middlewares/Third_Party/RealThread_RTOS/src/idle.c **** #ifdef RT_USING_PM
 198:Middlewares/Third_Party/RealThread_RTOS/src/idle.c ****         rt_system_power_manager();
 199:Middlewares/Third_Party/RealThread_RTOS/src/idle.c **** #endif
 200:Middlewares/Third_Party/RealThread_RTOS/src/idle.c ****     }
 201:Middlewares/Third_Party/RealThread_RTOS/src/idle.c **** }
 202:Middlewares/Third_Party/RealThread_RTOS/src/idle.c **** 
 203:Middlewares/Third_Party/RealThread_RTOS/src/idle.c **** /**
 204:Middlewares/Third_Party/RealThread_RTOS/src/idle.c ****  * @ingroup SystemInit
 205:Middlewares/Third_Party/RealThread_RTOS/src/idle.c ****  *
 206:Middlewares/Third_Party/RealThread_RTOS/src/idle.c ****  * This function will initialize idle thread, then start it.
 207:Middlewares/Third_Party/RealThread_RTOS/src/idle.c ****  *
 208:Middlewares/Third_Party/RealThread_RTOS/src/idle.c ****  * @note this function must be invoked when system init.
 209:Middlewares/Third_Party/RealThread_RTOS/src/idle.c ****  */
 210:Middlewares/Third_Party/RealThread_RTOS/src/idle.c **** void rt_thread_idle_init(void)
 211:Middlewares/Third_Party/RealThread_RTOS/src/idle.c **** {
 434              		.loc 1 211 1 is_stmt 1 view -0
 435              		.cfi_startproc
 436              		@ args = 0, pretend = 0, frame = 0
 437              		@ frame_needed = 0, uses_anonymous_args = 0
 438 0000 10B5     		push	{r4, lr}
 439              	.LCFI4:
 440              		.cfi_def_cfa_offset 8
 441              		.cfi_offset 4, -8
 442              		.cfi_offset 14, -4
 443 0002 84B0     		sub	sp, sp, #16
 444              	.LCFI5:
 445              		.cfi_def_cfa_offset 24
 212:Middlewares/Third_Party/RealThread_RTOS/src/idle.c ****     /* initialize thread */
 213:Middlewares/Third_Party/RealThread_RTOS/src/idle.c ****     rt_thread_init(&idle,
 446              		.loc 1 213 5 view .LVU121
 447 0004 0A4C     		ldr	r4, .L41
 448 0006 2023     		movs	r3, #32
 449 0008 0393     		str	r3, [sp, #12]
 450 000a 1F23     		movs	r3, #31
 451 000c 0293     		str	r3, [sp, #8]
 452 000e 4FF48073 		mov	r3, #256
 453 0012 0193     		str	r3, [sp, #4]
 454 0014 074B     		ldr	r3, .L41+4
 455 0016 0093     		str	r3, [sp]
 456 0018 0023     		movs	r3, #0
 457 001a 074A     		ldr	r2, .L41+8
 458 001c 0749     		ldr	r1, .L41+12
 459 001e 2046     		mov	r0, r4
 460 0020 FFF7FEFF 		bl	rt_thread_init
 461              	.LVL45:
 214:Middlewares/Third_Party/RealThread_RTOS/src/idle.c ****                    "tidle",
 215:Middlewares/Third_Party/RealThread_RTOS/src/idle.c ****                    rt_thread_idle_entry,
 216:Middlewares/Third_Party/RealThread_RTOS/src/idle.c ****                    RT_NULL,
 217:Middlewares/Third_Party/RealThread_RTOS/src/idle.c ****                    &rt_thread_stack[0],
 218:Middlewares/Third_Party/RealThread_RTOS/src/idle.c ****                    sizeof(rt_thread_stack),
 219:Middlewares/Third_Party/RealThread_RTOS/src/idle.c ****                    RT_THREAD_PRIORITY_MAX - 1,
 220:Middlewares/Third_Party/RealThread_RTOS/src/idle.c ****                    32);
ARM GAS  C:\Users\Administrator\AppData\Local\Temp\ccwcq5qk.s 			page 15


 221:Middlewares/Third_Party/RealThread_RTOS/src/idle.c **** 
 222:Middlewares/Third_Party/RealThread_RTOS/src/idle.c ****     /* startup */
 223:Middlewares/Third_Party/RealThread_RTOS/src/idle.c ****     rt_thread_startup(&idle);
 462              		.loc 1 223 5 view .LVU122
 463 0024 2046     		mov	r0, r4
 464 0026 FFF7FEFF 		bl	rt_thread_startup
 465              	.LVL46:
 224:Middlewares/Third_Party/RealThread_RTOS/src/idle.c **** }
 466              		.loc 1 224 1 is_stmt 0 view .LVU123
 467 002a 04B0     		add	sp, sp, #16
 468              	.LCFI6:
 469              		.cfi_def_cfa_offset 8
 470              		@ sp needed
 471 002c 10BD     		pop	{r4, pc}
 472              	.L42:
 473 002e 00BF     		.align	2
 474              	.L41:
 475 0030 00000000 		.word	.LANCHOR2
 476 0034 00000000 		.word	.LANCHOR3
 477 0038 00000000 		.word	rt_thread_idle_entry
 478 003c 00000000 		.word	.LC2
 479              		.cfi_endproc
 480              	.LFE20:
 482              		.section	.text.rt_thread_idle_gethandler,"ax",%progbits
 483              		.align	1
 484              		.global	rt_thread_idle_gethandler
 485              		.syntax unified
 486              		.thumb
 487              		.thumb_func
 488              		.fpu softvfp
 490              	rt_thread_idle_gethandler:
 491              	.LFB21:
 225:Middlewares/Third_Party/RealThread_RTOS/src/idle.c **** 
 226:Middlewares/Third_Party/RealThread_RTOS/src/idle.c **** /**
 227:Middlewares/Third_Party/RealThread_RTOS/src/idle.c ****  * @ingroup Thread
 228:Middlewares/Third_Party/RealThread_RTOS/src/idle.c ****  *
 229:Middlewares/Third_Party/RealThread_RTOS/src/idle.c ****  * This function will get the handler of the idle thread.
 230:Middlewares/Third_Party/RealThread_RTOS/src/idle.c ****  *
 231:Middlewares/Third_Party/RealThread_RTOS/src/idle.c ****  */
 232:Middlewares/Third_Party/RealThread_RTOS/src/idle.c **** rt_thread_t rt_thread_idle_gethandler(void)
 233:Middlewares/Third_Party/RealThread_RTOS/src/idle.c **** {
 492              		.loc 1 233 1 is_stmt 1 view -0
 493              		.cfi_startproc
 494              		@ args = 0, pretend = 0, frame = 0
 495              		@ frame_needed = 0, uses_anonymous_args = 0
 496              		@ link register save eliminated.
 234:Middlewares/Third_Party/RealThread_RTOS/src/idle.c ****     return (rt_thread_t)(&idle);
 497              		.loc 1 234 5 view .LVU125
 235:Middlewares/Third_Party/RealThread_RTOS/src/idle.c **** }
 498              		.loc 1 235 1 is_stmt 0 view .LVU126
 499 0000 0048     		ldr	r0, .L44
 500 0002 7047     		bx	lr
 501              	.L45:
 502              		.align	2
 503              	.L44:
 504 0004 00000000 		.word	.LANCHOR2
 505              		.cfi_endproc
ARM GAS  C:\Users\Administrator\AppData\Local\Temp\ccwcq5qk.s 			page 16


 506              	.LFE21:
 508              		.section	.bss.idle,"aw",%nobits
 509              		.align	2
 510              		.set	.LANCHOR2,. + 0
 513              	idle:
 514 0000 00000000 		.space	128
 514      00000000 
 514      00000000 
 514      00000000 
 514      00000000 
 515              		.section	.bss.idle_hook_list,"aw",%nobits
 516              		.align	2
 517              		.set	.LANCHOR0,. + 0
 520              	idle_hook_list:
 521 0000 00000000 		.space	16
 521      00000000 
 521      00000000 
 521      00000000 
 522              		.section	.bss.rt_thread_stack,"aw",%nobits
 523              		.align	2
 524              		.set	.LANCHOR3,. + 0
 527              	rt_thread_stack:
 528 0000 00000000 		.space	256
 528      00000000 
 528      00000000 
 528      00000000 
 528      00000000 
 529              		.section	.rodata.__FUNCTION__.0,"a"
 530              		.align	2
 531              		.set	.LANCHOR1,. + 0
 534              	__FUNCTION__.0:
 535 0000 72745F74 		.ascii	"rt_thread_idle_excute\000"
 535      68726561 
 535      645F6964 
 535      6C655F65 
 535      78637574 
 536              		.text
 537              	.Letext0:
 538              		.file 3 "Middlewares/Third_Party/RealThread_RTOS/include/rtdef.h"
 539              		.file 4 "Middlewares/Third_Party/RealThread_RTOS/include/rtthread.h"
 540              		.file 5 "Middlewares/Third_Party/RealThread_RTOS/include/rthw.h"
ARM GAS  C:\Users\Administrator\AppData\Local\Temp\ccwcq5qk.s 			page 17


DEFINED SYMBOLS
                            *ABS*:00000000 idle.c
C:\Users\Administrator\AppData\Local\Temp\ccwcq5qk.s:16     .text.rt_thread_idle_sethook:00000000 $t
C:\Users\Administrator\AppData\Local\Temp\ccwcq5qk.s:24     .text.rt_thread_idle_sethook:00000000 rt_thread_idle_sethook
C:\Users\Administrator\AppData\Local\Temp\ccwcq5qk.s:99     .text.rt_thread_idle_sethook:00000030 $d
C:\Users\Administrator\AppData\Local\Temp\ccwcq5qk.s:104    .text.rt_thread_idle_delhook:00000000 $t
C:\Users\Administrator\AppData\Local\Temp\ccwcq5qk.s:111    .text.rt_thread_idle_delhook:00000000 rt_thread_idle_delhook
C:\Users\Administrator\AppData\Local\Temp\ccwcq5qk.s:185    .text.rt_thread_idle_delhook:00000034 $d
C:\Users\Administrator\AppData\Local\Temp\ccwcq5qk.s:190    .rodata.rt_thread_idle_excute.str1.4:00000000 $d
C:\Users\Administrator\AppData\Local\Temp\ccwcq5qk.s:197    .text.rt_thread_idle_excute:00000000 $t
C:\Users\Administrator\AppData\Local\Temp\ccwcq5qk.s:204    .text.rt_thread_idle_excute:00000000 rt_thread_idle_excute
C:\Users\Administrator\AppData\Local\Temp\ccwcq5qk.s:346    .text.rt_thread_idle_excute:00000068 $d
C:\Users\Administrator\AppData\Local\Temp\ccwcq5qk.s:354    .text.rt_thread_idle_entry:00000000 $t
C:\Users\Administrator\AppData\Local\Temp\ccwcq5qk.s:360    .text.rt_thread_idle_entry:00000000 rt_thread_idle_entry
C:\Users\Administrator\AppData\Local\Temp\ccwcq5qk.s:415    .text.rt_thread_idle_entry:00000020 $d
C:\Users\Administrator\AppData\Local\Temp\ccwcq5qk.s:421    .rodata.rt_thread_idle_init.str1.4:00000000 $d
C:\Users\Administrator\AppData\Local\Temp\ccwcq5qk.s:425    .text.rt_thread_idle_init:00000000 $t
C:\Users\Administrator\AppData\Local\Temp\ccwcq5qk.s:432    .text.rt_thread_idle_init:00000000 rt_thread_idle_init
C:\Users\Administrator\AppData\Local\Temp\ccwcq5qk.s:475    .text.rt_thread_idle_init:00000030 $d
C:\Users\Administrator\AppData\Local\Temp\ccwcq5qk.s:483    .text.rt_thread_idle_gethandler:00000000 $t
C:\Users\Administrator\AppData\Local\Temp\ccwcq5qk.s:490    .text.rt_thread_idle_gethandler:00000000 rt_thread_idle_gethandler
C:\Users\Administrator\AppData\Local\Temp\ccwcq5qk.s:504    .text.rt_thread_idle_gethandler:00000004 $d
C:\Users\Administrator\AppData\Local\Temp\ccwcq5qk.s:509    .bss.idle:00000000 $d
C:\Users\Administrator\AppData\Local\Temp\ccwcq5qk.s:513    .bss.idle:00000000 idle
C:\Users\Administrator\AppData\Local\Temp\ccwcq5qk.s:516    .bss.idle_hook_list:00000000 $d
C:\Users\Administrator\AppData\Local\Temp\ccwcq5qk.s:520    .bss.idle_hook_list:00000000 idle_hook_list
C:\Users\Administrator\AppData\Local\Temp\ccwcq5qk.s:523    .bss.rt_thread_stack:00000000 $d
C:\Users\Administrator\AppData\Local\Temp\ccwcq5qk.s:527    .bss.rt_thread_stack:00000000 rt_thread_stack
C:\Users\Administrator\AppData\Local\Temp\ccwcq5qk.s:530    .rodata.__FUNCTION__.0:00000000 $d
C:\Users\Administrator\AppData\Local\Temp\ccwcq5qk.s:534    .rodata.__FUNCTION__.0:00000000 __FUNCTION__.0

UNDEFINED SYMBOLS
rt_hw_interrupt_disable
rt_hw_interrupt_enable
rt_interrupt_get_nest
rt_kprintf
rt_assert_handler
rt_free
rt_object_delete
rt_thread_defunct
rt_thread_init
rt_thread_startup
