ARM GAS  C:\Users\Administrator\AppData\Local\Temp\ccS10GXs.s 			page 1


   1              		.cpu cortex-m4
   2              		.eabi_attribute 20, 1
   3              		.eabi_attribute 21, 1
   4              		.eabi_attribute 23, 3
   5              		.eabi_attribute 24, 1
   6              		.eabi_attribute 25, 1
   7              		.eabi_attribute 26, 1
   8              		.eabi_attribute 30, 1
   9              		.eabi_attribute 34, 1
  10              		.eabi_attribute 18, 4
  11              		.file	"ipc.c"
  12              		.text
  13              	.Ltext0:
  14              		.cfi_sections	.debug_frame
  15              		.section	.rodata.rt_sem_init.str1.4,"aMS",%progbits,1
  16              		.align	2
  17              	.LC0:
  18 0000 73656D20 		.ascii	"sem != RT_NULL\000"
  18      213D2052 
  18      545F4E55 
  18      4C4C00
  19 000f 00       		.align	2
  20              	.LC1:
  21 0010 76616C75 		.ascii	"value < 0x10000U\000"
  21      65203C20 
  21      30783130 
  21      30303055 
  21      00
  22              		.section	.text.rt_sem_init,"ax",%progbits
  23              		.align	1
  24              		.global	rt_sem_init
  25              		.arch armv7e-m
  26              		.syntax unified
  27              		.thumb
  28              		.thumb_func
  29              		.fpu softvfp
  31              	rt_sem_init:
  32              	.LVL0:
  33              	.LFB19:
  34              		.file 1 "Middlewares/Third_Party/RealThread_RTOS/src/ipc.c"
   1:Middlewares/Third_Party/RealThread_RTOS/src/ipc.c **** /*
   2:Middlewares/Third_Party/RealThread_RTOS/src/ipc.c ****  * Copyright (c) 2006-2021, RT-Thread Development Team
   3:Middlewares/Third_Party/RealThread_RTOS/src/ipc.c ****  *
   4:Middlewares/Third_Party/RealThread_RTOS/src/ipc.c ****  * SPDX-License-Identifier: Apache-2.0
   5:Middlewares/Third_Party/RealThread_RTOS/src/ipc.c ****  *
   6:Middlewares/Third_Party/RealThread_RTOS/src/ipc.c ****  * Change Logs:
   7:Middlewares/Third_Party/RealThread_RTOS/src/ipc.c ****  * Date           Author       Notes
   8:Middlewares/Third_Party/RealThread_RTOS/src/ipc.c ****  * 2006-03-14     Bernard      the first version
   9:Middlewares/Third_Party/RealThread_RTOS/src/ipc.c ****  * 2006-04-25     Bernard      implement semaphore
  10:Middlewares/Third_Party/RealThread_RTOS/src/ipc.c ****  * 2006-05-03     Bernard      add RT_IPC_DEBUG
  11:Middlewares/Third_Party/RealThread_RTOS/src/ipc.c ****  *                             modify the type of IPC waiting time to rt_int32_t
  12:Middlewares/Third_Party/RealThread_RTOS/src/ipc.c ****  * 2006-05-10     Bernard      fix the semaphore take bug and add IPC object
  13:Middlewares/Third_Party/RealThread_RTOS/src/ipc.c ****  * 2006-05-12     Bernard      implement mailbox and message queue
  14:Middlewares/Third_Party/RealThread_RTOS/src/ipc.c ****  * 2006-05-20     Bernard      implement mutex
  15:Middlewares/Third_Party/RealThread_RTOS/src/ipc.c ****  * 2006-05-23     Bernard      implement fast event
  16:Middlewares/Third_Party/RealThread_RTOS/src/ipc.c ****  * 2006-05-24     Bernard      implement event
  17:Middlewares/Third_Party/RealThread_RTOS/src/ipc.c ****  * 2006-06-03     Bernard      fix the thread timer init bug
ARM GAS  C:\Users\Administrator\AppData\Local\Temp\ccS10GXs.s 			page 2


  18:Middlewares/Third_Party/RealThread_RTOS/src/ipc.c ****  * 2006-06-05     Bernard      fix the mutex release bug
  19:Middlewares/Third_Party/RealThread_RTOS/src/ipc.c ****  * 2006-06-07     Bernard      fix the message queue send bug
  20:Middlewares/Third_Party/RealThread_RTOS/src/ipc.c ****  * 2006-08-04     Bernard      add hook support
  21:Middlewares/Third_Party/RealThread_RTOS/src/ipc.c ****  * 2009-05-21     Yi.qiu       fix the sem release bug
  22:Middlewares/Third_Party/RealThread_RTOS/src/ipc.c ****  * 2009-07-18     Bernard      fix the event clear bug
  23:Middlewares/Third_Party/RealThread_RTOS/src/ipc.c ****  * 2009-09-09     Bernard      remove fast event and fix ipc release bug
  24:Middlewares/Third_Party/RealThread_RTOS/src/ipc.c ****  * 2009-10-10     Bernard      change semaphore and mutex value to unsigned value
  25:Middlewares/Third_Party/RealThread_RTOS/src/ipc.c ****  * 2009-10-25     Bernard      change the mb/mq receive timeout to 0 if the
  26:Middlewares/Third_Party/RealThread_RTOS/src/ipc.c ****  *                             re-calculated delta tick is a negative number.
  27:Middlewares/Third_Party/RealThread_RTOS/src/ipc.c ****  * 2009-12-16     Bernard      fix the rt_ipc_object_suspend issue when IPC flag
  28:Middlewares/Third_Party/RealThread_RTOS/src/ipc.c ****  *                             is RT_IPC_FLAG_PRIO
  29:Middlewares/Third_Party/RealThread_RTOS/src/ipc.c ****  * 2010-01-20     mbbill       remove rt_ipc_object_decrease function.
  30:Middlewares/Third_Party/RealThread_RTOS/src/ipc.c ****  * 2010-04-20     Bernard      move memcpy outside interrupt disable in mq
  31:Middlewares/Third_Party/RealThread_RTOS/src/ipc.c ****  * 2010-10-26     yi.qiu       add module support in rt_mp_delete and rt_mq_delete
  32:Middlewares/Third_Party/RealThread_RTOS/src/ipc.c ****  * 2010-11-10     Bernard      add IPC reset command implementation.
  33:Middlewares/Third_Party/RealThread_RTOS/src/ipc.c ****  * 2011-12-18     Bernard      add more parameter checking in message queue
  34:Middlewares/Third_Party/RealThread_RTOS/src/ipc.c ****  * 2013-09-14     Grissiom     add an option check in rt_event_recv
  35:Middlewares/Third_Party/RealThread_RTOS/src/ipc.c ****  * 2018-10-02     Bernard      add 64bit support for mailbox
  36:Middlewares/Third_Party/RealThread_RTOS/src/ipc.c ****  * 2019-09-16     tyx          add send wait support for message queue
  37:Middlewares/Third_Party/RealThread_RTOS/src/ipc.c ****  * 2020-07-29     Meco Man     fix thread->event_set/event_info when received an
  38:Middlewares/Third_Party/RealThread_RTOS/src/ipc.c ****  *                             event without pending
  39:Middlewares/Third_Party/RealThread_RTOS/src/ipc.c ****  * 2020-10-11     Meco Man     add value overflow-check code
  40:Middlewares/Third_Party/RealThread_RTOS/src/ipc.c ****  */
  41:Middlewares/Third_Party/RealThread_RTOS/src/ipc.c **** 
  42:Middlewares/Third_Party/RealThread_RTOS/src/ipc.c **** #include <rtthread.h>
  43:Middlewares/Third_Party/RealThread_RTOS/src/ipc.c **** #include <rthw.h>
  44:Middlewares/Third_Party/RealThread_RTOS/src/ipc.c **** 
  45:Middlewares/Third_Party/RealThread_RTOS/src/ipc.c **** #ifdef RT_USING_HOOK
  46:Middlewares/Third_Party/RealThread_RTOS/src/ipc.c **** extern void (*rt_object_trytake_hook)(struct rt_object *object);
  47:Middlewares/Third_Party/RealThread_RTOS/src/ipc.c **** extern void (*rt_object_take_hook)(struct rt_object *object);
  48:Middlewares/Third_Party/RealThread_RTOS/src/ipc.c **** extern void (*rt_object_put_hook)(struct rt_object *object);
  49:Middlewares/Third_Party/RealThread_RTOS/src/ipc.c **** #endif
  50:Middlewares/Third_Party/RealThread_RTOS/src/ipc.c **** 
  51:Middlewares/Third_Party/RealThread_RTOS/src/ipc.c **** /**
  52:Middlewares/Third_Party/RealThread_RTOS/src/ipc.c ****  * @addtogroup IPC
  53:Middlewares/Third_Party/RealThread_RTOS/src/ipc.c ****  */
  54:Middlewares/Third_Party/RealThread_RTOS/src/ipc.c **** 
  55:Middlewares/Third_Party/RealThread_RTOS/src/ipc.c **** /**@{*/
  56:Middlewares/Third_Party/RealThread_RTOS/src/ipc.c **** 
  57:Middlewares/Third_Party/RealThread_RTOS/src/ipc.c **** /**
  58:Middlewares/Third_Party/RealThread_RTOS/src/ipc.c ****  * This function will initialize an IPC object
  59:Middlewares/Third_Party/RealThread_RTOS/src/ipc.c ****  *
  60:Middlewares/Third_Party/RealThread_RTOS/src/ipc.c ****  * @param ipc the IPC object
  61:Middlewares/Third_Party/RealThread_RTOS/src/ipc.c ****  *
  62:Middlewares/Third_Party/RealThread_RTOS/src/ipc.c ****  * @return the operation status, RT_EOK on successful
  63:Middlewares/Third_Party/RealThread_RTOS/src/ipc.c ****  */
  64:Middlewares/Third_Party/RealThread_RTOS/src/ipc.c **** rt_inline rt_err_t rt_ipc_object_init(struct rt_ipc_object *ipc)
  65:Middlewares/Third_Party/RealThread_RTOS/src/ipc.c **** {
  66:Middlewares/Third_Party/RealThread_RTOS/src/ipc.c ****     /* initialize ipc object */
  67:Middlewares/Third_Party/RealThread_RTOS/src/ipc.c ****     rt_list_init(&(ipc->suspend_thread));
  68:Middlewares/Third_Party/RealThread_RTOS/src/ipc.c **** 
  69:Middlewares/Third_Party/RealThread_RTOS/src/ipc.c ****     return RT_EOK;
  70:Middlewares/Third_Party/RealThread_RTOS/src/ipc.c **** }
  71:Middlewares/Third_Party/RealThread_RTOS/src/ipc.c **** 
  72:Middlewares/Third_Party/RealThread_RTOS/src/ipc.c **** /**
  73:Middlewares/Third_Party/RealThread_RTOS/src/ipc.c ****  * This function will suspend a thread to a specified list. IPC object or some
  74:Middlewares/Third_Party/RealThread_RTOS/src/ipc.c ****  * double-queue object (mailbox etc.) contains this kind of list.
ARM GAS  C:\Users\Administrator\AppData\Local\Temp\ccS10GXs.s 			page 3


  75:Middlewares/Third_Party/RealThread_RTOS/src/ipc.c ****  *
  76:Middlewares/Third_Party/RealThread_RTOS/src/ipc.c ****  * @param list the IPC suspended thread list
  77:Middlewares/Third_Party/RealThread_RTOS/src/ipc.c ****  * @param thread the thread object to be suspended
  78:Middlewares/Third_Party/RealThread_RTOS/src/ipc.c ****  * @param flag the IPC object flag,
  79:Middlewares/Third_Party/RealThread_RTOS/src/ipc.c ****  *        which shall be RT_IPC_FLAG_FIFO/RT_IPC_FLAG_PRIO.
  80:Middlewares/Third_Party/RealThread_RTOS/src/ipc.c ****  *
  81:Middlewares/Third_Party/RealThread_RTOS/src/ipc.c ****  * @return the operation status, RT_EOK on successful
  82:Middlewares/Third_Party/RealThread_RTOS/src/ipc.c ****  */
  83:Middlewares/Third_Party/RealThread_RTOS/src/ipc.c **** rt_inline rt_err_t rt_ipc_list_suspend(rt_list_t        *list,
  84:Middlewares/Third_Party/RealThread_RTOS/src/ipc.c ****                                        struct rt_thread *thread,
  85:Middlewares/Third_Party/RealThread_RTOS/src/ipc.c ****                                        rt_uint8_t        flag)
  86:Middlewares/Third_Party/RealThread_RTOS/src/ipc.c **** {
  87:Middlewares/Third_Party/RealThread_RTOS/src/ipc.c ****     /* suspend thread */
  88:Middlewares/Third_Party/RealThread_RTOS/src/ipc.c ****     rt_thread_suspend(thread);
  89:Middlewares/Third_Party/RealThread_RTOS/src/ipc.c **** 
  90:Middlewares/Third_Party/RealThread_RTOS/src/ipc.c ****     switch (flag)
  91:Middlewares/Third_Party/RealThread_RTOS/src/ipc.c ****     {
  92:Middlewares/Third_Party/RealThread_RTOS/src/ipc.c ****     case RT_IPC_FLAG_FIFO:
  93:Middlewares/Third_Party/RealThread_RTOS/src/ipc.c ****         rt_list_insert_before(list, &(thread->tlist));
  94:Middlewares/Third_Party/RealThread_RTOS/src/ipc.c ****         break;
  95:Middlewares/Third_Party/RealThread_RTOS/src/ipc.c **** 
  96:Middlewares/Third_Party/RealThread_RTOS/src/ipc.c ****     case RT_IPC_FLAG_PRIO:
  97:Middlewares/Third_Party/RealThread_RTOS/src/ipc.c ****         {
  98:Middlewares/Third_Party/RealThread_RTOS/src/ipc.c ****             struct rt_list_node *n;
  99:Middlewares/Third_Party/RealThread_RTOS/src/ipc.c ****             struct rt_thread *sthread;
 100:Middlewares/Third_Party/RealThread_RTOS/src/ipc.c **** 
 101:Middlewares/Third_Party/RealThread_RTOS/src/ipc.c ****             /* find a suitable position */
 102:Middlewares/Third_Party/RealThread_RTOS/src/ipc.c ****             for (n = list->next; n != list; n = n->next)
 103:Middlewares/Third_Party/RealThread_RTOS/src/ipc.c ****             {
 104:Middlewares/Third_Party/RealThread_RTOS/src/ipc.c ****                 sthread = rt_list_entry(n, struct rt_thread, tlist);
 105:Middlewares/Third_Party/RealThread_RTOS/src/ipc.c **** 
 106:Middlewares/Third_Party/RealThread_RTOS/src/ipc.c ****                 /* find out */
 107:Middlewares/Third_Party/RealThread_RTOS/src/ipc.c ****                 if (thread->current_priority < sthread->current_priority)
 108:Middlewares/Third_Party/RealThread_RTOS/src/ipc.c ****                 {
 109:Middlewares/Third_Party/RealThread_RTOS/src/ipc.c ****                     /* insert this thread before the sthread */
 110:Middlewares/Third_Party/RealThread_RTOS/src/ipc.c ****                     rt_list_insert_before(&(sthread->tlist), &(thread->tlist));
 111:Middlewares/Third_Party/RealThread_RTOS/src/ipc.c ****                     break;
 112:Middlewares/Third_Party/RealThread_RTOS/src/ipc.c ****                 }
 113:Middlewares/Third_Party/RealThread_RTOS/src/ipc.c ****             }
 114:Middlewares/Third_Party/RealThread_RTOS/src/ipc.c **** 
 115:Middlewares/Third_Party/RealThread_RTOS/src/ipc.c ****             /*
 116:Middlewares/Third_Party/RealThread_RTOS/src/ipc.c ****              * not found a suitable position,
 117:Middlewares/Third_Party/RealThread_RTOS/src/ipc.c ****              * append to the end of suspend_thread list
 118:Middlewares/Third_Party/RealThread_RTOS/src/ipc.c ****              */
 119:Middlewares/Third_Party/RealThread_RTOS/src/ipc.c ****             if (n == list)
 120:Middlewares/Third_Party/RealThread_RTOS/src/ipc.c ****                 rt_list_insert_before(list, &(thread->tlist));
 121:Middlewares/Third_Party/RealThread_RTOS/src/ipc.c ****         }
 122:Middlewares/Third_Party/RealThread_RTOS/src/ipc.c ****         break;
 123:Middlewares/Third_Party/RealThread_RTOS/src/ipc.c **** 
 124:Middlewares/Third_Party/RealThread_RTOS/src/ipc.c ****     default:
 125:Middlewares/Third_Party/RealThread_RTOS/src/ipc.c ****         break;
 126:Middlewares/Third_Party/RealThread_RTOS/src/ipc.c ****     }
 127:Middlewares/Third_Party/RealThread_RTOS/src/ipc.c **** 
 128:Middlewares/Third_Party/RealThread_RTOS/src/ipc.c ****     return RT_EOK;
 129:Middlewares/Third_Party/RealThread_RTOS/src/ipc.c **** }
 130:Middlewares/Third_Party/RealThread_RTOS/src/ipc.c **** 
 131:Middlewares/Third_Party/RealThread_RTOS/src/ipc.c **** /**
ARM GAS  C:\Users\Administrator\AppData\Local\Temp\ccS10GXs.s 			page 4


 132:Middlewares/Third_Party/RealThread_RTOS/src/ipc.c ****  * This function will resume the first thread in the list of a IPC object:
 133:Middlewares/Third_Party/RealThread_RTOS/src/ipc.c ****  * - remove the thread from suspend queue of IPC object
 134:Middlewares/Third_Party/RealThread_RTOS/src/ipc.c ****  * - put the thread into system ready queue
 135:Middlewares/Third_Party/RealThread_RTOS/src/ipc.c ****  *
 136:Middlewares/Third_Party/RealThread_RTOS/src/ipc.c ****  * @param list the thread list
 137:Middlewares/Third_Party/RealThread_RTOS/src/ipc.c ****  *
 138:Middlewares/Third_Party/RealThread_RTOS/src/ipc.c ****  * @return the operation status, RT_EOK on successful
 139:Middlewares/Third_Party/RealThread_RTOS/src/ipc.c ****  */
 140:Middlewares/Third_Party/RealThread_RTOS/src/ipc.c **** rt_inline rt_err_t rt_ipc_list_resume(rt_list_t *list)
 141:Middlewares/Third_Party/RealThread_RTOS/src/ipc.c **** {
 142:Middlewares/Third_Party/RealThread_RTOS/src/ipc.c ****     struct rt_thread *thread;
 143:Middlewares/Third_Party/RealThread_RTOS/src/ipc.c **** 
 144:Middlewares/Third_Party/RealThread_RTOS/src/ipc.c ****     /* get thread entry */
 145:Middlewares/Third_Party/RealThread_RTOS/src/ipc.c ****     thread = rt_list_entry(list->next, struct rt_thread, tlist);
 146:Middlewares/Third_Party/RealThread_RTOS/src/ipc.c **** 
 147:Middlewares/Third_Party/RealThread_RTOS/src/ipc.c ****     RT_DEBUG_LOG(RT_DEBUG_IPC, ("resume thread:%s\n", thread->name));
 148:Middlewares/Third_Party/RealThread_RTOS/src/ipc.c **** 
 149:Middlewares/Third_Party/RealThread_RTOS/src/ipc.c ****     /* resume it */
 150:Middlewares/Third_Party/RealThread_RTOS/src/ipc.c ****     rt_thread_resume(thread);
 151:Middlewares/Third_Party/RealThread_RTOS/src/ipc.c **** 
 152:Middlewares/Third_Party/RealThread_RTOS/src/ipc.c ****     return RT_EOK;
 153:Middlewares/Third_Party/RealThread_RTOS/src/ipc.c **** }
 154:Middlewares/Third_Party/RealThread_RTOS/src/ipc.c **** 
 155:Middlewares/Third_Party/RealThread_RTOS/src/ipc.c **** /**
 156:Middlewares/Third_Party/RealThread_RTOS/src/ipc.c ****  * This function will resume all suspended threads in a list, including
 157:Middlewares/Third_Party/RealThread_RTOS/src/ipc.c ****  * suspend list of IPC object and private list of mailbox etc.
 158:Middlewares/Third_Party/RealThread_RTOS/src/ipc.c ****  *
 159:Middlewares/Third_Party/RealThread_RTOS/src/ipc.c ****  * @param list of the threads to resume
 160:Middlewares/Third_Party/RealThread_RTOS/src/ipc.c ****  *
 161:Middlewares/Third_Party/RealThread_RTOS/src/ipc.c ****  * @return the operation status, RT_EOK on successful
 162:Middlewares/Third_Party/RealThread_RTOS/src/ipc.c ****  */
 163:Middlewares/Third_Party/RealThread_RTOS/src/ipc.c **** rt_inline rt_err_t rt_ipc_list_resume_all(rt_list_t *list)
 164:Middlewares/Third_Party/RealThread_RTOS/src/ipc.c **** {
 165:Middlewares/Third_Party/RealThread_RTOS/src/ipc.c ****     struct rt_thread *thread;
 166:Middlewares/Third_Party/RealThread_RTOS/src/ipc.c ****     register rt_ubase_t temp;
 167:Middlewares/Third_Party/RealThread_RTOS/src/ipc.c **** 
 168:Middlewares/Third_Party/RealThread_RTOS/src/ipc.c ****     /* wakeup all suspended threads */
 169:Middlewares/Third_Party/RealThread_RTOS/src/ipc.c ****     while (!rt_list_isempty(list))
 170:Middlewares/Third_Party/RealThread_RTOS/src/ipc.c ****     {
 171:Middlewares/Third_Party/RealThread_RTOS/src/ipc.c ****         /* disable interrupt */
 172:Middlewares/Third_Party/RealThread_RTOS/src/ipc.c ****         temp = rt_hw_interrupt_disable();
 173:Middlewares/Third_Party/RealThread_RTOS/src/ipc.c **** 
 174:Middlewares/Third_Party/RealThread_RTOS/src/ipc.c ****         /* get next suspended thread */
 175:Middlewares/Third_Party/RealThread_RTOS/src/ipc.c ****         thread = rt_list_entry(list->next, struct rt_thread, tlist);
 176:Middlewares/Third_Party/RealThread_RTOS/src/ipc.c ****         /* set error code to RT_ERROR */
 177:Middlewares/Third_Party/RealThread_RTOS/src/ipc.c ****         thread->error = -RT_ERROR;
 178:Middlewares/Third_Party/RealThread_RTOS/src/ipc.c **** 
 179:Middlewares/Third_Party/RealThread_RTOS/src/ipc.c ****         /*
 180:Middlewares/Third_Party/RealThread_RTOS/src/ipc.c ****          * resume thread
 181:Middlewares/Third_Party/RealThread_RTOS/src/ipc.c ****          * In rt_thread_resume function, it will remove current thread from
 182:Middlewares/Third_Party/RealThread_RTOS/src/ipc.c ****          * suspended list
 183:Middlewares/Third_Party/RealThread_RTOS/src/ipc.c ****          */
 184:Middlewares/Third_Party/RealThread_RTOS/src/ipc.c ****         rt_thread_resume(thread);
 185:Middlewares/Third_Party/RealThread_RTOS/src/ipc.c **** 
 186:Middlewares/Third_Party/RealThread_RTOS/src/ipc.c ****         /* enable interrupt */
 187:Middlewares/Third_Party/RealThread_RTOS/src/ipc.c ****         rt_hw_interrupt_enable(temp);
 188:Middlewares/Third_Party/RealThread_RTOS/src/ipc.c ****     }
ARM GAS  C:\Users\Administrator\AppData\Local\Temp\ccS10GXs.s 			page 5


 189:Middlewares/Third_Party/RealThread_RTOS/src/ipc.c **** 
 190:Middlewares/Third_Party/RealThread_RTOS/src/ipc.c ****     return RT_EOK;
 191:Middlewares/Third_Party/RealThread_RTOS/src/ipc.c **** }
 192:Middlewares/Third_Party/RealThread_RTOS/src/ipc.c **** 
 193:Middlewares/Third_Party/RealThread_RTOS/src/ipc.c **** #ifdef RT_USING_SEMAPHORE
 194:Middlewares/Third_Party/RealThread_RTOS/src/ipc.c **** /**
 195:Middlewares/Third_Party/RealThread_RTOS/src/ipc.c ****  * This function will initialize a semaphore and put it under control of
 196:Middlewares/Third_Party/RealThread_RTOS/src/ipc.c ****  * resource management.
 197:Middlewares/Third_Party/RealThread_RTOS/src/ipc.c ****  *
 198:Middlewares/Third_Party/RealThread_RTOS/src/ipc.c ****  * @param sem the semaphore object
 199:Middlewares/Third_Party/RealThread_RTOS/src/ipc.c ****  * @param name the name of semaphore
 200:Middlewares/Third_Party/RealThread_RTOS/src/ipc.c ****  * @param value the initial value of semaphore
 201:Middlewares/Third_Party/RealThread_RTOS/src/ipc.c ****  * @param flag the flag of semaphore
 202:Middlewares/Third_Party/RealThread_RTOS/src/ipc.c ****  *
 203:Middlewares/Third_Party/RealThread_RTOS/src/ipc.c ****  * @return the operation status, RT_EOK on successful
 204:Middlewares/Third_Party/RealThread_RTOS/src/ipc.c ****  */
 205:Middlewares/Third_Party/RealThread_RTOS/src/ipc.c **** rt_err_t rt_sem_init(rt_sem_t    sem,
 206:Middlewares/Third_Party/RealThread_RTOS/src/ipc.c ****                      const char *name,
 207:Middlewares/Third_Party/RealThread_RTOS/src/ipc.c ****                      rt_uint32_t value,
 208:Middlewares/Third_Party/RealThread_RTOS/src/ipc.c ****                      rt_uint8_t  flag)
 209:Middlewares/Third_Party/RealThread_RTOS/src/ipc.c **** {
  35              		.loc 1 209 1 view -0
  36              		.cfi_startproc
  37              		@ args = 0, pretend = 0, frame = 0
  38              		@ frame_needed = 0, uses_anonymous_args = 0
  39              		.loc 1 209 1 is_stmt 0 view .LVU1
  40 0000 F8B5     		push	{r3, r4, r5, r6, r7, lr}
  41              	.LCFI0:
  42              		.cfi_def_cfa_offset 24
  43              		.cfi_offset 3, -24
  44              		.cfi_offset 4, -20
  45              		.cfi_offset 5, -16
  46              		.cfi_offset 6, -12
  47              		.cfi_offset 7, -8
  48              		.cfi_offset 14, -4
  49 0002 0F46     		mov	r7, r1
  50 0004 1546     		mov	r5, r2
  51 0006 1E46     		mov	r6, r3
 210:Middlewares/Third_Party/RealThread_RTOS/src/ipc.c ****     RT_ASSERT(sem != RT_NULL);
  52              		.loc 1 210 5 is_stmt 1 view .LVU2
  53 0008 0446     		mov	r4, r0
  54 000a 78B1     		cbz	r0, .L5
  55              	.LVL1:
  56              	.L2:
  57              		.loc 1 210 30 discriminator 3 view .LVU3
 211:Middlewares/Third_Party/RealThread_RTOS/src/ipc.c ****     RT_ASSERT(value < 0x10000U);
  58              		.loc 1 211 5 discriminator 3 view .LVU4
  59 000c B5F5803F 		cmp	r5, #65536
  60 0010 12D2     		bcs	.L6
  61              	.L3:
  62              		.loc 1 211 32 discriminator 3 view .LVU5
 212:Middlewares/Third_Party/RealThread_RTOS/src/ipc.c **** 
 213:Middlewares/Third_Party/RealThread_RTOS/src/ipc.c ****     /* initialize object */
 214:Middlewares/Third_Party/RealThread_RTOS/src/ipc.c ****     rt_object_init(&(sem->parent.parent), RT_Object_Class_Semaphore, name);
  63              		.loc 1 214 5 discriminator 3 view .LVU6
  64 0012 3A46     		mov	r2, r7
  65 0014 0221     		movs	r1, #2
ARM GAS  C:\Users\Administrator\AppData\Local\Temp\ccS10GXs.s 			page 6


  66 0016 2046     		mov	r0, r4
  67 0018 FFF7FEFF 		bl	rt_object_init
  68              	.LVL2:
 215:Middlewares/Third_Party/RealThread_RTOS/src/ipc.c **** 
 216:Middlewares/Third_Party/RealThread_RTOS/src/ipc.c ****     /* initialize ipc object */
 217:Middlewares/Third_Party/RealThread_RTOS/src/ipc.c ****     rt_ipc_object_init(&(sem->parent));
  69              		.loc 1 217 5 discriminator 3 view .LVU7
  70              	.LBB106:
  71              	.LBI106:
  64:Middlewares/Third_Party/RealThread_RTOS/src/ipc.c **** {
  72              		.loc 1 64 20 discriminator 3 view .LVU8
  73              	.LBB107:
  67:Middlewares/Third_Party/RealThread_RTOS/src/ipc.c **** 
  74              		.loc 1 67 5 discriminator 3 view .LVU9
  75 001c 04F11403 		add	r3, r4, #20
  76              	.LVL3:
  77              	.LBB108:
  78              	.LBI108:
  79              		.file 2 "Middlewares/Third_Party/RealThread_RTOS/include/rtservice.h"
   1:Middlewares/Third_Party/RealThread_RTOS/include/rtservice.h **** /*
   2:Middlewares/Third_Party/RealThread_RTOS/include/rtservice.h ****  * Copyright (c) 2006-2021, RT-Thread Development Team
   3:Middlewares/Third_Party/RealThread_RTOS/include/rtservice.h ****  *
   4:Middlewares/Third_Party/RealThread_RTOS/include/rtservice.h ****  * SPDX-License-Identifier: Apache-2.0
   5:Middlewares/Third_Party/RealThread_RTOS/include/rtservice.h ****  *
   6:Middlewares/Third_Party/RealThread_RTOS/include/rtservice.h ****  * Change Logs:
   7:Middlewares/Third_Party/RealThread_RTOS/include/rtservice.h ****  * Date           Author       Notes
   8:Middlewares/Third_Party/RealThread_RTOS/include/rtservice.h ****  * 2006-03-16     Bernard      the first version
   9:Middlewares/Third_Party/RealThread_RTOS/include/rtservice.h ****  * 2006-09-07     Bernard      move the kservice APIs to rtthread.h
  10:Middlewares/Third_Party/RealThread_RTOS/include/rtservice.h ****  * 2007-06-27     Bernard      fix the rt_list_remove bug
  11:Middlewares/Third_Party/RealThread_RTOS/include/rtservice.h ****  * 2012-03-22     Bernard      rename kservice.h to rtservice.h
  12:Middlewares/Third_Party/RealThread_RTOS/include/rtservice.h ****  * 2017-11-15     JasonJia     Modify rt_slist_foreach to rt_slist_for_each_entry.
  13:Middlewares/Third_Party/RealThread_RTOS/include/rtservice.h ****  *                             Make code cleanup.
  14:Middlewares/Third_Party/RealThread_RTOS/include/rtservice.h ****  */
  15:Middlewares/Third_Party/RealThread_RTOS/include/rtservice.h **** 
  16:Middlewares/Third_Party/RealThread_RTOS/include/rtservice.h **** #ifndef __RT_SERVICE_H__
  17:Middlewares/Third_Party/RealThread_RTOS/include/rtservice.h **** #define __RT_SERVICE_H__
  18:Middlewares/Third_Party/RealThread_RTOS/include/rtservice.h **** 
  19:Middlewares/Third_Party/RealThread_RTOS/include/rtservice.h **** #ifdef __cplusplus
  20:Middlewares/Third_Party/RealThread_RTOS/include/rtservice.h **** extern "C" {
  21:Middlewares/Third_Party/RealThread_RTOS/include/rtservice.h **** #endif
  22:Middlewares/Third_Party/RealThread_RTOS/include/rtservice.h **** 
  23:Middlewares/Third_Party/RealThread_RTOS/include/rtservice.h **** /**
  24:Middlewares/Third_Party/RealThread_RTOS/include/rtservice.h ****  * @addtogroup KernelService
  25:Middlewares/Third_Party/RealThread_RTOS/include/rtservice.h ****  */
  26:Middlewares/Third_Party/RealThread_RTOS/include/rtservice.h **** 
  27:Middlewares/Third_Party/RealThread_RTOS/include/rtservice.h **** /**@{*/
  28:Middlewares/Third_Party/RealThread_RTOS/include/rtservice.h **** 
  29:Middlewares/Third_Party/RealThread_RTOS/include/rtservice.h **** /**
  30:Middlewares/Third_Party/RealThread_RTOS/include/rtservice.h ****  * rt_container_of - return the member address of ptr, if the type of ptr is the
  31:Middlewares/Third_Party/RealThread_RTOS/include/rtservice.h ****  * struct type.
  32:Middlewares/Third_Party/RealThread_RTOS/include/rtservice.h ****  */
  33:Middlewares/Third_Party/RealThread_RTOS/include/rtservice.h **** #define rt_container_of(ptr, type, member) \
  34:Middlewares/Third_Party/RealThread_RTOS/include/rtservice.h ****     ((type *)((char *)(ptr) - (unsigned long)(&((type *)0)->member)))
  35:Middlewares/Third_Party/RealThread_RTOS/include/rtservice.h **** 
  36:Middlewares/Third_Party/RealThread_RTOS/include/rtservice.h **** 
  37:Middlewares/Third_Party/RealThread_RTOS/include/rtservice.h **** /**
  38:Middlewares/Third_Party/RealThread_RTOS/include/rtservice.h ****  * @brief initialize a list object
ARM GAS  C:\Users\Administrator\AppData\Local\Temp\ccS10GXs.s 			page 7


  39:Middlewares/Third_Party/RealThread_RTOS/include/rtservice.h ****  */
  40:Middlewares/Third_Party/RealThread_RTOS/include/rtservice.h **** #define RT_LIST_OBJECT_INIT(object) { &(object), &(object) }
  41:Middlewares/Third_Party/RealThread_RTOS/include/rtservice.h **** 
  42:Middlewares/Third_Party/RealThread_RTOS/include/rtservice.h **** /**
  43:Middlewares/Third_Party/RealThread_RTOS/include/rtservice.h ****  * @brief initialize a list
  44:Middlewares/Third_Party/RealThread_RTOS/include/rtservice.h ****  *
  45:Middlewares/Third_Party/RealThread_RTOS/include/rtservice.h ****  * @param l list to be initialized
  46:Middlewares/Third_Party/RealThread_RTOS/include/rtservice.h ****  */
  47:Middlewares/Third_Party/RealThread_RTOS/include/rtservice.h **** rt_inline void rt_list_init(rt_list_t *l)
  80              		.loc 2 47 16 discriminator 3 view .LVU10
  81              	.LBB109:
  48:Middlewares/Third_Party/RealThread_RTOS/include/rtservice.h **** {
  49:Middlewares/Third_Party/RealThread_RTOS/include/rtservice.h ****     l->next = l->prev = l;
  82              		.loc 2 49 5 discriminator 3 view .LVU11
  83              		.loc 2 49 23 is_stmt 0 discriminator 3 view .LVU12
  84 0020 A361     		str	r3, [r4, #24]
  85              		.loc 2 49 13 discriminator 3 view .LVU13
  86 0022 6361     		str	r3, [r4, #20]
  87              	.LVL4:
  88              		.loc 2 49 13 discriminator 3 view .LVU14
  89              	.LBE109:
  90              	.LBE108:
  69:Middlewares/Third_Party/RealThread_RTOS/src/ipc.c **** }
  91              		.loc 1 69 5 is_stmt 1 discriminator 3 view .LVU15
  69:Middlewares/Third_Party/RealThread_RTOS/src/ipc.c **** }
  92              		.loc 1 69 5 is_stmt 0 discriminator 3 view .LVU16
  93              	.LBE107:
  94              	.LBE106:
 218:Middlewares/Third_Party/RealThread_RTOS/src/ipc.c **** 
 219:Middlewares/Third_Party/RealThread_RTOS/src/ipc.c ****     /* set initial value */
 220:Middlewares/Third_Party/RealThread_RTOS/src/ipc.c ****     sem->value = (rt_uint16_t)value;
  95              		.loc 1 220 5 is_stmt 1 discriminator 3 view .LVU17
  96              		.loc 1 220 16 is_stmt 0 discriminator 3 view .LVU18
  97 0024 A583     		strh	r5, [r4, #28]	@ movhi
 221:Middlewares/Third_Party/RealThread_RTOS/src/ipc.c **** 
 222:Middlewares/Third_Party/RealThread_RTOS/src/ipc.c ****     /* set parent */
 223:Middlewares/Third_Party/RealThread_RTOS/src/ipc.c ****     sem->parent.parent.flag = flag;
  98              		.loc 1 223 5 is_stmt 1 discriminator 3 view .LVU19
  99              		.loc 1 223 29 is_stmt 0 discriminator 3 view .LVU20
 100 0026 6672     		strb	r6, [r4, #9]
 224:Middlewares/Third_Party/RealThread_RTOS/src/ipc.c **** 
 225:Middlewares/Third_Party/RealThread_RTOS/src/ipc.c ****     return RT_EOK;
 101              		.loc 1 225 5 is_stmt 1 discriminator 3 view .LVU21
 226:Middlewares/Third_Party/RealThread_RTOS/src/ipc.c **** }
 102              		.loc 1 226 1 is_stmt 0 discriminator 3 view .LVU22
 103 0028 0020     		movs	r0, #0
 104 002a F8BD     		pop	{r3, r4, r5, r6, r7, pc}
 105              	.LVL5:
 106              	.L5:
 210:Middlewares/Third_Party/RealThread_RTOS/src/ipc.c ****     RT_ASSERT(value < 0x10000U);
 107              		.loc 1 210 5 is_stmt 1 discriminator 1 view .LVU23
 108 002c D222     		movs	r2, #210
 109              	.LVL6:
 210:Middlewares/Third_Party/RealThread_RTOS/src/ipc.c ****     RT_ASSERT(value < 0x10000U);
 110              		.loc 1 210 5 is_stmt 0 discriminator 1 view .LVU24
 111 002e 0549     		ldr	r1, .L7
 112              	.LVL7:
ARM GAS  C:\Users\Administrator\AppData\Local\Temp\ccS10GXs.s 			page 8


 210:Middlewares/Third_Party/RealThread_RTOS/src/ipc.c ****     RT_ASSERT(value < 0x10000U);
 113              		.loc 1 210 5 discriminator 1 view .LVU25
 114 0030 0548     		ldr	r0, .L7+4
 115              	.LVL8:
 210:Middlewares/Third_Party/RealThread_RTOS/src/ipc.c ****     RT_ASSERT(value < 0x10000U);
 116              		.loc 1 210 5 discriminator 1 view .LVU26
 117 0032 FFF7FEFF 		bl	rt_assert_handler
 118              	.LVL9:
 210:Middlewares/Third_Party/RealThread_RTOS/src/ipc.c ****     RT_ASSERT(value < 0x10000U);
 119              		.loc 1 210 5 discriminator 1 view .LVU27
 120 0036 E9E7     		b	.L2
 121              	.L6:
 211:Middlewares/Third_Party/RealThread_RTOS/src/ipc.c **** 
 122              		.loc 1 211 5 is_stmt 1 discriminator 1 view .LVU28
 123 0038 D322     		movs	r2, #211
 124 003a 0249     		ldr	r1, .L7
 125 003c 0348     		ldr	r0, .L7+8
 126 003e FFF7FEFF 		bl	rt_assert_handler
 127              	.LVL10:
 128 0042 E6E7     		b	.L3
 129              	.L8:
 130              		.align	2
 131              	.L7:
 132 0044 00000000 		.word	.LANCHOR0
 133 0048 00000000 		.word	.LC0
 134 004c 10000000 		.word	.LC1
 135              		.cfi_endproc
 136              	.LFE19:
 138              		.section	.rodata.rt_sem_detach.str1.4,"aMS",%progbits,1
 139              		.align	2
 140              	.LC2:
 141 0000 72745F6F 		.ascii	"rt_object_get_type(&sem->parent.parent) == RT_Objec"
 141      626A6563 
 141      745F6765 
 141      745F7479 
 141      70652826 
 142 0033 745F436C 		.ascii	"t_Class_Semaphore\000"
 142      6173735F 
 142      53656D61 
 142      70686F72 
 142      6500
 143 0045 000000   		.align	2
 144              	.LC3:
 145 0048 72745F6F 		.ascii	"rt_object_is_systemobject(&sem->parent.parent)\000"
 145      626A6563 
 145      745F6973 
 145      5F737973 
 145      74656D6F 
 146              		.section	.text.rt_sem_detach,"ax",%progbits
 147              		.align	1
 148              		.global	rt_sem_detach
 149              		.syntax unified
 150              		.thumb
 151              		.thumb_func
 152              		.fpu softvfp
 154              	rt_sem_detach:
 155              	.LVL11:
ARM GAS  C:\Users\Administrator\AppData\Local\Temp\ccS10GXs.s 			page 9


 156              	.LFB20:
 227:Middlewares/Third_Party/RealThread_RTOS/src/ipc.c **** 
 228:Middlewares/Third_Party/RealThread_RTOS/src/ipc.c **** /**
 229:Middlewares/Third_Party/RealThread_RTOS/src/ipc.c ****  * This function will detach a semaphore from resource management
 230:Middlewares/Third_Party/RealThread_RTOS/src/ipc.c ****  *
 231:Middlewares/Third_Party/RealThread_RTOS/src/ipc.c ****  * @param sem the semaphore object
 232:Middlewares/Third_Party/RealThread_RTOS/src/ipc.c ****  *
 233:Middlewares/Third_Party/RealThread_RTOS/src/ipc.c ****  * @return the operation status, RT_EOK on successful
 234:Middlewares/Third_Party/RealThread_RTOS/src/ipc.c ****  *
 235:Middlewares/Third_Party/RealThread_RTOS/src/ipc.c ****  * @see rt_sem_delete
 236:Middlewares/Third_Party/RealThread_RTOS/src/ipc.c ****  */
 237:Middlewares/Third_Party/RealThread_RTOS/src/ipc.c **** rt_err_t rt_sem_detach(rt_sem_t sem)
 238:Middlewares/Third_Party/RealThread_RTOS/src/ipc.c **** {
 157              		.loc 1 238 1 view -0
 158              		.cfi_startproc
 159              		@ args = 0, pretend = 0, frame = 0
 160              		@ frame_needed = 0, uses_anonymous_args = 0
 161              		.loc 1 238 1 is_stmt 0 view .LVU30
 162 0000 70B5     		push	{r4, r5, r6, lr}
 163              	.LCFI1:
 164              		.cfi_def_cfa_offset 16
 165              		.cfi_offset 4, -16
 166              		.cfi_offset 5, -12
 167              		.cfi_offset 6, -8
 168              		.cfi_offset 14, -4
 239:Middlewares/Third_Party/RealThread_RTOS/src/ipc.c ****     /* parameter check */
 240:Middlewares/Third_Party/RealThread_RTOS/src/ipc.c ****     RT_ASSERT(sem != RT_NULL);
 169              		.loc 1 240 5 is_stmt 1 view .LVU31
 170 0002 0646     		mov	r6, r0
 171 0004 58B1     		cbz	r0, .L16
 172              	.LVL12:
 173              	.L10:
 174              		.loc 1 240 30 discriminator 3 view .LVU32
 241:Middlewares/Third_Party/RealThread_RTOS/src/ipc.c ****     RT_ASSERT(rt_object_get_type(&sem->parent.parent) == RT_Object_Class_Semaphore);
 175              		.loc 1 241 5 discriminator 3 view .LVU33
 176 0006 3046     		mov	r0, r6
 177 0008 FFF7FEFF 		bl	rt_object_get_type
 178              	.LVL13:
 179 000c 0228     		cmp	r0, #2
 180 000e 0CD1     		bne	.L17
 181              	.L11:
 182              		.loc 1 241 84 discriminator 3 view .LVU34
 242:Middlewares/Third_Party/RealThread_RTOS/src/ipc.c ****     RT_ASSERT(rt_object_is_systemobject(&sem->parent.parent));
 183              		.loc 1 242 5 discriminator 3 view .LVU35
 184 0010 3046     		mov	r0, r6
 185 0012 FFF7FEFF 		bl	rt_object_is_systemobject
 186              	.LVL14:
 187 0016 70B1     		cbz	r0, .L18
 188              	.L12:
 189              		.loc 1 242 62 discriminator 3 view .LVU36
 243:Middlewares/Third_Party/RealThread_RTOS/src/ipc.c **** 
 244:Middlewares/Third_Party/RealThread_RTOS/src/ipc.c ****     /* wakeup all suspended threads */
 245:Middlewares/Third_Party/RealThread_RTOS/src/ipc.c ****     rt_ipc_list_resume_all(&(sem->parent.suspend_thread));
 190              		.loc 1 245 5 discriminator 3 view .LVU37
 191 0018 06F11405 		add	r5, r6, #20
 192              	.LVL15:
 193              	.LBB114:
ARM GAS  C:\Users\Administrator\AppData\Local\Temp\ccS10GXs.s 			page 10


 194              	.LBI114:
 163:Middlewares/Third_Party/RealThread_RTOS/src/ipc.c **** {
 195              		.loc 1 163 20 discriminator 3 view .LVU38
 196              	.LBB115:
 165:Middlewares/Third_Party/RealThread_RTOS/src/ipc.c ****     register rt_ubase_t temp;
 197              		.loc 1 165 5 discriminator 3 view .LVU39
 166:Middlewares/Third_Party/RealThread_RTOS/src/ipc.c **** 
 198              		.loc 1 166 5 discriminator 3 view .LVU40
 169:Middlewares/Third_Party/RealThread_RTOS/src/ipc.c ****     {
 199              		.loc 1 169 5 discriminator 3 view .LVU41
 169:Middlewares/Third_Party/RealThread_RTOS/src/ipc.c ****     {
 200              		.loc 1 169 11 is_stmt 0 discriminator 3 view .LVU42
 201 001c 1EE0     		b	.L13
 202              	.LVL16:
 203              	.L16:
 169:Middlewares/Third_Party/RealThread_RTOS/src/ipc.c ****     {
 204              		.loc 1 169 11 discriminator 3 view .LVU43
 205              	.LBE115:
 206              	.LBE114:
 240:Middlewares/Third_Party/RealThread_RTOS/src/ipc.c ****     RT_ASSERT(rt_object_get_type(&sem->parent.parent) == RT_Object_Class_Semaphore);
 207              		.loc 1 240 5 is_stmt 1 discriminator 1 view .LVU44
 208 001e F022     		movs	r2, #240
 209 0020 1249     		ldr	r1, .L19
 210 0022 1348     		ldr	r0, .L19+4
 211              	.LVL17:
 240:Middlewares/Third_Party/RealThread_RTOS/src/ipc.c ****     RT_ASSERT(rt_object_get_type(&sem->parent.parent) == RT_Object_Class_Semaphore);
 212              		.loc 1 240 5 is_stmt 0 discriminator 1 view .LVU45
 213 0024 FFF7FEFF 		bl	rt_assert_handler
 214              	.LVL18:
 215 0028 EDE7     		b	.L10
 216              	.L17:
 241:Middlewares/Third_Party/RealThread_RTOS/src/ipc.c ****     RT_ASSERT(rt_object_is_systemobject(&sem->parent.parent));
 217              		.loc 1 241 5 is_stmt 1 discriminator 1 view .LVU46
 218 002a F122     		movs	r2, #241
 219 002c 0F49     		ldr	r1, .L19
 220 002e 1148     		ldr	r0, .L19+8
 221 0030 FFF7FEFF 		bl	rt_assert_handler
 222              	.LVL19:
 223 0034 ECE7     		b	.L11
 224              	.L18:
 242:Middlewares/Third_Party/RealThread_RTOS/src/ipc.c **** 
 225              		.loc 1 242 5 discriminator 1 view .LVU47
 226 0036 F222     		movs	r2, #242
 227 0038 0C49     		ldr	r1, .L19
 228 003a 0F48     		ldr	r0, .L19+12
 229 003c FFF7FEFF 		bl	rt_assert_handler
 230              	.LVL20:
 231 0040 EAE7     		b	.L12
 232              	.LVL21:
 233              	.L14:
 234              	.LBB119:
 235              	.LBB118:
 172:Middlewares/Third_Party/RealThread_RTOS/src/ipc.c **** 
 236              		.loc 1 172 9 view .LVU48
 172:Middlewares/Third_Party/RealThread_RTOS/src/ipc.c **** 
 237              		.loc 1 172 16 is_stmt 0 view .LVU49
 238 0042 FFF7FEFF 		bl	rt_hw_interrupt_disable
ARM GAS  C:\Users\Administrator\AppData\Local\Temp\ccS10GXs.s 			page 11


 239              	.LVL22:
 240 0046 0446     		mov	r4, r0
 241              	.LVL23:
 175:Middlewares/Third_Party/RealThread_RTOS/src/ipc.c ****         /* set error code to RT_ERROR */
 242              		.loc 1 175 9 is_stmt 1 view .LVU50
 175:Middlewares/Third_Party/RealThread_RTOS/src/ipc.c ****         /* set error code to RT_ERROR */
 243              		.loc 1 175 18 is_stmt 0 view .LVU51
 244 0048 2868     		ldr	r0, [r5]
 245              	.LVL24:
 177:Middlewares/Third_Party/RealThread_RTOS/src/ipc.c **** 
 246              		.loc 1 177 9 is_stmt 1 view .LVU52
 177:Middlewares/Third_Party/RealThread_RTOS/src/ipc.c **** 
 247              		.loc 1 177 23 is_stmt 0 view .LVU53
 248 004a 4FF0FF33 		mov	r3, #-1
 249 004e C361     		str	r3, [r0, #28]
 184:Middlewares/Third_Party/RealThread_RTOS/src/ipc.c **** 
 250              		.loc 1 184 9 is_stmt 1 view .LVU54
 251 0050 1438     		subs	r0, r0, #20
 252              	.LVL25:
 184:Middlewares/Third_Party/RealThread_RTOS/src/ipc.c **** 
 253              		.loc 1 184 9 is_stmt 0 view .LVU55
 254 0052 FFF7FEFF 		bl	rt_thread_resume
 255              	.LVL26:
 187:Middlewares/Third_Party/RealThread_RTOS/src/ipc.c ****     }
 256              		.loc 1 187 9 is_stmt 1 view .LVU56
 257 0056 2046     		mov	r0, r4
 258 0058 FFF7FEFF 		bl	rt_hw_interrupt_enable
 259              	.LVL27:
 260              	.L13:
 169:Middlewares/Third_Party/RealThread_RTOS/src/ipc.c ****     {
 261              		.loc 1 169 11 view .LVU57
 262              	.LBB116:
 263              	.LBI116:
  50:Middlewares/Third_Party/RealThread_RTOS/include/rtservice.h **** }
  51:Middlewares/Third_Party/RealThread_RTOS/include/rtservice.h **** 
  52:Middlewares/Third_Party/RealThread_RTOS/include/rtservice.h **** /**
  53:Middlewares/Third_Party/RealThread_RTOS/include/rtservice.h ****  * @brief insert a node after a list
  54:Middlewares/Third_Party/RealThread_RTOS/include/rtservice.h ****  *
  55:Middlewares/Third_Party/RealThread_RTOS/include/rtservice.h ****  * @param l list to insert it
  56:Middlewares/Third_Party/RealThread_RTOS/include/rtservice.h ****  * @param n new node to be inserted
  57:Middlewares/Third_Party/RealThread_RTOS/include/rtservice.h ****  */
  58:Middlewares/Third_Party/RealThread_RTOS/include/rtservice.h **** rt_inline void rt_list_insert_after(rt_list_t *l, rt_list_t *n)
  59:Middlewares/Third_Party/RealThread_RTOS/include/rtservice.h **** {
  60:Middlewares/Third_Party/RealThread_RTOS/include/rtservice.h ****     l->next->prev = n;
  61:Middlewares/Third_Party/RealThread_RTOS/include/rtservice.h ****     n->next = l->next;
  62:Middlewares/Third_Party/RealThread_RTOS/include/rtservice.h **** 
  63:Middlewares/Third_Party/RealThread_RTOS/include/rtservice.h ****     l->next = n;
  64:Middlewares/Third_Party/RealThread_RTOS/include/rtservice.h ****     n->prev = l;
  65:Middlewares/Third_Party/RealThread_RTOS/include/rtservice.h **** }
  66:Middlewares/Third_Party/RealThread_RTOS/include/rtservice.h **** 
  67:Middlewares/Third_Party/RealThread_RTOS/include/rtservice.h **** /**
  68:Middlewares/Third_Party/RealThread_RTOS/include/rtservice.h ****  * @brief insert a node before a list
  69:Middlewares/Third_Party/RealThread_RTOS/include/rtservice.h ****  *
  70:Middlewares/Third_Party/RealThread_RTOS/include/rtservice.h ****  * @param n new node to be inserted
  71:Middlewares/Third_Party/RealThread_RTOS/include/rtservice.h ****  * @param l list to insert it
  72:Middlewares/Third_Party/RealThread_RTOS/include/rtservice.h ****  */
  73:Middlewares/Third_Party/RealThread_RTOS/include/rtservice.h **** rt_inline void rt_list_insert_before(rt_list_t *l, rt_list_t *n)
ARM GAS  C:\Users\Administrator\AppData\Local\Temp\ccS10GXs.s 			page 12


  74:Middlewares/Third_Party/RealThread_RTOS/include/rtservice.h **** {
  75:Middlewares/Third_Party/RealThread_RTOS/include/rtservice.h ****     l->prev->next = n;
  76:Middlewares/Third_Party/RealThread_RTOS/include/rtservice.h ****     n->prev = l->prev;
  77:Middlewares/Third_Party/RealThread_RTOS/include/rtservice.h **** 
  78:Middlewares/Third_Party/RealThread_RTOS/include/rtservice.h ****     l->prev = n;
  79:Middlewares/Third_Party/RealThread_RTOS/include/rtservice.h ****     n->next = l;
  80:Middlewares/Third_Party/RealThread_RTOS/include/rtservice.h **** }
  81:Middlewares/Third_Party/RealThread_RTOS/include/rtservice.h **** 
  82:Middlewares/Third_Party/RealThread_RTOS/include/rtservice.h **** /**
  83:Middlewares/Third_Party/RealThread_RTOS/include/rtservice.h ****  * @brief remove node from list.
  84:Middlewares/Third_Party/RealThread_RTOS/include/rtservice.h ****  * @param n the node to remove from the list.
  85:Middlewares/Third_Party/RealThread_RTOS/include/rtservice.h ****  */
  86:Middlewares/Third_Party/RealThread_RTOS/include/rtservice.h **** rt_inline void rt_list_remove(rt_list_t *n)
  87:Middlewares/Third_Party/RealThread_RTOS/include/rtservice.h **** {
  88:Middlewares/Third_Party/RealThread_RTOS/include/rtservice.h ****     n->next->prev = n->prev;
  89:Middlewares/Third_Party/RealThread_RTOS/include/rtservice.h ****     n->prev->next = n->next;
  90:Middlewares/Third_Party/RealThread_RTOS/include/rtservice.h **** 
  91:Middlewares/Third_Party/RealThread_RTOS/include/rtservice.h ****     n->next = n->prev = n;
  92:Middlewares/Third_Party/RealThread_RTOS/include/rtservice.h **** }
  93:Middlewares/Third_Party/RealThread_RTOS/include/rtservice.h **** 
  94:Middlewares/Third_Party/RealThread_RTOS/include/rtservice.h **** /**
  95:Middlewares/Third_Party/RealThread_RTOS/include/rtservice.h ****  * @brief tests whether a list is empty
  96:Middlewares/Third_Party/RealThread_RTOS/include/rtservice.h ****  * @param l the list to test.
  97:Middlewares/Third_Party/RealThread_RTOS/include/rtservice.h ****  */
  98:Middlewares/Third_Party/RealThread_RTOS/include/rtservice.h **** rt_inline int rt_list_isempty(const rt_list_t *l)
 264              		.loc 2 98 15 view .LVU58
 265              	.LBB117:
  99:Middlewares/Third_Party/RealThread_RTOS/include/rtservice.h **** {
 100:Middlewares/Third_Party/RealThread_RTOS/include/rtservice.h ****     return l->next == l;
 266              		.loc 2 100 5 view .LVU59
 267              		.loc 2 100 13 is_stmt 0 view .LVU60
 268 005c 2B68     		ldr	r3, [r5]
 269              	.LVL28:
 270              		.loc 2 100 13 view .LVU61
 271              	.LBE117:
 272              	.LBE116:
 169:Middlewares/Third_Party/RealThread_RTOS/src/ipc.c ****     {
 273              		.loc 1 169 11 view .LVU62
 274 005e 9D42     		cmp	r5, r3
 275 0060 EFD1     		bne	.L14
 190:Middlewares/Third_Party/RealThread_RTOS/src/ipc.c **** }
 276              		.loc 1 190 5 is_stmt 1 discriminator 3 view .LVU63
 277              	.LVL29:
 190:Middlewares/Third_Party/RealThread_RTOS/src/ipc.c **** }
 278              		.loc 1 190 5 is_stmt 0 discriminator 3 view .LVU64
 279              	.LBE118:
 280              	.LBE119:
 246:Middlewares/Third_Party/RealThread_RTOS/src/ipc.c **** 
 247:Middlewares/Third_Party/RealThread_RTOS/src/ipc.c ****     /* detach semaphore object */
 248:Middlewares/Third_Party/RealThread_RTOS/src/ipc.c ****     rt_object_detach(&(sem->parent.parent));
 281              		.loc 1 248 5 is_stmt 1 discriminator 3 view .LVU65
 282 0062 3046     		mov	r0, r6
 283 0064 FFF7FEFF 		bl	rt_object_detach
 284              	.LVL30:
 249:Middlewares/Third_Party/RealThread_RTOS/src/ipc.c **** 
 250:Middlewares/Third_Party/RealThread_RTOS/src/ipc.c ****     return RT_EOK;
 285              		.loc 1 250 5 discriminator 3 view .LVU66
ARM GAS  C:\Users\Administrator\AppData\Local\Temp\ccS10GXs.s 			page 13


 251:Middlewares/Third_Party/RealThread_RTOS/src/ipc.c **** }
 286              		.loc 1 251 1 is_stmt 0 discriminator 3 view .LVU67
 287 0068 0020     		movs	r0, #0
 288 006a 70BD     		pop	{r4, r5, r6, pc}
 289              	.LVL31:
 290              	.L20:
 291              		.loc 1 251 1 discriminator 3 view .LVU68
 292              		.align	2
 293              	.L19:
 294 006c 00000000 		.word	.LANCHOR1
 295 0070 00000000 		.word	.LC0
 296 0074 00000000 		.word	.LC2
 297 0078 48000000 		.word	.LC3
 298              		.cfi_endproc
 299              	.LFE20:
 301              		.section	.rodata.rt_sem_create.str1.4,"aMS",%progbits,1
 302              		.align	2
 303              	.LC4:
 304 0000 46756E63 		.ascii	"Function[%s] shall not be used in ISR\012\000"
 304      74696F6E 
 304      5B25735D 
 304      20736861 
 304      6C6C206E 
 305 0027 00       		.align	2
 306              	.LC5:
 307 0028 3000     		.ascii	"0\000"
 308              		.section	.text.rt_sem_create,"ax",%progbits
 309              		.align	1
 310              		.global	rt_sem_create
 311              		.syntax unified
 312              		.thumb
 313              		.thumb_func
 314              		.fpu softvfp
 316              	rt_sem_create:
 317              	.LVL32:
 318              	.LFB21:
 252:Middlewares/Third_Party/RealThread_RTOS/src/ipc.c **** 
 253:Middlewares/Third_Party/RealThread_RTOS/src/ipc.c **** #ifdef RT_USING_HEAP
 254:Middlewares/Third_Party/RealThread_RTOS/src/ipc.c **** /**
 255:Middlewares/Third_Party/RealThread_RTOS/src/ipc.c ****  * This function will create a semaphore from system resource
 256:Middlewares/Third_Party/RealThread_RTOS/src/ipc.c ****  *
 257:Middlewares/Third_Party/RealThread_RTOS/src/ipc.c ****  * @param name the name of semaphore
 258:Middlewares/Third_Party/RealThread_RTOS/src/ipc.c ****  * @param value the initial value of semaphore
 259:Middlewares/Third_Party/RealThread_RTOS/src/ipc.c ****  * @param flag the flag of semaphore
 260:Middlewares/Third_Party/RealThread_RTOS/src/ipc.c ****  *
 261:Middlewares/Third_Party/RealThread_RTOS/src/ipc.c ****  * @return the created semaphore, RT_NULL on error happen
 262:Middlewares/Third_Party/RealThread_RTOS/src/ipc.c ****  *
 263:Middlewares/Third_Party/RealThread_RTOS/src/ipc.c ****  * @see rt_sem_init
 264:Middlewares/Third_Party/RealThread_RTOS/src/ipc.c ****  */
 265:Middlewares/Third_Party/RealThread_RTOS/src/ipc.c **** rt_sem_t rt_sem_create(const char *name, rt_uint32_t value, rt_uint8_t flag)
 266:Middlewares/Third_Party/RealThread_RTOS/src/ipc.c **** {
 319              		.loc 1 266 1 is_stmt 1 view -0
 320              		.cfi_startproc
 321              		@ args = 0, pretend = 0, frame = 0
 322              		@ frame_needed = 0, uses_anonymous_args = 0
 323              		.loc 1 266 1 is_stmt 0 view .LVU70
 324 0000 2DE9F041 		push	{r4, r5, r6, r7, r8, lr}
ARM GAS  C:\Users\Administrator\AppData\Local\Temp\ccS10GXs.s 			page 14


 325              	.LCFI2:
 326              		.cfi_def_cfa_offset 24
 327              		.cfi_offset 4, -24
 328              		.cfi_offset 5, -20
 329              		.cfi_offset 6, -16
 330              		.cfi_offset 7, -12
 331              		.cfi_offset 8, -8
 332              		.cfi_offset 14, -4
 333 0004 0546     		mov	r5, r0
 334 0006 0C46     		mov	r4, r1
 335 0008 1746     		mov	r7, r2
 267:Middlewares/Third_Party/RealThread_RTOS/src/ipc.c ****     rt_sem_t sem;
 336              		.loc 1 267 5 is_stmt 1 view .LVU71
 268:Middlewares/Third_Party/RealThread_RTOS/src/ipc.c **** 
 269:Middlewares/Third_Party/RealThread_RTOS/src/ipc.c ****     RT_DEBUG_NOT_IN_INTERRUPT;
 337              		.loc 1 269 5 view .LVU72
 338              	.LBB120:
 339              		.loc 1 269 5 view .LVU73
 340              		.loc 1 269 5 view .LVU74
 341 000a FFF7FEFF 		bl	rt_hw_interrupt_disable
 342              	.LVL33:
 343              		.loc 1 269 5 is_stmt 0 view .LVU75
 344 000e 0646     		mov	r6, r0
 345              	.LVL34:
 346              		.loc 1 269 5 is_stmt 1 view .LVU76
 347 0010 FFF7FEFF 		bl	rt_interrupt_get_nest
 348              	.LVL35:
 349              		.loc 1 269 5 is_stmt 0 view .LVU77
 350 0014 A0B9     		cbnz	r0, .L26
 351              	.L22:
 352              		.loc 1 269 5 is_stmt 1 discriminator 5 view .LVU78
 353 0016 3046     		mov	r0, r6
 354 0018 FFF7FEFF 		bl	rt_hw_interrupt_enable
 355              	.LVL36:
 356              	.LBE120:
 357              		.loc 1 269 5 discriminator 5 view .LVU79
 270:Middlewares/Third_Party/RealThread_RTOS/src/ipc.c ****     RT_ASSERT(value < 0x10000U);
 358              		.loc 1 270 5 discriminator 5 view .LVU80
 359 001c B4F5803F 		cmp	r4, #65536
 360 0020 1BD2     		bcs	.L27
 361              	.L23:
 362              		.loc 1 270 32 discriminator 3 view .LVU81
 271:Middlewares/Third_Party/RealThread_RTOS/src/ipc.c **** 
 272:Middlewares/Third_Party/RealThread_RTOS/src/ipc.c ****     /* allocate object */
 273:Middlewares/Third_Party/RealThread_RTOS/src/ipc.c ****     sem = (rt_sem_t)rt_object_allocate(RT_Object_Class_Semaphore, name);
 363              		.loc 1 273 5 discriminator 3 view .LVU82
 364              		.loc 1 273 21 is_stmt 0 discriminator 3 view .LVU83
 365 0022 2946     		mov	r1, r5
 366 0024 0220     		movs	r0, #2
 367 0026 FFF7FEFF 		bl	rt_object_allocate
 368              	.LVL37:
 274:Middlewares/Third_Party/RealThread_RTOS/src/ipc.c ****     if (sem == RT_NULL)
 369              		.loc 1 274 5 is_stmt 1 discriminator 3 view .LVU84
 370              		.loc 1 274 8 is_stmt 0 discriminator 3 view .LVU85
 371 002a 0346     		mov	r3, r0
 372 002c 28B1     		cbz	r0, .L21
 275:Middlewares/Third_Party/RealThread_RTOS/src/ipc.c ****         return sem;
ARM GAS  C:\Users\Administrator\AppData\Local\Temp\ccS10GXs.s 			page 15


 276:Middlewares/Third_Party/RealThread_RTOS/src/ipc.c **** 
 277:Middlewares/Third_Party/RealThread_RTOS/src/ipc.c ****     /* initialize ipc object */
 278:Middlewares/Third_Party/RealThread_RTOS/src/ipc.c ****     rt_ipc_object_init(&(sem->parent));
 373              		.loc 1 278 5 is_stmt 1 view .LVU86
 374              	.LVL38:
 375              	.LBB121:
 376              	.LBI121:
  64:Middlewares/Third_Party/RealThread_RTOS/src/ipc.c **** {
 377              		.loc 1 64 20 view .LVU87
 378              	.LBB122:
  67:Middlewares/Third_Party/RealThread_RTOS/src/ipc.c **** 
 379              		.loc 1 67 5 view .LVU88
 380 002e 00F11402 		add	r2, r0, #20
 381              	.LVL39:
 382              	.LBB123:
 383              	.LBI123:
  47:Middlewares/Third_Party/RealThread_RTOS/include/rtservice.h **** {
 384              		.loc 2 47 16 view .LVU89
 385              	.LBB124:
  49:Middlewares/Third_Party/RealThread_RTOS/include/rtservice.h **** }
 386              		.loc 2 49 5 view .LVU90
  49:Middlewares/Third_Party/RealThread_RTOS/include/rtservice.h **** }
 387              		.loc 2 49 23 is_stmt 0 view .LVU91
 388 0032 8261     		str	r2, [r0, #24]
  49:Middlewares/Third_Party/RealThread_RTOS/include/rtservice.h **** }
 389              		.loc 2 49 13 view .LVU92
 390 0034 4261     		str	r2, [r0, #20]
 391              	.LVL40:
  49:Middlewares/Third_Party/RealThread_RTOS/include/rtservice.h **** }
 392              		.loc 2 49 13 view .LVU93
 393              	.LBE124:
 394              	.LBE123:
  69:Middlewares/Third_Party/RealThread_RTOS/src/ipc.c **** }
 395              		.loc 1 69 5 is_stmt 1 view .LVU94
  69:Middlewares/Third_Party/RealThread_RTOS/src/ipc.c **** }
 396              		.loc 1 69 5 is_stmt 0 view .LVU95
 397              	.LBE122:
 398              	.LBE121:
 279:Middlewares/Third_Party/RealThread_RTOS/src/ipc.c **** 
 280:Middlewares/Third_Party/RealThread_RTOS/src/ipc.c ****     /* set initial value */
 281:Middlewares/Third_Party/RealThread_RTOS/src/ipc.c ****     sem->value = value;
 399              		.loc 1 281 5 is_stmt 1 view .LVU96
 400              		.loc 1 281 16 is_stmt 0 view .LVU97
 401 0036 8483     		strh	r4, [r0, #28]	@ movhi
 282:Middlewares/Third_Party/RealThread_RTOS/src/ipc.c **** 
 283:Middlewares/Third_Party/RealThread_RTOS/src/ipc.c ****     /* set parent */
 284:Middlewares/Third_Party/RealThread_RTOS/src/ipc.c ****     sem->parent.parent.flag = flag;
 402              		.loc 1 284 5 is_stmt 1 view .LVU98
 403              		.loc 1 284 29 is_stmt 0 view .LVU99
 404 0038 4772     		strb	r7, [r0, #9]
 285:Middlewares/Third_Party/RealThread_RTOS/src/ipc.c **** 
 286:Middlewares/Third_Party/RealThread_RTOS/src/ipc.c ****     return sem;
 405              		.loc 1 286 5 is_stmt 1 view .LVU100
 406              	.L21:
 287:Middlewares/Third_Party/RealThread_RTOS/src/ipc.c **** }
 407              		.loc 1 287 1 is_stmt 0 view .LVU101
 408 003a 1846     		mov	r0, r3
ARM GAS  C:\Users\Administrator\AppData\Local\Temp\ccS10GXs.s 			page 16


 409              	.LVL41:
 410              		.loc 1 287 1 view .LVU102
 411 003c BDE8F081 		pop	{r4, r5, r6, r7, r8, pc}
 412              	.LVL42:
 413              	.L26:
 414              	.LBB125:
 269:Middlewares/Third_Party/RealThread_RTOS/src/ipc.c ****     RT_ASSERT(value < 0x10000U);
 415              		.loc 1 269 5 is_stmt 1 discriminator 1 view .LVU103
 416 0040 DFF82480 		ldr	r8, .L28
 417 0044 4146     		mov	r1, r8
 418 0046 0948     		ldr	r0, .L28+4
 419 0048 FFF7FEFF 		bl	rt_kprintf
 420              	.LVL43:
 269:Middlewares/Third_Party/RealThread_RTOS/src/ipc.c ****     RT_ASSERT(value < 0x10000U);
 421              		.loc 1 269 5 discriminator 1 view .LVU104
 269:Middlewares/Third_Party/RealThread_RTOS/src/ipc.c ****     RT_ASSERT(value < 0x10000U);
 422              		.loc 1 269 5 discriminator 1 view .LVU105
 423 004c 40F20D12 		movw	r2, #269
 424 0050 4146     		mov	r1, r8
 425 0052 0748     		ldr	r0, .L28+8
 426 0054 FFF7FEFF 		bl	rt_assert_handler
 427              	.LVL44:
 428 0058 DDE7     		b	.L22
 429              	.L27:
 269:Middlewares/Third_Party/RealThread_RTOS/src/ipc.c ****     RT_ASSERT(value < 0x10000U);
 430              		.loc 1 269 5 is_stmt 0 discriminator 1 view .LVU106
 431              	.LBE125:
 270:Middlewares/Third_Party/RealThread_RTOS/src/ipc.c **** 
 432              		.loc 1 270 5 is_stmt 1 discriminator 1 view .LVU107
 433 005a 4FF48772 		mov	r2, #270
 434 005e 0249     		ldr	r1, .L28
 435 0060 0448     		ldr	r0, .L28+12
 436 0062 FFF7FEFF 		bl	rt_assert_handler
 437              	.LVL45:
 438 0066 DCE7     		b	.L23
 439              	.L29:
 440              		.align	2
 441              	.L28:
 442 0068 00000000 		.word	.LANCHOR2
 443 006c 00000000 		.word	.LC4
 444 0070 28000000 		.word	.LC5
 445 0074 10000000 		.word	.LC1
 446              		.cfi_endproc
 447              	.LFE21:
 449              		.section	.rodata.rt_sem_delete.str1.4,"aMS",%progbits,1
 450              		.align	2
 451              	.LC6:
 452 0000 72745F6F 		.ascii	"rt_object_is_systemobject(&sem->parent.parent) == R"
 452      626A6563 
 452      745F6973 
 452      5F737973 
 452      74656D6F 
 453 0033 545F4641 		.ascii	"T_FALSE\000"
 453      4C534500 
 454              		.section	.text.rt_sem_delete,"ax",%progbits
 455              		.align	1
 456              		.global	rt_sem_delete
ARM GAS  C:\Users\Administrator\AppData\Local\Temp\ccS10GXs.s 			page 17


 457              		.syntax unified
 458              		.thumb
 459              		.thumb_func
 460              		.fpu softvfp
 462              	rt_sem_delete:
 463              	.LVL46:
 464              	.LFB22:
 288:Middlewares/Third_Party/RealThread_RTOS/src/ipc.c **** 
 289:Middlewares/Third_Party/RealThread_RTOS/src/ipc.c **** /**
 290:Middlewares/Third_Party/RealThread_RTOS/src/ipc.c ****  * This function will delete a semaphore object and release the memory
 291:Middlewares/Third_Party/RealThread_RTOS/src/ipc.c ****  *
 292:Middlewares/Third_Party/RealThread_RTOS/src/ipc.c ****  * @param sem the semaphore object
 293:Middlewares/Third_Party/RealThread_RTOS/src/ipc.c ****  *
 294:Middlewares/Third_Party/RealThread_RTOS/src/ipc.c ****  * @return the error code
 295:Middlewares/Third_Party/RealThread_RTOS/src/ipc.c ****  *
 296:Middlewares/Third_Party/RealThread_RTOS/src/ipc.c ****  * @see rt_sem_detach
 297:Middlewares/Third_Party/RealThread_RTOS/src/ipc.c ****  */
 298:Middlewares/Third_Party/RealThread_RTOS/src/ipc.c **** rt_err_t rt_sem_delete(rt_sem_t sem)
 299:Middlewares/Third_Party/RealThread_RTOS/src/ipc.c **** {
 465              		.loc 1 299 1 view -0
 466              		.cfi_startproc
 467              		@ args = 0, pretend = 0, frame = 0
 468              		@ frame_needed = 0, uses_anonymous_args = 0
 469              		.loc 1 299 1 is_stmt 0 view .LVU109
 470 0000 70B5     		push	{r4, r5, r6, lr}
 471              	.LCFI3:
 472              		.cfi_def_cfa_offset 16
 473              		.cfi_offset 4, -16
 474              		.cfi_offset 5, -12
 475              		.cfi_offset 6, -8
 476              		.cfi_offset 14, -4
 477 0002 0646     		mov	r6, r0
 300:Middlewares/Third_Party/RealThread_RTOS/src/ipc.c ****     RT_DEBUG_NOT_IN_INTERRUPT;
 478              		.loc 1 300 5 is_stmt 1 view .LVU110
 479              	.LBB131:
 480              		.loc 1 300 5 view .LVU111
 481              		.loc 1 300 5 view .LVU112
 482 0004 FFF7FEFF 		bl	rt_hw_interrupt_disable
 483              	.LVL47:
 484              		.loc 1 300 5 is_stmt 0 view .LVU113
 485 0008 0446     		mov	r4, r0
 486              	.LVL48:
 487              		.loc 1 300 5 is_stmt 1 view .LVU114
 488 000a FFF7FEFF 		bl	rt_interrupt_get_nest
 489              	.LVL49:
 490              		.loc 1 300 5 is_stmt 0 view .LVU115
 491 000e 78B9     		cbnz	r0, .L38
 492              	.L31:
 493              		.loc 1 300 5 is_stmt 1 discriminator 5 view .LVU116
 494 0010 2046     		mov	r0, r4
 495 0012 FFF7FEFF 		bl	rt_hw_interrupt_enable
 496              	.LVL50:
 497              	.LBE131:
 498              		.loc 1 300 5 discriminator 5 view .LVU117
 301:Middlewares/Third_Party/RealThread_RTOS/src/ipc.c **** 
 302:Middlewares/Third_Party/RealThread_RTOS/src/ipc.c ****     /* parameter check */
 303:Middlewares/Third_Party/RealThread_RTOS/src/ipc.c ****     RT_ASSERT(sem != RT_NULL);
ARM GAS  C:\Users\Administrator\AppData\Local\Temp\ccS10GXs.s 			page 18


 499              		.loc 1 303 5 discriminator 5 view .LVU118
 500 0016 BEB1     		cbz	r6, .L39
 501              	.L32:
 502              		.loc 1 303 30 discriminator 3 view .LVU119
 304:Middlewares/Third_Party/RealThread_RTOS/src/ipc.c ****     RT_ASSERT(rt_object_get_type(&sem->parent.parent) == RT_Object_Class_Semaphore);
 503              		.loc 1 304 5 discriminator 3 view .LVU120
 504 0018 3046     		mov	r0, r6
 505 001a FFF7FEFF 		bl	rt_object_get_type
 506              	.LVL51:
 507 001e 0228     		cmp	r0, #2
 508 0020 19D1     		bne	.L40
 509              	.L33:
 510              		.loc 1 304 84 discriminator 3 view .LVU121
 305:Middlewares/Third_Party/RealThread_RTOS/src/ipc.c ****     RT_ASSERT(rt_object_is_systemobject(&sem->parent.parent) == RT_FALSE);
 511              		.loc 1 305 5 discriminator 3 view .LVU122
 512 0022 3046     		mov	r0, r6
 513 0024 FFF7FEFF 		bl	rt_object_is_systemobject
 514              	.LVL52:
 515 0028 E0B9     		cbnz	r0, .L41
 516              	.L34:
 517              		.loc 1 305 74 discriminator 3 view .LVU123
 306:Middlewares/Third_Party/RealThread_RTOS/src/ipc.c **** 
 307:Middlewares/Third_Party/RealThread_RTOS/src/ipc.c ****     /* wakeup all suspended threads */
 308:Middlewares/Third_Party/RealThread_RTOS/src/ipc.c ****     rt_ipc_list_resume_all(&(sem->parent.suspend_thread));
 518              		.loc 1 308 5 discriminator 3 view .LVU124
 519 002a 06F11405 		add	r5, r6, #20
 520              	.LVL53:
 521              	.LBB132:
 522              	.LBI132:
 163:Middlewares/Third_Party/RealThread_RTOS/src/ipc.c **** {
 523              		.loc 1 163 20 discriminator 3 view .LVU125
 524              	.LBB133:
 165:Middlewares/Third_Party/RealThread_RTOS/src/ipc.c ****     register rt_ubase_t temp;
 525              		.loc 1 165 5 discriminator 3 view .LVU126
 166:Middlewares/Third_Party/RealThread_RTOS/src/ipc.c **** 
 526              		.loc 1 166 5 discriminator 3 view .LVU127
 169:Middlewares/Third_Party/RealThread_RTOS/src/ipc.c ****     {
 527              		.loc 1 169 5 discriminator 3 view .LVU128
 169:Middlewares/Third_Party/RealThread_RTOS/src/ipc.c ****     {
 528              		.loc 1 169 11 is_stmt 0 discriminator 3 view .LVU129
 529 002e 2DE0     		b	.L35
 530              	.LVL54:
 531              	.L38:
 169:Middlewares/Third_Party/RealThread_RTOS/src/ipc.c ****     {
 532              		.loc 1 169 11 discriminator 3 view .LVU130
 533              	.LBE133:
 534              	.LBE132:
 535              	.LBB137:
 300:Middlewares/Third_Party/RealThread_RTOS/src/ipc.c **** 
 536              		.loc 1 300 5 is_stmt 1 discriminator 1 view .LVU131
 537 0030 1A4D     		ldr	r5, .L42
 538 0032 2946     		mov	r1, r5
 539 0034 1A48     		ldr	r0, .L42+4
 540 0036 FFF7FEFF 		bl	rt_kprintf
 541              	.LVL55:
 300:Middlewares/Third_Party/RealThread_RTOS/src/ipc.c **** 
 542              		.loc 1 300 5 discriminator 1 view .LVU132
ARM GAS  C:\Users\Administrator\AppData\Local\Temp\ccS10GXs.s 			page 19


 300:Middlewares/Third_Party/RealThread_RTOS/src/ipc.c **** 
 543              		.loc 1 300 5 discriminator 1 view .LVU133
 544 003a 4FF49672 		mov	r2, #300
 545 003e 2946     		mov	r1, r5
 546 0040 1848     		ldr	r0, .L42+8
 547 0042 FFF7FEFF 		bl	rt_assert_handler
 548              	.LVL56:
 549 0046 E3E7     		b	.L31
 550              	.L39:
 300:Middlewares/Third_Party/RealThread_RTOS/src/ipc.c **** 
 551              		.loc 1 300 5 is_stmt 0 discriminator 1 view .LVU134
 552              	.LBE137:
 303:Middlewares/Third_Party/RealThread_RTOS/src/ipc.c ****     RT_ASSERT(rt_object_get_type(&sem->parent.parent) == RT_Object_Class_Semaphore);
 553              		.loc 1 303 5 is_stmt 1 discriminator 1 view .LVU135
 554 0048 40F22F12 		movw	r2, #303
 555 004c 1349     		ldr	r1, .L42
 556 004e 1648     		ldr	r0, .L42+12
 557 0050 FFF7FEFF 		bl	rt_assert_handler
 558              	.LVL57:
 559 0054 E0E7     		b	.L32
 560              	.L40:
 304:Middlewares/Third_Party/RealThread_RTOS/src/ipc.c ****     RT_ASSERT(rt_object_is_systemobject(&sem->parent.parent) == RT_FALSE);
 561              		.loc 1 304 5 discriminator 1 view .LVU136
 562 0056 4FF49872 		mov	r2, #304
 563 005a 1049     		ldr	r1, .L42
 564 005c 1348     		ldr	r0, .L42+16
 565 005e FFF7FEFF 		bl	rt_assert_handler
 566              	.LVL58:
 567 0062 DEE7     		b	.L33
 568              	.L41:
 305:Middlewares/Third_Party/RealThread_RTOS/src/ipc.c **** 
 569              		.loc 1 305 5 discriminator 1 view .LVU137
 570 0064 40F23112 		movw	r2, #305
 571 0068 0C49     		ldr	r1, .L42
 572 006a 1148     		ldr	r0, .L42+20
 573 006c FFF7FEFF 		bl	rt_assert_handler
 574              	.LVL59:
 575 0070 DBE7     		b	.L34
 576              	.LVL60:
 577              	.L36:
 578              	.LBB138:
 579              	.LBB136:
 172:Middlewares/Third_Party/RealThread_RTOS/src/ipc.c **** 
 580              		.loc 1 172 9 view .LVU138
 172:Middlewares/Third_Party/RealThread_RTOS/src/ipc.c **** 
 581              		.loc 1 172 16 is_stmt 0 view .LVU139
 582 0072 FFF7FEFF 		bl	rt_hw_interrupt_disable
 583              	.LVL61:
 584 0076 0446     		mov	r4, r0
 585              	.LVL62:
 175:Middlewares/Third_Party/RealThread_RTOS/src/ipc.c ****         /* set error code to RT_ERROR */
 586              		.loc 1 175 9 is_stmt 1 view .LVU140
 175:Middlewares/Third_Party/RealThread_RTOS/src/ipc.c ****         /* set error code to RT_ERROR */
 587              		.loc 1 175 18 is_stmt 0 view .LVU141
 588 0078 2868     		ldr	r0, [r5]
 589              	.LVL63:
 177:Middlewares/Third_Party/RealThread_RTOS/src/ipc.c **** 
ARM GAS  C:\Users\Administrator\AppData\Local\Temp\ccS10GXs.s 			page 20


 590              		.loc 1 177 9 is_stmt 1 view .LVU142
 177:Middlewares/Third_Party/RealThread_RTOS/src/ipc.c **** 
 591              		.loc 1 177 23 is_stmt 0 view .LVU143
 592 007a 4FF0FF33 		mov	r3, #-1
 593 007e C361     		str	r3, [r0, #28]
 184:Middlewares/Third_Party/RealThread_RTOS/src/ipc.c **** 
 594              		.loc 1 184 9 is_stmt 1 view .LVU144
 595 0080 1438     		subs	r0, r0, #20
 596              	.LVL64:
 184:Middlewares/Third_Party/RealThread_RTOS/src/ipc.c **** 
 597              		.loc 1 184 9 is_stmt 0 view .LVU145
 598 0082 FFF7FEFF 		bl	rt_thread_resume
 599              	.LVL65:
 187:Middlewares/Third_Party/RealThread_RTOS/src/ipc.c ****     }
 600              		.loc 1 187 9 is_stmt 1 view .LVU146
 601 0086 2046     		mov	r0, r4
 602 0088 FFF7FEFF 		bl	rt_hw_interrupt_enable
 603              	.LVL66:
 604              	.L35:
 169:Middlewares/Third_Party/RealThread_RTOS/src/ipc.c ****     {
 605              		.loc 1 169 11 view .LVU147
 606              	.LBB134:
 607              	.LBI134:
  98:Middlewares/Third_Party/RealThread_RTOS/include/rtservice.h **** {
 608              		.loc 2 98 15 view .LVU148
 609              	.LBB135:
 610              		.loc 2 100 5 view .LVU149
 611              		.loc 2 100 13 is_stmt 0 view .LVU150
 612 008c 2B68     		ldr	r3, [r5]
 613              	.LVL67:
 614              		.loc 2 100 13 view .LVU151
 615              	.LBE135:
 616              	.LBE134:
 169:Middlewares/Third_Party/RealThread_RTOS/src/ipc.c ****     {
 617              		.loc 1 169 11 view .LVU152
 618 008e 9D42     		cmp	r5, r3
 619 0090 EFD1     		bne	.L36
 190:Middlewares/Third_Party/RealThread_RTOS/src/ipc.c **** }
 620              		.loc 1 190 5 is_stmt 1 discriminator 3 view .LVU153
 621              	.LVL68:
 190:Middlewares/Third_Party/RealThread_RTOS/src/ipc.c **** }
 622              		.loc 1 190 5 is_stmt 0 discriminator 3 view .LVU154
 623              	.LBE136:
 624              	.LBE138:
 309:Middlewares/Third_Party/RealThread_RTOS/src/ipc.c **** 
 310:Middlewares/Third_Party/RealThread_RTOS/src/ipc.c ****     /* delete semaphore object */
 311:Middlewares/Third_Party/RealThread_RTOS/src/ipc.c ****     rt_object_delete(&(sem->parent.parent));
 625              		.loc 1 311 5 is_stmt 1 discriminator 3 view .LVU155
 626 0092 3046     		mov	r0, r6
 627 0094 FFF7FEFF 		bl	rt_object_delete
 628              	.LVL69:
 312:Middlewares/Third_Party/RealThread_RTOS/src/ipc.c **** 
 313:Middlewares/Third_Party/RealThread_RTOS/src/ipc.c ****     return RT_EOK;
 629              		.loc 1 313 5 discriminator 3 view .LVU156
 314:Middlewares/Third_Party/RealThread_RTOS/src/ipc.c **** }
 630              		.loc 1 314 1 is_stmt 0 discriminator 3 view .LVU157
 631 0098 0020     		movs	r0, #0
ARM GAS  C:\Users\Administrator\AppData\Local\Temp\ccS10GXs.s 			page 21


 632 009a 70BD     		pop	{r4, r5, r6, pc}
 633              	.LVL70:
 634              	.L43:
 635              		.loc 1 314 1 discriminator 3 view .LVU158
 636              		.align	2
 637              	.L42:
 638 009c 00000000 		.word	.LANCHOR3
 639 00a0 00000000 		.word	.LC4
 640 00a4 28000000 		.word	.LC5
 641 00a8 00000000 		.word	.LC0
 642 00ac 00000000 		.word	.LC2
 643 00b0 00000000 		.word	.LC6
 644              		.cfi_endproc
 645              	.LFE22:
 647              		.section	.rodata.rt_sem_take.str1.4,"aMS",%progbits,1
 648              		.align	2
 649              	.LC7:
 650 0000 46756E63 		.ascii	"Function[%s] shall not be used before scheduler sta"
 650      74696F6E 
 650      5B25735D 
 650      20736861 
 650      6C6C206E 
 651 0033 72740A00 		.ascii	"rt\012\000"
 652              		.section	.text.rt_sem_take,"ax",%progbits
 653              		.align	1
 654              		.global	rt_sem_take
 655              		.syntax unified
 656              		.thumb
 657              		.thumb_func
 658              		.fpu softvfp
 660              	rt_sem_take:
 661              	.LVL71:
 662              	.LFB23:
 315:Middlewares/Third_Party/RealThread_RTOS/src/ipc.c **** #endif
 316:Middlewares/Third_Party/RealThread_RTOS/src/ipc.c **** 
 317:Middlewares/Third_Party/RealThread_RTOS/src/ipc.c **** /**
 318:Middlewares/Third_Party/RealThread_RTOS/src/ipc.c ****  * This function will take a semaphore, if the semaphore is unavailable, the
 319:Middlewares/Third_Party/RealThread_RTOS/src/ipc.c ****  * thread shall wait for a specified time.
 320:Middlewares/Third_Party/RealThread_RTOS/src/ipc.c ****  *
 321:Middlewares/Third_Party/RealThread_RTOS/src/ipc.c ****  * @param sem the semaphore object
 322:Middlewares/Third_Party/RealThread_RTOS/src/ipc.c ****  * @param time the waiting time
 323:Middlewares/Third_Party/RealThread_RTOS/src/ipc.c ****  *
 324:Middlewares/Third_Party/RealThread_RTOS/src/ipc.c ****  * @return the error code
 325:Middlewares/Third_Party/RealThread_RTOS/src/ipc.c ****  */
 326:Middlewares/Third_Party/RealThread_RTOS/src/ipc.c **** rt_err_t rt_sem_take(rt_sem_t sem, rt_int32_t time)
 327:Middlewares/Third_Party/RealThread_RTOS/src/ipc.c **** {
 663              		.loc 1 327 1 is_stmt 1 view -0
 664              		.cfi_startproc
 665              		@ args = 0, pretend = 0, frame = 8
 666              		@ frame_needed = 0, uses_anonymous_args = 0
 667              		.loc 1 327 1 is_stmt 0 view .LVU160
 668 0000 2DE9F041 		push	{r4, r5, r6, r7, r8, lr}
 669              	.LCFI4:
 670              		.cfi_def_cfa_offset 24
 671              		.cfi_offset 4, -24
 672              		.cfi_offset 5, -20
 673              		.cfi_offset 6, -16
ARM GAS  C:\Users\Administrator\AppData\Local\Temp\ccS10GXs.s 			page 22


 674              		.cfi_offset 7, -12
 675              		.cfi_offset 8, -8
 676              		.cfi_offset 14, -4
 677 0004 82B0     		sub	sp, sp, #8
 678              	.LCFI5:
 679              		.cfi_def_cfa_offset 32
 680 0006 0191     		str	r1, [sp, #4]
 328:Middlewares/Third_Party/RealThread_RTOS/src/ipc.c ****     register rt_base_t temp;
 681              		.loc 1 328 5 is_stmt 1 view .LVU161
 329:Middlewares/Third_Party/RealThread_RTOS/src/ipc.c ****     struct rt_thread *thread;
 682              		.loc 1 329 5 view .LVU162
 330:Middlewares/Third_Party/RealThread_RTOS/src/ipc.c **** 
 331:Middlewares/Third_Party/RealThread_RTOS/src/ipc.c ****     /* parameter check */
 332:Middlewares/Third_Party/RealThread_RTOS/src/ipc.c ****     RT_ASSERT(sem != RT_NULL);
 683              		.loc 1 332 5 view .LVU163
 684 0008 0546     		mov	r5, r0
 685 000a 0028     		cmp	r0, #0
 686 000c 4BD0     		beq	.L64
 687              	.LVL72:
 688              	.L45:
 689              		.loc 1 332 30 discriminator 3 view .LVU164
 333:Middlewares/Third_Party/RealThread_RTOS/src/ipc.c ****     RT_ASSERT(rt_object_get_type(&sem->parent.parent) == RT_Object_Class_Semaphore);
 690              		.loc 1 333 5 discriminator 3 view .LVU165
 691 000e 2846     		mov	r0, r5
 692 0010 FFF7FEFF 		bl	rt_object_get_type
 693              	.LVL73:
 694 0014 0228     		cmp	r0, #2
 695 0016 4DD1     		bne	.L65
 696              	.L46:
 697              		.loc 1 333 84 discriminator 3 view .LVU166
 334:Middlewares/Third_Party/RealThread_RTOS/src/ipc.c **** 
 335:Middlewares/Third_Party/RealThread_RTOS/src/ipc.c ****     RT_OBJECT_HOOK_CALL(rt_object_trytake_hook, (&(sem->parent.parent)));
 698              		.loc 1 335 5 discriminator 3 view .LVU167
 699              		.loc 1 335 5 discriminator 3 view .LVU168
 700 0018 554B     		ldr	r3, .L72
 701 001a 1B68     		ldr	r3, [r3]
 702 001c 0BB1     		cbz	r3, .L47
 703              		.loc 1 335 5 discriminator 1 view .LVU169
 704 001e 2846     		mov	r0, r5
 705 0020 9847     		blx	r3
 706              	.LVL74:
 707              	.L47:
 708              		.loc 1 335 5 discriminator 3 view .LVU170
 336:Middlewares/Third_Party/RealThread_RTOS/src/ipc.c **** 
 337:Middlewares/Third_Party/RealThread_RTOS/src/ipc.c ****     /* disable interrupt */
 338:Middlewares/Third_Party/RealThread_RTOS/src/ipc.c ****     temp = rt_hw_interrupt_disable();
 709              		.loc 1 338 5 discriminator 3 view .LVU171
 710              		.loc 1 338 12 is_stmt 0 discriminator 3 view .LVU172
 711 0022 FFF7FEFF 		bl	rt_hw_interrupt_disable
 712              	.LVL75:
 713 0026 0746     		mov	r7, r0
 714              	.LVL76:
 339:Middlewares/Third_Party/RealThread_RTOS/src/ipc.c **** 
 340:Middlewares/Third_Party/RealThread_RTOS/src/ipc.c ****     RT_DEBUG_LOG(RT_DEBUG_IPC, ("thread %s take sem:%s, which value is: %d\n",
 715              		.loc 1 340 5 is_stmt 1 discriminator 3 view .LVU173
 716              		.loc 1 340 5 discriminator 3 view .LVU174
 717              		.loc 1 340 5 discriminator 3 view .LVU175
ARM GAS  C:\Users\Administrator\AppData\Local\Temp\ccS10GXs.s 			page 23


 341:Middlewares/Third_Party/RealThread_RTOS/src/ipc.c ****                                 rt_thread_self()->name,
 342:Middlewares/Third_Party/RealThread_RTOS/src/ipc.c ****                                 ((struct rt_object *)sem)->name,
 343:Middlewares/Third_Party/RealThread_RTOS/src/ipc.c ****                                 sem->value));
 344:Middlewares/Third_Party/RealThread_RTOS/src/ipc.c **** 
 345:Middlewares/Third_Party/RealThread_RTOS/src/ipc.c ****     if (sem->value > 0)
 718              		.loc 1 345 5 discriminator 3 view .LVU176
 719              		.loc 1 345 12 is_stmt 0 discriminator 3 view .LVU177
 720 0028 AB8B     		ldrh	r3, [r5, #28]
 721              		.loc 1 345 8 discriminator 3 view .LVU178
 722 002a 002B     		cmp	r3, #0
 723 002c 49D1     		bne	.L66
 346:Middlewares/Third_Party/RealThread_RTOS/src/ipc.c ****     {
 347:Middlewares/Third_Party/RealThread_RTOS/src/ipc.c ****         /* semaphore is available */
 348:Middlewares/Third_Party/RealThread_RTOS/src/ipc.c ****         sem->value --;
 349:Middlewares/Third_Party/RealThread_RTOS/src/ipc.c **** 
 350:Middlewares/Third_Party/RealThread_RTOS/src/ipc.c ****         /* enable interrupt */
 351:Middlewares/Third_Party/RealThread_RTOS/src/ipc.c ****         rt_hw_interrupt_enable(temp);
 352:Middlewares/Third_Party/RealThread_RTOS/src/ipc.c ****     }
 353:Middlewares/Third_Party/RealThread_RTOS/src/ipc.c ****     else
 354:Middlewares/Third_Party/RealThread_RTOS/src/ipc.c ****     {
 355:Middlewares/Third_Party/RealThread_RTOS/src/ipc.c ****         /* no waiting, return with timeout */
 356:Middlewares/Third_Party/RealThread_RTOS/src/ipc.c ****         if (time == 0)
 724              		.loc 1 356 9 is_stmt 1 view .LVU179
 725              		.loc 1 356 18 is_stmt 0 view .LVU180
 726 002e 019B     		ldr	r3, [sp, #4]
 727              		.loc 1 356 12 view .LVU181
 728 0030 002B     		cmp	r3, #0
 729 0032 4BD0     		beq	.L67
 357:Middlewares/Third_Party/RealThread_RTOS/src/ipc.c ****         {
 358:Middlewares/Third_Party/RealThread_RTOS/src/ipc.c ****             rt_hw_interrupt_enable(temp);
 359:Middlewares/Third_Party/RealThread_RTOS/src/ipc.c **** 
 360:Middlewares/Third_Party/RealThread_RTOS/src/ipc.c ****             return -RT_ETIMEOUT;
 361:Middlewares/Third_Party/RealThread_RTOS/src/ipc.c ****         }
 362:Middlewares/Third_Party/RealThread_RTOS/src/ipc.c ****         else
 363:Middlewares/Third_Party/RealThread_RTOS/src/ipc.c ****         {
 364:Middlewares/Third_Party/RealThread_RTOS/src/ipc.c ****             /* current context checking */
 365:Middlewares/Third_Party/RealThread_RTOS/src/ipc.c ****             RT_DEBUG_IN_THREAD_CONTEXT;
 730              		.loc 1 365 13 is_stmt 1 view .LVU182
 731              	.LBB150:
 732              		.loc 1 365 13 view .LVU183
 733              		.loc 1 365 13 view .LVU184
 734 0034 FFF7FEFF 		bl	rt_hw_interrupt_disable
 735              	.LVL77:
 736              		.loc 1 365 13 is_stmt 0 view .LVU185
 737 0038 0446     		mov	r4, r0
 738              	.LVL78:
 739              		.loc 1 365 13 is_stmt 1 view .LVU186
 740 003a FFF7FEFF 		bl	rt_thread_self
 741              	.LVL79:
 742              		.loc 1 365 13 is_stmt 0 view .LVU187
 743 003e 0028     		cmp	r0, #0
 744 0040 49D0     		beq	.L68
 745              	.L52:
 746              		.loc 1 365 13 is_stmt 1 discriminator 5 view .LVU188
 747              	.LBB151:
 748              		.loc 1 365 13 discriminator 5 view .LVU189
 749              		.loc 1 365 13 discriminator 5 view .LVU190
ARM GAS  C:\Users\Administrator\AppData\Local\Temp\ccS10GXs.s 			page 24


 750 0042 FFF7FEFF 		bl	rt_hw_interrupt_disable
 751              	.LVL80:
 752 0046 0646     		mov	r6, r0
 753              	.LVL81:
 754              		.loc 1 365 13 discriminator 5 view .LVU191
 755 0048 FFF7FEFF 		bl	rt_interrupt_get_nest
 756              	.LVL82:
 757              		.loc 1 365 13 is_stmt 0 discriminator 5 view .LVU192
 758 004c 0028     		cmp	r0, #0
 759 004e 4ED1     		bne	.L69
 760              	.L53:
 761              		.loc 1 365 13 is_stmt 1 discriminator 10 view .LVU193
 762 0050 3046     		mov	r0, r6
 763 0052 FFF7FEFF 		bl	rt_hw_interrupt_enable
 764              	.LVL83:
 765              	.LBE151:
 766              		.loc 1 365 13 discriminator 10 view .LVU194
 767              		.loc 1 365 13 discriminator 10 view .LVU195
 768 0056 2046     		mov	r0, r4
 769 0058 FFF7FEFF 		bl	rt_hw_interrupt_enable
 770              	.LVL84:
 771              	.LBE150:
 772              		.loc 1 365 13 discriminator 10 view .LVU196
 366:Middlewares/Third_Party/RealThread_RTOS/src/ipc.c **** 
 367:Middlewares/Third_Party/RealThread_RTOS/src/ipc.c ****             /* semaphore is unavailable, push to suspend list */
 368:Middlewares/Third_Party/RealThread_RTOS/src/ipc.c ****             /* get current thread */
 369:Middlewares/Third_Party/RealThread_RTOS/src/ipc.c ****             thread = rt_thread_self();
 773              		.loc 1 369 13 discriminator 10 view .LVU197
 774              		.loc 1 369 22 is_stmt 0 discriminator 10 view .LVU198
 775 005c FFF7FEFF 		bl	rt_thread_self
 776              	.LVL85:
 777 0060 0446     		mov	r4, r0
 778              	.LVL86:
 370:Middlewares/Third_Party/RealThread_RTOS/src/ipc.c **** 
 371:Middlewares/Third_Party/RealThread_RTOS/src/ipc.c ****             /* reset thread error number */
 372:Middlewares/Third_Party/RealThread_RTOS/src/ipc.c ****             thread->error = RT_EOK;
 779              		.loc 1 372 13 is_stmt 1 discriminator 10 view .LVU199
 780              		.loc 1 372 27 is_stmt 0 discriminator 10 view .LVU200
 781 0062 0023     		movs	r3, #0
 782 0064 0363     		str	r3, [r0, #48]
 373:Middlewares/Third_Party/RealThread_RTOS/src/ipc.c **** 
 374:Middlewares/Third_Party/RealThread_RTOS/src/ipc.c ****             RT_DEBUG_LOG(RT_DEBUG_IPC, ("sem take: suspend thread - %s\n",
 783              		.loc 1 374 13 is_stmt 1 discriminator 10 view .LVU201
 784              		.loc 1 374 13 discriminator 10 view .LVU202
 785              		.loc 1 374 13 discriminator 10 view .LVU203
 375:Middlewares/Third_Party/RealThread_RTOS/src/ipc.c ****                                         thread->name));
 376:Middlewares/Third_Party/RealThread_RTOS/src/ipc.c **** 
 377:Middlewares/Third_Party/RealThread_RTOS/src/ipc.c ****             /* suspend thread */
 378:Middlewares/Third_Party/RealThread_RTOS/src/ipc.c ****             rt_ipc_list_suspend(&(sem->parent.suspend_thread),
 786              		.loc 1 378 13 discriminator 10 view .LVU204
 787 0066 05F11406 		add	r6, r5, #20
 788              	.LVL87:
 789              		.loc 1 378 13 is_stmt 0 discriminator 10 view .LVU205
 790 006a 95F80980 		ldrb	r8, [r5, #9]	@ zero_extendqisi2
 791              	.LVL88:
 792              	.LBB153:
 793              	.LBI153:
ARM GAS  C:\Users\Administrator\AppData\Local\Temp\ccS10GXs.s 			page 25


  83:Middlewares/Third_Party/RealThread_RTOS/src/ipc.c ****                                        struct rt_thread *thread,
 794              		.loc 1 83 20 is_stmt 1 discriminator 10 view .LVU206
 795              	.LBB154:
  88:Middlewares/Third_Party/RealThread_RTOS/src/ipc.c **** 
 796              		.loc 1 88 5 discriminator 10 view .LVU207
 797 006e FFF7FEFF 		bl	rt_thread_suspend
 798              	.LVL89:
  90:Middlewares/Third_Party/RealThread_RTOS/src/ipc.c ****     {
 799              		.loc 1 90 5 discriminator 10 view .LVU208
 800 0072 B8F1000F 		cmp	r8, #0
 801 0076 47D0     		beq	.L54
  90:Middlewares/Third_Party/RealThread_RTOS/src/ipc.c ****     {
 802              		.loc 1 90 5 is_stmt 0 view .LVU209
 803 0078 B8F1010F 		cmp	r8, #1
 804 007c 4DD0     		beq	.L55
 805              	.L56:
 128:Middlewares/Third_Party/RealThread_RTOS/src/ipc.c **** }
 806              		.loc 1 128 5 is_stmt 1 view .LVU210
 807              	.LVL90:
 128:Middlewares/Third_Party/RealThread_RTOS/src/ipc.c **** }
 808              		.loc 1 128 5 is_stmt 0 view .LVU211
 809              	.LBE154:
 810              	.LBE153:
 379:Middlewares/Third_Party/RealThread_RTOS/src/ipc.c ****                                 thread,
 380:Middlewares/Third_Party/RealThread_RTOS/src/ipc.c ****                                 sem->parent.parent.flag);
 381:Middlewares/Third_Party/RealThread_RTOS/src/ipc.c **** 
 382:Middlewares/Third_Party/RealThread_RTOS/src/ipc.c ****             /* has waiting time, start thread timer */
 383:Middlewares/Third_Party/RealThread_RTOS/src/ipc.c ****             if (time > 0)
 811              		.loc 1 383 13 is_stmt 1 view .LVU212
 812              		.loc 1 383 22 is_stmt 0 view .LVU213
 813 007e 019B     		ldr	r3, [sp, #4]
 814              		.loc 1 383 16 view .LVU214
 815 0080 002B     		cmp	r3, #0
 816 0082 68DC     		bgt	.L70
 817              	.L61:
 384:Middlewares/Third_Party/RealThread_RTOS/src/ipc.c ****             {
 385:Middlewares/Third_Party/RealThread_RTOS/src/ipc.c ****                 RT_DEBUG_LOG(RT_DEBUG_IPC, ("set thread:%s to timer list\n",
 386:Middlewares/Third_Party/RealThread_RTOS/src/ipc.c ****                                             thread->name));
 387:Middlewares/Third_Party/RealThread_RTOS/src/ipc.c **** 
 388:Middlewares/Third_Party/RealThread_RTOS/src/ipc.c ****                 /* reset the timeout of thread timer and start it */
 389:Middlewares/Third_Party/RealThread_RTOS/src/ipc.c ****                 rt_timer_control(&(thread->thread_timer),
 390:Middlewares/Third_Party/RealThread_RTOS/src/ipc.c ****                                  RT_TIMER_CTRL_SET_TIME,
 391:Middlewares/Third_Party/RealThread_RTOS/src/ipc.c ****                                  &time);
 392:Middlewares/Third_Party/RealThread_RTOS/src/ipc.c ****                 rt_timer_start(&(thread->thread_timer));
 393:Middlewares/Third_Party/RealThread_RTOS/src/ipc.c ****             }
 394:Middlewares/Third_Party/RealThread_RTOS/src/ipc.c **** 
 395:Middlewares/Third_Party/RealThread_RTOS/src/ipc.c ****             /* enable interrupt */
 396:Middlewares/Third_Party/RealThread_RTOS/src/ipc.c ****             rt_hw_interrupt_enable(temp);
 818              		.loc 1 396 13 is_stmt 1 view .LVU215
 819 0084 3846     		mov	r0, r7
 820 0086 FFF7FEFF 		bl	rt_hw_interrupt_enable
 821              	.LVL91:
 397:Middlewares/Third_Party/RealThread_RTOS/src/ipc.c **** 
 398:Middlewares/Third_Party/RealThread_RTOS/src/ipc.c ****             /* do schedule */
 399:Middlewares/Third_Party/RealThread_RTOS/src/ipc.c ****             rt_schedule();
 822              		.loc 1 399 13 view .LVU216
 823 008a FFF7FEFF 		bl	rt_schedule
ARM GAS  C:\Users\Administrator\AppData\Local\Temp\ccS10GXs.s 			page 26


 824              	.LVL92:
 400:Middlewares/Third_Party/RealThread_RTOS/src/ipc.c **** 
 401:Middlewares/Third_Party/RealThread_RTOS/src/ipc.c ****             if (thread->error != RT_EOK)
 825              		.loc 1 401 13 view .LVU217
 826              		.loc 1 401 23 is_stmt 0 view .LVU218
 827 008e 206B     		ldr	r0, [r4, #48]
 828              		.loc 1 401 16 view .LVU219
 829 0090 30B9     		cbnz	r0, .L44
 830              	.LVL93:
 831              	.L49:
 402:Middlewares/Third_Party/RealThread_RTOS/src/ipc.c ****             {
 403:Middlewares/Third_Party/RealThread_RTOS/src/ipc.c ****                 return thread->error;
 404:Middlewares/Third_Party/RealThread_RTOS/src/ipc.c ****             }
 405:Middlewares/Third_Party/RealThread_RTOS/src/ipc.c ****         }
 406:Middlewares/Third_Party/RealThread_RTOS/src/ipc.c ****     }
 407:Middlewares/Third_Party/RealThread_RTOS/src/ipc.c **** 
 408:Middlewares/Third_Party/RealThread_RTOS/src/ipc.c ****     RT_OBJECT_HOOK_CALL(rt_object_take_hook, (&(sem->parent.parent)));
 832              		.loc 1 408 5 is_stmt 1 view .LVU220
 833              		.loc 1 408 5 view .LVU221
 834 0092 384B     		ldr	r3, .L72+4
 835 0094 1B68     		ldr	r3, [r3]
 836 0096 002B     		cmp	r3, #0
 837 0098 68D0     		beq	.L62
 838              		.loc 1 408 5 discriminator 1 view .LVU222
 839 009a 2846     		mov	r0, r5
 840 009c 9847     		blx	r3
 841              	.LVL94:
 409:Middlewares/Third_Party/RealThread_RTOS/src/ipc.c **** 
 410:Middlewares/Third_Party/RealThread_RTOS/src/ipc.c ****     return RT_EOK;
 842              		.loc 1 410 12 is_stmt 0 discriminator 1 view .LVU223
 843 009e 0020     		movs	r0, #0
 844              	.L44:
 411:Middlewares/Third_Party/RealThread_RTOS/src/ipc.c **** }
 845              		.loc 1 411 1 view .LVU224
 846 00a0 02B0     		add	sp, sp, #8
 847              	.LCFI6:
 848              		.cfi_remember_state
 849              		.cfi_def_cfa_offset 24
 850              		@ sp needed
 851 00a2 BDE8F081 		pop	{r4, r5, r6, r7, r8, pc}
 852              	.LVL95:
 853              	.L64:
 854              	.LCFI7:
 855              		.cfi_restore_state
 332:Middlewares/Third_Party/RealThread_RTOS/src/ipc.c ****     RT_ASSERT(rt_object_get_type(&sem->parent.parent) == RT_Object_Class_Semaphore);
 856              		.loc 1 332 5 is_stmt 1 discriminator 1 view .LVU225
 857 00a6 4FF4A672 		mov	r2, #332
 858 00aa 3349     		ldr	r1, .L72+8
 859              	.LVL96:
 332:Middlewares/Third_Party/RealThread_RTOS/src/ipc.c ****     RT_ASSERT(rt_object_get_type(&sem->parent.parent) == RT_Object_Class_Semaphore);
 860              		.loc 1 332 5 is_stmt 0 discriminator 1 view .LVU226
 861 00ac 3348     		ldr	r0, .L72+12
 862              	.LVL97:
 332:Middlewares/Third_Party/RealThread_RTOS/src/ipc.c ****     RT_ASSERT(rt_object_get_type(&sem->parent.parent) == RT_Object_Class_Semaphore);
 863              		.loc 1 332 5 discriminator 1 view .LVU227
 864 00ae FFF7FEFF 		bl	rt_assert_handler
 865              	.LVL98:
ARM GAS  C:\Users\Administrator\AppData\Local\Temp\ccS10GXs.s 			page 27


 332:Middlewares/Third_Party/RealThread_RTOS/src/ipc.c ****     RT_ASSERT(rt_object_get_type(&sem->parent.parent) == RT_Object_Class_Semaphore);
 866              		.loc 1 332 5 discriminator 1 view .LVU228
 867 00b2 ACE7     		b	.L45
 868              	.L65:
 333:Middlewares/Third_Party/RealThread_RTOS/src/ipc.c **** 
 869              		.loc 1 333 5 is_stmt 1 discriminator 1 view .LVU229
 870 00b4 40F24D12 		movw	r2, #333
 871 00b8 2F49     		ldr	r1, .L72+8
 872 00ba 3148     		ldr	r0, .L72+16
 873 00bc FFF7FEFF 		bl	rt_assert_handler
 874              	.LVL99:
 875 00c0 AAE7     		b	.L46
 876              	.LVL100:
 877              	.L66:
 348:Middlewares/Third_Party/RealThread_RTOS/src/ipc.c **** 
 878              		.loc 1 348 9 view .LVU230
 348:Middlewares/Third_Party/RealThread_RTOS/src/ipc.c **** 
 879              		.loc 1 348 20 is_stmt 0 view .LVU231
 880 00c2 013B     		subs	r3, r3, #1
 881 00c4 AB83     		strh	r3, [r5, #28]	@ movhi
 351:Middlewares/Third_Party/RealThread_RTOS/src/ipc.c ****     }
 882              		.loc 1 351 9 is_stmt 1 view .LVU232
 883 00c6 FFF7FEFF 		bl	rt_hw_interrupt_enable
 884              	.LVL101:
 351:Middlewares/Third_Party/RealThread_RTOS/src/ipc.c ****     }
 885              		.loc 1 351 9 is_stmt 0 view .LVU233
 886 00ca E2E7     		b	.L49
 887              	.LVL102:
 888              	.L67:
 358:Middlewares/Third_Party/RealThread_RTOS/src/ipc.c **** 
 889              		.loc 1 358 13 is_stmt 1 view .LVU234
 890 00cc FFF7FEFF 		bl	rt_hw_interrupt_enable
 891              	.LVL103:
 360:Middlewares/Third_Party/RealThread_RTOS/src/ipc.c ****         }
 892              		.loc 1 360 13 view .LVU235
 360:Middlewares/Third_Party/RealThread_RTOS/src/ipc.c ****         }
 893              		.loc 1 360 20 is_stmt 0 view .LVU236
 894 00d0 6FF00100 		mvn	r0, #1
 895 00d4 E4E7     		b	.L44
 896              	.LVL104:
 897              	.L68:
 898              	.LBB163:
 365:Middlewares/Third_Party/RealThread_RTOS/src/ipc.c **** 
 899              		.loc 1 365 13 is_stmt 1 discriminator 1 view .LVU237
 900 00d6 284E     		ldr	r6, .L72+8
 901 00d8 3146     		mov	r1, r6
 902 00da 2A48     		ldr	r0, .L72+20
 903 00dc FFF7FEFF 		bl	rt_kprintf
 904              	.LVL105:
 365:Middlewares/Third_Party/RealThread_RTOS/src/ipc.c **** 
 905              		.loc 1 365 13 discriminator 1 view .LVU238
 365:Middlewares/Third_Party/RealThread_RTOS/src/ipc.c **** 
 906              		.loc 1 365 13 discriminator 1 view .LVU239
 907 00e0 40F26D12 		movw	r2, #365
 908 00e4 3146     		mov	r1, r6
 909 00e6 2848     		ldr	r0, .L72+24
 910 00e8 FFF7FEFF 		bl	rt_assert_handler
ARM GAS  C:\Users\Administrator\AppData\Local\Temp\ccS10GXs.s 			page 28


 911              	.LVL106:
 912 00ec A9E7     		b	.L52
 913              	.LVL107:
 914              	.L69:
 915              	.LBB152:
 365:Middlewares/Third_Party/RealThread_RTOS/src/ipc.c **** 
 916              		.loc 1 365 13 discriminator 6 view .LVU240
 917 00ee DFF88880 		ldr	r8, .L72+8
 918 00f2 4146     		mov	r1, r8
 919 00f4 2548     		ldr	r0, .L72+28
 920 00f6 FFF7FEFF 		bl	rt_kprintf
 921              	.LVL108:
 365:Middlewares/Third_Party/RealThread_RTOS/src/ipc.c **** 
 922              		.loc 1 365 13 discriminator 6 view .LVU241
 365:Middlewares/Third_Party/RealThread_RTOS/src/ipc.c **** 
 923              		.loc 1 365 13 discriminator 6 view .LVU242
 924 00fa 40F26D12 		movw	r2, #365
 925 00fe 4146     		mov	r1, r8
 926 0100 2148     		ldr	r0, .L72+24
 927 0102 FFF7FEFF 		bl	rt_assert_handler
 928              	.LVL109:
 929 0106 A3E7     		b	.L53
 930              	.LVL110:
 931              	.L54:
 365:Middlewares/Third_Party/RealThread_RTOS/src/ipc.c **** 
 932              		.loc 1 365 13 is_stmt 0 discriminator 6 view .LVU243
 933              	.LBE152:
 934              	.LBE163:
 935              	.LBB164:
 936              	.LBB162:
  93:Middlewares/Third_Party/RealThread_RTOS/src/ipc.c ****         break;
 937              		.loc 1 93 9 is_stmt 1 view .LVU244
 938 0108 04F11403 		add	r3, r4, #20
 939              	.LVL111:
 940              	.LBB155:
 941              	.LBI155:
  73:Middlewares/Third_Party/RealThread_RTOS/include/rtservice.h **** {
 942              		.loc 2 73 16 view .LVU245
 943              	.LBB156:
  75:Middlewares/Third_Party/RealThread_RTOS/include/rtservice.h ****     n->prev = l->prev;
 944              		.loc 2 75 5 view .LVU246
  75:Middlewares/Third_Party/RealThread_RTOS/include/rtservice.h ****     n->prev = l->prev;
 945              		.loc 2 75 6 is_stmt 0 view .LVU247
 946 010c 7268     		ldr	r2, [r6, #4]
  75:Middlewares/Third_Party/RealThread_RTOS/include/rtservice.h ****     n->prev = l->prev;
 947              		.loc 2 75 19 view .LVU248
 948 010e 1360     		str	r3, [r2]
  76:Middlewares/Third_Party/RealThread_RTOS/include/rtservice.h **** 
 949              		.loc 2 76 5 is_stmt 1 view .LVU249
  76:Middlewares/Third_Party/RealThread_RTOS/include/rtservice.h **** 
 950              		.loc 2 76 16 is_stmt 0 view .LVU250
 951 0110 7268     		ldr	r2, [r6, #4]
  76:Middlewares/Third_Party/RealThread_RTOS/include/rtservice.h **** 
 952              		.loc 2 76 13 view .LVU251
 953 0112 A261     		str	r2, [r4, #24]
  78:Middlewares/Third_Party/RealThread_RTOS/include/rtservice.h ****     n->next = l;
 954              		.loc 2 78 5 is_stmt 1 view .LVU252
ARM GAS  C:\Users\Administrator\AppData\Local\Temp\ccS10GXs.s 			page 29


  78:Middlewares/Third_Party/RealThread_RTOS/include/rtservice.h ****     n->next = l;
 955              		.loc 2 78 13 is_stmt 0 view .LVU253
 956 0114 7360     		str	r3, [r6, #4]
  79:Middlewares/Third_Party/RealThread_RTOS/include/rtservice.h **** }
 957              		.loc 2 79 5 is_stmt 1 view .LVU254
  79:Middlewares/Third_Party/RealThread_RTOS/include/rtservice.h **** }
 958              		.loc 2 79 13 is_stmt 0 view .LVU255
 959 0116 6661     		str	r6, [r4, #20]
  80:Middlewares/Third_Party/RealThread_RTOS/include/rtservice.h **** 
 960              		.loc 2 80 1 view .LVU256
 961 0118 B1E7     		b	.L56
 962              	.LVL112:
 963              	.L55:
  80:Middlewares/Third_Party/RealThread_RTOS/include/rtservice.h **** 
 964              		.loc 2 80 1 view .LVU257
 965              	.LBE156:
 966              	.LBE155:
 967              	.LBB157:
  98:Middlewares/Third_Party/RealThread_RTOS/src/ipc.c ****             struct rt_thread *sthread;
 968              		.loc 1 98 13 is_stmt 1 view .LVU258
  99:Middlewares/Third_Party/RealThread_RTOS/src/ipc.c **** 
 969              		.loc 1 99 13 view .LVU259
 102:Middlewares/Third_Party/RealThread_RTOS/src/ipc.c ****             {
 970              		.loc 1 102 13 view .LVU260
 102:Middlewares/Third_Party/RealThread_RTOS/src/ipc.c ****             {
 971              		.loc 1 102 20 is_stmt 0 view .LVU261
 972 011a 6B69     		ldr	r3, [r5, #20]
 973              	.LVL113:
 974              	.L57:
 102:Middlewares/Third_Party/RealThread_RTOS/src/ipc.c ****             {
 975              		.loc 1 102 34 is_stmt 1 view .LVU262
 102:Middlewares/Third_Party/RealThread_RTOS/src/ipc.c ****             {
 976              		.loc 1 102 13 is_stmt 0 view .LVU263
 977 011c 9E42     		cmp	r6, r3
 978 011e 0FD0     		beq	.L59
 104:Middlewares/Third_Party/RealThread_RTOS/src/ipc.c **** 
 979              		.loc 1 104 17 is_stmt 1 view .LVU264
 980              	.LVL114:
 107:Middlewares/Third_Party/RealThread_RTOS/src/ipc.c ****                 {
 981              		.loc 1 107 17 view .LVU265
 107:Middlewares/Third_Party/RealThread_RTOS/src/ipc.c ****                 {
 982              		.loc 1 107 27 is_stmt 0 view .LVU266
 983 0120 94F83510 		ldrb	r1, [r4, #53]	@ zero_extendqisi2
 107:Middlewares/Third_Party/RealThread_RTOS/src/ipc.c ****                 {
 984              		.loc 1 107 55 view .LVU267
 985 0124 93F82120 		ldrb	r2, [r3, #33]	@ zero_extendqisi2
 107:Middlewares/Third_Party/RealThread_RTOS/src/ipc.c ****                 {
 986              		.loc 1 107 20 view .LVU268
 987 0128 9142     		cmp	r1, r2
 988 012a 01D3     		bcc	.L71
 102:Middlewares/Third_Party/RealThread_RTOS/src/ipc.c ****             {
 989              		.loc 1 102 45 is_stmt 1 view .LVU269
 102:Middlewares/Third_Party/RealThread_RTOS/src/ipc.c ****             {
 990              		.loc 1 102 47 is_stmt 0 view .LVU270
 991 012c 1B68     		ldr	r3, [r3]
 992              	.LVL115:
 102:Middlewares/Third_Party/RealThread_RTOS/src/ipc.c ****             {
ARM GAS  C:\Users\Administrator\AppData\Local\Temp\ccS10GXs.s 			page 30


 993              		.loc 1 102 47 view .LVU271
 994 012e F5E7     		b	.L57
 995              	.LVL116:
 996              	.L71:
 110:Middlewares/Third_Party/RealThread_RTOS/src/ipc.c ****                     break;
 997              		.loc 1 110 21 is_stmt 1 view .LVU272
 998 0130 04F11402 		add	r2, r4, #20
 999              	.LVL117:
 1000              	.LBB158:
 1001              	.LBI158:
  73:Middlewares/Third_Party/RealThread_RTOS/include/rtservice.h **** {
 1002              		.loc 2 73 16 view .LVU273
 1003              	.LBB159:
  75:Middlewares/Third_Party/RealThread_RTOS/include/rtservice.h ****     n->prev = l->prev;
 1004              		.loc 2 75 5 view .LVU274
  75:Middlewares/Third_Party/RealThread_RTOS/include/rtservice.h ****     n->prev = l->prev;
 1005              		.loc 2 75 6 is_stmt 0 view .LVU275
 1006 0134 5968     		ldr	r1, [r3, #4]
  75:Middlewares/Third_Party/RealThread_RTOS/include/rtservice.h ****     n->prev = l->prev;
 1007              		.loc 2 75 19 view .LVU276
 1008 0136 0A60     		str	r2, [r1]
  76:Middlewares/Third_Party/RealThread_RTOS/include/rtservice.h **** 
 1009              		.loc 2 76 5 is_stmt 1 view .LVU277
  76:Middlewares/Third_Party/RealThread_RTOS/include/rtservice.h **** 
 1010              		.loc 2 76 16 is_stmt 0 view .LVU278
 1011 0138 5968     		ldr	r1, [r3, #4]
  76:Middlewares/Third_Party/RealThread_RTOS/include/rtservice.h **** 
 1012              		.loc 2 76 13 view .LVU279
 1013 013a A161     		str	r1, [r4, #24]
  78:Middlewares/Third_Party/RealThread_RTOS/include/rtservice.h ****     n->next = l;
 1014              		.loc 2 78 5 is_stmt 1 view .LVU280
  78:Middlewares/Third_Party/RealThread_RTOS/include/rtservice.h ****     n->next = l;
 1015              		.loc 2 78 13 is_stmt 0 view .LVU281
 1016 013c 5A60     		str	r2, [r3, #4]
  79:Middlewares/Third_Party/RealThread_RTOS/include/rtservice.h **** }
 1017              		.loc 2 79 5 is_stmt 1 view .LVU282
  79:Middlewares/Third_Party/RealThread_RTOS/include/rtservice.h **** }
 1018              		.loc 2 79 13 is_stmt 0 view .LVU283
 1019 013e 6361     		str	r3, [r4, #20]
 1020              	.LVL118:
 1021              	.L59:
  79:Middlewares/Third_Party/RealThread_RTOS/include/rtservice.h **** }
 1022              		.loc 2 79 13 view .LVU284
 1023              	.LBE159:
 1024              	.LBE158:
 119:Middlewares/Third_Party/RealThread_RTOS/src/ipc.c ****                 rt_list_insert_before(list, &(thread->tlist));
 1025              		.loc 1 119 13 is_stmt 1 view .LVU285
 119:Middlewares/Third_Party/RealThread_RTOS/src/ipc.c ****                 rt_list_insert_before(list, &(thread->tlist));
 1026              		.loc 1 119 16 is_stmt 0 view .LVU286
 1027 0140 9E42     		cmp	r6, r3
 1028 0142 9CD1     		bne	.L56
 120:Middlewares/Third_Party/RealThread_RTOS/src/ipc.c ****         }
 1029              		.loc 1 120 17 is_stmt 1 view .LVU287
 1030 0144 04F11403 		add	r3, r4, #20
 1031              	.LVL119:
 1032              	.LBB160:
 1033              	.LBI160:
ARM GAS  C:\Users\Administrator\AppData\Local\Temp\ccS10GXs.s 			page 31


  73:Middlewares/Third_Party/RealThread_RTOS/include/rtservice.h **** {
 1034              		.loc 2 73 16 view .LVU288
 1035              	.LBB161:
  75:Middlewares/Third_Party/RealThread_RTOS/include/rtservice.h ****     n->prev = l->prev;
 1036              		.loc 2 75 5 view .LVU289
  75:Middlewares/Third_Party/RealThread_RTOS/include/rtservice.h ****     n->prev = l->prev;
 1037              		.loc 2 75 6 is_stmt 0 view .LVU290
 1038 0148 7268     		ldr	r2, [r6, #4]
  75:Middlewares/Third_Party/RealThread_RTOS/include/rtservice.h ****     n->prev = l->prev;
 1039              		.loc 2 75 19 view .LVU291
 1040 014a 1360     		str	r3, [r2]
  76:Middlewares/Third_Party/RealThread_RTOS/include/rtservice.h **** 
 1041              		.loc 2 76 5 is_stmt 1 view .LVU292
  76:Middlewares/Third_Party/RealThread_RTOS/include/rtservice.h **** 
 1042              		.loc 2 76 16 is_stmt 0 view .LVU293
 1043 014c 7268     		ldr	r2, [r6, #4]
  76:Middlewares/Third_Party/RealThread_RTOS/include/rtservice.h **** 
 1044              		.loc 2 76 13 view .LVU294
 1045 014e A261     		str	r2, [r4, #24]
  78:Middlewares/Third_Party/RealThread_RTOS/include/rtservice.h ****     n->next = l;
 1046              		.loc 2 78 5 is_stmt 1 view .LVU295
  78:Middlewares/Third_Party/RealThread_RTOS/include/rtservice.h ****     n->next = l;
 1047              		.loc 2 78 13 is_stmt 0 view .LVU296
 1048 0150 7360     		str	r3, [r6, #4]
  79:Middlewares/Third_Party/RealThread_RTOS/include/rtservice.h **** }
 1049              		.loc 2 79 5 is_stmt 1 view .LVU297
  79:Middlewares/Third_Party/RealThread_RTOS/include/rtservice.h **** }
 1050              		.loc 2 79 13 is_stmt 0 view .LVU298
 1051 0152 6661     		str	r6, [r4, #20]
  80:Middlewares/Third_Party/RealThread_RTOS/include/rtservice.h **** 
 1052              		.loc 2 80 1 view .LVU299
 1053 0154 93E7     		b	.L56
 1054              	.LVL120:
 1055              	.L70:
  80:Middlewares/Third_Party/RealThread_RTOS/include/rtservice.h **** 
 1056              		.loc 2 80 1 view .LVU300
 1057              	.LBE161:
 1058              	.LBE160:
 1059              	.LBE157:
 1060              	.LBE162:
 1061              	.LBE164:
 385:Middlewares/Third_Party/RealThread_RTOS/src/ipc.c ****                                             thread->name));
 1062              		.loc 1 385 17 is_stmt 1 discriminator 3 view .LVU301
 385:Middlewares/Third_Party/RealThread_RTOS/src/ipc.c ****                                             thread->name));
 1063              		.loc 1 385 17 discriminator 3 view .LVU302
 385:Middlewares/Third_Party/RealThread_RTOS/src/ipc.c ****                                             thread->name));
 1064              		.loc 1 385 17 discriminator 3 view .LVU303
 389:Middlewares/Third_Party/RealThread_RTOS/src/ipc.c ****                                  RT_TIMER_CTRL_SET_TIME,
 1065              		.loc 1 389 17 discriminator 3 view .LVU304
 1066 0156 04F14C06 		add	r6, r4, #76
 1067 015a 01AA     		add	r2, sp, #4
 1068 015c 0021     		movs	r1, #0
 1069 015e 3046     		mov	r0, r6
 1070 0160 FFF7FEFF 		bl	rt_timer_control
 1071              	.LVL121:
 392:Middlewares/Third_Party/RealThread_RTOS/src/ipc.c ****             }
 1072              		.loc 1 392 17 discriminator 3 view .LVU305
ARM GAS  C:\Users\Administrator\AppData\Local\Temp\ccS10GXs.s 			page 32


 1073 0164 3046     		mov	r0, r6
 1074 0166 FFF7FEFF 		bl	rt_timer_start
 1075              	.LVL122:
 1076 016a 8BE7     		b	.L61
 1077              	.LVL123:
 1078              	.L62:
 410:Middlewares/Third_Party/RealThread_RTOS/src/ipc.c **** }
 1079              		.loc 1 410 12 is_stmt 0 view .LVU306
 1080 016c 0020     		movs	r0, #0
 1081 016e 97E7     		b	.L44
 1082              	.L73:
 1083              		.align	2
 1084              	.L72:
 1085 0170 00000000 		.word	rt_object_trytake_hook
 1086 0174 00000000 		.word	rt_object_take_hook
 1087 0178 00000000 		.word	.LANCHOR4
 1088 017c 00000000 		.word	.LC0
 1089 0180 00000000 		.word	.LC2
 1090 0184 00000000 		.word	.LC7
 1091 0188 28000000 		.word	.LC5
 1092 018c 00000000 		.word	.LC4
 1093              		.cfi_endproc
 1094              	.LFE23:
 1096              		.section	.text.rt_sem_trytake,"ax",%progbits
 1097              		.align	1
 1098              		.global	rt_sem_trytake
 1099              		.syntax unified
 1100              		.thumb
 1101              		.thumb_func
 1102              		.fpu softvfp
 1104              	rt_sem_trytake:
 1105              	.LVL124:
 1106              	.LFB24:
 412:Middlewares/Third_Party/RealThread_RTOS/src/ipc.c **** 
 413:Middlewares/Third_Party/RealThread_RTOS/src/ipc.c **** /**
 414:Middlewares/Third_Party/RealThread_RTOS/src/ipc.c ****  * This function will try to take a semaphore and immediately return
 415:Middlewares/Third_Party/RealThread_RTOS/src/ipc.c ****  *
 416:Middlewares/Third_Party/RealThread_RTOS/src/ipc.c ****  * @param sem the semaphore object
 417:Middlewares/Third_Party/RealThread_RTOS/src/ipc.c ****  *
 418:Middlewares/Third_Party/RealThread_RTOS/src/ipc.c ****  * @return the error code
 419:Middlewares/Third_Party/RealThread_RTOS/src/ipc.c ****  */
 420:Middlewares/Third_Party/RealThread_RTOS/src/ipc.c **** rt_err_t rt_sem_trytake(rt_sem_t sem)
 421:Middlewares/Third_Party/RealThread_RTOS/src/ipc.c **** {
 1107              		.loc 1 421 1 is_stmt 1 view -0
 1108              		.cfi_startproc
 1109              		@ args = 0, pretend = 0, frame = 0
 1110              		@ frame_needed = 0, uses_anonymous_args = 0
 1111              		.loc 1 421 1 is_stmt 0 view .LVU308
 1112 0000 08B5     		push	{r3, lr}
 1113              	.LCFI8:
 1114              		.cfi_def_cfa_offset 8
 1115              		.cfi_offset 3, -8
 1116              		.cfi_offset 14, -4
 422:Middlewares/Third_Party/RealThread_RTOS/src/ipc.c ****     return rt_sem_take(sem, 0);
 1117              		.loc 1 422 5 is_stmt 1 view .LVU309
 1118              		.loc 1 422 12 is_stmt 0 view .LVU310
 1119 0002 0021     		movs	r1, #0
ARM GAS  C:\Users\Administrator\AppData\Local\Temp\ccS10GXs.s 			page 33


 1120 0004 FFF7FEFF 		bl	rt_sem_take
 1121              	.LVL125:
 423:Middlewares/Third_Party/RealThread_RTOS/src/ipc.c **** }
 1122              		.loc 1 423 1 view .LVU311
 1123 0008 08BD     		pop	{r3, pc}
 1124              		.cfi_endproc
 1125              	.LFE24:
 1127              		.section	.text.rt_sem_release,"ax",%progbits
 1128              		.align	1
 1129              		.global	rt_sem_release
 1130              		.syntax unified
 1131              		.thumb
 1132              		.thumb_func
 1133              		.fpu softvfp
 1135              	rt_sem_release:
 1136              	.LVL126:
 1137              	.LFB25:
 424:Middlewares/Third_Party/RealThread_RTOS/src/ipc.c **** 
 425:Middlewares/Third_Party/RealThread_RTOS/src/ipc.c **** /**
 426:Middlewares/Third_Party/RealThread_RTOS/src/ipc.c ****  * This function will release a semaphore, if there are threads suspended on
 427:Middlewares/Third_Party/RealThread_RTOS/src/ipc.c ****  * semaphore, it will be waked up.
 428:Middlewares/Third_Party/RealThread_RTOS/src/ipc.c ****  *
 429:Middlewares/Third_Party/RealThread_RTOS/src/ipc.c ****  * @param sem the semaphore object
 430:Middlewares/Third_Party/RealThread_RTOS/src/ipc.c ****  *
 431:Middlewares/Third_Party/RealThread_RTOS/src/ipc.c ****  * @return the error code
 432:Middlewares/Third_Party/RealThread_RTOS/src/ipc.c ****  */
 433:Middlewares/Third_Party/RealThread_RTOS/src/ipc.c **** rt_err_t rt_sem_release(rt_sem_t sem)
 434:Middlewares/Third_Party/RealThread_RTOS/src/ipc.c **** {
 1138              		.loc 1 434 1 is_stmt 1 view -0
 1139              		.cfi_startproc
 1140              		@ args = 0, pretend = 0, frame = 0
 1141              		@ frame_needed = 0, uses_anonymous_args = 0
 1142              		.loc 1 434 1 is_stmt 0 view .LVU313
 1143 0000 38B5     		push	{r3, r4, r5, lr}
 1144              	.LCFI9:
 1145              		.cfi_def_cfa_offset 16
 1146              		.cfi_offset 3, -16
 1147              		.cfi_offset 4, -12
 1148              		.cfi_offset 5, -8
 1149              		.cfi_offset 14, -4
 435:Middlewares/Third_Party/RealThread_RTOS/src/ipc.c ****     register rt_base_t temp;
 1150              		.loc 1 435 5 is_stmt 1 view .LVU314
 436:Middlewares/Third_Party/RealThread_RTOS/src/ipc.c ****     register rt_bool_t need_schedule;
 1151              		.loc 1 436 5 view .LVU315
 437:Middlewares/Third_Party/RealThread_RTOS/src/ipc.c **** 
 438:Middlewares/Third_Party/RealThread_RTOS/src/ipc.c ****     /* parameter check */
 439:Middlewares/Third_Party/RealThread_RTOS/src/ipc.c ****     RT_ASSERT(sem != RT_NULL);
 1152              		.loc 1 439 5 view .LVU316
 1153 0002 0446     		mov	r4, r0
 1154 0004 E0B1     		cbz	r0, .L85
 1155              	.LVL127:
 1156              	.L77:
 1157              		.loc 1 439 30 discriminator 3 view .LVU317
 440:Middlewares/Third_Party/RealThread_RTOS/src/ipc.c ****     RT_ASSERT(rt_object_get_type(&sem->parent.parent) == RT_Object_Class_Semaphore);
 1158              		.loc 1 440 5 discriminator 3 view .LVU318
 1159 0006 2046     		mov	r0, r4
 1160 0008 FFF7FEFF 		bl	rt_object_get_type
ARM GAS  C:\Users\Administrator\AppData\Local\Temp\ccS10GXs.s 			page 34


 1161              	.LVL128:
 1162 000c 0228     		cmp	r0, #2
 1163 000e 1ED1     		bne	.L86
 1164              	.L78:
 1165              		.loc 1 440 84 discriminator 3 view .LVU319
 441:Middlewares/Third_Party/RealThread_RTOS/src/ipc.c **** 
 442:Middlewares/Third_Party/RealThread_RTOS/src/ipc.c ****     RT_OBJECT_HOOK_CALL(rt_object_put_hook, (&(sem->parent.parent)));
 1166              		.loc 1 442 5 discriminator 3 view .LVU320
 1167              		.loc 1 442 5 discriminator 3 view .LVU321
 1168 0010 1C4B     		ldr	r3, .L88
 1169 0012 1B68     		ldr	r3, [r3]
 1170 0014 0BB1     		cbz	r3, .L79
 1171              		.loc 1 442 5 discriminator 1 view .LVU322
 1172 0016 2046     		mov	r0, r4
 1173 0018 9847     		blx	r3
 1174              	.LVL129:
 1175              	.L79:
 1176              		.loc 1 442 5 discriminator 3 view .LVU323
 443:Middlewares/Third_Party/RealThread_RTOS/src/ipc.c **** 
 444:Middlewares/Third_Party/RealThread_RTOS/src/ipc.c ****     need_schedule = RT_FALSE;
 1177              		.loc 1 444 5 discriminator 3 view .LVU324
 445:Middlewares/Third_Party/RealThread_RTOS/src/ipc.c **** 
 446:Middlewares/Third_Party/RealThread_RTOS/src/ipc.c ****     /* disable interrupt */
 447:Middlewares/Third_Party/RealThread_RTOS/src/ipc.c ****     temp = rt_hw_interrupt_disable();
 1178              		.loc 1 447 5 discriminator 3 view .LVU325
 1179              		.loc 1 447 12 is_stmt 0 discriminator 3 view .LVU326
 1180 001a FFF7FEFF 		bl	rt_hw_interrupt_disable
 1181              	.LVL130:
 1182 001e 0546     		mov	r5, r0
 1183              	.LVL131:
 448:Middlewares/Third_Party/RealThread_RTOS/src/ipc.c **** 
 449:Middlewares/Third_Party/RealThread_RTOS/src/ipc.c ****     RT_DEBUG_LOG(RT_DEBUG_IPC, ("thread %s releases sem:%s, which value is: %d\n",
 1184              		.loc 1 449 5 is_stmt 1 discriminator 3 view .LVU327
 1185              		.loc 1 449 5 discriminator 3 view .LVU328
 1186              		.loc 1 449 5 discriminator 3 view .LVU329
 450:Middlewares/Third_Party/RealThread_RTOS/src/ipc.c ****                                 rt_thread_self()->name,
 451:Middlewares/Third_Party/RealThread_RTOS/src/ipc.c ****                                 ((struct rt_object *)sem)->name,
 452:Middlewares/Third_Party/RealThread_RTOS/src/ipc.c ****                                 sem->value));
 453:Middlewares/Third_Party/RealThread_RTOS/src/ipc.c **** 
 454:Middlewares/Third_Party/RealThread_RTOS/src/ipc.c ****     if (!rt_list_isempty(&sem->parent.suspend_thread))
 1187              		.loc 1 454 5 discriminator 3 view .LVU330
 1188              		.loc 1 454 26 is_stmt 0 discriminator 3 view .LVU331
 1189 0020 04F11403 		add	r3, r4, #20
 1190              	.LBB165:
 1191              	.LBI165:
  98:Middlewares/Third_Party/RealThread_RTOS/include/rtservice.h **** {
 1192              		.loc 2 98 15 is_stmt 1 discriminator 3 view .LVU332
 1193              	.LBB166:
 1194              		.loc 2 100 5 discriminator 3 view .LVU333
 1195              		.loc 2 100 13 is_stmt 0 discriminator 3 view .LVU334
 1196 0024 6069     		ldr	r0, [r4, #20]
 1197              	.LVL132:
 1198              		.loc 2 100 13 discriminator 3 view .LVU335
 1199              	.LBE166:
 1200              	.LBE165:
 1201              		.loc 1 454 8 discriminator 3 view .LVU336
 1202 0026 8342     		cmp	r3, r0
ARM GAS  C:\Users\Administrator\AppData\Local\Temp\ccS10GXs.s 			page 35


 1203 0028 18D0     		beq	.L80
 455:Middlewares/Third_Party/RealThread_RTOS/src/ipc.c ****     {
 456:Middlewares/Third_Party/RealThread_RTOS/src/ipc.c ****         /* resume the suspended thread */
 457:Middlewares/Third_Party/RealThread_RTOS/src/ipc.c ****         rt_ipc_list_resume(&(sem->parent.suspend_thread));
 1204              		.loc 1 457 9 is_stmt 1 view .LVU337
 1205              	.LVL133:
 1206              	.LBB167:
 1207              	.LBI167:
 140:Middlewares/Third_Party/RealThread_RTOS/src/ipc.c **** {
 1208              		.loc 1 140 20 view .LVU338
 1209              	.LBB168:
 142:Middlewares/Third_Party/RealThread_RTOS/src/ipc.c **** 
 1210              		.loc 1 142 5 view .LVU339
 145:Middlewares/Third_Party/RealThread_RTOS/src/ipc.c **** 
 1211              		.loc 1 145 5 view .LVU340
 147:Middlewares/Third_Party/RealThread_RTOS/src/ipc.c **** 
 1212              		.loc 1 147 5 view .LVU341
 147:Middlewares/Third_Party/RealThread_RTOS/src/ipc.c **** 
 1213              		.loc 1 147 5 view .LVU342
 147:Middlewares/Third_Party/RealThread_RTOS/src/ipc.c **** 
 1214              		.loc 1 147 5 view .LVU343
 150:Middlewares/Third_Party/RealThread_RTOS/src/ipc.c **** 
 1215              		.loc 1 150 5 view .LVU344
 1216 002a 1438     		subs	r0, r0, #20
 1217              	.LVL134:
 150:Middlewares/Third_Party/RealThread_RTOS/src/ipc.c **** 
 1218              		.loc 1 150 5 is_stmt 0 view .LVU345
 1219 002c FFF7FEFF 		bl	rt_thread_resume
 1220              	.LVL135:
 152:Middlewares/Third_Party/RealThread_RTOS/src/ipc.c **** }
 1221              		.loc 1 152 5 is_stmt 1 view .LVU346
 152:Middlewares/Third_Party/RealThread_RTOS/src/ipc.c **** }
 1222              		.loc 1 152 5 is_stmt 0 view .LVU347
 1223              	.LBE168:
 1224              	.LBE167:
 458:Middlewares/Third_Party/RealThread_RTOS/src/ipc.c ****         need_schedule = RT_TRUE;
 1225              		.loc 1 458 9 is_stmt 1 view .LVU348
 1226              		.loc 1 458 23 is_stmt 0 view .LVU349
 1227 0030 0124     		movs	r4, #1
 1228              	.LVL136:
 1229              	.L81:
 459:Middlewares/Third_Party/RealThread_RTOS/src/ipc.c ****     }
 460:Middlewares/Third_Party/RealThread_RTOS/src/ipc.c ****     else
 461:Middlewares/Third_Party/RealThread_RTOS/src/ipc.c ****     {
 462:Middlewares/Third_Party/RealThread_RTOS/src/ipc.c ****         if(sem->value < RT_SEM_VALUE_MAX)
 463:Middlewares/Third_Party/RealThread_RTOS/src/ipc.c ****         {
 464:Middlewares/Third_Party/RealThread_RTOS/src/ipc.c ****             sem->value ++; /* increase value */
 465:Middlewares/Third_Party/RealThread_RTOS/src/ipc.c ****         }
 466:Middlewares/Third_Party/RealThread_RTOS/src/ipc.c ****         else
 467:Middlewares/Third_Party/RealThread_RTOS/src/ipc.c ****         {
 468:Middlewares/Third_Party/RealThread_RTOS/src/ipc.c ****             rt_hw_interrupt_enable(temp); /* enable interrupt */
 469:Middlewares/Third_Party/RealThread_RTOS/src/ipc.c ****             return -RT_EFULL; /* value overflowed */
 470:Middlewares/Third_Party/RealThread_RTOS/src/ipc.c ****         }
 471:Middlewares/Third_Party/RealThread_RTOS/src/ipc.c ****     }
 472:Middlewares/Third_Party/RealThread_RTOS/src/ipc.c **** 
 473:Middlewares/Third_Party/RealThread_RTOS/src/ipc.c ****     /* enable interrupt */
 474:Middlewares/Third_Party/RealThread_RTOS/src/ipc.c ****     rt_hw_interrupt_enable(temp);
ARM GAS  C:\Users\Administrator\AppData\Local\Temp\ccS10GXs.s 			page 36


 1230              		.loc 1 474 5 is_stmt 1 view .LVU350
 1231 0032 2846     		mov	r0, r5
 1232 0034 FFF7FEFF 		bl	rt_hw_interrupt_enable
 1233              	.LVL137:
 475:Middlewares/Third_Party/RealThread_RTOS/src/ipc.c **** 
 476:Middlewares/Third_Party/RealThread_RTOS/src/ipc.c ****     /* resume a thread, re-schedule */
 477:Middlewares/Third_Party/RealThread_RTOS/src/ipc.c ****     if (need_schedule == RT_TRUE)
 1234              		.loc 1 477 5 view .LVU351
 1235              		.loc 1 477 8 is_stmt 0 view .LVU352
 1236 0038 012C     		cmp	r4, #1
 1237 003a 1ED0     		beq	.L87
 1238              	.LVL138:
 1239              	.L76:
 478:Middlewares/Third_Party/RealThread_RTOS/src/ipc.c ****         rt_schedule();
 479:Middlewares/Third_Party/RealThread_RTOS/src/ipc.c **** 
 480:Middlewares/Third_Party/RealThread_RTOS/src/ipc.c ****     return RT_EOK;
 481:Middlewares/Third_Party/RealThread_RTOS/src/ipc.c **** }
 1240              		.loc 1 481 1 view .LVU353
 1241 003c 2046     		mov	r0, r4
 1242 003e 38BD     		pop	{r3, r4, r5, pc}
 1243              	.LVL139:
 1244              	.L85:
 439:Middlewares/Third_Party/RealThread_RTOS/src/ipc.c ****     RT_ASSERT(rt_object_get_type(&sem->parent.parent) == RT_Object_Class_Semaphore);
 1245              		.loc 1 439 5 is_stmt 1 discriminator 1 view .LVU354
 1246 0040 40F2B712 		movw	r2, #439
 1247 0044 1049     		ldr	r1, .L88+4
 1248 0046 1148     		ldr	r0, .L88+8
 1249              	.LVL140:
 439:Middlewares/Third_Party/RealThread_RTOS/src/ipc.c ****     RT_ASSERT(rt_object_get_type(&sem->parent.parent) == RT_Object_Class_Semaphore);
 1250              		.loc 1 439 5 is_stmt 0 discriminator 1 view .LVU355
 1251 0048 FFF7FEFF 		bl	rt_assert_handler
 1252              	.LVL141:
 1253 004c DBE7     		b	.L77
 1254              	.L86:
 440:Middlewares/Third_Party/RealThread_RTOS/src/ipc.c **** 
 1255              		.loc 1 440 5 is_stmt 1 discriminator 1 view .LVU356
 1256 004e 4FF4DC72 		mov	r2, #440
 1257 0052 0D49     		ldr	r1, .L88+4
 1258 0054 0E48     		ldr	r0, .L88+12
 1259 0056 FFF7FEFF 		bl	rt_assert_handler
 1260              	.LVL142:
 1261 005a D9E7     		b	.L78
 1262              	.LVL143:
 1263              	.L80:
 462:Middlewares/Third_Party/RealThread_RTOS/src/ipc.c ****         {
 1264              		.loc 1 462 9 view .LVU357
 462:Middlewares/Third_Party/RealThread_RTOS/src/ipc.c ****         {
 1265              		.loc 1 462 15 is_stmt 0 view .LVU358
 1266 005c A38B     		ldrh	r3, [r4, #28]
 462:Middlewares/Third_Party/RealThread_RTOS/src/ipc.c ****         {
 1267              		.loc 1 462 11 view .LVU359
 1268 005e 4FF6FF72 		movw	r2, #65535
 1269 0062 9342     		cmp	r3, r2
 1270 0064 03D0     		beq	.L82
 464:Middlewares/Third_Party/RealThread_RTOS/src/ipc.c ****         }
 1271              		.loc 1 464 13 is_stmt 1 view .LVU360
 464:Middlewares/Third_Party/RealThread_RTOS/src/ipc.c ****         }
ARM GAS  C:\Users\Administrator\AppData\Local\Temp\ccS10GXs.s 			page 37


 1272              		.loc 1 464 24 is_stmt 0 view .LVU361
 1273 0066 0133     		adds	r3, r3, #1
 1274 0068 A383     		strh	r3, [r4, #28]	@ movhi
 444:Middlewares/Third_Party/RealThread_RTOS/src/ipc.c **** 
 1275              		.loc 1 444 19 view .LVU362
 1276 006a 0024     		movs	r4, #0
 1277              	.LVL144:
 444:Middlewares/Third_Party/RealThread_RTOS/src/ipc.c **** 
 1278              		.loc 1 444 19 view .LVU363
 1279 006c E1E7     		b	.L81
 1280              	.LVL145:
 1281              	.L82:
 468:Middlewares/Third_Party/RealThread_RTOS/src/ipc.c ****             return -RT_EFULL; /* value overflowed */
 1282              		.loc 1 468 13 is_stmt 1 view .LVU364
 1283 006e 2846     		mov	r0, r5
 1284 0070 FFF7FEFF 		bl	rt_hw_interrupt_enable
 1285              	.LVL146:
 469:Middlewares/Third_Party/RealThread_RTOS/src/ipc.c ****         }
 1286              		.loc 1 469 13 view .LVU365
 469:Middlewares/Third_Party/RealThread_RTOS/src/ipc.c ****         }
 1287              		.loc 1 469 20 is_stmt 0 view .LVU366
 1288 0074 6FF00204 		mvn	r4, #2
 1289              	.LVL147:
 469:Middlewares/Third_Party/RealThread_RTOS/src/ipc.c ****         }
 1290              		.loc 1 469 20 view .LVU367
 1291 0078 E0E7     		b	.L76
 1292              	.LVL148:
 1293              	.L87:
 478:Middlewares/Third_Party/RealThread_RTOS/src/ipc.c **** 
 1294              		.loc 1 478 9 is_stmt 1 view .LVU368
 1295 007a FFF7FEFF 		bl	rt_schedule
 1296              	.LVL149:
 480:Middlewares/Third_Party/RealThread_RTOS/src/ipc.c **** }
 1297              		.loc 1 480 12 is_stmt 0 view .LVU369
 1298 007e 0024     		movs	r4, #0
 1299              	.LVL150:
 480:Middlewares/Third_Party/RealThread_RTOS/src/ipc.c **** }
 1300              		.loc 1 480 12 view .LVU370
 1301 0080 DCE7     		b	.L76
 1302              	.L89:
 1303 0082 00BF     		.align	2
 1304              	.L88:
 1305 0084 00000000 		.word	rt_object_put_hook
 1306 0088 00000000 		.word	.LANCHOR5
 1307 008c 00000000 		.word	.LC0
 1308 0090 00000000 		.word	.LC2
 1309              		.cfi_endproc
 1310              	.LFE25:
 1312              		.section	.text.rt_sem_control,"ax",%progbits
 1313              		.align	1
 1314              		.global	rt_sem_control
 1315              		.syntax unified
 1316              		.thumb
 1317              		.thumb_func
 1318              		.fpu softvfp
 1320              	rt_sem_control:
 1321              	.LVL151:
ARM GAS  C:\Users\Administrator\AppData\Local\Temp\ccS10GXs.s 			page 38


 1322              	.LFB26:
 482:Middlewares/Third_Party/RealThread_RTOS/src/ipc.c **** 
 483:Middlewares/Third_Party/RealThread_RTOS/src/ipc.c **** /**
 484:Middlewares/Third_Party/RealThread_RTOS/src/ipc.c ****  * This function can get or set some extra attributions of a semaphore object.
 485:Middlewares/Third_Party/RealThread_RTOS/src/ipc.c ****  *
 486:Middlewares/Third_Party/RealThread_RTOS/src/ipc.c ****  * @param sem the semaphore object
 487:Middlewares/Third_Party/RealThread_RTOS/src/ipc.c ****  * @param cmd the execution command
 488:Middlewares/Third_Party/RealThread_RTOS/src/ipc.c ****  * @param arg the execution argument
 489:Middlewares/Third_Party/RealThread_RTOS/src/ipc.c ****  *
 490:Middlewares/Third_Party/RealThread_RTOS/src/ipc.c ****  * @return the error code
 491:Middlewares/Third_Party/RealThread_RTOS/src/ipc.c ****  */
 492:Middlewares/Third_Party/RealThread_RTOS/src/ipc.c **** rt_err_t rt_sem_control(rt_sem_t sem, int cmd, void *arg)
 493:Middlewares/Third_Party/RealThread_RTOS/src/ipc.c **** {
 1323              		.loc 1 493 1 is_stmt 1 view -0
 1324              		.cfi_startproc
 1325              		@ args = 0, pretend = 0, frame = 0
 1326              		@ frame_needed = 0, uses_anonymous_args = 0
 1327              		.loc 1 493 1 is_stmt 0 view .LVU372
 1328 0000 2DE9F041 		push	{r4, r5, r6, r7, r8, lr}
 1329              	.LCFI10:
 1330              		.cfi_def_cfa_offset 24
 1331              		.cfi_offset 4, -24
 1332              		.cfi_offset 5, -20
 1333              		.cfi_offset 6, -16
 1334              		.cfi_offset 7, -12
 1335              		.cfi_offset 8, -8
 1336              		.cfi_offset 14, -4
 1337 0004 0C46     		mov	r4, r1
 1338 0006 1646     		mov	r6, r2
 494:Middlewares/Third_Party/RealThread_RTOS/src/ipc.c ****     rt_ubase_t level;
 1339              		.loc 1 494 5 is_stmt 1 view .LVU373
 495:Middlewares/Third_Party/RealThread_RTOS/src/ipc.c **** 
 496:Middlewares/Third_Party/RealThread_RTOS/src/ipc.c ****     /* parameter check */
 497:Middlewares/Third_Party/RealThread_RTOS/src/ipc.c ****     RT_ASSERT(sem != RT_NULL);
 1340              		.loc 1 497 5 view .LVU374
 1341 0008 0746     		mov	r7, r0
 1342 000a 60B1     		cbz	r0, .L98
 1343              	.LVL152:
 1344              	.L91:
 1345              		.loc 1 497 30 discriminator 3 view .LVU375
 498:Middlewares/Third_Party/RealThread_RTOS/src/ipc.c ****     RT_ASSERT(rt_object_get_type(&sem->parent.parent) == RT_Object_Class_Semaphore);
 1346              		.loc 1 498 5 discriminator 3 view .LVU376
 1347 000c 3846     		mov	r0, r7
 1348 000e FFF7FEFF 		bl	rt_object_get_type
 1349              	.LVL153:
 1350 0012 0228     		cmp	r0, #2
 1351 0014 0ED1     		bne	.L99
 1352              	.L92:
 1353              		.loc 1 498 84 discriminator 3 view .LVU377
 499:Middlewares/Third_Party/RealThread_RTOS/src/ipc.c **** 
 500:Middlewares/Third_Party/RealThread_RTOS/src/ipc.c ****     if (cmd == RT_IPC_CMD_RESET)
 1354              		.loc 1 500 5 discriminator 3 view .LVU378
 1355              		.loc 1 500 8 is_stmt 0 discriminator 3 view .LVU379
 1356 0016 012C     		cmp	r4, #1
 1357 0018 2CD1     		bne	.L96
 1358              	.LBB174:
 501:Middlewares/Third_Party/RealThread_RTOS/src/ipc.c ****     {
ARM GAS  C:\Users\Administrator\AppData\Local\Temp\ccS10GXs.s 			page 39


 502:Middlewares/Third_Party/RealThread_RTOS/src/ipc.c ****         rt_ubase_t value;
 1359              		.loc 1 502 9 is_stmt 1 view .LVU380
 503:Middlewares/Third_Party/RealThread_RTOS/src/ipc.c **** 
 504:Middlewares/Third_Party/RealThread_RTOS/src/ipc.c ****         /* get value */
 505:Middlewares/Third_Party/RealThread_RTOS/src/ipc.c ****         value = (rt_ubase_t)arg;
 1360              		.loc 1 505 9 view .LVU381
 1361              	.LVL154:
 506:Middlewares/Third_Party/RealThread_RTOS/src/ipc.c ****         /* disable interrupt */
 507:Middlewares/Third_Party/RealThread_RTOS/src/ipc.c ****         level = rt_hw_interrupt_disable();
 1362              		.loc 1 507 9 view .LVU382
 1363              		.loc 1 507 17 is_stmt 0 view .LVU383
 1364 001a FFF7FEFF 		bl	rt_hw_interrupt_disable
 1365              	.LVL155:
 1366 001e 8046     		mov	r8, r0
 1367              	.LVL156:
 508:Middlewares/Third_Party/RealThread_RTOS/src/ipc.c **** 
 509:Middlewares/Third_Party/RealThread_RTOS/src/ipc.c ****         /* resume all waiting thread */
 510:Middlewares/Third_Party/RealThread_RTOS/src/ipc.c ****         rt_ipc_list_resume_all(&sem->parent.suspend_thread);
 1368              		.loc 1 510 9 is_stmt 1 view .LVU384
 1369 0020 07F11405 		add	r5, r7, #20
 1370              	.LVL157:
 1371              	.LBB175:
 1372              	.LBI175:
 163:Middlewares/Third_Party/RealThread_RTOS/src/ipc.c **** {
 1373              		.loc 1 163 20 view .LVU385
 1374              	.LBB176:
 165:Middlewares/Third_Party/RealThread_RTOS/src/ipc.c ****     register rt_ubase_t temp;
 1375              		.loc 1 165 5 view .LVU386
 166:Middlewares/Third_Party/RealThread_RTOS/src/ipc.c **** 
 1376              		.loc 1 166 5 view .LVU387
 169:Middlewares/Third_Party/RealThread_RTOS/src/ipc.c ****     {
 1377              		.loc 1 169 5 view .LVU388
 169:Middlewares/Third_Party/RealThread_RTOS/src/ipc.c ****     {
 1378              		.loc 1 169 11 is_stmt 0 view .LVU389
 1379 0024 1AE0     		b	.L94
 1380              	.LVL158:
 1381              	.L98:
 169:Middlewares/Third_Party/RealThread_RTOS/src/ipc.c ****     {
 1382              		.loc 1 169 11 view .LVU390
 1383              	.LBE176:
 1384              	.LBE175:
 1385              	.LBE174:
 497:Middlewares/Third_Party/RealThread_RTOS/src/ipc.c ****     RT_ASSERT(rt_object_get_type(&sem->parent.parent) == RT_Object_Class_Semaphore);
 1386              		.loc 1 497 5 is_stmt 1 discriminator 1 view .LVU391
 1387 0026 40F2F112 		movw	r2, #497
 1388              	.LVL159:
 497:Middlewares/Third_Party/RealThread_RTOS/src/ipc.c ****     RT_ASSERT(rt_object_get_type(&sem->parent.parent) == RT_Object_Class_Semaphore);
 1389              		.loc 1 497 5 is_stmt 0 discriminator 1 view .LVU392
 1390 002a 1449     		ldr	r1, .L100
 1391              	.LVL160:
 497:Middlewares/Third_Party/RealThread_RTOS/src/ipc.c ****     RT_ASSERT(rt_object_get_type(&sem->parent.parent) == RT_Object_Class_Semaphore);
 1392              		.loc 1 497 5 discriminator 1 view .LVU393
 1393 002c 1448     		ldr	r0, .L100+4
 1394              	.LVL161:
 497:Middlewares/Third_Party/RealThread_RTOS/src/ipc.c ****     RT_ASSERT(rt_object_get_type(&sem->parent.parent) == RT_Object_Class_Semaphore);
 1395              		.loc 1 497 5 discriminator 1 view .LVU394
 1396 002e FFF7FEFF 		bl	rt_assert_handler
ARM GAS  C:\Users\Administrator\AppData\Local\Temp\ccS10GXs.s 			page 40


 1397              	.LVL162:
 1398 0032 EBE7     		b	.L91
 1399              	.L99:
 498:Middlewares/Third_Party/RealThread_RTOS/src/ipc.c **** 
 1400              		.loc 1 498 5 is_stmt 1 discriminator 1 view .LVU395
 1401 0034 4FF4F972 		mov	r2, #498
 1402 0038 1049     		ldr	r1, .L100
 1403 003a 1248     		ldr	r0, .L100+8
 1404 003c FFF7FEFF 		bl	rt_assert_handler
 1405              	.LVL163:
 1406 0040 E9E7     		b	.L92
 1407              	.LVL164:
 1408              	.L95:
 1409              	.LBB181:
 1410              	.LBB180:
 1411              	.LBB179:
 172:Middlewares/Third_Party/RealThread_RTOS/src/ipc.c **** 
 1412              		.loc 1 172 9 view .LVU396
 172:Middlewares/Third_Party/RealThread_RTOS/src/ipc.c **** 
 1413              		.loc 1 172 16 is_stmt 0 view .LVU397
 1414 0042 FFF7FEFF 		bl	rt_hw_interrupt_disable
 1415              	.LVL165:
 1416 0046 0446     		mov	r4, r0
 1417              	.LVL166:
 175:Middlewares/Third_Party/RealThread_RTOS/src/ipc.c ****         /* set error code to RT_ERROR */
 1418              		.loc 1 175 9 is_stmt 1 view .LVU398
 175:Middlewares/Third_Party/RealThread_RTOS/src/ipc.c ****         /* set error code to RT_ERROR */
 1419              		.loc 1 175 18 is_stmt 0 view .LVU399
 1420 0048 2868     		ldr	r0, [r5]
 1421              	.LVL167:
 177:Middlewares/Third_Party/RealThread_RTOS/src/ipc.c **** 
 1422              		.loc 1 177 9 is_stmt 1 view .LVU400
 177:Middlewares/Third_Party/RealThread_RTOS/src/ipc.c **** 
 1423              		.loc 1 177 23 is_stmt 0 view .LVU401
 1424 004a 4FF0FF33 		mov	r3, #-1
 1425 004e C361     		str	r3, [r0, #28]
 184:Middlewares/Third_Party/RealThread_RTOS/src/ipc.c **** 
 1426              		.loc 1 184 9 is_stmt 1 view .LVU402
 1427 0050 1438     		subs	r0, r0, #20
 1428              	.LVL168:
 184:Middlewares/Third_Party/RealThread_RTOS/src/ipc.c **** 
 1429              		.loc 1 184 9 is_stmt 0 view .LVU403
 1430 0052 FFF7FEFF 		bl	rt_thread_resume
 1431              	.LVL169:
 187:Middlewares/Third_Party/RealThread_RTOS/src/ipc.c ****     }
 1432              		.loc 1 187 9 is_stmt 1 view .LVU404
 1433 0056 2046     		mov	r0, r4
 1434 0058 FFF7FEFF 		bl	rt_hw_interrupt_enable
 1435              	.LVL170:
 1436              	.L94:
 169:Middlewares/Third_Party/RealThread_RTOS/src/ipc.c ****     {
 1437              		.loc 1 169 11 view .LVU405
 1438              	.LBB177:
 1439              	.LBI177:
  98:Middlewares/Third_Party/RealThread_RTOS/include/rtservice.h **** {
 1440              		.loc 2 98 15 view .LVU406
 1441              	.LBB178:
ARM GAS  C:\Users\Administrator\AppData\Local\Temp\ccS10GXs.s 			page 41


 1442              		.loc 2 100 5 view .LVU407
 1443              		.loc 2 100 13 is_stmt 0 view .LVU408
 1444 005c 2B68     		ldr	r3, [r5]
 1445              	.LVL171:
 1446              		.loc 2 100 13 view .LVU409
 1447              	.LBE178:
 1448              	.LBE177:
 169:Middlewares/Third_Party/RealThread_RTOS/src/ipc.c ****     {
 1449              		.loc 1 169 11 view .LVU410
 1450 005e 9D42     		cmp	r5, r3
 1451 0060 EFD1     		bne	.L95
 190:Middlewares/Third_Party/RealThread_RTOS/src/ipc.c **** }
 1452              		.loc 1 190 5 is_stmt 1 view .LVU411
 1453              	.LVL172:
 190:Middlewares/Third_Party/RealThread_RTOS/src/ipc.c **** }
 1454              		.loc 1 190 5 is_stmt 0 view .LVU412
 1455              	.LBE179:
 1456              	.LBE180:
 511:Middlewares/Third_Party/RealThread_RTOS/src/ipc.c **** 
 512:Middlewares/Third_Party/RealThread_RTOS/src/ipc.c ****         /* set new value */
 513:Middlewares/Third_Party/RealThread_RTOS/src/ipc.c ****         sem->value = (rt_uint16_t)value;
 1457              		.loc 1 513 9 is_stmt 1 view .LVU413
 1458              		.loc 1 513 20 is_stmt 0 view .LVU414
 1459 0062 BE83     		strh	r6, [r7, #28]	@ movhi
 514:Middlewares/Third_Party/RealThread_RTOS/src/ipc.c **** 
 515:Middlewares/Third_Party/RealThread_RTOS/src/ipc.c ****         /* enable interrupt */
 516:Middlewares/Third_Party/RealThread_RTOS/src/ipc.c ****         rt_hw_interrupt_enable(level);
 1460              		.loc 1 516 9 is_stmt 1 view .LVU415
 1461 0064 4046     		mov	r0, r8
 1462 0066 FFF7FEFF 		bl	rt_hw_interrupt_enable
 1463              	.LVL173:
 517:Middlewares/Third_Party/RealThread_RTOS/src/ipc.c **** 
 518:Middlewares/Third_Party/RealThread_RTOS/src/ipc.c ****         rt_schedule();
 1464              		.loc 1 518 9 view .LVU416
 1465 006a FFF7FEFF 		bl	rt_schedule
 1466              	.LVL174:
 519:Middlewares/Third_Party/RealThread_RTOS/src/ipc.c **** 
 520:Middlewares/Third_Party/RealThread_RTOS/src/ipc.c ****         return RT_EOK;
 1467              		.loc 1 520 9 view .LVU417
 1468              		.loc 1 520 16 is_stmt 0 view .LVU418
 1469 006e 0020     		movs	r0, #0
 1470              	.LVL175:
 1471              	.L90:
 1472              		.loc 1 520 16 view .LVU419
 1473              	.LBE181:
 521:Middlewares/Third_Party/RealThread_RTOS/src/ipc.c ****     }
 522:Middlewares/Third_Party/RealThread_RTOS/src/ipc.c **** 
 523:Middlewares/Third_Party/RealThread_RTOS/src/ipc.c ****     return -RT_ERROR;
 524:Middlewares/Third_Party/RealThread_RTOS/src/ipc.c **** }
 1474              		.loc 1 524 1 view .LVU420
 1475 0070 BDE8F081 		pop	{r4, r5, r6, r7, r8, pc}
 1476              	.LVL176:
 1477              	.L96:
 523:Middlewares/Third_Party/RealThread_RTOS/src/ipc.c **** }
 1478              		.loc 1 523 12 view .LVU421
 1479 0074 4FF0FF30 		mov	r0, #-1
 1480 0078 FAE7     		b	.L90
ARM GAS  C:\Users\Administrator\AppData\Local\Temp\ccS10GXs.s 			page 42


 1481              	.L101:
 1482 007a 00BF     		.align	2
 1483              	.L100:
 1484 007c 00000000 		.word	.LANCHOR6
 1485 0080 00000000 		.word	.LC0
 1486 0084 00000000 		.word	.LC2
 1487              		.cfi_endproc
 1488              	.LFE26:
 1490              		.section	.rodata.rt_mutex_init.str1.4,"aMS",%progbits,1
 1491              		.align	2
 1492              	.LC8:
 1493 0000 6D757465 		.ascii	"mutex != RT_NULL\000"
 1493      7820213D 
 1493      2052545F 
 1493      4E554C4C 
 1493      00
 1494              		.section	.text.rt_mutex_init,"ax",%progbits
 1495              		.align	1
 1496              		.global	rt_mutex_init
 1497              		.syntax unified
 1498              		.thumb
 1499              		.thumb_func
 1500              		.fpu softvfp
 1502              	rt_mutex_init:
 1503              	.LVL177:
 1504              	.LFB27:
 525:Middlewares/Third_Party/RealThread_RTOS/src/ipc.c **** #endif /* end of RT_USING_SEMAPHORE */
 526:Middlewares/Third_Party/RealThread_RTOS/src/ipc.c **** 
 527:Middlewares/Third_Party/RealThread_RTOS/src/ipc.c **** #ifdef RT_USING_MUTEX
 528:Middlewares/Third_Party/RealThread_RTOS/src/ipc.c **** /**
 529:Middlewares/Third_Party/RealThread_RTOS/src/ipc.c ****  * This function will initialize a mutex and put it under control of resource
 530:Middlewares/Third_Party/RealThread_RTOS/src/ipc.c ****  * management.
 531:Middlewares/Third_Party/RealThread_RTOS/src/ipc.c ****  *
 532:Middlewares/Third_Party/RealThread_RTOS/src/ipc.c ****  * @param mutex the mutex object
 533:Middlewares/Third_Party/RealThread_RTOS/src/ipc.c ****  * @param name the name of mutex
 534:Middlewares/Third_Party/RealThread_RTOS/src/ipc.c ****  * @param flag the flag of mutex
 535:Middlewares/Third_Party/RealThread_RTOS/src/ipc.c ****  *
 536:Middlewares/Third_Party/RealThread_RTOS/src/ipc.c ****  * @return the operation status, RT_EOK on successful
 537:Middlewares/Third_Party/RealThread_RTOS/src/ipc.c ****  */
 538:Middlewares/Third_Party/RealThread_RTOS/src/ipc.c **** rt_err_t rt_mutex_init(rt_mutex_t mutex, const char *name, rt_uint8_t flag)
 539:Middlewares/Third_Party/RealThread_RTOS/src/ipc.c **** {
 1505              		.loc 1 539 1 is_stmt 1 view -0
 1506              		.cfi_startproc
 1507              		@ args = 0, pretend = 0, frame = 0
 1508              		@ frame_needed = 0, uses_anonymous_args = 0
 1509              		.loc 1 539 1 is_stmt 0 view .LVU423
 1510 0000 70B5     		push	{r4, r5, r6, lr}
 1511              	.LCFI11:
 1512              		.cfi_def_cfa_offset 16
 1513              		.cfi_offset 4, -16
 1514              		.cfi_offset 5, -12
 1515              		.cfi_offset 6, -8
 1516              		.cfi_offset 14, -4
 1517 0002 0E46     		mov	r6, r1
 1518 0004 1546     		mov	r5, r2
 540:Middlewares/Third_Party/RealThread_RTOS/src/ipc.c ****     /* parameter check */
 541:Middlewares/Third_Party/RealThread_RTOS/src/ipc.c ****     RT_ASSERT(mutex != RT_NULL);
ARM GAS  C:\Users\Administrator\AppData\Local\Temp\ccS10GXs.s 			page 43


 1519              		.loc 1 541 5 is_stmt 1 view .LVU424
 1520 0006 0446     		mov	r4, r0
 1521 0008 88B1     		cbz	r0, .L105
 1522              	.LVL178:
 1523              	.L103:
 1524              		.loc 1 541 32 discriminator 3 view .LVU425
 542:Middlewares/Third_Party/RealThread_RTOS/src/ipc.c **** 
 543:Middlewares/Third_Party/RealThread_RTOS/src/ipc.c ****     /* initialize object */
 544:Middlewares/Third_Party/RealThread_RTOS/src/ipc.c ****     rt_object_init(&(mutex->parent.parent), RT_Object_Class_Mutex, name);
 1525              		.loc 1 544 5 discriminator 3 view .LVU426
 1526 000a 3246     		mov	r2, r6
 1527 000c 0321     		movs	r1, #3
 1528 000e 2046     		mov	r0, r4
 1529 0010 FFF7FEFF 		bl	rt_object_init
 1530              	.LVL179:
 545:Middlewares/Third_Party/RealThread_RTOS/src/ipc.c **** 
 546:Middlewares/Third_Party/RealThread_RTOS/src/ipc.c ****     /* initialize ipc object */
 547:Middlewares/Third_Party/RealThread_RTOS/src/ipc.c ****     rt_ipc_object_init(&(mutex->parent));
 1531              		.loc 1 547 5 discriminator 3 view .LVU427
 1532              	.LBB182:
 1533              	.LBI182:
  64:Middlewares/Third_Party/RealThread_RTOS/src/ipc.c **** {
 1534              		.loc 1 64 20 discriminator 3 view .LVU428
 1535              	.LBB183:
  67:Middlewares/Third_Party/RealThread_RTOS/src/ipc.c **** 
 1536              		.loc 1 67 5 discriminator 3 view .LVU429
 1537 0014 04F11403 		add	r3, r4, #20
 1538              	.LVL180:
 1539              	.LBB184:
 1540              	.LBI184:
  47:Middlewares/Third_Party/RealThread_RTOS/include/rtservice.h **** {
 1541              		.loc 2 47 16 discriminator 3 view .LVU430
 1542              	.LBB185:
  49:Middlewares/Third_Party/RealThread_RTOS/include/rtservice.h **** }
 1543              		.loc 2 49 5 discriminator 3 view .LVU431
  49:Middlewares/Third_Party/RealThread_RTOS/include/rtservice.h **** }
 1544              		.loc 2 49 23 is_stmt 0 discriminator 3 view .LVU432
 1545 0018 A361     		str	r3, [r4, #24]
  49:Middlewares/Third_Party/RealThread_RTOS/include/rtservice.h **** }
 1546              		.loc 2 49 13 discriminator 3 view .LVU433
 1547 001a 6361     		str	r3, [r4, #20]
 1548              	.LVL181:
  49:Middlewares/Third_Party/RealThread_RTOS/include/rtservice.h **** }
 1549              		.loc 2 49 13 discriminator 3 view .LVU434
 1550              	.LBE185:
 1551              	.LBE184:
  69:Middlewares/Third_Party/RealThread_RTOS/src/ipc.c **** }
 1552              		.loc 1 69 5 is_stmt 1 discriminator 3 view .LVU435
  69:Middlewares/Third_Party/RealThread_RTOS/src/ipc.c **** }
 1553              		.loc 1 69 5 is_stmt 0 discriminator 3 view .LVU436
 1554              	.LBE183:
 1555              	.LBE182:
 548:Middlewares/Third_Party/RealThread_RTOS/src/ipc.c **** 
 549:Middlewares/Third_Party/RealThread_RTOS/src/ipc.c ****     mutex->value = 1;
 1556              		.loc 1 549 5 is_stmt 1 discriminator 3 view .LVU437
 1557              		.loc 1 549 18 is_stmt 0 discriminator 3 view .LVU438
 1558 001c 0123     		movs	r3, #1
ARM GAS  C:\Users\Administrator\AppData\Local\Temp\ccS10GXs.s 			page 44


 1559 001e A383     		strh	r3, [r4, #28]	@ movhi
 550:Middlewares/Third_Party/RealThread_RTOS/src/ipc.c ****     mutex->owner = RT_NULL;
 1560              		.loc 1 550 5 is_stmt 1 discriminator 3 view .LVU439
 1561              		.loc 1 550 18 is_stmt 0 discriminator 3 view .LVU440
 1562 0020 0020     		movs	r0, #0
 1563 0022 2062     		str	r0, [r4, #32]
 551:Middlewares/Third_Party/RealThread_RTOS/src/ipc.c ****     mutex->original_priority = 0xFF;
 1564              		.loc 1 551 5 is_stmt 1 discriminator 3 view .LVU441
 1565              		.loc 1 551 30 is_stmt 0 discriminator 3 view .LVU442
 1566 0024 FF23     		movs	r3, #255
 1567 0026 A377     		strb	r3, [r4, #30]
 552:Middlewares/Third_Party/RealThread_RTOS/src/ipc.c ****     mutex->hold  = 0;
 1568              		.loc 1 552 5 is_stmt 1 discriminator 3 view .LVU443
 1569              		.loc 1 552 18 is_stmt 0 discriminator 3 view .LVU444
 1570 0028 E077     		strb	r0, [r4, #31]
 553:Middlewares/Third_Party/RealThread_RTOS/src/ipc.c **** 
 554:Middlewares/Third_Party/RealThread_RTOS/src/ipc.c ****     /* set flag */
 555:Middlewares/Third_Party/RealThread_RTOS/src/ipc.c ****     mutex->parent.parent.flag = flag;
 1571              		.loc 1 555 5 is_stmt 1 discriminator 3 view .LVU445
 1572              		.loc 1 555 31 is_stmt 0 discriminator 3 view .LVU446
 1573 002a 6572     		strb	r5, [r4, #9]
 556:Middlewares/Third_Party/RealThread_RTOS/src/ipc.c **** 
 557:Middlewares/Third_Party/RealThread_RTOS/src/ipc.c ****     return RT_EOK;
 1574              		.loc 1 557 5 is_stmt 1 discriminator 3 view .LVU447
 558:Middlewares/Third_Party/RealThread_RTOS/src/ipc.c **** }
 1575              		.loc 1 558 1 is_stmt 0 discriminator 3 view .LVU448
 1576 002c 70BD     		pop	{r4, r5, r6, pc}
 1577              	.LVL182:
 1578              	.L105:
 541:Middlewares/Third_Party/RealThread_RTOS/src/ipc.c **** 
 1579              		.loc 1 541 5 is_stmt 1 discriminator 1 view .LVU449
 1580 002e 40F21D22 		movw	r2, #541
 1581              	.LVL183:
 541:Middlewares/Third_Party/RealThread_RTOS/src/ipc.c **** 
 1582              		.loc 1 541 5 is_stmt 0 discriminator 1 view .LVU450
 1583 0032 0249     		ldr	r1, .L106
 1584              	.LVL184:
 541:Middlewares/Third_Party/RealThread_RTOS/src/ipc.c **** 
 1585              		.loc 1 541 5 discriminator 1 view .LVU451
 1586 0034 0248     		ldr	r0, .L106+4
 1587              	.LVL185:
 541:Middlewares/Third_Party/RealThread_RTOS/src/ipc.c **** 
 1588              		.loc 1 541 5 discriminator 1 view .LVU452
 1589 0036 FFF7FEFF 		bl	rt_assert_handler
 1590              	.LVL186:
 1591 003a E6E7     		b	.L103
 1592              	.L107:
 1593              		.align	2
 1594              	.L106:
 1595 003c 00000000 		.word	.LANCHOR7
 1596 0040 00000000 		.word	.LC8
 1597              		.cfi_endproc
 1598              	.LFE27:
 1600              		.section	.rodata.rt_mutex_detach.str1.4,"aMS",%progbits,1
 1601              		.align	2
 1602              	.LC9:
 1603 0000 72745F6F 		.ascii	"rt_object_get_type(&mutex->parent.parent) == RT_Obj"
ARM GAS  C:\Users\Administrator\AppData\Local\Temp\ccS10GXs.s 			page 45


 1603      626A6563 
 1603      745F6765 
 1603      745F7479 
 1603      70652826 
 1604 0033 6563745F 		.ascii	"ect_Class_Mutex\000"
 1604      436C6173 
 1604      735F4D75 
 1604      74657800 
 1605 0043 00       		.align	2
 1606              	.LC10:
 1607 0044 72745F6F 		.ascii	"rt_object_is_systemobject(&mutex->parent.parent)\000"
 1607      626A6563 
 1607      745F6973 
 1607      5F737973 
 1607      74656D6F 
 1608              		.section	.text.rt_mutex_detach,"ax",%progbits
 1609              		.align	1
 1610              		.global	rt_mutex_detach
 1611              		.syntax unified
 1612              		.thumb
 1613              		.thumb_func
 1614              		.fpu softvfp
 1616              	rt_mutex_detach:
 1617              	.LVL187:
 1618              	.LFB28:
 559:Middlewares/Third_Party/RealThread_RTOS/src/ipc.c **** 
 560:Middlewares/Third_Party/RealThread_RTOS/src/ipc.c **** /**
 561:Middlewares/Third_Party/RealThread_RTOS/src/ipc.c ****  * This function will detach a mutex from resource management
 562:Middlewares/Third_Party/RealThread_RTOS/src/ipc.c ****  *
 563:Middlewares/Third_Party/RealThread_RTOS/src/ipc.c ****  * @param mutex the mutex object
 564:Middlewares/Third_Party/RealThread_RTOS/src/ipc.c ****  *
 565:Middlewares/Third_Party/RealThread_RTOS/src/ipc.c ****  * @return the operation status, RT_EOK on successful
 566:Middlewares/Third_Party/RealThread_RTOS/src/ipc.c ****  *
 567:Middlewares/Third_Party/RealThread_RTOS/src/ipc.c ****  * @see rt_mutex_delete
 568:Middlewares/Third_Party/RealThread_RTOS/src/ipc.c ****  */
 569:Middlewares/Third_Party/RealThread_RTOS/src/ipc.c **** rt_err_t rt_mutex_detach(rt_mutex_t mutex)
 570:Middlewares/Third_Party/RealThread_RTOS/src/ipc.c **** {
 1619              		.loc 1 570 1 is_stmt 1 view -0
 1620              		.cfi_startproc
 1621              		@ args = 0, pretend = 0, frame = 0
 1622              		@ frame_needed = 0, uses_anonymous_args = 0
 1623              		.loc 1 570 1 is_stmt 0 view .LVU454
 1624 0000 70B5     		push	{r4, r5, r6, lr}
 1625              	.LCFI12:
 1626              		.cfi_def_cfa_offset 16
 1627              		.cfi_offset 4, -16
 1628              		.cfi_offset 5, -12
 1629              		.cfi_offset 6, -8
 1630              		.cfi_offset 14, -4
 571:Middlewares/Third_Party/RealThread_RTOS/src/ipc.c ****     /* parameter check */
 572:Middlewares/Third_Party/RealThread_RTOS/src/ipc.c ****     RT_ASSERT(mutex != RT_NULL);
 1631              		.loc 1 572 5 is_stmt 1 view .LVU455
 1632 0002 0646     		mov	r6, r0
 1633 0004 58B1     		cbz	r0, .L115
 1634              	.LVL188:
 1635              	.L109:
 1636              		.loc 1 572 32 discriminator 3 view .LVU456
ARM GAS  C:\Users\Administrator\AppData\Local\Temp\ccS10GXs.s 			page 46


 573:Middlewares/Third_Party/RealThread_RTOS/src/ipc.c ****     RT_ASSERT(rt_object_get_type(&mutex->parent.parent) == RT_Object_Class_Mutex);
 1637              		.loc 1 573 5 discriminator 3 view .LVU457
 1638 0006 3046     		mov	r0, r6
 1639 0008 FFF7FEFF 		bl	rt_object_get_type
 1640              	.LVL189:
 1641 000c 0328     		cmp	r0, #3
 1642 000e 0DD1     		bne	.L116
 1643              	.L110:
 1644              		.loc 1 573 82 discriminator 3 view .LVU458
 574:Middlewares/Third_Party/RealThread_RTOS/src/ipc.c ****     RT_ASSERT(rt_object_is_systemobject(&mutex->parent.parent));
 1645              		.loc 1 574 5 discriminator 3 view .LVU459
 1646 0010 3046     		mov	r0, r6
 1647 0012 FFF7FEFF 		bl	rt_object_is_systemobject
 1648              	.LVL190:
 1649 0016 80B1     		cbz	r0, .L117
 1650              	.L111:
 1651              		.loc 1 574 64 discriminator 3 view .LVU460
 575:Middlewares/Third_Party/RealThread_RTOS/src/ipc.c **** 
 576:Middlewares/Third_Party/RealThread_RTOS/src/ipc.c ****     /* wakeup all suspended threads */
 577:Middlewares/Third_Party/RealThread_RTOS/src/ipc.c ****     rt_ipc_list_resume_all(&(mutex->parent.suspend_thread));
 1652              		.loc 1 577 5 discriminator 3 view .LVU461
 1653 0018 06F11405 		add	r5, r6, #20
 1654              	.LVL191:
 1655              	.LBB190:
 1656              	.LBI190:
 163:Middlewares/Third_Party/RealThread_RTOS/src/ipc.c **** {
 1657              		.loc 1 163 20 discriminator 3 view .LVU462
 1658              	.LBB191:
 165:Middlewares/Third_Party/RealThread_RTOS/src/ipc.c ****     register rt_ubase_t temp;
 1659              		.loc 1 165 5 discriminator 3 view .LVU463
 166:Middlewares/Third_Party/RealThread_RTOS/src/ipc.c **** 
 1660              		.loc 1 166 5 discriminator 3 view .LVU464
 169:Middlewares/Third_Party/RealThread_RTOS/src/ipc.c ****     {
 1661              		.loc 1 169 5 discriminator 3 view .LVU465
 169:Middlewares/Third_Party/RealThread_RTOS/src/ipc.c ****     {
 1662              		.loc 1 169 11 is_stmt 0 discriminator 3 view .LVU466
 1663 001c 21E0     		b	.L112
 1664              	.LVL192:
 1665              	.L115:
 169:Middlewares/Third_Party/RealThread_RTOS/src/ipc.c ****     {
 1666              		.loc 1 169 11 discriminator 3 view .LVU467
 1667              	.LBE191:
 1668              	.LBE190:
 572:Middlewares/Third_Party/RealThread_RTOS/src/ipc.c ****     RT_ASSERT(rt_object_get_type(&mutex->parent.parent) == RT_Object_Class_Mutex);
 1669              		.loc 1 572 5 is_stmt 1 discriminator 1 view .LVU468
 1670 001e 4FF40F72 		mov	r2, #572
 1671 0022 1449     		ldr	r1, .L118
 1672 0024 1448     		ldr	r0, .L118+4
 1673              	.LVL193:
 572:Middlewares/Third_Party/RealThread_RTOS/src/ipc.c ****     RT_ASSERT(rt_object_get_type(&mutex->parent.parent) == RT_Object_Class_Mutex);
 1674              		.loc 1 572 5 is_stmt 0 discriminator 1 view .LVU469
 1675 0026 FFF7FEFF 		bl	rt_assert_handler
 1676              	.LVL194:
 1677 002a ECE7     		b	.L109
 1678              	.L116:
 573:Middlewares/Third_Party/RealThread_RTOS/src/ipc.c ****     RT_ASSERT(rt_object_is_systemobject(&mutex->parent.parent));
 1679              		.loc 1 573 5 is_stmt 1 discriminator 1 view .LVU470
ARM GAS  C:\Users\Administrator\AppData\Local\Temp\ccS10GXs.s 			page 47


 1680 002c 40F23D22 		movw	r2, #573
 1681 0030 1049     		ldr	r1, .L118
 1682 0032 1248     		ldr	r0, .L118+8
 1683 0034 FFF7FEFF 		bl	rt_assert_handler
 1684              	.LVL195:
 1685 0038 EAE7     		b	.L110
 1686              	.L117:
 574:Middlewares/Third_Party/RealThread_RTOS/src/ipc.c **** 
 1687              		.loc 1 574 5 discriminator 1 view .LVU471
 1688 003a 40F23E22 		movw	r2, #574
 1689 003e 0D49     		ldr	r1, .L118
 1690 0040 0F48     		ldr	r0, .L118+12
 1691 0042 FFF7FEFF 		bl	rt_assert_handler
 1692              	.LVL196:
 1693 0046 E7E7     		b	.L111
 1694              	.LVL197:
 1695              	.L113:
 1696              	.LBB195:
 1697              	.LBB194:
 172:Middlewares/Third_Party/RealThread_RTOS/src/ipc.c **** 
 1698              		.loc 1 172 9 view .LVU472
 172:Middlewares/Third_Party/RealThread_RTOS/src/ipc.c **** 
 1699              		.loc 1 172 16 is_stmt 0 view .LVU473
 1700 0048 FFF7FEFF 		bl	rt_hw_interrupt_disable
 1701              	.LVL198:
 1702 004c 0446     		mov	r4, r0
 1703              	.LVL199:
 175:Middlewares/Third_Party/RealThread_RTOS/src/ipc.c ****         /* set error code to RT_ERROR */
 1704              		.loc 1 175 9 is_stmt 1 view .LVU474
 175:Middlewares/Third_Party/RealThread_RTOS/src/ipc.c ****         /* set error code to RT_ERROR */
 1705              		.loc 1 175 18 is_stmt 0 view .LVU475
 1706 004e 2868     		ldr	r0, [r5]
 1707              	.LVL200:
 177:Middlewares/Third_Party/RealThread_RTOS/src/ipc.c **** 
 1708              		.loc 1 177 9 is_stmt 1 view .LVU476
 177:Middlewares/Third_Party/RealThread_RTOS/src/ipc.c **** 
 1709              		.loc 1 177 23 is_stmt 0 view .LVU477
 1710 0050 4FF0FF33 		mov	r3, #-1
 1711 0054 C361     		str	r3, [r0, #28]
 184:Middlewares/Third_Party/RealThread_RTOS/src/ipc.c **** 
 1712              		.loc 1 184 9 is_stmt 1 view .LVU478
 1713 0056 1438     		subs	r0, r0, #20
 1714              	.LVL201:
 184:Middlewares/Third_Party/RealThread_RTOS/src/ipc.c **** 
 1715              		.loc 1 184 9 is_stmt 0 view .LVU479
 1716 0058 FFF7FEFF 		bl	rt_thread_resume
 1717              	.LVL202:
 187:Middlewares/Third_Party/RealThread_RTOS/src/ipc.c ****     }
 1718              		.loc 1 187 9 is_stmt 1 view .LVU480
 1719 005c 2046     		mov	r0, r4
 1720 005e FFF7FEFF 		bl	rt_hw_interrupt_enable
 1721              	.LVL203:
 1722              	.L112:
 169:Middlewares/Third_Party/RealThread_RTOS/src/ipc.c ****     {
 1723              		.loc 1 169 11 view .LVU481
 1724              	.LBB192:
 1725              	.LBI192:
ARM GAS  C:\Users\Administrator\AppData\Local\Temp\ccS10GXs.s 			page 48


  98:Middlewares/Third_Party/RealThread_RTOS/include/rtservice.h **** {
 1726              		.loc 2 98 15 view .LVU482
 1727              	.LBB193:
 1728              		.loc 2 100 5 view .LVU483
 1729              		.loc 2 100 13 is_stmt 0 view .LVU484
 1730 0062 2B68     		ldr	r3, [r5]
 1731              	.LVL204:
 1732              		.loc 2 100 13 view .LVU485
 1733              	.LBE193:
 1734              	.LBE192:
 169:Middlewares/Third_Party/RealThread_RTOS/src/ipc.c ****     {
 1735              		.loc 1 169 11 view .LVU486
 1736 0064 9D42     		cmp	r5, r3
 1737 0066 EFD1     		bne	.L113
 190:Middlewares/Third_Party/RealThread_RTOS/src/ipc.c **** }
 1738              		.loc 1 190 5 is_stmt 1 discriminator 3 view .LVU487
 1739              	.LVL205:
 190:Middlewares/Third_Party/RealThread_RTOS/src/ipc.c **** }
 1740              		.loc 1 190 5 is_stmt 0 discriminator 3 view .LVU488
 1741              	.LBE194:
 1742              	.LBE195:
 578:Middlewares/Third_Party/RealThread_RTOS/src/ipc.c **** 
 579:Middlewares/Third_Party/RealThread_RTOS/src/ipc.c ****     /* detach semaphore object */
 580:Middlewares/Third_Party/RealThread_RTOS/src/ipc.c ****     rt_object_detach(&(mutex->parent.parent));
 1743              		.loc 1 580 5 is_stmt 1 discriminator 3 view .LVU489
 1744 0068 3046     		mov	r0, r6
 1745 006a FFF7FEFF 		bl	rt_object_detach
 1746              	.LVL206:
 581:Middlewares/Third_Party/RealThread_RTOS/src/ipc.c **** 
 582:Middlewares/Third_Party/RealThread_RTOS/src/ipc.c ****     return RT_EOK;
 1747              		.loc 1 582 5 discriminator 3 view .LVU490
 583:Middlewares/Third_Party/RealThread_RTOS/src/ipc.c **** }
 1748              		.loc 1 583 1 is_stmt 0 discriminator 3 view .LVU491
 1749 006e 0020     		movs	r0, #0
 1750 0070 70BD     		pop	{r4, r5, r6, pc}
 1751              	.LVL207:
 1752              	.L119:
 1753              		.loc 1 583 1 discriminator 3 view .LVU492
 1754 0072 00BF     		.align	2
 1755              	.L118:
 1756 0074 00000000 		.word	.LANCHOR8
 1757 0078 00000000 		.word	.LC8
 1758 007c 00000000 		.word	.LC9
 1759 0080 44000000 		.word	.LC10
 1760              		.cfi_endproc
 1761              	.LFE28:
 1763              		.section	.text.rt_mutex_create,"ax",%progbits
 1764              		.align	1
 1765              		.global	rt_mutex_create
 1766              		.syntax unified
 1767              		.thumb
 1768              		.thumb_func
 1769              		.fpu softvfp
 1771              	rt_mutex_create:
 1772              	.LVL208:
 1773              	.LFB29:
 584:Middlewares/Third_Party/RealThread_RTOS/src/ipc.c **** 
ARM GAS  C:\Users\Administrator\AppData\Local\Temp\ccS10GXs.s 			page 49


 585:Middlewares/Third_Party/RealThread_RTOS/src/ipc.c **** #ifdef RT_USING_HEAP
 586:Middlewares/Third_Party/RealThread_RTOS/src/ipc.c **** /**
 587:Middlewares/Third_Party/RealThread_RTOS/src/ipc.c ****  * This function will create a mutex from system resource
 588:Middlewares/Third_Party/RealThread_RTOS/src/ipc.c ****  *
 589:Middlewares/Third_Party/RealThread_RTOS/src/ipc.c ****  * @param name the name of mutex
 590:Middlewares/Third_Party/RealThread_RTOS/src/ipc.c ****  * @param flag the flag of mutex
 591:Middlewares/Third_Party/RealThread_RTOS/src/ipc.c ****  *
 592:Middlewares/Third_Party/RealThread_RTOS/src/ipc.c ****  * @return the created mutex, RT_NULL on error happen
 593:Middlewares/Third_Party/RealThread_RTOS/src/ipc.c ****  *
 594:Middlewares/Third_Party/RealThread_RTOS/src/ipc.c ****  * @see rt_mutex_init
 595:Middlewares/Third_Party/RealThread_RTOS/src/ipc.c ****  */
 596:Middlewares/Third_Party/RealThread_RTOS/src/ipc.c **** rt_mutex_t rt_mutex_create(const char *name, rt_uint8_t flag)
 597:Middlewares/Third_Party/RealThread_RTOS/src/ipc.c **** {
 1774              		.loc 1 597 1 is_stmt 1 view -0
 1775              		.cfi_startproc
 1776              		@ args = 0, pretend = 0, frame = 0
 1777              		@ frame_needed = 0, uses_anonymous_args = 0
 1778              		.loc 1 597 1 is_stmt 0 view .LVU494
 1779 0000 F8B5     		push	{r3, r4, r5, r6, r7, lr}
 1780              	.LCFI13:
 1781              		.cfi_def_cfa_offset 24
 1782              		.cfi_offset 3, -24
 1783              		.cfi_offset 4, -20
 1784              		.cfi_offset 5, -16
 1785              		.cfi_offset 6, -12
 1786              		.cfi_offset 7, -8
 1787              		.cfi_offset 14, -4
 1788 0002 0446     		mov	r4, r0
 1789 0004 0E46     		mov	r6, r1
 598:Middlewares/Third_Party/RealThread_RTOS/src/ipc.c ****     struct rt_mutex *mutex;
 1790              		.loc 1 598 5 is_stmt 1 view .LVU495
 599:Middlewares/Third_Party/RealThread_RTOS/src/ipc.c **** 
 600:Middlewares/Third_Party/RealThread_RTOS/src/ipc.c ****     RT_DEBUG_NOT_IN_INTERRUPT;
 1791              		.loc 1 600 5 view .LVU496
 1792              	.LBB196:
 1793              		.loc 1 600 5 view .LVU497
 1794              		.loc 1 600 5 view .LVU498
 1795 0006 FFF7FEFF 		bl	rt_hw_interrupt_disable
 1796              	.LVL209:
 1797              		.loc 1 600 5 is_stmt 0 view .LVU499
 1798 000a 0546     		mov	r5, r0
 1799              	.LVL210:
 1800              		.loc 1 600 5 is_stmt 1 view .LVU500
 1801 000c FFF7FEFF 		bl	rt_interrupt_get_nest
 1802              	.LVL211:
 1803              		.loc 1 600 5 is_stmt 0 view .LVU501
 1804 0010 B0B9     		cbnz	r0, .L124
 1805              	.L121:
 1806              		.loc 1 600 5 is_stmt 1 discriminator 5 view .LVU502
 1807 0012 2846     		mov	r0, r5
 1808 0014 FFF7FEFF 		bl	rt_hw_interrupt_enable
 1809              	.LVL212:
 1810              	.LBE196:
 1811              		.loc 1 600 5 discriminator 5 view .LVU503
 601:Middlewares/Third_Party/RealThread_RTOS/src/ipc.c **** 
 602:Middlewares/Third_Party/RealThread_RTOS/src/ipc.c ****     /* allocate object */
 603:Middlewares/Third_Party/RealThread_RTOS/src/ipc.c ****     mutex = (rt_mutex_t)rt_object_allocate(RT_Object_Class_Mutex, name);
ARM GAS  C:\Users\Administrator\AppData\Local\Temp\ccS10GXs.s 			page 50


 1812              		.loc 1 603 5 discriminator 5 view .LVU504
 1813              		.loc 1 603 25 is_stmt 0 discriminator 5 view .LVU505
 1814 0018 2146     		mov	r1, r4
 1815 001a 0320     		movs	r0, #3
 1816 001c FFF7FEFF 		bl	rt_object_allocate
 1817              	.LVL213:
 604:Middlewares/Third_Party/RealThread_RTOS/src/ipc.c ****     if (mutex == RT_NULL)
 1818              		.loc 1 604 5 is_stmt 1 discriminator 5 view .LVU506
 1819              		.loc 1 604 8 is_stmt 0 discriminator 5 view .LVU507
 1820 0020 0346     		mov	r3, r0
 1821 0022 58B1     		cbz	r0, .L120
 605:Middlewares/Third_Party/RealThread_RTOS/src/ipc.c ****         return mutex;
 606:Middlewares/Third_Party/RealThread_RTOS/src/ipc.c **** 
 607:Middlewares/Third_Party/RealThread_RTOS/src/ipc.c ****     /* initialize ipc object */
 608:Middlewares/Third_Party/RealThread_RTOS/src/ipc.c ****     rt_ipc_object_init(&(mutex->parent));
 1822              		.loc 1 608 5 is_stmt 1 view .LVU508
 1823              	.LVL214:
 1824              	.LBB197:
 1825              	.LBI197:
  64:Middlewares/Third_Party/RealThread_RTOS/src/ipc.c **** {
 1826              		.loc 1 64 20 view .LVU509
 1827              	.LBB198:
  67:Middlewares/Third_Party/RealThread_RTOS/src/ipc.c **** 
 1828              		.loc 1 67 5 view .LVU510
 1829 0024 00F11402 		add	r2, r0, #20
 1830              	.LVL215:
 1831              	.LBB199:
 1832              	.LBI199:
  47:Middlewares/Third_Party/RealThread_RTOS/include/rtservice.h **** {
 1833              		.loc 2 47 16 view .LVU511
 1834              	.LBB200:
  49:Middlewares/Third_Party/RealThread_RTOS/include/rtservice.h **** }
 1835              		.loc 2 49 5 view .LVU512
  49:Middlewares/Third_Party/RealThread_RTOS/include/rtservice.h **** }
 1836              		.loc 2 49 23 is_stmt 0 view .LVU513
 1837 0028 8261     		str	r2, [r0, #24]
  49:Middlewares/Third_Party/RealThread_RTOS/include/rtservice.h **** }
 1838              		.loc 2 49 13 view .LVU514
 1839 002a 4261     		str	r2, [r0, #20]
 1840              	.LVL216:
  49:Middlewares/Third_Party/RealThread_RTOS/include/rtservice.h **** }
 1841              		.loc 2 49 13 view .LVU515
 1842              	.LBE200:
 1843              	.LBE199:
  69:Middlewares/Third_Party/RealThread_RTOS/src/ipc.c **** }
 1844              		.loc 1 69 5 is_stmt 1 view .LVU516
  69:Middlewares/Third_Party/RealThread_RTOS/src/ipc.c **** }
 1845              		.loc 1 69 5 is_stmt 0 view .LVU517
 1846              	.LBE198:
 1847              	.LBE197:
 609:Middlewares/Third_Party/RealThread_RTOS/src/ipc.c **** 
 610:Middlewares/Third_Party/RealThread_RTOS/src/ipc.c ****     mutex->value              = 1;
 1848              		.loc 1 610 5 is_stmt 1 view .LVU518
 1849              		.loc 1 610 31 is_stmt 0 view .LVU519
 1850 002c 0122     		movs	r2, #1
 1851 002e 8283     		strh	r2, [r0, #28]	@ movhi
 611:Middlewares/Third_Party/RealThread_RTOS/src/ipc.c ****     mutex->owner              = RT_NULL;
ARM GAS  C:\Users\Administrator\AppData\Local\Temp\ccS10GXs.s 			page 51


 1852              		.loc 1 611 5 is_stmt 1 view .LVU520
 1853              		.loc 1 611 31 is_stmt 0 view .LVU521
 1854 0030 0022     		movs	r2, #0
 1855 0032 0262     		str	r2, [r0, #32]
 612:Middlewares/Third_Party/RealThread_RTOS/src/ipc.c ****     mutex->original_priority  = 0xFF;
 1856              		.loc 1 612 5 is_stmt 1 view .LVU522
 1857              		.loc 1 612 31 is_stmt 0 view .LVU523
 1858 0034 FF21     		movs	r1, #255
 1859 0036 8177     		strb	r1, [r0, #30]
 613:Middlewares/Third_Party/RealThread_RTOS/src/ipc.c ****     mutex->hold               = 0;
 1860              		.loc 1 613 5 is_stmt 1 view .LVU524
 1861              		.loc 1 613 31 is_stmt 0 view .LVU525
 1862 0038 C277     		strb	r2, [r0, #31]
 614:Middlewares/Third_Party/RealThread_RTOS/src/ipc.c **** 
 615:Middlewares/Third_Party/RealThread_RTOS/src/ipc.c ****     /* set flag */
 616:Middlewares/Third_Party/RealThread_RTOS/src/ipc.c ****     mutex->parent.parent.flag = flag;
 1863              		.loc 1 616 5 is_stmt 1 view .LVU526
 1864              		.loc 1 616 31 is_stmt 0 view .LVU527
 1865 003a 4672     		strb	r6, [r0, #9]
 617:Middlewares/Third_Party/RealThread_RTOS/src/ipc.c **** 
 618:Middlewares/Third_Party/RealThread_RTOS/src/ipc.c ****     return mutex;
 1866              		.loc 1 618 5 is_stmt 1 view .LVU528
 1867              	.L120:
 619:Middlewares/Third_Party/RealThread_RTOS/src/ipc.c **** }
 1868              		.loc 1 619 1 is_stmt 0 view .LVU529
 1869 003c 1846     		mov	r0, r3
 1870              	.LVL217:
 1871              		.loc 1 619 1 view .LVU530
 1872 003e F8BD     		pop	{r3, r4, r5, r6, r7, pc}
 1873              	.LVL218:
 1874              	.L124:
 1875              	.LBB201:
 600:Middlewares/Third_Party/RealThread_RTOS/src/ipc.c **** 
 1876              		.loc 1 600 5 is_stmt 1 discriminator 1 view .LVU531
 1877 0040 054F     		ldr	r7, .L125
 1878 0042 3946     		mov	r1, r7
 1879 0044 0548     		ldr	r0, .L125+4
 1880 0046 FFF7FEFF 		bl	rt_kprintf
 1881              	.LVL219:
 600:Middlewares/Third_Party/RealThread_RTOS/src/ipc.c **** 
 1882              		.loc 1 600 5 discriminator 1 view .LVU532
 600:Middlewares/Third_Party/RealThread_RTOS/src/ipc.c **** 
 1883              		.loc 1 600 5 discriminator 1 view .LVU533
 1884 004a 4FF41672 		mov	r2, #600
 1885 004e 3946     		mov	r1, r7
 1886 0050 0348     		ldr	r0, .L125+8
 1887 0052 FFF7FEFF 		bl	rt_assert_handler
 1888              	.LVL220:
 1889 0056 DCE7     		b	.L121
 1890              	.L126:
 1891              		.align	2
 1892              	.L125:
 1893 0058 00000000 		.word	.LANCHOR9
 1894 005c 00000000 		.word	.LC4
 1895 0060 28000000 		.word	.LC5
 1896              	.LBE201:
 1897              		.cfi_endproc
ARM GAS  C:\Users\Administrator\AppData\Local\Temp\ccS10GXs.s 			page 52


 1898              	.LFE29:
 1900              		.section	.rodata.rt_mutex_delete.str1.4,"aMS",%progbits,1
 1901              		.align	2
 1902              	.LC11:
 1903 0000 72745F6F 		.ascii	"rt_object_is_systemobject(&mutex->parent.parent) =="
 1903      626A6563 
 1903      745F6973 
 1903      5F737973 
 1903      74656D6F 
 1904 0033 2052545F 		.ascii	" RT_FALSE\000"
 1904      46414C53 
 1904      4500
 1905              		.section	.text.rt_mutex_delete,"ax",%progbits
 1906              		.align	1
 1907              		.global	rt_mutex_delete
 1908              		.syntax unified
 1909              		.thumb
 1910              		.thumb_func
 1911              		.fpu softvfp
 1913              	rt_mutex_delete:
 1914              	.LVL221:
 1915              	.LFB30:
 620:Middlewares/Third_Party/RealThread_RTOS/src/ipc.c **** 
 621:Middlewares/Third_Party/RealThread_RTOS/src/ipc.c **** /**
 622:Middlewares/Third_Party/RealThread_RTOS/src/ipc.c ****  * This function will delete a mutex object and release the memory
 623:Middlewares/Third_Party/RealThread_RTOS/src/ipc.c ****  *
 624:Middlewares/Third_Party/RealThread_RTOS/src/ipc.c ****  * @param mutex the mutex object
 625:Middlewares/Third_Party/RealThread_RTOS/src/ipc.c ****  *
 626:Middlewares/Third_Party/RealThread_RTOS/src/ipc.c ****  * @return the error code
 627:Middlewares/Third_Party/RealThread_RTOS/src/ipc.c ****  *
 628:Middlewares/Third_Party/RealThread_RTOS/src/ipc.c ****  * @see rt_mutex_detach
 629:Middlewares/Third_Party/RealThread_RTOS/src/ipc.c ****  */
 630:Middlewares/Third_Party/RealThread_RTOS/src/ipc.c **** rt_err_t rt_mutex_delete(rt_mutex_t mutex)
 631:Middlewares/Third_Party/RealThread_RTOS/src/ipc.c **** {
 1916              		.loc 1 631 1 view -0
 1917              		.cfi_startproc
 1918              		@ args = 0, pretend = 0, frame = 0
 1919              		@ frame_needed = 0, uses_anonymous_args = 0
 1920              		.loc 1 631 1 is_stmt 0 view .LVU535
 1921 0000 70B5     		push	{r4, r5, r6, lr}
 1922              	.LCFI14:
 1923              		.cfi_def_cfa_offset 16
 1924              		.cfi_offset 4, -16
 1925              		.cfi_offset 5, -12
 1926              		.cfi_offset 6, -8
 1927              		.cfi_offset 14, -4
 1928 0002 0646     		mov	r6, r0
 632:Middlewares/Third_Party/RealThread_RTOS/src/ipc.c ****     RT_DEBUG_NOT_IN_INTERRUPT;
 1929              		.loc 1 632 5 is_stmt 1 view .LVU536
 1930              	.LBB207:
 1931              		.loc 1 632 5 view .LVU537
 1932              		.loc 1 632 5 view .LVU538
 1933 0004 FFF7FEFF 		bl	rt_hw_interrupt_disable
 1934              	.LVL222:
 1935              		.loc 1 632 5 is_stmt 0 view .LVU539
 1936 0008 0446     		mov	r4, r0
 1937              	.LVL223:
ARM GAS  C:\Users\Administrator\AppData\Local\Temp\ccS10GXs.s 			page 53


 1938              		.loc 1 632 5 is_stmt 1 view .LVU540
 1939 000a FFF7FEFF 		bl	rt_interrupt_get_nest
 1940              	.LVL224:
 1941              		.loc 1 632 5 is_stmt 0 view .LVU541
 1942 000e 78B9     		cbnz	r0, .L135
 1943              	.L128:
 1944              		.loc 1 632 5 is_stmt 1 discriminator 5 view .LVU542
 1945 0010 2046     		mov	r0, r4
 1946 0012 FFF7FEFF 		bl	rt_hw_interrupt_enable
 1947              	.LVL225:
 1948              	.LBE207:
 1949              		.loc 1 632 5 discriminator 5 view .LVU543
 633:Middlewares/Third_Party/RealThread_RTOS/src/ipc.c **** 
 634:Middlewares/Third_Party/RealThread_RTOS/src/ipc.c ****     /* parameter check */
 635:Middlewares/Third_Party/RealThread_RTOS/src/ipc.c ****     RT_ASSERT(mutex != RT_NULL);
 1950              		.loc 1 635 5 discriminator 5 view .LVU544
 1951 0016 BEB1     		cbz	r6, .L136
 1952              	.L129:
 1953              		.loc 1 635 32 discriminator 3 view .LVU545
 636:Middlewares/Third_Party/RealThread_RTOS/src/ipc.c ****     RT_ASSERT(rt_object_get_type(&mutex->parent.parent) == RT_Object_Class_Mutex);
 1954              		.loc 1 636 5 discriminator 3 view .LVU546
 1955 0018 3046     		mov	r0, r6
 1956 001a FFF7FEFF 		bl	rt_object_get_type
 1957              	.LVL226:
 1958 001e 0328     		cmp	r0, #3
 1959 0020 19D1     		bne	.L137
 1960              	.L130:
 1961              		.loc 1 636 82 discriminator 3 view .LVU547
 637:Middlewares/Third_Party/RealThread_RTOS/src/ipc.c ****     RT_ASSERT(rt_object_is_systemobject(&mutex->parent.parent) == RT_FALSE);
 1962              		.loc 1 637 5 discriminator 3 view .LVU548
 1963 0022 3046     		mov	r0, r6
 1964 0024 FFF7FEFF 		bl	rt_object_is_systemobject
 1965              	.LVL227:
 1966 0028 E0B9     		cbnz	r0, .L138
 1967              	.L131:
 1968              		.loc 1 637 76 discriminator 3 view .LVU549
 638:Middlewares/Third_Party/RealThread_RTOS/src/ipc.c **** 
 639:Middlewares/Third_Party/RealThread_RTOS/src/ipc.c ****     /* wakeup all suspended threads */
 640:Middlewares/Third_Party/RealThread_RTOS/src/ipc.c ****     rt_ipc_list_resume_all(&(mutex->parent.suspend_thread));
 1969              		.loc 1 640 5 discriminator 3 view .LVU550
 1970 002a 06F11405 		add	r5, r6, #20
 1971              	.LVL228:
 1972              	.LBB208:
 1973              	.LBI208:
 163:Middlewares/Third_Party/RealThread_RTOS/src/ipc.c **** {
 1974              		.loc 1 163 20 discriminator 3 view .LVU551
 1975              	.LBB209:
 165:Middlewares/Third_Party/RealThread_RTOS/src/ipc.c ****     register rt_ubase_t temp;
 1976              		.loc 1 165 5 discriminator 3 view .LVU552
 166:Middlewares/Third_Party/RealThread_RTOS/src/ipc.c **** 
 1977              		.loc 1 166 5 discriminator 3 view .LVU553
 169:Middlewares/Third_Party/RealThread_RTOS/src/ipc.c ****     {
 1978              		.loc 1 169 5 discriminator 3 view .LVU554
 169:Middlewares/Third_Party/RealThread_RTOS/src/ipc.c ****     {
 1979              		.loc 1 169 11 is_stmt 0 discriminator 3 view .LVU555
 1980 002e 2DE0     		b	.L132
 1981              	.LVL229:
ARM GAS  C:\Users\Administrator\AppData\Local\Temp\ccS10GXs.s 			page 54


 1982              	.L135:
 169:Middlewares/Third_Party/RealThread_RTOS/src/ipc.c ****     {
 1983              		.loc 1 169 11 discriminator 3 view .LVU556
 1984              	.LBE209:
 1985              	.LBE208:
 1986              	.LBB213:
 632:Middlewares/Third_Party/RealThread_RTOS/src/ipc.c **** 
 1987              		.loc 1 632 5 is_stmt 1 discriminator 1 view .LVU557
 1988 0030 1A4D     		ldr	r5, .L139
 1989 0032 2946     		mov	r1, r5
 1990 0034 1A48     		ldr	r0, .L139+4
 1991 0036 FFF7FEFF 		bl	rt_kprintf
 1992              	.LVL230:
 632:Middlewares/Third_Party/RealThread_RTOS/src/ipc.c **** 
 1993              		.loc 1 632 5 discriminator 1 view .LVU558
 632:Middlewares/Third_Party/RealThread_RTOS/src/ipc.c **** 
 1994              		.loc 1 632 5 discriminator 1 view .LVU559
 1995 003a 4FF41E72 		mov	r2, #632
 1996 003e 2946     		mov	r1, r5
 1997 0040 1848     		ldr	r0, .L139+8
 1998 0042 FFF7FEFF 		bl	rt_assert_handler
 1999              	.LVL231:
 2000 0046 E3E7     		b	.L128
 2001              	.L136:
 632:Middlewares/Third_Party/RealThread_RTOS/src/ipc.c **** 
 2002              		.loc 1 632 5 is_stmt 0 discriminator 1 view .LVU560
 2003              	.LBE213:
 635:Middlewares/Third_Party/RealThread_RTOS/src/ipc.c ****     RT_ASSERT(rt_object_get_type(&mutex->parent.parent) == RT_Object_Class_Mutex);
 2004              		.loc 1 635 5 is_stmt 1 discriminator 1 view .LVU561
 2005 0048 40F27B22 		movw	r2, #635
 2006 004c 1349     		ldr	r1, .L139
 2007 004e 1648     		ldr	r0, .L139+12
 2008 0050 FFF7FEFF 		bl	rt_assert_handler
 2009              	.LVL232:
 2010 0054 E0E7     		b	.L129
 2011              	.L137:
 636:Middlewares/Third_Party/RealThread_RTOS/src/ipc.c ****     RT_ASSERT(rt_object_is_systemobject(&mutex->parent.parent) == RT_FALSE);
 2012              		.loc 1 636 5 discriminator 1 view .LVU562
 2013 0056 4FF41F72 		mov	r2, #636
 2014 005a 1049     		ldr	r1, .L139
 2015 005c 1348     		ldr	r0, .L139+16
 2016 005e FFF7FEFF 		bl	rt_assert_handler
 2017              	.LVL233:
 2018 0062 DEE7     		b	.L130
 2019              	.L138:
 637:Middlewares/Third_Party/RealThread_RTOS/src/ipc.c **** 
 2020              		.loc 1 637 5 discriminator 1 view .LVU563
 2021 0064 40F27D22 		movw	r2, #637
 2022 0068 0C49     		ldr	r1, .L139
 2023 006a 1148     		ldr	r0, .L139+20
 2024 006c FFF7FEFF 		bl	rt_assert_handler
 2025              	.LVL234:
 2026 0070 DBE7     		b	.L131
 2027              	.LVL235:
 2028              	.L133:
 2029              	.LBB214:
 2030              	.LBB212:
ARM GAS  C:\Users\Administrator\AppData\Local\Temp\ccS10GXs.s 			page 55


 172:Middlewares/Third_Party/RealThread_RTOS/src/ipc.c **** 
 2031              		.loc 1 172 9 view .LVU564
 172:Middlewares/Third_Party/RealThread_RTOS/src/ipc.c **** 
 2032              		.loc 1 172 16 is_stmt 0 view .LVU565
 2033 0072 FFF7FEFF 		bl	rt_hw_interrupt_disable
 2034              	.LVL236:
 2035 0076 0446     		mov	r4, r0
 2036              	.LVL237:
 175:Middlewares/Third_Party/RealThread_RTOS/src/ipc.c ****         /* set error code to RT_ERROR */
 2037              		.loc 1 175 9 is_stmt 1 view .LVU566
 175:Middlewares/Third_Party/RealThread_RTOS/src/ipc.c ****         /* set error code to RT_ERROR */
 2038              		.loc 1 175 18 is_stmt 0 view .LVU567
 2039 0078 2868     		ldr	r0, [r5]
 2040              	.LVL238:
 177:Middlewares/Third_Party/RealThread_RTOS/src/ipc.c **** 
 2041              		.loc 1 177 9 is_stmt 1 view .LVU568
 177:Middlewares/Third_Party/RealThread_RTOS/src/ipc.c **** 
 2042              		.loc 1 177 23 is_stmt 0 view .LVU569
 2043 007a 4FF0FF33 		mov	r3, #-1
 2044 007e C361     		str	r3, [r0, #28]
 184:Middlewares/Third_Party/RealThread_RTOS/src/ipc.c **** 
 2045              		.loc 1 184 9 is_stmt 1 view .LVU570
 2046 0080 1438     		subs	r0, r0, #20
 2047              	.LVL239:
 184:Middlewares/Third_Party/RealThread_RTOS/src/ipc.c **** 
 2048              		.loc 1 184 9 is_stmt 0 view .LVU571
 2049 0082 FFF7FEFF 		bl	rt_thread_resume
 2050              	.LVL240:
 187:Middlewares/Third_Party/RealThread_RTOS/src/ipc.c ****     }
 2051              		.loc 1 187 9 is_stmt 1 view .LVU572
 2052 0086 2046     		mov	r0, r4
 2053 0088 FFF7FEFF 		bl	rt_hw_interrupt_enable
 2054              	.LVL241:
 2055              	.L132:
 169:Middlewares/Third_Party/RealThread_RTOS/src/ipc.c ****     {
 2056              		.loc 1 169 11 view .LVU573
 2057              	.LBB210:
 2058              	.LBI210:
  98:Middlewares/Third_Party/RealThread_RTOS/include/rtservice.h **** {
 2059              		.loc 2 98 15 view .LVU574
 2060              	.LBB211:
 2061              		.loc 2 100 5 view .LVU575
 2062              		.loc 2 100 13 is_stmt 0 view .LVU576
 2063 008c 2B68     		ldr	r3, [r5]
 2064              	.LVL242:
 2065              		.loc 2 100 13 view .LVU577
 2066              	.LBE211:
 2067              	.LBE210:
 169:Middlewares/Third_Party/RealThread_RTOS/src/ipc.c ****     {
 2068              		.loc 1 169 11 view .LVU578
 2069 008e 9D42     		cmp	r5, r3
 2070 0090 EFD1     		bne	.L133
 190:Middlewares/Third_Party/RealThread_RTOS/src/ipc.c **** }
 2071              		.loc 1 190 5 is_stmt 1 discriminator 3 view .LVU579
 2072              	.LVL243:
 190:Middlewares/Third_Party/RealThread_RTOS/src/ipc.c **** }
 2073              		.loc 1 190 5 is_stmt 0 discriminator 3 view .LVU580
ARM GAS  C:\Users\Administrator\AppData\Local\Temp\ccS10GXs.s 			page 56


 2074              	.LBE212:
 2075              	.LBE214:
 641:Middlewares/Third_Party/RealThread_RTOS/src/ipc.c **** 
 642:Middlewares/Third_Party/RealThread_RTOS/src/ipc.c ****     /* delete mutex object */
 643:Middlewares/Third_Party/RealThread_RTOS/src/ipc.c ****     rt_object_delete(&(mutex->parent.parent));
 2076              		.loc 1 643 5 is_stmt 1 discriminator 3 view .LVU581
 2077 0092 3046     		mov	r0, r6
 2078 0094 FFF7FEFF 		bl	rt_object_delete
 2079              	.LVL244:
 644:Middlewares/Third_Party/RealThread_RTOS/src/ipc.c **** 
 645:Middlewares/Third_Party/RealThread_RTOS/src/ipc.c ****     return RT_EOK;
 2080              		.loc 1 645 5 discriminator 3 view .LVU582
 646:Middlewares/Third_Party/RealThread_RTOS/src/ipc.c **** }
 2081              		.loc 1 646 1 is_stmt 0 discriminator 3 view .LVU583
 2082 0098 0020     		movs	r0, #0
 2083 009a 70BD     		pop	{r4, r5, r6, pc}
 2084              	.LVL245:
 2085              	.L140:
 2086              		.loc 1 646 1 discriminator 3 view .LVU584
 2087              		.align	2
 2088              	.L139:
 2089 009c 00000000 		.word	.LANCHOR10
 2090 00a0 00000000 		.word	.LC4
 2091 00a4 28000000 		.word	.LC5
 2092 00a8 00000000 		.word	.LC8
 2093 00ac 00000000 		.word	.LC9
 2094 00b0 00000000 		.word	.LC11
 2095              		.cfi_endproc
 2096              	.LFE30:
 2098              		.section	.text.rt_mutex_take,"ax",%progbits
 2099              		.align	1
 2100              		.global	rt_mutex_take
 2101              		.syntax unified
 2102              		.thumb
 2103              		.thumb_func
 2104              		.fpu softvfp
 2106              	rt_mutex_take:
 2107              	.LVL246:
 2108              	.LFB31:
 647:Middlewares/Third_Party/RealThread_RTOS/src/ipc.c **** #endif
 648:Middlewares/Third_Party/RealThread_RTOS/src/ipc.c **** 
 649:Middlewares/Third_Party/RealThread_RTOS/src/ipc.c **** /**
 650:Middlewares/Third_Party/RealThread_RTOS/src/ipc.c ****  * This function will take a mutex, if the mutex is unavailable, the
 651:Middlewares/Third_Party/RealThread_RTOS/src/ipc.c ****  * thread shall wait for a specified time.
 652:Middlewares/Third_Party/RealThread_RTOS/src/ipc.c ****  *
 653:Middlewares/Third_Party/RealThread_RTOS/src/ipc.c ****  * @param mutex the mutex object
 654:Middlewares/Third_Party/RealThread_RTOS/src/ipc.c ****  * @param time the waiting time
 655:Middlewares/Third_Party/RealThread_RTOS/src/ipc.c ****  *
 656:Middlewares/Third_Party/RealThread_RTOS/src/ipc.c ****  * @return the error code
 657:Middlewares/Third_Party/RealThread_RTOS/src/ipc.c ****  */
 658:Middlewares/Third_Party/RealThread_RTOS/src/ipc.c **** rt_err_t rt_mutex_take(rt_mutex_t mutex, rt_int32_t time)
 659:Middlewares/Third_Party/RealThread_RTOS/src/ipc.c **** {
 2109              		.loc 1 659 1 is_stmt 1 view -0
 2110              		.cfi_startproc
 2111              		@ args = 0, pretend = 0, frame = 8
 2112              		@ frame_needed = 0, uses_anonymous_args = 0
 2113              		.loc 1 659 1 is_stmt 0 view .LVU586
ARM GAS  C:\Users\Administrator\AppData\Local\Temp\ccS10GXs.s 			page 57


 2114 0000 2DE9F041 		push	{r4, r5, r6, r7, r8, lr}
 2115              	.LCFI15:
 2116              		.cfi_def_cfa_offset 24
 2117              		.cfi_offset 4, -24
 2118              		.cfi_offset 5, -20
 2119              		.cfi_offset 6, -16
 2120              		.cfi_offset 7, -12
 2121              		.cfi_offset 8, -8
 2122              		.cfi_offset 14, -4
 2123 0004 82B0     		sub	sp, sp, #8
 2124              	.LCFI16:
 2125              		.cfi_def_cfa_offset 32
 2126 0006 0446     		mov	r4, r0
 2127 0008 0191     		str	r1, [sp, #4]
 660:Middlewares/Third_Party/RealThread_RTOS/src/ipc.c ****     register rt_base_t temp;
 2128              		.loc 1 660 5 is_stmt 1 view .LVU587
 661:Middlewares/Third_Party/RealThread_RTOS/src/ipc.c ****     struct rt_thread *thread;
 2129              		.loc 1 661 5 view .LVU588
 662:Middlewares/Third_Party/RealThread_RTOS/src/ipc.c **** 
 663:Middlewares/Third_Party/RealThread_RTOS/src/ipc.c ****     /* this function must not be used in interrupt even if time = 0 */
 664:Middlewares/Third_Party/RealThread_RTOS/src/ipc.c ****     RT_DEBUG_IN_THREAD_CONTEXT;
 2130              		.loc 1 664 5 view .LVU589
 2131              	.LBB226:
 2132              		.loc 1 664 5 view .LVU590
 2133              		.loc 1 664 5 view .LVU591
 2134 000a FFF7FEFF 		bl	rt_hw_interrupt_disable
 2135              	.LVL247:
 2136              		.loc 1 664 5 is_stmt 0 view .LVU592
 2137 000e 0546     		mov	r5, r0
 2138              	.LVL248:
 2139              		.loc 1 664 5 is_stmt 1 view .LVU593
 2140 0010 FFF7FEFF 		bl	rt_thread_self
 2141              	.LVL249:
 2142              		.loc 1 664 5 is_stmt 0 view .LVU594
 2143 0014 0028     		cmp	r0, #0
 2144 0016 3FD0     		beq	.L165
 2145              	.L142:
 2146              		.loc 1 664 5 is_stmt 1 discriminator 5 view .LVU595
 2147              	.LBB227:
 2148              		.loc 1 664 5 discriminator 5 view .LVU596
 2149              		.loc 1 664 5 discriminator 5 view .LVU597
 2150 0018 FFF7FEFF 		bl	rt_hw_interrupt_disable
 2151              	.LVL250:
 2152 001c 0646     		mov	r6, r0
 2153              	.LVL251:
 2154              		.loc 1 664 5 discriminator 5 view .LVU598
 2155 001e FFF7FEFF 		bl	rt_interrupt_get_nest
 2156              	.LVL252:
 2157              		.loc 1 664 5 is_stmt 0 discriminator 5 view .LVU599
 2158 0022 0028     		cmp	r0, #0
 2159 0024 44D1     		bne	.L166
 2160              	.L143:
 2161              		.loc 1 664 5 is_stmt 1 discriminator 10 view .LVU600
 2162 0026 3046     		mov	r0, r6
 2163 0028 FFF7FEFF 		bl	rt_hw_interrupt_enable
 2164              	.LVL253:
 2165              	.LBE227:
ARM GAS  C:\Users\Administrator\AppData\Local\Temp\ccS10GXs.s 			page 58


 2166              		.loc 1 664 5 discriminator 10 view .LVU601
 2167              		.loc 1 664 5 discriminator 10 view .LVU602
 2168 002c 2846     		mov	r0, r5
 2169 002e FFF7FEFF 		bl	rt_hw_interrupt_enable
 2170              	.LVL254:
 2171              	.LBE226:
 2172              		.loc 1 664 5 discriminator 10 view .LVU603
 665:Middlewares/Third_Party/RealThread_RTOS/src/ipc.c **** 
 666:Middlewares/Third_Party/RealThread_RTOS/src/ipc.c ****     /* parameter check */
 667:Middlewares/Third_Party/RealThread_RTOS/src/ipc.c ****     RT_ASSERT(mutex != RT_NULL);
 2173              		.loc 1 667 5 discriminator 10 view .LVU604
 2174 0032 002C     		cmp	r4, #0
 2175 0034 48D0     		beq	.L167
 2176              	.L144:
 2177              		.loc 1 667 32 discriminator 3 view .LVU605
 668:Middlewares/Third_Party/RealThread_RTOS/src/ipc.c ****     RT_ASSERT(rt_object_get_type(&mutex->parent.parent) == RT_Object_Class_Mutex);
 2178              		.loc 1 668 5 discriminator 3 view .LVU606
 2179 0036 2046     		mov	r0, r4
 2180 0038 FFF7FEFF 		bl	rt_object_get_type
 2181              	.LVL255:
 2182 003c 0328     		cmp	r0, #3
 2183 003e 4AD1     		bne	.L168
 2184              	.L145:
 2185              		.loc 1 668 82 discriminator 3 view .LVU607
 669:Middlewares/Third_Party/RealThread_RTOS/src/ipc.c **** 
 670:Middlewares/Third_Party/RealThread_RTOS/src/ipc.c ****     /* get current thread */
 671:Middlewares/Third_Party/RealThread_RTOS/src/ipc.c ****     thread = rt_thread_self();
 2186              		.loc 1 671 5 discriminator 3 view .LVU608
 2187              		.loc 1 671 14 is_stmt 0 discriminator 3 view .LVU609
 2188 0040 FFF7FEFF 		bl	rt_thread_self
 2189              	.LVL256:
 2190 0044 0546     		mov	r5, r0
 2191              	.LVL257:
 672:Middlewares/Third_Party/RealThread_RTOS/src/ipc.c **** 
 673:Middlewares/Third_Party/RealThread_RTOS/src/ipc.c ****     /* disable interrupt */
 674:Middlewares/Third_Party/RealThread_RTOS/src/ipc.c ****     temp = rt_hw_interrupt_disable();
 2192              		.loc 1 674 5 is_stmt 1 discriminator 3 view .LVU610
 2193              		.loc 1 674 12 is_stmt 0 discriminator 3 view .LVU611
 2194 0046 FFF7FEFF 		bl	rt_hw_interrupt_disable
 2195              	.LVL258:
 2196              		.loc 1 674 12 discriminator 3 view .LVU612
 2197 004a 0646     		mov	r6, r0
 2198              	.LVL259:
 675:Middlewares/Third_Party/RealThread_RTOS/src/ipc.c **** 
 676:Middlewares/Third_Party/RealThread_RTOS/src/ipc.c ****     RT_OBJECT_HOOK_CALL(rt_object_trytake_hook, (&(mutex->parent.parent)));
 2199              		.loc 1 676 5 is_stmt 1 discriminator 3 view .LVU613
 2200              		.loc 1 676 5 discriminator 3 view .LVU614
 2201 004c 614B     		ldr	r3, .L174
 2202 004e 1B68     		ldr	r3, [r3]
 2203 0050 0BB1     		cbz	r3, .L146
 2204              		.loc 1 676 5 discriminator 1 view .LVU615
 2205 0052 2046     		mov	r0, r4
 2206              	.LVL260:
 2207              		.loc 1 676 5 is_stmt 0 discriminator 1 view .LVU616
 2208 0054 9847     		blx	r3
 2209              	.LVL261:
 2210              	.L146:
ARM GAS  C:\Users\Administrator\AppData\Local\Temp\ccS10GXs.s 			page 59


 2211              		.loc 1 676 5 is_stmt 1 discriminator 3 view .LVU617
 677:Middlewares/Third_Party/RealThread_RTOS/src/ipc.c **** 
 678:Middlewares/Third_Party/RealThread_RTOS/src/ipc.c ****     RT_DEBUG_LOG(RT_DEBUG_IPC,
 2212              		.loc 1 678 5 discriminator 3 view .LVU618
 2213              		.loc 1 678 5 discriminator 3 view .LVU619
 2214              		.loc 1 678 5 discriminator 3 view .LVU620
 679:Middlewares/Third_Party/RealThread_RTOS/src/ipc.c ****                  ("mutex_take: current thread %s, mutex value: %d, hold: %d\n",
 680:Middlewares/Third_Party/RealThread_RTOS/src/ipc.c ****                   thread->name, mutex->value, mutex->hold));
 681:Middlewares/Third_Party/RealThread_RTOS/src/ipc.c **** 
 682:Middlewares/Third_Party/RealThread_RTOS/src/ipc.c ****     /* reset thread error */
 683:Middlewares/Third_Party/RealThread_RTOS/src/ipc.c ****     thread->error = RT_EOK;
 2215              		.loc 1 683 5 discriminator 3 view .LVU621
 2216              		.loc 1 683 19 is_stmt 0 discriminator 3 view .LVU622
 2217 0056 0023     		movs	r3, #0
 2218 0058 2B63     		str	r3, [r5, #48]
 684:Middlewares/Third_Party/RealThread_RTOS/src/ipc.c **** 
 685:Middlewares/Third_Party/RealThread_RTOS/src/ipc.c ****     if (mutex->owner == thread)
 2219              		.loc 1 685 5 is_stmt 1 discriminator 3 view .LVU623
 2220              		.loc 1 685 14 is_stmt 0 discriminator 3 view .LVU624
 2221 005a 206A     		ldr	r0, [r4, #32]
 2222              		.loc 1 685 8 discriminator 3 view .LVU625
 2223 005c A842     		cmp	r0, r5
 2224 005e 41D0     		beq	.L169
 686:Middlewares/Third_Party/RealThread_RTOS/src/ipc.c ****     {
 687:Middlewares/Third_Party/RealThread_RTOS/src/ipc.c ****         if(mutex->hold < RT_MUTEX_HOLD_MAX)
 688:Middlewares/Third_Party/RealThread_RTOS/src/ipc.c ****         {
 689:Middlewares/Third_Party/RealThread_RTOS/src/ipc.c ****             /* it's the same thread */
 690:Middlewares/Third_Party/RealThread_RTOS/src/ipc.c ****             mutex->hold ++;
 691:Middlewares/Third_Party/RealThread_RTOS/src/ipc.c ****         }
 692:Middlewares/Third_Party/RealThread_RTOS/src/ipc.c ****         else
 693:Middlewares/Third_Party/RealThread_RTOS/src/ipc.c ****         {
 694:Middlewares/Third_Party/RealThread_RTOS/src/ipc.c ****             rt_hw_interrupt_enable(temp); /* enable interrupt */
 695:Middlewares/Third_Party/RealThread_RTOS/src/ipc.c ****             return -RT_EFULL; /* value overflowed */
 696:Middlewares/Third_Party/RealThread_RTOS/src/ipc.c ****         }
 697:Middlewares/Third_Party/RealThread_RTOS/src/ipc.c ****     }
 698:Middlewares/Third_Party/RealThread_RTOS/src/ipc.c ****     else
 699:Middlewares/Third_Party/RealThread_RTOS/src/ipc.c ****     {
 700:Middlewares/Third_Party/RealThread_RTOS/src/ipc.c ****         /* The value of mutex is 1 in initial status. Therefore, if the
 701:Middlewares/Third_Party/RealThread_RTOS/src/ipc.c ****          * value is great than 0, it indicates the mutex is avaible.
 702:Middlewares/Third_Party/RealThread_RTOS/src/ipc.c ****          */
 703:Middlewares/Third_Party/RealThread_RTOS/src/ipc.c ****         if (mutex->value > 0)
 2225              		.loc 1 703 9 is_stmt 1 view .LVU626
 2226              		.loc 1 703 18 is_stmt 0 view .LVU627
 2227 0060 A38B     		ldrh	r3, [r4, #28]
 2228              		.loc 1 703 12 view .LVU628
 2229 0062 002B     		cmp	r3, #0
 2230 0064 50D0     		beq	.L151
 704:Middlewares/Third_Party/RealThread_RTOS/src/ipc.c ****         {
 705:Middlewares/Third_Party/RealThread_RTOS/src/ipc.c ****             /* mutex is available */
 706:Middlewares/Third_Party/RealThread_RTOS/src/ipc.c ****             mutex->value --;
 2231              		.loc 1 706 13 is_stmt 1 view .LVU629
 2232              		.loc 1 706 26 is_stmt 0 view .LVU630
 2233 0066 013B     		subs	r3, r3, #1
 2234 0068 A383     		strh	r3, [r4, #28]	@ movhi
 707:Middlewares/Third_Party/RealThread_RTOS/src/ipc.c **** 
 708:Middlewares/Third_Party/RealThread_RTOS/src/ipc.c ****             /* set mutex owner and original priority */
 709:Middlewares/Third_Party/RealThread_RTOS/src/ipc.c ****             mutex->owner             = thread;
ARM GAS  C:\Users\Administrator\AppData\Local\Temp\ccS10GXs.s 			page 60


 2235              		.loc 1 709 13 is_stmt 1 view .LVU631
 2236              		.loc 1 709 38 is_stmt 0 view .LVU632
 2237 006a 2562     		str	r5, [r4, #32]
 710:Middlewares/Third_Party/RealThread_RTOS/src/ipc.c ****             mutex->original_priority = thread->current_priority;
 2238              		.loc 1 710 13 is_stmt 1 view .LVU633
 2239              		.loc 1 710 46 is_stmt 0 view .LVU634
 2240 006c 95F83530 		ldrb	r3, [r5, #53]	@ zero_extendqisi2
 2241              		.loc 1 710 38 view .LVU635
 2242 0070 A377     		strb	r3, [r4, #30]
 711:Middlewares/Third_Party/RealThread_RTOS/src/ipc.c ****             if(mutex->hold < RT_MUTEX_HOLD_MAX)
 2243              		.loc 1 711 13 is_stmt 1 view .LVU636
 2244              		.loc 1 711 21 is_stmt 0 view .LVU637
 2245 0072 E37F     		ldrb	r3, [r4, #31]	@ zero_extendqisi2
 2246              		.loc 1 711 15 view .LVU638
 2247 0074 FF2B     		cmp	r3, #255
 2248 0076 41D0     		beq	.L152
 712:Middlewares/Third_Party/RealThread_RTOS/src/ipc.c ****             {
 713:Middlewares/Third_Party/RealThread_RTOS/src/ipc.c ****                 mutex->hold ++;
 2249              		.loc 1 713 17 is_stmt 1 view .LVU639
 2250              		.loc 1 713 29 is_stmt 0 view .LVU640
 2251 0078 0133     		adds	r3, r3, #1
 2252 007a E377     		strb	r3, [r4, #31]
 2253              	.L149:
 714:Middlewares/Third_Party/RealThread_RTOS/src/ipc.c ****             }
 715:Middlewares/Third_Party/RealThread_RTOS/src/ipc.c ****             else
 716:Middlewares/Third_Party/RealThread_RTOS/src/ipc.c ****             {
 717:Middlewares/Third_Party/RealThread_RTOS/src/ipc.c ****                 rt_hw_interrupt_enable(temp); /* enable interrupt */
 718:Middlewares/Third_Party/RealThread_RTOS/src/ipc.c ****                 return -RT_EFULL; /* value overflowed */
 719:Middlewares/Third_Party/RealThread_RTOS/src/ipc.c ****             }
 720:Middlewares/Third_Party/RealThread_RTOS/src/ipc.c ****         }
 721:Middlewares/Third_Party/RealThread_RTOS/src/ipc.c ****         else
 722:Middlewares/Third_Party/RealThread_RTOS/src/ipc.c ****         {
 723:Middlewares/Third_Party/RealThread_RTOS/src/ipc.c ****             /* no waiting, return with timeout */
 724:Middlewares/Third_Party/RealThread_RTOS/src/ipc.c ****             if (time == 0)
 725:Middlewares/Third_Party/RealThread_RTOS/src/ipc.c ****             {
 726:Middlewares/Third_Party/RealThread_RTOS/src/ipc.c ****                 /* set error as timeout */
 727:Middlewares/Third_Party/RealThread_RTOS/src/ipc.c ****                 thread->error = -RT_ETIMEOUT;
 728:Middlewares/Third_Party/RealThread_RTOS/src/ipc.c **** 
 729:Middlewares/Third_Party/RealThread_RTOS/src/ipc.c ****                 /* enable interrupt */
 730:Middlewares/Third_Party/RealThread_RTOS/src/ipc.c ****                 rt_hw_interrupt_enable(temp);
 731:Middlewares/Third_Party/RealThread_RTOS/src/ipc.c **** 
 732:Middlewares/Third_Party/RealThread_RTOS/src/ipc.c ****                 return -RT_ETIMEOUT;
 733:Middlewares/Third_Party/RealThread_RTOS/src/ipc.c ****             }
 734:Middlewares/Third_Party/RealThread_RTOS/src/ipc.c ****             else
 735:Middlewares/Third_Party/RealThread_RTOS/src/ipc.c ****             {
 736:Middlewares/Third_Party/RealThread_RTOS/src/ipc.c ****                 /* mutex is unavailable, push to suspend list */
 737:Middlewares/Third_Party/RealThread_RTOS/src/ipc.c ****                 RT_DEBUG_LOG(RT_DEBUG_IPC, ("mutex_take: suspend thread: %s\n",
 738:Middlewares/Third_Party/RealThread_RTOS/src/ipc.c ****                                             thread->name));
 739:Middlewares/Third_Party/RealThread_RTOS/src/ipc.c **** 
 740:Middlewares/Third_Party/RealThread_RTOS/src/ipc.c ****                 /* change the owner thread priority of mutex */
 741:Middlewares/Third_Party/RealThread_RTOS/src/ipc.c ****                 if (thread->current_priority < mutex->owner->current_priority)
 742:Middlewares/Third_Party/RealThread_RTOS/src/ipc.c ****                 {
 743:Middlewares/Third_Party/RealThread_RTOS/src/ipc.c ****                     /* change the owner thread priority */
 744:Middlewares/Third_Party/RealThread_RTOS/src/ipc.c ****                     rt_thread_control(mutex->owner,
 745:Middlewares/Third_Party/RealThread_RTOS/src/ipc.c ****                                       RT_THREAD_CTRL_CHANGE_PRIORITY,
 746:Middlewares/Third_Party/RealThread_RTOS/src/ipc.c ****                                       &thread->current_priority);
 747:Middlewares/Third_Party/RealThread_RTOS/src/ipc.c ****                 }
ARM GAS  C:\Users\Administrator\AppData\Local\Temp\ccS10GXs.s 			page 61


 748:Middlewares/Third_Party/RealThread_RTOS/src/ipc.c **** 
 749:Middlewares/Third_Party/RealThread_RTOS/src/ipc.c ****                 /* suspend current thread */
 750:Middlewares/Third_Party/RealThread_RTOS/src/ipc.c ****                 rt_ipc_list_suspend(&(mutex->parent.suspend_thread),
 751:Middlewares/Third_Party/RealThread_RTOS/src/ipc.c ****                                     thread,
 752:Middlewares/Third_Party/RealThread_RTOS/src/ipc.c ****                                     mutex->parent.parent.flag);
 753:Middlewares/Third_Party/RealThread_RTOS/src/ipc.c **** 
 754:Middlewares/Third_Party/RealThread_RTOS/src/ipc.c ****                 /* has waiting time, start thread timer */
 755:Middlewares/Third_Party/RealThread_RTOS/src/ipc.c ****                 if (time > 0)
 756:Middlewares/Third_Party/RealThread_RTOS/src/ipc.c ****                 {
 757:Middlewares/Third_Party/RealThread_RTOS/src/ipc.c ****                     RT_DEBUG_LOG(RT_DEBUG_IPC,
 758:Middlewares/Third_Party/RealThread_RTOS/src/ipc.c ****                                  ("mutex_take: start the timer of thread:%s\n",
 759:Middlewares/Third_Party/RealThread_RTOS/src/ipc.c ****                                   thread->name));
 760:Middlewares/Third_Party/RealThread_RTOS/src/ipc.c **** 
 761:Middlewares/Third_Party/RealThread_RTOS/src/ipc.c ****                     /* reset the timeout of thread timer and start it */
 762:Middlewares/Third_Party/RealThread_RTOS/src/ipc.c ****                     rt_timer_control(&(thread->thread_timer),
 763:Middlewares/Third_Party/RealThread_RTOS/src/ipc.c ****                                      RT_TIMER_CTRL_SET_TIME,
 764:Middlewares/Third_Party/RealThread_RTOS/src/ipc.c ****                                      &time);
 765:Middlewares/Third_Party/RealThread_RTOS/src/ipc.c ****                     rt_timer_start(&(thread->thread_timer));
 766:Middlewares/Third_Party/RealThread_RTOS/src/ipc.c ****                 }
 767:Middlewares/Third_Party/RealThread_RTOS/src/ipc.c **** 
 768:Middlewares/Third_Party/RealThread_RTOS/src/ipc.c ****                 /* enable interrupt */
 769:Middlewares/Third_Party/RealThread_RTOS/src/ipc.c ****                 rt_hw_interrupt_enable(temp);
 770:Middlewares/Third_Party/RealThread_RTOS/src/ipc.c **** 
 771:Middlewares/Third_Party/RealThread_RTOS/src/ipc.c ****                 /* do schedule */
 772:Middlewares/Third_Party/RealThread_RTOS/src/ipc.c ****                 rt_schedule();
 773:Middlewares/Third_Party/RealThread_RTOS/src/ipc.c **** 
 774:Middlewares/Third_Party/RealThread_RTOS/src/ipc.c ****                 if (thread->error != RT_EOK)
 775:Middlewares/Third_Party/RealThread_RTOS/src/ipc.c ****                 {
 776:Middlewares/Third_Party/RealThread_RTOS/src/ipc.c ****                     /* return error */
 777:Middlewares/Third_Party/RealThread_RTOS/src/ipc.c ****                     return thread->error;
 778:Middlewares/Third_Party/RealThread_RTOS/src/ipc.c ****                 }
 779:Middlewares/Third_Party/RealThread_RTOS/src/ipc.c ****                 else
 780:Middlewares/Third_Party/RealThread_RTOS/src/ipc.c ****                 {
 781:Middlewares/Third_Party/RealThread_RTOS/src/ipc.c ****                     /* the mutex is taken successfully. */
 782:Middlewares/Third_Party/RealThread_RTOS/src/ipc.c ****                     /* disable interrupt */
 783:Middlewares/Third_Party/RealThread_RTOS/src/ipc.c ****                     temp = rt_hw_interrupt_disable();
 784:Middlewares/Third_Party/RealThread_RTOS/src/ipc.c ****                 }
 785:Middlewares/Third_Party/RealThread_RTOS/src/ipc.c ****             }
 786:Middlewares/Third_Party/RealThread_RTOS/src/ipc.c ****         }
 787:Middlewares/Third_Party/RealThread_RTOS/src/ipc.c ****     }
 788:Middlewares/Third_Party/RealThread_RTOS/src/ipc.c **** 
 789:Middlewares/Third_Party/RealThread_RTOS/src/ipc.c ****     /* enable interrupt */
 790:Middlewares/Third_Party/RealThread_RTOS/src/ipc.c ****     rt_hw_interrupt_enable(temp);
 2254              		.loc 1 790 5 is_stmt 1 view .LVU641
 2255 007c 3046     		mov	r0, r6
 2256 007e FFF7FEFF 		bl	rt_hw_interrupt_enable
 2257              	.LVL262:
 791:Middlewares/Third_Party/RealThread_RTOS/src/ipc.c **** 
 792:Middlewares/Third_Party/RealThread_RTOS/src/ipc.c ****     RT_OBJECT_HOOK_CALL(rt_object_take_hook, (&(mutex->parent.parent)));
 2258              		.loc 1 792 5 view .LVU642
 2259              		.loc 1 792 5 view .LVU643
 2260 0082 554B     		ldr	r3, .L174+4
 2261 0084 1B68     		ldr	r3, [r3]
 2262 0086 002B     		cmp	r3, #0
 2263 0088 00F0A280 		beq	.L163
 2264              		.loc 1 792 5 discriminator 1 view .LVU644
 2265 008c 2046     		mov	r0, r4
ARM GAS  C:\Users\Administrator\AppData\Local\Temp\ccS10GXs.s 			page 62


 2266 008e 9847     		blx	r3
 2267              	.LVL263:
 793:Middlewares/Third_Party/RealThread_RTOS/src/ipc.c **** 
 794:Middlewares/Third_Party/RealThread_RTOS/src/ipc.c ****     return RT_EOK;
 2268              		.loc 1 794 12 is_stmt 0 discriminator 1 view .LVU645
 2269 0090 0020     		movs	r0, #0
 2270              	.LVL264:
 2271              	.L141:
 795:Middlewares/Third_Party/RealThread_RTOS/src/ipc.c **** }
 2272              		.loc 1 795 1 view .LVU646
 2273 0092 02B0     		add	sp, sp, #8
