ARM GAS  C:\Users\Administrator\AppData\Local\Temp\ccavM8Xf.s 			page 1


   1              		.cpu cortex-m4
   2              		.eabi_attribute 20, 1
   3              		.eabi_attribute 21, 1
   4              		.eabi_attribute 23, 3
   5              		.eabi_attribute 24, 1
   6              		.eabi_attribute 25, 1
   7              		.eabi_attribute 26, 1
   8              		.eabi_attribute 30, 1
   9              		.eabi_attribute 34, 1
  10              		.eabi_attribute 18, 4
  11              		.file	"irq.c"
  12              		.text
  13              	.Ltext0:
  14              		.cfi_sections	.debug_frame
  15              		.section	.text.rt_interrupt_enter_sethook,"ax",%progbits
  16              		.align	1
  17              		.global	rt_interrupt_enter_sethook
  18              		.arch armv7e-m
  19              		.syntax unified
  20              		.thumb
  21              		.thumb_func
  22              		.fpu softvfp
  24              	rt_interrupt_enter_sethook:
  25              	.LVL0:
  26              	.LFB15:
  27              		.file 1 "Middlewares/Third_Party/RealThread_RTOS/src/irq.c"
   1:Middlewares/Third_Party/RealThread_RTOS/src/irq.c **** /*
   2:Middlewares/Third_Party/RealThread_RTOS/src/irq.c ****  * Copyright (c) 2006-2021, RT-Thread Development Team
   3:Middlewares/Third_Party/RealThread_RTOS/src/irq.c ****  *
   4:Middlewares/Third_Party/RealThread_RTOS/src/irq.c ****  * SPDX-License-Identifier: Apache-2.0
   5:Middlewares/Third_Party/RealThread_RTOS/src/irq.c ****  *
   6:Middlewares/Third_Party/RealThread_RTOS/src/irq.c ****  * Change Logs:
   7:Middlewares/Third_Party/RealThread_RTOS/src/irq.c ****  * Date           Author       Notes
   8:Middlewares/Third_Party/RealThread_RTOS/src/irq.c ****  * 2006-02-24     Bernard      first version
   9:Middlewares/Third_Party/RealThread_RTOS/src/irq.c ****  * 2006-05-03     Bernard      add IRQ_DEBUG
  10:Middlewares/Third_Party/RealThread_RTOS/src/irq.c ****  * 2016-08-09     ArdaFu       add interrupt enter and leave hook.
  11:Middlewares/Third_Party/RealThread_RTOS/src/irq.c ****  * 2018-11-22     Jesven       rt_interrupt_get_nest function add disable irq
  12:Middlewares/Third_Party/RealThread_RTOS/src/irq.c ****  */
  13:Middlewares/Third_Party/RealThread_RTOS/src/irq.c **** 
  14:Middlewares/Third_Party/RealThread_RTOS/src/irq.c **** #include <rthw.h>
  15:Middlewares/Third_Party/RealThread_RTOS/src/irq.c **** #include <rtthread.h>
  16:Middlewares/Third_Party/RealThread_RTOS/src/irq.c **** 
  17:Middlewares/Third_Party/RealThread_RTOS/src/irq.c **** #ifdef RT_USING_HOOK
  18:Middlewares/Third_Party/RealThread_RTOS/src/irq.c **** 
  19:Middlewares/Third_Party/RealThread_RTOS/src/irq.c **** static void (*rt_interrupt_enter_hook)(void);
  20:Middlewares/Third_Party/RealThread_RTOS/src/irq.c **** static void (*rt_interrupt_leave_hook)(void);
  21:Middlewares/Third_Party/RealThread_RTOS/src/irq.c **** 
  22:Middlewares/Third_Party/RealThread_RTOS/src/irq.c **** /**
  23:Middlewares/Third_Party/RealThread_RTOS/src/irq.c ****  * @ingroup Hook
  24:Middlewares/Third_Party/RealThread_RTOS/src/irq.c ****  * This function set a hook function when the system enter a interrupt
  25:Middlewares/Third_Party/RealThread_RTOS/src/irq.c ****  *
  26:Middlewares/Third_Party/RealThread_RTOS/src/irq.c ****  * @note the hook function must be simple and never be blocked or suspend.
  27:Middlewares/Third_Party/RealThread_RTOS/src/irq.c ****  */
  28:Middlewares/Third_Party/RealThread_RTOS/src/irq.c **** void rt_interrupt_enter_sethook(void (*hook)(void))
  29:Middlewares/Third_Party/RealThread_RTOS/src/irq.c **** {
  28              		.loc 1 29 1 view -0
  29              		.cfi_startproc
ARM GAS  C:\Users\Administrator\AppData\Local\Temp\ccavM8Xf.s 			page 2


  30              		@ args = 0, pretend = 0, frame = 0
  31              		@ frame_needed = 0, uses_anonymous_args = 0
  32              		@ link register save eliminated.
  30:Middlewares/Third_Party/RealThread_RTOS/src/irq.c ****     rt_interrupt_enter_hook = hook;
  33              		.loc 1 30 5 view .LVU1
  34              		.loc 1 30 29 is_stmt 0 view .LVU2
  35 0000 014B     		ldr	r3, .L2
  36 0002 1860     		str	r0, [r3]
  31:Middlewares/Third_Party/RealThread_RTOS/src/irq.c **** }
  37              		.loc 1 31 1 view .LVU3
  38 0004 7047     		bx	lr
  39              	.L3:
  40 0006 00BF     		.align	2
  41              	.L2:
  42 0008 00000000 		.word	.LANCHOR0
  43              		.cfi_endproc
  44              	.LFE15:
  46              		.section	.text.rt_interrupt_leave_sethook,"ax",%progbits
  47              		.align	1
  48              		.global	rt_interrupt_leave_sethook
  49              		.syntax unified
  50              		.thumb
  51              		.thumb_func
  52              		.fpu softvfp
  54              	rt_interrupt_leave_sethook:
  55              	.LVL1:
  56              	.LFB16:
  32:Middlewares/Third_Party/RealThread_RTOS/src/irq.c **** /**
  33:Middlewares/Third_Party/RealThread_RTOS/src/irq.c ****  * @ingroup Hook
  34:Middlewares/Third_Party/RealThread_RTOS/src/irq.c ****  * This function set a hook function when the system exit a interrupt.
  35:Middlewares/Third_Party/RealThread_RTOS/src/irq.c ****  *
  36:Middlewares/Third_Party/RealThread_RTOS/src/irq.c ****  * @note the hook function must be simple and never be blocked or suspend.
  37:Middlewares/Third_Party/RealThread_RTOS/src/irq.c ****  */
  38:Middlewares/Third_Party/RealThread_RTOS/src/irq.c **** void rt_interrupt_leave_sethook(void (*hook)(void))
  39:Middlewares/Third_Party/RealThread_RTOS/src/irq.c **** {
  57              		.loc 1 39 1 is_stmt 1 view -0
  58              		.cfi_startproc
  59              		@ args = 0, pretend = 0, frame = 0
  60              		@ frame_needed = 0, uses_anonymous_args = 0
  61              		@ link register save eliminated.
  40:Middlewares/Third_Party/RealThread_RTOS/src/irq.c ****     rt_interrupt_leave_hook = hook;
  62              		.loc 1 40 5 view .LVU5
  63              		.loc 1 40 29 is_stmt 0 view .LVU6
  64 0000 014B     		ldr	r3, .L5
  65 0002 1860     		str	r0, [r3]
  41:Middlewares/Third_Party/RealThread_RTOS/src/irq.c **** }
  66              		.loc 1 41 1 view .LVU7
  67 0004 7047     		bx	lr
  68              	.L6:
  69 0006 00BF     		.align	2
  70              	.L5:
  71 0008 00000000 		.word	.LANCHOR1
  72              		.cfi_endproc
  73              	.LFE16:
  75              		.section	.text.rt_interrupt_enter,"ax",%progbits
  76              		.align	1
  77              		.global	rt_interrupt_enter
ARM GAS  C:\Users\Administrator\AppData\Local\Temp\ccavM8Xf.s 			page 3


  78              		.syntax unified
  79              		.thumb
  80              		.thumb_func
  81              		.fpu softvfp
  83              	rt_interrupt_enter:
  84              	.LFB17:
  42:Middlewares/Third_Party/RealThread_RTOS/src/irq.c **** #endif
  43:Middlewares/Third_Party/RealThread_RTOS/src/irq.c **** 
  44:Middlewares/Third_Party/RealThread_RTOS/src/irq.c **** /* #define IRQ_DEBUG */
  45:Middlewares/Third_Party/RealThread_RTOS/src/irq.c **** 
  46:Middlewares/Third_Party/RealThread_RTOS/src/irq.c **** /**
  47:Middlewares/Third_Party/RealThread_RTOS/src/irq.c ****  * @addtogroup Kernel
  48:Middlewares/Third_Party/RealThread_RTOS/src/irq.c ****  */
  49:Middlewares/Third_Party/RealThread_RTOS/src/irq.c **** 
  50:Middlewares/Third_Party/RealThread_RTOS/src/irq.c **** /**@{*/
  51:Middlewares/Third_Party/RealThread_RTOS/src/irq.c **** 
  52:Middlewares/Third_Party/RealThread_RTOS/src/irq.c **** volatile rt_uint8_t rt_interrupt_nest;
  53:Middlewares/Third_Party/RealThread_RTOS/src/irq.c **** 
  54:Middlewares/Third_Party/RealThread_RTOS/src/irq.c **** /**
  55:Middlewares/Third_Party/RealThread_RTOS/src/irq.c ****  * This function will be invoked by BSP, when enter interrupt service routine
  56:Middlewares/Third_Party/RealThread_RTOS/src/irq.c ****  *
  57:Middlewares/Third_Party/RealThread_RTOS/src/irq.c ****  * @note please don't invoke this routine in application
  58:Middlewares/Third_Party/RealThread_RTOS/src/irq.c ****  *
  59:Middlewares/Third_Party/RealThread_RTOS/src/irq.c ****  * @see rt_interrupt_leave
  60:Middlewares/Third_Party/RealThread_RTOS/src/irq.c ****  */
  61:Middlewares/Third_Party/RealThread_RTOS/src/irq.c **** void rt_interrupt_enter(void)
  62:Middlewares/Third_Party/RealThread_RTOS/src/irq.c **** {
  85              		.loc 1 62 1 is_stmt 1 view -0
  86              		.cfi_startproc
  87              		@ args = 0, pretend = 0, frame = 0
  88              		@ frame_needed = 0, uses_anonymous_args = 0
  89 0000 10B5     		push	{r4, lr}
  90              	.LCFI0:
  91              		.cfi_def_cfa_offset 8
  92              		.cfi_offset 4, -8
  93              		.cfi_offset 14, -4
  63:Middlewares/Third_Party/RealThread_RTOS/src/irq.c ****     rt_base_t level;
  94              		.loc 1 63 5 view .LVU9
  64:Middlewares/Third_Party/RealThread_RTOS/src/irq.c **** 
  65:Middlewares/Third_Party/RealThread_RTOS/src/irq.c ****     RT_DEBUG_LOG(RT_DEBUG_IRQ, ("irq coming..., irq nest:%d\n",
  95              		.loc 1 65 5 view .LVU10
  96              		.loc 1 65 5 view .LVU11
  97              		.loc 1 65 5 view .LVU12
  66:Middlewares/Third_Party/RealThread_RTOS/src/irq.c ****                                 rt_interrupt_nest));
  67:Middlewares/Third_Party/RealThread_RTOS/src/irq.c **** 
  68:Middlewares/Third_Party/RealThread_RTOS/src/irq.c ****     level = rt_hw_interrupt_disable();
  98              		.loc 1 68 5 view .LVU13
  99              		.loc 1 68 13 is_stmt 0 view .LVU14
 100 0002 FFF7FEFF 		bl	rt_hw_interrupt_disable
 101              	.LVL2:
 102 0006 0446     		mov	r4, r0
 103              	.LVL3:
  69:Middlewares/Third_Party/RealThread_RTOS/src/irq.c ****     rt_interrupt_nest ++;
 104              		.loc 1 69 5 is_stmt 1 view .LVU15
 105              		.loc 1 69 23 is_stmt 0 view .LVU16
 106 0008 064A     		ldr	r2, .L10
 107 000a 1378     		ldrb	r3, [r2]	@ zero_extendqisi2
ARM GAS  C:\Users\Administrator\AppData\Local\Temp\ccavM8Xf.s 			page 4


 108 000c 0133     		adds	r3, r3, #1
 109 000e DBB2     		uxtb	r3, r3
 110 0010 1370     		strb	r3, [r2]
  70:Middlewares/Third_Party/RealThread_RTOS/src/irq.c ****     RT_OBJECT_HOOK_CALL(rt_interrupt_enter_hook,());
 111              		.loc 1 70 5 is_stmt 1 view .LVU17
 112              		.loc 1 70 5 view .LVU18
 113 0012 054B     		ldr	r3, .L10+4
 114 0014 1B68     		ldr	r3, [r3]
 115 0016 03B1     		cbz	r3, .L8
 116              		.loc 1 70 5 discriminator 1 view .LVU19
 117 0018 9847     		blx	r3
 118              	.LVL4:
 119              	.L8:
 120              		.loc 1 70 5 discriminator 3 view .LVU20
  71:Middlewares/Third_Party/RealThread_RTOS/src/irq.c ****     rt_hw_interrupt_enable(level);
 121              		.loc 1 71 5 discriminator 3 view .LVU21
 122 001a 2046     		mov	r0, r4
 123 001c FFF7FEFF 		bl	rt_hw_interrupt_enable
 124              	.LVL5:
  72:Middlewares/Third_Party/RealThread_RTOS/src/irq.c **** }
 125              		.loc 1 72 1 is_stmt 0 discriminator 3 view .LVU22
 126 0020 10BD     		pop	{r4, pc}
 127              	.LVL6:
 128              	.L11:
 129              		.loc 1 72 1 discriminator 3 view .LVU23
 130 0022 00BF     		.align	2
 131              	.L10:
 132 0024 00000000 		.word	.LANCHOR2
 133 0028 00000000 		.word	.LANCHOR0
 134              		.cfi_endproc
 135              	.LFE17:
 137              		.section	.text.rt_interrupt_leave,"ax",%progbits
 138              		.align	1
 139              		.global	rt_interrupt_leave
 140              		.syntax unified
 141              		.thumb
 142              		.thumb_func
 143              		.fpu softvfp
 145              	rt_interrupt_leave:
 146              	.LFB18:
  73:Middlewares/Third_Party/RealThread_RTOS/src/irq.c **** 
  74:Middlewares/Third_Party/RealThread_RTOS/src/irq.c **** /**
  75:Middlewares/Third_Party/RealThread_RTOS/src/irq.c ****  * This function will be invoked by BSP, when leave interrupt service routine
  76:Middlewares/Third_Party/RealThread_RTOS/src/irq.c ****  *
  77:Middlewares/Third_Party/RealThread_RTOS/src/irq.c ****  * @note please don't invoke this routine in application
  78:Middlewares/Third_Party/RealThread_RTOS/src/irq.c ****  *
  79:Middlewares/Third_Party/RealThread_RTOS/src/irq.c ****  * @see rt_interrupt_enter
  80:Middlewares/Third_Party/RealThread_RTOS/src/irq.c ****  */
  81:Middlewares/Third_Party/RealThread_RTOS/src/irq.c **** void rt_interrupt_leave(void)
  82:Middlewares/Third_Party/RealThread_RTOS/src/irq.c **** {
 147              		.loc 1 82 1 is_stmt 1 view -0
 148              		.cfi_startproc
 149              		@ args = 0, pretend = 0, frame = 0
 150              		@ frame_needed = 0, uses_anonymous_args = 0
 151 0000 10B5     		push	{r4, lr}
 152              	.LCFI1:
 153              		.cfi_def_cfa_offset 8
ARM GAS  C:\Users\Administrator\AppData\Local\Temp\ccavM8Xf.s 			page 5


 154              		.cfi_offset 4, -8
 155              		.cfi_offset 14, -4
  83:Middlewares/Third_Party/RealThread_RTOS/src/irq.c ****     rt_base_t level;
 156              		.loc 1 83 5 view .LVU25
  84:Middlewares/Third_Party/RealThread_RTOS/src/irq.c **** 
  85:Middlewares/Third_Party/RealThread_RTOS/src/irq.c ****     RT_DEBUG_LOG(RT_DEBUG_IRQ, ("irq leave, irq nest:%d\n",
 157              		.loc 1 85 5 view .LVU26
 158              		.loc 1 85 5 view .LVU27
 159              		.loc 1 85 5 view .LVU28
  86:Middlewares/Third_Party/RealThread_RTOS/src/irq.c ****                                 rt_interrupt_nest));
  87:Middlewares/Third_Party/RealThread_RTOS/src/irq.c **** 
  88:Middlewares/Third_Party/RealThread_RTOS/src/irq.c ****     level = rt_hw_interrupt_disable();
 160              		.loc 1 88 5 view .LVU29
 161              		.loc 1 88 13 is_stmt 0 view .LVU30
 162 0002 FFF7FEFF 		bl	rt_hw_interrupt_disable
 163              	.LVL7:
 164 0006 0446     		mov	r4, r0
 165              	.LVL8:
  89:Middlewares/Third_Party/RealThread_RTOS/src/irq.c ****     rt_interrupt_nest --;
 166              		.loc 1 89 5 is_stmt 1 view .LVU31
 167              		.loc 1 89 23 is_stmt 0 view .LVU32
 168 0008 064A     		ldr	r2, .L15
 169 000a 1378     		ldrb	r3, [r2]	@ zero_extendqisi2
 170 000c 013B     		subs	r3, r3, #1
 171 000e DBB2     		uxtb	r3, r3
 172 0010 1370     		strb	r3, [r2]
  90:Middlewares/Third_Party/RealThread_RTOS/src/irq.c ****     RT_OBJECT_HOOK_CALL(rt_interrupt_leave_hook,());
 173              		.loc 1 90 5 is_stmt 1 view .LVU33
 174              		.loc 1 90 5 view .LVU34
 175 0012 054B     		ldr	r3, .L15+4
 176 0014 1B68     		ldr	r3, [r3]
 177 0016 03B1     		cbz	r3, .L13
 178              		.loc 1 90 5 discriminator 1 view .LVU35
 179 0018 9847     		blx	r3
 180              	.LVL9:
 181              	.L13:
 182              		.loc 1 90 5 discriminator 3 view .LVU36
  91:Middlewares/Third_Party/RealThread_RTOS/src/irq.c ****     rt_hw_interrupt_enable(level);
 183              		.loc 1 91 5 discriminator 3 view .LVU37
 184 001a 2046     		mov	r0, r4
 185 001c FFF7FEFF 		bl	rt_hw_interrupt_enable
 186              	.LVL10:
  92:Middlewares/Third_Party/RealThread_RTOS/src/irq.c **** }
 187              		.loc 1 92 1 is_stmt 0 discriminator 3 view .LVU38
 188 0020 10BD     		pop	{r4, pc}
 189              	.LVL11:
 190              	.L16:
 191              		.loc 1 92 1 discriminator 3 view .LVU39
 192 0022 00BF     		.align	2
 193              	.L15:
 194 0024 00000000 		.word	.LANCHOR2
 195 0028 00000000 		.word	.LANCHOR1
 196              		.cfi_endproc
 197              	.LFE18:
 199              		.section	.text.rt_interrupt_get_nest,"ax",%progbits
 200              		.align	1
 201              		.weak	rt_interrupt_get_nest
ARM GAS  C:\Users\Administrator\AppData\Local\Temp\ccavM8Xf.s 			page 6


 202              		.syntax unified
 203              		.thumb
 204              		.thumb_func
 205              		.fpu softvfp
 207              	rt_interrupt_get_nest:
 208              	.LFB19:
  93:Middlewares/Third_Party/RealThread_RTOS/src/irq.c **** 
  94:Middlewares/Third_Party/RealThread_RTOS/src/irq.c **** /**
  95:Middlewares/Third_Party/RealThread_RTOS/src/irq.c ****  * This function will return the nest of interrupt.
  96:Middlewares/Third_Party/RealThread_RTOS/src/irq.c ****  *
  97:Middlewares/Third_Party/RealThread_RTOS/src/irq.c ****  * User application can invoke this function to get whether current
  98:Middlewares/Third_Party/RealThread_RTOS/src/irq.c ****  * context is interrupt context.
  99:Middlewares/Third_Party/RealThread_RTOS/src/irq.c ****  *
 100:Middlewares/Third_Party/RealThread_RTOS/src/irq.c ****  * @return the number of nested interrupts.
 101:Middlewares/Third_Party/RealThread_RTOS/src/irq.c ****  */
 102:Middlewares/Third_Party/RealThread_RTOS/src/irq.c **** RT_WEAK rt_uint8_t rt_interrupt_get_nest(void)
 103:Middlewares/Third_Party/RealThread_RTOS/src/irq.c **** {
 209              		.loc 1 103 1 is_stmt 1 view -0
 210              		.cfi_startproc
 211              		@ args = 0, pretend = 0, frame = 0
 212              		@ frame_needed = 0, uses_anonymous_args = 0
 213 0000 10B5     		push	{r4, lr}
 214              	.LCFI2:
 215              		.cfi_def_cfa_offset 8
 216              		.cfi_offset 4, -8
 217              		.cfi_offset 14, -4
 104:Middlewares/Third_Party/RealThread_RTOS/src/irq.c ****     rt_uint8_t ret;
 218              		.loc 1 104 5 view .LVU41
 105:Middlewares/Third_Party/RealThread_RTOS/src/irq.c ****     rt_base_t level;
 219              		.loc 1 105 5 view .LVU42
 106:Middlewares/Third_Party/RealThread_RTOS/src/irq.c **** 
 107:Middlewares/Third_Party/RealThread_RTOS/src/irq.c ****     level = rt_hw_interrupt_disable();
 220              		.loc 1 107 5 view .LVU43
 221              		.loc 1 107 13 is_stmt 0 view .LVU44
 222 0002 FFF7FEFF 		bl	rt_hw_interrupt_disable
 223              	.LVL12:
 108:Middlewares/Third_Party/RealThread_RTOS/src/irq.c ****     ret = rt_interrupt_nest;
 224              		.loc 1 108 5 is_stmt 1 view .LVU45
 225              		.loc 1 108 9 is_stmt 0 view .LVU46
 226 0006 034B     		ldr	r3, .L19
 227 0008 1C78     		ldrb	r4, [r3]	@ zero_extendqisi2
 228 000a E4B2     		uxtb	r4, r4
 229              	.LVL13:
 109:Middlewares/Third_Party/RealThread_RTOS/src/irq.c ****     rt_hw_interrupt_enable(level);
 230              		.loc 1 109 5 is_stmt 1 view .LVU47
 231 000c FFF7FEFF 		bl	rt_hw_interrupt_enable
 232              	.LVL14:
 110:Middlewares/Third_Party/RealThread_RTOS/src/irq.c ****     return ret;
 233              		.loc 1 110 5 view .LVU48
 111:Middlewares/Third_Party/RealThread_RTOS/src/irq.c **** }
 234              		.loc 1 111 1 is_stmt 0 view .LVU49
 235 0010 2046     		mov	r0, r4
 236 0012 10BD     		pop	{r4, pc}
 237              	.LVL15:
 238              	.L20:
 239              		.loc 1 111 1 view .LVU50
 240              		.align	2
ARM GAS  C:\Users\Administrator\AppData\Local\Temp\ccavM8Xf.s 			page 7


 241              	.L19:
 242 0014 00000000 		.word	.LANCHOR2
 243              		.cfi_endproc
 244              	.LFE19:
 246              		.global	rt_interrupt_nest
 247              		.section	.bss.rt_interrupt_enter_hook,"aw",%nobits
 248              		.align	2
 249              		.set	.LANCHOR0,. + 0
 252              	rt_interrupt_enter_hook:
 253 0000 00000000 		.space	4
 254              		.section	.bss.rt_interrupt_leave_hook,"aw",%nobits
 255              		.align	2
 256              		.set	.LANCHOR1,. + 0
 259              	rt_interrupt_leave_hook:
 260 0000 00000000 		.space	4
 261              		.section	.bss.rt_interrupt_nest,"aw",%nobits
 262              		.set	.LANCHOR2,. + 0
 265              	rt_interrupt_nest:
 266 0000 00       		.space	1
 267              		.text
 268              	.Letext0:
 269              		.file 2 "Middlewares/Third_Party/RealThread_RTOS/include/rtdef.h"
 270              		.file 3 "Middlewares/Third_Party/RealThread_RTOS/include/rthw.h"
ARM GAS  C:\Users\Administrator\AppData\Local\Temp\ccavM8Xf.s 			page 8


DEFINED SYMBOLS
                            *ABS*:00000000 irq.c
C:\Users\Administrator\AppData\Local\Temp\ccavM8Xf.s:16     .text.rt_interrupt_enter_sethook:00000000 $t
C:\Users\Administrator\AppData\Local\Temp\ccavM8Xf.s:24     .text.rt_interrupt_enter_sethook:00000000 rt_interrupt_enter_sethook
C:\Users\Administrator\AppData\Local\Temp\ccavM8Xf.s:42     .text.rt_interrupt_enter_sethook:00000008 $d
C:\Users\Administrator\AppData\Local\Temp\ccavM8Xf.s:47     .text.rt_interrupt_leave_sethook:00000000 $t
C:\Users\Administrator\AppData\Local\Temp\ccavM8Xf.s:54     .text.rt_interrupt_leave_sethook:00000000 rt_interrupt_leave_sethook
C:\Users\Administrator\AppData\Local\Temp\ccavM8Xf.s:71     .text.rt_interrupt_leave_sethook:00000008 $d
C:\Users\Administrator\AppData\Local\Temp\ccavM8Xf.s:76     .text.rt_interrupt_enter:00000000 $t
C:\Users\Administrator\AppData\Local\Temp\ccavM8Xf.s:83     .text.rt_interrupt_enter:00000000 rt_interrupt_enter
C:\Users\Administrator\AppData\Local\Temp\ccavM8Xf.s:132    .text.rt_interrupt_enter:00000024 $d
C:\Users\Administrator\AppData\Local\Temp\ccavM8Xf.s:138    .text.rt_interrupt_leave:00000000 $t
C:\Users\Administrator\AppData\Local\Temp\ccavM8Xf.s:145    .text.rt_interrupt_leave:00000000 rt_interrupt_leave
C:\Users\Administrator\AppData\Local\Temp\ccavM8Xf.s:194    .text.rt_interrupt_leave:00000024 $d
C:\Users\Administrator\AppData\Local\Temp\ccavM8Xf.s:200    .text.rt_interrupt_get_nest:00000000 $t
C:\Users\Administrator\AppData\Local\Temp\ccavM8Xf.s:207    .text.rt_interrupt_get_nest:00000000 rt_interrupt_get_nest
C:\Users\Administrator\AppData\Local\Temp\ccavM8Xf.s:242    .text.rt_interrupt_get_nest:00000014 $d
C:\Users\Administrator\AppData\Local\Temp\ccavM8Xf.s:265    .bss.rt_interrupt_nest:00000000 rt_interrupt_nest
C:\Users\Administrator\AppData\Local\Temp\ccavM8Xf.s:248    .bss.rt_interrupt_enter_hook:00000000 $d
C:\Users\Administrator\AppData\Local\Temp\ccavM8Xf.s:252    .bss.rt_interrupt_enter_hook:00000000 rt_interrupt_enter_hook
C:\Users\Administrator\AppData\Local\Temp\ccavM8Xf.s:255    .bss.rt_interrupt_leave_hook:00000000 $d
C:\Users\Administrator\AppData\Local\Temp\ccavM8Xf.s:259    .bss.rt_interrupt_leave_hook:00000000 rt_interrupt_leave_hook
C:\Users\Administrator\AppData\Local\Temp\ccavM8Xf.s:266    .bss.rt_interrupt_nest:00000000 $d

UNDEFINED SYMBOLS
rt_hw_interrupt_disable
rt_hw_interrupt_enable
