ARM GAS  C:\Users\Administrator\AppData\Local\Temp\ccnljQWb.s 			page 1


   1              		.cpu cortex-m4
   2              		.eabi_attribute 20, 1
   3              		.eabi_attribute 21, 1
   4              		.eabi_attribute 23, 3
   5              		.eabi_attribute 24, 1
   6              		.eabi_attribute 25, 1
   7              		.eabi_attribute 26, 1
   8              		.eabi_attribute 30, 1
   9              		.eabi_attribute 34, 1
  10              		.eabi_attribute 18, 4
  11              		.file	"kservice.c"
  12              		.text
  13              	.Ltext0:
  14              		.cfi_sections	.debug_frame
  15              		.section	.text.print_number,"ax",%progbits
  16              		.align	1
  17              		.arch armv7e-m
  18              		.syntax unified
  19              		.thumb
  20              		.thumb_func
  21              		.fpu softvfp
  23              	print_number:
  24              	.LVL0:
  25              	.LFB33:
  26              		.file 1 "Middlewares/Third_Party/RealThread_RTOS/src/kservice.c"
   1:Middlewares/Third_Party/RealThread_RTOS/src/kservice.c **** /*
   2:Middlewares/Third_Party/RealThread_RTOS/src/kservice.c ****  * Copyright (c) 2006-2021, RT-Thread Development Team
   3:Middlewares/Third_Party/RealThread_RTOS/src/kservice.c ****  *
   4:Middlewares/Third_Party/RealThread_RTOS/src/kservice.c ****  * SPDX-License-Identifier: Apache-2.0
   5:Middlewares/Third_Party/RealThread_RTOS/src/kservice.c ****  *
   6:Middlewares/Third_Party/RealThread_RTOS/src/kservice.c ****  * Change Logs:
   7:Middlewares/Third_Party/RealThread_RTOS/src/kservice.c ****  * Date           Author       Notes
   8:Middlewares/Third_Party/RealThread_RTOS/src/kservice.c ****  * 2006-03-16     Bernard      the first version
   9:Middlewares/Third_Party/RealThread_RTOS/src/kservice.c ****  * 2006-05-25     Bernard      rewrite vsprintf
  10:Middlewares/Third_Party/RealThread_RTOS/src/kservice.c ****  * 2006-08-10     Bernard      add rt_show_version
  11:Middlewares/Third_Party/RealThread_RTOS/src/kservice.c ****  * 2010-03-17     Bernard      remove rt_strlcpy function
  12:Middlewares/Third_Party/RealThread_RTOS/src/kservice.c ****  *                             fix gcc compiling issue.
  13:Middlewares/Third_Party/RealThread_RTOS/src/kservice.c ****  * 2010-04-15     Bernard      remove weak definition on ICCM16C compiler
  14:Middlewares/Third_Party/RealThread_RTOS/src/kservice.c ****  * 2012-07-18     Arda         add the alignment display for signed integer
  15:Middlewares/Third_Party/RealThread_RTOS/src/kservice.c ****  * 2012-11-23     Bernard      fix IAR compiler error.
  16:Middlewares/Third_Party/RealThread_RTOS/src/kservice.c ****  * 2012-12-22     Bernard      fix rt_kprintf issue, which found by Grissiom.
  17:Middlewares/Third_Party/RealThread_RTOS/src/kservice.c ****  * 2013-06-24     Bernard      remove rt_kprintf if RT_USING_CONSOLE is not defined.
  18:Middlewares/Third_Party/RealThread_RTOS/src/kservice.c ****  * 2013-09-24     aozima       make sure the device is in STREAM mode when used by rt_kprintf.
  19:Middlewares/Third_Party/RealThread_RTOS/src/kservice.c ****  * 2015-07-06     Bernard      Add rt_assert_handler routine.
  20:Middlewares/Third_Party/RealThread_RTOS/src/kservice.c ****  */
  21:Middlewares/Third_Party/RealThread_RTOS/src/kservice.c **** 
  22:Middlewares/Third_Party/RealThread_RTOS/src/kservice.c **** #include <rtthread.h>
  23:Middlewares/Third_Party/RealThread_RTOS/src/kservice.c **** #include <rthw.h>
  24:Middlewares/Third_Party/RealThread_RTOS/src/kservice.c **** 
  25:Middlewares/Third_Party/RealThread_RTOS/src/kservice.c **** /* use precision */
  26:Middlewares/Third_Party/RealThread_RTOS/src/kservice.c **** #define RT_PRINTF_PRECISION
  27:Middlewares/Third_Party/RealThread_RTOS/src/kservice.c **** 
  28:Middlewares/Third_Party/RealThread_RTOS/src/kservice.c **** /**
  29:Middlewares/Third_Party/RealThread_RTOS/src/kservice.c ****  * @addtogroup KernelService
  30:Middlewares/Third_Party/RealThread_RTOS/src/kservice.c ****  */
  31:Middlewares/Third_Party/RealThread_RTOS/src/kservice.c **** 
  32:Middlewares/Third_Party/RealThread_RTOS/src/kservice.c **** /**@{*/
ARM GAS  C:\Users\Administrator\AppData\Local\Temp\ccnljQWb.s 			page 2


  33:Middlewares/Third_Party/RealThread_RTOS/src/kservice.c **** 
  34:Middlewares/Third_Party/RealThread_RTOS/src/kservice.c **** /* global errno in RT-Thread */
  35:Middlewares/Third_Party/RealThread_RTOS/src/kservice.c **** static volatile int __rt_errno;
  36:Middlewares/Third_Party/RealThread_RTOS/src/kservice.c **** 
  37:Middlewares/Third_Party/RealThread_RTOS/src/kservice.c **** #if defined(RT_USING_DEVICE) && defined(RT_USING_CONSOLE)
  38:Middlewares/Third_Party/RealThread_RTOS/src/kservice.c **** static rt_device_t _console_device = RT_NULL;
  39:Middlewares/Third_Party/RealThread_RTOS/src/kservice.c **** #endif
  40:Middlewares/Third_Party/RealThread_RTOS/src/kservice.c **** 
  41:Middlewares/Third_Party/RealThread_RTOS/src/kservice.c **** /*
  42:Middlewares/Third_Party/RealThread_RTOS/src/kservice.c ****  * This function will get errno
  43:Middlewares/Third_Party/RealThread_RTOS/src/kservice.c ****  *
  44:Middlewares/Third_Party/RealThread_RTOS/src/kservice.c ****  * @return errno
  45:Middlewares/Third_Party/RealThread_RTOS/src/kservice.c ****  */
  46:Middlewares/Third_Party/RealThread_RTOS/src/kservice.c **** rt_err_t rt_get_errno(void)
  47:Middlewares/Third_Party/RealThread_RTOS/src/kservice.c **** {
  48:Middlewares/Third_Party/RealThread_RTOS/src/kservice.c ****     rt_thread_t tid;
  49:Middlewares/Third_Party/RealThread_RTOS/src/kservice.c **** 
  50:Middlewares/Third_Party/RealThread_RTOS/src/kservice.c ****     if (rt_interrupt_get_nest() != 0)
  51:Middlewares/Third_Party/RealThread_RTOS/src/kservice.c ****     {
  52:Middlewares/Third_Party/RealThread_RTOS/src/kservice.c ****         /* it's in interrupt context */
  53:Middlewares/Third_Party/RealThread_RTOS/src/kservice.c ****         return __rt_errno;
  54:Middlewares/Third_Party/RealThread_RTOS/src/kservice.c ****     }
  55:Middlewares/Third_Party/RealThread_RTOS/src/kservice.c **** 
  56:Middlewares/Third_Party/RealThread_RTOS/src/kservice.c ****     tid = rt_thread_self();
  57:Middlewares/Third_Party/RealThread_RTOS/src/kservice.c ****     if (tid == RT_NULL)
  58:Middlewares/Third_Party/RealThread_RTOS/src/kservice.c ****         return __rt_errno;
  59:Middlewares/Third_Party/RealThread_RTOS/src/kservice.c **** 
  60:Middlewares/Third_Party/RealThread_RTOS/src/kservice.c ****     return tid->error;
  61:Middlewares/Third_Party/RealThread_RTOS/src/kservice.c **** }
  62:Middlewares/Third_Party/RealThread_RTOS/src/kservice.c **** 
  63:Middlewares/Third_Party/RealThread_RTOS/src/kservice.c **** /*
  64:Middlewares/Third_Party/RealThread_RTOS/src/kservice.c ****  * This function will set errno
  65:Middlewares/Third_Party/RealThread_RTOS/src/kservice.c ****  *
  66:Middlewares/Third_Party/RealThread_RTOS/src/kservice.c ****  * @param error the errno shall be set
  67:Middlewares/Third_Party/RealThread_RTOS/src/kservice.c ****  */
  68:Middlewares/Third_Party/RealThread_RTOS/src/kservice.c **** void rt_set_errno(rt_err_t error)
  69:Middlewares/Third_Party/RealThread_RTOS/src/kservice.c **** {
  70:Middlewares/Third_Party/RealThread_RTOS/src/kservice.c ****     rt_thread_t tid;
  71:Middlewares/Third_Party/RealThread_RTOS/src/kservice.c **** 
  72:Middlewares/Third_Party/RealThread_RTOS/src/kservice.c ****     if (rt_interrupt_get_nest() != 0)
  73:Middlewares/Third_Party/RealThread_RTOS/src/kservice.c ****     {
  74:Middlewares/Third_Party/RealThread_RTOS/src/kservice.c ****         /* it's in interrupt context */
  75:Middlewares/Third_Party/RealThread_RTOS/src/kservice.c ****         __rt_errno = error;
  76:Middlewares/Third_Party/RealThread_RTOS/src/kservice.c **** 
  77:Middlewares/Third_Party/RealThread_RTOS/src/kservice.c ****         return;
  78:Middlewares/Third_Party/RealThread_RTOS/src/kservice.c ****     }
  79:Middlewares/Third_Party/RealThread_RTOS/src/kservice.c **** 
  80:Middlewares/Third_Party/RealThread_RTOS/src/kservice.c ****     tid = rt_thread_self();
  81:Middlewares/Third_Party/RealThread_RTOS/src/kservice.c ****     if (tid == RT_NULL)
  82:Middlewares/Third_Party/RealThread_RTOS/src/kservice.c ****     {
  83:Middlewares/Third_Party/RealThread_RTOS/src/kservice.c ****         __rt_errno = error;
  84:Middlewares/Third_Party/RealThread_RTOS/src/kservice.c **** 
  85:Middlewares/Third_Party/RealThread_RTOS/src/kservice.c ****         return;
  86:Middlewares/Third_Party/RealThread_RTOS/src/kservice.c ****     }
  87:Middlewares/Third_Party/RealThread_RTOS/src/kservice.c **** 
  88:Middlewares/Third_Party/RealThread_RTOS/src/kservice.c ****     tid->error = error;
  89:Middlewares/Third_Party/RealThread_RTOS/src/kservice.c **** }
ARM GAS  C:\Users\Administrator\AppData\Local\Temp\ccnljQWb.s 			page 3


  90:Middlewares/Third_Party/RealThread_RTOS/src/kservice.c **** 
  91:Middlewares/Third_Party/RealThread_RTOS/src/kservice.c **** /**
  92:Middlewares/Third_Party/RealThread_RTOS/src/kservice.c ****  * This function returns errno.
  93:Middlewares/Third_Party/RealThread_RTOS/src/kservice.c ****  *
  94:Middlewares/Third_Party/RealThread_RTOS/src/kservice.c ****  * @return the errno in the system
  95:Middlewares/Third_Party/RealThread_RTOS/src/kservice.c ****  */
  96:Middlewares/Third_Party/RealThread_RTOS/src/kservice.c **** int *_rt_errno(void)
  97:Middlewares/Third_Party/RealThread_RTOS/src/kservice.c **** {
  98:Middlewares/Third_Party/RealThread_RTOS/src/kservice.c ****     rt_thread_t tid;
  99:Middlewares/Third_Party/RealThread_RTOS/src/kservice.c **** 
 100:Middlewares/Third_Party/RealThread_RTOS/src/kservice.c ****     if (rt_interrupt_get_nest() != 0)
 101:Middlewares/Third_Party/RealThread_RTOS/src/kservice.c ****         return (int *)&__rt_errno;
 102:Middlewares/Third_Party/RealThread_RTOS/src/kservice.c **** 
 103:Middlewares/Third_Party/RealThread_RTOS/src/kservice.c ****     tid = rt_thread_self();
 104:Middlewares/Third_Party/RealThread_RTOS/src/kservice.c ****     if (tid != RT_NULL)
 105:Middlewares/Third_Party/RealThread_RTOS/src/kservice.c ****         return (int *) & (tid->error);
 106:Middlewares/Third_Party/RealThread_RTOS/src/kservice.c **** 
 107:Middlewares/Third_Party/RealThread_RTOS/src/kservice.c ****     return (int *)&__rt_errno;
 108:Middlewares/Third_Party/RealThread_RTOS/src/kservice.c **** }
 109:Middlewares/Third_Party/RealThread_RTOS/src/kservice.c **** 
 110:Middlewares/Third_Party/RealThread_RTOS/src/kservice.c **** /**
 111:Middlewares/Third_Party/RealThread_RTOS/src/kservice.c ****  * This function will set the content of memory to specified value
 112:Middlewares/Third_Party/RealThread_RTOS/src/kservice.c ****  *
 113:Middlewares/Third_Party/RealThread_RTOS/src/kservice.c ****  * @param s the address of source memory
 114:Middlewares/Third_Party/RealThread_RTOS/src/kservice.c ****  * @param c the value shall be set in content
 115:Middlewares/Third_Party/RealThread_RTOS/src/kservice.c ****  * @param count the copied length
 116:Middlewares/Third_Party/RealThread_RTOS/src/kservice.c ****  *
 117:Middlewares/Third_Party/RealThread_RTOS/src/kservice.c ****  * @return the address of source memory
 118:Middlewares/Third_Party/RealThread_RTOS/src/kservice.c ****  */
 119:Middlewares/Third_Party/RealThread_RTOS/src/kservice.c **** void *rt_memset(void *s, int c, rt_ubase_t count)
 120:Middlewares/Third_Party/RealThread_RTOS/src/kservice.c **** {
 121:Middlewares/Third_Party/RealThread_RTOS/src/kservice.c **** #ifdef RT_USING_TINY_SIZE
 122:Middlewares/Third_Party/RealThread_RTOS/src/kservice.c ****     char *xs = (char *)s;
 123:Middlewares/Third_Party/RealThread_RTOS/src/kservice.c **** 
 124:Middlewares/Third_Party/RealThread_RTOS/src/kservice.c ****     while (count--)
 125:Middlewares/Third_Party/RealThread_RTOS/src/kservice.c ****         *xs++ = c;
 126:Middlewares/Third_Party/RealThread_RTOS/src/kservice.c **** 
 127:Middlewares/Third_Party/RealThread_RTOS/src/kservice.c ****     return s;
 128:Middlewares/Third_Party/RealThread_RTOS/src/kservice.c **** #else
 129:Middlewares/Third_Party/RealThread_RTOS/src/kservice.c **** #define LBLOCKSIZE      (sizeof(long))
 130:Middlewares/Third_Party/RealThread_RTOS/src/kservice.c **** #define UNALIGNED(X)    ((long)X & (LBLOCKSIZE - 1))
 131:Middlewares/Third_Party/RealThread_RTOS/src/kservice.c **** #define TOO_SMALL(LEN)  ((LEN) < LBLOCKSIZE)
 132:Middlewares/Third_Party/RealThread_RTOS/src/kservice.c **** 
 133:Middlewares/Third_Party/RealThread_RTOS/src/kservice.c ****     unsigned int i;
 134:Middlewares/Third_Party/RealThread_RTOS/src/kservice.c ****     char *m = (char *)s;
 135:Middlewares/Third_Party/RealThread_RTOS/src/kservice.c ****     unsigned long buffer;
 136:Middlewares/Third_Party/RealThread_RTOS/src/kservice.c ****     unsigned long *aligned_addr;
 137:Middlewares/Third_Party/RealThread_RTOS/src/kservice.c ****     unsigned int d = c & 0xff;  /* To avoid sign extension, copy C to an
 138:Middlewares/Third_Party/RealThread_RTOS/src/kservice.c ****                                 unsigned variable.  */
 139:Middlewares/Third_Party/RealThread_RTOS/src/kservice.c **** 
 140:Middlewares/Third_Party/RealThread_RTOS/src/kservice.c ****     if (!TOO_SMALL(count) && !UNALIGNED(s))
 141:Middlewares/Third_Party/RealThread_RTOS/src/kservice.c ****     {
 142:Middlewares/Third_Party/RealThread_RTOS/src/kservice.c ****         /* If we get this far, we know that n is large and m is word-aligned. */
 143:Middlewares/Third_Party/RealThread_RTOS/src/kservice.c ****         aligned_addr = (unsigned long *)s;
 144:Middlewares/Third_Party/RealThread_RTOS/src/kservice.c **** 
 145:Middlewares/Third_Party/RealThread_RTOS/src/kservice.c ****         /* Store D into each char sized location in BUFFER so that
 146:Middlewares/Third_Party/RealThread_RTOS/src/kservice.c ****          * we can set large blocks quickly.
ARM GAS  C:\Users\Administrator\AppData\Local\Temp\ccnljQWb.s 			page 4


 147:Middlewares/Third_Party/RealThread_RTOS/src/kservice.c ****          */
 148:Middlewares/Third_Party/RealThread_RTOS/src/kservice.c ****         if (LBLOCKSIZE == 4)
 149:Middlewares/Third_Party/RealThread_RTOS/src/kservice.c ****         {
 150:Middlewares/Third_Party/RealThread_RTOS/src/kservice.c ****             buffer = (d << 8) | d;
 151:Middlewares/Third_Party/RealThread_RTOS/src/kservice.c ****             buffer |= (buffer << 16);
 152:Middlewares/Third_Party/RealThread_RTOS/src/kservice.c ****         }
 153:Middlewares/Third_Party/RealThread_RTOS/src/kservice.c ****         else
 154:Middlewares/Third_Party/RealThread_RTOS/src/kservice.c ****         {
 155:Middlewares/Third_Party/RealThread_RTOS/src/kservice.c ****             buffer = 0;
 156:Middlewares/Third_Party/RealThread_RTOS/src/kservice.c ****             for (i = 0; i < LBLOCKSIZE; i ++)
 157:Middlewares/Third_Party/RealThread_RTOS/src/kservice.c ****                 buffer = (buffer << 8) | d;
 158:Middlewares/Third_Party/RealThread_RTOS/src/kservice.c ****         }
 159:Middlewares/Third_Party/RealThread_RTOS/src/kservice.c **** 
 160:Middlewares/Third_Party/RealThread_RTOS/src/kservice.c ****         while (count >= LBLOCKSIZE * 4)
 161:Middlewares/Third_Party/RealThread_RTOS/src/kservice.c ****         {
 162:Middlewares/Third_Party/RealThread_RTOS/src/kservice.c ****             *aligned_addr++ = buffer;
 163:Middlewares/Third_Party/RealThread_RTOS/src/kservice.c ****             *aligned_addr++ = buffer;
 164:Middlewares/Third_Party/RealThread_RTOS/src/kservice.c ****             *aligned_addr++ = buffer;
 165:Middlewares/Third_Party/RealThread_RTOS/src/kservice.c ****             *aligned_addr++ = buffer;
 166:Middlewares/Third_Party/RealThread_RTOS/src/kservice.c ****             count -= 4 * LBLOCKSIZE;
 167:Middlewares/Third_Party/RealThread_RTOS/src/kservice.c ****         }
 168:Middlewares/Third_Party/RealThread_RTOS/src/kservice.c **** 
 169:Middlewares/Third_Party/RealThread_RTOS/src/kservice.c ****         while (count >= LBLOCKSIZE)
 170:Middlewares/Third_Party/RealThread_RTOS/src/kservice.c ****         {
 171:Middlewares/Third_Party/RealThread_RTOS/src/kservice.c ****             *aligned_addr++ = buffer;
 172:Middlewares/Third_Party/RealThread_RTOS/src/kservice.c ****             count -= LBLOCKSIZE;
 173:Middlewares/Third_Party/RealThread_RTOS/src/kservice.c ****         }
 174:Middlewares/Third_Party/RealThread_RTOS/src/kservice.c **** 
 175:Middlewares/Third_Party/RealThread_RTOS/src/kservice.c ****         /* Pick up the remainder with a bytewise loop. */
 176:Middlewares/Third_Party/RealThread_RTOS/src/kservice.c ****         m = (char *)aligned_addr;
 177:Middlewares/Third_Party/RealThread_RTOS/src/kservice.c ****     }
 178:Middlewares/Third_Party/RealThread_RTOS/src/kservice.c **** 
 179:Middlewares/Third_Party/RealThread_RTOS/src/kservice.c ****     while (count--)
 180:Middlewares/Third_Party/RealThread_RTOS/src/kservice.c ****     {
 181:Middlewares/Third_Party/RealThread_RTOS/src/kservice.c ****         *m++ = (char)d;
 182:Middlewares/Third_Party/RealThread_RTOS/src/kservice.c ****     }
 183:Middlewares/Third_Party/RealThread_RTOS/src/kservice.c **** 
 184:Middlewares/Third_Party/RealThread_RTOS/src/kservice.c ****     return s;
 185:Middlewares/Third_Party/RealThread_RTOS/src/kservice.c **** 
 186:Middlewares/Third_Party/RealThread_RTOS/src/kservice.c **** #undef LBLOCKSIZE
 187:Middlewares/Third_Party/RealThread_RTOS/src/kservice.c **** #undef UNALIGNED
 188:Middlewares/Third_Party/RealThread_RTOS/src/kservice.c **** #undef TOO_SMALL
 189:Middlewares/Third_Party/RealThread_RTOS/src/kservice.c **** #endif
 190:Middlewares/Third_Party/RealThread_RTOS/src/kservice.c **** }
 191:Middlewares/Third_Party/RealThread_RTOS/src/kservice.c **** 
 192:Middlewares/Third_Party/RealThread_RTOS/src/kservice.c **** /**
 193:Middlewares/Third_Party/RealThread_RTOS/src/kservice.c ****  * This function will copy memory content from source address to destination
 194:Middlewares/Third_Party/RealThread_RTOS/src/kservice.c ****  * address.
 195:Middlewares/Third_Party/RealThread_RTOS/src/kservice.c ****  *
 196:Middlewares/Third_Party/RealThread_RTOS/src/kservice.c ****  * @param dst the address of destination memory
 197:Middlewares/Third_Party/RealThread_RTOS/src/kservice.c ****  * @param src  the address of source memory
 198:Middlewares/Third_Party/RealThread_RTOS/src/kservice.c ****  * @param count the copied length
 199:Middlewares/Third_Party/RealThread_RTOS/src/kservice.c ****  *
 200:Middlewares/Third_Party/RealThread_RTOS/src/kservice.c ****  * @return the address of destination memory
 201:Middlewares/Third_Party/RealThread_RTOS/src/kservice.c ****  */
 202:Middlewares/Third_Party/RealThread_RTOS/src/kservice.c **** void *rt_memcpy(void *dst, const void *src, rt_ubase_t count)
 203:Middlewares/Third_Party/RealThread_RTOS/src/kservice.c **** {
ARM GAS  C:\Users\Administrator\AppData\Local\Temp\ccnljQWb.s 			page 5


 204:Middlewares/Third_Party/RealThread_RTOS/src/kservice.c **** #ifdef RT_USING_TINY_SIZE
 205:Middlewares/Third_Party/RealThread_RTOS/src/kservice.c ****     char *tmp = (char *)dst, *s = (char *)src;
 206:Middlewares/Third_Party/RealThread_RTOS/src/kservice.c ****     rt_ubase_t len;
 207:Middlewares/Third_Party/RealThread_RTOS/src/kservice.c **** 
 208:Middlewares/Third_Party/RealThread_RTOS/src/kservice.c ****     if (tmp <= s || tmp > (s + count))
 209:Middlewares/Third_Party/RealThread_RTOS/src/kservice.c ****     {
 210:Middlewares/Third_Party/RealThread_RTOS/src/kservice.c ****         while (count--)
 211:Middlewares/Third_Party/RealThread_RTOS/src/kservice.c ****             *tmp ++ = *s ++;
 212:Middlewares/Third_Party/RealThread_RTOS/src/kservice.c ****     }
 213:Middlewares/Third_Party/RealThread_RTOS/src/kservice.c ****     else
 214:Middlewares/Third_Party/RealThread_RTOS/src/kservice.c ****     {
 215:Middlewares/Third_Party/RealThread_RTOS/src/kservice.c ****         for (len = count; len > 0; len --)
 216:Middlewares/Third_Party/RealThread_RTOS/src/kservice.c ****             tmp[len - 1] = s[len - 1];
 217:Middlewares/Third_Party/RealThread_RTOS/src/kservice.c ****     }
 218:Middlewares/Third_Party/RealThread_RTOS/src/kservice.c **** 
 219:Middlewares/Third_Party/RealThread_RTOS/src/kservice.c ****     return dst;
 220:Middlewares/Third_Party/RealThread_RTOS/src/kservice.c **** #else
 221:Middlewares/Third_Party/RealThread_RTOS/src/kservice.c **** 
 222:Middlewares/Third_Party/RealThread_RTOS/src/kservice.c **** #define UNALIGNED(X, Y) \
 223:Middlewares/Third_Party/RealThread_RTOS/src/kservice.c ****     (((long)X & (sizeof (long) - 1)) | ((long)Y & (sizeof (long) - 1)))
 224:Middlewares/Third_Party/RealThread_RTOS/src/kservice.c **** #define BIGBLOCKSIZE    (sizeof (long) << 2)
 225:Middlewares/Third_Party/RealThread_RTOS/src/kservice.c **** #define LITTLEBLOCKSIZE (sizeof (long))
 226:Middlewares/Third_Party/RealThread_RTOS/src/kservice.c **** #define TOO_SMALL(LEN)  ((LEN) < BIGBLOCKSIZE)
 227:Middlewares/Third_Party/RealThread_RTOS/src/kservice.c **** 
 228:Middlewares/Third_Party/RealThread_RTOS/src/kservice.c ****     char *dst_ptr = (char *)dst;
 229:Middlewares/Third_Party/RealThread_RTOS/src/kservice.c ****     char *src_ptr = (char *)src;
 230:Middlewares/Third_Party/RealThread_RTOS/src/kservice.c ****     long *aligned_dst;
 231:Middlewares/Third_Party/RealThread_RTOS/src/kservice.c ****     long *aligned_src;
 232:Middlewares/Third_Party/RealThread_RTOS/src/kservice.c ****     int len = count;
 233:Middlewares/Third_Party/RealThread_RTOS/src/kservice.c **** 
 234:Middlewares/Third_Party/RealThread_RTOS/src/kservice.c ****     /* If the size is small, or either SRC or DST is unaligned,
 235:Middlewares/Third_Party/RealThread_RTOS/src/kservice.c ****     then punt into the byte copy loop.  This should be rare. */
 236:Middlewares/Third_Party/RealThread_RTOS/src/kservice.c ****     if (!TOO_SMALL(len) && !UNALIGNED(src_ptr, dst_ptr))
 237:Middlewares/Third_Party/RealThread_RTOS/src/kservice.c ****     {
 238:Middlewares/Third_Party/RealThread_RTOS/src/kservice.c ****         aligned_dst = (long *)dst_ptr;
 239:Middlewares/Third_Party/RealThread_RTOS/src/kservice.c ****         aligned_src = (long *)src_ptr;
 240:Middlewares/Third_Party/RealThread_RTOS/src/kservice.c **** 
 241:Middlewares/Third_Party/RealThread_RTOS/src/kservice.c ****         /* Copy 4X long words at a time if possible. */
 242:Middlewares/Third_Party/RealThread_RTOS/src/kservice.c ****         while (len >= BIGBLOCKSIZE)
 243:Middlewares/Third_Party/RealThread_RTOS/src/kservice.c ****         {
 244:Middlewares/Third_Party/RealThread_RTOS/src/kservice.c ****             *aligned_dst++ = *aligned_src++;
 245:Middlewares/Third_Party/RealThread_RTOS/src/kservice.c ****             *aligned_dst++ = *aligned_src++;
 246:Middlewares/Third_Party/RealThread_RTOS/src/kservice.c ****             *aligned_dst++ = *aligned_src++;
 247:Middlewares/Third_Party/RealThread_RTOS/src/kservice.c ****             *aligned_dst++ = *aligned_src++;
 248:Middlewares/Third_Party/RealThread_RTOS/src/kservice.c ****             len -= BIGBLOCKSIZE;
 249:Middlewares/Third_Party/RealThread_RTOS/src/kservice.c ****         }
 250:Middlewares/Third_Party/RealThread_RTOS/src/kservice.c **** 
 251:Middlewares/Third_Party/RealThread_RTOS/src/kservice.c ****         /* Copy one long word at a time if possible. */
 252:Middlewares/Third_Party/RealThread_RTOS/src/kservice.c ****         while (len >= LITTLEBLOCKSIZE)
 253:Middlewares/Third_Party/RealThread_RTOS/src/kservice.c ****         {
 254:Middlewares/Third_Party/RealThread_RTOS/src/kservice.c ****             *aligned_dst++ = *aligned_src++;
 255:Middlewares/Third_Party/RealThread_RTOS/src/kservice.c ****             len -= LITTLEBLOCKSIZE;
 256:Middlewares/Third_Party/RealThread_RTOS/src/kservice.c ****         }
 257:Middlewares/Third_Party/RealThread_RTOS/src/kservice.c **** 
 258:Middlewares/Third_Party/RealThread_RTOS/src/kservice.c ****         /* Pick up any residual with a byte copier. */
 259:Middlewares/Third_Party/RealThread_RTOS/src/kservice.c ****         dst_ptr = (char *)aligned_dst;
 260:Middlewares/Third_Party/RealThread_RTOS/src/kservice.c ****         src_ptr = (char *)aligned_src;
ARM GAS  C:\Users\Administrator\AppData\Local\Temp\ccnljQWb.s 			page 6


 261:Middlewares/Third_Party/RealThread_RTOS/src/kservice.c ****     }
 262:Middlewares/Third_Party/RealThread_RTOS/src/kservice.c **** 
 263:Middlewares/Third_Party/RealThread_RTOS/src/kservice.c ****     while (len--)
 264:Middlewares/Third_Party/RealThread_RTOS/src/kservice.c ****         *dst_ptr++ = *src_ptr++;
 265:Middlewares/Third_Party/RealThread_RTOS/src/kservice.c **** 
 266:Middlewares/Third_Party/RealThread_RTOS/src/kservice.c ****     return dst;
 267:Middlewares/Third_Party/RealThread_RTOS/src/kservice.c **** #undef UNALIGNED
 268:Middlewares/Third_Party/RealThread_RTOS/src/kservice.c **** #undef BIGBLOCKSIZE
 269:Middlewares/Third_Party/RealThread_RTOS/src/kservice.c **** #undef LITTLEBLOCKSIZE
 270:Middlewares/Third_Party/RealThread_RTOS/src/kservice.c **** #undef TOO_SMALL
 271:Middlewares/Third_Party/RealThread_RTOS/src/kservice.c **** #endif
 272:Middlewares/Third_Party/RealThread_RTOS/src/kservice.c **** }
 273:Middlewares/Third_Party/RealThread_RTOS/src/kservice.c **** 
 274:Middlewares/Third_Party/RealThread_RTOS/src/kservice.c **** /**
 275:Middlewares/Third_Party/RealThread_RTOS/src/kservice.c ****  * This function will move memory content from source address to destination
 276:Middlewares/Third_Party/RealThread_RTOS/src/kservice.c ****  * address.
 277:Middlewares/Third_Party/RealThread_RTOS/src/kservice.c ****  *
 278:Middlewares/Third_Party/RealThread_RTOS/src/kservice.c ****  * @param dest the address of destination memory
 279:Middlewares/Third_Party/RealThread_RTOS/src/kservice.c ****  * @param src  the address of source memory
 280:Middlewares/Third_Party/RealThread_RTOS/src/kservice.c ****  * @param n the copied length
 281:Middlewares/Third_Party/RealThread_RTOS/src/kservice.c ****  *
 282:Middlewares/Third_Party/RealThread_RTOS/src/kservice.c ****  * @return the address of destination memory
 283:Middlewares/Third_Party/RealThread_RTOS/src/kservice.c ****  */
 284:Middlewares/Third_Party/RealThread_RTOS/src/kservice.c **** void *rt_memmove(void *dest, const void *src, rt_ubase_t n)
 285:Middlewares/Third_Party/RealThread_RTOS/src/kservice.c **** {
 286:Middlewares/Third_Party/RealThread_RTOS/src/kservice.c ****     char *tmp = (char *)dest, *s = (char *)src;
 287:Middlewares/Third_Party/RealThread_RTOS/src/kservice.c **** 
 288:Middlewares/Third_Party/RealThread_RTOS/src/kservice.c ****     if (s < tmp && tmp < s + n)
 289:Middlewares/Third_Party/RealThread_RTOS/src/kservice.c ****     {
 290:Middlewares/Third_Party/RealThread_RTOS/src/kservice.c ****         tmp += n;
 291:Middlewares/Third_Party/RealThread_RTOS/src/kservice.c ****         s += n;
 292:Middlewares/Third_Party/RealThread_RTOS/src/kservice.c **** 
 293:Middlewares/Third_Party/RealThread_RTOS/src/kservice.c ****         while (n--)
 294:Middlewares/Third_Party/RealThread_RTOS/src/kservice.c ****             *(--tmp) = *(--s);
 295:Middlewares/Third_Party/RealThread_RTOS/src/kservice.c ****     }
 296:Middlewares/Third_Party/RealThread_RTOS/src/kservice.c ****     else
 297:Middlewares/Third_Party/RealThread_RTOS/src/kservice.c ****     {
 298:Middlewares/Third_Party/RealThread_RTOS/src/kservice.c ****         while (n--)
 299:Middlewares/Third_Party/RealThread_RTOS/src/kservice.c ****             *tmp++ = *s++;
 300:Middlewares/Third_Party/RealThread_RTOS/src/kservice.c ****     }
 301:Middlewares/Third_Party/RealThread_RTOS/src/kservice.c **** 
 302:Middlewares/Third_Party/RealThread_RTOS/src/kservice.c ****     return dest;
 303:Middlewares/Third_Party/RealThread_RTOS/src/kservice.c **** }
 304:Middlewares/Third_Party/RealThread_RTOS/src/kservice.c **** 
 305:Middlewares/Third_Party/RealThread_RTOS/src/kservice.c **** /**
 306:Middlewares/Third_Party/RealThread_RTOS/src/kservice.c ****  * This function will compare two areas of memory
 307:Middlewares/Third_Party/RealThread_RTOS/src/kservice.c ****  *
 308:Middlewares/Third_Party/RealThread_RTOS/src/kservice.c ****  * @param cs one area of memory
 309:Middlewares/Third_Party/RealThread_RTOS/src/kservice.c ****  * @param ct another area of memory
 310:Middlewares/Third_Party/RealThread_RTOS/src/kservice.c ****  * @param count the size of the area
 311:Middlewares/Third_Party/RealThread_RTOS/src/kservice.c ****  *
 312:Middlewares/Third_Party/RealThread_RTOS/src/kservice.c ****  * @return the result
 313:Middlewares/Third_Party/RealThread_RTOS/src/kservice.c ****  */
 314:Middlewares/Third_Party/RealThread_RTOS/src/kservice.c **** rt_int32_t rt_memcmp(const void *cs, const void *ct, rt_ubase_t count)
 315:Middlewares/Third_Party/RealThread_RTOS/src/kservice.c **** {
 316:Middlewares/Third_Party/RealThread_RTOS/src/kservice.c ****     const unsigned char *su1, *su2;
 317:Middlewares/Third_Party/RealThread_RTOS/src/kservice.c ****     int res = 0;
ARM GAS  C:\Users\Administrator\AppData\Local\Temp\ccnljQWb.s 			page 7


 318:Middlewares/Third_Party/RealThread_RTOS/src/kservice.c **** 
 319:Middlewares/Third_Party/RealThread_RTOS/src/kservice.c ****     for (su1 = (const unsigned char *)cs, su2 = (const unsigned char *)ct; 0 < count; ++su1, ++su2,
 320:Middlewares/Third_Party/RealThread_RTOS/src/kservice.c ****         if ((res = *su1 - *su2) != 0)
 321:Middlewares/Third_Party/RealThread_RTOS/src/kservice.c ****             break;
 322:Middlewares/Third_Party/RealThread_RTOS/src/kservice.c **** 
 323:Middlewares/Third_Party/RealThread_RTOS/src/kservice.c ****     return res;
 324:Middlewares/Third_Party/RealThread_RTOS/src/kservice.c **** }
 325:Middlewares/Third_Party/RealThread_RTOS/src/kservice.c **** 
 326:Middlewares/Third_Party/RealThread_RTOS/src/kservice.c **** /**
 327:Middlewares/Third_Party/RealThread_RTOS/src/kservice.c ****  * This function will return the first occurrence of a string.
 328:Middlewares/Third_Party/RealThread_RTOS/src/kservice.c ****  *
 329:Middlewares/Third_Party/RealThread_RTOS/src/kservice.c ****  * @param s1 the source string
 330:Middlewares/Third_Party/RealThread_RTOS/src/kservice.c ****  * @param s2 the find string
 331:Middlewares/Third_Party/RealThread_RTOS/src/kservice.c ****  *
 332:Middlewares/Third_Party/RealThread_RTOS/src/kservice.c ****  * @return the first occurrence of a s2 in s1, or RT_NULL if no found.
 333:Middlewares/Third_Party/RealThread_RTOS/src/kservice.c ****  */
 334:Middlewares/Third_Party/RealThread_RTOS/src/kservice.c **** char *rt_strstr(const char *s1, const char *s2)
 335:Middlewares/Third_Party/RealThread_RTOS/src/kservice.c **** {
 336:Middlewares/Third_Party/RealThread_RTOS/src/kservice.c ****     int l1, l2;
 337:Middlewares/Third_Party/RealThread_RTOS/src/kservice.c **** 
 338:Middlewares/Third_Party/RealThread_RTOS/src/kservice.c ****     l2 = rt_strlen(s2);
 339:Middlewares/Third_Party/RealThread_RTOS/src/kservice.c ****     if (!l2)
 340:Middlewares/Third_Party/RealThread_RTOS/src/kservice.c ****         return (char *)s1;
 341:Middlewares/Third_Party/RealThread_RTOS/src/kservice.c ****     l1 = rt_strlen(s1);
 342:Middlewares/Third_Party/RealThread_RTOS/src/kservice.c ****     while (l1 >= l2)
 343:Middlewares/Third_Party/RealThread_RTOS/src/kservice.c ****     {
 344:Middlewares/Third_Party/RealThread_RTOS/src/kservice.c ****         l1 --;
 345:Middlewares/Third_Party/RealThread_RTOS/src/kservice.c ****         if (!rt_memcmp(s1, s2, l2))
 346:Middlewares/Third_Party/RealThread_RTOS/src/kservice.c ****             return (char *)s1;
 347:Middlewares/Third_Party/RealThread_RTOS/src/kservice.c ****         s1 ++;
 348:Middlewares/Third_Party/RealThread_RTOS/src/kservice.c ****     }
 349:Middlewares/Third_Party/RealThread_RTOS/src/kservice.c **** 
 350:Middlewares/Third_Party/RealThread_RTOS/src/kservice.c ****     return RT_NULL;
 351:Middlewares/Third_Party/RealThread_RTOS/src/kservice.c **** }
 352:Middlewares/Third_Party/RealThread_RTOS/src/kservice.c **** 
 353:Middlewares/Third_Party/RealThread_RTOS/src/kservice.c **** /**
 354:Middlewares/Third_Party/RealThread_RTOS/src/kservice.c ****  * This function will compare two strings while ignoring differences in case
 355:Middlewares/Third_Party/RealThread_RTOS/src/kservice.c ****  *
 356:Middlewares/Third_Party/RealThread_RTOS/src/kservice.c ****  * @param a the string to be compared
 357:Middlewares/Third_Party/RealThread_RTOS/src/kservice.c ****  * @param b the string to be compared
 358:Middlewares/Third_Party/RealThread_RTOS/src/kservice.c ****  *
 359:Middlewares/Third_Party/RealThread_RTOS/src/kservice.c ****  * @return the result
 360:Middlewares/Third_Party/RealThread_RTOS/src/kservice.c ****  */
 361:Middlewares/Third_Party/RealThread_RTOS/src/kservice.c **** rt_int32_t rt_strcasecmp(const char *a, const char *b)
 362:Middlewares/Third_Party/RealThread_RTOS/src/kservice.c **** {
 363:Middlewares/Third_Party/RealThread_RTOS/src/kservice.c ****     int ca, cb;
 364:Middlewares/Third_Party/RealThread_RTOS/src/kservice.c **** 
 365:Middlewares/Third_Party/RealThread_RTOS/src/kservice.c ****     do
 366:Middlewares/Third_Party/RealThread_RTOS/src/kservice.c ****     {
 367:Middlewares/Third_Party/RealThread_RTOS/src/kservice.c ****         ca = *a++ & 0xff;
 368:Middlewares/Third_Party/RealThread_RTOS/src/kservice.c ****         cb = *b++ & 0xff;
 369:Middlewares/Third_Party/RealThread_RTOS/src/kservice.c ****         if (ca >= 'A' && ca <= 'Z')
 370:Middlewares/Third_Party/RealThread_RTOS/src/kservice.c ****             ca += 'a' - 'A';
 371:Middlewares/Third_Party/RealThread_RTOS/src/kservice.c ****         if (cb >= 'A' && cb <= 'Z')
 372:Middlewares/Third_Party/RealThread_RTOS/src/kservice.c ****             cb += 'a' - 'A';
 373:Middlewares/Third_Party/RealThread_RTOS/src/kservice.c ****     }
 374:Middlewares/Third_Party/RealThread_RTOS/src/kservice.c ****     while (ca == cb && ca != '\0');
ARM GAS  C:\Users\Administrator\AppData\Local\Temp\ccnljQWb.s 			page 8


 375:Middlewares/Third_Party/RealThread_RTOS/src/kservice.c **** 
 376:Middlewares/Third_Party/RealThread_RTOS/src/kservice.c ****     return ca - cb;
 377:Middlewares/Third_Party/RealThread_RTOS/src/kservice.c **** }
 378:Middlewares/Third_Party/RealThread_RTOS/src/kservice.c **** 
 379:Middlewares/Third_Party/RealThread_RTOS/src/kservice.c **** /**
 380:Middlewares/Third_Party/RealThread_RTOS/src/kservice.c ****  * This function will copy string no more than n bytes.
 381:Middlewares/Third_Party/RealThread_RTOS/src/kservice.c ****  *
 382:Middlewares/Third_Party/RealThread_RTOS/src/kservice.c ****  * @param dst the string to copy
 383:Middlewares/Third_Party/RealThread_RTOS/src/kservice.c ****  * @param src the string to be copied
 384:Middlewares/Third_Party/RealThread_RTOS/src/kservice.c ****  * @param n the maximum copied length
 385:Middlewares/Third_Party/RealThread_RTOS/src/kservice.c ****  *
 386:Middlewares/Third_Party/RealThread_RTOS/src/kservice.c ****  * @return the result
 387:Middlewares/Third_Party/RealThread_RTOS/src/kservice.c ****  */
 388:Middlewares/Third_Party/RealThread_RTOS/src/kservice.c **** char *rt_strncpy(char *dst, const char *src, rt_ubase_t n)
 389:Middlewares/Third_Party/RealThread_RTOS/src/kservice.c **** {
 390:Middlewares/Third_Party/RealThread_RTOS/src/kservice.c ****     if (n != 0)
 391:Middlewares/Third_Party/RealThread_RTOS/src/kservice.c ****     {
 392:Middlewares/Third_Party/RealThread_RTOS/src/kservice.c ****         char *d = dst;
 393:Middlewares/Third_Party/RealThread_RTOS/src/kservice.c ****         const char *s = src;
 394:Middlewares/Third_Party/RealThread_RTOS/src/kservice.c **** 
 395:Middlewares/Third_Party/RealThread_RTOS/src/kservice.c ****         do
 396:Middlewares/Third_Party/RealThread_RTOS/src/kservice.c ****         {
 397:Middlewares/Third_Party/RealThread_RTOS/src/kservice.c ****             if ((*d++ = *s++) == 0)
 398:Middlewares/Third_Party/RealThread_RTOS/src/kservice.c ****             {
 399:Middlewares/Third_Party/RealThread_RTOS/src/kservice.c ****                 /* NUL pad the remaining n-1 bytes */
 400:Middlewares/Third_Party/RealThread_RTOS/src/kservice.c ****                 while (--n != 0)
 401:Middlewares/Third_Party/RealThread_RTOS/src/kservice.c ****                     *d++ = 0;
 402:Middlewares/Third_Party/RealThread_RTOS/src/kservice.c ****                 break;
 403:Middlewares/Third_Party/RealThread_RTOS/src/kservice.c ****             }
 404:Middlewares/Third_Party/RealThread_RTOS/src/kservice.c ****         } while (--n != 0);
 405:Middlewares/Third_Party/RealThread_RTOS/src/kservice.c ****     }
 406:Middlewares/Third_Party/RealThread_RTOS/src/kservice.c **** 
 407:Middlewares/Third_Party/RealThread_RTOS/src/kservice.c ****     return (dst);
 408:Middlewares/Third_Party/RealThread_RTOS/src/kservice.c **** }
 409:Middlewares/Third_Party/RealThread_RTOS/src/kservice.c **** 
 410:Middlewares/Third_Party/RealThread_RTOS/src/kservice.c **** /**
 411:Middlewares/Third_Party/RealThread_RTOS/src/kservice.c ****  * This function will compare two strings with specified maximum length
 412:Middlewares/Third_Party/RealThread_RTOS/src/kservice.c ****  *
 413:Middlewares/Third_Party/RealThread_RTOS/src/kservice.c ****  * @param cs the string to be compared
 414:Middlewares/Third_Party/RealThread_RTOS/src/kservice.c ****  * @param ct the string to be compared
 415:Middlewares/Third_Party/RealThread_RTOS/src/kservice.c ****  * @param count the maximum compare length
 416:Middlewares/Third_Party/RealThread_RTOS/src/kservice.c ****  *
 417:Middlewares/Third_Party/RealThread_RTOS/src/kservice.c ****  * @return the result
 418:Middlewares/Third_Party/RealThread_RTOS/src/kservice.c ****  */
 419:Middlewares/Third_Party/RealThread_RTOS/src/kservice.c **** rt_int32_t rt_strncmp(const char *cs, const char *ct, rt_ubase_t count)
 420:Middlewares/Third_Party/RealThread_RTOS/src/kservice.c **** {
 421:Middlewares/Third_Party/RealThread_RTOS/src/kservice.c ****     register signed char __res = 0;
 422:Middlewares/Third_Party/RealThread_RTOS/src/kservice.c **** 
 423:Middlewares/Third_Party/RealThread_RTOS/src/kservice.c ****     while (count)
 424:Middlewares/Third_Party/RealThread_RTOS/src/kservice.c ****     {
 425:Middlewares/Third_Party/RealThread_RTOS/src/kservice.c ****         if ((__res = *cs - *ct++) != 0 || !*cs++)
 426:Middlewares/Third_Party/RealThread_RTOS/src/kservice.c ****             break;
 427:Middlewares/Third_Party/RealThread_RTOS/src/kservice.c ****         count --;
 428:Middlewares/Third_Party/RealThread_RTOS/src/kservice.c ****     }
 429:Middlewares/Third_Party/RealThread_RTOS/src/kservice.c **** 
 430:Middlewares/Third_Party/RealThread_RTOS/src/kservice.c ****     return __res;
 431:Middlewares/Third_Party/RealThread_RTOS/src/kservice.c **** }
ARM GAS  C:\Users\Administrator\AppData\Local\Temp\ccnljQWb.s 			page 9


 432:Middlewares/Third_Party/RealThread_RTOS/src/kservice.c **** 
 433:Middlewares/Third_Party/RealThread_RTOS/src/kservice.c **** /**
 434:Middlewares/Third_Party/RealThread_RTOS/src/kservice.c ****  * This function will compare two strings without specified length
 435:Middlewares/Third_Party/RealThread_RTOS/src/kservice.c ****  *
 436:Middlewares/Third_Party/RealThread_RTOS/src/kservice.c ****  * @param cs the string to be compared
 437:Middlewares/Third_Party/RealThread_RTOS/src/kservice.c ****  * @param ct the string to be compared
 438:Middlewares/Third_Party/RealThread_RTOS/src/kservice.c ****  *
 439:Middlewares/Third_Party/RealThread_RTOS/src/kservice.c ****  * @return the result
 440:Middlewares/Third_Party/RealThread_RTOS/src/kservice.c ****  */
 441:Middlewares/Third_Party/RealThread_RTOS/src/kservice.c **** rt_int32_t rt_strcmp(const char *cs, const char *ct)
 442:Middlewares/Third_Party/RealThread_RTOS/src/kservice.c **** {
 443:Middlewares/Third_Party/RealThread_RTOS/src/kservice.c ****     while (*cs && *cs == *ct)
 444:Middlewares/Third_Party/RealThread_RTOS/src/kservice.c ****     {
 445:Middlewares/Third_Party/RealThread_RTOS/src/kservice.c ****         cs++;
 446:Middlewares/Third_Party/RealThread_RTOS/src/kservice.c ****         ct++;
 447:Middlewares/Third_Party/RealThread_RTOS/src/kservice.c ****     }
 448:Middlewares/Third_Party/RealThread_RTOS/src/kservice.c **** 
 449:Middlewares/Third_Party/RealThread_RTOS/src/kservice.c ****     return (*cs - *ct);
 450:Middlewares/Third_Party/RealThread_RTOS/src/kservice.c **** }
 451:Middlewares/Third_Party/RealThread_RTOS/src/kservice.c **** 
 452:Middlewares/Third_Party/RealThread_RTOS/src/kservice.c **** /**
 453:Middlewares/Third_Party/RealThread_RTOS/src/kservice.c ****  * The  strnlen()  function  returns the number of characters in the
 454:Middlewares/Third_Party/RealThread_RTOS/src/kservice.c ****  * string pointed to by s, excluding the terminating null byte ('\0'),
 455:Middlewares/Third_Party/RealThread_RTOS/src/kservice.c ****  * but at most maxlen.  In doing this, strnlen() looks only at the
 456:Middlewares/Third_Party/RealThread_RTOS/src/kservice.c ****  * first maxlen characters in the string pointed to by s and never
 457:Middlewares/Third_Party/RealThread_RTOS/src/kservice.c ****  * beyond s+maxlen.
 458:Middlewares/Third_Party/RealThread_RTOS/src/kservice.c ****  *
 459:Middlewares/Third_Party/RealThread_RTOS/src/kservice.c ****  * @param s the string
 460:Middlewares/Third_Party/RealThread_RTOS/src/kservice.c ****  * @param maxlen the max size
 461:Middlewares/Third_Party/RealThread_RTOS/src/kservice.c ****  * @return the length of string
 462:Middlewares/Third_Party/RealThread_RTOS/src/kservice.c ****  */
 463:Middlewares/Third_Party/RealThread_RTOS/src/kservice.c **** rt_size_t rt_strnlen(const char *s, rt_ubase_t maxlen)
 464:Middlewares/Third_Party/RealThread_RTOS/src/kservice.c **** {
 465:Middlewares/Third_Party/RealThread_RTOS/src/kservice.c ****     const char *sc;
 466:Middlewares/Third_Party/RealThread_RTOS/src/kservice.c **** 
 467:Middlewares/Third_Party/RealThread_RTOS/src/kservice.c ****     for (sc = s; *sc != '\0' && (rt_ubase_t)(sc - s) < maxlen; ++sc) /* nothing */
 468:Middlewares/Third_Party/RealThread_RTOS/src/kservice.c ****         ;
 469:Middlewares/Third_Party/RealThread_RTOS/src/kservice.c **** 
 470:Middlewares/Third_Party/RealThread_RTOS/src/kservice.c ****     return sc - s;
 471:Middlewares/Third_Party/RealThread_RTOS/src/kservice.c **** }
 472:Middlewares/Third_Party/RealThread_RTOS/src/kservice.c **** 
 473:Middlewares/Third_Party/RealThread_RTOS/src/kservice.c **** /**
 474:Middlewares/Third_Party/RealThread_RTOS/src/kservice.c ****  * This function will return the length of a string, which terminate will
 475:Middlewares/Third_Party/RealThread_RTOS/src/kservice.c ****  * null character.
 476:Middlewares/Third_Party/RealThread_RTOS/src/kservice.c ****  *
 477:Middlewares/Third_Party/RealThread_RTOS/src/kservice.c ****  * @param s the string
 478:Middlewares/Third_Party/RealThread_RTOS/src/kservice.c ****  *
 479:Middlewares/Third_Party/RealThread_RTOS/src/kservice.c ****  * @return the length of string
 480:Middlewares/Third_Party/RealThread_RTOS/src/kservice.c ****  */
 481:Middlewares/Third_Party/RealThread_RTOS/src/kservice.c **** rt_size_t rt_strlen(const char *s)
 482:Middlewares/Third_Party/RealThread_RTOS/src/kservice.c **** {
 483:Middlewares/Third_Party/RealThread_RTOS/src/kservice.c ****     const char *sc;
 484:Middlewares/Third_Party/RealThread_RTOS/src/kservice.c **** 
 485:Middlewares/Third_Party/RealThread_RTOS/src/kservice.c ****     for (sc = s; *sc != '\0'; ++sc) /* nothing */
 486:Middlewares/Third_Party/RealThread_RTOS/src/kservice.c ****         ;
 487:Middlewares/Third_Party/RealThread_RTOS/src/kservice.c **** 
 488:Middlewares/Third_Party/RealThread_RTOS/src/kservice.c ****     return sc - s;
ARM GAS  C:\Users\Administrator\AppData\Local\Temp\ccnljQWb.s 			page 10


 489:Middlewares/Third_Party/RealThread_RTOS/src/kservice.c **** }
 490:Middlewares/Third_Party/RealThread_RTOS/src/kservice.c **** 
 491:Middlewares/Third_Party/RealThread_RTOS/src/kservice.c **** #ifdef RT_USING_HEAP
 492:Middlewares/Third_Party/RealThread_RTOS/src/kservice.c **** /**
 493:Middlewares/Third_Party/RealThread_RTOS/src/kservice.c ****  * This function will duplicate a string.
 494:Middlewares/Third_Party/RealThread_RTOS/src/kservice.c ****  *
 495:Middlewares/Third_Party/RealThread_RTOS/src/kservice.c ****  * @param s the string to be duplicated
 496:Middlewares/Third_Party/RealThread_RTOS/src/kservice.c ****  *
 497:Middlewares/Third_Party/RealThread_RTOS/src/kservice.c ****  * @return the duplicated string pointer
 498:Middlewares/Third_Party/RealThread_RTOS/src/kservice.c ****  */
 499:Middlewares/Third_Party/RealThread_RTOS/src/kservice.c **** char *rt_strdup(const char *s)
 500:Middlewares/Third_Party/RealThread_RTOS/src/kservice.c **** {
 501:Middlewares/Third_Party/RealThread_RTOS/src/kservice.c ****     rt_size_t len = rt_strlen(s) + 1;
 502:Middlewares/Third_Party/RealThread_RTOS/src/kservice.c ****     char *tmp = (char *)rt_malloc(len);
 503:Middlewares/Third_Party/RealThread_RTOS/src/kservice.c **** 
 504:Middlewares/Third_Party/RealThread_RTOS/src/kservice.c ****     if (!tmp)
 505:Middlewares/Third_Party/RealThread_RTOS/src/kservice.c ****         return RT_NULL;
 506:Middlewares/Third_Party/RealThread_RTOS/src/kservice.c **** 
 507:Middlewares/Third_Party/RealThread_RTOS/src/kservice.c ****     rt_memcpy(tmp, s, len);
 508:Middlewares/Third_Party/RealThread_RTOS/src/kservice.c **** 
 509:Middlewares/Third_Party/RealThread_RTOS/src/kservice.c ****     return tmp;
 510:Middlewares/Third_Party/RealThread_RTOS/src/kservice.c **** }
 511:Middlewares/Third_Party/RealThread_RTOS/src/kservice.c **** 
 512:Middlewares/Third_Party/RealThread_RTOS/src/kservice.c **** #if defined(__CC_ARM) || defined(__CLANG_ARM)
 513:Middlewares/Third_Party/RealThread_RTOS/src/kservice.c **** char *strdup(const char *s) __attribute__((alias("rt_strdup")));
 514:Middlewares/Third_Party/RealThread_RTOS/src/kservice.c **** #endif
 515:Middlewares/Third_Party/RealThread_RTOS/src/kservice.c **** #endif
 516:Middlewares/Third_Party/RealThread_RTOS/src/kservice.c **** 
 517:Middlewares/Third_Party/RealThread_RTOS/src/kservice.c **** /**
 518:Middlewares/Third_Party/RealThread_RTOS/src/kservice.c ****  * This function will show the version of rt-thread rtos
 519:Middlewares/Third_Party/RealThread_RTOS/src/kservice.c ****  */
 520:Middlewares/Third_Party/RealThread_RTOS/src/kservice.c **** void rt_show_version(void)
 521:Middlewares/Third_Party/RealThread_RTOS/src/kservice.c **** {
 522:Middlewares/Third_Party/RealThread_RTOS/src/kservice.c ****     rt_kprintf("\n \\ | /\n");
 523:Middlewares/Third_Party/RealThread_RTOS/src/kservice.c ****     rt_kprintf("- RT -     Thread Operating System\n");
 524:Middlewares/Third_Party/RealThread_RTOS/src/kservice.c ****     rt_kprintf(" / | \\     %d.%d.%d build %s\n",
 525:Middlewares/Third_Party/RealThread_RTOS/src/kservice.c ****                RT_VERSION, RT_SUBVERSION, RT_REVISION, __DATE__);
 526:Middlewares/Third_Party/RealThread_RTOS/src/kservice.c ****     rt_kprintf(" 2006 - 2020 Copyright by rt-thread team\n");
 527:Middlewares/Third_Party/RealThread_RTOS/src/kservice.c **** }
 528:Middlewares/Third_Party/RealThread_RTOS/src/kservice.c **** 
 529:Middlewares/Third_Party/RealThread_RTOS/src/kservice.c **** /* private function */
 530:Middlewares/Third_Party/RealThread_RTOS/src/kservice.c **** #define _ISDIGIT(c)  ((unsigned)((c) - '0') < 10)
 531:Middlewares/Third_Party/RealThread_RTOS/src/kservice.c **** 
 532:Middlewares/Third_Party/RealThread_RTOS/src/kservice.c **** #ifdef RT_PRINTF_LONGLONG
 533:Middlewares/Third_Party/RealThread_RTOS/src/kservice.c **** rt_inline int divide(long long *n, int base)
 534:Middlewares/Third_Party/RealThread_RTOS/src/kservice.c **** {
 535:Middlewares/Third_Party/RealThread_RTOS/src/kservice.c ****     int res;
 536:Middlewares/Third_Party/RealThread_RTOS/src/kservice.c **** 
 537:Middlewares/Third_Party/RealThread_RTOS/src/kservice.c ****     /* optimized for processor which does not support divide instructions. */
 538:Middlewares/Third_Party/RealThread_RTOS/src/kservice.c ****     if (base == 10)
 539:Middlewares/Third_Party/RealThread_RTOS/src/kservice.c ****     {
 540:Middlewares/Third_Party/RealThread_RTOS/src/kservice.c ****         res = (int)(((unsigned long long)*n) % 10U);
 541:Middlewares/Third_Party/RealThread_RTOS/src/kservice.c ****         *n = (long long)(((unsigned long long)*n) / 10U);
 542:Middlewares/Third_Party/RealThread_RTOS/src/kservice.c ****     }
 543:Middlewares/Third_Party/RealThread_RTOS/src/kservice.c ****     else
 544:Middlewares/Third_Party/RealThread_RTOS/src/kservice.c ****     {
 545:Middlewares/Third_Party/RealThread_RTOS/src/kservice.c ****         res = (int)(((unsigned long long)*n) % 16U);
ARM GAS  C:\Users\Administrator\AppData\Local\Temp\ccnljQWb.s 			page 11


 546:Middlewares/Third_Party/RealThread_RTOS/src/kservice.c ****         *n = (long long)(((unsigned long long)*n) / 16U);
 547:Middlewares/Third_Party/RealThread_RTOS/src/kservice.c ****     }
 548:Middlewares/Third_Party/RealThread_RTOS/src/kservice.c **** 
 549:Middlewares/Third_Party/RealThread_RTOS/src/kservice.c ****     return res;
 550:Middlewares/Third_Party/RealThread_RTOS/src/kservice.c **** }
 551:Middlewares/Third_Party/RealThread_RTOS/src/kservice.c **** #else
 552:Middlewares/Third_Party/RealThread_RTOS/src/kservice.c **** rt_inline int divide(long *n, int base)
 553:Middlewares/Third_Party/RealThread_RTOS/src/kservice.c **** {
 554:Middlewares/Third_Party/RealThread_RTOS/src/kservice.c ****     int res;
 555:Middlewares/Third_Party/RealThread_RTOS/src/kservice.c **** 
 556:Middlewares/Third_Party/RealThread_RTOS/src/kservice.c ****     /* optimized for processor which does not support divide instructions. */
 557:Middlewares/Third_Party/RealThread_RTOS/src/kservice.c ****     if (base == 10)
 558:Middlewares/Third_Party/RealThread_RTOS/src/kservice.c ****     {
 559:Middlewares/Third_Party/RealThread_RTOS/src/kservice.c ****         res = (int)(((unsigned long)*n) % 10U);
 560:Middlewares/Third_Party/RealThread_RTOS/src/kservice.c ****         *n = (long)(((unsigned long)*n) / 10U);
 561:Middlewares/Third_Party/RealThread_RTOS/src/kservice.c ****     }
 562:Middlewares/Third_Party/RealThread_RTOS/src/kservice.c ****     else
 563:Middlewares/Third_Party/RealThread_RTOS/src/kservice.c ****     {
 564:Middlewares/Third_Party/RealThread_RTOS/src/kservice.c ****         res = (int)(((unsigned long)*n) % 16U);
 565:Middlewares/Third_Party/RealThread_RTOS/src/kservice.c ****         *n = (long)(((unsigned long)*n) / 16U);
 566:Middlewares/Third_Party/RealThread_RTOS/src/kservice.c ****     }
 567:Middlewares/Third_Party/RealThread_RTOS/src/kservice.c **** 
 568:Middlewares/Third_Party/RealThread_RTOS/src/kservice.c ****     return res;
 569:Middlewares/Third_Party/RealThread_RTOS/src/kservice.c **** }
 570:Middlewares/Third_Party/RealThread_RTOS/src/kservice.c **** #endif
 571:Middlewares/Third_Party/RealThread_RTOS/src/kservice.c **** 
 572:Middlewares/Third_Party/RealThread_RTOS/src/kservice.c **** rt_inline int skip_atoi(const char **s)
 573:Middlewares/Third_Party/RealThread_RTOS/src/kservice.c **** {
 574:Middlewares/Third_Party/RealThread_RTOS/src/kservice.c ****     register int i = 0;
 575:Middlewares/Third_Party/RealThread_RTOS/src/kservice.c ****     while (_ISDIGIT(**s))
 576:Middlewares/Third_Party/RealThread_RTOS/src/kservice.c ****         i = i * 10 + *((*s)++) - '0';
 577:Middlewares/Third_Party/RealThread_RTOS/src/kservice.c **** 
 578:Middlewares/Third_Party/RealThread_RTOS/src/kservice.c ****     return i;
 579:Middlewares/Third_Party/RealThread_RTOS/src/kservice.c **** }
 580:Middlewares/Third_Party/RealThread_RTOS/src/kservice.c **** 
 581:Middlewares/Third_Party/RealThread_RTOS/src/kservice.c **** #define ZEROPAD     (1 << 0)    /* pad with zero */
 582:Middlewares/Third_Party/RealThread_RTOS/src/kservice.c **** #define SIGN        (1 << 1)    /* unsigned/signed long */
 583:Middlewares/Third_Party/RealThread_RTOS/src/kservice.c **** #define PLUS        (1 << 2)    /* show plus */
 584:Middlewares/Third_Party/RealThread_RTOS/src/kservice.c **** #define SPACE       (1 << 3)    /* space if plus */
 585:Middlewares/Third_Party/RealThread_RTOS/src/kservice.c **** #define LEFT        (1 << 4)    /* left justified */
 586:Middlewares/Third_Party/RealThread_RTOS/src/kservice.c **** #define SPECIAL     (1 << 5)    /* 0x */
 587:Middlewares/Third_Party/RealThread_RTOS/src/kservice.c **** #define LARGE       (1 << 6)    /* use 'ABCDEF' instead of 'abcdef' */
 588:Middlewares/Third_Party/RealThread_RTOS/src/kservice.c **** 
 589:Middlewares/Third_Party/RealThread_RTOS/src/kservice.c **** #ifdef RT_PRINTF_PRECISION
 590:Middlewares/Third_Party/RealThread_RTOS/src/kservice.c **** static char *print_number(char *buf,
 591:Middlewares/Third_Party/RealThread_RTOS/src/kservice.c ****                           char *end,
 592:Middlewares/Third_Party/RealThread_RTOS/src/kservice.c **** #ifdef RT_PRINTF_LONGLONG
 593:Middlewares/Third_Party/RealThread_RTOS/src/kservice.c ****                           long long  num,
 594:Middlewares/Third_Party/RealThread_RTOS/src/kservice.c **** #else
 595:Middlewares/Third_Party/RealThread_RTOS/src/kservice.c ****                           long  num,
 596:Middlewares/Third_Party/RealThread_RTOS/src/kservice.c **** #endif
 597:Middlewares/Third_Party/RealThread_RTOS/src/kservice.c ****                           int   base,
 598:Middlewares/Third_Party/RealThread_RTOS/src/kservice.c ****                           int   s,
 599:Middlewares/Third_Party/RealThread_RTOS/src/kservice.c ****                           int   precision,
 600:Middlewares/Third_Party/RealThread_RTOS/src/kservice.c ****                           int   type)
 601:Middlewares/Third_Party/RealThread_RTOS/src/kservice.c **** #else
 602:Middlewares/Third_Party/RealThread_RTOS/src/kservice.c **** static char *print_number(char *buf,
ARM GAS  C:\Users\Administrator\AppData\Local\Temp\ccnljQWb.s 			page 12


 603:Middlewares/Third_Party/RealThread_RTOS/src/kservice.c ****                           char *end,
 604:Middlewares/Third_Party/RealThread_RTOS/src/kservice.c **** #ifdef RT_PRINTF_LONGLONG
 605:Middlewares/Third_Party/RealThread_RTOS/src/kservice.c ****                           long long  num,
 606:Middlewares/Third_Party/RealThread_RTOS/src/kservice.c **** #else
 607:Middlewares/Third_Party/RealThread_RTOS/src/kservice.c ****                           long  num,
 608:Middlewares/Third_Party/RealThread_RTOS/src/kservice.c **** #endif
 609:Middlewares/Third_Party/RealThread_RTOS/src/kservice.c ****                           int   base,
 610:Middlewares/Third_Party/RealThread_RTOS/src/kservice.c ****                           int   s,
 611:Middlewares/Third_Party/RealThread_RTOS/src/kservice.c ****                           int   type)
 612:Middlewares/Third_Party/RealThread_RTOS/src/kservice.c **** #endif
 613:Middlewares/Third_Party/RealThread_RTOS/src/kservice.c **** {
  27              		.loc 1 613 1 view -0
  28              		.cfi_startproc
  29              		@ args = 12, pretend = 0, frame = 16
  30              		@ frame_needed = 0, uses_anonymous_args = 0
  31              		.loc 1 613 1 is_stmt 0 view .LVU1
  32 0000 2DE9F047 		push	{r4, r5, r6, r7, r8, r9, r10, lr}
  33              	.LCFI0:
  34              		.cfi_def_cfa_offset 32
  35              		.cfi_offset 4, -32
  36              		.cfi_offset 5, -28
  37              		.cfi_offset 6, -24
  38              		.cfi_offset 7, -20
  39              		.cfi_offset 8, -16
  40              		.cfi_offset 9, -12
  41              		.cfi_offset 10, -8
  42              		.cfi_offset 14, -4
  43 0004 84B0     		sub	sp, sp, #16
  44              	.LCFI1:
  45              		.cfi_def_cfa_offset 48
  46 0006 9946     		mov	r9, r3
  47 0008 0D9C     		ldr	r4, [sp, #52]
  48 000a 0E9D     		ldr	r5, [sp, #56]
 614:Middlewares/Third_Party/RealThread_RTOS/src/kservice.c ****     char c, sign;
  49              		.loc 1 614 5 is_stmt 1 view .LVU2
 615:Middlewares/Third_Party/RealThread_RTOS/src/kservice.c **** #ifdef RT_PRINTF_LONGLONG
 616:Middlewares/Third_Party/RealThread_RTOS/src/kservice.c ****     char tmp[32];
 617:Middlewares/Third_Party/RealThread_RTOS/src/kservice.c **** #else
 618:Middlewares/Third_Party/RealThread_RTOS/src/kservice.c ****     char tmp[16];
  50              		.loc 1 618 5 view .LVU3
 619:Middlewares/Third_Party/RealThread_RTOS/src/kservice.c **** #endif
 620:Middlewares/Third_Party/RealThread_RTOS/src/kservice.c ****     int precision_bak = precision;
  51              		.loc 1 620 5 view .LVU4
  52              	.LVL1:
 621:Middlewares/Third_Party/RealThread_RTOS/src/kservice.c ****     const char *digits;
  53              		.loc 1 621 5 view .LVU5
 622:Middlewares/Third_Party/RealThread_RTOS/src/kservice.c ****     static const char small_digits[] = "0123456789abcdef";
  54              		.loc 1 622 5 view .LVU6
 623:Middlewares/Third_Party/RealThread_RTOS/src/kservice.c ****     static const char large_digits[] = "0123456789ABCDEF";
  55              		.loc 1 623 5 view .LVU7
 624:Middlewares/Third_Party/RealThread_RTOS/src/kservice.c ****     register int i;
  56              		.loc 1 624 5 view .LVU8
 625:Middlewares/Third_Party/RealThread_RTOS/src/kservice.c ****     register int size;
  57              		.loc 1 625 5 view .LVU9
 626:Middlewares/Third_Party/RealThread_RTOS/src/kservice.c **** 
 627:Middlewares/Third_Party/RealThread_RTOS/src/kservice.c ****     size = s;
  58              		.loc 1 627 5 view .LVU10
ARM GAS  C:\Users\Administrator\AppData\Local\Temp\ccnljQWb.s 			page 13


 628:Middlewares/Third_Party/RealThread_RTOS/src/kservice.c **** 
 629:Middlewares/Third_Party/RealThread_RTOS/src/kservice.c ****     digits = (type & LARGE) ? large_digits : small_digits;
  59              		.loc 1 629 5 view .LVU11
  60              		.loc 1 629 44 is_stmt 0 view .LVU12
  61 000c 15F0400F 		tst	r5, #64
  62 0010 17D0     		beq	.L34
  63 0012 DFF848A1 		ldr	r10, .L46
  64              	.L2:
  65              	.LVL2:
 630:Middlewares/Third_Party/RealThread_RTOS/src/kservice.c ****     if (type & LEFT)
  66              		.loc 1 630 5 is_stmt 1 discriminator 4 view .LVU13
  67              		.loc 1 630 8 is_stmt 0 discriminator 4 view .LVU14
  68 0016 15F0100F 		tst	r5, #16
  69 001a 01D0     		beq	.L3
 631:Middlewares/Third_Party/RealThread_RTOS/src/kservice.c ****         type &= ~ZEROPAD;
  70              		.loc 1 631 9 is_stmt 1 view .LVU15
  71              		.loc 1 631 14 is_stmt 0 view .LVU16
  72 001c 25F00105 		bic	r5, r5, #1
  73              	.LVL3:
  74              	.L3:
 632:Middlewares/Third_Party/RealThread_RTOS/src/kservice.c **** 
 633:Middlewares/Third_Party/RealThread_RTOS/src/kservice.c ****     c = (type & ZEROPAD) ? '0' : ' ';
  75              		.loc 1 633 5 is_stmt 1 view .LVU17
  76              		.loc 1 633 7 is_stmt 0 view .LVU18
  77 0020 15F0010F 		tst	r5, #1
  78 0024 10D0     		beq	.L35
  79 0026 3026     		movs	r6, #48
  80              	.L4:
  81              	.LVL4:
 634:Middlewares/Third_Party/RealThread_RTOS/src/kservice.c **** 
 635:Middlewares/Third_Party/RealThread_RTOS/src/kservice.c ****     /* get sign */
 636:Middlewares/Third_Party/RealThread_RTOS/src/kservice.c ****     sign = 0;
  82              		.loc 1 636 5 is_stmt 1 discriminator 4 view .LVU19
 637:Middlewares/Third_Party/RealThread_RTOS/src/kservice.c ****     if (type & SIGN)
  83              		.loc 1 637 5 discriminator 4 view .LVU20
  84              		.loc 1 637 8 is_stmt 0 discriminator 4 view .LVU21
  85 0028 15F0020F 		tst	r5, #2
  86 002c 11D0     		beq	.L36
 638:Middlewares/Third_Party/RealThread_RTOS/src/kservice.c ****     {
 639:Middlewares/Third_Party/RealThread_RTOS/src/kservice.c ****         if (num < 0)
  87              		.loc 1 639 9 is_stmt 1 view .LVU22
  88              		.loc 1 639 12 is_stmt 0 view .LVU23
  89 002e 002A     		cmp	r2, #0
  90 0030 0CDB     		blt	.L42
 640:Middlewares/Third_Party/RealThread_RTOS/src/kservice.c ****         {
 641:Middlewares/Third_Party/RealThread_RTOS/src/kservice.c ****             sign = '-';
 642:Middlewares/Third_Party/RealThread_RTOS/src/kservice.c ****             num = -num;
 643:Middlewares/Third_Party/RealThread_RTOS/src/kservice.c ****         }
 644:Middlewares/Third_Party/RealThread_RTOS/src/kservice.c ****         else if (type & PLUS)
  91              		.loc 1 644 14 is_stmt 1 view .LVU24
  92              		.loc 1 644 17 is_stmt 0 view .LVU25
  93 0032 15F0040F 		tst	r5, #4
  94 0036 21D1     		bne	.L37
 645:Middlewares/Third_Party/RealThread_RTOS/src/kservice.c ****             sign = '+';
 646:Middlewares/Third_Party/RealThread_RTOS/src/kservice.c ****         else if (type & SPACE)
  95              		.loc 1 646 14 is_stmt 1 view .LVU26
  96              		.loc 1 646 17 is_stmt 0 view .LVU27
ARM GAS  C:\Users\Administrator\AppData\Local\Temp\ccnljQWb.s 			page 14


  97 0038 15F0080F 		tst	r5, #8
  98 003c 20D1     		bne	.L38
 636:Middlewares/Third_Party/RealThread_RTOS/src/kservice.c ****     if (type & SIGN)
  99              		.loc 1 636 10 view .LVU28
 100 003e 0027     		movs	r7, #0
 101 0040 08E0     		b	.L5
 102              	.LVL5:
 103              	.L34:
 629:Middlewares/Third_Party/RealThread_RTOS/src/kservice.c ****     if (type & LEFT)
 104              		.loc 1 629 44 view .LVU29
 105 0042 DFF81CA1 		ldr	r10, .L46+4
 106 0046 E6E7     		b	.L2
 107              	.LVL6:
 108              	.L35:
 633:Middlewares/Third_Party/RealThread_RTOS/src/kservice.c **** 
 109              		.loc 1 633 7 view .LVU30
 110 0048 2026     		movs	r6, #32
 111 004a EDE7     		b	.L4
 112              	.LVL7:
 113              	.L42:
 641:Middlewares/Third_Party/RealThread_RTOS/src/kservice.c ****             num = -num;
 114              		.loc 1 641 13 is_stmt 1 view .LVU31
 642:Middlewares/Third_Party/RealThread_RTOS/src/kservice.c ****         }
 115              		.loc 1 642 13 view .LVU32
 642:Middlewares/Third_Party/RealThread_RTOS/src/kservice.c ****         }
 116              		.loc 1 642 19 is_stmt 0 view .LVU33
 117 004c 5242     		rsbs	r2, r2, #0
 118              	.LVL8:
 641:Middlewares/Third_Party/RealThread_RTOS/src/kservice.c ****             num = -num;
 119              		.loc 1 641 18 view .LVU34
 120 004e 2D27     		movs	r7, #45
 121 0050 00E0     		b	.L5
 122              	.LVL9:
 123              	.L36:
 636:Middlewares/Third_Party/RealThread_RTOS/src/kservice.c ****     if (type & SIGN)
 124              		.loc 1 636 10 view .LVU35
 125 0052 0027     		movs	r7, #0
 126              	.LVL10:
 127              	.L5:
 647:Middlewares/Third_Party/RealThread_RTOS/src/kservice.c ****             sign = ' ';
 648:Middlewares/Third_Party/RealThread_RTOS/src/kservice.c ****     }
 649:Middlewares/Third_Party/RealThread_RTOS/src/kservice.c **** 
 650:Middlewares/Third_Party/RealThread_RTOS/src/kservice.c **** #ifdef RT_PRINTF_SPECIAL
 651:Middlewares/Third_Party/RealThread_RTOS/src/kservice.c ****     if (type & SPECIAL)
 652:Middlewares/Third_Party/RealThread_RTOS/src/kservice.c ****     {
 653:Middlewares/Third_Party/RealThread_RTOS/src/kservice.c ****         if (base == 16)
 654:Middlewares/Third_Party/RealThread_RTOS/src/kservice.c ****             size -= 2;
 655:Middlewares/Third_Party/RealThread_RTOS/src/kservice.c ****         else if (base == 8)
 656:Middlewares/Third_Party/RealThread_RTOS/src/kservice.c ****             size--;
 657:Middlewares/Third_Party/RealThread_RTOS/src/kservice.c ****     }
 658:Middlewares/Third_Party/RealThread_RTOS/src/kservice.c **** #endif
 659:Middlewares/Third_Party/RealThread_RTOS/src/kservice.c **** 
 660:Middlewares/Third_Party/RealThread_RTOS/src/kservice.c ****     i = 0;
 128              		.loc 1 660 5 is_stmt 1 view .LVU36
 661:Middlewares/Third_Party/RealThread_RTOS/src/kservice.c ****     if (num == 0)
 129              		.loc 1 661 5 view .LVU37
 130              		.loc 1 661 8 is_stmt 0 view .LVU38
ARM GAS  C:\Users\Administrator\AppData\Local\Temp\ccnljQWb.s 			page 15


 131 0054 8ABB     		cbnz	r2, .L39
 662:Middlewares/Third_Party/RealThread_RTOS/src/kservice.c ****         tmp[i++] = '0';
 132              		.loc 1 662 9 is_stmt 1 view .LVU39
 133              	.LVL11:
 134              		.loc 1 662 18 is_stmt 0 view .LVU40
 135 0056 3023     		movs	r3, #48
 136              	.LVL12:
 137              		.loc 1 662 18 view .LVU41
 138 0058 8DF80030 		strb	r3, [sp]
 139              		.loc 1 662 14 view .LVU42
 140 005c 4FF0010C 		mov	ip, #1
 141              	.LVL13:
 142              	.L8:
 663:Middlewares/Third_Party/RealThread_RTOS/src/kservice.c ****     else
 664:Middlewares/Third_Party/RealThread_RTOS/src/kservice.c ****     {
 665:Middlewares/Third_Party/RealThread_RTOS/src/kservice.c ****         while (num != 0)
 666:Middlewares/Third_Party/RealThread_RTOS/src/kservice.c ****             tmp[i++] = digits[divide(&num, base)];
 667:Middlewares/Third_Party/RealThread_RTOS/src/kservice.c ****     }
 668:Middlewares/Third_Party/RealThread_RTOS/src/kservice.c **** 
 669:Middlewares/Third_Party/RealThread_RTOS/src/kservice.c **** #ifdef RT_PRINTF_PRECISION
 670:Middlewares/Third_Party/RealThread_RTOS/src/kservice.c ****     if (i > precision)
 143              		.loc 1 670 5 is_stmt 1 view .LVU43
 144              		.loc 1 670 8 is_stmt 0 view .LVU44
 145 0060 A445     		cmp	ip, r4
 146 0062 2DDC     		bgt	.L40
 147 0064 2246     		mov	r2, r4
 148              	.LVL14:
 149              	.L12:
 671:Middlewares/Third_Party/RealThread_RTOS/src/kservice.c ****         precision = i;
 672:Middlewares/Third_Party/RealThread_RTOS/src/kservice.c ****     size -= precision;
 150              		.loc 1 672 5 is_stmt 1 view .LVU45
 151              		.loc 1 672 10 is_stmt 0 view .LVU46
 152 0066 0C9B     		ldr	r3, [sp, #48]
 153 0068 9B1A     		subs	r3, r3, r2
 154              	.LVL15:
 673:Middlewares/Third_Party/RealThread_RTOS/src/kservice.c **** #else
 674:Middlewares/Third_Party/RealThread_RTOS/src/kservice.c ****     size -= i;
 675:Middlewares/Third_Party/RealThread_RTOS/src/kservice.c **** #endif
 676:Middlewares/Third_Party/RealThread_RTOS/src/kservice.c **** 
 677:Middlewares/Third_Party/RealThread_RTOS/src/kservice.c ****     if (!(type & (ZEROPAD | LEFT)))
 155              		.loc 1 677 5 is_stmt 1 view .LVU47
 156              		.loc 1 677 8 is_stmt 0 view .LVU48
 157 006a 15F0110F 		tst	r5, #17
 158 006e 37D1     		bne	.L13
 678:Middlewares/Third_Party/RealThread_RTOS/src/kservice.c ****     {
 679:Middlewares/Third_Party/RealThread_RTOS/src/kservice.c ****         if ((sign) && (size > 0))
 159              		.loc 1 679 9 is_stmt 1 view .LVU49
 160              		.loc 1 679 12 is_stmt 0 view .LVU50
 161 0070 17B1     		cbz	r7, .L14
 162              		.loc 1 679 20 discriminator 1 view .LVU51
 163 0072 002B     		cmp	r3, #0
 164 0074 00DD     		ble	.L14
 680:Middlewares/Third_Party/RealThread_RTOS/src/kservice.c ****             size--;
 165              		.loc 1 680 13 is_stmt 1 view .LVU52
 166              		.loc 1 680 17 is_stmt 0 view .LVU53
 167 0076 013B     		subs	r3, r3, #1
 168              	.LVL16:
ARM GAS  C:\Users\Administrator\AppData\Local\Temp\ccnljQWb.s 			page 16


 169              	.L14:
 670:Middlewares/Third_Party/RealThread_RTOS/src/kservice.c ****         precision = i;
 170              		.loc 1 670 8 view .LVU54
 171 0078 9E46     		mov	lr, r3
 172 007a 25E0     		b	.L16
 173              	.LVL17:
 174              	.L37:
 645:Middlewares/Third_Party/RealThread_RTOS/src/kservice.c ****         else if (type & SPACE)
 175              		.loc 1 645 18 view .LVU55
 176 007c 2B27     		movs	r7, #43
 177 007e E9E7     		b	.L5
 178              	.L38:
 647:Middlewares/Third_Party/RealThread_RTOS/src/kservice.c ****     }
 179              		.loc 1 647 18 view .LVU56
 180 0080 2027     		movs	r7, #32
 181 0082 E7E7     		b	.L5
 182              	.LVL18:
 183              	.L43:
 184              	.LBB4:
 185              	.LBB5:
 559:Middlewares/Third_Party/RealThread_RTOS/src/kservice.c ****         *n = (long)(((unsigned long)*n) / 10U);
 186              		.loc 1 559 9 is_stmt 1 view .LVU57
 559:Middlewares/Third_Party/RealThread_RTOS/src/kservice.c ****         *n = (long)(((unsigned long)*n) / 10U);
 187              		.loc 1 559 41 is_stmt 0 view .LVU58
 188 0084 374B     		ldr	r3, .L46+8
 189 0086 A3FB023E 		umull	r3, lr, r3, r2
 190 008a 4FEADE0E 		lsr	lr, lr, #3
 191 008e 0EEB8E08 		add	r8, lr, lr, lsl #2
 192 0092 A2EB4808 		sub	r8, r2, r8, lsl #1
 193              	.LVL19:
 560:Middlewares/Third_Party/RealThread_RTOS/src/kservice.c ****     }
 194              		.loc 1 560 9 is_stmt 1 view .LVU59
 560:Middlewares/Third_Party/RealThread_RTOS/src/kservice.c ****     }
 195              		.loc 1 560 14 is_stmt 0 view .LVU60
 196 0096 7246     		mov	r2, lr
 197              	.LVL20:
 198              	.L10:
 568:Middlewares/Third_Party/RealThread_RTOS/src/kservice.c **** }
 199              		.loc 1 568 5 is_stmt 1 view .LVU61
 568:Middlewares/Third_Party/RealThread_RTOS/src/kservice.c **** }
 200              		.loc 1 568 5 is_stmt 0 view .LVU62
 201              	.LBE5:
 202              	.LBE4:
 666:Middlewares/Third_Party/RealThread_RTOS/src/kservice.c ****     }
 203              		.loc 1 666 30 view .LVU63
 204 0098 1AF808E0 		ldrb	lr, [r10, r8]	@ zero_extendqisi2
 666:Middlewares/Third_Party/RealThread_RTOS/src/kservice.c ****     }
 205              		.loc 1 666 22 view .LVU64
 206 009c 04AB     		add	r3, sp, #16
 207 009e 6344     		add	r3, r3, ip
 208 00a0 03F810EC 		strb	lr, [r3, #-16]
 666:Middlewares/Third_Party/RealThread_RTOS/src/kservice.c ****     }
 209              		.loc 1 666 18 view .LVU65
 210 00a4 0CF1010C 		add	ip, ip, #1
 211              	.LVL21:
 212              	.L7:
 665:Middlewares/Third_Party/RealThread_RTOS/src/kservice.c ****             tmp[i++] = digits[divide(&num, base)];
ARM GAS  C:\Users\Administrator\AppData\Local\Temp\ccnljQWb.s 			page 17


 213              		.loc 1 665 15 is_stmt 1 view .LVU66
 214 00a8 002A     		cmp	r2, #0
 215 00aa D9D0     		beq	.L8
 666:Middlewares/Third_Party/RealThread_RTOS/src/kservice.c ****     }
 216              		.loc 1 666 13 view .LVU67
 217              	.LVL22:
 218              	.LBB7:
 219              	.LBI4:
 552:Middlewares/Third_Party/RealThread_RTOS/src/kservice.c **** {
 220              		.loc 1 552 15 view .LVU68
 221              	.LBB6:
 554:Middlewares/Third_Party/RealThread_RTOS/src/kservice.c **** 
 222              		.loc 1 554 5 view .LVU69
 557:Middlewares/Third_Party/RealThread_RTOS/src/kservice.c ****     {
 223              		.loc 1 557 5 view .LVU70
 557:Middlewares/Third_Party/RealThread_RTOS/src/kservice.c ****     {
 224              		.loc 1 557 8 is_stmt 0 view .LVU71
 225 00ac B9F10A0F 		cmp	r9, #10
 226 00b0 E8D0     		beq	.L43
 564:Middlewares/Third_Party/RealThread_RTOS/src/kservice.c ****         *n = (long)(((unsigned long)*n) / 16U);
 227              		.loc 1 564 9 is_stmt 1 view .LVU72
 564:Middlewares/Third_Party/RealThread_RTOS/src/kservice.c ****         *n = (long)(((unsigned long)*n) / 16U);
 228              		.loc 1 564 13 is_stmt 0 view .LVU73
 229 00b2 02F00F08 		and	r8, r2, #15
 230              	.LVL23:
 565:Middlewares/Third_Party/RealThread_RTOS/src/kservice.c ****     }
 231              		.loc 1 565 9 is_stmt 1 view .LVU74
 565:Middlewares/Third_Party/RealThread_RTOS/src/kservice.c ****     }
 232              		.loc 1 565 41 is_stmt 0 view .LVU75
 233 00b6 1209     		lsrs	r2, r2, #4
 234              	.LVL24:
 565:Middlewares/Third_Party/RealThread_RTOS/src/kservice.c ****     }
 235              		.loc 1 565 41 view .LVU76
 236 00b8 EEE7     		b	.L10
 237              	.LVL25:
 238              	.L39:
 565:Middlewares/Third_Party/RealThread_RTOS/src/kservice.c ****     }
 239              		.loc 1 565 41 view .LVU77
 240              	.LBE6:
 241              	.LBE7:
 660:Middlewares/Third_Party/RealThread_RTOS/src/kservice.c ****     if (num == 0)
 242              		.loc 1 660 7 view .LVU78
 243 00ba 4FF0000C 		mov	ip, #0
 244 00be F3E7     		b	.L7
 245              	.LVL26:
 246              	.L40:
 671:Middlewares/Third_Party/RealThread_RTOS/src/kservice.c ****     size -= precision;
 247              		.loc 1 671 19 view .LVU79
 248 00c0 6246     		mov	r2, ip
 249              	.LVL27:
 671:Middlewares/Third_Party/RealThread_RTOS/src/kservice.c ****     size -= precision;
 250              		.loc 1 671 19 view .LVU80
 251 00c2 D0E7     		b	.L12
 252              	.LVL28:
 253              	.L15:
 681:Middlewares/Third_Party/RealThread_RTOS/src/kservice.c **** 
 682:Middlewares/Third_Party/RealThread_RTOS/src/kservice.c ****         while (size-- > 0)
ARM GAS  C:\Users\Administrator\AppData\Local\Temp\ccnljQWb.s 			page 18


 683:Middlewares/Third_Party/RealThread_RTOS/src/kservice.c ****         {
 684:Middlewares/Third_Party/RealThread_RTOS/src/kservice.c ****             if (buf < end)
 685:Middlewares/Third_Party/RealThread_RTOS/src/kservice.c ****                 *buf = ' ';
 686:Middlewares/Third_Party/RealThread_RTOS/src/kservice.c ****             ++ buf;
 254              		.loc 1 686 13 is_stmt 1 view .LVU81
 255 00c4 0130     		adds	r0, r0, #1
 256              	.LVL29:
 682:Middlewares/Third_Party/RealThread_RTOS/src/kservice.c ****         {
 257              		.loc 1 682 20 is_stmt 0 view .LVU82
 258 00c6 9E46     		mov	lr, r3
 259              	.L16:
 682:Middlewares/Third_Party/RealThread_RTOS/src/kservice.c ****         {
 260              		.loc 1 682 15 is_stmt 1 view .LVU83
 682:Middlewares/Third_Party/RealThread_RTOS/src/kservice.c ****         {
 261              		.loc 1 682 20 is_stmt 0 view .LVU84
 262 00c8 0EF1FF33 		add	r3, lr, #-1
 263              	.LVL30:
 682:Middlewares/Third_Party/RealThread_RTOS/src/kservice.c ****         {
 264              		.loc 1 682 15 view .LVU85
 265 00cc BEF1000F 		cmp	lr, #0
 266 00d0 06DD     		ble	.L13
 684:Middlewares/Third_Party/RealThread_RTOS/src/kservice.c ****                 *buf = ' ';
 267              		.loc 1 684 13 is_stmt 1 view .LVU86
 684:Middlewares/Third_Party/RealThread_RTOS/src/kservice.c ****                 *buf = ' ';
 268              		.loc 1 684 16 is_stmt 0 view .LVU87
 269 00d2 8842     		cmp	r0, r1
 270 00d4 F6D2     		bcs	.L15
 685:Middlewares/Third_Party/RealThread_RTOS/src/kservice.c ****             ++ buf;
 271              		.loc 1 685 17 is_stmt 1 view .LVU88
 685:Middlewares/Third_Party/RealThread_RTOS/src/kservice.c ****             ++ buf;
 272              		.loc 1 685 22 is_stmt 0 view .LVU89
 273 00d6 4FF0200E 		mov	lr, #32
 274 00da 80F800E0 		strb	lr, [r0]
 275 00de F1E7     		b	.L15
 276              	.L13:
 687:Middlewares/Third_Party/RealThread_RTOS/src/kservice.c ****         }
 688:Middlewares/Third_Party/RealThread_RTOS/src/kservice.c ****     }
 689:Middlewares/Third_Party/RealThread_RTOS/src/kservice.c **** 
 690:Middlewares/Third_Party/RealThread_RTOS/src/kservice.c ****     if (sign)
 277              		.loc 1 690 5 is_stmt 1 view .LVU90
 278              		.loc 1 690 8 is_stmt 0 view .LVU91
 279 00e0 27B1     		cbz	r7, .L18
 691:Middlewares/Third_Party/RealThread_RTOS/src/kservice.c ****     {
 692:Middlewares/Third_Party/RealThread_RTOS/src/kservice.c ****         if (buf < end)
 280              		.loc 1 692 9 is_stmt 1 view .LVU92
 281              		.loc 1 692 12 is_stmt 0 view .LVU93
 282 00e2 8842     		cmp	r0, r1
 283 00e4 00D2     		bcs	.L19
 693:Middlewares/Third_Party/RealThread_RTOS/src/kservice.c ****         {
 694:Middlewares/Third_Party/RealThread_RTOS/src/kservice.c ****             *buf = sign;
 284              		.loc 1 694 13 is_stmt 1 view .LVU94
 285              		.loc 1 694 18 is_stmt 0 view .LVU95
 286 00e6 0770     		strb	r7, [r0]
 287              	.L19:
 695:Middlewares/Third_Party/RealThread_RTOS/src/kservice.c ****         }
 696:Middlewares/Third_Party/RealThread_RTOS/src/kservice.c ****         -- size;
 288              		.loc 1 696 9 is_stmt 1 view .LVU96
ARM GAS  C:\Users\Administrator\AppData\Local\Temp\ccnljQWb.s 			page 19


 289 00e8 013B     		subs	r3, r3, #1
 290              	.LVL31:
 697:Middlewares/Third_Party/RealThread_RTOS/src/kservice.c ****         ++ buf;
 291              		.loc 1 697 9 view .LVU97
 292 00ea 0130     		adds	r0, r0, #1
 293              	.LVL32:
 294              	.L18:
 698:Middlewares/Third_Party/RealThread_RTOS/src/kservice.c ****     }
 699:Middlewares/Third_Party/RealThread_RTOS/src/kservice.c **** 
 700:Middlewares/Third_Party/RealThread_RTOS/src/kservice.c **** #ifdef RT_PRINTF_SPECIAL
 701:Middlewares/Third_Party/RealThread_RTOS/src/kservice.c ****     if (type & SPECIAL)
 702:Middlewares/Third_Party/RealThread_RTOS/src/kservice.c ****     {
 703:Middlewares/Third_Party/RealThread_RTOS/src/kservice.c ****         if (base == 8)
 704:Middlewares/Third_Party/RealThread_RTOS/src/kservice.c ****         {
 705:Middlewares/Third_Party/RealThread_RTOS/src/kservice.c ****             if (buf < end)
 706:Middlewares/Third_Party/RealThread_RTOS/src/kservice.c ****                 *buf = '0';
 707:Middlewares/Third_Party/RealThread_RTOS/src/kservice.c ****             ++ buf;
 708:Middlewares/Third_Party/RealThread_RTOS/src/kservice.c ****         }
 709:Middlewares/Third_Party/RealThread_RTOS/src/kservice.c ****         else if (base == 16)
 710:Middlewares/Third_Party/RealThread_RTOS/src/kservice.c ****         {
 711:Middlewares/Third_Party/RealThread_RTOS/src/kservice.c ****             if (buf < end)
 712:Middlewares/Third_Party/RealThread_RTOS/src/kservice.c ****                 *buf = '0';
 713:Middlewares/Third_Party/RealThread_RTOS/src/kservice.c ****             ++ buf;
 714:Middlewares/Third_Party/RealThread_RTOS/src/kservice.c ****             if (buf < end)
 715:Middlewares/Third_Party/RealThread_RTOS/src/kservice.c ****             {
 716:Middlewares/Third_Party/RealThread_RTOS/src/kservice.c ****                 *buf = type & LARGE ? 'X' : 'x';
 717:Middlewares/Third_Party/RealThread_RTOS/src/kservice.c ****             }
 718:Middlewares/Third_Party/RealThread_RTOS/src/kservice.c ****             ++ buf;
 719:Middlewares/Third_Party/RealThread_RTOS/src/kservice.c ****         }
 720:Middlewares/Third_Party/RealThread_RTOS/src/kservice.c ****     }
 721:Middlewares/Third_Party/RealThread_RTOS/src/kservice.c **** #endif
 722:Middlewares/Third_Party/RealThread_RTOS/src/kservice.c **** 
 723:Middlewares/Third_Party/RealThread_RTOS/src/kservice.c ****     /* no align to the left */
 724:Middlewares/Third_Party/RealThread_RTOS/src/kservice.c ****     if (!(type & LEFT))
 295              		.loc 1 724 5 view .LVU98
 296              		.loc 1 724 8 is_stmt 0 view .LVU99
 297 00ec 15F0100F 		tst	r5, #16
 298 00f0 02D0     		beq	.L20
 299              		.loc 1 724 8 view .LVU100
 300 00f2 0CE0     		b	.L25
 301              	.LVL33:
 302              	.L22:
 725:Middlewares/Third_Party/RealThread_RTOS/src/kservice.c ****     {
 726:Middlewares/Third_Party/RealThread_RTOS/src/kservice.c ****         while (size-- > 0)
 727:Middlewares/Third_Party/RealThread_RTOS/src/kservice.c ****         {
 728:Middlewares/Third_Party/RealThread_RTOS/src/kservice.c ****             if (buf < end)
 729:Middlewares/Third_Party/RealThread_RTOS/src/kservice.c ****                 *buf = c;
 730:Middlewares/Third_Party/RealThread_RTOS/src/kservice.c ****             ++ buf;
 303              		.loc 1 730 13 is_stmt 1 view .LVU101
 304 00f4 0130     		adds	r0, r0, #1
 305              	.LVL34:
 726:Middlewares/Third_Party/RealThread_RTOS/src/kservice.c ****         {
 306              		.loc 1 726 20 is_stmt 0 view .LVU102
 307 00f6 2B46     		mov	r3, r5
 308              	.LVL35:
 309              	.L20:
 726:Middlewares/Third_Party/RealThread_RTOS/src/kservice.c ****         {
ARM GAS  C:\Users\Administrator\AppData\Local\Temp\ccnljQWb.s 			page 20


 310              		.loc 1 726 15 is_stmt 1 view .LVU103
 726:Middlewares/Third_Party/RealThread_RTOS/src/kservice.c ****         {
 311              		.loc 1 726 20 is_stmt 0 view .LVU104
 312 00f8 5D1E     		subs	r5, r3, #1
 313              	.LVL36:
 726:Middlewares/Third_Party/RealThread_RTOS/src/kservice.c ****         {
 314              		.loc 1 726 15 view .LVU105
 315 00fa 002B     		cmp	r3, #0
 316 00fc 03DD     		ble	.L44
 728:Middlewares/Third_Party/RealThread_RTOS/src/kservice.c ****                 *buf = c;
 317              		.loc 1 728 13 is_stmt 1 view .LVU106
 728:Middlewares/Third_Party/RealThread_RTOS/src/kservice.c ****                 *buf = c;
 318              		.loc 1 728 16 is_stmt 0 view .LVU107
 319 00fe 8842     		cmp	r0, r1
 320 0100 F8D2     		bcs	.L22
 729:Middlewares/Third_Party/RealThread_RTOS/src/kservice.c ****             ++ buf;
 321              		.loc 1 729 17 is_stmt 1 view .LVU108
 729:Middlewares/Third_Party/RealThread_RTOS/src/kservice.c ****             ++ buf;
 322              		.loc 1 729 22 is_stmt 0 view .LVU109
 323 0102 0670     		strb	r6, [r0]
 324 0104 F6E7     		b	.L22
 325              	.L44:
 726:Middlewares/Third_Party/RealThread_RTOS/src/kservice.c ****         {
 326              		.loc 1 726 20 view .LVU110
 327 0106 2B46     		mov	r3, r5
 328 0108 01E0     		b	.L25
 329              	.LVL37:
 330              	.L24:
 731:Middlewares/Third_Party/RealThread_RTOS/src/kservice.c ****         }
 732:Middlewares/Third_Party/RealThread_RTOS/src/kservice.c ****     }
 733:Middlewares/Third_Party/RealThread_RTOS/src/kservice.c **** 
 734:Middlewares/Third_Party/RealThread_RTOS/src/kservice.c **** #ifdef RT_PRINTF_PRECISION
 735:Middlewares/Third_Party/RealThread_RTOS/src/kservice.c ****     while (i < precision--)
 736:Middlewares/Third_Party/RealThread_RTOS/src/kservice.c ****     {
 737:Middlewares/Third_Party/RealThread_RTOS/src/kservice.c ****         if (buf < end)
 738:Middlewares/Third_Party/RealThread_RTOS/src/kservice.c ****             *buf = '0';
 739:Middlewares/Third_Party/RealThread_RTOS/src/kservice.c ****         ++ buf;
 331              		.loc 1 739 9 is_stmt 1 view .LVU111
 332 010a 0130     		adds	r0, r0, #1
 333              	.LVL38:
 735:Middlewares/Third_Party/RealThread_RTOS/src/kservice.c ****     {
 334              		.loc 1 735 25 is_stmt 0 view .LVU112
 335 010c 7246     		mov	r2, lr
 336              	.LVL39:
 337              	.L25:
 735:Middlewares/Third_Party/RealThread_RTOS/src/kservice.c ****     {
 338              		.loc 1 735 11 is_stmt 1 view .LVU113
 735:Middlewares/Third_Party/RealThread_RTOS/src/kservice.c ****     {
 339              		.loc 1 735 25 is_stmt 0 view .LVU114
 340 010e 02F1FF3E 		add	lr, r2, #-1
 341              	.LVL40:
 735:Middlewares/Third_Party/RealThread_RTOS/src/kservice.c ****     {
 342              		.loc 1 735 11 view .LVU115
 343 0112 6245     		cmp	r2, ip
 344 0114 06DD     		ble	.L27
 737:Middlewares/Third_Party/RealThread_RTOS/src/kservice.c ****             *buf = '0';
 345              		.loc 1 737 9 is_stmt 1 view .LVU116
ARM GAS  C:\Users\Administrator\AppData\Local\Temp\ccnljQWb.s 			page 21


 737:Middlewares/Third_Party/RealThread_RTOS/src/kservice.c ****             *buf = '0';
 346              		.loc 1 737 12 is_stmt 0 view .LVU117
 347 0116 8842     		cmp	r0, r1
 348 0118 F7D2     		bcs	.L24
 738:Middlewares/Third_Party/RealThread_RTOS/src/kservice.c ****         ++ buf;
 349              		.loc 1 738 13 is_stmt 1 view .LVU118
 738:Middlewares/Third_Party/RealThread_RTOS/src/kservice.c ****         ++ buf;
 350              		.loc 1 738 18 is_stmt 0 view .LVU119
 351 011a 3022     		movs	r2, #48
 352 011c 0270     		strb	r2, [r0]
 353 011e F4E7     		b	.L24
 354              	.LVL41:
 355              	.L28:
 740:Middlewares/Third_Party/RealThread_RTOS/src/kservice.c ****     }
 741:Middlewares/Third_Party/RealThread_RTOS/src/kservice.c **** #endif
 742:Middlewares/Third_Party/RealThread_RTOS/src/kservice.c **** 
 743:Middlewares/Third_Party/RealThread_RTOS/src/kservice.c ****     /* put number in the temporary buffer */
 744:Middlewares/Third_Party/RealThread_RTOS/src/kservice.c ****     while (i-- > 0 && (precision_bak != 0))
 745:Middlewares/Third_Party/RealThread_RTOS/src/kservice.c ****     {
 746:Middlewares/Third_Party/RealThread_RTOS/src/kservice.c ****         if (buf < end)
 747:Middlewares/Third_Party/RealThread_RTOS/src/kservice.c ****             *buf = tmp[i];
 748:Middlewares/Third_Party/RealThread_RTOS/src/kservice.c ****         ++ buf;
 356              		.loc 1 748 9 is_stmt 1 view .LVU120
 357 0120 0130     		adds	r0, r0, #1
 358              	.LVL42:
 744:Middlewares/Third_Party/RealThread_RTOS/src/kservice.c ****     {
 359              		.loc 1 744 13 is_stmt 0 view .LVU121
 360 0122 9446     		mov	ip, r2
 361              	.LVL43:
 362              	.L27:
 744:Middlewares/Third_Party/RealThread_RTOS/src/kservice.c ****     {
 363              		.loc 1 744 11 is_stmt 1 view .LVU122
 744:Middlewares/Third_Party/RealThread_RTOS/src/kservice.c ****     {
 364              		.loc 1 744 13 is_stmt 0 view .LVU123
 365 0124 0CF1FF32 		add	r2, ip, #-1
 366              	.LVL44:
 744:Middlewares/Third_Party/RealThread_RTOS/src/kservice.c ****     {
 367              		.loc 1 744 11 view .LVU124
 368 0128 BCF1000F 		cmp	ip, #0
 369 012c 0ADD     		ble	.L32
 744:Middlewares/Third_Party/RealThread_RTOS/src/kservice.c ****     {
 370              		.loc 1 744 20 discriminator 1 view .LVU125
 371 012e 4CB1     		cbz	r4, .L32
 746:Middlewares/Third_Party/RealThread_RTOS/src/kservice.c ****             *buf = tmp[i];
 372              		.loc 1 746 9 is_stmt 1 view .LVU126
 746:Middlewares/Third_Party/RealThread_RTOS/src/kservice.c ****             *buf = tmp[i];
 373              		.loc 1 746 12 is_stmt 0 view .LVU127
 374 0130 8842     		cmp	r0, r1
 375 0132 F5D2     		bcs	.L28
 747:Middlewares/Third_Party/RealThread_RTOS/src/kservice.c ****         ++ buf;
 376              		.loc 1 747 13 is_stmt 1 view .LVU128
 747:Middlewares/Third_Party/RealThread_RTOS/src/kservice.c ****         ++ buf;
 377              		.loc 1 747 23 is_stmt 0 view .LVU129
 378 0134 04AD     		add	r5, sp, #16
 379 0136 1544     		add	r5, r5, r2
 380 0138 15F8105C 		ldrb	r5, [r5, #-16]	@ zero_extendqisi2
 747:Middlewares/Third_Party/RealThread_RTOS/src/kservice.c ****         ++ buf;
ARM GAS  C:\Users\Administrator\AppData\Local\Temp\ccnljQWb.s 			page 22


 381              		.loc 1 747 18 view .LVU130
 382 013c 0570     		strb	r5, [r0]
 383 013e EFE7     		b	.L28
 384              	.LVL45:
 385              	.L31:
 749:Middlewares/Third_Party/RealThread_RTOS/src/kservice.c ****     }
 750:Middlewares/Third_Party/RealThread_RTOS/src/kservice.c **** 
 751:Middlewares/Third_Party/RealThread_RTOS/src/kservice.c ****     while (size-- > 0)
 752:Middlewares/Third_Party/RealThread_RTOS/src/kservice.c ****     {
 753:Middlewares/Third_Party/RealThread_RTOS/src/kservice.c ****         if (buf < end)
 754:Middlewares/Third_Party/RealThread_RTOS/src/kservice.c ****             *buf = ' ';
 755:Middlewares/Third_Party/RealThread_RTOS/src/kservice.c ****         ++ buf;
 386              		.loc 1 755 9 is_stmt 1 view .LVU131
 387 0140 0130     		adds	r0, r0, #1
 388              	.LVL46:
 751:Middlewares/Third_Party/RealThread_RTOS/src/kservice.c ****     {
 389              		.loc 1 751 16 is_stmt 0 view .LVU132
 390 0142 1346     		mov	r3, r2
 391              	.LVL47:
 392              	.L32:
 751:Middlewares/Third_Party/RealThread_RTOS/src/kservice.c ****     {
 393              		.loc 1 751 11 is_stmt 1 view .LVU133
 751:Middlewares/Third_Party/RealThread_RTOS/src/kservice.c ****     {
 394              		.loc 1 751 16 is_stmt 0 view .LVU134
 395 0144 5A1E     		subs	r2, r3, #1
 396              	.LVL48:
 751:Middlewares/Third_Party/RealThread_RTOS/src/kservice.c ****     {
 397              		.loc 1 751 11 view .LVU135
 398 0146 002B     		cmp	r3, #0
 399 0148 04DD     		ble	.L45
 753:Middlewares/Third_Party/RealThread_RTOS/src/kservice.c ****             *buf = ' ';
 400              		.loc 1 753 9 is_stmt 1 view .LVU136
 753:Middlewares/Third_Party/RealThread_RTOS/src/kservice.c ****             *buf = ' ';
 401              		.loc 1 753 12 is_stmt 0 view .LVU137
 402 014a 8842     		cmp	r0, r1
 403 014c F8D2     		bcs	.L31
 754:Middlewares/Third_Party/RealThread_RTOS/src/kservice.c ****         ++ buf;
 404              		.loc 1 754 13 is_stmt 1 view .LVU138
 754:Middlewares/Third_Party/RealThread_RTOS/src/kservice.c ****         ++ buf;
 405              		.loc 1 754 18 is_stmt 0 view .LVU139
 406 014e 2023     		movs	r3, #32
 407 0150 0370     		strb	r3, [r0]
 408 0152 F5E7     		b	.L31
 409              	.L45:
 756:Middlewares/Third_Party/RealThread_RTOS/src/kservice.c ****     }
 757:Middlewares/Third_Party/RealThread_RTOS/src/kservice.c **** 
 758:Middlewares/Third_Party/RealThread_RTOS/src/kservice.c ****     return buf;
 410              		.loc 1 758 5 is_stmt 1 view .LVU140
 759:Middlewares/Third_Party/RealThread_RTOS/src/kservice.c **** }
 411              		.loc 1 759 1 is_stmt 0 view .LVU141
 412 0154 04B0     		add	sp, sp, #16
 413              	.LCFI2:
 414              		.cfi_def_cfa_offset 32
 415              		@ sp needed
 416 0156 BDE8F087 		pop	{r4, r5, r6, r7, r8, r9, r10, pc}
 417              	.LVL49:
 418              	.L47:
ARM GAS  C:\Users\Administrator\AppData\Local\Temp\ccnljQWb.s 			page 23


 419              		.loc 1 759 1 view .LVU142
 420 015a 00BF     		.align	2
 421              	.L46:
 422 015c 00000000 		.word	.LANCHOR1
 423 0160 00000000 		.word	.LANCHOR0
 424 0164 CDCCCCCC 		.word	-858993459
 425              		.cfi_endproc
 426              	.LFE33:
 428              		.section	.text.rt_get_errno,"ax",%progbits
 429              		.align	1
 430              		.global	rt_get_errno
 431              		.syntax unified
 432              		.thumb
 433              		.thumb_func
 434              		.fpu softvfp
 436              	rt_get_errno:
 437              	.LFB15:
  47:Middlewares/Third_Party/RealThread_RTOS/src/kservice.c ****     rt_thread_t tid;
 438              		.loc 1 47 1 is_stmt 1 view -0
 439              		.cfi_startproc
 440              		@ args = 0, pretend = 0, frame = 0
 441              		@ frame_needed = 0, uses_anonymous_args = 0
 442 0000 08B5     		push	{r3, lr}
 443              	.LCFI3:
 444              		.cfi_def_cfa_offset 8
 445              		.cfi_offset 3, -8
 446              		.cfi_offset 14, -4
  48:Middlewares/Third_Party/RealThread_RTOS/src/kservice.c **** 
 447              		.loc 1 48 5 view .LVU144
  50:Middlewares/Third_Party/RealThread_RTOS/src/kservice.c ****     {
 448              		.loc 1 50 5 view .LVU145
  50:Middlewares/Third_Party/RealThread_RTOS/src/kservice.c ****     {
 449              		.loc 1 50 9 is_stmt 0 view .LVU146
 450 0002 FFF7FEFF 		bl	rt_interrupt_get_nest
 451              	.LVL50:
  50:Middlewares/Third_Party/RealThread_RTOS/src/kservice.c ****     {
 452              		.loc 1 50 8 view .LVU147
 453 0006 10B1     		cbz	r0, .L49
  53:Middlewares/Third_Party/RealThread_RTOS/src/kservice.c ****     }
 454              		.loc 1 53 9 is_stmt 1 view .LVU148
  53:Middlewares/Third_Party/RealThread_RTOS/src/kservice.c ****     }
 455              		.loc 1 53 16 is_stmt 0 view .LVU149
 456 0008 054B     		ldr	r3, .L54
 457 000a 1868     		ldr	r0, [r3]
 458              	.L48:
  61:Middlewares/Third_Party/RealThread_RTOS/src/kservice.c **** 
 459              		.loc 1 61 1 view .LVU150
 460 000c 08BD     		pop	{r3, pc}
 461              	.L49:
  56:Middlewares/Third_Party/RealThread_RTOS/src/kservice.c ****     if (tid == RT_NULL)
 462              		.loc 1 56 5 is_stmt 1 view .LVU151
  56:Middlewares/Third_Party/RealThread_RTOS/src/kservice.c ****     if (tid == RT_NULL)
 463              		.loc 1 56 11 is_stmt 0 view .LVU152
 464 000e FFF7FEFF 		bl	rt_thread_self
 465              	.LVL51:
  57:Middlewares/Third_Party/RealThread_RTOS/src/kservice.c ****         return __rt_errno;
 466              		.loc 1 57 5 is_stmt 1 view .LVU153
ARM GAS  C:\Users\Administrator\AppData\Local\Temp\ccnljQWb.s 			page 24


  57:Middlewares/Third_Party/RealThread_RTOS/src/kservice.c ****         return __rt_errno;
 467              		.loc 1 57 8 is_stmt 0 view .LVU154
 468 0012 08B1     		cbz	r0, .L53
  60:Middlewares/Third_Party/RealThread_RTOS/src/kservice.c **** }
 469              		.loc 1 60 5 is_stmt 1 view .LVU155
  60:Middlewares/Third_Party/RealThread_RTOS/src/kservice.c **** }
 470              		.loc 1 60 15 is_stmt 0 view .LVU156
 471 0014 006B     		ldr	r0, [r0, #48]
 472              	.LVL52:
  60:Middlewares/Third_Party/RealThread_RTOS/src/kservice.c **** }
 473              		.loc 1 60 15 view .LVU157
 474 0016 F9E7     		b	.L48
 475              	.LVL53:
 476              	.L53:
  58:Middlewares/Third_Party/RealThread_RTOS/src/kservice.c **** 
 477              		.loc 1 58 9 is_stmt 1 view .LVU158
  58:Middlewares/Third_Party/RealThread_RTOS/src/kservice.c **** 
 478              		.loc 1 58 16 is_stmt 0 view .LVU159
 479 0018 014B     		ldr	r3, .L54
 480 001a 1868     		ldr	r0, [r3]
 481              	.LVL54:
  58:Middlewares/Third_Party/RealThread_RTOS/src/kservice.c **** 
 482              		.loc 1 58 16 view .LVU160
 483 001c F6E7     		b	.L48
 484              	.L55:
 485 001e 00BF     		.align	2
 486              	.L54:
 487 0020 00000000 		.word	.LANCHOR2
 488              		.cfi_endproc
 489              	.LFE15:
 491              		.section	.text.rt_set_errno,"ax",%progbits
 492              		.align	1
 493              		.global	rt_set_errno
 494              		.syntax unified
 495              		.thumb
 496              		.thumb_func
 497              		.fpu softvfp
 499              	rt_set_errno:
 500              	.LVL55:
 501              	.LFB16:
  69:Middlewares/Third_Party/RealThread_RTOS/src/kservice.c ****     rt_thread_t tid;
 502              		.loc 1 69 1 is_stmt 1 view -0
 503              		.cfi_startproc
 504              		@ args = 0, pretend = 0, frame = 0
 505              		@ frame_needed = 0, uses_anonymous_args = 0
  69:Middlewares/Third_Party/RealThread_RTOS/src/kservice.c ****     rt_thread_t tid;
 506              		.loc 1 69 1 is_stmt 0 view .LVU162
 507 0000 10B5     		push	{r4, lr}
 508              	.LCFI4:
 509              		.cfi_def_cfa_offset 8
 510              		.cfi_offset 4, -8
 511              		.cfi_offset 14, -4
 512 0002 0446     		mov	r4, r0
  70:Middlewares/Third_Party/RealThread_RTOS/src/kservice.c **** 
 513              		.loc 1 70 5 is_stmt 1 view .LVU163
  72:Middlewares/Third_Party/RealThread_RTOS/src/kservice.c ****     {
 514              		.loc 1 72 5 view .LVU164
ARM GAS  C:\Users\Administrator\AppData\Local\Temp\ccnljQWb.s 			page 25


  72:Middlewares/Third_Party/RealThread_RTOS/src/kservice.c ****     {
 515              		.loc 1 72 9 is_stmt 0 view .LVU165
 516 0004 FFF7FEFF 		bl	rt_interrupt_get_nest
 517              	.LVL56:
  72:Middlewares/Third_Party/RealThread_RTOS/src/kservice.c ****     {
 518              		.loc 1 72 8 view .LVU166
 519 0008 10B1     		cbz	r0, .L57
  75:Middlewares/Third_Party/RealThread_RTOS/src/kservice.c **** 
 520              		.loc 1 75 9 is_stmt 1 view .LVU167
  75:Middlewares/Third_Party/RealThread_RTOS/src/kservice.c **** 
 521              		.loc 1 75 20 is_stmt 0 view .LVU168
 522 000a 054B     		ldr	r3, .L62
 523 000c 1C60     		str	r4, [r3]
  77:Middlewares/Third_Party/RealThread_RTOS/src/kservice.c ****     }
 524              		.loc 1 77 9 is_stmt 1 view .LVU169
 525              	.L56:
  89:Middlewares/Third_Party/RealThread_RTOS/src/kservice.c **** 
 526              		.loc 1 89 1 is_stmt 0 view .LVU170
 527 000e 10BD     		pop	{r4, pc}
 528              	.LVL57:
 529              	.L57:
  80:Middlewares/Third_Party/RealThread_RTOS/src/kservice.c ****     if (tid == RT_NULL)
 530              		.loc 1 80 5 is_stmt 1 view .LVU171
  80:Middlewares/Third_Party/RealThread_RTOS/src/kservice.c ****     if (tid == RT_NULL)
 531              		.loc 1 80 11 is_stmt 0 view .LVU172
 532 0010 FFF7FEFF 		bl	rt_thread_self
 533              	.LVL58:
  81:Middlewares/Third_Party/RealThread_RTOS/src/kservice.c ****     {
 534              		.loc 1 81 5 is_stmt 1 view .LVU173
  81:Middlewares/Third_Party/RealThread_RTOS/src/kservice.c ****     {
 535              		.loc 1 81 8 is_stmt 0 view .LVU174
 536 0014 08B1     		cbz	r0, .L61
  88:Middlewares/Third_Party/RealThread_RTOS/src/kservice.c **** }
 537              		.loc 1 88 5 is_stmt 1 view .LVU175
  88:Middlewares/Third_Party/RealThread_RTOS/src/kservice.c **** }
 538              		.loc 1 88 16 is_stmt 0 view .LVU176
 539 0016 0463     		str	r4, [r0, #48]
 540 0018 F9E7     		b	.L56
 541              	.L61:
  83:Middlewares/Third_Party/RealThread_RTOS/src/kservice.c **** 
 542              		.loc 1 83 9 is_stmt 1 view .LVU177
  83:Middlewares/Third_Party/RealThread_RTOS/src/kservice.c **** 
 543              		.loc 1 83 20 is_stmt 0 view .LVU178
 544 001a 014B     		ldr	r3, .L62
 545 001c 1C60     		str	r4, [r3]
  85:Middlewares/Third_Party/RealThread_RTOS/src/kservice.c ****     }
 546              		.loc 1 85 9 is_stmt 1 view .LVU179
 547 001e F6E7     		b	.L56
 548              	.L63:
 549              		.align	2
 550              	.L62:
 551 0020 00000000 		.word	.LANCHOR2
 552              		.cfi_endproc
 553              	.LFE16:
 555              		.section	.text._rt_errno,"ax",%progbits
 556              		.align	1
 557              		.global	_rt_errno
ARM GAS  C:\Users\Administrator\AppData\Local\Temp\ccnljQWb.s 			page 26


 558              		.syntax unified
 559              		.thumb
 560              		.thumb_func
 561              		.fpu softvfp
 563              	_rt_errno:
 564              	.LFB17:
  97:Middlewares/Third_Party/RealThread_RTOS/src/kservice.c ****     rt_thread_t tid;
 565              		.loc 1 97 1 view -0
 566              		.cfi_startproc
 567              		@ args = 0, pretend = 0, frame = 0
 568              		@ frame_needed = 0, uses_anonymous_args = 0
 569 0000 08B5     		push	{r3, lr}
 570              	.LCFI5:
 571              		.cfi_def_cfa_offset 8
 572              		.cfi_offset 3, -8
 573              		.cfi_offset 14, -4
  98:Middlewares/Third_Party/RealThread_RTOS/src/kservice.c **** 
 574              		.loc 1 98 5 view .LVU181
 100:Middlewares/Third_Party/RealThread_RTOS/src/kservice.c ****         return (int *)&__rt_errno;
 575              		.loc 1 100 5 view .LVU182
 100:Middlewares/Third_Party/RealThread_RTOS/src/kservice.c ****         return (int *)&__rt_errno;
 576              		.loc 1 100 9 is_stmt 0 view .LVU183
 577 0002 FFF7FEFF 		bl	rt_interrupt_get_nest
 578              	.LVL59:
 100:Middlewares/Third_Party/RealThread_RTOS/src/kservice.c ****         return (int *)&__rt_errno;
 579              		.loc 1 100 8 view .LVU184
 580 0006 08B1     		cbz	r0, .L69
 101:Middlewares/Third_Party/RealThread_RTOS/src/kservice.c **** 
 581              		.loc 1 101 16 view .LVU185
 582 0008 0448     		ldr	r0, .L70
 583              	.L64:
 108:Middlewares/Third_Party/RealThread_RTOS/src/kservice.c **** 
 584              		.loc 1 108 1 view .LVU186
 585 000a 08BD     		pop	{r3, pc}
 586              	.L69:
 103:Middlewares/Third_Party/RealThread_RTOS/src/kservice.c ****     if (tid != RT_NULL)
 587              		.loc 1 103 5 is_stmt 1 view .LVU187
 103:Middlewares/Third_Party/RealThread_RTOS/src/kservice.c ****     if (tid != RT_NULL)
 588              		.loc 1 103 11 is_stmt 0 view .LVU188
 589 000c FFF7FEFF 		bl	rt_thread_self
 590              	.LVL60:
 104:Middlewares/Third_Party/RealThread_RTOS/src/kservice.c ****         return (int *) & (tid->error);
 591              		.loc 1 104 5 is_stmt 1 view .LVU189
 104:Middlewares/Third_Party/RealThread_RTOS/src/kservice.c ****         return (int *) & (tid->error);
 592              		.loc 1 104 8 is_stmt 0 view .LVU190
 593 0010 08B1     		cbz	r0, .L67
 105:Middlewares/Third_Party/RealThread_RTOS/src/kservice.c **** 
 594              		.loc 1 105 9 is_stmt 1 view .LVU191
 105:Middlewares/Third_Party/RealThread_RTOS/src/kservice.c **** 
 595              		.loc 1 105 16 is_stmt 0 view .LVU192
 596 0012 3030     		adds	r0, r0, #48
 597              	.LVL61:
 105:Middlewares/Third_Party/RealThread_RTOS/src/kservice.c **** 
 598              		.loc 1 105 16 view .LVU193
 599 0014 F9E7     		b	.L64
 600              	.LVL62:
 601              	.L67:
ARM GAS  C:\Users\Administrator\AppData\Local\Temp\ccnljQWb.s 			page 27


 107:Middlewares/Third_Party/RealThread_RTOS/src/kservice.c **** }
 602              		.loc 1 107 12 view .LVU194
 603 0016 0148     		ldr	r0, .L70
 604              	.LVL63:
 107:Middlewares/Third_Party/RealThread_RTOS/src/kservice.c **** }
 605              		.loc 1 107 12 view .LVU195
 606 0018 F7E7     		b	.L64
 607              	.L71:
 608 001a 00BF     		.align	2
 609              	.L70:
 610 001c 00000000 		.word	.LANCHOR2
 611              		.cfi_endproc
 612              	.LFE17:
 614              		.section	.text.rt_memset,"ax",%progbits
 615              		.align	1
 616              		.global	rt_memset
 617              		.syntax unified
 618              		.thumb
 619              		.thumb_func
 620              		.fpu softvfp
 622              	rt_memset:
 623              	.LVL64:
 624              	.LFB18:
 120:Middlewares/Third_Party/RealThread_RTOS/src/kservice.c **** #ifdef RT_USING_TINY_SIZE
 625              		.loc 1 120 1 is_stmt 1 view -0
 626              		.cfi_startproc
 627              		@ args = 0, pretend = 0, frame = 0
 628              		@ frame_needed = 0, uses_anonymous_args = 0
 629              		@ link register save eliminated.
 133:Middlewares/Third_Party/RealThread_RTOS/src/kservice.c ****     char *m = (char *)s;
 630              		.loc 1 133 5 view .LVU197
 134:Middlewares/Third_Party/RealThread_RTOS/src/kservice.c ****     unsigned long buffer;
 631              		.loc 1 134 5 view .LVU198
 135:Middlewares/Third_Party/RealThread_RTOS/src/kservice.c ****     unsigned long *aligned_addr;
 632              		.loc 1 135 5 view .LVU199
 136:Middlewares/Third_Party/RealThread_RTOS/src/kservice.c ****     unsigned int d = c & 0xff;  /* To avoid sign extension, copy C to an
 633              		.loc 1 136 5 view .LVU200
 137:Middlewares/Third_Party/RealThread_RTOS/src/kservice.c ****                                 unsigned variable.  */
 634              		.loc 1 137 5 view .LVU201
 140:Middlewares/Third_Party/RealThread_RTOS/src/kservice.c ****     {
 635              		.loc 1 140 5 view .LVU202
 140:Middlewares/Third_Party/RealThread_RTOS/src/kservice.c ****     {
 636              		.loc 1 140 8 is_stmt 0 view .LVU203
 637 0000 032A     		cmp	r2, #3
 638 0002 22D9     		bls	.L80
 120:Middlewares/Third_Party/RealThread_RTOS/src/kservice.c **** #ifdef RT_USING_TINY_SIZE
 639              		.loc 1 120 1 discriminator 1 view .LVU204
 640 0004 10B4     		push	{r4}
 641              	.LCFI6:
 642              		.cfi_def_cfa_offset 4
 643              		.cfi_offset 4, -4
 644 0006 CCB2     		uxtb	r4, r1
 645              	.LVL65:
 140:Middlewares/Third_Party/RealThread_RTOS/src/kservice.c ****     {
 646              		.loc 1 140 27 discriminator 1 view .LVU205
 647 0008 10F0030F 		tst	r0, #3
 648 000c 1FD1     		bne	.L81
ARM GAS  C:\Users\Administrator\AppData\Local\Temp\ccnljQWb.s 			page 28


 143:Middlewares/Third_Party/RealThread_RTOS/src/kservice.c **** 
 649              		.loc 1 143 9 is_stmt 1 view .LVU206
 650              	.LVL66:
 148:Middlewares/Third_Party/RealThread_RTOS/src/kservice.c ****         {
 651              		.loc 1 148 9 view .LVU207
 150:Middlewares/Third_Party/RealThread_RTOS/src/kservice.c ****             buffer |= (buffer << 16);
 652              		.loc 1 150 13 view .LVU208
 150:Middlewares/Third_Party/RealThread_RTOS/src/kservice.c ****             buffer |= (buffer << 16);
 653              		.loc 1 150 20 is_stmt 0 view .LVU209
 654 000e 44EA0424 		orr	r4, r4, r4, lsl #8
 655              	.LVL67:
 151:Middlewares/Third_Party/RealThread_RTOS/src/kservice.c ****         }
 656              		.loc 1 151 13 is_stmt 1 view .LVU210
 151:Middlewares/Third_Party/RealThread_RTOS/src/kservice.c ****         }
 657              		.loc 1 151 20 is_stmt 0 view .LVU211
 658 0012 44EA0444 		orr	r4, r4, r4, lsl #16
 659              	.LVL68:
 143:Middlewares/Third_Party/RealThread_RTOS/src/kservice.c **** 
 660              		.loc 1 143 22 view .LVU212
 661 0016 0346     		mov	r3, r0
 662 0018 05E0     		b	.L74
 663              	.LVL69:
 664              	.L75:
 162:Middlewares/Third_Party/RealThread_RTOS/src/kservice.c ****             *aligned_addr++ = buffer;
 665              		.loc 1 162 13 is_stmt 1 view .LVU213
 162:Middlewares/Third_Party/RealThread_RTOS/src/kservice.c ****             *aligned_addr++ = buffer;
 666              		.loc 1 162 29 is_stmt 0 view .LVU214
 667 001a 1C60     		str	r4, [r3]
 163:Middlewares/Third_Party/RealThread_RTOS/src/kservice.c ****             *aligned_addr++ = buffer;
 668              		.loc 1 163 13 is_stmt 1 view .LVU215
 669              	.LVL70:
 163:Middlewares/Third_Party/RealThread_RTOS/src/kservice.c ****             *aligned_addr++ = buffer;
 670              		.loc 1 163 29 is_stmt 0 view .LVU216
 671 001c 5C60     		str	r4, [r3, #4]
 164:Middlewares/Third_Party/RealThread_RTOS/src/kservice.c ****             *aligned_addr++ = buffer;
 672              		.loc 1 164 13 is_stmt 1 view .LVU217
 673              	.LVL71:
 164:Middlewares/Third_Party/RealThread_RTOS/src/kservice.c ****             *aligned_addr++ = buffer;
 674              		.loc 1 164 29 is_stmt 0 view .LVU218
 675 001e 9C60     		str	r4, [r3, #8]
 165:Middlewares/Third_Party/RealThread_RTOS/src/kservice.c ****             count -= 4 * LBLOCKSIZE;
 676              		.loc 1 165 13 is_stmt 1 view .LVU219
 677              	.LVL72:
 165:Middlewares/Third_Party/RealThread_RTOS/src/kservice.c ****             count -= 4 * LBLOCKSIZE;
 678              		.loc 1 165 29 is_stmt 0 view .LVU220
 679 0020 DC60     		str	r4, [r3, #12]
 166:Middlewares/Third_Party/RealThread_RTOS/src/kservice.c ****         }
 680              		.loc 1 166 13 is_stmt 1 view .LVU221
 166:Middlewares/Third_Party/RealThread_RTOS/src/kservice.c ****         }
 681              		.loc 1 166 19 is_stmt 0 view .LVU222
 682 0022 103A     		subs	r2, r2, #16
 683              	.LVL73:
 165:Middlewares/Third_Party/RealThread_RTOS/src/kservice.c ****             count -= 4 * LBLOCKSIZE;
 684              		.loc 1 165 26 view .LVU223
 685 0024 1033     		adds	r3, r3, #16
 686              	.LVL74:
 687              	.L74:
ARM GAS  C:\Users\Administrator\AppData\Local\Temp\ccnljQWb.s 			page 29


 160:Middlewares/Third_Party/RealThread_RTOS/src/kservice.c ****         {
 688              		.loc 1 160 15 is_stmt 1 view .LVU224
 689 0026 0F2A     		cmp	r2, #15
 690 0028 F7D8     		bhi	.L75
 160:Middlewares/Third_Party/RealThread_RTOS/src/kservice.c ****         {
 691              		.loc 1 160 15 is_stmt 0 view .LVU225
 692 002a 02E0     		b	.L76
 693              	.L77:
 171:Middlewares/Third_Party/RealThread_RTOS/src/kservice.c ****             count -= LBLOCKSIZE;
 694              		.loc 1 171 13 is_stmt 1 view .LVU226
 695              	.LVL75:
 171:Middlewares/Third_Party/RealThread_RTOS/src/kservice.c ****             count -= LBLOCKSIZE;
 696              		.loc 1 171 29 is_stmt 0 view .LVU227
 697 002c 43F8044B 		str	r4, [r3], #4
 698              	.LVL76:
 172:Middlewares/Third_Party/RealThread_RTOS/src/kservice.c ****         }
 699              		.loc 1 172 13 is_stmt 1 view .LVU228
 172:Middlewares/Third_Party/RealThread_RTOS/src/kservice.c ****         }
 700              		.loc 1 172 19 is_stmt 0 view .LVU229
 701 0030 043A     		subs	r2, r2, #4
 702              	.LVL77:
 703              	.L76:
 169:Middlewares/Third_Party/RealThread_RTOS/src/kservice.c ****         {
 704              		.loc 1 169 15 is_stmt 1 view .LVU230
 705 0032 032A     		cmp	r2, #3
 706 0034 FAD8     		bhi	.L77
 169:Middlewares/Third_Party/RealThread_RTOS/src/kservice.c ****         {
 707              		.loc 1 169 15 is_stmt 0 view .LVU231
 708 0036 02E0     		b	.L78
 709              	.LVL78:
 710              	.L79:
 181:Middlewares/Third_Party/RealThread_RTOS/src/kservice.c ****     }
 711              		.loc 1 181 9 is_stmt 1 view .LVU232
 181:Middlewares/Third_Party/RealThread_RTOS/src/kservice.c ****     }
 712              		.loc 1 181 14 is_stmt 0 view .LVU233
 713 0038 03F8011B 		strb	r1, [r3], #1
 714              	.LVL79:
 179:Middlewares/Third_Party/RealThread_RTOS/src/kservice.c ****     {
 715              		.loc 1 179 17 view .LVU234
 716 003c 6246     		mov	r2, ip
 717              	.LVL80:
 718              	.L78:
 179:Middlewares/Third_Party/RealThread_RTOS/src/kservice.c ****     {
 719              		.loc 1 179 11 is_stmt 1 view .LVU235
 179:Middlewares/Third_Party/RealThread_RTOS/src/kservice.c ****     {
 720              		.loc 1 179 17 is_stmt 0 view .LVU236
 721 003e 02F1FF3C 		add	ip, r2, #-1
 722              	.LVL81:
 179:Middlewares/Third_Party/RealThread_RTOS/src/kservice.c ****     {
 723              		.loc 1 179 11 view .LVU237
 724 0042 002A     		cmp	r2, #0
 725 0044 F8D1     		bne	.L79
 184:Middlewares/Third_Party/RealThread_RTOS/src/kservice.c **** 
 726              		.loc 1 184 5 is_stmt 1 view .LVU238
 190:Middlewares/Third_Party/RealThread_RTOS/src/kservice.c **** 
 727              		.loc 1 190 1 is_stmt 0 view .LVU239
 728 0046 10BC     		pop	{r4}
ARM GAS  C:\Users\Administrator\AppData\Local\Temp\ccnljQWb.s 			page 30


 729              	.LCFI7:
 730              		.cfi_restore 4
 731              		.cfi_def_cfa_offset 0
 732 0048 7047     		bx	lr
 733              	.LVL82:
 734              	.L80:
 134:Middlewares/Third_Party/RealThread_RTOS/src/kservice.c ****     unsigned long buffer;
 735              		.loc 1 134 11 view .LVU240
 736 004a 0346     		mov	r3, r0
 737 004c 04E0     		b	.L83
 738              	.LVL83:
 739              	.L81:
 740              	.LCFI8:
 741              		.cfi_def_cfa_offset 4
 742              		.cfi_offset 4, -4
 134:Middlewares/Third_Party/RealThread_RTOS/src/kservice.c ****     unsigned long buffer;
 743              		.loc 1 134 11 view .LVU241
 744 004e 0346     		mov	r3, r0
 745 0050 F5E7     		b	.L78
 746              	.LVL84:
 747              	.L84:
 748              	.LCFI9:
 749              		.cfi_def_cfa_offset 0
 750              		.cfi_restore 4
 181:Middlewares/Third_Party/RealThread_RTOS/src/kservice.c ****     }
 751              		.loc 1 181 9 is_stmt 1 view .LVU242
 181:Middlewares/Third_Party/RealThread_RTOS/src/kservice.c ****     }
 752              		.loc 1 181 14 is_stmt 0 view .LVU243
 753 0052 03F8011B 		strb	r1, [r3], #1
 754              	.LVL85:
 179:Middlewares/Third_Party/RealThread_RTOS/src/kservice.c ****     {
 755              		.loc 1 179 17 view .LVU244
 756 0056 6246     		mov	r2, ip
 757              	.LVL86:
 758              	.L83:
 179:Middlewares/Third_Party/RealThread_RTOS/src/kservice.c ****     {
 759              		.loc 1 179 11 is_stmt 1 view .LVU245
 179:Middlewares/Third_Party/RealThread_RTOS/src/kservice.c ****     {
 760              		.loc 1 179 17 is_stmt 0 view .LVU246
 761 0058 02F1FF3C 		add	ip, r2, #-1
 762              	.LVL87:
 179:Middlewares/Third_Party/RealThread_RTOS/src/kservice.c ****     {
 763              		.loc 1 179 11 view .LVU247
 764 005c 002A     		cmp	r2, #0
 765 005e F8D1     		bne	.L84
 179:Middlewares/Third_Party/RealThread_RTOS/src/kservice.c ****     {
 766              		.loc 1 179 11 view .LVU248
 767 0060 7047     		bx	lr
 768              		.cfi_endproc
 769              	.LFE18:
 771              		.section	.text.rt_memcpy,"ax",%progbits
 772              		.align	1
 773              		.global	rt_memcpy
 774              		.syntax unified
 775              		.thumb
 776              		.thumb_func
 777              		.fpu softvfp
ARM GAS  C:\Users\Administrator\AppData\Local\Temp\ccnljQWb.s 			page 31


 779              	rt_memcpy:
 780              	.LVL88:
 781              	.LFB19:
 203:Middlewares/Third_Party/RealThread_RTOS/src/kservice.c **** #ifdef RT_USING_TINY_SIZE
 782              		.loc 1 203 1 is_stmt 1 view -0
 783              		.cfi_startproc
 784              		@ args = 0, pretend = 0, frame = 0
 785              		@ frame_needed = 0, uses_anonymous_args = 0
 786              		@ link register save eliminated.
 228:Middlewares/Third_Party/RealThread_RTOS/src/kservice.c ****     char *src_ptr = (char *)src;
 787              		.loc 1 228 5 view .LVU250
 229:Middlewares/Third_Party/RealThread_RTOS/src/kservice.c ****     long *aligned_dst;
 788              		.loc 1 229 5 view .LVU251
 230:Middlewares/Third_Party/RealThread_RTOS/src/kservice.c ****     long *aligned_src;
 789              		.loc 1 230 5 view .LVU252
 231:Middlewares/Third_Party/RealThread_RTOS/src/kservice.c ****     int len = count;
 790              		.loc 1 231 5 view .LVU253
 232:Middlewares/Third_Party/RealThread_RTOS/src/kservice.c **** 
 791              		.loc 1 232 5 view .LVU254
 236:Middlewares/Third_Party/RealThread_RTOS/src/kservice.c ****     {
 792              		.loc 1 236 5 view .LVU255
 236:Middlewares/Third_Party/RealThread_RTOS/src/kservice.c ****     {
 793              		.loc 1 236 8 is_stmt 0 view .LVU256
 794 0000 0F2A     		cmp	r2, #15
 795 0002 2AD9     		bls	.L96
 236:Middlewares/Third_Party/RealThread_RTOS/src/kservice.c ****     {
 796              		.loc 1 236 29 discriminator 1 view .LVU257
 797 0004 41EA0003 		orr	r3, r1, r0
 236:Middlewares/Third_Party/RealThread_RTOS/src/kservice.c ****     {
 798              		.loc 1 236 25 discriminator 1 view .LVU258
 799 0008 13F0030F 		tst	r3, #3
 800 000c 0FD0     		beq	.L97
 228:Middlewares/Third_Party/RealThread_RTOS/src/kservice.c ****     char *src_ptr = (char *)src;
 801              		.loc 1 228 11 view .LVU259
 802 000e 0346     		mov	r3, r0
 803 0010 2AE0     		b	.L99
 804              	.LVL89:
 805              	.L91:
 806              	.LCFI10:
 807              		.cfi_def_cfa_offset 4
 808              		.cfi_offset 4, -4
 244:Middlewares/Third_Party/RealThread_RTOS/src/kservice.c ****             *aligned_dst++ = *aligned_src++;
 809              		.loc 1 244 13 is_stmt 1 view .LVU260
 244:Middlewares/Third_Party/RealThread_RTOS/src/kservice.c ****             *aligned_dst++ = *aligned_src++;
 810              		.loc 1 244 28 is_stmt 0 view .LVU261
 811 0012 0C68     		ldr	r4, [r1]
 812 0014 1C60     		str	r4, [r3]
 245:Middlewares/Third_Party/RealThread_RTOS/src/kservice.c ****             *aligned_dst++ = *aligned_src++;
 813              		.loc 1 245 13 is_stmt 1 view .LVU262
 814              	.LVL90:
 245:Middlewares/Third_Party/RealThread_RTOS/src/kservice.c ****             *aligned_dst++ = *aligned_src++;
 815              		.loc 1 245 28 is_stmt 0 view .LVU263
 816 0016 4C68     		ldr	r4, [r1, #4]
 817 0018 5C60     		str	r4, [r3, #4]
 246:Middlewares/Third_Party/RealThread_RTOS/src/kservice.c ****             *aligned_dst++ = *aligned_src++;
 818              		.loc 1 246 13 is_stmt 1 view .LVU264
 819              	.LVL91:
ARM GAS  C:\Users\Administrator\AppData\Local\Temp\ccnljQWb.s 			page 32


 246:Middlewares/Third_Party/RealThread_RTOS/src/kservice.c ****             *aligned_dst++ = *aligned_src++;
 820              		.loc 1 246 28 is_stmt 0 view .LVU265
 821 001a 8C68     		ldr	r4, [r1, #8]
 822 001c 9C60     		str	r4, [r3, #8]
 247:Middlewares/Third_Party/RealThread_RTOS/src/kservice.c ****             len -= BIGBLOCKSIZE;
 823              		.loc 1 247 13 is_stmt 1 view .LVU266
 824              	.LVL92:
 247:Middlewares/Third_Party/RealThread_RTOS/src/kservice.c ****             len -= BIGBLOCKSIZE;
 825              		.loc 1 247 28 is_stmt 0 view .LVU267
 826 001e CC68     		ldr	r4, [r1, #12]
 827 0020 DC60     		str	r4, [r3, #12]
 248:Middlewares/Third_Party/RealThread_RTOS/src/kservice.c ****         }
 828              		.loc 1 248 13 is_stmt 1 view .LVU268
 248:Middlewares/Third_Party/RealThread_RTOS/src/kservice.c ****         }
 829              		.loc 1 248 17 is_stmt 0 view .LVU269
 830 0022 103A     		subs	r2, r2, #16
 831              	.LVL93:
 247:Middlewares/Third_Party/RealThread_RTOS/src/kservice.c ****             len -= BIGBLOCKSIZE;
 832              		.loc 1 247 42 view .LVU270
 833 0024 1031     		adds	r1, r1, #16
 834              	.LVL94:
 247:Middlewares/Third_Party/RealThread_RTOS/src/kservice.c ****             len -= BIGBLOCKSIZE;
 835              		.loc 1 247 25 view .LVU271
 836 0026 1033     		adds	r3, r3, #16
 837              	.LVL95:
 838              	.L90:
 242:Middlewares/Third_Party/RealThread_RTOS/src/kservice.c ****         {
 839              		.loc 1 242 15 is_stmt 1 view .LVU272
 840 0028 0F2A     		cmp	r2, #15
 841 002a F2D8     		bhi	.L91
 242:Middlewares/Third_Party/RealThread_RTOS/src/kservice.c ****         {
 842              		.loc 1 242 15 is_stmt 0 view .LVU273
 843 002c 07E0     		b	.L92
 844              	.LVL96:
 845              	.L97:
 846              	.LCFI11:
 847              		.cfi_def_cfa_offset 0
 848              		.cfi_restore 4
 203:Middlewares/Third_Party/RealThread_RTOS/src/kservice.c **** #ifdef RT_USING_TINY_SIZE
 849              		.loc 1 203 1 view .LVU274
 850 002e 10B4     		push	{r4}
 851              	.LCFI12:
 852              		.cfi_def_cfa_offset 4
 853              		.cfi_offset 4, -4
 238:Middlewares/Third_Party/RealThread_RTOS/src/kservice.c ****         aligned_src = (long *)src_ptr;
 854              		.loc 1 238 21 view .LVU275
 855 0030 0346     		mov	r3, r0
 856 0032 F9E7     		b	.L90
 857              	.LVL97:
 858              	.L93:
 254:Middlewares/Third_Party/RealThread_RTOS/src/kservice.c ****             len -= LITTLEBLOCKSIZE;
 859              		.loc 1 254 13 is_stmt 1 view .LVU276
 254:Middlewares/Third_Party/RealThread_RTOS/src/kservice.c ****             len -= LITTLEBLOCKSIZE;
 860              		.loc 1 254 30 is_stmt 0 view .LVU277
 861 0034 51F8044B 		ldr	r4, [r1], #4
 862              	.LVL98:
 254:Middlewares/Third_Party/RealThread_RTOS/src/kservice.c ****             len -= LITTLEBLOCKSIZE;
ARM GAS  C:\Users\Administrator\AppData\Local\Temp\ccnljQWb.s 			page 33


 863              		.loc 1 254 28 view .LVU278
 864 0038 43F8044B 		str	r4, [r3], #4
 865              	.LVL99:
 255:Middlewares/Third_Party/RealThread_RTOS/src/kservice.c ****         }
 866              		.loc 1 255 13 is_stmt 1 view .LVU279
 255:Middlewares/Third_Party/RealThread_RTOS/src/kservice.c ****         }
 867              		.loc 1 255 17 is_stmt 0 view .LVU280
 868 003c 043A     		subs	r2, r2, #4
 869              	.LVL100:
 870              	.L92:
 252:Middlewares/Third_Party/RealThread_RTOS/src/kservice.c ****         {
 871              		.loc 1 252 15 is_stmt 1 view .LVU281
 872 003e 032A     		cmp	r2, #3
 873 0040 F8D8     		bhi	.L93
 252:Middlewares/Third_Party/RealThread_RTOS/src/kservice.c ****         {
 874              		.loc 1 252 15 is_stmt 0 view .LVU282
 875 0042 04E0     		b	.L94
 876              	.LVL101:
 877              	.L95:
 264:Middlewares/Third_Party/RealThread_RTOS/src/kservice.c **** 
 878              		.loc 1 264 9 is_stmt 1 view .LVU283
 264:Middlewares/Third_Party/RealThread_RTOS/src/kservice.c **** 
 879              		.loc 1 264 22 is_stmt 0 view .LVU284
 880 0044 11F8012B 		ldrb	r2, [r1], #1	@ zero_extendqisi2
 881              	.LVL102:
 264:Middlewares/Third_Party/RealThread_RTOS/src/kservice.c **** 
 882              		.loc 1 264 20 view .LVU285
 883 0048 03F8012B 		strb	r2, [r3], #1
 884              	.LVL103:
 263:Middlewares/Third_Party/RealThread_RTOS/src/kservice.c ****         *dst_ptr++ = *src_ptr++;
 885              		.loc 1 263 15 view .LVU286
 886 004c 6246     		mov	r2, ip
 887              	.LVL104:
 888              	.L94:
 263:Middlewares/Third_Party/RealThread_RTOS/src/kservice.c ****         *dst_ptr++ = *src_ptr++;
 889              		.loc 1 263 11 is_stmt 1 view .LVU287
 263:Middlewares/Third_Party/RealThread_RTOS/src/kservice.c ****         *dst_ptr++ = *src_ptr++;
 890              		.loc 1 263 15 is_stmt 0 view .LVU288
 891 004e 02F1FF3C 		add	ip, r2, #-1
 892              	.LVL105:
 263:Middlewares/Third_Party/RealThread_RTOS/src/kservice.c ****         *dst_ptr++ = *src_ptr++;
 893              		.loc 1 263 11 view .LVU289
 894 0052 002A     		cmp	r2, #0
 895 0054 F6D1     		bne	.L95
 266:Middlewares/Third_Party/RealThread_RTOS/src/kservice.c **** #undef UNALIGNED
 896              		.loc 1 266 5 is_stmt 1 view .LVU290
 272:Middlewares/Third_Party/RealThread_RTOS/src/kservice.c **** 
 897              		.loc 1 272 1 is_stmt 0 view .LVU291
 898 0056 10BC     		pop	{r4}
 899              	.LCFI13:
 900              		.cfi_restore 4
 901              		.cfi_def_cfa_offset 0
 902 0058 7047     		bx	lr
 903              	.LVL106:
 904              	.L96:
 228:Middlewares/Third_Party/RealThread_RTOS/src/kservice.c ****     char *src_ptr = (char *)src;
 905              		.loc 1 228 11 view .LVU292
ARM GAS  C:\Users\Administrator\AppData\Local\Temp\ccnljQWb.s 			page 34


 906 005a 0346     		mov	r3, r0
 907 005c 04E0     		b	.L99
 908              	.LVL107:
 909              	.L100:
 264:Middlewares/Third_Party/RealThread_RTOS/src/kservice.c **** 
 910              		.loc 1 264 9 is_stmt 1 view .LVU293
 264:Middlewares/Third_Party/RealThread_RTOS/src/kservice.c **** 
 911              		.loc 1 264 22 is_stmt 0 view .LVU294
 912 005e 11F8012B 		ldrb	r2, [r1], #1	@ zero_extendqisi2
 913              	.LVL108:
 264:Middlewares/Third_Party/RealThread_RTOS/src/kservice.c **** 
 914              		.loc 1 264 20 view .LVU295
 915 0062 03F8012B 		strb	r2, [r3], #1
 916              	.LVL109:
 263:Middlewares/Third_Party/RealThread_RTOS/src/kservice.c ****         *dst_ptr++ = *src_ptr++;
 917              		.loc 1 263 15 view .LVU296
 918 0066 6246     		mov	r2, ip
 919              	.LVL110:
 920              	.L99:
 263:Middlewares/Third_Party/RealThread_RTOS/src/kservice.c ****         *dst_ptr++ = *src_ptr++;
 921              		.loc 1 263 11 is_stmt 1 view .LVU297
 263:Middlewares/Third_Party/RealThread_RTOS/src/kservice.c ****         *dst_ptr++ = *src_ptr++;
 922              		.loc 1 263 15 is_stmt 0 view .LVU298
 923 0068 02F1FF3C 		add	ip, r2, #-1
 924              	.LVL111:
 263:Middlewares/Third_Party/RealThread_RTOS/src/kservice.c ****         *dst_ptr++ = *src_ptr++;
 925              		.loc 1 263 11 view .LVU299
 926 006c 002A     		cmp	r2, #0
 927 006e F6D1     		bne	.L100
 263:Middlewares/Third_Party/RealThread_RTOS/src/kservice.c ****         *dst_ptr++ = *src_ptr++;
 928              		.loc 1 263 11 view .LVU300
 929 0070 7047     		bx	lr
 930              		.cfi_endproc
 931              	.LFE19:
 933              		.section	.text.rt_memmove,"ax",%progbits
 934              		.align	1
 935              		.global	rt_memmove
 936              		.syntax unified
 937              		.thumb
 938              		.thumb_func
 939              		.fpu softvfp
 941              	rt_memmove:
 942              	.LVL112:
 943              	.LFB20:
 285:Middlewares/Third_Party/RealThread_RTOS/src/kservice.c ****     char *tmp = (char *)dest, *s = (char *)src;
 944              		.loc 1 285 1 is_stmt 1 view -0
 945              		.cfi_startproc
 946              		@ args = 0, pretend = 0, frame = 0
 947              		@ frame_needed = 0, uses_anonymous_args = 0
 948              		@ link register save eliminated.
 286:Middlewares/Third_Party/RealThread_RTOS/src/kservice.c **** 
 949              		.loc 1 286 5 view .LVU302
 288:Middlewares/Third_Party/RealThread_RTOS/src/kservice.c ****     {
 950              		.loc 1 288 5 view .LVU303
 288:Middlewares/Third_Party/RealThread_RTOS/src/kservice.c ****     {
 951              		.loc 1 288 8 is_stmt 0 view .LVU304
 952 0000 8842     		cmp	r0, r1
ARM GAS  C:\Users\Administrator\AppData\Local\Temp\ccnljQWb.s 			page 35


 953 0002 18D9     		bls	.L110
 288:Middlewares/Third_Party/RealThread_RTOS/src/kservice.c ****     {
 954              		.loc 1 288 28 discriminator 1 view .LVU305
 955 0004 8B18     		adds	r3, r1, r2
 288:Middlewares/Third_Party/RealThread_RTOS/src/kservice.c ****     {
 956              		.loc 1 288 17 discriminator 1 view .LVU306
 957 0006 8342     		cmp	r3, r0
 958 0008 17D9     		bls	.L111
 290:Middlewares/Third_Party/RealThread_RTOS/src/kservice.c ****         s += n;
 959              		.loc 1 290 9 is_stmt 1 view .LVU307
 290:Middlewares/Third_Party/RealThread_RTOS/src/kservice.c ****         s += n;
 960              		.loc 1 290 13 is_stmt 0 view .LVU308
 961 000a 00EB020C 		add	ip, r0, r2
 962              	.LVL113:
 291:Middlewares/Third_Party/RealThread_RTOS/src/kservice.c **** 
 963              		.loc 1 291 9 is_stmt 1 view .LVU309
 293:Middlewares/Third_Party/RealThread_RTOS/src/kservice.c ****             *(--tmp) = *(--s);
 964              		.loc 1 293 9 view .LVU310
 293:Middlewares/Third_Party/RealThread_RTOS/src/kservice.c ****             *(--tmp) = *(--s);
 965              		.loc 1 293 15 is_stmt 0 view .LVU311
 966 000e 04E0     		b	.L105
 967              	.LVL114:
 968              	.L106:
 294:Middlewares/Third_Party/RealThread_RTOS/src/kservice.c ****     }
 969              		.loc 1 294 13 is_stmt 1 view .LVU312
 294:Middlewares/Third_Party/RealThread_RTOS/src/kservice.c ****     }
 970              		.loc 1 294 24 is_stmt 0 view .LVU313
 971 0010 13F8012D 		ldrb	r2, [r3, #-1]!	@ zero_extendqisi2
 972              	.LVL115:
 294:Middlewares/Third_Party/RealThread_RTOS/src/kservice.c ****     }
 973              		.loc 1 294 22 view .LVU314
 974 0014 0CF8012D 		strb	r2, [ip, #-1]!
 975              	.LVL116:
 293:Middlewares/Third_Party/RealThread_RTOS/src/kservice.c ****             *(--tmp) = *(--s);
 976              		.loc 1 293 17 view .LVU315
 977 0018 0A46     		mov	r2, r1
 978              	.LVL117:
 979              	.L105:
 293:Middlewares/Third_Party/RealThread_RTOS/src/kservice.c ****             *(--tmp) = *(--s);
 980              		.loc 1 293 15 is_stmt 1 view .LVU316
 293:Middlewares/Third_Party/RealThread_RTOS/src/kservice.c ****             *(--tmp) = *(--s);
 981              		.loc 1 293 17 is_stmt 0 view .LVU317
 982 001a 511E     		subs	r1, r2, #1
 983              	.LVL118:
 293:Middlewares/Third_Party/RealThread_RTOS/src/kservice.c ****             *(--tmp) = *(--s);
 984              		.loc 1 293 15 view .LVU318
 985 001c 002A     		cmp	r2, #0
 986 001e F7D1     		bne	.L106
 293:Middlewares/Third_Party/RealThread_RTOS/src/kservice.c ****             *(--tmp) = *(--s);
 987              		.loc 1 293 15 view .LVU319
 988 0020 7047     		bx	lr
 989              	.LVL119:
 990              	.L109:
 299:Middlewares/Third_Party/RealThread_RTOS/src/kservice.c ****     }
 991              		.loc 1 299 13 is_stmt 1 view .LVU320
 299:Middlewares/Third_Party/RealThread_RTOS/src/kservice.c ****     }
 992              		.loc 1 299 22 is_stmt 0 view .LVU321
ARM GAS  C:\Users\Administrator\AppData\Local\Temp\ccnljQWb.s 			page 36


 993 0022 11F8012B 		ldrb	r2, [r1], #1	@ zero_extendqisi2
 994              	.LVL120:
 299:Middlewares/Third_Party/RealThread_RTOS/src/kservice.c ****     }
 995              		.loc 1 299 20 view .LVU322
 996 0026 03F8012B 		strb	r2, [r3], #1
 997              	.LVL121:
 298:Middlewares/Third_Party/RealThread_RTOS/src/kservice.c ****             *tmp++ = *s++;
 998              		.loc 1 298 17 view .LVU323
 999 002a 6246     		mov	r2, ip
 1000              	.LVL122:
 1001              	.L108:
 298:Middlewares/Third_Party/RealThread_RTOS/src/kservice.c ****             *tmp++ = *s++;
 1002              		.loc 1 298 15 is_stmt 1 view .LVU324
 298:Middlewares/Third_Party/RealThread_RTOS/src/kservice.c ****             *tmp++ = *s++;
 1003              		.loc 1 298 17 is_stmt 0 view .LVU325
 1004 002c 02F1FF3C 		add	ip, r2, #-1
 1005              	.LVL123:
 298:Middlewares/Third_Party/RealThread_RTOS/src/kservice.c ****             *tmp++ = *s++;
 1006              		.loc 1 298 15 view .LVU326
 1007 0030 002A     		cmp	r2, #0
 1008 0032 F6D1     		bne	.L109
 302:Middlewares/Third_Party/RealThread_RTOS/src/kservice.c **** }
 1009              		.loc 1 302 5 is_stmt 1 view .LVU327
 303:Middlewares/Third_Party/RealThread_RTOS/src/kservice.c **** 
 1010              		.loc 1 303 1 is_stmt 0 view .LVU328
 1011 0034 7047     		bx	lr
 1012              	.LVL124:
 1013              	.L110:
 303:Middlewares/Third_Party/RealThread_RTOS/src/kservice.c **** 
 1014              		.loc 1 303 1 view .LVU329
 1015 0036 0346     		mov	r3, r0
 1016 0038 F8E7     		b	.L108
 1017              	.L111:
 303:Middlewares/Third_Party/RealThread_RTOS/src/kservice.c **** 
 1018              		.loc 1 303 1 view .LVU330
 1019 003a 0346     		mov	r3, r0
 1020 003c F6E7     		b	.L108
 1021              		.cfi_endproc
 1022              	.LFE20:
 1024              		.section	.text.rt_memcmp,"ax",%progbits
 1025              		.align	1
 1026              		.global	rt_memcmp
 1027              		.syntax unified
 1028              		.thumb
 1029              		.thumb_func
 1030              		.fpu softvfp
 1032              	rt_memcmp:
 1033              	.LVL125:
 1034              	.LFB21:
 315:Middlewares/Third_Party/RealThread_RTOS/src/kservice.c ****     const unsigned char *su1, *su2;
 1035              		.loc 1 315 1 is_stmt 1 view -0
 1036              		.cfi_startproc
 1037              		@ args = 0, pretend = 0, frame = 0
 1038              		@ frame_needed = 0, uses_anonymous_args = 0
 1039              		@ link register save eliminated.
 315:Middlewares/Third_Party/RealThread_RTOS/src/kservice.c ****     const unsigned char *su1, *su2;
 1040              		.loc 1 315 1 is_stmt 0 view .LVU332
ARM GAS  C:\Users\Administrator\AppData\Local\Temp\ccnljQWb.s 			page 37


 1041 0000 0346     		mov	r3, r0
 316:Middlewares/Third_Party/RealThread_RTOS/src/kservice.c ****     int res = 0;
 1042              		.loc 1 316 5 is_stmt 1 view .LVU333
 317:Middlewares/Third_Party/RealThread_RTOS/src/kservice.c **** 
 1043              		.loc 1 317 5 view .LVU334
 1044              	.LVL126:
 319:Middlewares/Third_Party/RealThread_RTOS/src/kservice.c ****         if ((res = *su1 - *su2) != 0)
 1045              		.loc 1 319 5 view .LVU335
 317:Middlewares/Third_Party/RealThread_RTOS/src/kservice.c **** 
 1046              		.loc 1 317 9 is_stmt 0 view .LVU336
 1047 0002 0020     		movs	r0, #0
 1048              	.LVL127:
 319:Middlewares/Third_Party/RealThread_RTOS/src/kservice.c ****         if ((res = *su1 - *su2) != 0)
 1049              		.loc 1 319 5 view .LVU337
 1050 0004 02E0     		b	.L113
 1051              	.LVL128:
 1052              	.L116:
 319:Middlewares/Third_Party/RealThread_RTOS/src/kservice.c ****         if ((res = *su1 - *su2) != 0)
 1053              		.loc 1 319 87 is_stmt 1 discriminator 2 view .LVU338
 1054 0006 0133     		adds	r3, r3, #1
 1055              	.LVL129:
 319:Middlewares/Third_Party/RealThread_RTOS/src/kservice.c ****         if ((res = *su1 - *su2) != 0)
 1056              		.loc 1 319 94 is_stmt 0 discriminator 2 view .LVU339
 1057 0008 0131     		adds	r1, r1, #1
 1058              	.LVL130:
 319:Middlewares/Third_Party/RealThread_RTOS/src/kservice.c ****         if ((res = *su1 - *su2) != 0)
 1059              		.loc 1 319 106 discriminator 2 view .LVU340
 1060 000a 013A     		subs	r2, r2, #1
 1061              	.LVL131:
 1062              	.L113:
 319:Middlewares/Third_Party/RealThread_RTOS/src/kservice.c ****         if ((res = *su1 - *su2) != 0)
 1063              		.loc 1 319 76 is_stmt 1 discriminator 1 view .LVU341
 319:Middlewares/Third_Party/RealThread_RTOS/src/kservice.c ****         if ((res = *su1 - *su2) != 0)
 1064              		.loc 1 319 5 is_stmt 0 discriminator 1 view .LVU342
 1065 000c 2AB1     		cbz	r2, .L112
 320:Middlewares/Third_Party/RealThread_RTOS/src/kservice.c ****             break;
 1066              		.loc 1 320 9 is_stmt 1 view .LVU343
 320:Middlewares/Third_Party/RealThread_RTOS/src/kservice.c ****             break;
 1067              		.loc 1 320 20 is_stmt 0 view .LVU344
 1068 000e 1878     		ldrb	r0, [r3]	@ zero_extendqisi2
 1069              	.LVL132:
 320:Middlewares/Third_Party/RealThread_RTOS/src/kservice.c ****             break;
 1070              		.loc 1 320 27 view .LVU345
 1071 0010 91F800C0 		ldrb	ip, [r1]	@ zero_extendqisi2
 1072              	.LVL133:
 320:Middlewares/Third_Party/RealThread_RTOS/src/kservice.c ****             break;
 1073              		.loc 1 320 12 view .LVU346
 1074 0014 B0EB0C00 		subs	r0, r0, ip
 1075              	.LVL134:
 320:Middlewares/Third_Party/RealThread_RTOS/src/kservice.c ****             break;
 1076              		.loc 1 320 12 view .LVU347
 1077 0018 F5D0     		beq	.L116
 1078              	.LVL135:
 1079              	.L112:
 324:Middlewares/Third_Party/RealThread_RTOS/src/kservice.c **** 
 1080              		.loc 1 324 1 view .LVU348
 1081 001a 7047     		bx	lr
ARM GAS  C:\Users\Administrator\AppData\Local\Temp\ccnljQWb.s 			page 38


 1082              		.cfi_endproc
 1083              	.LFE21:
 1085              		.section	.text.rt_strcasecmp,"ax",%progbits
 1086              		.align	1
 1087              		.global	rt_strcasecmp
 1088              		.syntax unified
 1089              		.thumb
 1090              		.thumb_func
 1091              		.fpu softvfp
 1093              	rt_strcasecmp:
 1094              	.LFB23:
 362:Middlewares/Third_Party/RealThread_RTOS/src/kservice.c ****     int ca, cb;
 1095              		.loc 1 362 1 is_stmt 1 view -0
 1096              		.cfi_startproc
 1097              		@ args = 0, pretend = 0, frame = 0
 1098              		@ frame_needed = 0, uses_anonymous_args = 0
 1099              	.LVL136:
 362:Middlewares/Third_Party/RealThread_RTOS/src/kservice.c ****     int ca, cb;
 1100              		.loc 1 362 1 is_stmt 0 view .LVU350
 1101 0000 00B5     		push	{lr}
 1102              	.LCFI14:
 1103              		.cfi_def_cfa_offset 4
 1104              		.cfi_offset 14, -4
 1105 0002 04E0     		b	.L121
 1106              	.LVL137:
 1107              	.L123:
 372:Middlewares/Third_Party/RealThread_RTOS/src/kservice.c ****     }
 1108              		.loc 1 372 13 is_stmt 1 view .LVU351
 372:Middlewares/Third_Party/RealThread_RTOS/src/kservice.c ****     }
 1109              		.loc 1 372 16 is_stmt 0 view .LVU352
 1110 0004 02F1200C 		add	ip, r2, #32
 1111              	.LVL138:
 1112              	.L119:
 374:Middlewares/Third_Party/RealThread_RTOS/src/kservice.c **** 
 1113              		.loc 1 374 11 is_stmt 1 view .LVU353
 374:Middlewares/Third_Party/RealThread_RTOS/src/kservice.c **** 
 1114              		.loc 1 374 5 is_stmt 0 view .LVU354
 1115 0008 6345     		cmp	r3, ip
 1116 000a 11D1     		bne	.L120
 374:Middlewares/Third_Party/RealThread_RTOS/src/kservice.c **** 
 1117              		.loc 1 374 21 discriminator 1 view .LVU355
 1118 000c 83B1     		cbz	r3, .L120
 1119              	.LVL139:
 1120              	.L121:
 363:Middlewares/Third_Party/RealThread_RTOS/src/kservice.c **** 
 1121              		.loc 1 363 5 is_stmt 1 view .LVU356
 365:Middlewares/Third_Party/RealThread_RTOS/src/kservice.c ****     {
 1122              		.loc 1 365 5 view .LVU357
 367:Middlewares/Third_Party/RealThread_RTOS/src/kservice.c ****         cb = *b++ & 0xff;
 1123              		.loc 1 367 9 view .LVU358
 367:Middlewares/Third_Party/RealThread_RTOS/src/kservice.c ****         cb = *b++ & 0xff;
 1124              		.loc 1 367 14 is_stmt 0 view .LVU359
 1125 000e 0378     		ldrb	r3, [r0]	@ zero_extendqisi2
 1126 0010 0130     		adds	r0, r0, #1
 1127              	.LVL140:
 368:Middlewares/Third_Party/RealThread_RTOS/src/kservice.c ****         if (ca >= 'A' && ca <= 'Z')
 1128              		.loc 1 368 9 is_stmt 1 view .LVU360
ARM GAS  C:\Users\Administrator\AppData\Local\Temp\ccnljQWb.s 			page 39


 368:Middlewares/Third_Party/RealThread_RTOS/src/kservice.c ****         if (ca >= 'A' && ca <= 'Z')
 1129              		.loc 1 368 14 is_stmt 0 view .LVU361
 1130 0012 0A78     		ldrb	r2, [r1]	@ zero_extendqisi2
 1131 0014 0131     		adds	r1, r1, #1
 1132              	.LVL141:
 368:Middlewares/Third_Party/RealThread_RTOS/src/kservice.c ****         if (ca >= 'A' && ca <= 'Z')
 1133              		.loc 1 368 12 view .LVU362
 1134 0016 9446     		mov	ip, r2
 1135              	.LVL142:
 369:Middlewares/Third_Party/RealThread_RTOS/src/kservice.c ****             ca += 'a' - 'A';
 1136              		.loc 1 369 9 is_stmt 1 view .LVU363
 369:Middlewares/Third_Party/RealThread_RTOS/src/kservice.c ****             ca += 'a' - 'A';
 1137              		.loc 1 369 23 is_stmt 0 view .LVU364
 1138 0018 A3F1410E 		sub	lr, r3, #65
 369:Middlewares/Third_Party/RealThread_RTOS/src/kservice.c ****             ca += 'a' - 'A';
 1139              		.loc 1 369 12 view .LVU365
 1140 001c BEF1190F 		cmp	lr, #25
 1141 0020 00D8     		bhi	.L118
 370:Middlewares/Third_Party/RealThread_RTOS/src/kservice.c ****         if (cb >= 'A' && cb <= 'Z')
 1142              		.loc 1 370 13 is_stmt 1 view .LVU366
 370:Middlewares/Third_Party/RealThread_RTOS/src/kservice.c ****         if (cb >= 'A' && cb <= 'Z')
 1143              		.loc 1 370 16 is_stmt 0 view .LVU367
 1144 0022 2033     		adds	r3, r3, #32
 1145              	.LVL143:
 1146              	.L118:
 371:Middlewares/Third_Party/RealThread_RTOS/src/kservice.c ****             cb += 'a' - 'A';
 1147              		.loc 1 371 9 is_stmt 1 view .LVU368
 371:Middlewares/Third_Party/RealThread_RTOS/src/kservice.c ****             cb += 'a' - 'A';
 1148              		.loc 1 371 23 is_stmt 0 view .LVU369
 1149 0024 A2F1410E 		sub	lr, r2, #65
 371:Middlewares/Third_Party/RealThread_RTOS/src/kservice.c ****             cb += 'a' - 'A';
 1150              		.loc 1 371 12 view .LVU370
 1151 0028 BEF1190F 		cmp	lr, #25
 1152 002c ECD8     		bhi	.L119
 371:Middlewares/Third_Party/RealThread_RTOS/src/kservice.c ****             cb += 'a' - 'A';
 1153              		.loc 1 371 12 view .LVU371
 1154 002e E9E7     		b	.L123
 1155              	.LVL144:
 1156              	.L120:
 376:Middlewares/Third_Party/RealThread_RTOS/src/kservice.c **** }
 1157              		.loc 1 376 5 is_stmt 1 view .LVU372
 377:Middlewares/Third_Party/RealThread_RTOS/src/kservice.c **** 
 1158              		.loc 1 377 1 is_stmt 0 view .LVU373
 1159 0030 A3EB0C00 		sub	r0, r3, ip
 1160              	.LVL145:
 377:Middlewares/Third_Party/RealThread_RTOS/src/kservice.c **** 
 1161              		.loc 1 377 1 view .LVU374
 1162 0034 5DF804FB 		ldr	pc, [sp], #4
 1163              		.cfi_endproc
 1164              	.LFE23:
 1166              		.section	.text.rt_strncpy,"ax",%progbits
 1167              		.align	1
 1168              		.global	rt_strncpy
 1169              		.syntax unified
 1170              		.thumb
 1171              		.thumb_func
 1172              		.fpu softvfp
ARM GAS  C:\Users\Administrator\AppData\Local\Temp\ccnljQWb.s 			page 40


 1174              	rt_strncpy:
 1175              	.LVL146:
 1176              	.LFB24:
 389:Middlewares/Third_Party/RealThread_RTOS/src/kservice.c ****     if (n != 0)
 1177              		.loc 1 389 1 is_stmt 1 view -0
 1178              		.cfi_startproc
 1179              		@ args = 0, pretend = 0, frame = 0
 1180              		@ frame_needed = 0, uses_anonymous_args = 0
 390:Middlewares/Third_Party/RealThread_RTOS/src/kservice.c ****     {
 1181              		.loc 1 390 5 view .LVU376
 390:Middlewares/Third_Party/RealThread_RTOS/src/kservice.c ****     {
 1182              		.loc 1 390 8 is_stmt 0 view .LVU377
 1183 0000 9AB1     		cbz	r2, .L132
 389:Middlewares/Third_Party/RealThread_RTOS/src/kservice.c ****     if (n != 0)
 1184              		.loc 1 389 1 view .LVU378
 1185 0002 10B5     		push	{r4, lr}
 1186              	.LCFI15:
 1187              		.cfi_def_cfa_offset 8
 1188              		.cfi_offset 4, -8
 1189              		.cfi_offset 14, -4
 1190 0004 9446     		mov	ip, r2
 1191              	.LBB8:
 392:Middlewares/Third_Party/RealThread_RTOS/src/kservice.c ****         const char *s = src;
 1192              		.loc 1 392 15 view .LVU379
 1193 0006 0346     		mov	r3, r0
 1194              	.LVL147:
 1195              	.L129:
 395:Middlewares/Third_Party/RealThread_RTOS/src/kservice.c ****         {
 1196              		.loc 1 395 9 is_stmt 1 view .LVU380
 397:Middlewares/Third_Party/RealThread_RTOS/src/kservice.c ****             {
 1197              		.loc 1 397 13 view .LVU381
 1198 0008 8E46     		mov	lr, r1
 397:Middlewares/Third_Party/RealThread_RTOS/src/kservice.c ****             {
 1199              		.loc 1 397 25 is_stmt 0 view .LVU382
 1200 000a 0C78     		ldrb	r4, [r1]	@ zero_extendqisi2
 1201 000c 0131     		adds	r1, r1, #1
 1202              	.LVL148:
 397:Middlewares/Third_Party/RealThread_RTOS/src/kservice.c ****             {
 1203              		.loc 1 397 23 view .LVU383
 1204 000e 1C70     		strb	r4, [r3]
 1205 0010 0133     		adds	r3, r3, #1
 1206              	.LVL149:
 397:Middlewares/Third_Party/RealThread_RTOS/src/kservice.c ****             {
 1207              		.loc 1 397 16 view .LVU384
 1208 0012 1CB1     		cbz	r4, .L126
 404:Middlewares/Third_Party/RealThread_RTOS/src/kservice.c ****     }
 1209              		.loc 1 404 17 is_stmt 1 view .LVU385
 1210              	.LVL150:
 404:Middlewares/Third_Party/RealThread_RTOS/src/kservice.c ****     }
 1211              		.loc 1 404 9 is_stmt 0 view .LVU386
 1212 0014 BCF1010C 		subs	ip, ip, #1
 1213              	.LVL151:
 404:Middlewares/Third_Party/RealThread_RTOS/src/kservice.c ****     }
 1214              		.loc 1 404 9 view .LVU387
 1215 0018 F6D1     		bne	.L129
 1216              	.LVL152:
 1217              	.L125:
ARM GAS  C:\Users\Administrator\AppData\Local\Temp\ccnljQWb.s 			page 41


 404:Middlewares/Third_Party/RealThread_RTOS/src/kservice.c ****     }
 1218              		.loc 1 404 9 view .LVU388
 1219              	.LBE8:
 407:Middlewares/Third_Party/RealThread_RTOS/src/kservice.c **** }
 1220              		.loc 1 407 5 is_stmt 1 view .LVU389
 408:Middlewares/Third_Party/RealThread_RTOS/src/kservice.c **** 
 1221              		.loc 1 408 1 is_stmt 0 view .LVU390
 1222 001a 10BD     		pop	{r4, pc}
 1223              	.L126:
 1224              	.LVL153:
 1225              	.LBB9:
 400:Middlewares/Third_Party/RealThread_RTOS/src/kservice.c ****                     *d++ = 0;
 1226              		.loc 1 400 23 is_stmt 1 view .LVU391
 400:Middlewares/Third_Party/RealThread_RTOS/src/kservice.c ****                     *d++ = 0;
 1227              		.loc 1 400 23 is_stmt 0 view .LVU392
 1228 001c BCF1010C 		subs	ip, ip, #1
 1229              	.LVL154:
 400:Middlewares/Third_Party/RealThread_RTOS/src/kservice.c ****                     *d++ = 0;
 1230              		.loc 1 400 23 view .LVU393
 1231 0020 FBD0     		beq	.L125
 401:Middlewares/Third_Party/RealThread_RTOS/src/kservice.c ****                 break;
 1232              		.loc 1 401 21 is_stmt 1 view .LVU394
 1233              	.LVL155:
 401:Middlewares/Third_Party/RealThread_RTOS/src/kservice.c ****                 break;
 1234              		.loc 1 401 26 is_stmt 0 view .LVU395
 1235 0022 0022     		movs	r2, #0
 1236 0024 03F8012B 		strb	r2, [r3], #1
 1237              	.LVL156:
 401:Middlewares/Third_Party/RealThread_RTOS/src/kservice.c ****                 break;
 1238              		.loc 1 401 26 view .LVU396
 1239 0028 F8E7     		b	.L126
 1240              	.LVL157:
 1241              	.L132:
 1242              	.LCFI16:
 1243              		.cfi_def_cfa_offset 0
 1244              		.cfi_restore 4
 1245              		.cfi_restore 14
 401:Middlewares/Third_Party/RealThread_RTOS/src/kservice.c ****                 break;
 1246              		.loc 1 401 26 view .LVU397
 1247              	.LBE9:
 407:Middlewares/Third_Party/RealThread_RTOS/src/kservice.c **** }
 1248              		.loc 1 407 5 is_stmt 1 view .LVU398
 408:Middlewares/Third_Party/RealThread_RTOS/src/kservice.c **** 
 1249              		.loc 1 408 1 is_stmt 0 view .LVU399
 1250 002a 7047     		bx	lr
 1251              		.cfi_endproc
 1252              	.LFE24:
 1254              		.section	.text.rt_strncmp,"ax",%progbits
 1255              		.align	1
 1256              		.global	rt_strncmp
 1257              		.syntax unified
 1258              		.thumb
 1259              		.thumb_func
 1260              		.fpu softvfp
 1262              	rt_strncmp:
 1263              	.LVL158:
 1264              	.LFB25:
ARM GAS  C:\Users\Administrator\AppData\Local\Temp\ccnljQWb.s 			page 42


 420:Middlewares/Third_Party/RealThread_RTOS/src/kservice.c ****     register signed char __res = 0;
 1265              		.loc 1 420 1 is_stmt 1 view -0
 1266              		.cfi_startproc
 1267              		@ args = 0, pretend = 0, frame = 0
 1268              		@ frame_needed = 0, uses_anonymous_args = 0
 1269              		@ link register save eliminated.
 420:Middlewares/Third_Party/RealThread_RTOS/src/kservice.c ****     register signed char __res = 0;
 1270              		.loc 1 420 1 is_stmt 0 view .LVU401
 1271 0000 0346     		mov	r3, r0
 421:Middlewares/Third_Party/RealThread_RTOS/src/kservice.c **** 
 1272              		.loc 1 421 5 is_stmt 1 view .LVU402
 1273              	.LVL159:
 423:Middlewares/Third_Party/RealThread_RTOS/src/kservice.c ****     {
 1274              		.loc 1 423 5 view .LVU403
 421:Middlewares/Third_Party/RealThread_RTOS/src/kservice.c **** 
 1275              		.loc 1 421 26 is_stmt 0 view .LVU404
 1276 0002 0020     		movs	r0, #0
 1277              	.LVL160:
 423:Middlewares/Third_Party/RealThread_RTOS/src/kservice.c ****     {
 1278              		.loc 1 423 11 is_stmt 1 view .LVU405
 1279 0004 6AB1     		cbz	r2, .L143
 420:Middlewares/Third_Party/RealThread_RTOS/src/kservice.c ****     register signed char __res = 0;
 1280              		.loc 1 420 1 is_stmt 0 view .LVU406
 1281 0006 10B4     		push	{r4}
 1282              	.LCFI17:
 1283              		.cfi_def_cfa_offset 4
 1284              		.cfi_offset 4, -4
 1285              	.L138:
 425:Middlewares/Third_Party/RealThread_RTOS/src/kservice.c ****             break;
 1286              		.loc 1 425 9 is_stmt 1 view .LVU407
 425:Middlewares/Third_Party/RealThread_RTOS/src/kservice.c ****             break;
 1287              		.loc 1 425 22 is_stmt 0 view .LVU408
 1288 0008 1C78     		ldrb	r4, [r3]	@ zero_extendqisi2
 1289              	.LVL161:
 425:Middlewares/Third_Party/RealThread_RTOS/src/kservice.c ****             break;
 1290              		.loc 1 425 28 view .LVU409
 1291 000a 11F8010B 		ldrb	r0, [r1], #1	@ zero_extendqisi2
 1292              	.LVL162:
 425:Middlewares/Third_Party/RealThread_RTOS/src/kservice.c ****             break;
 1293              		.loc 1 425 26 view .LVU410
 1294 000e 201A     		subs	r0, r4, r0
 425:Middlewares/Third_Party/RealThread_RTOS/src/kservice.c ****             break;
 1295              		.loc 1 425 20 view .LVU411
 1296 0010 40B2     		sxtb	r0, r0
 1297              	.LVL163:
 425:Middlewares/Third_Party/RealThread_RTOS/src/kservice.c ****             break;
 1298              		.loc 1 425 12 view .LVU412
 1299 0012 20B9     		cbnz	r0, .L137
 425:Middlewares/Third_Party/RealThread_RTOS/src/kservice.c ****             break;
 1300              		.loc 1 425 47 discriminator 1 view .LVU413
 1301 0014 0133     		adds	r3, r3, #1
 1302              	.LVL164:
 425:Middlewares/Third_Party/RealThread_RTOS/src/kservice.c ****             break;
 1303              		.loc 1 425 40 discriminator 1 view .LVU414
 1304 0016 14B1     		cbz	r4, .L137
 427:Middlewares/Third_Party/RealThread_RTOS/src/kservice.c ****     }
 1305              		.loc 1 427 9 is_stmt 1 view .LVU415
ARM GAS  C:\Users\Administrator\AppData\Local\Temp\ccnljQWb.s 			page 43


 427:Middlewares/Third_Party/RealThread_RTOS/src/kservice.c ****     }
 1306              		.loc 1 427 15 is_stmt 0 view .LVU416
 1307 0018 013A     		subs	r2, r2, #1
 1308              	.LVL165:
 423:Middlewares/Third_Party/RealThread_RTOS/src/kservice.c ****     {
 1309              		.loc 1 423 11 is_stmt 1 view .LVU417
 1310 001a 002A     		cmp	r2, #0
 1311 001c F4D1     		bne	.L138
 1312              	.L137:
 430:Middlewares/Third_Party/RealThread_RTOS/src/kservice.c **** }
 1313              		.loc 1 430 5 view .LVU418
 431:Middlewares/Third_Party/RealThread_RTOS/src/kservice.c **** 
 1314              		.loc 1 431 1 is_stmt 0 view .LVU419
 1315 001e 10BC     		pop	{r4}
 1316              	.LCFI18:
 1317              		.cfi_restore 4
 1318              		.cfi_def_cfa_offset 0
 1319 0020 7047     		bx	lr
 1320              	.L143:
 431:Middlewares/Third_Party/RealThread_RTOS/src/kservice.c **** 
 1321              		.loc 1 431 1 view .LVU420
 1322 0022 7047     		bx	lr
 1323              		.cfi_endproc
 1324              	.LFE25:
 1326              		.section	.text.rt_strcmp,"ax",%progbits
 1327              		.align	1
 1328              		.global	rt_strcmp
 1329              		.syntax unified
 1330              		.thumb
 1331              		.thumb_func
 1332              		.fpu softvfp
 1334              	rt_strcmp:
 1335              	.LVL166:
 1336              	.LFB26:
 442:Middlewares/Third_Party/RealThread_RTOS/src/kservice.c ****     while (*cs && *cs == *ct)
 1337              		.loc 1 442 1 is_stmt 1 view -0
 1338              		.cfi_startproc
 1339              		@ args = 0, pretend = 0, frame = 0
 1340              		@ frame_needed = 0, uses_anonymous_args = 0
 1341              		@ link register save eliminated.
 443:Middlewares/Third_Party/RealThread_RTOS/src/kservice.c ****     {
 1342              		.loc 1 443 5 view .LVU422
 443:Middlewares/Third_Party/RealThread_RTOS/src/kservice.c ****     {
 1343              		.loc 1 443 11 is_stmt 0 view .LVU423
 1344 0000 01E0     		b	.L145
 1345              	.L147:
 445:Middlewares/Third_Party/RealThread_RTOS/src/kservice.c ****         ct++;
 1346              		.loc 1 445 9 is_stmt 1 view .LVU424
 445:Middlewares/Third_Party/RealThread_RTOS/src/kservice.c ****         ct++;
 1347              		.loc 1 445 11 is_stmt 0 view .LVU425
 1348 0002 0130     		adds	r0, r0, #1
 1349              	.LVL167:
 446:Middlewares/Third_Party/RealThread_RTOS/src/kservice.c ****     }
 1350              		.loc 1 446 9 is_stmt 1 view .LVU426
 446:Middlewares/Third_Party/RealThread_RTOS/src/kservice.c ****     }
 1351              		.loc 1 446 11 is_stmt 0 view .LVU427
 1352 0004 0131     		adds	r1, r1, #1
ARM GAS  C:\Users\Administrator\AppData\Local\Temp\ccnljQWb.s 			page 44


 1353              	.LVL168:
 1354              	.L145:
 443:Middlewares/Third_Party/RealThread_RTOS/src/kservice.c ****     {
 1355              		.loc 1 443 11 is_stmt 1 view .LVU428
 443:Middlewares/Third_Party/RealThread_RTOS/src/kservice.c ****     {
 1356              		.loc 1 443 12 is_stmt 0 view .LVU429
 1357 0006 0378     		ldrb	r3, [r0]	@ zero_extendqisi2
 443:Middlewares/Third_Party/RealThread_RTOS/src/kservice.c ****     {
 1358              		.loc 1 443 11 view .LVU430
 1359 0008 13B1     		cbz	r3, .L146
 443:Middlewares/Third_Party/RealThread_RTOS/src/kservice.c ****     {
 1360              		.loc 1 443 26 discriminator 1 view .LVU431
 1361 000a 0A78     		ldrb	r2, [r1]	@ zero_extendqisi2
 443:Middlewares/Third_Party/RealThread_RTOS/src/kservice.c ****     {
 1362              		.loc 1 443 16 discriminator 1 view .LVU432
 1363 000c 9342     		cmp	r3, r2
 1364 000e F8D0     		beq	.L147
 1365              	.L146:
 449:Middlewares/Third_Party/RealThread_RTOS/src/kservice.c **** }
 1366              		.loc 1 449 5 is_stmt 1 view .LVU433
 449:Middlewares/Third_Party/RealThread_RTOS/src/kservice.c **** }
 1367              		.loc 1 449 19 is_stmt 0 view .LVU434
 1368 0010 0878     		ldrb	r0, [r1]	@ zero_extendqisi2
 1369              	.LVL169:
 450:Middlewares/Third_Party/RealThread_RTOS/src/kservice.c **** 
 1370              		.loc 1 450 1 view .LVU435
 1371 0012 181A     		subs	r0, r3, r0
 1372 0014 7047     		bx	lr
 1373              		.cfi_endproc
 1374              	.LFE26:
 1376              		.section	.text.rt_strnlen,"ax",%progbits
 1377              		.align	1
 1378              		.global	rt_strnlen
 1379              		.syntax unified
 1380              		.thumb
 1381              		.thumb_func
 1382              		.fpu softvfp
 1384              	rt_strnlen:
 1385              	.LVL170:
 1386              	.LFB27:
 464:Middlewares/Third_Party/RealThread_RTOS/src/kservice.c ****     const char *sc;
 1387              		.loc 1 464 1 is_stmt 1 view -0
 1388              		.cfi_startproc
 1389              		@ args = 0, pretend = 0, frame = 0
 1390              		@ frame_needed = 0, uses_anonymous_args = 0
 1391              		@ link register save eliminated.
 465:Middlewares/Third_Party/RealThread_RTOS/src/kservice.c **** 
 1392              		.loc 1 465 5 view .LVU437
 467:Middlewares/Third_Party/RealThread_RTOS/src/kservice.c ****         ;
 1393              		.loc 1 467 5 view .LVU438
 467:Middlewares/Third_Party/RealThread_RTOS/src/kservice.c ****         ;
 1394              		.loc 1 467 13 is_stmt 0 view .LVU439
 1395 0000 0346     		mov	r3, r0
 467:Middlewares/Third_Party/RealThread_RTOS/src/kservice.c ****         ;
 1396              		.loc 1 467 5 view .LVU440
 1397 0002 00E0     		b	.L149
 1398              	.LVL171:
ARM GAS  C:\Users\Administrator\AppData\Local\Temp\ccnljQWb.s 			page 45


 1399              	.L151:
 468:Middlewares/Third_Party/RealThread_RTOS/src/kservice.c **** 
 1400              		.loc 1 468 9 is_stmt 1 discriminator 4 view .LVU441
 467:Middlewares/Third_Party/RealThread_RTOS/src/kservice.c ****         ;
 1401              		.loc 1 467 64 discriminator 4 view .LVU442
 1402 0004 0133     		adds	r3, r3, #1
 1403              	.LVL172:
 1404              	.L149:
 467:Middlewares/Third_Party/RealThread_RTOS/src/kservice.c ****         ;
 1405              		.loc 1 467 18 discriminator 1 view .LVU443
 1406 0006 1A78     		ldrb	r2, [r3]	@ zero_extendqisi2
 467:Middlewares/Third_Party/RealThread_RTOS/src/kservice.c ****         ;
 1407              		.loc 1 467 5 is_stmt 0 discriminator 1 view .LVU444
 1408 0008 12B1     		cbz	r2, .L150
 467:Middlewares/Third_Party/RealThread_RTOS/src/kservice.c ****         ;
 1409              		.loc 1 467 49 discriminator 3 view .LVU445
 1410 000a 1A1A     		subs	r2, r3, r0
 467:Middlewares/Third_Party/RealThread_RTOS/src/kservice.c ****         ;
 1411              		.loc 1 467 30 discriminator 3 view .LVU446
 1412 000c 8A42     		cmp	r2, r1
 1413 000e F9D3     		bcc	.L151
 1414              	.L150:
 470:Middlewares/Third_Party/RealThread_RTOS/src/kservice.c **** }
 1415              		.loc 1 470 5 is_stmt 1 view .LVU447
 471:Middlewares/Third_Party/RealThread_RTOS/src/kservice.c **** 
 1416              		.loc 1 471 1 is_stmt 0 view .LVU448
 1417 0010 181A     		subs	r0, r3, r0
 1418              	.LVL173:
 471:Middlewares/Third_Party/RealThread_RTOS/src/kservice.c **** 
 1419              		.loc 1 471 1 view .LVU449
 1420 0012 7047     		bx	lr
 1421              		.cfi_endproc
 1422              	.LFE27:
 1424              		.section	.text.rt_strlen,"ax",%progbits
 1425              		.align	1
 1426              		.global	rt_strlen
 1427              		.syntax unified
 1428              		.thumb
 1429              		.thumb_func
 1430              		.fpu softvfp
 1432              	rt_strlen:
 1433              	.LVL174:
 1434              	.LFB28:
 482:Middlewares/Third_Party/RealThread_RTOS/src/kservice.c ****     const char *sc;
 1435              		.loc 1 482 1 is_stmt 1 view -0
 1436              		.cfi_startproc
 1437              		@ args = 0, pretend = 0, frame = 0
 1438              		@ frame_needed = 0, uses_anonymous_args = 0
 1439              		@ link register save eliminated.
 483:Middlewares/Third_Party/RealThread_RTOS/src/kservice.c **** 
 1440              		.loc 1 483 5 view .LVU451
 485:Middlewares/Third_Party/RealThread_RTOS/src/kservice.c ****         ;
 1441              		.loc 1 485 5 view .LVU452
 485:Middlewares/Third_Party/RealThread_RTOS/src/kservice.c ****         ;
 1442              		.loc 1 485 13 is_stmt 0 view .LVU453
 1443 0000 0346     		mov	r3, r0
 485:Middlewares/Third_Party/RealThread_RTOS/src/kservice.c ****         ;
ARM GAS  C:\Users\Administrator\AppData\Local\Temp\ccnljQWb.s 			page 46


 1444              		.loc 1 485 5 view .LVU454
 1445 0002 00E0     		b	.L153
 1446              	.LVL175:
 1447              	.L154:
 486:Middlewares/Third_Party/RealThread_RTOS/src/kservice.c **** 
 1448              		.loc 1 486 9 is_stmt 1 discriminator 3 view .LVU455
 485:Middlewares/Third_Party/RealThread_RTOS/src/kservice.c ****         ;
 1449              		.loc 1 485 31 discriminator 3 view .LVU456
 1450 0004 0133     		adds	r3, r3, #1
 1451              	.LVL176:
 1452              	.L153:
 485:Middlewares/Third_Party/RealThread_RTOS/src/kservice.c ****         ;
 1453              		.loc 1 485 18 discriminator 1 view .LVU457
 1454 0006 1A78     		ldrb	r2, [r3]	@ zero_extendqisi2
 485:Middlewares/Third_Party/RealThread_RTOS/src/kservice.c ****         ;
 1455              		.loc 1 485 5 is_stmt 0 discriminator 1 view .LVU458
 1456 0008 002A     		cmp	r2, #0
 1457 000a FBD1     		bne	.L154
 488:Middlewares/Third_Party/RealThread_RTOS/src/kservice.c **** }
 1458              		.loc 1 488 5 is_stmt 1 view .LVU459
 489:Middlewares/Third_Party/RealThread_RTOS/src/kservice.c **** 
 1459              		.loc 1 489 1 is_stmt 0 view .LVU460
 1460 000c 181A     		subs	r0, r3, r0
 1461              	.LVL177:
 489:Middlewares/Third_Party/RealThread_RTOS/src/kservice.c **** 
 1462              		.loc 1 489 1 view .LVU461
 1463 000e 7047     		bx	lr
 1464              		.cfi_endproc
 1465              	.LFE28:
 1467              		.section	.text.rt_strstr,"ax",%progbits
 1468              		.align	1
 1469              		.global	rt_strstr
 1470              		.syntax unified
 1471              		.thumb
 1472              		.thumb_func
 1473              		.fpu softvfp
 1475              	rt_strstr:
 1476              	.LVL178:
 1477              	.LFB22:
 335:Middlewares/Third_Party/RealThread_RTOS/src/kservice.c ****     int l1, l2;
 1478              		.loc 1 335 1 is_stmt 1 view -0
 1479              		.cfi_startproc
 1480              		@ args = 0, pretend = 0, frame = 0
 1481              		@ frame_needed = 0, uses_anonymous_args = 0
 335:Middlewares/Third_Party/RealThread_RTOS/src/kservice.c ****     int l1, l2;
 1482              		.loc 1 335 1 is_stmt 0 view .LVU463
 1483 0000 F8B5     		push	{r3, r4, r5, r6, r7, lr}
 1484              	.LCFI19:
 1485              		.cfi_def_cfa_offset 24
 1486              		.cfi_offset 3, -24
 1487              		.cfi_offset 4, -20
 1488              		.cfi_offset 5, -16
 1489              		.cfi_offset 6, -12
 1490              		.cfi_offset 7, -8
 1491              		.cfi_offset 14, -4
 1492 0002 0446     		mov	r4, r0
 1493 0004 0F46     		mov	r7, r1
ARM GAS  C:\Users\Administrator\AppData\Local\Temp\ccnljQWb.s 			page 47


 336:Middlewares/Third_Party/RealThread_RTOS/src/kservice.c **** 
 1494              		.loc 1 336 5 is_stmt 1 view .LVU464
 338:Middlewares/Third_Party/RealThread_RTOS/src/kservice.c ****     if (!l2)
 1495              		.loc 1 338 5 view .LVU465
 338:Middlewares/Third_Party/RealThread_RTOS/src/kservice.c ****     if (!l2)
 1496              		.loc 1 338 10 is_stmt 0 view .LVU466
 1497 0006 0846     		mov	r0, r1
 1498              	.LVL179:
 338:Middlewares/Third_Party/RealThread_RTOS/src/kservice.c ****     if (!l2)
 1499              		.loc 1 338 10 view .LVU467
 1500 0008 FFF7FEFF 		bl	rt_strlen
 1501              	.LVL180:
 339:Middlewares/Third_Party/RealThread_RTOS/src/kservice.c ****         return (char *)s1;
 1502              		.loc 1 339 5 is_stmt 1 view .LVU468
 339:Middlewares/Third_Party/RealThread_RTOS/src/kservice.c ****         return (char *)s1;
 1503              		.loc 1 339 8 is_stmt 0 view .LVU469
 1504 000c 08B9     		cbnz	r0, .L160
 1505              	.LVL181:
 1506              	.L156:
 351:Middlewares/Third_Party/RealThread_RTOS/src/kservice.c **** 
 1507              		.loc 1 351 1 view .LVU470
 1508 000e 2046     		mov	r0, r4
 1509 0010 F8BD     		pop	{r3, r4, r5, r6, r7, pc}
 1510              	.LVL182:
 1511              	.L160:
 351:Middlewares/Third_Party/RealThread_RTOS/src/kservice.c **** 
 1512              		.loc 1 351 1 view .LVU471
 1513 0012 0646     		mov	r6, r0
 341:Middlewares/Third_Party/RealThread_RTOS/src/kservice.c ****     while (l1 >= l2)
 1514              		.loc 1 341 5 is_stmt 1 view .LVU472
 341:Middlewares/Third_Party/RealThread_RTOS/src/kservice.c ****     while (l1 >= l2)
 1515              		.loc 1 341 10 is_stmt 0 view .LVU473
 1516 0014 2046     		mov	r0, r4
 1517              	.LVL183:
 341:Middlewares/Third_Party/RealThread_RTOS/src/kservice.c ****     while (l1 >= l2)
 1518              		.loc 1 341 10 view .LVU474
 1519 0016 FFF7FEFF 		bl	rt_strlen
 1520              	.LVL184:
 1521 001a 0546     		mov	r5, r0
 1522              	.LVL185:
 342:Middlewares/Third_Party/RealThread_RTOS/src/kservice.c ****     {
 1523              		.loc 1 342 5 is_stmt 1 view .LVU475
 1524              	.L157:
 342:Middlewares/Third_Party/RealThread_RTOS/src/kservice.c ****     {
 1525              		.loc 1 342 11 view .LVU476
 1526 001c B542     		cmp	r5, r6
 1527 001e 09DB     		blt	.L161
 344:Middlewares/Third_Party/RealThread_RTOS/src/kservice.c ****         if (!rt_memcmp(s1, s2, l2))
 1528              		.loc 1 344 9 view .LVU477
 344:Middlewares/Third_Party/RealThread_RTOS/src/kservice.c ****         if (!rt_memcmp(s1, s2, l2))
 1529              		.loc 1 344 12 is_stmt 0 view .LVU478
 1530 0020 013D     		subs	r5, r5, #1
 1531              	.LVL186:
 345:Middlewares/Third_Party/RealThread_RTOS/src/kservice.c ****             return (char *)s1;
 1532              		.loc 1 345 9 is_stmt 1 view .LVU479
 345:Middlewares/Third_Party/RealThread_RTOS/src/kservice.c ****             return (char *)s1;
 1533              		.loc 1 345 14 is_stmt 0 view .LVU480
ARM GAS  C:\Users\Administrator\AppData\Local\Temp\ccnljQWb.s 			page 48


 1534 0022 3246     		mov	r2, r6
 1535 0024 3946     		mov	r1, r7
 1536 0026 2046     		mov	r0, r4
 1537 0028 FFF7FEFF 		bl	rt_memcmp
 1538              	.LVL187:
 345:Middlewares/Third_Party/RealThread_RTOS/src/kservice.c ****             return (char *)s1;
 1539              		.loc 1 345 12 view .LVU481
 1540 002c 0028     		cmp	r0, #0
 1541 002e EED0     		beq	.L156
 347:Middlewares/Third_Party/RealThread_RTOS/src/kservice.c ****     }
 1542              		.loc 1 347 9 is_stmt 1 view .LVU482
 347:Middlewares/Third_Party/RealThread_RTOS/src/kservice.c ****     }
 1543              		.loc 1 347 12 is_stmt 0 view .LVU483
 1544 0030 0134     		adds	r4, r4, #1
 1545              	.LVL188:
 347:Middlewares/Third_Party/RealThread_RTOS/src/kservice.c ****     }
 1546              		.loc 1 347 12 view .LVU484
 1547 0032 F3E7     		b	.L157
 1548              	.L161:
 350:Middlewares/Third_Party/RealThread_RTOS/src/kservice.c **** }
 1549              		.loc 1 350 12 view .LVU485
 1550 0034 0024     		movs	r4, #0
 1551              	.LVL189:
 350:Middlewares/Third_Party/RealThread_RTOS/src/kservice.c **** }
 1552              		.loc 1 350 12 view .LVU486
 1553 0036 EAE7     		b	.L156
 1554              		.cfi_endproc
 1555              	.LFE22:
 1557              		.section	.text.rt_strdup,"ax",%progbits
 1558              		.align	1
 1559              		.global	rt_strdup
 1560              		.syntax unified
 1561              		.thumb
 1562              		.thumb_func
 1563              		.fpu softvfp
 1565              	rt_strdup:
 1566              	.LVL190:
 1567              	.LFB29:
 500:Middlewares/Third_Party/RealThread_RTOS/src/kservice.c ****     rt_size_t len = rt_strlen(s) + 1;
 1568              		.loc 1 500 1 is_stmt 1 view -0
 1569              		.cfi_startproc
 1570              		@ args = 0, pretend = 0, frame = 0
 1571              		@ frame_needed = 0, uses_anonymous_args = 0
 500:Middlewares/Third_Party/RealThread_RTOS/src/kservice.c ****     rt_size_t len = rt_strlen(s) + 1;
 1572              		.loc 1 500 1 is_stmt 0 view .LVU488
 1573 0000 70B5     		push	{r4, r5, r6, lr}
 1574              	.LCFI20:
 1575              		.cfi_def_cfa_offset 16
 1576              		.cfi_offset 4, -16
 1577              		.cfi_offset 5, -12
 1578              		.cfi_offset 6, -8
 1579              		.cfi_offset 14, -4
 1580 0002 0546     		mov	r5, r0
 501:Middlewares/Third_Party/RealThread_RTOS/src/kservice.c ****     char *tmp = (char *)rt_malloc(len);
 1581              		.loc 1 501 5 is_stmt 1 view .LVU489
 501:Middlewares/Third_Party/RealThread_RTOS/src/kservice.c ****     char *tmp = (char *)rt_malloc(len);
 1582              		.loc 1 501 21 is_stmt 0 view .LVU490
ARM GAS  C:\Users\Administrator\AppData\Local\Temp\ccnljQWb.s 			page 49


 1583 0004 FFF7FEFF 		bl	rt_strlen
 1584              	.LVL191:
 501:Middlewares/Third_Party/RealThread_RTOS/src/kservice.c ****     char *tmp = (char *)rt_malloc(len);
 1585              		.loc 1 501 15 view .LVU491
 1586 0008 441C     		adds	r4, r0, #1
 1587              	.LVL192:
 502:Middlewares/Third_Party/RealThread_RTOS/src/kservice.c **** 
 1588              		.loc 1 502 5 is_stmt 1 view .LVU492
 502:Middlewares/Third_Party/RealThread_RTOS/src/kservice.c **** 
 1589              		.loc 1 502 25 is_stmt 0 view .LVU493
 1590 000a 2046     		mov	r0, r4
 1591 000c FFF7FEFF 		bl	rt_malloc
 1592              	.LVL193:
 504:Middlewares/Third_Party/RealThread_RTOS/src/kservice.c ****         return RT_NULL;
 1593              		.loc 1 504 5 is_stmt 1 view .LVU494
 504:Middlewares/Third_Party/RealThread_RTOS/src/kservice.c ****         return RT_NULL;
 1594              		.loc 1 504 8 is_stmt 0 view .LVU495
 1595 0010 0646     		mov	r6, r0
 1596 0012 18B1     		cbz	r0, .L162
 507:Middlewares/Third_Party/RealThread_RTOS/src/kservice.c **** 
 1597              		.loc 1 507 5 is_stmt 1 view .LVU496
 1598 0014 2246     		mov	r2, r4
 1599 0016 2946     		mov	r1, r5
 1600 0018 FFF7FEFF 		bl	rt_memcpy
 1601              	.LVL194:
 509:Middlewares/Third_Party/RealThread_RTOS/src/kservice.c **** }
 1602              		.loc 1 509 5 view .LVU497
 1603              	.L162:
 510:Middlewares/Third_Party/RealThread_RTOS/src/kservice.c **** 
 1604              		.loc 1 510 1 is_stmt 0 view .LVU498
 1605 001c 3046     		mov	r0, r6
 1606 001e 70BD     		pop	{r4, r5, r6, pc}
 510:Middlewares/Third_Party/RealThread_RTOS/src/kservice.c **** 
 1607              		.loc 1 510 1 view .LVU499
 1608              		.cfi_endproc
 1609              	.LFE29:
 1611              		.section	.rodata.rt_vsnprintf.str1.4,"aMS",%progbits,1
 1612              		.align	2
 1613              	.LC0:
 1614 0000 284E554C 		.ascii	"(NULL)\000"
 1614      4C2900
 1615              		.section	.text.rt_vsnprintf,"ax",%progbits
 1616              		.align	1
 1617              		.global	rt_vsnprintf
 1618              		.syntax unified
 1619              		.thumb
 1620              		.thumb_func
 1621              		.fpu softvfp
 1623              	rt_vsnprintf:
 1624              	.LVL195:
 1625              	.LFB34:
 760:Middlewares/Third_Party/RealThread_RTOS/src/kservice.c **** 
 761:Middlewares/Third_Party/RealThread_RTOS/src/kservice.c **** rt_int32_t rt_vsnprintf(char       *buf,
 762:Middlewares/Third_Party/RealThread_RTOS/src/kservice.c ****                         rt_size_t   size,
 763:Middlewares/Third_Party/RealThread_RTOS/src/kservice.c ****                         const char *fmt,
 764:Middlewares/Third_Party/RealThread_RTOS/src/kservice.c ****                         va_list     args)
 765:Middlewares/Third_Party/RealThread_RTOS/src/kservice.c **** {
ARM GAS  C:\Users\Administrator\AppData\Local\Temp\ccnljQWb.s 			page 50


 1626              		.loc 1 765 1 is_stmt 1 view -0
 1627              		.cfi_startproc
 1628              		@ args = 0, pretend = 0, frame = 8
 1629              		@ frame_needed = 0, uses_anonymous_args = 0
 1630              		.loc 1 765 1 is_stmt 0 view .LVU501
 1631 0000 2DE9F041 		push	{r4, r5, r6, r7, r8, lr}
 1632              	.LCFI21:
 1633              		.cfi_def_cfa_offset 24
 1634              		.cfi_offset 4, -24
 1635              		.cfi_offset 5, -20
 1636              		.cfi_offset 6, -16
 1637              		.cfi_offset 7, -12
 1638              		.cfi_offset 8, -8
 1639              		.cfi_offset 14, -4
 1640 0004 86B0     		sub	sp, sp, #24
 1641              	.LCFI22:
 1642              		.cfi_def_cfa_offset 48
 1643 0006 0746     		mov	r7, r0
 1644 0008 8846     		mov	r8, r1
 1645 000a 1446     		mov	r4, r2
 1646 000c 0593     		str	r3, [sp, #20]
 766:Middlewares/Third_Party/RealThread_RTOS/src/kservice.c **** #ifdef RT_PRINTF_LONGLONG
 767:Middlewares/Third_Party/RealThread_RTOS/src/kservice.c ****     unsigned long long num;
 768:Middlewares/Third_Party/RealThread_RTOS/src/kservice.c **** #else
 769:Middlewares/Third_Party/RealThread_RTOS/src/kservice.c ****     rt_uint32_t num;
 1647              		.loc 1 769 5 is_stmt 1 view .LVU502
 770:Middlewares/Third_Party/RealThread_RTOS/src/kservice.c **** #endif
 771:Middlewares/Third_Party/RealThread_RTOS/src/kservice.c ****     int i, len;
 1648              		.loc 1 771 5 view .LVU503
 772:Middlewares/Third_Party/RealThread_RTOS/src/kservice.c ****     char *str, *end, c;
 1649              		.loc 1 772 5 view .LVU504
 773:Middlewares/Third_Party/RealThread_RTOS/src/kservice.c ****     const char *s;
 1650              		.loc 1 773 5 view .LVU505
 774:Middlewares/Third_Party/RealThread_RTOS/src/kservice.c **** 
 775:Middlewares/Third_Party/RealThread_RTOS/src/kservice.c ****     rt_uint8_t base;            /* the base of number */
 1651              		.loc 1 775 5 view .LVU506
 776:Middlewares/Third_Party/RealThread_RTOS/src/kservice.c ****     rt_uint8_t flags;           /* flags to print number */
 1652              		.loc 1 776 5 view .LVU507
 777:Middlewares/Third_Party/RealThread_RTOS/src/kservice.c ****     rt_uint8_t qualifier;       /* 'h', 'l', or 'L' for integer fields */
 1653              		.loc 1 777 5 view .LVU508
 778:Middlewares/Third_Party/RealThread_RTOS/src/kservice.c ****     rt_int32_t field_width;     /* width of output field */
 1654              		.loc 1 778 5 view .LVU509
 779:Middlewares/Third_Party/RealThread_RTOS/src/kservice.c **** 
 780:Middlewares/Third_Party/RealThread_RTOS/src/kservice.c **** #ifdef RT_PRINTF_PRECISION
 781:Middlewares/Third_Party/RealThread_RTOS/src/kservice.c ****     int precision;      /* min. # of digits for integers and max for a string */
 1655              		.loc 1 781 5 view .LVU510
 782:Middlewares/Third_Party/RealThread_RTOS/src/kservice.c **** #endif
 783:Middlewares/Third_Party/RealThread_RTOS/src/kservice.c **** 
 784:Middlewares/Third_Party/RealThread_RTOS/src/kservice.c ****     str = buf;
 1656              		.loc 1 784 5 view .LVU511
 1657              	.LVL196:
 785:Middlewares/Third_Party/RealThread_RTOS/src/kservice.c ****     end = buf + size;
 1658              		.loc 1 785 5 view .LVU512
 786:Middlewares/Third_Party/RealThread_RTOS/src/kservice.c **** 
 787:Middlewares/Third_Party/RealThread_RTOS/src/kservice.c ****     /* Make sure end is always >= buf */
 788:Middlewares/Third_Party/RealThread_RTOS/src/kservice.c ****     if (end < buf)
 1659              		.loc 1 788 5 view .LVU513
ARM GAS  C:\Users\Administrator\AppData\Local\Temp\ccnljQWb.s 			page 51


 1660              		.loc 1 788 8 is_stmt 0 view .LVU514
 1661 000e 4618     		adds	r6, r0, r1
 1662              	.LVL197:
 1663              		.loc 1 788 8 view .LVU515
 1664 0010 03D3     		bcc	.L166
 789:Middlewares/Third_Party/RealThread_RTOS/src/kservice.c ****     {
 790:Middlewares/Third_Party/RealThread_RTOS/src/kservice.c ****         end  = ((char *) - 1);
 1665              		.loc 1 790 9 is_stmt 1 view .LVU516
 1666              	.LVL198:
 791:Middlewares/Third_Party/RealThread_RTOS/src/kservice.c ****         size = end - buf;
 1667              		.loc 1 791 9 view .LVU517
 1668              		.loc 1 791 20 is_stmt 0 view .LVU518
 1669 0012 6FEA0008 		mvn	r8, r0
 1670              	.LVL199:
 790:Middlewares/Third_Party/RealThread_RTOS/src/kservice.c ****         size = end - buf;
 1671              		.loc 1 790 14 view .LVU519
 1672 0016 4FF0FF36 		mov	r6, #-1
 1673              	.LVL200:
 1674              	.L166:
 790:Middlewares/Third_Party/RealThread_RTOS/src/kservice.c ****         size = end - buf;
 1675              		.loc 1 790 14 discriminator 1 view .LVU520
 1676 001a 3846     		mov	r0, r7
 1677              	.LVL201:
 790:Middlewares/Third_Party/RealThread_RTOS/src/kservice.c ****         size = end - buf;
 1678              		.loc 1 790 14 discriminator 1 view .LVU521
 1679 001c 01E0     		b	.L230
 1680              	.LVL202:
 1681              	.L168:
 792:Middlewares/Third_Party/RealThread_RTOS/src/kservice.c ****     }
 793:Middlewares/Third_Party/RealThread_RTOS/src/kservice.c **** 
 794:Middlewares/Third_Party/RealThread_RTOS/src/kservice.c ****     for (; *fmt ; ++fmt)
 795:Middlewares/Third_Party/RealThread_RTOS/src/kservice.c ****     {
 796:Middlewares/Third_Party/RealThread_RTOS/src/kservice.c ****         if (*fmt != '%')
 797:Middlewares/Third_Party/RealThread_RTOS/src/kservice.c ****         {
 798:Middlewares/Third_Party/RealThread_RTOS/src/kservice.c ****             if (str < end)
 799:Middlewares/Third_Party/RealThread_RTOS/src/kservice.c ****                 *str = *fmt;
 800:Middlewares/Third_Party/RealThread_RTOS/src/kservice.c ****             ++ str;
 1682              		.loc 1 800 13 is_stmt 1 view .LVU522
 1683 001e 0130     		adds	r0, r0, #1
 1684              	.LVL203:
 801:Middlewares/Third_Party/RealThread_RTOS/src/kservice.c ****             continue;
 1685              		.loc 1 801 13 view .LVU523
 1686              	.L169:
 794:Middlewares/Third_Party/RealThread_RTOS/src/kservice.c ****     {
 1687              		.loc 1 794 19 view .LVU524
 1688 0020 0134     		adds	r4, r4, #1
 1689              	.LVL204:
 1690              	.L230:
 794:Middlewares/Third_Party/RealThread_RTOS/src/kservice.c ****     {
 1691              		.loc 1 794 12 discriminator 1 view .LVU525
 1692 0022 2378     		ldrb	r3, [r4]	@ zero_extendqisi2
 794:Middlewares/Third_Party/RealThread_RTOS/src/kservice.c ****     {
 1693              		.loc 1 794 5 is_stmt 0 discriminator 1 view .LVU526
 1694 0024 002B     		cmp	r3, #0
 1695 0026 00F05681 		beq	.L248
 796:Middlewares/Third_Party/RealThread_RTOS/src/kservice.c ****         {
 1696              		.loc 1 796 9 is_stmt 1 view .LVU527
ARM GAS  C:\Users\Administrator\AppData\Local\Temp\ccnljQWb.s 			page 52


 796:Middlewares/Third_Party/RealThread_RTOS/src/kservice.c ****         {
 1697              		.loc 1 796 12 is_stmt 0 view .LVU528
 1698 002a 252B     		cmp	r3, #37
 1699 002c 03D0     		beq	.L234
 798:Middlewares/Third_Party/RealThread_RTOS/src/kservice.c ****                 *str = *fmt;
 1700              		.loc 1 798 13 is_stmt 1 view .LVU529
 798:Middlewares/Third_Party/RealThread_RTOS/src/kservice.c ****                 *str = *fmt;
 1701              		.loc 1 798 16 is_stmt 0 view .LVU530
 1702 002e B042     		cmp	r0, r6
 1703 0030 F5D2     		bcs	.L168
 799:Middlewares/Third_Party/RealThread_RTOS/src/kservice.c ****             ++ str;
 1704              		.loc 1 799 17 is_stmt 1 view .LVU531
 799:Middlewares/Third_Party/RealThread_RTOS/src/kservice.c ****             ++ str;
 1705              		.loc 1 799 22 is_stmt 0 view .LVU532
 1706 0032 0370     		strb	r3, [r0]
 1707 0034 F3E7     		b	.L168
 1708              	.L234:
 802:Middlewares/Third_Party/RealThread_RTOS/src/kservice.c ****         }
 803:Middlewares/Third_Party/RealThread_RTOS/src/kservice.c **** 
 804:Middlewares/Third_Party/RealThread_RTOS/src/kservice.c ****         /* process flags */
 805:Middlewares/Third_Party/RealThread_RTOS/src/kservice.c ****         flags = 0;
 1709              		.loc 1 805 15 view .LVU533
 1710 0036 0021     		movs	r1, #0
 1711 0038 01E0     		b	.L167
 1712              	.LVL205:
 1713              	.L249:
 806:Middlewares/Third_Party/RealThread_RTOS/src/kservice.c **** 
 807:Middlewares/Third_Party/RealThread_RTOS/src/kservice.c ****         while (1)
 808:Middlewares/Third_Party/RealThread_RTOS/src/kservice.c ****         {
 809:Middlewares/Third_Party/RealThread_RTOS/src/kservice.c ****             /* skips the first '%' also */
 810:Middlewares/Third_Party/RealThread_RTOS/src/kservice.c ****             ++ fmt;
 811:Middlewares/Third_Party/RealThread_RTOS/src/kservice.c ****             if (*fmt == '-') flags |= LEFT;
 1714              		.loc 1 811 30 is_stmt 1 discriminator 1 view .LVU534
 1715              		.loc 1 811 36 is_stmt 0 discriminator 1 view .LVU535
 1716 003a 41F01001 		orr	r1, r1, #16
 1717              	.LVL206:
 1718              	.L167:
 807:Middlewares/Third_Party/RealThread_RTOS/src/kservice.c ****         {
 1719              		.loc 1 807 9 is_stmt 1 view .LVU536
 810:Middlewares/Third_Party/RealThread_RTOS/src/kservice.c ****             if (*fmt == '-') flags |= LEFT;
 1720              		.loc 1 810 13 view .LVU537
 1721              		.loc 1 811 13 view .LVU538
 1722              		.loc 1 811 17 is_stmt 0 view .LVU539
 1723 003e 14F8013F 		ldrb	r3, [r4, #1]!	@ zero_extendqisi2
 1724              	.LVL207:
 1725              		.loc 1 811 16 view .LVU540
 1726 0042 2D2B     		cmp	r3, #45
 1727 0044 F9D0     		beq	.L249
 812:Middlewares/Third_Party/RealThread_RTOS/src/kservice.c ****             else if (*fmt == '+') flags |= PLUS;
 1728              		.loc 1 812 18 is_stmt 1 view .LVU541
 1729              		.loc 1 812 21 is_stmt 0 view .LVU542
 1730 0046 2B2B     		cmp	r3, #43
 1731 0048 08D0     		beq	.L250
 813:Middlewares/Third_Party/RealThread_RTOS/src/kservice.c ****             else if (*fmt == ' ') flags |= SPACE;
 1732              		.loc 1 813 18 is_stmt 1 view .LVU543
 1733              		.loc 1 813 21 is_stmt 0 view .LVU544
 1734 004a 202B     		cmp	r3, #32
ARM GAS  C:\Users\Administrator\AppData\Local\Temp\ccnljQWb.s 			page 53


 1735 004c 09D0     		beq	.L251
 814:Middlewares/Third_Party/RealThread_RTOS/src/kservice.c ****             else if (*fmt == '#') flags |= SPECIAL;
 1736              		.loc 1 814 18 is_stmt 1 view .LVU545
 1737              		.loc 1 814 21 is_stmt 0 view .LVU546
 1738 004e 232B     		cmp	r3, #35
 1739 0050 0AD0     		beq	.L252
 815:Middlewares/Third_Party/RealThread_RTOS/src/kservice.c ****             else if (*fmt == '0') flags |= ZEROPAD;
 1740              		.loc 1 815 18 is_stmt 1 view .LVU547
 1741              		.loc 1 815 21 is_stmt 0 view .LVU548
 1742 0052 302B     		cmp	r3, #48
 1743 0054 0BD1     		bne	.L175
 1744              		.loc 1 815 35 is_stmt 1 discriminator 1 view .LVU549
 1745              		.loc 1 815 41 is_stmt 0 discriminator 1 view .LVU550
 1746 0056 41F00101 		orr	r1, r1, #1
 1747              	.LVL208:
 1748              		.loc 1 815 41 discriminator 1 view .LVU551
 1749 005a F0E7     		b	.L167
 1750              	.L250:
 812:Middlewares/Third_Party/RealThread_RTOS/src/kservice.c ****             else if (*fmt == ' ') flags |= SPACE;
 1751              		.loc 1 812 35 is_stmt 1 discriminator 1 view .LVU552
 812:Middlewares/Third_Party/RealThread_RTOS/src/kservice.c ****             else if (*fmt == ' ') flags |= SPACE;
 1752              		.loc 1 812 41 is_stmt 0 discriminator 1 view .LVU553
 1753 005c 41F00401 		orr	r1, r1, #4
 1754              	.LVL209:
 812:Middlewares/Third_Party/RealThread_RTOS/src/kservice.c ****             else if (*fmt == ' ') flags |= SPACE;
 1755              		.loc 1 812 41 discriminator 1 view .LVU554
 1756 0060 EDE7     		b	.L167
 1757              	.L251:
 813:Middlewares/Third_Party/RealThread_RTOS/src/kservice.c ****             else if (*fmt == '#') flags |= SPECIAL;
 1758              		.loc 1 813 35 is_stmt 1 discriminator 1 view .LVU555
 813:Middlewares/Third_Party/RealThread_RTOS/src/kservice.c ****             else if (*fmt == '#') flags |= SPECIAL;
 1759              		.loc 1 813 41 is_stmt 0 discriminator 1 view .LVU556
 1760 0062 41F00801 		orr	r1, r1, #8
 1761              	.LVL210:
 813:Middlewares/Third_Party/RealThread_RTOS/src/kservice.c ****             else if (*fmt == '#') flags |= SPECIAL;
 1762              		.loc 1 813 41 discriminator 1 view .LVU557
 1763 0066 EAE7     		b	.L167
 1764              	.L252:
 814:Middlewares/Third_Party/RealThread_RTOS/src/kservice.c ****             else if (*fmt == '0') flags |= ZEROPAD;
 1765              		.loc 1 814 35 is_stmt 1 discriminator 1 view .LVU558
 814:Middlewares/Third_Party/RealThread_RTOS/src/kservice.c ****             else if (*fmt == '0') flags |= ZEROPAD;
 1766              		.loc 1 814 41 is_stmt 0 discriminator 1 view .LVU559
 1767 0068 41F02001 		orr	r1, r1, #32
 1768              	.LVL211:
 814:Middlewares/Third_Party/RealThread_RTOS/src/kservice.c ****             else if (*fmt == '0') flags |= ZEROPAD;
 1769              		.loc 1 814 41 discriminator 1 view .LVU560
 1770 006c E7E7     		b	.L167
 1771              	.L175:
 816:Middlewares/Third_Party/RealThread_RTOS/src/kservice.c ****             else break;
 817:Middlewares/Third_Party/RealThread_RTOS/src/kservice.c ****         }
 818:Middlewares/Third_Party/RealThread_RTOS/src/kservice.c **** 
 819:Middlewares/Third_Party/RealThread_RTOS/src/kservice.c ****         /* get field width */
 820:Middlewares/Third_Party/RealThread_RTOS/src/kservice.c ****         field_width = -1;
 1772              		.loc 1 820 9 is_stmt 1 view .LVU561
 1773              	.LVL212:
 821:Middlewares/Third_Party/RealThread_RTOS/src/kservice.c ****         if (_ISDIGIT(*fmt)) field_width = skip_atoi(&fmt);
 1774              		.loc 1 821 9 view .LVU562
ARM GAS  C:\Users\Administrator\AppData\Local\Temp\ccnljQWb.s 			page 54


 1775              		.loc 1 821 13 is_stmt 0 view .LVU563
 1776 006e A3F13002 		sub	r2, r3, #48
 1777              		.loc 1 821 12 view .LVU564
 1778 0072 092A     		cmp	r2, #9
 1779 0074 1BD9     		bls	.L253
 822:Middlewares/Third_Party/RealThread_RTOS/src/kservice.c ****         else if (*fmt == '*')
 1780              		.loc 1 822 14 is_stmt 1 view .LVU565
 1781              		.loc 1 822 17 is_stmt 0 view .LVU566
 1782 0076 2A2B     		cmp	r3, #42
 1783 0078 1BD0     		beq	.L254
 820:Middlewares/Third_Party/RealThread_RTOS/src/kservice.c ****         if (_ISDIGIT(*fmt)) field_width = skip_atoi(&fmt);
 1784              		.loc 1 820 21 view .LVU567
 1785 007a 4FF0FF35 		mov	r5, #-1
 1786              	.LVL213:
 1787              	.L179:
 823:Middlewares/Third_Party/RealThread_RTOS/src/kservice.c ****         {
 824:Middlewares/Third_Party/RealThread_RTOS/src/kservice.c ****             ++ fmt;
 825:Middlewares/Third_Party/RealThread_RTOS/src/kservice.c ****             /* it's the next argument */
 826:Middlewares/Third_Party/RealThread_RTOS/src/kservice.c ****             field_width = va_arg(args, int);
 827:Middlewares/Third_Party/RealThread_RTOS/src/kservice.c ****             if (field_width < 0)
 828:Middlewares/Third_Party/RealThread_RTOS/src/kservice.c ****             {
 829:Middlewares/Third_Party/RealThread_RTOS/src/kservice.c ****                 field_width = -field_width;
 830:Middlewares/Third_Party/RealThread_RTOS/src/kservice.c ****                 flags |= LEFT;
 831:Middlewares/Third_Party/RealThread_RTOS/src/kservice.c ****             }
 832:Middlewares/Third_Party/RealThread_RTOS/src/kservice.c ****         }
 833:Middlewares/Third_Party/RealThread_RTOS/src/kservice.c **** 
 834:Middlewares/Third_Party/RealThread_RTOS/src/kservice.c **** #ifdef RT_PRINTF_PRECISION
 835:Middlewares/Third_Party/RealThread_RTOS/src/kservice.c ****         /* get the precision */
 836:Middlewares/Third_Party/RealThread_RTOS/src/kservice.c ****         precision = -1;
 1788              		.loc 1 836 9 is_stmt 1 view .LVU568
 837:Middlewares/Third_Party/RealThread_RTOS/src/kservice.c ****         if (*fmt == '.')
 1789              		.loc 1 837 9 view .LVU569
 1790              		.loc 1 837 13 is_stmt 0 view .LVU570
 1791 007e 2378     		ldrb	r3, [r4]	@ zero_extendqisi2
 1792              		.loc 1 837 12 view .LVU571
 1793 0080 2E2B     		cmp	r3, #46
 1794 0082 21D0     		beq	.L255
 836:Middlewares/Third_Party/RealThread_RTOS/src/kservice.c ****         if (*fmt == '.')
 1795              		.loc 1 836 19 view .LVU572
 1796 0084 4FF0FF3C 		mov	ip, #-1
 1797              	.LVL214:
 1798              	.L180:
 838:Middlewares/Third_Party/RealThread_RTOS/src/kservice.c ****         {
 839:Middlewares/Third_Party/RealThread_RTOS/src/kservice.c ****             ++ fmt;
 840:Middlewares/Third_Party/RealThread_RTOS/src/kservice.c ****             if (_ISDIGIT(*fmt)) precision = skip_atoi(&fmt);
 841:Middlewares/Third_Party/RealThread_RTOS/src/kservice.c ****             else if (*fmt == '*')
 842:Middlewares/Third_Party/RealThread_RTOS/src/kservice.c ****             {
 843:Middlewares/Third_Party/RealThread_RTOS/src/kservice.c ****                 ++ fmt;
 844:Middlewares/Third_Party/RealThread_RTOS/src/kservice.c ****                 /* it's the next argument */
 845:Middlewares/Third_Party/RealThread_RTOS/src/kservice.c ****                 precision = va_arg(args, int);
 846:Middlewares/Third_Party/RealThread_RTOS/src/kservice.c ****             }
 847:Middlewares/Third_Party/RealThread_RTOS/src/kservice.c ****             if (precision < 0) precision = 0;
 848:Middlewares/Third_Party/RealThread_RTOS/src/kservice.c ****         }
 849:Middlewares/Third_Party/RealThread_RTOS/src/kservice.c **** #endif
 850:Middlewares/Third_Party/RealThread_RTOS/src/kservice.c ****         /* get the conversion qualifier */
 851:Middlewares/Third_Party/RealThread_RTOS/src/kservice.c ****         qualifier = 0;
 1799              		.loc 1 851 9 is_stmt 1 view .LVU573
ARM GAS  C:\Users\Administrator\AppData\Local\Temp\ccnljQWb.s 			page 55


 852:Middlewares/Third_Party/RealThread_RTOS/src/kservice.c **** #ifdef RT_PRINTF_LONGLONG
 853:Middlewares/Third_Party/RealThread_RTOS/src/kservice.c ****         if (*fmt == 'h' || *fmt == 'l' || *fmt == 'L')
 854:Middlewares/Third_Party/RealThread_RTOS/src/kservice.c **** #else
 855:Middlewares/Third_Party/RealThread_RTOS/src/kservice.c ****         if (*fmt == 'h' || *fmt == 'l')
 1800              		.loc 1 855 9 view .LVU574
 1801              		.loc 1 855 13 is_stmt 0 view .LVU575
 1802 0088 2278     		ldrb	r2, [r4]	@ zero_extendqisi2
 1803              		.loc 1 855 12 view .LVU576
 1804 008a 682A     		cmp	r2, #104
 1805 008c 43D0     		beq	.L185
 1806              		.loc 1 855 25 discriminator 1 view .LVU577
 1807 008e 6C2A     		cmp	r2, #108
 1808 0090 41D0     		beq	.L185
 851:Middlewares/Third_Party/RealThread_RTOS/src/kservice.c **** #ifdef RT_PRINTF_LONGLONG
 1809              		.loc 1 851 19 view .LVU578
 1810 0092 0022     		movs	r2, #0
 1811 0094 40E0     		b	.L186
 1812              	.LVL215:
 1813              	.L178:
 1814              	.LBB14:
 1815              	.LBB15:
 576:Middlewares/Third_Party/RealThread_RTOS/src/kservice.c **** 
 1816              		.loc 1 576 9 is_stmt 1 view .LVU579
 576:Middlewares/Third_Party/RealThread_RTOS/src/kservice.c **** 
 1817              		.loc 1 576 15 is_stmt 0 view .LVU580
 1818 0096 05EB8505 		add	r5, r5, r5, lsl #2
 1819              	.LVL216:
 576:Middlewares/Third_Party/RealThread_RTOS/src/kservice.c **** 
 1820              		.loc 1 576 22 view .LVU581
 1821 009a 14F8013B 		ldrb	r3, [r4], #1	@ zero_extendqisi2
 1822              	.LVL217:
 576:Middlewares/Third_Party/RealThread_RTOS/src/kservice.c **** 
 1823              		.loc 1 576 20 view .LVU582
 1824 009e 03EB4505 		add	r5, r3, r5, lsl #1
 576:Middlewares/Third_Party/RealThread_RTOS/src/kservice.c **** 
 1825              		.loc 1 576 11 view .LVU583
 1826 00a2 303D     		subs	r5, r5, #48
 1827              	.LVL218:
 1828              	.L176:
 575:Middlewares/Third_Party/RealThread_RTOS/src/kservice.c ****         i = i * 10 + *((*s)++) - '0';
 1829              		.loc 1 575 11 is_stmt 1 view .LVU584
 575:Middlewares/Third_Party/RealThread_RTOS/src/kservice.c ****         i = i * 10 + *((*s)++) - '0';
 1830              		.loc 1 575 12 is_stmt 0 view .LVU585
 1831 00a4 2378     		ldrb	r3, [r4]	@ zero_extendqisi2
 1832 00a6 303B     		subs	r3, r3, #48
 575:Middlewares/Third_Party/RealThread_RTOS/src/kservice.c ****         i = i * 10 + *((*s)++) - '0';
 1833              		.loc 1 575 11 view .LVU586
 1834 00a8 092B     		cmp	r3, #9
 1835 00aa F4D9     		bls	.L178
 575:Middlewares/Third_Party/RealThread_RTOS/src/kservice.c ****         i = i * 10 + *((*s)++) - '0';
 1836              		.loc 1 575 11 view .LVU587
 1837 00ac E7E7     		b	.L179
 1838              	.LVL219:
 1839              	.L253:
 574:Middlewares/Third_Party/RealThread_RTOS/src/kservice.c ****     while (_ISDIGIT(**s))
 1840              		.loc 1 574 18 view .LVU588
 1841 00ae 0025     		movs	r5, #0
ARM GAS  C:\Users\Administrator\AppData\Local\Temp\ccnljQWb.s 			page 56


 1842 00b0 F8E7     		b	.L176
 1843              	.L254:
 1844              	.LBE15:
 1845              	.LBE14:
 824:Middlewares/Third_Party/RealThread_RTOS/src/kservice.c ****             /* it's the next argument */
 1846              		.loc 1 824 13 is_stmt 1 view .LVU589
 1847 00b2 0134     		adds	r4, r4, #1
 1848              	.LVL220:
 826:Middlewares/Third_Party/RealThread_RTOS/src/kservice.c ****             if (field_width < 0)
 1849              		.loc 1 826 13 view .LVU590
 826:Middlewares/Third_Party/RealThread_RTOS/src/kservice.c ****             if (field_width < 0)
 1850              		.loc 1 826 25 is_stmt 0 view .LVU591
 1851 00b4 059B     		ldr	r3, [sp, #20]
 1852 00b6 1A1D     		adds	r2, r3, #4
 1853 00b8 0592     		str	r2, [sp, #20]
 1854 00ba 1D68     		ldr	r5, [r3]
 1855              	.LVL221:
 827:Middlewares/Third_Party/RealThread_RTOS/src/kservice.c ****             {
 1856              		.loc 1 827 13 is_stmt 1 view .LVU592
 827:Middlewares/Third_Party/RealThread_RTOS/src/kservice.c ****             {
 1857              		.loc 1 827 16 is_stmt 0 view .LVU593
 1858 00bc 002D     		cmp	r5, #0
 1859 00be DEDA     		bge	.L179
 829:Middlewares/Third_Party/RealThread_RTOS/src/kservice.c ****                 flags |= LEFT;
 1860              		.loc 1 829 17 is_stmt 1 view .LVU594
 829:Middlewares/Third_Party/RealThread_RTOS/src/kservice.c ****                 flags |= LEFT;
 1861              		.loc 1 829 29 is_stmt 0 view .LVU595
 1862 00c0 6D42     		rsbs	r5, r5, #0
 1863              	.LVL222:
 830:Middlewares/Third_Party/RealThread_RTOS/src/kservice.c ****             }
 1864              		.loc 1 830 17 is_stmt 1 view .LVU596
 830:Middlewares/Third_Party/RealThread_RTOS/src/kservice.c ****             }
 1865              		.loc 1 830 23 is_stmt 0 view .LVU597
 1866 00c2 41F01001 		orr	r1, r1, #16
 1867              	.LVL223:
 830:Middlewares/Third_Party/RealThread_RTOS/src/kservice.c ****             }
 1868              		.loc 1 830 23 view .LVU598
 1869 00c6 DAE7     		b	.L179
 1870              	.LVL224:
 1871              	.L255:
 839:Middlewares/Third_Party/RealThread_RTOS/src/kservice.c ****             if (_ISDIGIT(*fmt)) precision = skip_atoi(&fmt);
 1872              		.loc 1 839 13 is_stmt 1 view .LVU599
 840:Middlewares/Third_Party/RealThread_RTOS/src/kservice.c ****             else if (*fmt == '*')
 1873              		.loc 1 840 13 view .LVU600
 840:Middlewares/Third_Party/RealThread_RTOS/src/kservice.c ****             else if (*fmt == '*')
 1874              		.loc 1 840 17 is_stmt 0 view .LVU601
 1875 00c8 14F8013F 		ldrb	r3, [r4, #1]!	@ zero_extendqisi2
 1876              	.LVL225:
 840:Middlewares/Third_Party/RealThread_RTOS/src/kservice.c ****             else if (*fmt == '*')
 1877              		.loc 1 840 17 view .LVU602
 1878 00cc A3F13002 		sub	r2, r3, #48
 840:Middlewares/Third_Party/RealThread_RTOS/src/kservice.c ****             else if (*fmt == '*')
 1879              		.loc 1 840 16 view .LVU603
 1880 00d0 092A     		cmp	r2, #9
 1881 00d2 16D9     		bls	.L256
 841:Middlewares/Third_Party/RealThread_RTOS/src/kservice.c ****             {
 1882              		.loc 1 841 18 is_stmt 1 view .LVU604
ARM GAS  C:\Users\Administrator\AppData\Local\Temp\ccnljQWb.s 			page 57


 841:Middlewares/Third_Party/RealThread_RTOS/src/kservice.c ****             {
 1883              		.loc 1 841 21 is_stmt 0 view .LVU605
 1884 00d4 2A2B     		cmp	r3, #42
 1885 00d6 17D0     		beq	.L257
 847:Middlewares/Third_Party/RealThread_RTOS/src/kservice.c ****         }
 1886              		.loc 1 847 42 view .LVU606
 1887 00d8 4FF0000C 		mov	ip, #0
 1888 00dc D4E7     		b	.L180
 1889              	.LVL226:
 1890              	.L183:
 1891              	.LBB16:
 1892              	.LBB17:
 576:Middlewares/Third_Party/RealThread_RTOS/src/kservice.c **** 
 1893              		.loc 1 576 9 is_stmt 1 view .LVU607
 576:Middlewares/Third_Party/RealThread_RTOS/src/kservice.c **** 
 1894              		.loc 1 576 15 is_stmt 0 view .LVU608
 1895 00de 0CEB8C0C 		add	ip, ip, ip, lsl #2
 1896              	.LVL227:
 576:Middlewares/Third_Party/RealThread_RTOS/src/kservice.c **** 
 1897              		.loc 1 576 22 view .LVU609
 1898 00e2 14F8013B 		ldrb	r3, [r4], #1	@ zero_extendqisi2
 1899              	.LVL228:
 576:Middlewares/Third_Party/RealThread_RTOS/src/kservice.c **** 
 1900              		.loc 1 576 20 view .LVU610
 1901 00e6 03EB4C0C 		add	ip, r3, ip, lsl #1
 576:Middlewares/Third_Party/RealThread_RTOS/src/kservice.c **** 
 1902              		.loc 1 576 11 view .LVU611
 1903 00ea ACF1300C 		sub	ip, ip, #48
 1904              	.LVL229:
 1905              	.L181:
 575:Middlewares/Third_Party/RealThread_RTOS/src/kservice.c ****         i = i * 10 + *((*s)++) - '0';
 1906              		.loc 1 575 11 is_stmt 1 view .LVU612
 575:Middlewares/Third_Party/RealThread_RTOS/src/kservice.c ****         i = i * 10 + *((*s)++) - '0';
 1907              		.loc 1 575 12 is_stmt 0 view .LVU613
 1908 00ee 2378     		ldrb	r3, [r4]	@ zero_extendqisi2
 1909 00f0 303B     		subs	r3, r3, #48
 575:Middlewares/Third_Party/RealThread_RTOS/src/kservice.c ****         i = i * 10 + *((*s)++) - '0';
 1910              		.loc 1 575 11 view .LVU614
 1911 00f2 092B     		cmp	r3, #9
 1912 00f4 F3D9     		bls	.L183
 1913              	.LVL230:
 1914              	.L184:
 575:Middlewares/Third_Party/RealThread_RTOS/src/kservice.c ****         i = i * 10 + *((*s)++) - '0';
 1915              		.loc 1 575 11 view .LVU615
 1916              	.LBE17:
 1917              	.LBE16:
 847:Middlewares/Third_Party/RealThread_RTOS/src/kservice.c ****         }
 1918              		.loc 1 847 13 is_stmt 1 view .LVU616
 847:Middlewares/Third_Party/RealThread_RTOS/src/kservice.c ****         }
 1919              		.loc 1 847 16 is_stmt 0 view .LVU617
 1920 00f6 BCF1000F 		cmp	ip, #0
 1921 00fa C5DA     		bge	.L180
 847:Middlewares/Third_Party/RealThread_RTOS/src/kservice.c ****         }
 1922              		.loc 1 847 42 view .LVU618
 1923 00fc 4FF0000C 		mov	ip, #0
 1924              	.LVL231:
 847:Middlewares/Third_Party/RealThread_RTOS/src/kservice.c ****         }
ARM GAS  C:\Users\Administrator\AppData\Local\Temp\ccnljQWb.s 			page 58


 1925              		.loc 1 847 42 view .LVU619
 1926 0100 C2E7     		b	.L180
 1927              	.LVL232:
 1928              	.L256:
 1929              	.LBB19:
 1930              	.LBB18:
 574:Middlewares/Third_Party/RealThread_RTOS/src/kservice.c ****     while (_ISDIGIT(**s))
 1931              		.loc 1 574 18 view .LVU620
 1932 0102 4FF0000C 		mov	ip, #0
 1933 0106 F2E7     		b	.L181
 1934              	.L257:
 1935              	.LBE18:
 1936              	.LBE19:
 843:Middlewares/Third_Party/RealThread_RTOS/src/kservice.c ****                 /* it's the next argument */
 1937              		.loc 1 843 17 is_stmt 1 view .LVU621
 1938 0108 0134     		adds	r4, r4, #1
 1939              	.LVL233:
 845:Middlewares/Third_Party/RealThread_RTOS/src/kservice.c ****             }
 1940              		.loc 1 845 17 view .LVU622
 845:Middlewares/Third_Party/RealThread_RTOS/src/kservice.c ****             }
 1941              		.loc 1 845 27 is_stmt 0 view .LVU623
 1942 010a 059B     		ldr	r3, [sp, #20]
 1943 010c 1A1D     		adds	r2, r3, #4
 1944 010e 0592     		str	r2, [sp, #20]
 1945 0110 D3F800C0 		ldr	ip, [r3]
 1946 0114 EFE7     		b	.L184
 1947              	.LVL234:
 1948              	.L185:
 856:Middlewares/Third_Party/RealThread_RTOS/src/kservice.c **** #endif
 857:Middlewares/Third_Party/RealThread_RTOS/src/kservice.c ****         {
 858:Middlewares/Third_Party/RealThread_RTOS/src/kservice.c ****             qualifier = *fmt;
 1949              		.loc 1 858 13 is_stmt 1 view .LVU624
 859:Middlewares/Third_Party/RealThread_RTOS/src/kservice.c ****             ++ fmt;
 1950              		.loc 1 859 13 view .LVU625
 1951 0116 0134     		adds	r4, r4, #1
 1952              	.LVL235:
 1953              	.L186:
 860:Middlewares/Third_Party/RealThread_RTOS/src/kservice.c **** #ifdef RT_PRINTF_LONGLONG
 861:Middlewares/Third_Party/RealThread_RTOS/src/kservice.c ****             if (qualifier == 'l' && *fmt == 'l')
 862:Middlewares/Third_Party/RealThread_RTOS/src/kservice.c ****             {
 863:Middlewares/Third_Party/RealThread_RTOS/src/kservice.c ****                 qualifier = 'L';
 864:Middlewares/Third_Party/RealThread_RTOS/src/kservice.c ****                 ++ fmt;
 865:Middlewares/Third_Party/RealThread_RTOS/src/kservice.c ****             }
 866:Middlewares/Third_Party/RealThread_RTOS/src/kservice.c **** #endif
 867:Middlewares/Third_Party/RealThread_RTOS/src/kservice.c ****         }
 868:Middlewares/Third_Party/RealThread_RTOS/src/kservice.c **** 
 869:Middlewares/Third_Party/RealThread_RTOS/src/kservice.c ****         /* the default base */
 870:Middlewares/Third_Party/RealThread_RTOS/src/kservice.c ****         base = 10;
 1954              		.loc 1 870 9 view .LVU626
 871:Middlewares/Third_Party/RealThread_RTOS/src/kservice.c **** 
 872:Middlewares/Third_Party/RealThread_RTOS/src/kservice.c ****         switch (*fmt)
 1955              		.loc 1 872 9 view .LVU627
 1956              		.loc 1 872 17 is_stmt 0 view .LVU628
 1957 0118 2378     		ldrb	r3, [r4]	@ zero_extendqisi2
 1958              		.loc 1 872 9 view .LVU629
 1959 011a 252B     		cmp	r3, #37
 1960 011c 00F09180 		beq	.L187
ARM GAS  C:\Users\Administrator\AppData\Local\Temp\ccnljQWb.s 			page 59


 1961              		.loc 1 872 9 view .LVU630
 1962 0120 C0F0B080 		bcc	.L188
 1963 0124 782B     		cmp	r3, #120
