ARM GAS  C:\Users\Administrator\AppData\Local\Temp\ccdpxKbb.s 			page 1


   1              		.cpu cortex-m4
   2              		.eabi_attribute 20, 1
   3              		.eabi_attribute 21, 1
   4              		.eabi_attribute 23, 3
   5              		.eabi_attribute 24, 1
   6              		.eabi_attribute 25, 1
   7              		.eabi_attribute 26, 1
   8              		.eabi_attribute 30, 1
   9              		.eabi_attribute 34, 1
  10              		.eabi_attribute 18, 4
  11              		.file	"main.c"
  12              		.text
  13              	.Ltext0:
  14              		.cfi_sections	.debug_frame
  15              		.section	.text.Error_Handler,"ax",%progbits
  16              		.align	1
  17              		.global	Error_Handler
  18              		.arch armv7e-m
  19              		.syntax unified
  20              		.thumb
  21              		.thumb_func
  22              		.fpu softvfp
  24              	Error_Handler:
  25              	.LFB147:
  26              		.file 1 "Core/Src/main.c"
   1:Core/Src/main.c **** /* USER CODE BEGIN Header */
   2:Core/Src/main.c **** /**
   3:Core/Src/main.c ****   ******************************************************************************
   4:Core/Src/main.c ****   * @file           : main.c
   5:Core/Src/main.c ****   * @brief          : Main program body
   6:Core/Src/main.c ****   ******************************************************************************
   7:Core/Src/main.c ****   * @attention
   8:Core/Src/main.c ****   *
   9:Core/Src/main.c ****   * Copyright (c) 2022 STMicroelectronics.
  10:Core/Src/main.c ****   * All rights reserved.
  11:Core/Src/main.c ****   *
  12:Core/Src/main.c ****   * This software is licensed under terms that can be found in the LICENSE file
  13:Core/Src/main.c ****   * in the root directory of this software component.
  14:Core/Src/main.c ****   * If no LICENSE file comes with this software, it is provided AS-IS.
  15:Core/Src/main.c ****   *
  16:Core/Src/main.c ****   ******************************************************************************
  17:Core/Src/main.c ****   */
  18:Core/Src/main.c **** /* USER CODE END Header */
  19:Core/Src/main.c **** /* Includes ------------------------------------------------------------------*/
  20:Core/Src/main.c **** #include "main.h"
  21:Core/Src/main.c **** #include "usart.h"
  22:Core/Src/main.c **** #include "gpio.h"
  23:Core/Src/main.c **** 
  24:Core/Src/main.c **** /* Private includes ----------------------------------------------------------*/
  25:Core/Src/main.c **** /* USER CODE BEGIN Includes */
  26:Core/Src/main.c **** #include "rtthread.h"
  27:Core/Src/main.c **** /* USER CODE END Includes */
  28:Core/Src/main.c **** 
  29:Core/Src/main.c **** /* Private typedef -----------------------------------------------------------*/
  30:Core/Src/main.c **** /* USER CODE BEGIN PTD */
  31:Core/Src/main.c **** 
  32:Core/Src/main.c **** /* USER CODE END PTD */
ARM GAS  C:\Users\Administrator\AppData\Local\Temp\ccdpxKbb.s 			page 2


  33:Core/Src/main.c **** 
  34:Core/Src/main.c **** /* Private define ------------------------------------------------------------*/
  35:Core/Src/main.c **** /* USER CODE BEGIN PD */
  36:Core/Src/main.c **** /* USER CODE END PD */
  37:Core/Src/main.c **** 
  38:Core/Src/main.c **** /* Private macro -------------------------------------------------------------*/
  39:Core/Src/main.c **** /* USER CODE BEGIN PM */
  40:Core/Src/main.c **** 
  41:Core/Src/main.c **** /* USER CODE END PM */
  42:Core/Src/main.c **** 
  43:Core/Src/main.c **** /* Private variables ---------------------------------------------------------*/
  44:Core/Src/main.c **** 
  45:Core/Src/main.c **** /* USER CODE BEGIN PV */
  46:Core/Src/main.c **** 
  47:Core/Src/main.c **** /* USER CODE END PV */
  48:Core/Src/main.c **** 
  49:Core/Src/main.c **** /* Private function prototypes -----------------------------------------------*/
  50:Core/Src/main.c **** void SystemClock_Config(void);
  51:Core/Src/main.c **** /* USER CODE BEGIN PFP */
  52:Core/Src/main.c **** 
  53:Core/Src/main.c **** /* USER CODE END PFP */
  54:Core/Src/main.c **** 
  55:Core/Src/main.c **** /* Private user code ---------------------------------------------------------*/
  56:Core/Src/main.c **** /* USER CODE BEGIN 0 */
  57:Core/Src/main.c **** 
  58:Core/Src/main.c **** /* USER CODE END 0 */
  59:Core/Src/main.c **** 
  60:Core/Src/main.c **** /**
  61:Core/Src/main.c ****   * @brief  The application entry point.
  62:Core/Src/main.c ****   * @retval int
  63:Core/Src/main.c ****   */
  64:Core/Src/main.c **** int main(void)
  65:Core/Src/main.c **** {
  66:Core/Src/main.c ****   /* USER CODE BEGIN 1 */
  67:Core/Src/main.c **** 
  68:Core/Src/main.c ****   /* USER CODE END 1 */
  69:Core/Src/main.c **** 
  70:Core/Src/main.c ****   /* MCU Configuration--------------------------------------------------------*/
  71:Core/Src/main.c **** 
  72:Core/Src/main.c ****   /* Reset of all peripherals, Initializes the Flash interface and the Systick. */
  73:Core/Src/main.c ****   HAL_Init();
  74:Core/Src/main.c **** 
  75:Core/Src/main.c ****   /* USER CODE BEGIN Init */
  76:Core/Src/main.c **** 
  77:Core/Src/main.c ****   /* USER CODE END Init */
  78:Core/Src/main.c **** 
  79:Core/Src/main.c ****   /* Configure the system clock */
  80:Core/Src/main.c ****   SystemClock_Config();
  81:Core/Src/main.c **** 
  82:Core/Src/main.c ****   /* USER CODE BEGIN SysInit */
  83:Core/Src/main.c **** 
  84:Core/Src/main.c ****   /* USER CODE END SysInit */
  85:Core/Src/main.c **** 
  86:Core/Src/main.c ****   /* Initialize all configured peripherals */
  87:Core/Src/main.c ****   MX_GPIO_Init();
  88:Core/Src/main.c ****   MX_USART1_UART_Init();
  89:Core/Src/main.c ****   /* USER CODE BEGIN 2 */
ARM GAS  C:\Users\Administrator\AppData\Local\Temp\ccdpxKbb.s 			page 3


  90:Core/Src/main.c **** 
  91:Core/Src/main.c ****   /* USER CODE END 2 */
  92:Core/Src/main.c **** 
  93:Core/Src/main.c ****   /* Infinite loop */
  94:Core/Src/main.c ****   /* USER CODE BEGIN WHILE */
  95:Core/Src/main.c ****   while (1)
  96:Core/Src/main.c ****   {
  97:Core/Src/main.c ****     LOG_D("hello world\n");
  98:Core/Src/main.c ****     HAL_GPIO_TogglePin(LED1_GPIO_Port, LED1_Pin);
  99:Core/Src/main.c ****     rt_thread_mdelay(500);
 100:Core/Src/main.c ****     /* USER CODE END WHILE */
 101:Core/Src/main.c **** 
 102:Core/Src/main.c ****     /* USER CODE BEGIN 3 */
 103:Core/Src/main.c ****   }
 104:Core/Src/main.c ****   /* USER CODE END 3 */
 105:Core/Src/main.c **** }
 106:Core/Src/main.c **** 
 107:Core/Src/main.c **** /**
 108:Core/Src/main.c ****   * @brief System Clock Configuration
 109:Core/Src/main.c ****   * @retval None
 110:Core/Src/main.c ****   */
 111:Core/Src/main.c **** void SystemClock_Config(void)
 112:Core/Src/main.c **** {
 113:Core/Src/main.c ****   RCC_OscInitTypeDef RCC_OscInitStruct = {0};
 114:Core/Src/main.c ****   RCC_ClkInitTypeDef RCC_ClkInitStruct = {0};
 115:Core/Src/main.c **** 
 116:Core/Src/main.c ****   /** Configure the main internal regulator output voltage
 117:Core/Src/main.c ****   */
 118:Core/Src/main.c ****   __HAL_RCC_PWR_CLK_ENABLE();
 119:Core/Src/main.c ****   __HAL_PWR_VOLTAGESCALING_CONFIG(PWR_REGULATOR_VOLTAGE_SCALE1);
 120:Core/Src/main.c **** 
 121:Core/Src/main.c ****   /** Initializes the RCC Oscillators according to the specified parameters
 122:Core/Src/main.c ****   * in the RCC_OscInitTypeDef structure.
 123:Core/Src/main.c ****   */
 124:Core/Src/main.c ****   RCC_OscInitStruct.OscillatorType = RCC_OSCILLATORTYPE_HSE;
 125:Core/Src/main.c ****   RCC_OscInitStruct.HSEState = RCC_HSE_ON;
 126:Core/Src/main.c ****   RCC_OscInitStruct.PLL.PLLState = RCC_PLL_ON;
 127:Core/Src/main.c ****   RCC_OscInitStruct.PLL.PLLSource = RCC_PLLSOURCE_HSE;
 128:Core/Src/main.c ****   RCC_OscInitStruct.PLL.PLLM = 4;
 129:Core/Src/main.c ****   RCC_OscInitStruct.PLL.PLLN = 168;
 130:Core/Src/main.c ****   RCC_OscInitStruct.PLL.PLLP = RCC_PLLP_DIV2;
 131:Core/Src/main.c ****   RCC_OscInitStruct.PLL.PLLQ = 4;
 132:Core/Src/main.c ****   if (HAL_RCC_OscConfig(&RCC_OscInitStruct) != HAL_OK)
 133:Core/Src/main.c ****   {
 134:Core/Src/main.c ****     Error_Handler();
 135:Core/Src/main.c ****   }
 136:Core/Src/main.c **** 
 137:Core/Src/main.c ****   /** Initializes the CPU, AHB and APB buses clocks
 138:Core/Src/main.c ****   */
 139:Core/Src/main.c ****   RCC_ClkInitStruct.ClockType = RCC_CLOCKTYPE_HCLK|RCC_CLOCKTYPE_SYSCLK
 140:Core/Src/main.c ****                               |RCC_CLOCKTYPE_PCLK1|RCC_CLOCKTYPE_PCLK2;
 141:Core/Src/main.c ****   RCC_ClkInitStruct.SYSCLKSource = RCC_SYSCLKSOURCE_PLLCLK;
 142:Core/Src/main.c ****   RCC_ClkInitStruct.AHBCLKDivider = RCC_SYSCLK_DIV1;
 143:Core/Src/main.c ****   RCC_ClkInitStruct.APB1CLKDivider = RCC_HCLK_DIV4;
 144:Core/Src/main.c ****   RCC_ClkInitStruct.APB2CLKDivider = RCC_HCLK_DIV2;
 145:Core/Src/main.c **** 
 146:Core/Src/main.c ****   if (HAL_RCC_ClockConfig(&RCC_ClkInitStruct, FLASH_LATENCY_5) != HAL_OK)
ARM GAS  C:\Users\Administrator\AppData\Local\Temp\ccdpxKbb.s 			page 4


 147:Core/Src/main.c ****   {
 148:Core/Src/main.c ****     Error_Handler();
 149:Core/Src/main.c ****   }
 150:Core/Src/main.c **** }
 151:Core/Src/main.c **** 
 152:Core/Src/main.c **** /* USER CODE BEGIN 4 */
 153:Core/Src/main.c **** 
 154:Core/Src/main.c **** /* USER CODE END 4 */
 155:Core/Src/main.c **** 
 156:Core/Src/main.c **** /**
 157:Core/Src/main.c ****   * @brief  This function is executed in case of error occurrence.
 158:Core/Src/main.c ****   * @retval None
 159:Core/Src/main.c ****   */
 160:Core/Src/main.c **** void Error_Handler(void)
 161:Core/Src/main.c **** {
  27              		.loc 1 161 1 view -0
  28              		.cfi_startproc
  29              		@ Volatile: function does not return.
  30              		@ args = 0, pretend = 0, frame = 0
  31              		@ frame_needed = 0, uses_anonymous_args = 0
  32              		@ link register save eliminated.
 162:Core/Src/main.c ****   /* USER CODE BEGIN Error_Handler_Debug */
 163:Core/Src/main.c ****   /* User can add his own implementation to report the HAL error return state */
 164:Core/Src/main.c ****   __disable_irq();
  33              		.loc 1 164 3 view .LVU1
  34              	.LBB4:
  35              	.LBI4:
  36              		.file 2 "Drivers/CMSIS/Include/cmsis_gcc.h"
   1:Drivers/CMSIS/Include/cmsis_gcc.h **** /**************************************************************************//**
   2:Drivers/CMSIS/Include/cmsis_gcc.h ****  * @file     cmsis_gcc.h
   3:Drivers/CMSIS/Include/cmsis_gcc.h ****  * @brief    CMSIS compiler GCC header file
   4:Drivers/CMSIS/Include/cmsis_gcc.h ****  * @version  V5.0.4
   5:Drivers/CMSIS/Include/cmsis_gcc.h ****  * @date     09. April 2018
   6:Drivers/CMSIS/Include/cmsis_gcc.h ****  ******************************************************************************/
   7:Drivers/CMSIS/Include/cmsis_gcc.h **** /*
   8:Drivers/CMSIS/Include/cmsis_gcc.h ****  * Copyright (c) 2009-2018 Arm Limited. All rights reserved.
   9:Drivers/CMSIS/Include/cmsis_gcc.h ****  *
  10:Drivers/CMSIS/Include/cmsis_gcc.h ****  * SPDX-License-Identifier: Apache-2.0
  11:Drivers/CMSIS/Include/cmsis_gcc.h ****  *
  12:Drivers/CMSIS/Include/cmsis_gcc.h ****  * Licensed under the Apache License, Version 2.0 (the License); you may
  13:Drivers/CMSIS/Include/cmsis_gcc.h ****  * not use this file except in compliance with the License.
  14:Drivers/CMSIS/Include/cmsis_gcc.h ****  * You may obtain a copy of the License at
  15:Drivers/CMSIS/Include/cmsis_gcc.h ****  *
  16:Drivers/CMSIS/Include/cmsis_gcc.h ****  * www.apache.org/licenses/LICENSE-2.0
  17:Drivers/CMSIS/Include/cmsis_gcc.h ****  *
  18:Drivers/CMSIS/Include/cmsis_gcc.h ****  * Unless required by applicable law or agreed to in writing, software
  19:Drivers/CMSIS/Include/cmsis_gcc.h ****  * distributed under the License is distributed on an AS IS BASIS, WITHOUT
  20:Drivers/CMSIS/Include/cmsis_gcc.h ****  * WARRANTIES OR CONDITIONS OF ANY KIND, either express or implied.
  21:Drivers/CMSIS/Include/cmsis_gcc.h ****  * See the License for the specific language governing permissions and
  22:Drivers/CMSIS/Include/cmsis_gcc.h ****  * limitations under the License.
  23:Drivers/CMSIS/Include/cmsis_gcc.h ****  */
  24:Drivers/CMSIS/Include/cmsis_gcc.h **** 
  25:Drivers/CMSIS/Include/cmsis_gcc.h **** #ifndef __CMSIS_GCC_H
  26:Drivers/CMSIS/Include/cmsis_gcc.h **** #define __CMSIS_GCC_H
  27:Drivers/CMSIS/Include/cmsis_gcc.h **** 
  28:Drivers/CMSIS/Include/cmsis_gcc.h **** /* ignore some GCC warnings */
  29:Drivers/CMSIS/Include/cmsis_gcc.h **** #pragma GCC diagnostic push
ARM GAS  C:\Users\Administrator\AppData\Local\Temp\ccdpxKbb.s 			page 5


  30:Drivers/CMSIS/Include/cmsis_gcc.h **** #pragma GCC diagnostic ignored "-Wsign-conversion"
  31:Drivers/CMSIS/Include/cmsis_gcc.h **** #pragma GCC diagnostic ignored "-Wconversion"
  32:Drivers/CMSIS/Include/cmsis_gcc.h **** #pragma GCC diagnostic ignored "-Wunused-parameter"
  33:Drivers/CMSIS/Include/cmsis_gcc.h **** 
  34:Drivers/CMSIS/Include/cmsis_gcc.h **** /* Fallback for __has_builtin */
  35:Drivers/CMSIS/Include/cmsis_gcc.h **** #ifndef __has_builtin
  36:Drivers/CMSIS/Include/cmsis_gcc.h ****   #define __has_builtin(x) (0)
  37:Drivers/CMSIS/Include/cmsis_gcc.h **** #endif
  38:Drivers/CMSIS/Include/cmsis_gcc.h **** 
  39:Drivers/CMSIS/Include/cmsis_gcc.h **** /* CMSIS compiler specific defines */
  40:Drivers/CMSIS/Include/cmsis_gcc.h **** #ifndef   __ASM
  41:Drivers/CMSIS/Include/cmsis_gcc.h ****   #define __ASM                                  __asm
  42:Drivers/CMSIS/Include/cmsis_gcc.h **** #endif
  43:Drivers/CMSIS/Include/cmsis_gcc.h **** #ifndef   __INLINE
  44:Drivers/CMSIS/Include/cmsis_gcc.h ****   #define __INLINE                               inline
  45:Drivers/CMSIS/Include/cmsis_gcc.h **** #endif
  46:Drivers/CMSIS/Include/cmsis_gcc.h **** #ifndef   __STATIC_INLINE
  47:Drivers/CMSIS/Include/cmsis_gcc.h ****   #define __STATIC_INLINE                        static inline
  48:Drivers/CMSIS/Include/cmsis_gcc.h **** #endif
  49:Drivers/CMSIS/Include/cmsis_gcc.h **** #ifndef   __STATIC_FORCEINLINE                 
  50:Drivers/CMSIS/Include/cmsis_gcc.h ****   #define __STATIC_FORCEINLINE                   __attribute__((always_inline)) static inline
  51:Drivers/CMSIS/Include/cmsis_gcc.h **** #endif                                           
  52:Drivers/CMSIS/Include/cmsis_gcc.h **** #ifndef   __NO_RETURN
  53:Drivers/CMSIS/Include/cmsis_gcc.h ****   #define __NO_RETURN                            __attribute__((__noreturn__))
  54:Drivers/CMSIS/Include/cmsis_gcc.h **** #endif
  55:Drivers/CMSIS/Include/cmsis_gcc.h **** #ifndef   __USED
  56:Drivers/CMSIS/Include/cmsis_gcc.h ****   #define __USED                                 __attribute__((used))
  57:Drivers/CMSIS/Include/cmsis_gcc.h **** #endif
  58:Drivers/CMSIS/Include/cmsis_gcc.h **** #ifndef   __WEAK
  59:Drivers/CMSIS/Include/cmsis_gcc.h ****   #define __WEAK                                 __attribute__((weak))
  60:Drivers/CMSIS/Include/cmsis_gcc.h **** #endif
  61:Drivers/CMSIS/Include/cmsis_gcc.h **** #ifndef   __PACKED
  62:Drivers/CMSIS/Include/cmsis_gcc.h ****   #define __PACKED                               __attribute__((packed, aligned(1)))
  63:Drivers/CMSIS/Include/cmsis_gcc.h **** #endif
  64:Drivers/CMSIS/Include/cmsis_gcc.h **** #ifndef   __PACKED_STRUCT
  65:Drivers/CMSIS/Include/cmsis_gcc.h ****   #define __PACKED_STRUCT                        struct __attribute__((packed, aligned(1)))
  66:Drivers/CMSIS/Include/cmsis_gcc.h **** #endif
  67:Drivers/CMSIS/Include/cmsis_gcc.h **** #ifndef   __PACKED_UNION
  68:Drivers/CMSIS/Include/cmsis_gcc.h ****   #define __PACKED_UNION                         union __attribute__((packed, aligned(1)))
  69:Drivers/CMSIS/Include/cmsis_gcc.h **** #endif
  70:Drivers/CMSIS/Include/cmsis_gcc.h **** #ifndef   __UNALIGNED_UINT32        /* deprecated */
  71:Drivers/CMSIS/Include/cmsis_gcc.h ****   #pragma GCC diagnostic push
  72:Drivers/CMSIS/Include/cmsis_gcc.h ****   #pragma GCC diagnostic ignored "-Wpacked"
  73:Drivers/CMSIS/Include/cmsis_gcc.h ****   #pragma GCC diagnostic ignored "-Wattributes"
  74:Drivers/CMSIS/Include/cmsis_gcc.h ****   struct __attribute__((packed)) T_UINT32 { uint32_t v; };
  75:Drivers/CMSIS/Include/cmsis_gcc.h ****   #pragma GCC diagnostic pop
  76:Drivers/CMSIS/Include/cmsis_gcc.h ****   #define __UNALIGNED_UINT32(x)                  (((struct T_UINT32 *)(x))->v)
  77:Drivers/CMSIS/Include/cmsis_gcc.h **** #endif
  78:Drivers/CMSIS/Include/cmsis_gcc.h **** #ifndef   __UNALIGNED_UINT16_WRITE
  79:Drivers/CMSIS/Include/cmsis_gcc.h ****   #pragma GCC diagnostic push
  80:Drivers/CMSIS/Include/cmsis_gcc.h ****   #pragma GCC diagnostic ignored "-Wpacked"
  81:Drivers/CMSIS/Include/cmsis_gcc.h ****   #pragma GCC diagnostic ignored "-Wattributes"
  82:Drivers/CMSIS/Include/cmsis_gcc.h ****   __PACKED_STRUCT T_UINT16_WRITE { uint16_t v; };
  83:Drivers/CMSIS/Include/cmsis_gcc.h ****   #pragma GCC diagnostic pop
  84:Drivers/CMSIS/Include/cmsis_gcc.h ****   #define __UNALIGNED_UINT16_WRITE(addr, val)    (void)((((struct T_UINT16_WRITE *)(void *)(addr))-
  85:Drivers/CMSIS/Include/cmsis_gcc.h **** #endif
  86:Drivers/CMSIS/Include/cmsis_gcc.h **** #ifndef   __UNALIGNED_UINT16_READ
ARM GAS  C:\Users\Administrator\AppData\Local\Temp\ccdpxKbb.s 			page 6


  87:Drivers/CMSIS/Include/cmsis_gcc.h ****   #pragma GCC diagnostic push
  88:Drivers/CMSIS/Include/cmsis_gcc.h ****   #pragma GCC diagnostic ignored "-Wpacked"
  89:Drivers/CMSIS/Include/cmsis_gcc.h ****   #pragma GCC diagnostic ignored "-Wattributes"
  90:Drivers/CMSIS/Include/cmsis_gcc.h ****   __PACKED_STRUCT T_UINT16_READ { uint16_t v; };
  91:Drivers/CMSIS/Include/cmsis_gcc.h ****   #pragma GCC diagnostic pop
  92:Drivers/CMSIS/Include/cmsis_gcc.h ****   #define __UNALIGNED_UINT16_READ(addr)          (((const struct T_UINT16_READ *)(const void *)(add
  93:Drivers/CMSIS/Include/cmsis_gcc.h **** #endif
  94:Drivers/CMSIS/Include/cmsis_gcc.h **** #ifndef   __UNALIGNED_UINT32_WRITE
  95:Drivers/CMSIS/Include/cmsis_gcc.h ****   #pragma GCC diagnostic push
  96:Drivers/CMSIS/Include/cmsis_gcc.h ****   #pragma GCC diagnostic ignored "-Wpacked"
  97:Drivers/CMSIS/Include/cmsis_gcc.h ****   #pragma GCC diagnostic ignored "-Wattributes"
  98:Drivers/CMSIS/Include/cmsis_gcc.h ****   __PACKED_STRUCT T_UINT32_WRITE { uint32_t v; };
  99:Drivers/CMSIS/Include/cmsis_gcc.h ****   #pragma GCC diagnostic pop
 100:Drivers/CMSIS/Include/cmsis_gcc.h ****   #define __UNALIGNED_UINT32_WRITE(addr, val)    (void)((((struct T_UINT32_WRITE *)(void *)(addr))-
 101:Drivers/CMSIS/Include/cmsis_gcc.h **** #endif
 102:Drivers/CMSIS/Include/cmsis_gcc.h **** #ifndef   __UNALIGNED_UINT32_READ
 103:Drivers/CMSIS/Include/cmsis_gcc.h ****   #pragma GCC diagnostic push
 104:Drivers/CMSIS/Include/cmsis_gcc.h ****   #pragma GCC diagnostic ignored "-Wpacked"
 105:Drivers/CMSIS/Include/cmsis_gcc.h ****   #pragma GCC diagnostic ignored "-Wattributes"
 106:Drivers/CMSIS/Include/cmsis_gcc.h ****   __PACKED_STRUCT T_UINT32_READ { uint32_t v; };
 107:Drivers/CMSIS/Include/cmsis_gcc.h ****   #pragma GCC diagnostic pop
 108:Drivers/CMSIS/Include/cmsis_gcc.h ****   #define __UNALIGNED_UINT32_READ(addr)          (((const struct T_UINT32_READ *)(const void *)(add
 109:Drivers/CMSIS/Include/cmsis_gcc.h **** #endif
 110:Drivers/CMSIS/Include/cmsis_gcc.h **** #ifndef   __ALIGNED
 111:Drivers/CMSIS/Include/cmsis_gcc.h ****   #define __ALIGNED(x)                           __attribute__((aligned(x)))
 112:Drivers/CMSIS/Include/cmsis_gcc.h **** #endif
 113:Drivers/CMSIS/Include/cmsis_gcc.h **** #ifndef   __RESTRICT
 114:Drivers/CMSIS/Include/cmsis_gcc.h ****   #define __RESTRICT                             __restrict
 115:Drivers/CMSIS/Include/cmsis_gcc.h **** #endif
 116:Drivers/CMSIS/Include/cmsis_gcc.h **** 
 117:Drivers/CMSIS/Include/cmsis_gcc.h **** 
 118:Drivers/CMSIS/Include/cmsis_gcc.h **** /* ###########################  Core Function Access  ########################### */
 119:Drivers/CMSIS/Include/cmsis_gcc.h **** /** \ingroup  CMSIS_Core_FunctionInterface
 120:Drivers/CMSIS/Include/cmsis_gcc.h ****     \defgroup CMSIS_Core_RegAccFunctions CMSIS Core Register Access Functions
 121:Drivers/CMSIS/Include/cmsis_gcc.h ****   @{
 122:Drivers/CMSIS/Include/cmsis_gcc.h ****  */
 123:Drivers/CMSIS/Include/cmsis_gcc.h **** 
 124:Drivers/CMSIS/Include/cmsis_gcc.h **** /**
 125:Drivers/CMSIS/Include/cmsis_gcc.h ****   \brief   Enable IRQ Interrupts
 126:Drivers/CMSIS/Include/cmsis_gcc.h ****   \details Enables IRQ interrupts by clearing the I-bit in the CPSR.
 127:Drivers/CMSIS/Include/cmsis_gcc.h ****            Can only be executed in Privileged modes.
 128:Drivers/CMSIS/Include/cmsis_gcc.h ****  */
 129:Drivers/CMSIS/Include/cmsis_gcc.h **** __STATIC_FORCEINLINE void __enable_irq(void)
 130:Drivers/CMSIS/Include/cmsis_gcc.h **** {
 131:Drivers/CMSIS/Include/cmsis_gcc.h ****   __ASM volatile ("cpsie i" : : : "memory");
 132:Drivers/CMSIS/Include/cmsis_gcc.h **** }
 133:Drivers/CMSIS/Include/cmsis_gcc.h **** 
 134:Drivers/CMSIS/Include/cmsis_gcc.h **** 
 135:Drivers/CMSIS/Include/cmsis_gcc.h **** /**
 136:Drivers/CMSIS/Include/cmsis_gcc.h ****   \brief   Disable IRQ Interrupts
 137:Drivers/CMSIS/Include/cmsis_gcc.h ****   \details Disables IRQ interrupts by setting the I-bit in the CPSR.
 138:Drivers/CMSIS/Include/cmsis_gcc.h ****            Can only be executed in Privileged modes.
 139:Drivers/CMSIS/Include/cmsis_gcc.h ****  */
 140:Drivers/CMSIS/Include/cmsis_gcc.h **** __STATIC_FORCEINLINE void __disable_irq(void)
  37              		.loc 2 140 27 view .LVU2
  38              	.LBB5:
 141:Drivers/CMSIS/Include/cmsis_gcc.h **** {
ARM GAS  C:\Users\Administrator\AppData\Local\Temp\ccdpxKbb.s 			page 7


 142:Drivers/CMSIS/Include/cmsis_gcc.h ****   __ASM volatile ("cpsid i" : : : "memory");
  39              		.loc 2 142 3 view .LVU3
  40              		.syntax unified
  41              	@ 142 "Drivers/CMSIS/Include/cmsis_gcc.h" 1
  42 0000 72B6     		cpsid i
  43              	@ 0 "" 2
  44              		.thumb
  45              		.syntax unified
  46              	.L2:
  47              	.LBE5:
  48              	.LBE4:
 165:Core/Src/main.c ****   while (1)
  49              		.loc 1 165 3 discriminator 1 view .LVU4
 166:Core/Src/main.c ****   {
 167:Core/Src/main.c ****   }
  50              		.loc 1 167 3 discriminator 1 view .LVU5
 165:Core/Src/main.c ****   while (1)
  51              		.loc 1 165 9 discriminator 1 view .LVU6
  52 0002 FEE7     		b	.L2
  53              		.cfi_endproc
  54              	.LFE147:
  56              		.section	.text.SystemClock_Config,"ax",%progbits
  57              		.align	1
  58              		.global	SystemClock_Config
  59              		.syntax unified
  60              		.thumb
  61              		.thumb_func
  62              		.fpu softvfp
  64              	SystemClock_Config:
  65              	.LFB146:
 112:Core/Src/main.c ****   RCC_OscInitTypeDef RCC_OscInitStruct = {0};
  66              		.loc 1 112 1 view -0
  67              		.cfi_startproc
  68              		@ args = 0, pretend = 0, frame = 80
  69              		@ frame_needed = 0, uses_anonymous_args = 0
  70 0000 00B5     		push	{lr}
  71              	.LCFI0:
  72              		.cfi_def_cfa_offset 4
  73              		.cfi_offset 14, -4
  74 0002 95B0     		sub	sp, sp, #84
  75              	.LCFI1:
  76              		.cfi_def_cfa_offset 88
 113:Core/Src/main.c ****   RCC_ClkInitTypeDef RCC_ClkInitStruct = {0};
  77              		.loc 1 113 3 view .LVU8
 113:Core/Src/main.c ****   RCC_ClkInitTypeDef RCC_ClkInitStruct = {0};
  78              		.loc 1 113 22 is_stmt 0 view .LVU9
  79 0004 3022     		movs	r2, #48
  80 0006 0021     		movs	r1, #0
  81 0008 08A8     		add	r0, sp, #32
  82 000a FFF7FEFF 		bl	memset
  83              	.LVL0:
 114:Core/Src/main.c **** 
  84              		.loc 1 114 3 is_stmt 1 view .LVU10
 114:Core/Src/main.c **** 
  85              		.loc 1 114 22 is_stmt 0 view .LVU11
  86 000e 0023     		movs	r3, #0
  87 0010 0393     		str	r3, [sp, #12]
ARM GAS  C:\Users\Administrator\AppData\Local\Temp\ccdpxKbb.s 			page 8


  88 0012 0493     		str	r3, [sp, #16]
  89 0014 0593     		str	r3, [sp, #20]
  90 0016 0693     		str	r3, [sp, #24]
  91 0018 0793     		str	r3, [sp, #28]
 118:Core/Src/main.c ****   __HAL_PWR_VOLTAGESCALING_CONFIG(PWR_REGULATOR_VOLTAGE_SCALE1);
  92              		.loc 1 118 3 is_stmt 1 view .LVU12
  93              	.LBB6:
 118:Core/Src/main.c ****   __HAL_PWR_VOLTAGESCALING_CONFIG(PWR_REGULATOR_VOLTAGE_SCALE1);
  94              		.loc 1 118 3 view .LVU13
  95 001a 0193     		str	r3, [sp, #4]
 118:Core/Src/main.c ****   __HAL_PWR_VOLTAGESCALING_CONFIG(PWR_REGULATOR_VOLTAGE_SCALE1);
  96              		.loc 1 118 3 view .LVU14
  97 001c 204A     		ldr	r2, .L9
  98 001e 116C     		ldr	r1, [r2, #64]
  99 0020 41F08051 		orr	r1, r1, #268435456
 100 0024 1164     		str	r1, [r2, #64]
 118:Core/Src/main.c ****   __HAL_PWR_VOLTAGESCALING_CONFIG(PWR_REGULATOR_VOLTAGE_SCALE1);
 101              		.loc 1 118 3 view .LVU15
 102 0026 126C     		ldr	r2, [r2, #64]
 103 0028 02F08052 		and	r2, r2, #268435456
 104 002c 0192     		str	r2, [sp, #4]
 118:Core/Src/main.c ****   __HAL_PWR_VOLTAGESCALING_CONFIG(PWR_REGULATOR_VOLTAGE_SCALE1);
 105              		.loc 1 118 3 view .LVU16
 106 002e 019A     		ldr	r2, [sp, #4]
 107              	.LBE6:
 118:Core/Src/main.c ****   __HAL_PWR_VOLTAGESCALING_CONFIG(PWR_REGULATOR_VOLTAGE_SCALE1);
 108              		.loc 1 118 3 view .LVU17
 119:Core/Src/main.c **** 
 109              		.loc 1 119 3 view .LVU18
 110              	.LBB7:
 119:Core/Src/main.c **** 
 111              		.loc 1 119 3 view .LVU19
 112 0030 0293     		str	r3, [sp, #8]
 119:Core/Src/main.c **** 
 113              		.loc 1 119 3 view .LVU20
 114 0032 1C4B     		ldr	r3, .L9+4
 115 0034 1A68     		ldr	r2, [r3]
 116 0036 42F48042 		orr	r2, r2, #16384
 117 003a 1A60     		str	r2, [r3]
 119:Core/Src/main.c **** 
 118              		.loc 1 119 3 view .LVU21
 119 003c 1B68     		ldr	r3, [r3]
 120 003e 03F48043 		and	r3, r3, #16384
 121 0042 0293     		str	r3, [sp, #8]
 119:Core/Src/main.c **** 
 122              		.loc 1 119 3 view .LVU22
 123 0044 029B     		ldr	r3, [sp, #8]
 124              	.LBE7:
 119:Core/Src/main.c **** 
 125              		.loc 1 119 3 view .LVU23
 124:Core/Src/main.c ****   RCC_OscInitStruct.HSEState = RCC_HSE_ON;
 126              		.loc 1 124 3 view .LVU24
 124:Core/Src/main.c ****   RCC_OscInitStruct.HSEState = RCC_HSE_ON;
 127              		.loc 1 124 36 is_stmt 0 view .LVU25
 128 0046 0123     		movs	r3, #1
 129 0048 0893     		str	r3, [sp, #32]
 125:Core/Src/main.c ****   RCC_OscInitStruct.PLL.PLLState = RCC_PLL_ON;
ARM GAS  C:\Users\Administrator\AppData\Local\Temp\ccdpxKbb.s 			page 9


 130              		.loc 1 125 3 is_stmt 1 view .LVU26
 125:Core/Src/main.c ****   RCC_OscInitStruct.PLL.PLLState = RCC_PLL_ON;
 131              		.loc 1 125 30 is_stmt 0 view .LVU27
 132 004a 4FF48033 		mov	r3, #65536
 133 004e 0993     		str	r3, [sp, #36]
 126:Core/Src/main.c ****   RCC_OscInitStruct.PLL.PLLSource = RCC_PLLSOURCE_HSE;
 134              		.loc 1 126 3 is_stmt 1 view .LVU28
 126:Core/Src/main.c ****   RCC_OscInitStruct.PLL.PLLSource = RCC_PLLSOURCE_HSE;
 135              		.loc 1 126 34 is_stmt 0 view .LVU29
 136 0050 0222     		movs	r2, #2
 137 0052 0E92     		str	r2, [sp, #56]
 127:Core/Src/main.c ****   RCC_OscInitStruct.PLL.PLLM = 4;
 138              		.loc 1 127 3 is_stmt 1 view .LVU30
 127:Core/Src/main.c ****   RCC_OscInitStruct.PLL.PLLM = 4;
 139              		.loc 1 127 35 is_stmt 0 view .LVU31
 140 0054 4FF48003 		mov	r3, #4194304
 141 0058 0F93     		str	r3, [sp, #60]
 128:Core/Src/main.c ****   RCC_OscInitStruct.PLL.PLLN = 168;
 142              		.loc 1 128 3 is_stmt 1 view .LVU32
 128:Core/Src/main.c ****   RCC_OscInitStruct.PLL.PLLN = 168;
 143              		.loc 1 128 30 is_stmt 0 view .LVU33
 144 005a 0423     		movs	r3, #4
 145 005c 1093     		str	r3, [sp, #64]
 129:Core/Src/main.c ****   RCC_OscInitStruct.PLL.PLLP = RCC_PLLP_DIV2;
 146              		.loc 1 129 3 is_stmt 1 view .LVU34
 129:Core/Src/main.c ****   RCC_OscInitStruct.PLL.PLLP = RCC_PLLP_DIV2;
 147              		.loc 1 129 30 is_stmt 0 view .LVU35
 148 005e A821     		movs	r1, #168
 149 0060 1191     		str	r1, [sp, #68]
 130:Core/Src/main.c ****   RCC_OscInitStruct.PLL.PLLQ = 4;
 150              		.loc 1 130 3 is_stmt 1 view .LVU36
 130:Core/Src/main.c ****   RCC_OscInitStruct.PLL.PLLQ = 4;
 151              		.loc 1 130 30 is_stmt 0 view .LVU37
 152 0062 1292     		str	r2, [sp, #72]
 131:Core/Src/main.c ****   if (HAL_RCC_OscConfig(&RCC_OscInitStruct) != HAL_OK)
 153              		.loc 1 131 3 is_stmt 1 view .LVU38
 131:Core/Src/main.c ****   if (HAL_RCC_OscConfig(&RCC_OscInitStruct) != HAL_OK)
 154              		.loc 1 131 30 is_stmt 0 view .LVU39
 155 0064 1393     		str	r3, [sp, #76]
 132:Core/Src/main.c ****   {
 156              		.loc 1 132 3 is_stmt 1 view .LVU40
 132:Core/Src/main.c ****   {
 157              		.loc 1 132 7 is_stmt 0 view .LVU41
 158 0066 08A8     		add	r0, sp, #32
 159 0068 FFF7FEFF 		bl	HAL_RCC_OscConfig
 160              	.LVL1:
 132:Core/Src/main.c ****   {
 161              		.loc 1 132 6 view .LVU42
 162 006c 98B9     		cbnz	r0, .L7
 139:Core/Src/main.c ****                               |RCC_CLOCKTYPE_PCLK1|RCC_CLOCKTYPE_PCLK2;
 163              		.loc 1 139 3 is_stmt 1 view .LVU43
 139:Core/Src/main.c ****                               |RCC_CLOCKTYPE_PCLK1|RCC_CLOCKTYPE_PCLK2;
 164              		.loc 1 139 31 is_stmt 0 view .LVU44
 165 006e 0F23     		movs	r3, #15
 166 0070 0393     		str	r3, [sp, #12]
 141:Core/Src/main.c ****   RCC_ClkInitStruct.AHBCLKDivider = RCC_SYSCLK_DIV1;
 167              		.loc 1 141 3 is_stmt 1 view .LVU45
ARM GAS  C:\Users\Administrator\AppData\Local\Temp\ccdpxKbb.s 			page 10


 141:Core/Src/main.c ****   RCC_ClkInitStruct.AHBCLKDivider = RCC_SYSCLK_DIV1;
 168              		.loc 1 141 34 is_stmt 0 view .LVU46
 169 0072 0223     		movs	r3, #2
 170 0074 0493     		str	r3, [sp, #16]
 142:Core/Src/main.c ****   RCC_ClkInitStruct.APB1CLKDivider = RCC_HCLK_DIV4;
 171              		.loc 1 142 3 is_stmt 1 view .LVU47
 142:Core/Src/main.c ****   RCC_ClkInitStruct.APB1CLKDivider = RCC_HCLK_DIV4;
 172              		.loc 1 142 35 is_stmt 0 view .LVU48
 173 0076 0023     		movs	r3, #0
 174 0078 0593     		str	r3, [sp, #20]
 143:Core/Src/main.c ****   RCC_ClkInitStruct.APB2CLKDivider = RCC_HCLK_DIV2;
 175              		.loc 1 143 3 is_stmt 1 view .LVU49
 143:Core/Src/main.c ****   RCC_ClkInitStruct.APB2CLKDivider = RCC_HCLK_DIV2;
 176              		.loc 1 143 36 is_stmt 0 view .LVU50
 177 007a 4FF4A053 		mov	r3, #5120
 178 007e 0693     		str	r3, [sp, #24]
 144:Core/Src/main.c **** 
 179              		.loc 1 144 3 is_stmt 1 view .LVU51
 144:Core/Src/main.c **** 
 180              		.loc 1 144 36 is_stmt 0 view .LVU52
 181 0080 4FF48053 		mov	r3, #4096
 182 0084 0793     		str	r3, [sp, #28]
 146:Core/Src/main.c ****   {
 183              		.loc 1 146 3 is_stmt 1 view .LVU53
 146:Core/Src/main.c ****   {
 184              		.loc 1 146 7 is_stmt 0 view .LVU54
 185 0086 0521     		movs	r1, #5
 186 0088 03A8     		add	r0, sp, #12
 187 008a FFF7FEFF 		bl	HAL_RCC_ClockConfig
 188              	.LVL2:
 146:Core/Src/main.c ****   {
 189              		.loc 1 146 6 view .LVU55
 190 008e 20B9     		cbnz	r0, .L8
 150:Core/Src/main.c **** 
 191              		.loc 1 150 1 view .LVU56
 192 0090 15B0     		add	sp, sp, #84
 193              	.LCFI2:
 194              		.cfi_remember_state
 195              		.cfi_def_cfa_offset 4
 196              		@ sp needed
 197 0092 5DF804FB 		ldr	pc, [sp], #4
 198              	.L7:
 199              	.LCFI3:
 200              		.cfi_restore_state
 134:Core/Src/main.c ****   }
 201              		.loc 1 134 5 is_stmt 1 view .LVU57
 202 0096 FFF7FEFF 		bl	Error_Handler
 203              	.LVL3:
 204              	.L8:
 148:Core/Src/main.c ****   }
 205              		.loc 1 148 5 view .LVU58
 206 009a FFF7FEFF 		bl	Error_Handler
 207              	.LVL4:
 208              	.L10:
 209 009e 00BF     		.align	2
 210              	.L9:
 211 00a0 00380240 		.word	1073887232
ARM GAS  C:\Users\Administrator\AppData\Local\Temp\ccdpxKbb.s 			page 11


 212 00a4 00700040 		.word	1073770496
 213              		.cfi_endproc
 214              	.LFE146:
 216              		.section	.rodata.main.str1.4,"aMS",%progbits,1
 217              		.align	2
 218              	.LC0:
 219 0000 1B5B303B 		.ascii	"\033[0;32;33m [DEB] \000"
 219      33323B33 
 219      336D205B 
 219      4445425D 
 219      2000
 220 0012 0000     		.align	2
 221              	.LC1:
 222 0014 68656C6C 		.ascii	"hello world\012\000"
 222      6F20776F 
 222      726C640A 
 222      00
 223 0021 000000   		.align	2
 224              	.LC2:
 225 0024 1B5B306D 		.ascii	"\033[0m\000"
 225      00
 226              		.section	.text.main,"ax",%progbits
 227              		.align	1
 228              		.global	main
 229              		.syntax unified
 230              		.thumb
 231              		.thumb_func
 232              		.fpu softvfp
 234              	main:
 235              	.LFB145:
  65:Core/Src/main.c ****   /* USER CODE BEGIN 1 */
 236              		.loc 1 65 1 view -0
 237              		.cfi_startproc
 238              		@ Volatile: function does not return.
 239              		@ args = 0, pretend = 0, frame = 0
 240              		@ frame_needed = 0, uses_anonymous_args = 0
 241 0000 08B5     		push	{r3, lr}
 242              	.LCFI4:
 243              		.cfi_def_cfa_offset 8
 244              		.cfi_offset 3, -8
 245              		.cfi_offset 14, -4
  73:Core/Src/main.c **** 
 246              		.loc 1 73 3 view .LVU60
 247 0002 FFF7FEFF 		bl	HAL_Init
 248              	.LVL5:
  80:Core/Src/main.c **** 
 249              		.loc 1 80 3 view .LVU61
 250 0006 FFF7FEFF 		bl	SystemClock_Config
 251              	.LVL6:
  87:Core/Src/main.c ****   MX_USART1_UART_Init();
 252              		.loc 1 87 3 view .LVU62
 253 000a FFF7FEFF 		bl	MX_GPIO_Init
 254              	.LVL7:
  88:Core/Src/main.c ****   /* USER CODE BEGIN 2 */
 255              		.loc 1 88 3 view .LVU63
 256 000e FFF7FEFF 		bl	MX_USART1_UART_Init
 257              	.LVL8:
ARM GAS  C:\Users\Administrator\AppData\Local\Temp\ccdpxKbb.s 			page 12


 258              	.L12:
  95:Core/Src/main.c ****   {
 259              		.loc 1 95 3 discriminator 1 view .LVU64
  97:Core/Src/main.c ****     HAL_GPIO_TogglePin(LED1_GPIO_Port, LED1_Pin);
 260              		.loc 1 97 5 discriminator 1 view .LVU65
  97:Core/Src/main.c ****     HAL_GPIO_TogglePin(LED1_GPIO_Port, LED1_Pin);
 261              		.loc 1 97 5 discriminator 1 view .LVU66
 262 0012 0948     		ldr	r0, .L14
 263 0014 FFF7FEFF 		bl	rt_kprintf
 264              	.LVL9:
 265 0018 0848     		ldr	r0, .L14+4
 266 001a FFF7FEFF 		bl	rt_kprintf
 267              	.LVL10:
  97:Core/Src/main.c ****     HAL_GPIO_TogglePin(LED1_GPIO_Port, LED1_Pin);
 268              		.loc 1 97 5 discriminator 1 view .LVU67
 269 001e 0848     		ldr	r0, .L14+8
 270 0020 FFF7FEFF 		bl	rt_kprintf
 271              	.LVL11:
  97:Core/Src/main.c ****     HAL_GPIO_TogglePin(LED1_GPIO_Port, LED1_Pin);
 272              		.loc 1 97 5 discriminator 1 view .LVU68
  98:Core/Src/main.c ****     rt_thread_mdelay(500);
 273              		.loc 1 98 5 discriminator 1 view .LVU69
 274 0024 0221     		movs	r1, #2
 275 0026 0748     		ldr	r0, .L14+12
 276 0028 FFF7FEFF 		bl	HAL_GPIO_TogglePin
 277              	.LVL12:
  99:Core/Src/main.c ****     /* USER CODE END WHILE */
 278              		.loc 1 99 5 discriminator 1 view .LVU70
 279 002c 4FF4FA70 		mov	r0, #500
 280 0030 FFF7FEFF 		bl	rt_thread_mdelay
 281              	.LVL13:
  95:Core/Src/main.c ****   {
 282              		.loc 1 95 9 discriminator 1 view .LVU71
 283 0034 EDE7     		b	.L12
 284              	.L15:
 285 0036 00BF     		.align	2
 286              	.L14:
 287 0038 00000000 		.word	.LC0
 288 003c 14000000 		.word	.LC1
 289 0040 24000000 		.word	.LC2
 290 0044 00100240 		.word	1073876992
 291              		.cfi_endproc
 292              	.LFE145:
 294              		.text
 295              	.Letext0:
 296              		.file 3 "c:\\gcc-arm-none-eabi-10-2020-q4-major\\arm-none-eabi\\include\\machine\\_default_types.h
 297              		.file 4 "c:\\gcc-arm-none-eabi-10-2020-q4-major\\arm-none-eabi\\include\\sys\\_stdint.h"
 298              		.file 5 "Drivers/CMSIS/Device/ST/STM32F4xx/Include/stm32f407xx.h"
 299              		.file 6 "Drivers/STM32F4xx_HAL_Driver/Inc/stm32f4xx_hal_rcc_ex.h"
 300              		.file 7 "Drivers/STM32F4xx_HAL_Driver/Inc/stm32f4xx_hal_rcc.h"
 301              		.file 8 "Drivers/STM32F4xx_HAL_Driver/Inc/stm32f4xx_hal.h"
 302              		.file 9 "Core/Inc/gpio.h"
 303              		.file 10 "Core/Inc/usart.h"
 304              		.file 11 "Middlewares/Third_Party/RealThread_RTOS/include/rtthread.h"
 305              		.file 12 "Drivers/STM32F4xx_HAL_Driver/Inc/stm32f4xx_hal_gpio.h"
 306              		.file 13 "Drivers/STM32F4xx_HAL_Driver/Inc/stm32f4xx_hal_def.h"
 307              		.file 14 "<built-in>"
ARM GAS  C:\Users\Administrator\AppData\Local\Temp\ccdpxKbb.s 			page 13


ARM GAS  C:\Users\Administrator\AppData\Local\Temp\ccdpxKbb.s 			page 14


DEFINED SYMBOLS
                            *ABS*:00000000 main.c
C:\Users\Administrator\AppData\Local\Temp\ccdpxKbb.s:16     .text.Error_Handler:00000000 $t
C:\Users\Administrator\AppData\Local\Temp\ccdpxKbb.s:24     .text.Error_Handler:00000000 Error_Handler
C:\Users\Administrator\AppData\Local\Temp\ccdpxKbb.s:57     .text.SystemClock_Config:00000000 $t
C:\Users\Administrator\AppData\Local\Temp\ccdpxKbb.s:64     .text.SystemClock_Config:00000000 SystemClock_Config
C:\Users\Administrator\AppData\Local\Temp\ccdpxKbb.s:211    .text.SystemClock_Config:000000a0 $d
C:\Users\Administrator\AppData\Local\Temp\ccdpxKbb.s:217    .rodata.main.str1.4:00000000 $d
C:\Users\Administrator\AppData\Local\Temp\ccdpxKbb.s:227    .text.main:00000000 $t
C:\Users\Administrator\AppData\Local\Temp\ccdpxKbb.s:234    .text.main:00000000 main
C:\Users\Administrator\AppData\Local\Temp\ccdpxKbb.s:287    .text.main:00000038 $d

UNDEFINED SYMBOLS
memset
HAL_RCC_OscConfig
HAL_RCC_ClockConfig
HAL_Init
MX_GPIO_Init
MX_USART1_UART_Init
rt_kprintf
HAL_GPIO_TogglePin
rt_thread_mdelay
