ARM GAS  C:\Users\Administrator\AppData\Local\Temp\ccrBjxbP.s 			page 1


   1              		.cpu cortex-m4
   2              		.eabi_attribute 20, 1
   3              		.eabi_attribute 21, 1
   4              		.eabi_attribute 23, 3
   5              		.eabi_attribute 24, 1
   6              		.eabi_attribute 25, 1
   7              		.eabi_attribute 26, 1
   8              		.eabi_attribute 30, 1
   9              		.eabi_attribute 34, 1
  10              		.eabi_attribute 18, 4
  11              		.file	"object.c"
  12              		.text
  13              	.Ltext0:
  14              		.cfi_sections	.debug_frame
  15              		.section	.text.rt_object_attach_sethook,"ax",%progbits
  16              		.align	1
  17              		.global	rt_object_attach_sethook
  18              		.arch armv7e-m
  19              		.syntax unified
  20              		.thumb
  21              		.thumb_func
  22              		.fpu softvfp
  24              	rt_object_attach_sethook:
  25              	.LVL0:
  26              	.LFB15:
  27              		.file 1 "Middlewares/Third_Party/RealThread_RTOS/src/object.c"
   1:Middlewares/Third_Party/RealThread_RTOS/src/object.c **** /*
   2:Middlewares/Third_Party/RealThread_RTOS/src/object.c ****  * Copyright (c) 2006-2021, RT-Thread Development Team
   3:Middlewares/Third_Party/RealThread_RTOS/src/object.c ****  *
   4:Middlewares/Third_Party/RealThread_RTOS/src/object.c ****  * SPDX-License-Identifier: Apache-2.0
   5:Middlewares/Third_Party/RealThread_RTOS/src/object.c ****  *
   6:Middlewares/Third_Party/RealThread_RTOS/src/object.c ****  * Change Logs:
   7:Middlewares/Third_Party/RealThread_RTOS/src/object.c ****  * Date           Author       Notes
   8:Middlewares/Third_Party/RealThread_RTOS/src/object.c ****  * 2006-03-14     Bernard      the first version
   9:Middlewares/Third_Party/RealThread_RTOS/src/object.c ****  * 2006-04-21     Bernard      change the scheduler lock to interrupt lock
  10:Middlewares/Third_Party/RealThread_RTOS/src/object.c ****  * 2006-05-18     Bernard      fix the object init bug
  11:Middlewares/Third_Party/RealThread_RTOS/src/object.c ****  * 2006-08-03     Bernard      add hook support
  12:Middlewares/Third_Party/RealThread_RTOS/src/object.c ****  * 2007-01-28     Bernard      rename RT_OBJECT_Class_Static to RT_Object_Class_Static
  13:Middlewares/Third_Party/RealThread_RTOS/src/object.c ****  * 2010-10-26     yi.qiu       add module support in rt_object_allocate and rt_object_free
  14:Middlewares/Third_Party/RealThread_RTOS/src/object.c ****  * 2017-12-10     Bernard      Add object_info enum.
  15:Middlewares/Third_Party/RealThread_RTOS/src/object.c ****  * 2018-01-25     Bernard      Fix the object find issue when enable MODULE.
  16:Middlewares/Third_Party/RealThread_RTOS/src/object.c ****  */
  17:Middlewares/Third_Party/RealThread_RTOS/src/object.c **** 
  18:Middlewares/Third_Party/RealThread_RTOS/src/object.c **** #include <rtthread.h>
  19:Middlewares/Third_Party/RealThread_RTOS/src/object.c **** #include <rthw.h>
  20:Middlewares/Third_Party/RealThread_RTOS/src/object.c **** 
  21:Middlewares/Third_Party/RealThread_RTOS/src/object.c **** /*
  22:Middlewares/Third_Party/RealThread_RTOS/src/object.c ****  * define object_info for the number of rt_object_container items.
  23:Middlewares/Third_Party/RealThread_RTOS/src/object.c ****  */
  24:Middlewares/Third_Party/RealThread_RTOS/src/object.c **** enum rt_object_info_type
  25:Middlewares/Third_Party/RealThread_RTOS/src/object.c **** {
  26:Middlewares/Third_Party/RealThread_RTOS/src/object.c ****     RT_Object_Info_Thread = 0,                         /**< The object is a thread. */
  27:Middlewares/Third_Party/RealThread_RTOS/src/object.c **** #ifdef RT_USING_SEMAPHORE
  28:Middlewares/Third_Party/RealThread_RTOS/src/object.c ****     RT_Object_Info_Semaphore,                          /**< The object is a semaphore. */
  29:Middlewares/Third_Party/RealThread_RTOS/src/object.c **** #endif
  30:Middlewares/Third_Party/RealThread_RTOS/src/object.c **** #ifdef RT_USING_MUTEX
  31:Middlewares/Third_Party/RealThread_RTOS/src/object.c ****     RT_Object_Info_Mutex,                              /**< The object is a mutex. */
ARM GAS  C:\Users\Administrator\AppData\Local\Temp\ccrBjxbP.s 			page 2


  32:Middlewares/Third_Party/RealThread_RTOS/src/object.c **** #endif
  33:Middlewares/Third_Party/RealThread_RTOS/src/object.c **** #ifdef RT_USING_EVENT
  34:Middlewares/Third_Party/RealThread_RTOS/src/object.c ****     RT_Object_Info_Event,                              /**< The object is a event. */
  35:Middlewares/Third_Party/RealThread_RTOS/src/object.c **** #endif
  36:Middlewares/Third_Party/RealThread_RTOS/src/object.c **** #ifdef RT_USING_MAILBOX
  37:Middlewares/Third_Party/RealThread_RTOS/src/object.c ****     RT_Object_Info_MailBox,                            /**< The object is a mail box. */
  38:Middlewares/Third_Party/RealThread_RTOS/src/object.c **** #endif
  39:Middlewares/Third_Party/RealThread_RTOS/src/object.c **** #ifdef RT_USING_MESSAGEQUEUE
  40:Middlewares/Third_Party/RealThread_RTOS/src/object.c ****     RT_Object_Info_MessageQueue,                       /**< The object is a message queue. */
  41:Middlewares/Third_Party/RealThread_RTOS/src/object.c **** #endif
  42:Middlewares/Third_Party/RealThread_RTOS/src/object.c **** #ifdef RT_USING_MEMHEAP
  43:Middlewares/Third_Party/RealThread_RTOS/src/object.c ****     RT_Object_Info_MemHeap,                            /**< The object is a memory heap */
  44:Middlewares/Third_Party/RealThread_RTOS/src/object.c **** #endif
  45:Middlewares/Third_Party/RealThread_RTOS/src/object.c **** #ifdef RT_USING_MEMPOOL
  46:Middlewares/Third_Party/RealThread_RTOS/src/object.c ****     RT_Object_Info_MemPool,                            /**< The object is a memory pool. */
  47:Middlewares/Third_Party/RealThread_RTOS/src/object.c **** #endif
  48:Middlewares/Third_Party/RealThread_RTOS/src/object.c **** #ifdef RT_USING_DEVICE
  49:Middlewares/Third_Party/RealThread_RTOS/src/object.c ****     RT_Object_Info_Device,                             /**< The object is a device */
  50:Middlewares/Third_Party/RealThread_RTOS/src/object.c **** #endif
  51:Middlewares/Third_Party/RealThread_RTOS/src/object.c ****     RT_Object_Info_Timer,                              /**< The object is a timer. */
  52:Middlewares/Third_Party/RealThread_RTOS/src/object.c ****     RT_Object_Info_Unknown,                            /**< The object is unknown. */
  53:Middlewares/Third_Party/RealThread_RTOS/src/object.c **** };
  54:Middlewares/Third_Party/RealThread_RTOS/src/object.c **** 
  55:Middlewares/Third_Party/RealThread_RTOS/src/object.c **** #define _OBJ_CONTAINER_LIST_INIT(c)     \
  56:Middlewares/Third_Party/RealThread_RTOS/src/object.c ****     {&(rt_object_container[c].object_list), &(rt_object_container[c].object_list)}
  57:Middlewares/Third_Party/RealThread_RTOS/src/object.c **** static struct rt_object_information rt_object_container[RT_Object_Info_Unknown] =
  58:Middlewares/Third_Party/RealThread_RTOS/src/object.c **** {
  59:Middlewares/Third_Party/RealThread_RTOS/src/object.c ****     /* initialize object container - thread */
  60:Middlewares/Third_Party/RealThread_RTOS/src/object.c ****     {RT_Object_Class_Thread, _OBJ_CONTAINER_LIST_INIT(RT_Object_Info_Thread), sizeof(struct rt_thre
  61:Middlewares/Third_Party/RealThread_RTOS/src/object.c **** #ifdef RT_USING_SEMAPHORE
  62:Middlewares/Third_Party/RealThread_RTOS/src/object.c ****     /* initialize object container - semaphore */
  63:Middlewares/Third_Party/RealThread_RTOS/src/object.c ****     {RT_Object_Class_Semaphore, _OBJ_CONTAINER_LIST_INIT(RT_Object_Info_Semaphore), sizeof(struct r
  64:Middlewares/Third_Party/RealThread_RTOS/src/object.c **** #endif
  65:Middlewares/Third_Party/RealThread_RTOS/src/object.c **** #ifdef RT_USING_MUTEX
  66:Middlewares/Third_Party/RealThread_RTOS/src/object.c ****     /* initialize object container - mutex */
  67:Middlewares/Third_Party/RealThread_RTOS/src/object.c ****     {RT_Object_Class_Mutex, _OBJ_CONTAINER_LIST_INIT(RT_Object_Info_Mutex), sizeof(struct rt_mutex)
  68:Middlewares/Third_Party/RealThread_RTOS/src/object.c **** #endif
  69:Middlewares/Third_Party/RealThread_RTOS/src/object.c **** #ifdef RT_USING_EVENT
  70:Middlewares/Third_Party/RealThread_RTOS/src/object.c ****     /* initialize object container - event */
  71:Middlewares/Third_Party/RealThread_RTOS/src/object.c ****     {RT_Object_Class_Event, _OBJ_CONTAINER_LIST_INIT(RT_Object_Info_Event), sizeof(struct rt_event)
  72:Middlewares/Third_Party/RealThread_RTOS/src/object.c **** #endif
  73:Middlewares/Third_Party/RealThread_RTOS/src/object.c **** #ifdef RT_USING_MAILBOX
  74:Middlewares/Third_Party/RealThread_RTOS/src/object.c ****     /* initialize object container - mailbox */
  75:Middlewares/Third_Party/RealThread_RTOS/src/object.c ****     {RT_Object_Class_MailBox, _OBJ_CONTAINER_LIST_INIT(RT_Object_Info_MailBox), sizeof(struct rt_ma
  76:Middlewares/Third_Party/RealThread_RTOS/src/object.c **** #endif
  77:Middlewares/Third_Party/RealThread_RTOS/src/object.c **** #ifdef RT_USING_MESSAGEQUEUE
  78:Middlewares/Third_Party/RealThread_RTOS/src/object.c ****     /* initialize object container - message queue */
  79:Middlewares/Third_Party/RealThread_RTOS/src/object.c ****     {RT_Object_Class_MessageQueue, _OBJ_CONTAINER_LIST_INIT(RT_Object_Info_MessageQueue), sizeof(st
  80:Middlewares/Third_Party/RealThread_RTOS/src/object.c **** #endif
  81:Middlewares/Third_Party/RealThread_RTOS/src/object.c **** #ifdef RT_USING_MEMHEAP
  82:Middlewares/Third_Party/RealThread_RTOS/src/object.c ****     /* initialize object container - memory heap */
  83:Middlewares/Third_Party/RealThread_RTOS/src/object.c ****     {RT_Object_Class_MemHeap, _OBJ_CONTAINER_LIST_INIT(RT_Object_Info_MemHeap), sizeof(struct rt_me
  84:Middlewares/Third_Party/RealThread_RTOS/src/object.c **** #endif
  85:Middlewares/Third_Party/RealThread_RTOS/src/object.c **** #ifdef RT_USING_MEMPOOL
  86:Middlewares/Third_Party/RealThread_RTOS/src/object.c ****     /* initialize object container - memory pool */
  87:Middlewares/Third_Party/RealThread_RTOS/src/object.c ****     {RT_Object_Class_MemPool, _OBJ_CONTAINER_LIST_INIT(RT_Object_Info_MemPool), sizeof(struct rt_me
  88:Middlewares/Third_Party/RealThread_RTOS/src/object.c **** #endif
ARM GAS  C:\Users\Administrator\AppData\Local\Temp\ccrBjxbP.s 			page 3


  89:Middlewares/Third_Party/RealThread_RTOS/src/object.c **** #ifdef RT_USING_DEVICE
  90:Middlewares/Third_Party/RealThread_RTOS/src/object.c ****     /* initialize object container - device */
  91:Middlewares/Third_Party/RealThread_RTOS/src/object.c ****     {RT_Object_Class_Device, _OBJ_CONTAINER_LIST_INIT(RT_Object_Info_Device), sizeof(struct rt_devi
  92:Middlewares/Third_Party/RealThread_RTOS/src/object.c **** #endif
  93:Middlewares/Third_Party/RealThread_RTOS/src/object.c ****     /* initialize object container - timer */
  94:Middlewares/Third_Party/RealThread_RTOS/src/object.c ****     {RT_Object_Class_Timer, _OBJ_CONTAINER_LIST_INIT(RT_Object_Info_Timer), sizeof(struct rt_timer)
  95:Middlewares/Third_Party/RealThread_RTOS/src/object.c **** };
  96:Middlewares/Third_Party/RealThread_RTOS/src/object.c **** 
  97:Middlewares/Third_Party/RealThread_RTOS/src/object.c **** #ifdef RT_USING_HOOK
  98:Middlewares/Third_Party/RealThread_RTOS/src/object.c **** static void (*rt_object_attach_hook)(struct rt_object *object);
  99:Middlewares/Third_Party/RealThread_RTOS/src/object.c **** static void (*rt_object_detach_hook)(struct rt_object *object);
 100:Middlewares/Third_Party/RealThread_RTOS/src/object.c **** void (*rt_object_trytake_hook)(struct rt_object *object);
 101:Middlewares/Third_Party/RealThread_RTOS/src/object.c **** void (*rt_object_take_hook)(struct rt_object *object);
 102:Middlewares/Third_Party/RealThread_RTOS/src/object.c **** void (*rt_object_put_hook)(struct rt_object *object);
 103:Middlewares/Third_Party/RealThread_RTOS/src/object.c **** 
 104:Middlewares/Third_Party/RealThread_RTOS/src/object.c **** /**
 105:Middlewares/Third_Party/RealThread_RTOS/src/object.c ****  * @addtogroup Hook
 106:Middlewares/Third_Party/RealThread_RTOS/src/object.c ****  */
 107:Middlewares/Third_Party/RealThread_RTOS/src/object.c **** 
 108:Middlewares/Third_Party/RealThread_RTOS/src/object.c **** /**@{*/
 109:Middlewares/Third_Party/RealThread_RTOS/src/object.c **** 
 110:Middlewares/Third_Party/RealThread_RTOS/src/object.c **** /**
 111:Middlewares/Third_Party/RealThread_RTOS/src/object.c ****  * This function will set a hook function, which will be invoked when object
 112:Middlewares/Third_Party/RealThread_RTOS/src/object.c ****  * attaches to kernel object system.
 113:Middlewares/Third_Party/RealThread_RTOS/src/object.c ****  *
 114:Middlewares/Third_Party/RealThread_RTOS/src/object.c ****  * @param hook the hook function
 115:Middlewares/Third_Party/RealThread_RTOS/src/object.c ****  */
 116:Middlewares/Third_Party/RealThread_RTOS/src/object.c **** void rt_object_attach_sethook(void (*hook)(struct rt_object *object))
 117:Middlewares/Third_Party/RealThread_RTOS/src/object.c **** {
  28              		.loc 1 117 1 view -0
  29              		.cfi_startproc
  30              		@ args = 0, pretend = 0, frame = 0
  31              		@ frame_needed = 0, uses_anonymous_args = 0
  32              		@ link register save eliminated.
 118:Middlewares/Third_Party/RealThread_RTOS/src/object.c ****     rt_object_attach_hook = hook;
  33              		.loc 1 118 5 view .LVU1
  34              		.loc 1 118 27 is_stmt 0 view .LVU2
  35 0000 014B     		ldr	r3, .L2
  36 0002 1860     		str	r0, [r3]
 119:Middlewares/Third_Party/RealThread_RTOS/src/object.c **** }
  37              		.loc 1 119 1 view .LVU3
  38 0004 7047     		bx	lr
  39              	.L3:
  40 0006 00BF     		.align	2
  41              	.L2:
  42 0008 00000000 		.word	.LANCHOR0
  43              		.cfi_endproc
  44              	.LFE15:
  46              		.section	.text.rt_object_detach_sethook,"ax",%progbits
  47              		.align	1
  48              		.global	rt_object_detach_sethook
  49              		.syntax unified
  50              		.thumb
  51              		.thumb_func
  52              		.fpu softvfp
  54              	rt_object_detach_sethook:
  55              	.LVL1:
ARM GAS  C:\Users\Administrator\AppData\Local\Temp\ccrBjxbP.s 			page 4


  56              	.LFB16:
 120:Middlewares/Third_Party/RealThread_RTOS/src/object.c **** 
 121:Middlewares/Third_Party/RealThread_RTOS/src/object.c **** /**
 122:Middlewares/Third_Party/RealThread_RTOS/src/object.c ****  * This function will set a hook function, which will be invoked when object
 123:Middlewares/Third_Party/RealThread_RTOS/src/object.c ****  * detaches from kernel object system.
 124:Middlewares/Third_Party/RealThread_RTOS/src/object.c ****  *
 125:Middlewares/Third_Party/RealThread_RTOS/src/object.c ****  * @param hook the hook function
 126:Middlewares/Third_Party/RealThread_RTOS/src/object.c ****  */
 127:Middlewares/Third_Party/RealThread_RTOS/src/object.c **** void rt_object_detach_sethook(void (*hook)(struct rt_object *object))
 128:Middlewares/Third_Party/RealThread_RTOS/src/object.c **** {
  57              		.loc 1 128 1 is_stmt 1 view -0
  58              		.cfi_startproc
  59              		@ args = 0, pretend = 0, frame = 0
  60              		@ frame_needed = 0, uses_anonymous_args = 0
  61              		@ link register save eliminated.
 129:Middlewares/Third_Party/RealThread_RTOS/src/object.c ****     rt_object_detach_hook = hook;
  62              		.loc 1 129 5 view .LVU5
  63              		.loc 1 129 27 is_stmt 0 view .LVU6
  64 0000 014B     		ldr	r3, .L5
  65 0002 1860     		str	r0, [r3]
 130:Middlewares/Third_Party/RealThread_RTOS/src/object.c **** }
  66              		.loc 1 130 1 view .LVU7
  67 0004 7047     		bx	lr
  68              	.L6:
  69 0006 00BF     		.align	2
  70              	.L5:
  71 0008 00000000 		.word	.LANCHOR1
  72              		.cfi_endproc
  73              	.LFE16:
  75              		.section	.text.rt_object_trytake_sethook,"ax",%progbits
  76              		.align	1
  77              		.global	rt_object_trytake_sethook
  78              		.syntax unified
  79              		.thumb
  80              		.thumb_func
  81              		.fpu softvfp
  83              	rt_object_trytake_sethook:
  84              	.LVL2:
  85              	.LFB17:
 131:Middlewares/Third_Party/RealThread_RTOS/src/object.c **** 
 132:Middlewares/Third_Party/RealThread_RTOS/src/object.c **** /**
 133:Middlewares/Third_Party/RealThread_RTOS/src/object.c ****  * This function will set a hook function, which will be invoked when object
 134:Middlewares/Third_Party/RealThread_RTOS/src/object.c ****  * is taken from kernel object system.
 135:Middlewares/Third_Party/RealThread_RTOS/src/object.c ****  *
 136:Middlewares/Third_Party/RealThread_RTOS/src/object.c ****  * The object is taken means:
 137:Middlewares/Third_Party/RealThread_RTOS/src/object.c ****  * semaphore - semaphore is taken by thread
 138:Middlewares/Third_Party/RealThread_RTOS/src/object.c ****  * mutex - mutex is taken by thread
 139:Middlewares/Third_Party/RealThread_RTOS/src/object.c ****  * event - event is received by thread
 140:Middlewares/Third_Party/RealThread_RTOS/src/object.c ****  * mailbox - mail is received by thread
 141:Middlewares/Third_Party/RealThread_RTOS/src/object.c ****  * message queue - message is received by thread
 142:Middlewares/Third_Party/RealThread_RTOS/src/object.c ****  *
 143:Middlewares/Third_Party/RealThread_RTOS/src/object.c ****  * @param hook the hook function
 144:Middlewares/Third_Party/RealThread_RTOS/src/object.c ****  */
 145:Middlewares/Third_Party/RealThread_RTOS/src/object.c **** void rt_object_trytake_sethook(void (*hook)(struct rt_object *object))
 146:Middlewares/Third_Party/RealThread_RTOS/src/object.c **** {
  86              		.loc 1 146 1 is_stmt 1 view -0
  87              		.cfi_startproc
ARM GAS  C:\Users\Administrator\AppData\Local\Temp\ccrBjxbP.s 			page 5


  88              		@ args = 0, pretend = 0, frame = 0
  89              		@ frame_needed = 0, uses_anonymous_args = 0
  90              		@ link register save eliminated.
 147:Middlewares/Third_Party/RealThread_RTOS/src/object.c ****     rt_object_trytake_hook = hook;
  91              		.loc 1 147 5 view .LVU9
  92              		.loc 1 147 28 is_stmt 0 view .LVU10
  93 0000 014B     		ldr	r3, .L8
  94 0002 1860     		str	r0, [r3]
 148:Middlewares/Third_Party/RealThread_RTOS/src/object.c **** }
  95              		.loc 1 148 1 view .LVU11
  96 0004 7047     		bx	lr
  97              	.L9:
  98 0006 00BF     		.align	2
  99              	.L8:
 100 0008 00000000 		.word	.LANCHOR2
 101              		.cfi_endproc
 102              	.LFE17:
 104              		.section	.text.rt_object_take_sethook,"ax",%progbits
 105              		.align	1
 106              		.global	rt_object_take_sethook
 107              		.syntax unified
 108              		.thumb
 109              		.thumb_func
 110              		.fpu softvfp
 112              	rt_object_take_sethook:
 113              	.LVL3:
 114              	.LFB18:
 149:Middlewares/Third_Party/RealThread_RTOS/src/object.c **** 
 150:Middlewares/Third_Party/RealThread_RTOS/src/object.c **** /**
 151:Middlewares/Third_Party/RealThread_RTOS/src/object.c ****  * This function will set a hook function, which will be invoked when object
 152:Middlewares/Third_Party/RealThread_RTOS/src/object.c ****  * have been taken from kernel object system.
 153:Middlewares/Third_Party/RealThread_RTOS/src/object.c ****  *
 154:Middlewares/Third_Party/RealThread_RTOS/src/object.c ****  * The object have been taken means:
 155:Middlewares/Third_Party/RealThread_RTOS/src/object.c ****  * semaphore - semaphore have been taken by thread
 156:Middlewares/Third_Party/RealThread_RTOS/src/object.c ****  * mutex - mutex have been taken by thread
 157:Middlewares/Third_Party/RealThread_RTOS/src/object.c ****  * event - event have been received by thread
 158:Middlewares/Third_Party/RealThread_RTOS/src/object.c ****  * mailbox - mail have been received by thread
 159:Middlewares/Third_Party/RealThread_RTOS/src/object.c ****  * message queue - message have been received by thread
 160:Middlewares/Third_Party/RealThread_RTOS/src/object.c ****  * timer - timer is started
 161:Middlewares/Third_Party/RealThread_RTOS/src/object.c ****  *
 162:Middlewares/Third_Party/RealThread_RTOS/src/object.c ****  * @param hook the hook function
 163:Middlewares/Third_Party/RealThread_RTOS/src/object.c ****  */
 164:Middlewares/Third_Party/RealThread_RTOS/src/object.c **** void rt_object_take_sethook(void (*hook)(struct rt_object *object))
 165:Middlewares/Third_Party/RealThread_RTOS/src/object.c **** {
 115              		.loc 1 165 1 is_stmt 1 view -0
 116              		.cfi_startproc
 117              		@ args = 0, pretend = 0, frame = 0
 118              		@ frame_needed = 0, uses_anonymous_args = 0
 119              		@ link register save eliminated.
 166:Middlewares/Third_Party/RealThread_RTOS/src/object.c ****     rt_object_take_hook = hook;
 120              		.loc 1 166 5 view .LVU13
 121              		.loc 1 166 25 is_stmt 0 view .LVU14
 122 0000 014B     		ldr	r3, .L11
 123 0002 1860     		str	r0, [r3]
 167:Middlewares/Third_Party/RealThread_RTOS/src/object.c **** }
 124              		.loc 1 167 1 view .LVU15
 125 0004 7047     		bx	lr
ARM GAS  C:\Users\Administrator\AppData\Local\Temp\ccrBjxbP.s 			page 6


 126              	.L12:
 127 0006 00BF     		.align	2
 128              	.L11:
 129 0008 00000000 		.word	.LANCHOR3
 130              		.cfi_endproc
 131              	.LFE18:
 133              		.section	.text.rt_object_put_sethook,"ax",%progbits
 134              		.align	1
 135              		.global	rt_object_put_sethook
 136              		.syntax unified
 137              		.thumb
 138              		.thumb_func
 139              		.fpu softvfp
 141              	rt_object_put_sethook:
 142              	.LVL4:
 143              	.LFB19:
 168:Middlewares/Third_Party/RealThread_RTOS/src/object.c **** 
 169:Middlewares/Third_Party/RealThread_RTOS/src/object.c **** /**
 170:Middlewares/Third_Party/RealThread_RTOS/src/object.c ****  * This function will set a hook function, which will be invoked when object
 171:Middlewares/Third_Party/RealThread_RTOS/src/object.c ****  * is put to kernel object system.
 172:Middlewares/Third_Party/RealThread_RTOS/src/object.c ****  *
 173:Middlewares/Third_Party/RealThread_RTOS/src/object.c ****  * @param hook the hook function
 174:Middlewares/Third_Party/RealThread_RTOS/src/object.c ****  */
 175:Middlewares/Third_Party/RealThread_RTOS/src/object.c **** void rt_object_put_sethook(void (*hook)(struct rt_object *object))
 176:Middlewares/Third_Party/RealThread_RTOS/src/object.c **** {
 144              		.loc 1 176 1 is_stmt 1 view -0
 145              		.cfi_startproc
 146              		@ args = 0, pretend = 0, frame = 0
 147              		@ frame_needed = 0, uses_anonymous_args = 0
 148              		@ link register save eliminated.
 177:Middlewares/Third_Party/RealThread_RTOS/src/object.c ****     rt_object_put_hook = hook;
 149              		.loc 1 177 5 view .LVU17
 150              		.loc 1 177 24 is_stmt 0 view .LVU18
 151 0000 014B     		ldr	r3, .L14
 152 0002 1860     		str	r0, [r3]
 178:Middlewares/Third_Party/RealThread_RTOS/src/object.c **** }
 153              		.loc 1 178 1 view .LVU19
 154 0004 7047     		bx	lr
 155              	.L15:
 156 0006 00BF     		.align	2
 157              	.L14:
 158 0008 00000000 		.word	.LANCHOR4
 159              		.cfi_endproc
 160              	.LFE19:
 162              		.section	.text.rt_system_object_init,"ax",%progbits
 163              		.align	1
 164              		.global	rt_system_object_init
 165              		.syntax unified
 166              		.thumb
 167              		.thumb_func
 168              		.fpu softvfp
 170              	rt_system_object_init:
 171              	.LFB20:
 179:Middlewares/Third_Party/RealThread_RTOS/src/object.c **** 
 180:Middlewares/Third_Party/RealThread_RTOS/src/object.c **** /**@}*/
 181:Middlewares/Third_Party/RealThread_RTOS/src/object.c **** #endif
 182:Middlewares/Third_Party/RealThread_RTOS/src/object.c **** 
ARM GAS  C:\Users\Administrator\AppData\Local\Temp\ccrBjxbP.s 			page 7


 183:Middlewares/Third_Party/RealThread_RTOS/src/object.c **** /**
 184:Middlewares/Third_Party/RealThread_RTOS/src/object.c ****  * @ingroup SystemInit
 185:Middlewares/Third_Party/RealThread_RTOS/src/object.c ****  *
 186:Middlewares/Third_Party/RealThread_RTOS/src/object.c ****  * This function will initialize system object management.
 187:Middlewares/Third_Party/RealThread_RTOS/src/object.c ****  *
 188:Middlewares/Third_Party/RealThread_RTOS/src/object.c ****  * @deprecated since 0.3.0, this function does not need to be invoked
 189:Middlewares/Third_Party/RealThread_RTOS/src/object.c ****  * in the system initialization.
 190:Middlewares/Third_Party/RealThread_RTOS/src/object.c ****  */
 191:Middlewares/Third_Party/RealThread_RTOS/src/object.c **** void rt_system_object_init(void)
 192:Middlewares/Third_Party/RealThread_RTOS/src/object.c **** {
 172              		.loc 1 192 1 is_stmt 1 view -0
 173              		.cfi_startproc
 174              		@ args = 0, pretend = 0, frame = 0
 175              		@ frame_needed = 0, uses_anonymous_args = 0
 176              		@ link register save eliminated.
 193:Middlewares/Third_Party/RealThread_RTOS/src/object.c **** }
 177              		.loc 1 193 1 view .LVU21
 178 0000 7047     		bx	lr
 179              		.cfi_endproc
 180              	.LFE20:
 182              		.section	.text.rt_object_get_information,"ax",%progbits
 183              		.align	1
 184              		.global	rt_object_get_information
 185              		.syntax unified
 186              		.thumb
 187              		.thumb_func
 188              		.fpu softvfp
 190              	rt_object_get_information:
 191              	.LVL5:
 192              	.LFB21:
 194:Middlewares/Third_Party/RealThread_RTOS/src/object.c **** 
 195:Middlewares/Third_Party/RealThread_RTOS/src/object.c **** /**
 196:Middlewares/Third_Party/RealThread_RTOS/src/object.c ****  * @addtogroup KernelObject
 197:Middlewares/Third_Party/RealThread_RTOS/src/object.c ****  */
 198:Middlewares/Third_Party/RealThread_RTOS/src/object.c **** 
 199:Middlewares/Third_Party/RealThread_RTOS/src/object.c **** /**@{*/
 200:Middlewares/Third_Party/RealThread_RTOS/src/object.c **** 
 201:Middlewares/Third_Party/RealThread_RTOS/src/object.c **** /**
 202:Middlewares/Third_Party/RealThread_RTOS/src/object.c ****  * This function will return the specified type of object information.
 203:Middlewares/Third_Party/RealThread_RTOS/src/object.c ****  *
 204:Middlewares/Third_Party/RealThread_RTOS/src/object.c ****  * @param type the type of object, which can be
 205:Middlewares/Third_Party/RealThread_RTOS/src/object.c ****  *             RT_Object_Class_Thread/Semaphore/Mutex... etc
 206:Middlewares/Third_Party/RealThread_RTOS/src/object.c ****  *
 207:Middlewares/Third_Party/RealThread_RTOS/src/object.c ****  * @return the object type information or RT_NULL
 208:Middlewares/Third_Party/RealThread_RTOS/src/object.c ****  */
 209:Middlewares/Third_Party/RealThread_RTOS/src/object.c **** struct rt_object_information *
 210:Middlewares/Third_Party/RealThread_RTOS/src/object.c **** rt_object_get_information(enum rt_object_class_type type)
 211:Middlewares/Third_Party/RealThread_RTOS/src/object.c **** {
 193              		.loc 1 211 1 view -0
 194              		.cfi_startproc
 195              		@ args = 0, pretend = 0, frame = 0
 196              		@ frame_needed = 0, uses_anonymous_args = 0
 197              		@ link register save eliminated.
 212:Middlewares/Third_Party/RealThread_RTOS/src/object.c ****     int index;
 198              		.loc 1 212 5 view .LVU23
 213:Middlewares/Third_Party/RealThread_RTOS/src/object.c **** 
 214:Middlewares/Third_Party/RealThread_RTOS/src/object.c ****     for (index = 0; index < RT_Object_Info_Unknown; index ++)
ARM GAS  C:\Users\Administrator\AppData\Local\Temp\ccrBjxbP.s 			page 8


 199              		.loc 1 214 5 view .LVU24
 200              		.loc 1 214 16 is_stmt 0 view .LVU25
 201 0000 0023     		movs	r3, #0
 202              	.LVL6:
 203              	.L18:
 204              		.loc 1 214 21 is_stmt 1 discriminator 1 view .LVU26
 205              		.loc 1 214 5 is_stmt 0 discriminator 1 view .LVU27
 206 0002 072B     		cmp	r3, #7
 207 0004 09DC     		bgt	.L22
 215:Middlewares/Third_Party/RealThread_RTOS/src/object.c ****         if (rt_object_container[index].type == type) return &rt_object_container[index];
 208              		.loc 1 215 9 is_stmt 1 view .LVU28
 209              		.loc 1 215 39 is_stmt 0 view .LVU29
 210 0006 1A01     		lsls	r2, r3, #4
 211 0008 0549     		ldr	r1, .L24
 212 000a 8A5C     		ldrb	r2, [r1, r2]	@ zero_extendqisi2
 213              		.loc 1 215 12 view .LVU30
 214 000c 8242     		cmp	r2, r0
 215 000e 01D0     		beq	.L23
 214:Middlewares/Third_Party/RealThread_RTOS/src/object.c ****         if (rt_object_container[index].type == type) return &rt_object_container[index];
 216              		.loc 1 214 53 is_stmt 1 discriminator 2 view .LVU31
 214:Middlewares/Third_Party/RealThread_RTOS/src/object.c ****         if (rt_object_container[index].type == type) return &rt_object_container[index];
 217              		.loc 1 214 59 is_stmt 0 discriminator 2 view .LVU32
 218 0010 0133     		adds	r3, r3, #1
 219              	.LVL7:
 214:Middlewares/Third_Party/RealThread_RTOS/src/object.c ****         if (rt_object_container[index].type == type) return &rt_object_container[index];
 220              		.loc 1 214 59 discriminator 2 view .LVU33
 221 0012 F6E7     		b	.L18
 222              	.L23:
 223              		.loc 1 215 54 is_stmt 1 discriminator 1 view .LVU34
 224              		.loc 1 215 61 is_stmt 0 discriminator 1 view .LVU35
 225 0014 01EB0310 		add	r0, r1, r3, lsl #4
 226              	.LVL8:
 227              		.loc 1 215 61 discriminator 1 view .LVU36
 228 0018 7047     		bx	lr
 229              	.LVL9:
 230              	.L22:
 216:Middlewares/Third_Party/RealThread_RTOS/src/object.c **** 
 217:Middlewares/Third_Party/RealThread_RTOS/src/object.c ****     return RT_NULL;
 231              		.loc 1 217 12 view .LVU37
 232 001a 0020     		movs	r0, #0
 233              	.LVL10:
 218:Middlewares/Third_Party/RealThread_RTOS/src/object.c **** }
 234              		.loc 1 218 1 view .LVU38
 235 001c 7047     		bx	lr
 236              	.L25:
 237 001e 00BF     		.align	2
 238              	.L24:
 239 0020 00000000 		.word	.LANCHOR5
 240              		.cfi_endproc
 241              	.LFE21:
 243              		.section	.text.rt_object_get_length,"ax",%progbits
 244              		.align	1
 245              		.global	rt_object_get_length
 246              		.syntax unified
 247              		.thumb
 248              		.thumb_func
 249              		.fpu softvfp
ARM GAS  C:\Users\Administrator\AppData\Local\Temp\ccrBjxbP.s 			page 9


 251              	rt_object_get_length:
 252              	.LVL11:
 253              	.LFB22:
 219:Middlewares/Third_Party/RealThread_RTOS/src/object.c **** 
 220:Middlewares/Third_Party/RealThread_RTOS/src/object.c **** /**
 221:Middlewares/Third_Party/RealThread_RTOS/src/object.c ****  * This function will return the length of object list in object container.
 222:Middlewares/Third_Party/RealThread_RTOS/src/object.c ****  *
 223:Middlewares/Third_Party/RealThread_RTOS/src/object.c ****  * @param type the type of object, which can be
 224:Middlewares/Third_Party/RealThread_RTOS/src/object.c ****  *             RT_Object_Class_Thread/Semaphore/Mutex... etc
 225:Middlewares/Third_Party/RealThread_RTOS/src/object.c ****  * @return the length of object list
 226:Middlewares/Third_Party/RealThread_RTOS/src/object.c ****  */
 227:Middlewares/Third_Party/RealThread_RTOS/src/object.c **** int rt_object_get_length(enum rt_object_class_type type)
 228:Middlewares/Third_Party/RealThread_RTOS/src/object.c **** {
 254              		.loc 1 228 1 is_stmt 1 view -0
 255              		.cfi_startproc
 256              		@ args = 0, pretend = 0, frame = 0
 257              		@ frame_needed = 0, uses_anonymous_args = 0
 258              		.loc 1 228 1 is_stmt 0 view .LVU40
 259 0000 38B5     		push	{r3, r4, r5, lr}
 260              	.LCFI0:
 261              		.cfi_def_cfa_offset 16
 262              		.cfi_offset 3, -16
 263              		.cfi_offset 4, -12
 264              		.cfi_offset 5, -8
 265              		.cfi_offset 14, -4
 229:Middlewares/Third_Party/RealThread_RTOS/src/object.c ****     int count = 0;
 266              		.loc 1 229 5 is_stmt 1 view .LVU41
 267              	.LVL12:
 230:Middlewares/Third_Party/RealThread_RTOS/src/object.c ****     rt_ubase_t level;
 268              		.loc 1 230 5 view .LVU42
 231:Middlewares/Third_Party/RealThread_RTOS/src/object.c ****     struct rt_list_node *node = RT_NULL;
 269              		.loc 1 231 5 view .LVU43
 232:Middlewares/Third_Party/RealThread_RTOS/src/object.c ****     struct rt_object_information *information = RT_NULL;
 270              		.loc 1 232 5 view .LVU44
 233:Middlewares/Third_Party/RealThread_RTOS/src/object.c **** 
 234:Middlewares/Third_Party/RealThread_RTOS/src/object.c ****     information = rt_object_get_information((enum rt_object_class_type)type);
 271              		.loc 1 234 5 view .LVU45
 272              		.loc 1 234 19 is_stmt 0 view .LVU46
 273 0002 FFF7FEFF 		bl	rt_object_get_information
 274              	.LVL13:
 235:Middlewares/Third_Party/RealThread_RTOS/src/object.c ****     if (information == RT_NULL) return 0;
 275              		.loc 1 235 5 is_stmt 1 view .LVU47
 276              		.loc 1 235 8 is_stmt 0 view .LVU48
 277 0006 70B1     		cbz	r0, .L30
 278 0008 0546     		mov	r5, r0
 236:Middlewares/Third_Party/RealThread_RTOS/src/object.c **** 
 237:Middlewares/Third_Party/RealThread_RTOS/src/object.c ****     level = rt_hw_interrupt_disable();
 279              		.loc 1 237 5 is_stmt 1 view .LVU49
 280              		.loc 1 237 13 is_stmt 0 view .LVU50
 281 000a FFF7FEFF 		bl	rt_hw_interrupt_disable
 282              	.LVL14:
 238:Middlewares/Third_Party/RealThread_RTOS/src/object.c ****     /* get the count of objects */
 239:Middlewares/Third_Party/RealThread_RTOS/src/object.c ****     rt_list_for_each(node, &(information->object_list))
 283              		.loc 1 239 5 is_stmt 1 view .LVU51
 284 000e 6B68     		ldr	r3, [r5, #4]
 285              	.LVL15:
 229:Middlewares/Third_Party/RealThread_RTOS/src/object.c ****     rt_ubase_t level;
ARM GAS  C:\Users\Administrator\AppData\Local\Temp\ccrBjxbP.s 			page 10


 286              		.loc 1 229 9 is_stmt 0 view .LVU52
 287 0010 0024     		movs	r4, #0
 288              		.loc 1 239 5 view .LVU53
 289 0012 01E0     		b	.L28
 290              	.LVL16:
 291              	.L29:
 240:Middlewares/Third_Party/RealThread_RTOS/src/object.c ****     {
 241:Middlewares/Third_Party/RealThread_RTOS/src/object.c ****         count ++;
 292              		.loc 1 241 9 is_stmt 1 discriminator 3 view .LVU54
 293              		.loc 1 241 15 is_stmt 0 discriminator 3 view .LVU55
 294 0014 0134     		adds	r4, r4, #1
 295              	.LVL17:
 239:Middlewares/Third_Party/RealThread_RTOS/src/object.c ****     {
 296              		.loc 1 239 5 is_stmt 1 discriminator 3 view .LVU56
 297 0016 1B68     		ldr	r3, [r3]
 298              	.LVL18:
 299              	.L28:
 239:Middlewares/Third_Party/RealThread_RTOS/src/object.c ****     {
 300              		.loc 1 239 5 discriminator 1 view .LVU57
 301 0018 2A1D     		adds	r2, r5, #4
 302 001a 9A42     		cmp	r2, r3
 303 001c FAD1     		bne	.L29
 242:Middlewares/Third_Party/RealThread_RTOS/src/object.c ****     }
 243:Middlewares/Third_Party/RealThread_RTOS/src/object.c ****     rt_hw_interrupt_enable(level);
 304              		.loc 1 243 5 view .LVU58
 305 001e FFF7FEFF 		bl	rt_hw_interrupt_enable
 306              	.LVL19:
 244:Middlewares/Third_Party/RealThread_RTOS/src/object.c **** 
 245:Middlewares/Third_Party/RealThread_RTOS/src/object.c ****     return count;
 307              		.loc 1 245 5 view .LVU59
 308              	.L26:
 246:Middlewares/Third_Party/RealThread_RTOS/src/object.c **** }
 309              		.loc 1 246 1 is_stmt 0 view .LVU60
 310 0022 2046     		mov	r0, r4
 311 0024 38BD     		pop	{r3, r4, r5, pc}
 312              	.LVL20:
 313              	.L30:
 235:Middlewares/Third_Party/RealThread_RTOS/src/object.c **** 
 314              		.loc 1 235 40 view .LVU61
 315 0026 0024     		movs	r4, #0
 316 0028 FBE7     		b	.L26
 317              		.cfi_endproc
 318              	.LFE22:
 320              		.section	.text.rt_object_get_pointers,"ax",%progbits
 321              		.align	1
 322              		.global	rt_object_get_pointers
 323              		.syntax unified
 324              		.thumb
 325              		.thumb_func
 326              		.fpu softvfp
 328              	rt_object_get_pointers:
 329              	.LVL21:
 330              	.LFB23:
 247:Middlewares/Third_Party/RealThread_RTOS/src/object.c **** 
 248:Middlewares/Third_Party/RealThread_RTOS/src/object.c **** /**
 249:Middlewares/Third_Party/RealThread_RTOS/src/object.c ****  * This function will copy the object pointer of the specified type,
 250:Middlewares/Third_Party/RealThread_RTOS/src/object.c ****  * with the maximum size specified by maxlen.
ARM GAS  C:\Users\Administrator\AppData\Local\Temp\ccrBjxbP.s 			page 11


 251:Middlewares/Third_Party/RealThread_RTOS/src/object.c ****  *
 252:Middlewares/Third_Party/RealThread_RTOS/src/object.c ****  * @param type the type of object, which can be
 253:Middlewares/Third_Party/RealThread_RTOS/src/object.c ****  *             RT_Object_Class_Thread/Semaphore/Mutex... etc
 254:Middlewares/Third_Party/RealThread_RTOS/src/object.c ****  * @param pointers the pointers will be saved to
 255:Middlewares/Third_Party/RealThread_RTOS/src/object.c ****  * @param maxlen the maximum number of pointers can be saved
 256:Middlewares/Third_Party/RealThread_RTOS/src/object.c ****  *
 257:Middlewares/Third_Party/RealThread_RTOS/src/object.c ****  * @return the copied number of object pointers
 258:Middlewares/Third_Party/RealThread_RTOS/src/object.c ****  */
 259:Middlewares/Third_Party/RealThread_RTOS/src/object.c **** int rt_object_get_pointers(enum rt_object_class_type type, rt_object_t *pointers, int maxlen)
 260:Middlewares/Third_Party/RealThread_RTOS/src/object.c **** {
 331              		.loc 1 260 1 is_stmt 1 view -0
 332              		.cfi_startproc
 333              		@ args = 0, pretend = 0, frame = 0
 334              		@ frame_needed = 0, uses_anonymous_args = 0
 335              		.loc 1 260 1 is_stmt 0 view .LVU63
 336 0000 F8B5     		push	{r3, r4, r5, r6, r7, lr}
 337              	.LCFI1:
 338              		.cfi_def_cfa_offset 24
 339              		.cfi_offset 3, -24
 340              		.cfi_offset 4, -20
 341              		.cfi_offset 5, -16
 342              		.cfi_offset 6, -12
 343              		.cfi_offset 7, -8
 344              		.cfi_offset 14, -4
 261:Middlewares/Third_Party/RealThread_RTOS/src/object.c ****     int index = 0;
 345              		.loc 1 261 5 is_stmt 1 view .LVU64
 346              	.LVL22:
 262:Middlewares/Third_Party/RealThread_RTOS/src/object.c ****     rt_ubase_t level;
 347              		.loc 1 262 5 view .LVU65
 263:Middlewares/Third_Party/RealThread_RTOS/src/object.c **** 
 264:Middlewares/Third_Party/RealThread_RTOS/src/object.c ****     struct rt_object *object;
 348              		.loc 1 264 5 view .LVU66
 265:Middlewares/Third_Party/RealThread_RTOS/src/object.c ****     struct rt_list_node *node = RT_NULL;
 349              		.loc 1 265 5 view .LVU67
 266:Middlewares/Third_Party/RealThread_RTOS/src/object.c ****     struct rt_object_information *information = RT_NULL;
 350              		.loc 1 266 5 view .LVU68
 267:Middlewares/Third_Party/RealThread_RTOS/src/object.c **** 
 268:Middlewares/Third_Party/RealThread_RTOS/src/object.c ****     if (maxlen <= 0) return 0;
 351              		.loc 1 268 5 view .LVU69
 352              		.loc 1 268 8 is_stmt 0 view .LVU70
 353 0002 151E     		subs	r5, r2, #0
 354 0004 19DD     		ble	.L37
 355 0006 0E46     		mov	r6, r1
 269:Middlewares/Third_Party/RealThread_RTOS/src/object.c **** 
 270:Middlewares/Third_Party/RealThread_RTOS/src/object.c ****     information = rt_object_get_information((enum rt_object_class_type)type);
 356              		.loc 1 270 5 is_stmt 1 view .LVU71
 357              		.loc 1 270 19 is_stmt 0 view .LVU72
 358 0008 FFF7FEFF 		bl	rt_object_get_information
 359              	.LVL23:
 271:Middlewares/Third_Party/RealThread_RTOS/src/object.c ****     if (information == RT_NULL) return 0;
 360              		.loc 1 271 5 is_stmt 1 view .LVU73
 361              		.loc 1 271 8 is_stmt 0 view .LVU74
 362 000c 0746     		mov	r7, r0
 363 000e B0B1     		cbz	r0, .L38
 272:Middlewares/Third_Party/RealThread_RTOS/src/object.c **** 
 273:Middlewares/Third_Party/RealThread_RTOS/src/object.c ****     level = rt_hw_interrupt_disable();
 364              		.loc 1 273 5 is_stmt 1 view .LVU75
ARM GAS  C:\Users\Administrator\AppData\Local\Temp\ccrBjxbP.s 			page 12


 365              		.loc 1 273 13 is_stmt 0 view .LVU76
 366 0010 FFF7FEFF 		bl	rt_hw_interrupt_disable
 367              	.LVL24:
 274:Middlewares/Third_Party/RealThread_RTOS/src/object.c ****     /* retrieve pointer of object */
 275:Middlewares/Third_Party/RealThread_RTOS/src/object.c ****     rt_list_for_each(node, &(information->object_list))
 368              		.loc 1 275 5 is_stmt 1 view .LVU77
 369 0014 7B68     		ldr	r3, [r7, #4]
 370              	.LVL25:
 261:Middlewares/Third_Party/RealThread_RTOS/src/object.c ****     rt_ubase_t level;
 371              		.loc 1 261 9 is_stmt 0 view .LVU78
 372 0016 0024     		movs	r4, #0
 373              	.LVL26:
 374              	.L34:
 375              		.loc 1 275 5 is_stmt 1 discriminator 1 view .LVU79
 376 0018 07F1040C 		add	ip, r7, #4
 377 001c 9C45     		cmp	ip, r3
 378 001e 08D0     		beq	.L35
 276:Middlewares/Third_Party/RealThread_RTOS/src/object.c ****     {
 277:Middlewares/Third_Party/RealThread_RTOS/src/object.c ****         object = rt_list_entry(node, struct rt_object, list);
 379              		.loc 1 277 9 view .LVU80
 380              		.loc 1 277 16 is_stmt 0 view .LVU81
 381 0020 A3F10C02 		sub	r2, r3, #12
 382              	.LVL27:
 278:Middlewares/Third_Party/RealThread_RTOS/src/object.c **** 
 279:Middlewares/Third_Party/RealThread_RTOS/src/object.c ****         pointers[index] = object;
 383              		.loc 1 279 9 is_stmt 1 view .LVU82
 384              		.loc 1 279 25 is_stmt 0 view .LVU83
 385 0024 46F82420 		str	r2, [r6, r4, lsl #2]
 280:Middlewares/Third_Party/RealThread_RTOS/src/object.c ****         index ++;
 386              		.loc 1 280 9 is_stmt 1 view .LVU84
 387              		.loc 1 280 15 is_stmt 0 view .LVU85
 388 0028 0134     		adds	r4, r4, #1
 389              	.LVL28:
 281:Middlewares/Third_Party/RealThread_RTOS/src/object.c **** 
 282:Middlewares/Third_Party/RealThread_RTOS/src/object.c ****         if (index >= maxlen) break;
 390              		.loc 1 282 9 is_stmt 1 view .LVU86
 391              		.loc 1 282 12 is_stmt 0 view .LVU87
 392 002a A542     		cmp	r5, r4
 393 002c 01DD     		ble	.L35
 275:Middlewares/Third_Party/RealThread_RTOS/src/object.c ****     {
 394              		.loc 1 275 5 is_stmt 1 discriminator 2 view .LVU88
 395 002e 1B68     		ldr	r3, [r3]
 396              	.LVL29:
 275:Middlewares/Third_Party/RealThread_RTOS/src/object.c ****     {
 397              		.loc 1 275 5 is_stmt 0 discriminator 2 view .LVU89
 398 0030 F2E7     		b	.L34
 399              	.LVL30:
 400              	.L35:
 283:Middlewares/Third_Party/RealThread_RTOS/src/object.c ****     }
 284:Middlewares/Third_Party/RealThread_RTOS/src/object.c ****     rt_hw_interrupt_enable(level);
 401              		.loc 1 284 5 is_stmt 1 view .LVU90
 402 0032 FFF7FEFF 		bl	rt_hw_interrupt_enable
 403              	.LVL31:
 285:Middlewares/Third_Party/RealThread_RTOS/src/object.c **** 
 286:Middlewares/Third_Party/RealThread_RTOS/src/object.c ****     return index;
 404              		.loc 1 286 5 view .LVU91
 405              	.L32:
ARM GAS  C:\Users\Administrator\AppData\Local\Temp\ccrBjxbP.s 			page 13


 287:Middlewares/Third_Party/RealThread_RTOS/src/object.c **** }
 406              		.loc 1 287 1 is_stmt 0 view .LVU92
 407 0036 2046     		mov	r0, r4
 408 0038 F8BD     		pop	{r3, r4, r5, r6, r7, pc}
 409              	.LVL32:
 410              	.L37:
 268:Middlewares/Third_Party/RealThread_RTOS/src/object.c **** 
 411              		.loc 1 268 29 view .LVU93
 412 003a 0024     		movs	r4, #0
 413 003c FBE7     		b	.L32
 414              	.LVL33:
 415              	.L38:
 271:Middlewares/Third_Party/RealThread_RTOS/src/object.c **** 
 416              		.loc 1 271 40 view .LVU94
 417 003e 0024     		movs	r4, #0
 418 0040 F9E7     		b	.L32
 419              		.cfi_endproc
 420              	.LFE23:
 422              		.section	.rodata.rt_object_init.str1.4,"aMS",%progbits,1
 423              		.align	2
 424              	.LC0:
 425 0000 696E666F 		.ascii	"information != RT_NULL\000"
 425      726D6174 
 425      696F6E20 
 425      213D2052 
 425      545F4E55 
 426 0017 00       		.align	2
 427              	.LC1:
 428 0018 6F626A20 		.ascii	"obj != object\000"
 428      213D206F 
 428      626A6563 
 428      7400
 429              		.section	.text.rt_object_init,"ax",%progbits
 430              		.align	1
 431              		.global	rt_object_init
 432              		.syntax unified
 433              		.thumb
 434              		.thumb_func
 435              		.fpu softvfp
 437              	rt_object_init:
 438              	.LVL34:
 439              	.LFB24:
 288:Middlewares/Third_Party/RealThread_RTOS/src/object.c **** 
 289:Middlewares/Third_Party/RealThread_RTOS/src/object.c **** /**
 290:Middlewares/Third_Party/RealThread_RTOS/src/object.c ****  * This function will initialize an object and add it to object system
 291:Middlewares/Third_Party/RealThread_RTOS/src/object.c ****  * management.
 292:Middlewares/Third_Party/RealThread_RTOS/src/object.c ****  *
 293:Middlewares/Third_Party/RealThread_RTOS/src/object.c ****  * @param object the specified object to be initialized.
 294:Middlewares/Third_Party/RealThread_RTOS/src/object.c ****  * @param type the object type.
 295:Middlewares/Third_Party/RealThread_RTOS/src/object.c ****  * @param name the object name. In system, the object's name must be unique.
 296:Middlewares/Third_Party/RealThread_RTOS/src/object.c ****  */
 297:Middlewares/Third_Party/RealThread_RTOS/src/object.c **** void rt_object_init(struct rt_object         *object,
 298:Middlewares/Third_Party/RealThread_RTOS/src/object.c ****                     enum rt_object_class_type type,
 299:Middlewares/Third_Party/RealThread_RTOS/src/object.c ****                     const char               *name)
 300:Middlewares/Third_Party/RealThread_RTOS/src/object.c **** {
 440              		.loc 1 300 1 is_stmt 1 view -0
 441              		.cfi_startproc
ARM GAS  C:\Users\Administrator\AppData\Local\Temp\ccrBjxbP.s 			page 14


 442              		@ args = 0, pretend = 0, frame = 0
 443              		@ frame_needed = 0, uses_anonymous_args = 0
 444              		.loc 1 300 1 is_stmt 0 view .LVU96
 445 0000 2DE9F843 		push	{r3, r4, r5, r6, r7, r8, r9, lr}
 446              	.LCFI2:
 447              		.cfi_def_cfa_offset 32
 448              		.cfi_offset 3, -32
 449              		.cfi_offset 4, -28
 450              		.cfi_offset 5, -24
 451              		.cfi_offset 6, -20
 452              		.cfi_offset 7, -16
 453              		.cfi_offset 8, -12
 454              		.cfi_offset 9, -8
 455              		.cfi_offset 14, -4
 456 0004 0646     		mov	r6, r0
 457 0006 8846     		mov	r8, r1
 458 0008 9146     		mov	r9, r2
 301:Middlewares/Third_Party/RealThread_RTOS/src/object.c ****     register rt_base_t temp;
 459              		.loc 1 301 5 is_stmt 1 view .LVU97
 302:Middlewares/Third_Party/RealThread_RTOS/src/object.c ****     struct rt_list_node *node = RT_NULL;
 460              		.loc 1 302 5 view .LVU98
 461              	.LVL35:
 303:Middlewares/Third_Party/RealThread_RTOS/src/object.c ****     struct rt_object_information *information;
 462              		.loc 1 303 5 view .LVU99
 304:Middlewares/Third_Party/RealThread_RTOS/src/object.c **** 
 305:Middlewares/Third_Party/RealThread_RTOS/src/object.c ****     /* get object information */
 306:Middlewares/Third_Party/RealThread_RTOS/src/object.c ****     information = rt_object_get_information(type);
 463              		.loc 1 306 5 view .LVU100
 464              		.loc 1 306 19 is_stmt 0 view .LVU101
 465 000a 0846     		mov	r0, r1
 466              	.LVL36:
 467              		.loc 1 306 19 view .LVU102
 468 000c FFF7FEFF 		bl	rt_object_get_information
 469              	.LVL37:
 307:Middlewares/Third_Party/RealThread_RTOS/src/object.c ****     RT_ASSERT(information != RT_NULL);
 470              		.loc 1 307 5 is_stmt 1 view .LVU103
 471 0010 0746     		mov	r7, r0
 472 0012 18B1     		cbz	r0, .L47
 473              	.LVL38:
 474              	.L41:
 475              		.loc 1 307 38 discriminator 3 view .LVU104
 308:Middlewares/Third_Party/RealThread_RTOS/src/object.c **** 
 309:Middlewares/Third_Party/RealThread_RTOS/src/object.c ****     /* check object type to avoid re-initialization */
 310:Middlewares/Third_Party/RealThread_RTOS/src/object.c **** 
 311:Middlewares/Third_Party/RealThread_RTOS/src/object.c ****     /* enter critical */
 312:Middlewares/Third_Party/RealThread_RTOS/src/object.c ****     rt_enter_critical();
 476              		.loc 1 312 5 discriminator 3 view .LVU105
 477 0014 FFF7FEFF 		bl	rt_enter_critical
 478              	.LVL39:
 313:Middlewares/Third_Party/RealThread_RTOS/src/object.c ****     /* try to find object */
 314:Middlewares/Third_Party/RealThread_RTOS/src/object.c ****     for (node  = information->object_list.next;
 479              		.loc 1 314 5 discriminator 3 view .LVU106
 480              		.loc 1 314 16 is_stmt 0 discriminator 3 view .LVU107
 481 0018 7C68     		ldr	r4, [r7, #4]
 482              	.LVL40:
 483              		.loc 1 314 5 discriminator 3 view .LVU108
 484 001a 07E0     		b	.L42
ARM GAS  C:\Users\Administrator\AppData\Local\Temp\ccrBjxbP.s 			page 15


 485              	.LVL41:
 486              	.L47:
 307:Middlewares/Third_Party/RealThread_RTOS/src/object.c **** 
 487              		.loc 1 307 5 is_stmt 1 discriminator 1 view .LVU109
 488 001c 40F23312 		movw	r2, #307
 489 0020 1949     		ldr	r1, .L49
 490 0022 1A48     		ldr	r0, .L49+4
 491              	.LVL42:
 307:Middlewares/Third_Party/RealThread_RTOS/src/object.c **** 
 492              		.loc 1 307 5 is_stmt 0 discriminator 1 view .LVU110
 493 0024 FFF7FEFF 		bl	rt_assert_handler
 494              	.LVL43:
 495 0028 F4E7     		b	.L41
 496              	.LVL44:
 497              	.L43:
 498              	.LBB12:
 315:Middlewares/Third_Party/RealThread_RTOS/src/object.c ****             node != &(information->object_list);
 316:Middlewares/Third_Party/RealThread_RTOS/src/object.c ****             node  = node->next)
 317:Middlewares/Third_Party/RealThread_RTOS/src/object.c ****     {
 318:Middlewares/Third_Party/RealThread_RTOS/src/object.c ****         struct rt_object *obj;
 319:Middlewares/Third_Party/RealThread_RTOS/src/object.c **** 
 320:Middlewares/Third_Party/RealThread_RTOS/src/object.c ****         obj = rt_list_entry(node, struct rt_object, list);
 321:Middlewares/Third_Party/RealThread_RTOS/src/object.c ****         if (obj) /* skip warning when disable debug */
 322:Middlewares/Third_Party/RealThread_RTOS/src/object.c ****         {
 323:Middlewares/Third_Party/RealThread_RTOS/src/object.c ****             RT_ASSERT(obj != object);
 499              		.loc 1 323 37 is_stmt 1 discriminator 3 view .LVU111
 500              	.LBE12:
 316:Middlewares/Third_Party/RealThread_RTOS/src/object.c ****     {
 501              		.loc 1 316 13 discriminator 3 view .LVU112
 316:Middlewares/Third_Party/RealThread_RTOS/src/object.c ****     {
 502              		.loc 1 316 19 is_stmt 0 discriminator 3 view .LVU113
 503 002a 2468     		ldr	r4, [r4]
 504              	.LVL45:
 505              	.L42:
 315:Middlewares/Third_Party/RealThread_RTOS/src/object.c ****             node != &(information->object_list);
 506              		.loc 1 315 13 is_stmt 1 discriminator 1 view .LVU114
 315:Middlewares/Third_Party/RealThread_RTOS/src/object.c ****             node != &(information->object_list);
 507              		.loc 1 315 21 is_stmt 0 discriminator 1 view .LVU115
 508 002c 3D1D     		adds	r5, r7, #4
 314:Middlewares/Third_Party/RealThread_RTOS/src/object.c ****             node != &(information->object_list);
 509              		.loc 1 314 5 discriminator 1 view .LVU116
 510 002e A542     		cmp	r5, r4
 511 0030 0BD0     		beq	.L48
 512              	.LBB13:
 318:Middlewares/Third_Party/RealThread_RTOS/src/object.c **** 
 513              		.loc 1 318 9 is_stmt 1 view .LVU117
 320:Middlewares/Third_Party/RealThread_RTOS/src/object.c ****         if (obj) /* skip warning when disable debug */
 514              		.loc 1 320 9 view .LVU118
 515              	.LVL46:
 321:Middlewares/Third_Party/RealThread_RTOS/src/object.c ****         {
 516              		.loc 1 321 9 view .LVU119
 321:Middlewares/Third_Party/RealThread_RTOS/src/object.c ****         {
 517              		.loc 1 321 12 is_stmt 0 view .LVU120
 518 0032 B4F10C03 		subs	r3, r4, #12
 519              	.LVL47:
 321:Middlewares/Third_Party/RealThread_RTOS/src/object.c ****         {
 520              		.loc 1 321 12 view .LVU121
ARM GAS  C:\Users\Administrator\AppData\Local\Temp\ccrBjxbP.s 			page 16


 521 0036 F8D0     		beq	.L43
 522              		.loc 1 323 13 is_stmt 1 view .LVU122
 523 0038 9E42     		cmp	r6, r3
 524 003a F6D1     		bne	.L43
 525              		.loc 1 323 13 discriminator 1 view .LVU123
 526 003c 40F24312 		movw	r2, #323
 527 0040 1149     		ldr	r1, .L49
 528 0042 1348     		ldr	r0, .L49+8
 529 0044 FFF7FEFF 		bl	rt_assert_handler
 530              	.LVL48:
 531              		.loc 1 323 13 is_stmt 0 discriminator 1 view .LVU124
 532 0048 EFE7     		b	.L43
 533              	.LVL49:
 534              	.L48:
 535              		.loc 1 323 13 discriminator 1 view .LVU125
 536              	.LBE13:
 324:Middlewares/Third_Party/RealThread_RTOS/src/object.c ****         }
 325:Middlewares/Third_Party/RealThread_RTOS/src/object.c ****     }
 326:Middlewares/Third_Party/RealThread_RTOS/src/object.c ****     /* leave critical */
 327:Middlewares/Third_Party/RealThread_RTOS/src/object.c ****     rt_exit_critical();
 537              		.loc 1 327 5 is_stmt 1 view .LVU126
 538 004a FFF7FEFF 		bl	rt_exit_critical
 539              	.LVL50:
 328:Middlewares/Third_Party/RealThread_RTOS/src/object.c **** 
 329:Middlewares/Third_Party/RealThread_RTOS/src/object.c ****     /* initialize object's parameters */
 330:Middlewares/Third_Party/RealThread_RTOS/src/object.c ****     /* set object type to static */
 331:Middlewares/Third_Party/RealThread_RTOS/src/object.c ****     object->type = type | RT_Object_Class_Static;
 540              		.loc 1 331 5 view .LVU127
 541              		.loc 1 331 18 is_stmt 0 view .LVU128
 542 004e 68F07F08 		orn	r8, r8, #127
 543 0052 86F80880 		strb	r8, [r6, #8]
 332:Middlewares/Third_Party/RealThread_RTOS/src/object.c ****     /* copy name */
 333:Middlewares/Third_Party/RealThread_RTOS/src/object.c ****     rt_strncpy(object->name, name, RT_NAME_MAX);
 544              		.loc 1 333 5 is_stmt 1 view .LVU129
 545 0056 0822     		movs	r2, #8
 546 0058 4946     		mov	r1, r9
 547 005a 3046     		mov	r0, r6
 548 005c FFF7FEFF 		bl	rt_strncpy
 549              	.LVL51:
 334:Middlewares/Third_Party/RealThread_RTOS/src/object.c **** 
 335:Middlewares/Third_Party/RealThread_RTOS/src/object.c ****     RT_OBJECT_HOOK_CALL(rt_object_attach_hook, (object));
 550              		.loc 1 335 5 view .LVU130
 551              		.loc 1 335 5 view .LVU131
 552 0060 0C4B     		ldr	r3, .L49+12
 553 0062 1B68     		ldr	r3, [r3]
 554 0064 0BB1     		cbz	r3, .L45
 555              		.loc 1 335 5 discriminator 1 view .LVU132
 556 0066 3046     		mov	r0, r6
 557 0068 9847     		blx	r3
 558              	.LVL52:
 559              	.L45:
 560              		.loc 1 335 5 discriminator 3 view .LVU133
 336:Middlewares/Third_Party/RealThread_RTOS/src/object.c **** 
 337:Middlewares/Third_Party/RealThread_RTOS/src/object.c ****     /* lock interrupt */
 338:Middlewares/Third_Party/RealThread_RTOS/src/object.c ****     temp = rt_hw_interrupt_disable();
 561              		.loc 1 338 5 discriminator 3 view .LVU134
 562              		.loc 1 338 12 is_stmt 0 discriminator 3 view .LVU135
ARM GAS  C:\Users\Administrator\AppData\Local\Temp\ccrBjxbP.s 			page 17


 563 006a FFF7FEFF 		bl	rt_hw_interrupt_disable
 564              	.LVL53:
 339:Middlewares/Third_Party/RealThread_RTOS/src/object.c **** 
 340:Middlewares/Third_Party/RealThread_RTOS/src/object.c ****     /* insert object into information object list */
 341:Middlewares/Third_Party/RealThread_RTOS/src/object.c ****     rt_list_insert_after(&(information->object_list), &(object->list));
 565              		.loc 1 341 5 is_stmt 1 discriminator 3 view .LVU136
 566 006e 06F10C03 		add	r3, r6, #12
 567              	.LVL54:
 568              	.LBB14:
 569              	.LBI14:
 570              		.file 2 "Middlewares/Third_Party/RealThread_RTOS/include/rtservice.h"
   1:Middlewares/Third_Party/RealThread_RTOS/include/rtservice.h **** /*
   2:Middlewares/Third_Party/RealThread_RTOS/include/rtservice.h ****  * Copyright (c) 2006-2021, RT-Thread Development Team
   3:Middlewares/Third_Party/RealThread_RTOS/include/rtservice.h ****  *
   4:Middlewares/Third_Party/RealThread_RTOS/include/rtservice.h ****  * SPDX-License-Identifier: Apache-2.0
   5:Middlewares/Third_Party/RealThread_RTOS/include/rtservice.h ****  *
   6:Middlewares/Third_Party/RealThread_RTOS/include/rtservice.h ****  * Change Logs:
   7:Middlewares/Third_Party/RealThread_RTOS/include/rtservice.h ****  * Date           Author       Notes
   8:Middlewares/Third_Party/RealThread_RTOS/include/rtservice.h ****  * 2006-03-16     Bernard      the first version
   9:Middlewares/Third_Party/RealThread_RTOS/include/rtservice.h ****  * 2006-09-07     Bernard      move the kservice APIs to rtthread.h
  10:Middlewares/Third_Party/RealThread_RTOS/include/rtservice.h ****  * 2007-06-27     Bernard      fix the rt_list_remove bug
  11:Middlewares/Third_Party/RealThread_RTOS/include/rtservice.h ****  * 2012-03-22     Bernard      rename kservice.h to rtservice.h
  12:Middlewares/Third_Party/RealThread_RTOS/include/rtservice.h ****  * 2017-11-15     JasonJia     Modify rt_slist_foreach to rt_slist_for_each_entry.
  13:Middlewares/Third_Party/RealThread_RTOS/include/rtservice.h ****  *                             Make code cleanup.
  14:Middlewares/Third_Party/RealThread_RTOS/include/rtservice.h ****  */
  15:Middlewares/Third_Party/RealThread_RTOS/include/rtservice.h **** 
  16:Middlewares/Third_Party/RealThread_RTOS/include/rtservice.h **** #ifndef __RT_SERVICE_H__
  17:Middlewares/Third_Party/RealThread_RTOS/include/rtservice.h **** #define __RT_SERVICE_H__
  18:Middlewares/Third_Party/RealThread_RTOS/include/rtservice.h **** 
  19:Middlewares/Third_Party/RealThread_RTOS/include/rtservice.h **** #ifdef __cplusplus
  20:Middlewares/Third_Party/RealThread_RTOS/include/rtservice.h **** extern "C" {
  21:Middlewares/Third_Party/RealThread_RTOS/include/rtservice.h **** #endif
  22:Middlewares/Third_Party/RealThread_RTOS/include/rtservice.h **** 
  23:Middlewares/Third_Party/RealThread_RTOS/include/rtservice.h **** /**
  24:Middlewares/Third_Party/RealThread_RTOS/include/rtservice.h ****  * @addtogroup KernelService
  25:Middlewares/Third_Party/RealThread_RTOS/include/rtservice.h ****  */
  26:Middlewares/Third_Party/RealThread_RTOS/include/rtservice.h **** 
  27:Middlewares/Third_Party/RealThread_RTOS/include/rtservice.h **** /**@{*/
  28:Middlewares/Third_Party/RealThread_RTOS/include/rtservice.h **** 
  29:Middlewares/Third_Party/RealThread_RTOS/include/rtservice.h **** /**
  30:Middlewares/Third_Party/RealThread_RTOS/include/rtservice.h ****  * rt_container_of - return the member address of ptr, if the type of ptr is the
  31:Middlewares/Third_Party/RealThread_RTOS/include/rtservice.h ****  * struct type.
  32:Middlewares/Third_Party/RealThread_RTOS/include/rtservice.h ****  */
  33:Middlewares/Third_Party/RealThread_RTOS/include/rtservice.h **** #define rt_container_of(ptr, type, member) \
  34:Middlewares/Third_Party/RealThread_RTOS/include/rtservice.h ****     ((type *)((char *)(ptr) - (unsigned long)(&((type *)0)->member)))
  35:Middlewares/Third_Party/RealThread_RTOS/include/rtservice.h **** 
  36:Middlewares/Third_Party/RealThread_RTOS/include/rtservice.h **** 
  37:Middlewares/Third_Party/RealThread_RTOS/include/rtservice.h **** /**
  38:Middlewares/Third_Party/RealThread_RTOS/include/rtservice.h ****  * @brief initialize a list object
  39:Middlewares/Third_Party/RealThread_RTOS/include/rtservice.h ****  */
  40:Middlewares/Third_Party/RealThread_RTOS/include/rtservice.h **** #define RT_LIST_OBJECT_INIT(object) { &(object), &(object) }
  41:Middlewares/Third_Party/RealThread_RTOS/include/rtservice.h **** 
  42:Middlewares/Third_Party/RealThread_RTOS/include/rtservice.h **** /**
  43:Middlewares/Third_Party/RealThread_RTOS/include/rtservice.h ****  * @brief initialize a list
  44:Middlewares/Third_Party/RealThread_RTOS/include/rtservice.h ****  *
  45:Middlewares/Third_Party/RealThread_RTOS/include/rtservice.h ****  * @param l list to be initialized
  46:Middlewares/Third_Party/RealThread_RTOS/include/rtservice.h ****  */
ARM GAS  C:\Users\Administrator\AppData\Local\Temp\ccrBjxbP.s 			page 18


  47:Middlewares/Third_Party/RealThread_RTOS/include/rtservice.h **** rt_inline void rt_list_init(rt_list_t *l)
  48:Middlewares/Third_Party/RealThread_RTOS/include/rtservice.h **** {
  49:Middlewares/Third_Party/RealThread_RTOS/include/rtservice.h ****     l->next = l->prev = l;
  50:Middlewares/Third_Party/RealThread_RTOS/include/rtservice.h **** }
  51:Middlewares/Third_Party/RealThread_RTOS/include/rtservice.h **** 
  52:Middlewares/Third_Party/RealThread_RTOS/include/rtservice.h **** /**
  53:Middlewares/Third_Party/RealThread_RTOS/include/rtservice.h ****  * @brief insert a node after a list
  54:Middlewares/Third_Party/RealThread_RTOS/include/rtservice.h ****  *
  55:Middlewares/Third_Party/RealThread_RTOS/include/rtservice.h ****  * @param l list to insert it
  56:Middlewares/Third_Party/RealThread_RTOS/include/rtservice.h ****  * @param n new node to be inserted
  57:Middlewares/Third_Party/RealThread_RTOS/include/rtservice.h ****  */
  58:Middlewares/Third_Party/RealThread_RTOS/include/rtservice.h **** rt_inline void rt_list_insert_after(rt_list_t *l, rt_list_t *n)
 571              		.loc 2 58 16 discriminator 3 view .LVU137
 572              	.LBB15:
  59:Middlewares/Third_Party/RealThread_RTOS/include/rtservice.h **** {
  60:Middlewares/Third_Party/RealThread_RTOS/include/rtservice.h ****     l->next->prev = n;
 573              		.loc 2 60 5 discriminator 3 view .LVU138
 574              		.loc 2 60 6 is_stmt 0 discriminator 3 view .LVU139
 575 0072 7A68     		ldr	r2, [r7, #4]
 576              		.loc 2 60 19 discriminator 3 view .LVU140
 577 0074 5360     		str	r3, [r2, #4]
  61:Middlewares/Third_Party/RealThread_RTOS/include/rtservice.h ****     n->next = l->next;
 578              		.loc 2 61 5 is_stmt 1 discriminator 3 view .LVU141
 579              		.loc 2 61 16 is_stmt 0 discriminator 3 view .LVU142
 580 0076 7A68     		ldr	r2, [r7, #4]
 581              		.loc 2 61 13 discriminator 3 view .LVU143
 582 0078 F260     		str	r2, [r6, #12]
  62:Middlewares/Third_Party/RealThread_RTOS/include/rtservice.h **** 
  63:Middlewares/Third_Party/RealThread_RTOS/include/rtservice.h ****     l->next = n;
 583              		.loc 2 63 5 is_stmt 1 discriminator 3 view .LVU144
 584              		.loc 2 63 13 is_stmt 0 discriminator 3 view .LVU145
 585 007a 7B60     		str	r3, [r7, #4]
  64:Middlewares/Third_Party/RealThread_RTOS/include/rtservice.h ****     n->prev = l;
 586              		.loc 2 64 5 is_stmt 1 discriminator 3 view .LVU146
 587              		.loc 2 64 13 is_stmt 0 discriminator 3 view .LVU147
 588 007c 3561     		str	r5, [r6, #16]
 589              	.LVL55:
 590              		.loc 2 64 13 discriminator 3 view .LVU148
 591              	.LBE15:
 592              	.LBE14:
 342:Middlewares/Third_Party/RealThread_RTOS/src/object.c **** 
 343:Middlewares/Third_Party/RealThread_RTOS/src/object.c ****     /* unlock interrupt */
 344:Middlewares/Third_Party/RealThread_RTOS/src/object.c ****     rt_hw_interrupt_enable(temp);
 593              		.loc 1 344 5 is_stmt 1 discriminator 3 view .LVU149
 594 007e FFF7FEFF 		bl	rt_hw_interrupt_enable
 595              	.LVL56:
 345:Middlewares/Third_Party/RealThread_RTOS/src/object.c **** }
 596              		.loc 1 345 1 is_stmt 0 discriminator 3 view .LVU150
 597 0082 BDE8F883 		pop	{r3, r4, r5, r6, r7, r8, r9, pc}
 598              	.LVL57:
 599              	.L50:
 600              		.loc 1 345 1 discriminator 3 view .LVU151
 601 0086 00BF     		.align	2
 602              	.L49:
 603 0088 00000000 		.word	.LANCHOR6
 604 008c 00000000 		.word	.LC0
 605 0090 18000000 		.word	.LC1
ARM GAS  C:\Users\Administrator\AppData\Local\Temp\ccrBjxbP.s 			page 19


 606 0094 00000000 		.word	.LANCHOR0
 607              		.cfi_endproc
 608              	.LFE24:
 610              		.section	.rodata.rt_object_detach.str1.4,"aMS",%progbits,1
 611              		.align	2
 612              	.LC2:
 613 0000 6F626A65 		.ascii	"object != RT_NULL\000"
 613      63742021 
 613      3D205254 
 613      5F4E554C 
 613      4C00
 614              		.section	.text.rt_object_detach,"ax",%progbits
 615              		.align	1
 616              		.global	rt_object_detach
 617              		.syntax unified
 618              		.thumb
 619              		.thumb_func
 620              		.fpu softvfp
 622              	rt_object_detach:
 623              	.LVL58:
 624              	.LFB25:
 346:Middlewares/Third_Party/RealThread_RTOS/src/object.c **** 
 347:Middlewares/Third_Party/RealThread_RTOS/src/object.c **** /**
 348:Middlewares/Third_Party/RealThread_RTOS/src/object.c ****  * This function will detach a static object from object system,
 349:Middlewares/Third_Party/RealThread_RTOS/src/object.c ****  * and the memory of static object is not freed.
 350:Middlewares/Third_Party/RealThread_RTOS/src/object.c ****  *
 351:Middlewares/Third_Party/RealThread_RTOS/src/object.c ****  * @param object the specified object to be detached.
 352:Middlewares/Third_Party/RealThread_RTOS/src/object.c ****  */
 353:Middlewares/Third_Party/RealThread_RTOS/src/object.c **** void rt_object_detach(rt_object_t object)
 354:Middlewares/Third_Party/RealThread_RTOS/src/object.c **** {
 625              		.loc 1 354 1 is_stmt 1 view -0
 626              		.cfi_startproc
 627              		@ args = 0, pretend = 0, frame = 0
 628              		@ frame_needed = 0, uses_anonymous_args = 0
 629              		.loc 1 354 1 is_stmt 0 view .LVU153
 630 0000 10B5     		push	{r4, lr}
 631              	.LCFI3:
 632              		.cfi_def_cfa_offset 8
 633              		.cfi_offset 4, -8
 634              		.cfi_offset 14, -4
 355:Middlewares/Third_Party/RealThread_RTOS/src/object.c ****     register rt_base_t temp;
 635              		.loc 1 355 5 is_stmt 1 view .LVU154
 356:Middlewares/Third_Party/RealThread_RTOS/src/object.c **** 
 357:Middlewares/Third_Party/RealThread_RTOS/src/object.c ****     /* object check */
 358:Middlewares/Third_Party/RealThread_RTOS/src/object.c ****     RT_ASSERT(object != RT_NULL);
 636              		.loc 1 358 5 view .LVU155
 637 0002 0446     		mov	r4, r0
 638 0004 A0B1     		cbz	r0, .L55
 639              	.LVL59:
 640              	.L52:
 641              		.loc 1 358 33 discriminator 3 view .LVU156
 359:Middlewares/Third_Party/RealThread_RTOS/src/object.c **** 
 360:Middlewares/Third_Party/RealThread_RTOS/src/object.c ****     RT_OBJECT_HOOK_CALL(rt_object_detach_hook, (object));
 642              		.loc 1 360 5 discriminator 3 view .LVU157
 643              		.loc 1 360 5 discriminator 3 view .LVU158
 644 0006 0E4B     		ldr	r3, .L56
 645 0008 1B68     		ldr	r3, [r3]
ARM GAS  C:\Users\Administrator\AppData\Local\Temp\ccrBjxbP.s 			page 20


 646 000a 0BB1     		cbz	r3, .L53
 647              		.loc 1 360 5 discriminator 1 view .LVU159
 648 000c 2046     		mov	r0, r4
 649 000e 9847     		blx	r3
 650              	.LVL60:
 651              	.L53:
 652              		.loc 1 360 5 discriminator 3 view .LVU160
 361:Middlewares/Third_Party/RealThread_RTOS/src/object.c **** 
 362:Middlewares/Third_Party/RealThread_RTOS/src/object.c ****     /* reset object type */
 363:Middlewares/Third_Party/RealThread_RTOS/src/object.c ****     object->type = 0;
 653              		.loc 1 363 5 discriminator 3 view .LVU161
 654              		.loc 1 363 18 is_stmt 0 discriminator 3 view .LVU162
 655 0010 0023     		movs	r3, #0
 656 0012 2372     		strb	r3, [r4, #8]
 364:Middlewares/Third_Party/RealThread_RTOS/src/object.c **** 
 365:Middlewares/Third_Party/RealThread_RTOS/src/object.c ****     /* lock interrupt */
 366:Middlewares/Third_Party/RealThread_RTOS/src/object.c ****     temp = rt_hw_interrupt_disable();
 657              		.loc 1 366 5 is_stmt 1 discriminator 3 view .LVU163
 658              		.loc 1 366 12 is_stmt 0 discriminator 3 view .LVU164
 659 0014 FFF7FEFF 		bl	rt_hw_interrupt_disable
 660              	.LVL61:
 367:Middlewares/Third_Party/RealThread_RTOS/src/object.c **** 
 368:Middlewares/Third_Party/RealThread_RTOS/src/object.c ****     /* remove from old list */
 369:Middlewares/Third_Party/RealThread_RTOS/src/object.c ****     rt_list_remove(&(object->list));
 661              		.loc 1 369 5 is_stmt 1 discriminator 3 view .LVU165
 662 0018 04F10C03 		add	r3, r4, #12
 663              	.LVL62:
 664              	.LBB16:
 665              	.LBI16:
  65:Middlewares/Third_Party/RealThread_RTOS/include/rtservice.h **** }
  66:Middlewares/Third_Party/RealThread_RTOS/include/rtservice.h **** 
  67:Middlewares/Third_Party/RealThread_RTOS/include/rtservice.h **** /**
  68:Middlewares/Third_Party/RealThread_RTOS/include/rtservice.h ****  * @brief insert a node before a list
  69:Middlewares/Third_Party/RealThread_RTOS/include/rtservice.h ****  *
  70:Middlewares/Third_Party/RealThread_RTOS/include/rtservice.h ****  * @param n new node to be inserted
  71:Middlewares/Third_Party/RealThread_RTOS/include/rtservice.h ****  * @param l list to insert it
  72:Middlewares/Third_Party/RealThread_RTOS/include/rtservice.h ****  */
  73:Middlewares/Third_Party/RealThread_RTOS/include/rtservice.h **** rt_inline void rt_list_insert_before(rt_list_t *l, rt_list_t *n)
  74:Middlewares/Third_Party/RealThread_RTOS/include/rtservice.h **** {
  75:Middlewares/Third_Party/RealThread_RTOS/include/rtservice.h ****     l->prev->next = n;
  76:Middlewares/Third_Party/RealThread_RTOS/include/rtservice.h ****     n->prev = l->prev;
  77:Middlewares/Third_Party/RealThread_RTOS/include/rtservice.h **** 
  78:Middlewares/Third_Party/RealThread_RTOS/include/rtservice.h ****     l->prev = n;
  79:Middlewares/Third_Party/RealThread_RTOS/include/rtservice.h ****     n->next = l;
  80:Middlewares/Third_Party/RealThread_RTOS/include/rtservice.h **** }
  81:Middlewares/Third_Party/RealThread_RTOS/include/rtservice.h **** 
  82:Middlewares/Third_Party/RealThread_RTOS/include/rtservice.h **** /**
  83:Middlewares/Third_Party/RealThread_RTOS/include/rtservice.h ****  * @brief remove node from list.
  84:Middlewares/Third_Party/RealThread_RTOS/include/rtservice.h ****  * @param n the node to remove from the list.
  85:Middlewares/Third_Party/RealThread_RTOS/include/rtservice.h ****  */
  86:Middlewares/Third_Party/RealThread_RTOS/include/rtservice.h **** rt_inline void rt_list_remove(rt_list_t *n)
 666              		.loc 2 86 16 discriminator 3 view .LVU166
 667              	.LBB17:
  87:Middlewares/Third_Party/RealThread_RTOS/include/rtservice.h **** {
  88:Middlewares/Third_Party/RealThread_RTOS/include/rtservice.h ****     n->next->prev = n->prev;
 668              		.loc 2 88 5 discriminator 3 view .LVU167
 669              		.loc 2 88 6 is_stmt 0 discriminator 3 view .LVU168
ARM GAS  C:\Users\Administrator\AppData\Local\Temp\ccrBjxbP.s 			page 21


 670 001c E168     		ldr	r1, [r4, #12]
 671              		.loc 2 88 22 discriminator 3 view .LVU169
 672 001e 2269     		ldr	r2, [r4, #16]
 673              		.loc 2 88 19 discriminator 3 view .LVU170
 674 0020 4A60     		str	r2, [r1, #4]
  89:Middlewares/Third_Party/RealThread_RTOS/include/rtservice.h ****     n->prev->next = n->next;
 675              		.loc 2 89 5 is_stmt 1 discriminator 3 view .LVU171
 676              		.loc 2 89 22 is_stmt 0 discriminator 3 view .LVU172
 677 0022 E168     		ldr	r1, [r4, #12]
 678              		.loc 2 89 19 discriminator 3 view .LVU173
 679 0024 1160     		str	r1, [r2]
  90:Middlewares/Third_Party/RealThread_RTOS/include/rtservice.h **** 
  91:Middlewares/Third_Party/RealThread_RTOS/include/rtservice.h ****     n->next = n->prev = n;
 680              		.loc 2 91 5 is_stmt 1 discriminator 3 view .LVU174
 681              		.loc 2 91 23 is_stmt 0 discriminator 3 view .LVU175
 682 0026 2361     		str	r3, [r4, #16]
 683              		.loc 2 91 13 discriminator 3 view .LVU176
 684 0028 E360     		str	r3, [r4, #12]
 685              	.LVL63:
 686              		.loc 2 91 13 discriminator 3 view .LVU177
 687              	.LBE17:
 688              	.LBE16:
 370:Middlewares/Third_Party/RealThread_RTOS/src/object.c **** 
 371:Middlewares/Third_Party/RealThread_RTOS/src/object.c ****     /* unlock interrupt */
 372:Middlewares/Third_Party/RealThread_RTOS/src/object.c ****     rt_hw_interrupt_enable(temp);
 689              		.loc 1 372 5 is_stmt 1 discriminator 3 view .LVU178
 690 002a FFF7FEFF 		bl	rt_hw_interrupt_enable
 691              	.LVL64:
 373:Middlewares/Third_Party/RealThread_RTOS/src/object.c **** }
 692              		.loc 1 373 1 is_stmt 0 discriminator 3 view .LVU179
 693 002e 10BD     		pop	{r4, pc}
 694              	.LVL65:
 695              	.L55:
 358:Middlewares/Third_Party/RealThread_RTOS/src/object.c **** 
 696              		.loc 1 358 5 is_stmt 1 discriminator 1 view .LVU180
 697 0030 4FF4B372 		mov	r2, #358
 698 0034 0349     		ldr	r1, .L56+4
 699 0036 0448     		ldr	r0, .L56+8
 700              	.LVL66:
 358:Middlewares/Third_Party/RealThread_RTOS/src/object.c **** 
 701              		.loc 1 358 5 is_stmt 0 discriminator 1 view .LVU181
 702 0038 FFF7FEFF 		bl	rt_assert_handler
 703              	.LVL67:
 704 003c E3E7     		b	.L52
 705              	.L57:
 706 003e 00BF     		.align	2
 707              	.L56:
 708 0040 00000000 		.word	.LANCHOR1
 709 0044 00000000 		.word	.LANCHOR7
 710 0048 00000000 		.word	.LC2
 711              		.cfi_endproc
 712              	.LFE25:
 714              		.section	.rodata.rt_object_allocate.str1.4,"aMS",%progbits,1
 715              		.align	2
 716              	.LC3:
 717 0000 46756E63 		.ascii	"Function[%s] shall not be used in ISR\012\000"
 717      74696F6E 
ARM GAS  C:\Users\Administrator\AppData\Local\Temp\ccrBjxbP.s 			page 22


 717      5B25735D 
 717      20736861 
 717      6C6C206E 
 718 0027 00       		.align	2
 719              	.LC4:
 720 0028 3000     		.ascii	"0\000"
 721              		.section	.text.rt_object_allocate,"ax",%progbits
 722              		.align	1
 723              		.global	rt_object_allocate
 724              		.syntax unified
 725              		.thumb
 726              		.thumb_func
 727              		.fpu softvfp
 729              	rt_object_allocate:
 730              	.LVL68:
 731              	.LFB26:
 374:Middlewares/Third_Party/RealThread_RTOS/src/object.c **** 
 375:Middlewares/Third_Party/RealThread_RTOS/src/object.c **** #ifdef RT_USING_HEAP
 376:Middlewares/Third_Party/RealThread_RTOS/src/object.c **** /**
 377:Middlewares/Third_Party/RealThread_RTOS/src/object.c ****  * This function will allocate an object from object system
 378:Middlewares/Third_Party/RealThread_RTOS/src/object.c ****  *
 379:Middlewares/Third_Party/RealThread_RTOS/src/object.c ****  * @param type the type of object
 380:Middlewares/Third_Party/RealThread_RTOS/src/object.c ****  * @param name the object name. In system, the object's name must be unique.
 381:Middlewares/Third_Party/RealThread_RTOS/src/object.c ****  *
 382:Middlewares/Third_Party/RealThread_RTOS/src/object.c ****  * @return object
 383:Middlewares/Third_Party/RealThread_RTOS/src/object.c ****  */
 384:Middlewares/Third_Party/RealThread_RTOS/src/object.c **** rt_object_t rt_object_allocate(enum rt_object_class_type type, const char *name)
 385:Middlewares/Third_Party/RealThread_RTOS/src/object.c **** {
 732              		.loc 1 385 1 is_stmt 1 view -0
 733              		.cfi_startproc
 734              		@ args = 0, pretend = 0, frame = 0
 735              		@ frame_needed = 0, uses_anonymous_args = 0
 736              		.loc 1 385 1 is_stmt 0 view .LVU183
 737 0000 F8B5     		push	{r3, r4, r5, r6, r7, lr}
 738              	.LCFI4:
 739              		.cfi_def_cfa_offset 24
 740              		.cfi_offset 3, -24
 741              		.cfi_offset 4, -20
 742              		.cfi_offset 5, -16
 743              		.cfi_offset 6, -12
 744              		.cfi_offset 7, -8
 745              		.cfi_offset 14, -4
 746 0002 0646     		mov	r6, r0
 747 0004 0F46     		mov	r7, r1
 386:Middlewares/Third_Party/RealThread_RTOS/src/object.c ****     struct rt_object *object;
 748              		.loc 1 386 5 is_stmt 1 view .LVU184
 387:Middlewares/Third_Party/RealThread_RTOS/src/object.c ****     register rt_base_t temp;
 749              		.loc 1 387 5 view .LVU185
 388:Middlewares/Third_Party/RealThread_RTOS/src/object.c ****     struct rt_object_information *information;
 750              		.loc 1 388 5 view .LVU186
 389:Middlewares/Third_Party/RealThread_RTOS/src/object.c **** 
 390:Middlewares/Third_Party/RealThread_RTOS/src/object.c ****     RT_DEBUG_NOT_IN_INTERRUPT;
 751              		.loc 1 390 5 view .LVU187
 752              	.LBB18:
 753              		.loc 1 390 5 view .LVU188
 754              		.loc 1 390 5 view .LVU189
 755 0006 FFF7FEFF 		bl	rt_hw_interrupt_disable
ARM GAS  C:\Users\Administrator\AppData\Local\Temp\ccrBjxbP.s 			page 23


 756              	.LVL69:
 757              		.loc 1 390 5 is_stmt 0 view .LVU190
 758 000a 0446     		mov	r4, r0
 759              	.LVL70:
 760              		.loc 1 390 5 is_stmt 1 view .LVU191
 761 000c FFF7FEFF 		bl	rt_interrupt_get_nest
 762              	.LVL71:
 763              		.loc 1 390 5 is_stmt 0 view .LVU192
 764 0010 60BB     		cbnz	r0, .L64
 765              	.L59:
 766              		.loc 1 390 5 is_stmt 1 discriminator 5 view .LVU193
 767 0012 2046     		mov	r0, r4
 768 0014 FFF7FEFF 		bl	rt_hw_interrupt_enable
 769              	.LVL72:
 770              	.LBE18:
 771              		.loc 1 390 5 discriminator 5 view .LVU194
 391:Middlewares/Third_Party/RealThread_RTOS/src/object.c **** 
 392:Middlewares/Third_Party/RealThread_RTOS/src/object.c ****     /* get object information */
 393:Middlewares/Third_Party/RealThread_RTOS/src/object.c ****     information = rt_object_get_information(type);
 772              		.loc 1 393 5 discriminator 5 view .LVU195
 773              		.loc 1 393 19 is_stmt 0 discriminator 5 view .LVU196
 774 0018 3046     		mov	r0, r6
 775 001a FFF7FEFF 		bl	rt_object_get_information
 776              	.LVL73:
 394:Middlewares/Third_Party/RealThread_RTOS/src/object.c ****     RT_ASSERT(information != RT_NULL);
 777              		.loc 1 394 5 is_stmt 1 discriminator 5 view .LVU197
 778 001e 0546     		mov	r5, r0
 779 0020 80B3     		cbz	r0, .L65
 780              	.LVL74:
 781              	.L60:
 782              		.loc 1 394 38 discriminator 3 view .LVU198
 395:Middlewares/Third_Party/RealThread_RTOS/src/object.c **** 
 396:Middlewares/Third_Party/RealThread_RTOS/src/object.c ****     object = (struct rt_object *)RT_KERNEL_MALLOC(information->object_size);
 783              		.loc 1 396 5 discriminator 3 view .LVU199
 784              		.loc 1 396 34 is_stmt 0 discriminator 3 view .LVU200
 785 0022 E868     		ldr	r0, [r5, #12]
 786 0024 FFF7FEFF 		bl	rt_malloc
 787              	.LVL75:
 397:Middlewares/Third_Party/RealThread_RTOS/src/object.c ****     if (object == RT_NULL)
 788              		.loc 1 397 5 is_stmt 1 discriminator 3 view .LVU201
 789              		.loc 1 397 8 is_stmt 0 discriminator 3 view .LVU202
 790 0028 0446     		mov	r4, r0
 791              	.LVL76:
 792              		.loc 1 397 8 discriminator 3 view .LVU203
 793 002a E8B1     		cbz	r0, .L58
 398:Middlewares/Third_Party/RealThread_RTOS/src/object.c ****     {
 399:Middlewares/Third_Party/RealThread_RTOS/src/object.c ****         /* no memory can be allocated */
 400:Middlewares/Third_Party/RealThread_RTOS/src/object.c ****         return RT_NULL;
 401:Middlewares/Third_Party/RealThread_RTOS/src/object.c ****     }
 402:Middlewares/Third_Party/RealThread_RTOS/src/object.c **** 
 403:Middlewares/Third_Party/RealThread_RTOS/src/object.c ****     /* clean memory data of object */
 404:Middlewares/Third_Party/RealThread_RTOS/src/object.c ****     rt_memset(object, 0x0, information->object_size);
 794              		.loc 1 404 5 is_stmt 1 view .LVU204
 795 002c EA68     		ldr	r2, [r5, #12]
 796 002e 0021     		movs	r1, #0
 797 0030 FFF7FEFF 		bl	rt_memset
 798              	.LVL77:
ARM GAS  C:\Users\Administrator\AppData\Local\Temp\ccrBjxbP.s 			page 24


 405:Middlewares/Third_Party/RealThread_RTOS/src/object.c **** 
 406:Middlewares/Third_Party/RealThread_RTOS/src/object.c ****     /* initialize object's parameters */
 407:Middlewares/Third_Party/RealThread_RTOS/src/object.c **** 
 408:Middlewares/Third_Party/RealThread_RTOS/src/object.c ****     /* set object type */
 409:Middlewares/Third_Party/RealThread_RTOS/src/object.c ****     object->type = type;
 799              		.loc 1 409 5 view .LVU205
 800              		.loc 1 409 18 is_stmt 0 view .LVU206
 801 0034 2672     		strb	r6, [r4, #8]
 410:Middlewares/Third_Party/RealThread_RTOS/src/object.c **** 
 411:Middlewares/Third_Party/RealThread_RTOS/src/object.c ****     /* set object flag */
 412:Middlewares/Third_Party/RealThread_RTOS/src/object.c ****     object->flag = 0;
 802              		.loc 1 412 5 is_stmt 1 view .LVU207
 803              		.loc 1 412 18 is_stmt 0 view .LVU208
 804 0036 0023     		movs	r3, #0
 805 0038 6372     		strb	r3, [r4, #9]
 413:Middlewares/Third_Party/RealThread_RTOS/src/object.c **** 
 414:Middlewares/Third_Party/RealThread_RTOS/src/object.c ****     /* copy name */
 415:Middlewares/Third_Party/RealThread_RTOS/src/object.c ****     rt_strncpy(object->name, name, RT_NAME_MAX);
 806              		.loc 1 415 5 is_stmt 1 view .LVU209
 807 003a 0822     		movs	r2, #8
 808 003c 3946     		mov	r1, r7
 809 003e 2046     		mov	r0, r4
 810 0040 FFF7FEFF 		bl	rt_strncpy
 811              	.LVL78:
 416:Middlewares/Third_Party/RealThread_RTOS/src/object.c **** 
 417:Middlewares/Third_Party/RealThread_RTOS/src/object.c ****     RT_OBJECT_HOOK_CALL(rt_object_attach_hook, (object));
 812              		.loc 1 417 5 view .LVU210
 813              		.loc 1 417 5 view .LVU211
 814 0044 134B     		ldr	r3, .L66
 815 0046 1B68     		ldr	r3, [r3]
 816 0048 0BB1     		cbz	r3, .L62
 817              		.loc 1 417 5 discriminator 1 view .LVU212
 818 004a 2046     		mov	r0, r4
 819 004c 9847     		blx	r3
 820              	.LVL79:
 821              	.L62:
 822              		.loc 1 417 5 discriminator 3 view .LVU213
 418:Middlewares/Third_Party/RealThread_RTOS/src/object.c **** 
 419:Middlewares/Third_Party/RealThread_RTOS/src/object.c ****     /* lock interrupt */
 420:Middlewares/Third_Party/RealThread_RTOS/src/object.c ****     temp = rt_hw_interrupt_disable();
 823              		.loc 1 420 5 discriminator 3 view .LVU214
 824              		.loc 1 420 12 is_stmt 0 discriminator 3 view .LVU215
 825 004e FFF7FEFF 		bl	rt_hw_interrupt_disable
 826              	.LVL80:
 421:Middlewares/Third_Party/RealThread_RTOS/src/object.c **** 
 422:Middlewares/Third_Party/RealThread_RTOS/src/object.c ****     /* insert object into information object list */
 423:Middlewares/Third_Party/RealThread_RTOS/src/object.c ****     rt_list_insert_after(&(information->object_list), &(object->list));
 827              		.loc 1 423 5 is_stmt 1 discriminator 3 view .LVU216
 828 0052 2A1D     		adds	r2, r5, #4
 829 0054 04F10C03 		add	r3, r4, #12
 830              	.LVL81:
 831              	.LBB19:
 832              	.LBI19:
  58:Middlewares/Third_Party/RealThread_RTOS/include/rtservice.h **** {
 833              		.loc 2 58 16 discriminator 3 view .LVU217
 834              	.LBB20:
  60:Middlewares/Third_Party/RealThread_RTOS/include/rtservice.h ****     n->next = l->next;
ARM GAS  C:\Users\Administrator\AppData\Local\Temp\ccrBjxbP.s 			page 25


 835              		.loc 2 60 5 discriminator 3 view .LVU218
  60:Middlewares/Third_Party/RealThread_RTOS/include/rtservice.h ****     n->next = l->next;
 836              		.loc 2 60 6 is_stmt 0 discriminator 3 view .LVU219
 837 0058 6968     		ldr	r1, [r5, #4]
  60:Middlewares/Third_Party/RealThread_RTOS/include/rtservice.h ****     n->next = l->next;
 838              		.loc 2 60 19 discriminator 3 view .LVU220
 839 005a 4B60     		str	r3, [r1, #4]
  61:Middlewares/Third_Party/RealThread_RTOS/include/rtservice.h **** 
 840              		.loc 2 61 5 is_stmt 1 discriminator 3 view .LVU221
  61:Middlewares/Third_Party/RealThread_RTOS/include/rtservice.h **** 
 841              		.loc 2 61 16 is_stmt 0 discriminator 3 view .LVU222
 842 005c 6968     		ldr	r1, [r5, #4]
  61:Middlewares/Third_Party/RealThread_RTOS/include/rtservice.h **** 
 843              		.loc 2 61 13 discriminator 3 view .LVU223
 844 005e E160     		str	r1, [r4, #12]
  63:Middlewares/Third_Party/RealThread_RTOS/include/rtservice.h ****     n->prev = l;
 845              		.loc 2 63 5 is_stmt 1 discriminator 3 view .LVU224
  63:Middlewares/Third_Party/RealThread_RTOS/include/rtservice.h ****     n->prev = l;
 846              		.loc 2 63 13 is_stmt 0 discriminator 3 view .LVU225
 847 0060 6B60     		str	r3, [r5, #4]
  64:Middlewares/Third_Party/RealThread_RTOS/include/rtservice.h **** }
 848              		.loc 2 64 5 is_stmt 1 discriminator 3 view .LVU226
  64:Middlewares/Third_Party/RealThread_RTOS/include/rtservice.h **** }
 849              		.loc 2 64 13 is_stmt 0 discriminator 3 view .LVU227
 850 0062 2261     		str	r2, [r4, #16]
 851              	.LVL82:
  64:Middlewares/Third_Party/RealThread_RTOS/include/rtservice.h **** }
 852              		.loc 2 64 13 discriminator 3 view .LVU228
 853              	.LBE20:
 854              	.LBE19:
 424:Middlewares/Third_Party/RealThread_RTOS/src/object.c **** 
 425:Middlewares/Third_Party/RealThread_RTOS/src/object.c ****     /* unlock interrupt */
 426:Middlewares/Third_Party/RealThread_RTOS/src/object.c ****     rt_hw_interrupt_enable(temp);
 855              		.loc 1 426 5 is_stmt 1 discriminator 3 view .LVU229
 856 0064 FFF7FEFF 		bl	rt_hw_interrupt_enable
 857              	.LVL83:
 427:Middlewares/Third_Party/RealThread_RTOS/src/object.c **** 
 428:Middlewares/Third_Party/RealThread_RTOS/src/object.c ****     /* return object */
 429:Middlewares/Third_Party/RealThread_RTOS/src/object.c ****     return object;
 858              		.loc 1 429 5 discriminator 3 view .LVU230
 859              	.L58:
 430:Middlewares/Third_Party/RealThread_RTOS/src/object.c **** }
 860              		.loc 1 430 1 is_stmt 0 view .LVU231
 861 0068 2046     		mov	r0, r4
 862 006a F8BD     		pop	{r3, r4, r5, r6, r7, pc}
 863              	.LVL84:
 864              	.L64:
 865              	.LBB21:
 390:Middlewares/Third_Party/RealThread_RTOS/src/object.c **** 
 866              		.loc 1 390 5 is_stmt 1 discriminator 1 view .LVU232
 867 006c 0A4D     		ldr	r5, .L66+4
 868 006e 2946     		mov	r1, r5
 869 0070 0A48     		ldr	r0, .L66+8
 870 0072 FFF7FEFF 		bl	rt_kprintf
 871              	.LVL85:
 390:Middlewares/Third_Party/RealThread_RTOS/src/object.c **** 
 872              		.loc 1 390 5 discriminator 1 view .LVU233
ARM GAS  C:\Users\Administrator\AppData\Local\Temp\ccrBjxbP.s 			page 26


 390:Middlewares/Third_Party/RealThread_RTOS/src/object.c **** 
 873              		.loc 1 390 5 discriminator 1 view .LVU234
 874 0076 4FF4C372 		mov	r2, #390
 875 007a 2946     		mov	r1, r5
 876 007c 0848     		ldr	r0, .L66+12
 877 007e FFF7FEFF 		bl	rt_assert_handler
 878              	.LVL86:
 879 0082 C6E7     		b	.L59
 880              	.LVL87:
 881              	.L65:
 390:Middlewares/Third_Party/RealThread_RTOS/src/object.c **** 
 882              		.loc 1 390 5 is_stmt 0 discriminator 1 view .LVU235
 883              	.LBE21:
 394:Middlewares/Third_Party/RealThread_RTOS/src/object.c **** 
 884              		.loc 1 394 5 is_stmt 1 discriminator 1 view .LVU236
 885 0084 4FF4C572 		mov	r2, #394
 886 0088 0349     		ldr	r1, .L66+4
 887 008a 0648     		ldr	r0, .L66+16
 888              	.LVL88:
 394:Middlewares/Third_Party/RealThread_RTOS/src/object.c **** 
 889              		.loc 1 394 5 is_stmt 0 discriminator 1 view .LVU237
 890 008c FFF7FEFF 		bl	rt_assert_handler
 891              	.LVL89:
 892 0090 C7E7     		b	.L60
 893              	.L67:
 894 0092 00BF     		.align	2
 895              	.L66:
 896 0094 00000000 		.word	.LANCHOR0
 897 0098 00000000 		.word	.LANCHOR8
 898 009c 00000000 		.word	.LC3
 899 00a0 28000000 		.word	.LC4
 900 00a4 00000000 		.word	.LC0
 901              		.cfi_endproc
 902              	.LFE26:
 904              		.section	.rodata.rt_object_delete.str1.4,"aMS",%progbits,1
 905              		.align	2
 906              	.LC5:
 907 0000 21286F62 		.ascii	"!(object->type & RT_Object_Class_Static)\000"
 907      6A656374 
 907      2D3E7479 
 907      70652026 
 907      2052545F 
 908              		.section	.text.rt_object_delete,"ax",%progbits
 909              		.align	1
 910              		.global	rt_object_delete
 911              		.syntax unified
 912              		.thumb
 913              		.thumb_func
 914              		.fpu softvfp
 916              	rt_object_delete:
 917              	.LVL90:
 918              	.LFB27:
 431:Middlewares/Third_Party/RealThread_RTOS/src/object.c **** 
 432:Middlewares/Third_Party/RealThread_RTOS/src/object.c **** /**
 433:Middlewares/Third_Party/RealThread_RTOS/src/object.c ****  * This function will delete an object and release object memory.
 434:Middlewares/Third_Party/RealThread_RTOS/src/object.c ****  *
 435:Middlewares/Third_Party/RealThread_RTOS/src/object.c ****  * @param object the specified object to be deleted.
ARM GAS  C:\Users\Administrator\AppData\Local\Temp\ccrBjxbP.s 			page 27


 436:Middlewares/Third_Party/RealThread_RTOS/src/object.c ****  */
 437:Middlewares/Third_Party/RealThread_RTOS/src/object.c **** void rt_object_delete(rt_object_t object)
 438:Middlewares/Third_Party/RealThread_RTOS/src/object.c **** {
 919              		.loc 1 438 1 is_stmt 1 view -0
 920              		.cfi_startproc
 921              		@ args = 0, pretend = 0, frame = 0
 922              		@ frame_needed = 0, uses_anonymous_args = 0
 923              		.loc 1 438 1 is_stmt 0 view .LVU239
 924 0000 10B5     		push	{r4, lr}
 925              	.LCFI5:
 926              		.cfi_def_cfa_offset 8
 927              		.cfi_offset 4, -8
 928              		.cfi_offset 14, -4
 439:Middlewares/Third_Party/RealThread_RTOS/src/object.c ****     register rt_base_t temp;
 929              		.loc 1 439 5 is_stmt 1 view .LVU240
 440:Middlewares/Third_Party/RealThread_RTOS/src/object.c **** 
 441:Middlewares/Third_Party/RealThread_RTOS/src/object.c ****     /* object check */
 442:Middlewares/Third_Party/RealThread_RTOS/src/object.c ****     RT_ASSERT(object != RT_NULL);
 930              		.loc 1 442 5 view .LVU241
 931 0002 0446     		mov	r4, r0
 932 0004 D8B1     		cbz	r0, .L73
 933              	.LVL91:
 934              	.L69:
 935              		.loc 1 442 33 discriminator 3 view .LVU242
 443:Middlewares/Third_Party/RealThread_RTOS/src/object.c ****     RT_ASSERT(!(object->type & RT_Object_Class_Static));
 936              		.loc 1 443 5 discriminator 3 view .LVU243
 937 0006 94F90830 		ldrsb	r3, [r4, #8]
 938 000a 002B     		cmp	r3, #0
 939 000c 1EDB     		blt	.L74
 940              	.L70:
 941              		.loc 1 443 56 discriminator 3 view .LVU244
 444:Middlewares/Third_Party/RealThread_RTOS/src/object.c **** 
 445:Middlewares/Third_Party/RealThread_RTOS/src/object.c ****     RT_OBJECT_HOOK_CALL(rt_object_detach_hook, (object));
 942              		.loc 1 445 5 discriminator 3 view .LVU245
 943              		.loc 1 445 5 discriminator 3 view .LVU246
 944 000e 134B     		ldr	r3, .L75
 945 0010 1B68     		ldr	r3, [r3]
 946 0012 0BB1     		cbz	r3, .L71
 947              		.loc 1 445 5 discriminator 1 view .LVU247
 948 0014 2046     		mov	r0, r4
 949 0016 9847     		blx	r3
 950              	.LVL92:
 951              	.L71:
 952              		.loc 1 445 5 discriminator 3 view .LVU248
 446:Middlewares/Third_Party/RealThread_RTOS/src/object.c **** 
 447:Middlewares/Third_Party/RealThread_RTOS/src/object.c ****     /* reset object type */
 448:Middlewares/Third_Party/RealThread_RTOS/src/object.c ****     object->type = RT_Object_Class_Null;
 953              		.loc 1 448 5 discriminator 3 view .LVU249
 954              		.loc 1 448 18 is_stmt 0 discriminator 3 view .LVU250
 955 0018 0023     		movs	r3, #0
 956 001a 2372     		strb	r3, [r4, #8]
 449:Middlewares/Third_Party/RealThread_RTOS/src/object.c **** 
 450:Middlewares/Third_Party/RealThread_RTOS/src/object.c ****     /* lock interrupt */
 451:Middlewares/Third_Party/RealThread_RTOS/src/object.c ****     temp = rt_hw_interrupt_disable();
 957              		.loc 1 451 5 is_stmt 1 discriminator 3 view .LVU251
 958              		.loc 1 451 12 is_stmt 0 discriminator 3 view .LVU252
 959 001c FFF7FEFF 		bl	rt_hw_interrupt_disable
ARM GAS  C:\Users\Administrator\AppData\Local\Temp\ccrBjxbP.s 			page 28


 960              	.LVL93:
 452:Middlewares/Third_Party/RealThread_RTOS/src/object.c **** 
 453:Middlewares/Third_Party/RealThread_RTOS/src/object.c ****     /* remove from old list */
 454:Middlewares/Third_Party/RealThread_RTOS/src/object.c ****     rt_list_remove(&(object->list));
 961              		.loc 1 454 5 is_stmt 1 discriminator 3 view .LVU253
 962 0020 04F10C03 		add	r3, r4, #12
 963              	.LVL94:
 964              	.LBB22:
 965              	.LBI22:
  86:Middlewares/Third_Party/RealThread_RTOS/include/rtservice.h **** {
 966              		.loc 2 86 16 discriminator 3 view .LVU254
 967              	.LBB23:
  88:Middlewares/Third_Party/RealThread_RTOS/include/rtservice.h ****     n->prev->next = n->next;
 968              		.loc 2 88 5 discriminator 3 view .LVU255
  88:Middlewares/Third_Party/RealThread_RTOS/include/rtservice.h ****     n->prev->next = n->next;
 969              		.loc 2 88 6 is_stmt 0 discriminator 3 view .LVU256
 970 0024 E168     		ldr	r1, [r4, #12]
  88:Middlewares/Third_Party/RealThread_RTOS/include/rtservice.h ****     n->prev->next = n->next;
 971              		.loc 2 88 22 discriminator 3 view .LVU257
 972 0026 2269     		ldr	r2, [r4, #16]
  88:Middlewares/Third_Party/RealThread_RTOS/include/rtservice.h ****     n->prev->next = n->next;
 973              		.loc 2 88 19 discriminator 3 view .LVU258
 974 0028 4A60     		str	r2, [r1, #4]
  89:Middlewares/Third_Party/RealThread_RTOS/include/rtservice.h **** 
 975              		.loc 2 89 5 is_stmt 1 discriminator 3 view .LVU259
  89:Middlewares/Third_Party/RealThread_RTOS/include/rtservice.h **** 
 976              		.loc 2 89 22 is_stmt 0 discriminator 3 view .LVU260
 977 002a E168     		ldr	r1, [r4, #12]
  89:Middlewares/Third_Party/RealThread_RTOS/include/rtservice.h **** 
 978              		.loc 2 89 19 discriminator 3 view .LVU261
 979 002c 1160     		str	r1, [r2]
 980              		.loc 2 91 5 is_stmt 1 discriminator 3 view .LVU262
 981              		.loc 2 91 23 is_stmt 0 discriminator 3 view .LVU263
 982 002e 2361     		str	r3, [r4, #16]
 983              		.loc 2 91 13 discriminator 3 view .LVU264
 984 0030 E360     		str	r3, [r4, #12]
 985              	.LVL95:
 986              		.loc 2 91 13 discriminator 3 view .LVU265
 987              	.LBE23:
 988              	.LBE22:
 455:Middlewares/Third_Party/RealThread_RTOS/src/object.c **** 
 456:Middlewares/Third_Party/RealThread_RTOS/src/object.c ****     /* unlock interrupt */
 457:Middlewares/Third_Party/RealThread_RTOS/src/object.c ****     rt_hw_interrupt_enable(temp);
 989              		.loc 1 457 5 is_stmt 1 discriminator 3 view .LVU266
 990 0032 FFF7FEFF 		bl	rt_hw_interrupt_enable
 991              	.LVL96:
 458:Middlewares/Third_Party/RealThread_RTOS/src/object.c **** 
 459:Middlewares/Third_Party/RealThread_RTOS/src/object.c ****     /* free the memory of object */
 460:Middlewares/Third_Party/RealThread_RTOS/src/object.c ****     RT_KERNEL_FREE(object);
 992              		.loc 1 460 5 discriminator 3 view .LVU267
 993 0036 2046     		mov	r0, r4
 994 0038 FFF7FEFF 		bl	rt_free
 995              	.LVL97:
 461:Middlewares/Third_Party/RealThread_RTOS/src/object.c **** }
 996              		.loc 1 461 1 is_stmt 0 discriminator 3 view .LVU268
 997 003c 10BD     		pop	{r4, pc}
 998              	.LVL98:
ARM GAS  C:\Users\Administrator\AppData\Local\Temp\ccrBjxbP.s 			page 29


 999              	.L73:
 442:Middlewares/Third_Party/RealThread_RTOS/src/object.c ****     RT_ASSERT(!(object->type & RT_Object_Class_Static));
 1000              		.loc 1 442 5 is_stmt 1 discriminator 1 view .LVU269
 1001 003e 4FF4DD72 		mov	r2, #442
 1002 0042 0749     		ldr	r1, .L75+4
 1003 0044 0748     		ldr	r0, .L75+8
 1004              	.LVL99:
 442:Middlewares/Third_Party/RealThread_RTOS/src/object.c ****     RT_ASSERT(!(object->type & RT_Object_Class_Static));
 1005              		.loc 1 442 5 is_stmt 0 discriminator 1 view .LVU270
 1006 0046 FFF7FEFF 		bl	rt_assert_handler
 1007              	.LVL100:
 1008 004a DCE7     		b	.L69
 1009              	.L74:
 443:Middlewares/Third_Party/RealThread_RTOS/src/object.c **** 
 1010              		.loc 1 443 5 is_stmt 1 discriminator 1 view .LVU271
 1011 004c 40F2BB12 		movw	r2, #443
 1012 0050 0349     		ldr	r1, .L75+4
 1013 0052 0548     		ldr	r0, .L75+12
 1014 0054 FFF7FEFF 		bl	rt_assert_handler
 1015              	.LVL101:
 1016 0058 D9E7     		b	.L70
 1017              	.L76:
 1018 005a 00BF     		.align	2
 1019              	.L75:
 1020 005c 00000000 		.word	.LANCHOR1
 1021 0060 00000000 		.word	.LANCHOR9
 1022 0064 00000000 		.word	.LC2
 1023 0068 00000000 		.word	.LC5
 1024              		.cfi_endproc
 1025              	.LFE27:
 1027              		.section	.text.rt_object_is_systemobject,"ax",%progbits
 1028              		.align	1
 1029              		.global	rt_object_is_systemobject
 1030              		.syntax unified
 1031              		.thumb
 1032              		.thumb_func
 1033              		.fpu softvfp
 1035              	rt_object_is_systemobject:
 1036              	.LVL102:
 1037              	.LFB28:
 462:Middlewares/Third_Party/RealThread_RTOS/src/object.c **** #endif
 463:Middlewares/Third_Party/RealThread_RTOS/src/object.c **** 
 464:Middlewares/Third_Party/RealThread_RTOS/src/object.c **** /**
 465:Middlewares/Third_Party/RealThread_RTOS/src/object.c ****  * This function will judge the object is system object or not.
 466:Middlewares/Third_Party/RealThread_RTOS/src/object.c ****  * Normally, the system object is a static object and the type
 467:Middlewares/Third_Party/RealThread_RTOS/src/object.c ****  * of object set to RT_Object_Class_Static.
 468:Middlewares/Third_Party/RealThread_RTOS/src/object.c ****  *
 469:Middlewares/Third_Party/RealThread_RTOS/src/object.c ****  * @param object the specified object to be judged.
 470:Middlewares/Third_Party/RealThread_RTOS/src/object.c ****  *
 471:Middlewares/Third_Party/RealThread_RTOS/src/object.c ****  * @return RT_TRUE if a system object, RT_FALSE for others.
 472:Middlewares/Third_Party/RealThread_RTOS/src/object.c ****  */
 473:Middlewares/Third_Party/RealThread_RTOS/src/object.c **** rt_bool_t rt_object_is_systemobject(rt_object_t object)
 474:Middlewares/Third_Party/RealThread_RTOS/src/object.c **** {
 1038              		.loc 1 474 1 view -0
 1039              		.cfi_startproc
 1040              		@ args = 0, pretend = 0, frame = 0
 1041              		@ frame_needed = 0, uses_anonymous_args = 0
ARM GAS  C:\Users\Administrator\AppData\Local\Temp\ccrBjxbP.s 			page 30


 1042              		.loc 1 474 1 is_stmt 0 view .LVU273
 1043 0000 10B5     		push	{r4, lr}
 1044              	.LCFI6:
 1045              		.cfi_def_cfa_offset 8
 1046              		.cfi_offset 4, -8
 1047              		.cfi_offset 14, -4
 475:Middlewares/Third_Party/RealThread_RTOS/src/object.c ****     /* object check */
 476:Middlewares/Third_Party/RealThread_RTOS/src/object.c ****     RT_ASSERT(object != RT_NULL);
 1048              		.loc 1 476 5 is_stmt 1 view .LVU274
 1049 0002 0446     		mov	r4, r0
 1050 0004 28B1     		cbz	r0, .L82
 1051              	.LVL103:
 1052              	.L78:
 1053              		.loc 1 476 33 discriminator 3 view .LVU275
 477:Middlewares/Third_Party/RealThread_RTOS/src/object.c **** 
 478:Middlewares/Third_Party/RealThread_RTOS/src/object.c ****     if (object->type & RT_Object_Class_Static)
 1054              		.loc 1 478 5 discriminator 3 view .LVU276
 1055              		.loc 1 478 9 is_stmt 0 discriminator 3 view .LVU277
 1056 0006 94F90830 		ldrsb	r3, [r4, #8]
 1057              		.loc 1 478 8 discriminator 3 view .LVU278
 1058 000a 002B     		cmp	r3, #0
 1059 000c 08DB     		blt	.L80
 479:Middlewares/Third_Party/RealThread_RTOS/src/object.c ****         return RT_TRUE;
 480:Middlewares/Third_Party/RealThread_RTOS/src/object.c **** 
 481:Middlewares/Third_Party/RealThread_RTOS/src/object.c ****     return RT_FALSE;
 1060              		.loc 1 481 12 view .LVU279
 1061 000e 0020     		movs	r0, #0
 1062              	.L77:
 482:Middlewares/Third_Party/RealThread_RTOS/src/object.c **** }
 1063              		.loc 1 482 1 view .LVU280
 1064 0010 10BD     		pop	{r4, pc}
 1065              	.LVL104:
 1066              	.L82:
 476:Middlewares/Third_Party/RealThread_RTOS/src/object.c **** 
 1067              		.loc 1 476 5 is_stmt 1 discriminator 1 view .LVU281
 1068 0012 4FF4EE72 		mov	r2, #476
 1069 0016 0349     		ldr	r1, .L83
 1070 0018 0348     		ldr	r0, .L83+4
 1071              	.LVL105:
 476:Middlewares/Third_Party/RealThread_RTOS/src/object.c **** 
 1072              		.loc 1 476 5 is_stmt 0 discriminator 1 view .LVU282
 1073 001a FFF7FEFF 		bl	rt_assert_handler
 1074              	.LVL106:
 1075 001e F2E7     		b	.L78
 1076              	.L80:
 479:Middlewares/Third_Party/RealThread_RTOS/src/object.c ****         return RT_TRUE;
 1077              		.loc 1 479 16 view .LVU283
 1078 0020 0120     		movs	r0, #1
 1079 0022 F5E7     		b	.L77
 1080              	.L84:
 1081              		.align	2
 1082              	.L83:
 1083 0024 00000000 		.word	.LANCHOR10
 1084 0028 00000000 		.word	.LC2
 1085              		.cfi_endproc
 1086              	.LFE28:
 1088              		.section	.text.rt_object_get_type,"ax",%progbits
ARM GAS  C:\Users\Administrator\AppData\Local\Temp\ccrBjxbP.s 			page 31


 1089              		.align	1
 1090              		.global	rt_object_get_type
 1091              		.syntax unified
 1092              		.thumb
 1093              		.thumb_func
 1094              		.fpu softvfp
 1096              	rt_object_get_type:
 1097              	.LVL107:
 1098              	.LFB29:
 483:Middlewares/Third_Party/RealThread_RTOS/src/object.c **** 
 484:Middlewares/Third_Party/RealThread_RTOS/src/object.c **** /**
 485:Middlewares/Third_Party/RealThread_RTOS/src/object.c ****  * This function will return the type of object without
 486:Middlewares/Third_Party/RealThread_RTOS/src/object.c ****  * RT_Object_Class_Static flag.
 487:Middlewares/Third_Party/RealThread_RTOS/src/object.c ****  *
 488:Middlewares/Third_Party/RealThread_RTOS/src/object.c ****  * @param object the specified object to be get type.
 489:Middlewares/Third_Party/RealThread_RTOS/src/object.c ****  *
 490:Middlewares/Third_Party/RealThread_RTOS/src/object.c ****  * @return the type of object.
 491:Middlewares/Third_Party/RealThread_RTOS/src/object.c ****  */
 492:Middlewares/Third_Party/RealThread_RTOS/src/object.c **** rt_uint8_t rt_object_get_type(rt_object_t object)
 493:Middlewares/Third_Party/RealThread_RTOS/src/object.c **** {
 1099              		.loc 1 493 1 is_stmt 1 view -0
 1100              		.cfi_startproc
 1101              		@ args = 0, pretend = 0, frame = 0
 1102              		@ frame_needed = 0, uses_anonymous_args = 0
 1103              		.loc 1 493 1 is_stmt 0 view .LVU285
 1104 0000 10B5     		push	{r4, lr}
 1105              	.LCFI7:
 1106              		.cfi_def_cfa_offset 8
 1107              		.cfi_offset 4, -8
 1108              		.cfi_offset 14, -4
 494:Middlewares/Third_Party/RealThread_RTOS/src/object.c ****     /* object check */
 495:Middlewares/Third_Party/RealThread_RTOS/src/object.c ****     RT_ASSERT(object != RT_NULL);
 1109              		.loc 1 495 5 is_stmt 1 view .LVU286
 1110 0002 0446     		mov	r4, r0
 1111 0004 18B1     		cbz	r0, .L88
 1112              	.LVL108:
 1113              	.L86:
 1114              		.loc 1 495 33 discriminator 3 view .LVU287
 496:Middlewares/Third_Party/RealThread_RTOS/src/object.c **** 
 497:Middlewares/Third_Party/RealThread_RTOS/src/object.c ****     return object->type & ~RT_Object_Class_Static;
 1115              		.loc 1 497 5 discriminator 3 view .LVU288
 1116              		.loc 1 497 18 is_stmt 0 discriminator 3 view .LVU289
 1117 0006 207A     		ldrb	r0, [r4, #8]	@ zero_extendqisi2
 498:Middlewares/Third_Party/RealThread_RTOS/src/object.c **** }
 1118              		.loc 1 498 1 discriminator 3 view .LVU290
 1119 0008 00F07F00 		and	r0, r0, #127
 1120 000c 10BD     		pop	{r4, pc}
 1121              	.LVL109:
 1122              	.L88:
 495:Middlewares/Third_Party/RealThread_RTOS/src/object.c **** 
 1123              		.loc 1 495 5 is_stmt 1 discriminator 1 view .LVU291
 1124 000e 40F2EF12 		movw	r2, #495
 1125 0012 0249     		ldr	r1, .L89
 1126 0014 0248     		ldr	r0, .L89+4
 1127              	.LVL110:
 495:Middlewares/Third_Party/RealThread_RTOS/src/object.c **** 
 1128              		.loc 1 495 5 is_stmt 0 discriminator 1 view .LVU292
ARM GAS  C:\Users\Administrator\AppData\Local\Temp\ccrBjxbP.s 			page 32


 1129 0016 FFF7FEFF 		bl	rt_assert_handler
 1130              	.LVL111:
 1131 001a F4E7     		b	.L86
 1132              	.L90:
 1133              		.align	2
 1134              	.L89:
 1135 001c 00000000 		.word	.LANCHOR11
 1136 0020 00000000 		.word	.LC2
 1137              		.cfi_endproc
 1138              	.LFE29:
 1140              		.section	.text.rt_object_find,"ax",%progbits
 1141              		.align	1
 1142              		.global	rt_object_find
 1143              		.syntax unified
 1144              		.thumb
 1145              		.thumb_func
 1146              		.fpu softvfp
 1148              	rt_object_find:
 1149              	.LVL112:
 1150              	.LFB30:
 499:Middlewares/Third_Party/RealThread_RTOS/src/object.c **** 
 500:Middlewares/Third_Party/RealThread_RTOS/src/object.c **** /**
 501:Middlewares/Third_Party/RealThread_RTOS/src/object.c ****  * This function will find specified name object from object
 502:Middlewares/Third_Party/RealThread_RTOS/src/object.c ****  * container.
 503:Middlewares/Third_Party/RealThread_RTOS/src/object.c ****  *
 504:Middlewares/Third_Party/RealThread_RTOS/src/object.c ****  * @param name the specified name of object.
 505:Middlewares/Third_Party/RealThread_RTOS/src/object.c ****  * @param type the type of object
 506:Middlewares/Third_Party/RealThread_RTOS/src/object.c ****  *
 507:Middlewares/Third_Party/RealThread_RTOS/src/object.c ****  * @return the found object or RT_NULL if there is no this object
 508:Middlewares/Third_Party/RealThread_RTOS/src/object.c ****  * in object container.
 509:Middlewares/Third_Party/RealThread_RTOS/src/object.c ****  *
 510:Middlewares/Third_Party/RealThread_RTOS/src/object.c ****  * @note this function shall not be invoked in interrupt status.
 511:Middlewares/Third_Party/RealThread_RTOS/src/object.c ****  */
 512:Middlewares/Third_Party/RealThread_RTOS/src/object.c **** rt_object_t rt_object_find(const char *name, rt_uint8_t type)
 513:Middlewares/Third_Party/RealThread_RTOS/src/object.c **** {
 1151              		.loc 1 513 1 is_stmt 1 view -0
 1152              		.cfi_startproc
 1153              		@ args = 0, pretend = 0, frame = 0
 1154              		@ frame_needed = 0, uses_anonymous_args = 0
 1155              		.loc 1 513 1 is_stmt 0 view .LVU294
 1156 0000 F8B5     		push	{r3, r4, r5, r6, r7, lr}
 1157              	.LCFI8:
 1158              		.cfi_def_cfa_offset 24
 1159              		.cfi_offset 3, -24
 1160              		.cfi_offset 4, -20
 1161              		.cfi_offset 5, -16
 1162              		.cfi_offset 6, -12
 1163              		.cfi_offset 7, -8
 1164              		.cfi_offset 14, -4
 1165 0002 0746     		mov	r7, r0
 514:Middlewares/Third_Party/RealThread_RTOS/src/object.c ****     struct rt_object *object = RT_NULL;
 1166              		.loc 1 514 5 is_stmt 1 view .LVU295
 1167              	.LVL113:
 515:Middlewares/Third_Party/RealThread_RTOS/src/object.c ****     struct rt_list_node *node = RT_NULL;
 1168              		.loc 1 515 5 view .LVU296
 516:Middlewares/Third_Party/RealThread_RTOS/src/object.c ****     struct rt_object_information *information = RT_NULL;
 1169              		.loc 1 516 5 view .LVU297
ARM GAS  C:\Users\Administrator\AppData\Local\Temp\ccrBjxbP.s 			page 33


 517:Middlewares/Third_Party/RealThread_RTOS/src/object.c **** 
 518:Middlewares/Third_Party/RealThread_RTOS/src/object.c ****     information = rt_object_get_information((enum rt_object_class_type)type);
 1170              		.loc 1 518 5 view .LVU298
 1171              		.loc 1 518 19 is_stmt 0 view .LVU299
 1172 0004 0846     		mov	r0, r1
 1173              	.LVL114:
 1174              		.loc 1 518 19 view .LVU300
 1175 0006 FFF7FEFF 		bl	rt_object_get_information
 1176              	.LVL115:
 519:Middlewares/Third_Party/RealThread_RTOS/src/object.c **** 
 520:Middlewares/Third_Party/RealThread_RTOS/src/object.c ****     /* parameter check */
 521:Middlewares/Third_Party/RealThread_RTOS/src/object.c ****     if ((name == RT_NULL) || (information == RT_NULL)) return RT_NULL;
 1177              		.loc 1 521 5 is_stmt 1 view .LVU301
 1178              		.loc 1 521 8 is_stmt 0 view .LVU302
 1179 000a 77B3     		cbz	r7, .L97
 1180 000c 0646     		mov	r6, r0
 1181              		.loc 1 521 27 discriminator 2 view .LVU303
 1182 000e 70B3     		cbz	r0, .L98
 522:Middlewares/Third_Party/RealThread_RTOS/src/object.c **** 
 523:Middlewares/Third_Party/RealThread_RTOS/src/object.c ****     /* which is invoke in interrupt status */
 524:Middlewares/Third_Party/RealThread_RTOS/src/object.c ****     RT_DEBUG_NOT_IN_INTERRUPT;
 1183              		.loc 1 524 5 is_stmt 1 view .LVU304
 1184              	.LBB24:
 1185              		.loc 1 524 5 view .LVU305
 1186              		.loc 1 524 5 view .LVU306
 1187 0010 FFF7FEFF 		bl	rt_hw_interrupt_disable
 1188              	.LVL116:
 1189              		.loc 1 524 5 is_stmt 0 view .LVU307
 1190 0014 0446     		mov	r4, r0
 1191              	.LVL117:
 1192              		.loc 1 524 5 is_stmt 1 view .LVU308
 1193 0016 FFF7FEFF 		bl	rt_interrupt_get_nest
 1194              	.LVL118:
 1195              		.loc 1 524 5 is_stmt 0 view .LVU309
 1196 001a 90B9     		cbnz	r0, .L100
 1197              	.L93:
 1198              		.loc 1 524 5 is_stmt 1 discriminator 5 view .LVU310
 1199 001c 2046     		mov	r0, r4
 1200 001e FFF7FEFF 		bl	rt_hw_interrupt_enable
 1201              	.LVL119:
 1202              	.LBE24:
 1203              		.loc 1 524 5 discriminator 5 view .LVU311
 525:Middlewares/Third_Party/RealThread_RTOS/src/object.c **** 
 526:Middlewares/Third_Party/RealThread_RTOS/src/object.c ****     /* enter critical */
 527:Middlewares/Third_Party/RealThread_RTOS/src/object.c ****     rt_enter_critical();
 1204              		.loc 1 527 5 discriminator 5 view .LVU312
 1205 0022 FFF7FEFF 		bl	rt_enter_critical
 1206              	.LVL120:
 528:Middlewares/Third_Party/RealThread_RTOS/src/object.c **** 
 529:Middlewares/Third_Party/RealThread_RTOS/src/object.c ****     /* try to find object */
 530:Middlewares/Third_Party/RealThread_RTOS/src/object.c ****     rt_list_for_each(node, &(information->object_list))
 1207              		.loc 1 530 5 discriminator 5 view .LVU313
 1208 0026 7468     		ldr	r4, [r6, #4]
 1209              	.LVL121:
 1210              	.L94:
 1211              		.loc 1 530 5 discriminator 1 view .LVU314
 1212 0028 331D     		adds	r3, r6, #4
ARM GAS  C:\Users\Administrator\AppData\Local\Temp\ccrBjxbP.s 			page 34


 1213 002a A342     		cmp	r3, r4
 1214 002c 18D0     		beq	.L101
 531:Middlewares/Third_Party/RealThread_RTOS/src/object.c ****     {
 532:Middlewares/Third_Party/RealThread_RTOS/src/object.c ****         object = rt_list_entry(node, struct rt_object, list);
 1215              		.loc 1 532 9 view .LVU315
 1216              		.loc 1 532 16 is_stmt 0 view .LVU316
 1217 002e A4F10C05 		sub	r5, r4, #12
 1218              	.LVL122:
 533:Middlewares/Third_Party/RealThread_RTOS/src/object.c ****         if (rt_strncmp(object->name, name, RT_NAME_MAX) == 0)
 1219              		.loc 1 533 9 is_stmt 1 view .LVU317
 1220              		.loc 1 533 13 is_stmt 0 view .LVU318
 1221 0032 0822     		movs	r2, #8
 1222 0034 3946     		mov	r1, r7
 1223 0036 2846     		mov	r0, r5
 1224 0038 FFF7FEFF 		bl	rt_strncmp
 1225              	.LVL123:
 1226              		.loc 1 533 12 view .LVU319
 1227 003c 68B1     		cbz	r0, .L102
 530:Middlewares/Third_Party/RealThread_RTOS/src/object.c ****     {
 1228              		.loc 1 530 5 is_stmt 1 discriminator 2 view .LVU320
 1229 003e 2468     		ldr	r4, [r4]
 1230              	.LVL124:
 530:Middlewares/Third_Party/RealThread_RTOS/src/object.c ****     {
 1231              		.loc 1 530 5 is_stmt 0 discriminator 2 view .LVU321
 1232 0040 F2E7     		b	.L94
 1233              	.LVL125:
 1234              	.L100:
 1235              	.LBB25:
 524:Middlewares/Third_Party/RealThread_RTOS/src/object.c **** 
 1236              		.loc 1 524 5 is_stmt 1 discriminator 1 view .LVU322
 1237 0042 0C4D     		ldr	r5, .L103
 1238 0044 2946     		mov	r1, r5
 1239 0046 0C48     		ldr	r0, .L103+4
 1240 0048 FFF7FEFF 		bl	rt_kprintf
 1241              	.LVL126:
 524:Middlewares/Third_Party/RealThread_RTOS/src/object.c **** 
 1242              		.loc 1 524 5 discriminator 1 view .LVU323
 524:Middlewares/Third_Party/RealThread_RTOS/src/object.c **** 
 1243              		.loc 1 524 5 discriminator 1 view .LVU324
 1244 004c 4FF40372 		mov	r2, #524
 1245 0050 2946     		mov	r1, r5
 1246 0052 0A48     		ldr	r0, .L103+8
 1247 0054 FFF7FEFF 		bl	rt_assert_handler
 1248              	.LVL127:
 1249 0058 E0E7     		b	.L93
 1250              	.LVL128:
 1251              	.L102:
 524:Middlewares/Third_Party/RealThread_RTOS/src/object.c **** 
 1252              		.loc 1 524 5 is_stmt 0 discriminator 1 view .LVU325
 1253              	.LBE25:
 534:Middlewares/Third_Party/RealThread_RTOS/src/object.c ****         {
 535:Middlewares/Third_Party/RealThread_RTOS/src/object.c ****             /* leave critical */
 536:Middlewares/Third_Party/RealThread_RTOS/src/object.c ****             rt_exit_critical();
 1254              		.loc 1 536 13 is_stmt 1 view .LVU326
 1255 005a FFF7FEFF 		bl	rt_exit_critical
 1256              	.LVL129:
 537:Middlewares/Third_Party/RealThread_RTOS/src/object.c **** 
ARM GAS  C:\Users\Administrator\AppData\Local\Temp\ccrBjxbP.s 			page 35


 538:Middlewares/Third_Party/RealThread_RTOS/src/object.c ****             return object;
 1257              		.loc 1 538 13 view .LVU327
 1258              		.loc 1 538 20 is_stmt 0 view .LVU328
 1259 005e 02E0     		b	.L91
 1260              	.LVL130:
 1261              	.L101:
 539:Middlewares/Third_Party/RealThread_RTOS/src/object.c ****         }
 540:Middlewares/Third_Party/RealThread_RTOS/src/object.c ****     }
 541:Middlewares/Third_Party/RealThread_RTOS/src/object.c **** 
 542:Middlewares/Third_Party/RealThread_RTOS/src/object.c ****     /* leave critical */
 543:Middlewares/Third_Party/RealThread_RTOS/src/object.c ****     rt_exit_critical();
 1262              		.loc 1 543 5 is_stmt 1 view .LVU329
 1263 0060 FFF7FEFF 		bl	rt_exit_critical
 1264              	.LVL131:
 544:Middlewares/Third_Party/RealThread_RTOS/src/object.c **** 
 545:Middlewares/Third_Party/RealThread_RTOS/src/object.c ****     return RT_NULL;
 1265              		.loc 1 545 5 view .LVU330
 1266              		.loc 1 545 12 is_stmt 0 view .LVU331
 1267 0064 0025     		movs	r5, #0
 1268              	.LVL132:
 1269              	.L91:
 546:Middlewares/Third_Party/RealThread_RTOS/src/object.c **** }
 1270              		.loc 1 546 1 view .LVU332
 1271 0066 2846     		mov	r0, r5
 1272 0068 F8BD     		pop	{r3, r4, r5, r6, r7, pc}
 1273              	.LVL133:
 1274              	.L97:
 521:Middlewares/Third_Party/RealThread_RTOS/src/object.c **** 
 1275              		.loc 1 521 63 view .LVU333
 1276 006a 3D46     		mov	r5, r7
 1277 006c FBE7     		b	.L91
 1278              	.L98:
 521:Middlewares/Third_Party/RealThread_RTOS/src/object.c **** 
 1279              		.loc 1 521 63 view .LVU334
 1280 006e 0546     		mov	r5, r0
 1281 0070 F9E7     		b	.L91
 1282              	.L104:
 1283 0072 00BF     		.align	2
 1284              	.L103:
 1285 0074 00000000 		.word	.LANCHOR12
 1286 0078 00000000 		.word	.LC3
 1287 007c 28000000 		.word	.LC4
 1288              		.cfi_endproc
 1289              	.LFE30:
 1291              		.global	rt_object_put_hook
 1292              		.global	rt_object_take_hook
 1293              		.global	rt_object_trytake_hook
 1294              		.section	.bss.rt_object_attach_hook,"aw",%nobits
 1295              		.align	2
 1296              		.set	.LANCHOR0,. + 0
 1299              	rt_object_attach_hook:
 1300 0000 00000000 		.space	4
 1301              		.section	.bss.rt_object_detach_hook,"aw",%nobits
 1302              		.align	2
 1303              		.set	.LANCHOR1,. + 0
 1306              	rt_object_detach_hook:
 1307 0000 00000000 		.space	4
ARM GAS  C:\Users\Administrator\AppData\Local\Temp\ccrBjxbP.s 			page 36


 1308              		.section	.bss.rt_object_put_hook,"aw",%nobits
 1309              		.align	2
 1310              		.set	.LANCHOR4,. + 0
 1313              	rt_object_put_hook:
 1314 0000 00000000 		.space	4
 1315              		.section	.bss.rt_object_take_hook,"aw",%nobits
 1316              		.align	2
 1317              		.set	.LANCHOR3,. + 0
 1320              	rt_object_take_hook:
 1321 0000 00000000 		.space	4
 1322              		.section	.bss.rt_object_trytake_hook,"aw",%nobits
 1323              		.align	2
 1324              		.set	.LANCHOR2,. + 0
 1327              	rt_object_trytake_hook:
 1328 0000 00000000 		.space	4
 1329              		.section	.data.rt_object_container,"aw"
 1330              		.align	2
 1331              		.set	.LANCHOR5,. + 0
 1334              	rt_object_container:
 1335 0000 01       		.byte	1
 1336 0001 000000   		.space	3
 1337 0004 04000000 		.word	rt_object_container+4
 1338 0008 04000000 		.word	rt_object_container+4
 1339 000c 80000000 		.word	128
 1340 0010 02       		.byte	2
 1341 0011 000000   		.space	3
 1342 0014 14000000 		.word	rt_object_container+20
 1343 0018 14000000 		.word	rt_object_container+20
 1344 001c 20000000 		.word	32
 1345 0020 03       		.byte	3
 1346 0021 000000   		.space	3
 1347 0024 24000000 		.word	rt_object_container+36
 1348 0028 24000000 		.word	rt_object_container+36
 1349 002c 24000000 		.word	36
 1350 0030 04       		.byte	4
 1351 0031 000000   		.space	3
 1352 0034 34000000 		.word	rt_object_container+52
 1353 0038 34000000 		.word	rt_object_container+52
 1354 003c 20000000 		.word	32
 1355 0040 05       		.byte	5
 1356 0041 000000   		.space	3
 1357 0044 44000000 		.word	rt_object_container+68
 1358 0048 44000000 		.word	rt_object_container+68
 1359 004c 30000000 		.word	48
 1360 0050 06       		.byte	6
 1361 0051 000000   		.space	3
 1362 0054 54000000 		.word	rt_object_container+84
 1363 0058 54000000 		.word	rt_object_container+84
 1364 005c 3C000000 		.word	60
 1365 0060 09       		.byte	9
 1366 0061 000000   		.space	3
 1367 0064 64000000 		.word	rt_object_container+100
 1368 0068 64000000 		.word	rt_object_container+100
 1369 006c 40000000 		.word	64
 1370 0070 0A       		.byte	10
 1371 0071 000000   		.space	3
 1372 0074 74000000 		.word	rt_object_container+116
ARM GAS  C:\Users\Administrator\AppData\Local\Temp\ccrBjxbP.s 			page 37


 1373 0078 74000000 		.word	rt_object_container+116
 1374 007c 2C000000 		.word	44
 1375              		.section	.rodata.__FUNCTION__.0,"a"
 1376              		.align	2
 1377              		.set	.LANCHOR12,. + 0
 1380              	__FUNCTION__.0:
 1381 0000 72745F6F 		.ascii	"rt_object_find\000"
 1381      626A6563 
 1381      745F6669 
 1381      6E6400
 1382              		.section	.rodata.__FUNCTION__.1,"a"
 1383              		.align	2
 1384              		.set	.LANCHOR11,. + 0
 1387              	__FUNCTION__.1:
 1388 0000 72745F6F 		.ascii	"rt_object_get_type\000"
 1388      626A6563 
 1388      745F6765 
 1388      745F7479 
 1388      706500
 1389              		.section	.rodata.__FUNCTION__.2,"a"
 1390              		.align	2
 1391              		.set	.LANCHOR10,. + 0
 1394              	__FUNCTION__.2:
 1395 0000 72745F6F 		.ascii	"rt_object_is_systemobject\000"
 1395      626A6563 
 1395      745F6973 
 1395      5F737973 
 1395      74656D6F 
 1396              		.section	.rodata.__FUNCTION__.3,"a"
 1397              		.align	2
 1398              		.set	.LANCHOR9,. + 0
 1401              	__FUNCTION__.3:
 1402 0000 72745F6F 		.ascii	"rt_object_delete\000"
 1402      626A6563 
 1402      745F6465 
 1402      6C657465 
 1402      00
 1403              		.section	.rodata.__FUNCTION__.4,"a"
 1404              		.align	2
 1405              		.set	.LANCHOR8,. + 0
 1408              	__FUNCTION__.4:
 1409 0000 72745F6F 		.ascii	"rt_object_allocate\000"
 1409      626A6563 
 1409      745F616C 
 1409      6C6F6361 
 1409      746500
 1410              		.section	.rodata.__FUNCTION__.5,"a"
 1411              		.align	2
 1412              		.set	.LANCHOR7,. + 0
 1415              	__FUNCTION__.5:
 1416 0000 72745F6F 		.ascii	"rt_object_detach\000"
 1416      626A6563 
 1416      745F6465 
 1416      74616368 
 1416      00
 1417              		.section	.rodata.__FUNCTION__.6,"a"
 1418              		.align	2
ARM GAS  C:\Users\Administrator\AppData\Local\Temp\ccrBjxbP.s 			page 38


 1419              		.set	.LANCHOR6,. + 0
 1422              	__FUNCTION__.6:
 1423 0000 72745F6F 		.ascii	"rt_object_init\000"
 1423      626A6563 
 1423      745F696E 
 1423      697400
 1424              		.text
 1425              	.Letext0:
 1426              		.file 3 "Middlewares/Third_Party/RealThread_RTOS/include/rtdef.h"
 1427              		.file 4 "Middlewares/Third_Party/RealThread_RTOS/include/rthw.h"
 1428              		.file 5 "Middlewares/Third_Party/RealThread_RTOS/include/rtthread.h"
ARM GAS  C:\Users\Administrator\AppData\Local\Temp\ccrBjxbP.s 			page 39


DEFINED SYMBOLS
                            *ABS*:00000000 object.c
C:\Users\Administrator\AppData\Local\Temp\ccrBjxbP.s:16     .text.rt_object_attach_sethook:00000000 $t
C:\Users\Administrator\AppData\Local\Temp\ccrBjxbP.s:24     .text.rt_object_attach_sethook:00000000 rt_object_attach_sethook
C:\Users\Administrator\AppData\Local\Temp\ccrBjxbP.s:42     .text.rt_object_attach_sethook:00000008 $d
C:\Users\Administrator\AppData\Local\Temp\ccrBjxbP.s:47     .text.rt_object_detach_sethook:00000000 $t
C:\Users\Administrator\AppData\Local\Temp\ccrBjxbP.s:54     .text.rt_object_detach_sethook:00000000 rt_object_detach_sethook
C:\Users\Administrator\AppData\Local\Temp\ccrBjxbP.s:71     .text.rt_object_detach_sethook:00000008 $d
C:\Users\Administrator\AppData\Local\Temp\ccrBjxbP.s:76     .text.rt_object_trytake_sethook:00000000 $t
C:\Users\Administrator\AppData\Local\Temp\ccrBjxbP.s:83     .text.rt_object_trytake_sethook:00000000 rt_object_trytake_sethook
C:\Users\Administrator\AppData\Local\Temp\ccrBjxbP.s:100    .text.rt_object_trytake_sethook:00000008 $d
C:\Users\Administrator\AppData\Local\Temp\ccrBjxbP.s:105    .text.rt_object_take_sethook:00000000 $t
C:\Users\Administrator\AppData\Local\Temp\ccrBjxbP.s:112    .text.rt_object_take_sethook:00000000 rt_object_take_sethook
C:\Users\Administrator\AppData\Local\Temp\ccrBjxbP.s:129    .text.rt_object_take_sethook:00000008 $d
C:\Users\Administrator\AppData\Local\Temp\ccrBjxbP.s:134    .text.rt_object_put_sethook:00000000 $t
C:\Users\Administrator\AppData\Local\Temp\ccrBjxbP.s:141    .text.rt_object_put_sethook:00000000 rt_object_put_sethook
C:\Users\Administrator\AppData\Local\Temp\ccrBjxbP.s:158    .text.rt_object_put_sethook:00000008 $d
C:\Users\Administrator\AppData\Local\Temp\ccrBjxbP.s:163    .text.rt_system_object_init:00000000 $t
C:\Users\Administrator\AppData\Local\Temp\ccrBjxbP.s:170    .text.rt_system_object_init:00000000 rt_system_object_init
C:\Users\Administrator\AppData\Local\Temp\ccrBjxbP.s:183    .text.rt_object_get_information:00000000 $t
C:\Users\Administrator\AppData\Local\Temp\ccrBjxbP.s:190    .text.rt_object_get_information:00000000 rt_object_get_information
C:\Users\Administrator\AppData\Local\Temp\ccrBjxbP.s:239    .text.rt_object_get_information:00000020 $d
C:\Users\Administrator\AppData\Local\Temp\ccrBjxbP.s:244    .text.rt_object_get_length:00000000 $t
C:\Users\Administrator\AppData\Local\Temp\ccrBjxbP.s:251    .text.rt_object_get_length:00000000 rt_object_get_length
C:\Users\Administrator\AppData\Local\Temp\ccrBjxbP.s:321    .text.rt_object_get_pointers:00000000 $t
C:\Users\Administrator\AppData\Local\Temp\ccrBjxbP.s:328    .text.rt_object_get_pointers:00000000 rt_object_get_pointers
C:\Users\Administrator\AppData\Local\Temp\ccrBjxbP.s:423    .rodata.rt_object_init.str1.4:00000000 $d
C:\Users\Administrator\AppData\Local\Temp\ccrBjxbP.s:430    .text.rt_object_init:00000000 $t
C:\Users\Administrator\AppData\Local\Temp\ccrBjxbP.s:437    .text.rt_object_init:00000000 rt_object_init
C:\Users\Administrator\AppData\Local\Temp\ccrBjxbP.s:603    .text.rt_object_init:00000088 $d
C:\Users\Administrator\AppData\Local\Temp\ccrBjxbP.s:611    .rodata.rt_object_detach.str1.4:00000000 $d
C:\Users\Administrator\AppData\Local\Temp\ccrBjxbP.s:615    .text.rt_object_detach:00000000 $t
C:\Users\Administrator\AppData\Local\Temp\ccrBjxbP.s:622    .text.rt_object_detach:00000000 rt_object_detach
C:\Users\Administrator\AppData\Local\Temp\ccrBjxbP.s:708    .text.rt_object_detach:00000040 $d
C:\Users\Administrator\AppData\Local\Temp\ccrBjxbP.s:715    .rodata.rt_object_allocate.str1.4:00000000 $d
C:\Users\Administrator\AppData\Local\Temp\ccrBjxbP.s:722    .text.rt_object_allocate:00000000 $t
C:\Users\Administrator\AppData\Local\Temp\ccrBjxbP.s:729    .text.rt_object_allocate:00000000 rt_object_allocate
C:\Users\Administrator\AppData\Local\Temp\ccrBjxbP.s:896    .text.rt_object_allocate:00000094 $d
C:\Users\Administrator\AppData\Local\Temp\ccrBjxbP.s:905    .rodata.rt_object_delete.str1.4:00000000 $d
C:\Users\Administrator\AppData\Local\Temp\ccrBjxbP.s:909    .text.rt_object_delete:00000000 $t
C:\Users\Administrator\AppData\Local\Temp\ccrBjxbP.s:916    .text.rt_object_delete:00000000 rt_object_delete
C:\Users\Administrator\AppData\Local\Temp\ccrBjxbP.s:1020   .text.rt_object_delete:0000005c $d
C:\Users\Administrator\AppData\Local\Temp\ccrBjxbP.s:1028   .text.rt_object_is_systemobject:00000000 $t
C:\Users\Administrator\AppData\Local\Temp\ccrBjxbP.s:1035   .text.rt_object_is_systemobject:00000000 rt_object_is_systemobject
C:\Users\Administrator\AppData\Local\Temp\ccrBjxbP.s:1083   .text.rt_object_is_systemobject:00000024 $d
C:\Users\Administrator\AppData\Local\Temp\ccrBjxbP.s:1089   .text.rt_object_get_type:00000000 $t
C:\Users\Administrator\AppData\Local\Temp\ccrBjxbP.s:1096   .text.rt_object_get_type:00000000 rt_object_get_type
C:\Users\Administrator\AppData\Local\Temp\ccrBjxbP.s:1135   .text.rt_object_get_type:0000001c $d
C:\Users\Administrator\AppData\Local\Temp\ccrBjxbP.s:1141   .text.rt_object_find:00000000 $t
C:\Users\Administrator\AppData\Local\Temp\ccrBjxbP.s:1148   .text.rt_object_find:00000000 rt_object_find
C:\Users\Administrator\AppData\Local\Temp\ccrBjxbP.s:1285   .text.rt_object_find:00000074 $d
C:\Users\Administrator\AppData\Local\Temp\ccrBjxbP.s:1313   .bss.rt_object_put_hook:00000000 rt_object_put_hook
C:\Users\Administrator\AppData\Local\Temp\ccrBjxbP.s:1320   .bss.rt_object_take_hook:00000000 rt_object_take_hook
C:\Users\Administrator\AppData\Local\Temp\ccrBjxbP.s:1327   .bss.rt_object_trytake_hook:00000000 rt_object_trytake_hook
C:\Users\Administrator\AppData\Local\Temp\ccrBjxbP.s:1295   .bss.rt_object_attach_hook:00000000 $d
C:\Users\Administrator\AppData\Local\Temp\ccrBjxbP.s:1299   .bss.rt_object_attach_hook:00000000 rt_object_attach_hook
C:\Users\Administrator\AppData\Local\Temp\ccrBjxbP.s:1302   .bss.rt_object_detach_hook:00000000 $d
ARM GAS  C:\Users\Administrator\AppData\Local\Temp\ccrBjxbP.s 			page 40


C:\Users\Administrator\AppData\Local\Temp\ccrBjxbP.s:1306   .bss.rt_object_detach_hook:00000000 rt_object_detach_hook
C:\Users\Administrator\AppData\Local\Temp\ccrBjxbP.s:1309   .bss.rt_object_put_hook:00000000 $d
C:\Users\Administrator\AppData\Local\Temp\ccrBjxbP.s:1316   .bss.rt_object_take_hook:00000000 $d
C:\Users\Administrator\AppData\Local\Temp\ccrBjxbP.s:1323   .bss.rt_object_trytake_hook:00000000 $d
C:\Users\Administrator\AppData\Local\Temp\ccrBjxbP.s:1330   .data.rt_object_container:00000000 $d
C:\Users\Administrator\AppData\Local\Temp\ccrBjxbP.s:1334   .data.rt_object_container:00000000 rt_object_container
C:\Users\Administrator\AppData\Local\Temp\ccrBjxbP.s:1376   .rodata.__FUNCTION__.0:00000000 $d
C:\Users\Administrator\AppData\Local\Temp\ccrBjxbP.s:1380   .rodata.__FUNCTION__.0:00000000 __FUNCTION__.0
C:\Users\Administrator\AppData\Local\Temp\ccrBjxbP.s:1383   .rodata.__FUNCTION__.1:00000000 $d
C:\Users\Administrator\AppData\Local\Temp\ccrBjxbP.s:1387   .rodata.__FUNCTION__.1:00000000 __FUNCTION__.1
C:\Users\Administrator\AppData\Local\Temp\ccrBjxbP.s:1390   .rodata.__FUNCTION__.2:00000000 $d
C:\Users\Administrator\AppData\Local\Temp\ccrBjxbP.s:1394   .rodata.__FUNCTION__.2:00000000 __FUNCTION__.2
C:\Users\Administrator\AppData\Local\Temp\ccrBjxbP.s:1397   .rodata.__FUNCTION__.3:00000000 $d
C:\Users\Administrator\AppData\Local\Temp\ccrBjxbP.s:1401   .rodata.__FUNCTION__.3:00000000 __FUNCTION__.3
C:\Users\Administrator\AppData\Local\Temp\ccrBjxbP.s:1404   .rodata.__FUNCTION__.4:00000000 $d
C:\Users\Administrator\AppData\Local\Temp\ccrBjxbP.s:1408   .rodata.__FUNCTION__.4:00000000 __FUNCTION__.4
C:\Users\Administrator\AppData\Local\Temp\ccrBjxbP.s:1411   .rodata.__FUNCTION__.5:00000000 $d
C:\Users\Administrator\AppData\Local\Temp\ccrBjxbP.s:1415   .rodata.__FUNCTION__.5:00000000 __FUNCTION__.5
C:\Users\Administrator\AppData\Local\Temp\ccrBjxbP.s:1418   .rodata.__FUNCTION__.6:00000000 $d
C:\Users\Administrator\AppData\Local\Temp\ccrBjxbP.s:1422   .rodata.__FUNCTION__.6:00000000 __FUNCTION__.6

UNDEFINED SYMBOLS
rt_hw_interrupt_disable
rt_hw_interrupt_enable
rt_enter_critical
rt_assert_handler
rt_exit_critical
rt_strncpy
rt_interrupt_get_nest
rt_malloc
rt_memset
rt_kprintf
rt_free
rt_strncmp
