ARM GAS  C:\Users\Administrator\AppData\Local\Temp\cc5PlrjZ.s 			page 1


   1              		.cpu cortex-m4
   2              		.eabi_attribute 20, 1
   3              		.eabi_attribute 21, 1
   4              		.eabi_attribute 23, 3
   5              		.eabi_attribute 24, 1
   6              		.eabi_attribute 25, 1
   7              		.eabi_attribute 26, 1
   8              		.eabi_attribute 30, 1
   9              		.eabi_attribute 34, 1
  10              		.eabi_attribute 18, 4
  11              		.file	"scheduler.c"
  12              		.text
  13              	.Ltext0:
  14              		.cfi_sections	.debug_frame
  15              		.section	.rodata._rt_scheduler_stack_check.str1.4,"aMS",%progbits,1
  16              		.align	2
  17              	.LC0:
  18 0000 74687265 		.ascii	"thread != RT_NULL\000"
  18      61642021 
  18      3D205254 
  18      5F4E554C 
  18      4C00
  19 0012 0000     		.align	2
  20              	.LC1:
  21 0014 74687265 		.ascii	"thread:%s stack overflow\012\000"
  21      61643A25 
  21      73207374 
  21      61636B20 
  21      6F766572 
  22 002e 0000     		.align	2
  23              	.LC2:
  24 0030 7761726E 		.ascii	"warning: %s stack is close to end of stack address."
  24      696E673A 
  24      20257320 
  24      73746163 
  24      6B206973 
  25 0063 0A00     		.ascii	"\012\000"
  26              		.section	.text._rt_scheduler_stack_check,"ax",%progbits
  27              		.align	1
  28              		.arch armv7e-m
  29              		.syntax unified
  30              		.thumb
  31              		.thumb_func
  32              		.fpu softvfp
  34              	_rt_scheduler_stack_check:
  35              	.LVL0:
  36              	.LFB16:
  37              		.file 1 "Middlewares/Third_Party/RealThread_RTOS/src/scheduler.c"
   1:Middlewares/Third_Party/RealThread_RTOS/src/scheduler.c **** /*
   2:Middlewares/Third_Party/RealThread_RTOS/src/scheduler.c ****  * Copyright (c) 2006-2021, RT-Thread Development Team
   3:Middlewares/Third_Party/RealThread_RTOS/src/scheduler.c ****  *
   4:Middlewares/Third_Party/RealThread_RTOS/src/scheduler.c ****  * SPDX-License-Identifier: Apache-2.0
   5:Middlewares/Third_Party/RealThread_RTOS/src/scheduler.c ****  *
   6:Middlewares/Third_Party/RealThread_RTOS/src/scheduler.c ****  * Change Logs:
   7:Middlewares/Third_Party/RealThread_RTOS/src/scheduler.c ****  * Date           Author       Notes
   8:Middlewares/Third_Party/RealThread_RTOS/src/scheduler.c ****  * 2006-03-17     Bernard      the first version
   9:Middlewares/Third_Party/RealThread_RTOS/src/scheduler.c ****  * 2006-04-28     Bernard      fix the scheduler algorthm
ARM GAS  C:\Users\Administrator\AppData\Local\Temp\cc5PlrjZ.s 			page 2


  10:Middlewares/Third_Party/RealThread_RTOS/src/scheduler.c ****  * 2006-04-30     Bernard      add SCHEDULER_DEBUG
  11:Middlewares/Third_Party/RealThread_RTOS/src/scheduler.c ****  * 2006-05-27     Bernard      fix the scheduler algorthm for same priority
  12:Middlewares/Third_Party/RealThread_RTOS/src/scheduler.c ****  *                             thread schedule
  13:Middlewares/Third_Party/RealThread_RTOS/src/scheduler.c ****  * 2006-06-04     Bernard      rewrite the scheduler algorithm
  14:Middlewares/Third_Party/RealThread_RTOS/src/scheduler.c ****  * 2006-08-03     Bernard      add hook support
  15:Middlewares/Third_Party/RealThread_RTOS/src/scheduler.c ****  * 2006-09-05     Bernard      add 32 priority level support
  16:Middlewares/Third_Party/RealThread_RTOS/src/scheduler.c ****  * 2006-09-24     Bernard      add rt_system_scheduler_start function
  17:Middlewares/Third_Party/RealThread_RTOS/src/scheduler.c ****  * 2009-09-16     Bernard      fix _rt_scheduler_stack_check
  18:Middlewares/Third_Party/RealThread_RTOS/src/scheduler.c ****  * 2010-04-11     yi.qiu       add module feature
  19:Middlewares/Third_Party/RealThread_RTOS/src/scheduler.c ****  * 2010-07-13     Bernard      fix the maximal number of rt_scheduler_lock_nest
  20:Middlewares/Third_Party/RealThread_RTOS/src/scheduler.c ****  *                             issue found by kuronca
  21:Middlewares/Third_Party/RealThread_RTOS/src/scheduler.c ****  * 2010-12-13     Bernard      add defunct list initialization even if not use heap.
  22:Middlewares/Third_Party/RealThread_RTOS/src/scheduler.c ****  * 2011-05-10     Bernard      clean scheduler debug log.
  23:Middlewares/Third_Party/RealThread_RTOS/src/scheduler.c ****  * 2013-12-21     Grissiom     add rt_critical_level
  24:Middlewares/Third_Party/RealThread_RTOS/src/scheduler.c ****  * 2018-11-22     Jesven       remove the current task from ready queue
  25:Middlewares/Third_Party/RealThread_RTOS/src/scheduler.c ****  *                             add per cpu ready queue
  26:Middlewares/Third_Party/RealThread_RTOS/src/scheduler.c ****  *                             add _get_highest_priority_thread to find highest priority task
  27:Middlewares/Third_Party/RealThread_RTOS/src/scheduler.c ****  *                             rt_schedule_insert_thread won't insert current task to ready queue
  28:Middlewares/Third_Party/RealThread_RTOS/src/scheduler.c ****  *                             in smp version, rt_hw_context_switch_interrupt maybe switch to
  29:Middlewares/Third_Party/RealThread_RTOS/src/scheduler.c ****  *                               new task directly
  30:Middlewares/Third_Party/RealThread_RTOS/src/scheduler.c ****  *
  31:Middlewares/Third_Party/RealThread_RTOS/src/scheduler.c ****  */
  32:Middlewares/Third_Party/RealThread_RTOS/src/scheduler.c **** 
  33:Middlewares/Third_Party/RealThread_RTOS/src/scheduler.c **** #include <rtthread.h>
  34:Middlewares/Third_Party/RealThread_RTOS/src/scheduler.c **** #include <rthw.h>
  35:Middlewares/Third_Party/RealThread_RTOS/src/scheduler.c **** 
  36:Middlewares/Third_Party/RealThread_RTOS/src/scheduler.c **** rt_list_t rt_thread_priority_table[RT_THREAD_PRIORITY_MAX];
  37:Middlewares/Third_Party/RealThread_RTOS/src/scheduler.c **** rt_uint32_t rt_thread_ready_priority_group;
  38:Middlewares/Third_Party/RealThread_RTOS/src/scheduler.c **** 
  39:Middlewares/Third_Party/RealThread_RTOS/src/scheduler.c **** #if RT_THREAD_PRIORITY_MAX > 32
  40:Middlewares/Third_Party/RealThread_RTOS/src/scheduler.c **** /* Maximum priority level, 256 */
  41:Middlewares/Third_Party/RealThread_RTOS/src/scheduler.c **** rt_uint8_t rt_thread_ready_table[32];
  42:Middlewares/Third_Party/RealThread_RTOS/src/scheduler.c **** #endif
  43:Middlewares/Third_Party/RealThread_RTOS/src/scheduler.c **** 
  44:Middlewares/Third_Party/RealThread_RTOS/src/scheduler.c **** 
  45:Middlewares/Third_Party/RealThread_RTOS/src/scheduler.c **** extern volatile rt_uint8_t rt_interrupt_nest;
  46:Middlewares/Third_Party/RealThread_RTOS/src/scheduler.c **** static rt_int16_t rt_scheduler_lock_nest;
  47:Middlewares/Third_Party/RealThread_RTOS/src/scheduler.c **** struct rt_thread *rt_current_thread = RT_NULL;
  48:Middlewares/Third_Party/RealThread_RTOS/src/scheduler.c **** rt_uint8_t rt_current_priority;
  49:Middlewares/Third_Party/RealThread_RTOS/src/scheduler.c **** 
  50:Middlewares/Third_Party/RealThread_RTOS/src/scheduler.c **** 
  51:Middlewares/Third_Party/RealThread_RTOS/src/scheduler.c **** rt_list_t rt_thread_defunct;
  52:Middlewares/Third_Party/RealThread_RTOS/src/scheduler.c **** 
  53:Middlewares/Third_Party/RealThread_RTOS/src/scheduler.c **** #ifdef RT_USING_HOOK
  54:Middlewares/Third_Party/RealThread_RTOS/src/scheduler.c **** static void (*rt_scheduler_hook)(struct rt_thread *from, struct rt_thread *to);
  55:Middlewares/Third_Party/RealThread_RTOS/src/scheduler.c **** 
  56:Middlewares/Third_Party/RealThread_RTOS/src/scheduler.c **** /**
  57:Middlewares/Third_Party/RealThread_RTOS/src/scheduler.c ****  * @addtogroup Hook
  58:Middlewares/Third_Party/RealThread_RTOS/src/scheduler.c ****  */
  59:Middlewares/Third_Party/RealThread_RTOS/src/scheduler.c **** 
  60:Middlewares/Third_Party/RealThread_RTOS/src/scheduler.c **** /**@{*/
  61:Middlewares/Third_Party/RealThread_RTOS/src/scheduler.c **** 
  62:Middlewares/Third_Party/RealThread_RTOS/src/scheduler.c **** /**
  63:Middlewares/Third_Party/RealThread_RTOS/src/scheduler.c ****  * This function will set a hook function, which will be invoked when thread
  64:Middlewares/Third_Party/RealThread_RTOS/src/scheduler.c ****  * switch happens.
  65:Middlewares/Third_Party/RealThread_RTOS/src/scheduler.c ****  *
  66:Middlewares/Third_Party/RealThread_RTOS/src/scheduler.c ****  * @param hook the hook function
ARM GAS  C:\Users\Administrator\AppData\Local\Temp\cc5PlrjZ.s 			page 3


  67:Middlewares/Third_Party/RealThread_RTOS/src/scheduler.c ****  */
  68:Middlewares/Third_Party/RealThread_RTOS/src/scheduler.c **** void
  69:Middlewares/Third_Party/RealThread_RTOS/src/scheduler.c **** rt_scheduler_sethook(void (*hook)(struct rt_thread *from, struct rt_thread *to))
  70:Middlewares/Third_Party/RealThread_RTOS/src/scheduler.c **** {
  71:Middlewares/Third_Party/RealThread_RTOS/src/scheduler.c ****     rt_scheduler_hook = hook;
  72:Middlewares/Third_Party/RealThread_RTOS/src/scheduler.c **** }
  73:Middlewares/Third_Party/RealThread_RTOS/src/scheduler.c **** 
  74:Middlewares/Third_Party/RealThread_RTOS/src/scheduler.c **** /**@}*/
  75:Middlewares/Third_Party/RealThread_RTOS/src/scheduler.c **** #endif
  76:Middlewares/Third_Party/RealThread_RTOS/src/scheduler.c **** 
  77:Middlewares/Third_Party/RealThread_RTOS/src/scheduler.c **** #ifdef RT_USING_OVERFLOW_CHECK
  78:Middlewares/Third_Party/RealThread_RTOS/src/scheduler.c **** static void _rt_scheduler_stack_check(struct rt_thread *thread)
  79:Middlewares/Third_Party/RealThread_RTOS/src/scheduler.c **** {
  38              		.loc 1 79 1 view -0
  39              		.cfi_startproc
  40              		@ args = 0, pretend = 0, frame = 0
  41              		@ frame_needed = 0, uses_anonymous_args = 0
  42              		.loc 1 79 1 is_stmt 0 view .LVU1
  43 0000 10B5     		push	{r4, lr}
  44              	.LCFI0:
  45              		.cfi_def_cfa_offset 8
  46              		.cfi_offset 4, -8
  47              		.cfi_offset 14, -4
  80:Middlewares/Third_Party/RealThread_RTOS/src/scheduler.c ****     RT_ASSERT(thread != RT_NULL);
  48              		.loc 1 80 5 is_stmt 1 view .LVU2
  49 0002 0446     		mov	r4, r0
  50 0004 A8B1     		cbz	r0, .L8
  51              	.LVL1:
  52              	.L2:
  53              		.loc 1 80 33 discriminator 3 view .LVU3
  81:Middlewares/Third_Party/RealThread_RTOS/src/scheduler.c **** 
  82:Middlewares/Third_Party/RealThread_RTOS/src/scheduler.c **** #if defined(ARCH_CPU_STACK_GROWS_UPWARD)
  83:Middlewares/Third_Party/RealThread_RTOS/src/scheduler.c ****     if (*((rt_uint8_t *)((rt_ubase_t)thread->stack_addr + thread->stack_size - 1)) != '#' ||
  84:Middlewares/Third_Party/RealThread_RTOS/src/scheduler.c **** #else
  85:Middlewares/Third_Party/RealThread_RTOS/src/scheduler.c ****     if (*((rt_uint8_t *)thread->stack_addr) != '#' ||
  54              		.loc 1 85 5 discriminator 3 view .LVU4
  55              		.loc 1 85 31 is_stmt 0 discriminator 3 view .LVU5
  56 0006 A36A     		ldr	r3, [r4, #40]
  57              		.loc 1 85 9 discriminator 3 view .LVU6
  58 0008 1A78     		ldrb	r2, [r3]	@ zero_extendqisi2
  59              		.loc 1 85 8 discriminator 3 view .LVU7
  60 000a 232A     		cmp	r2, #35
  61 000c 06D1     		bne	.L3
  86:Middlewares/Third_Party/RealThread_RTOS/src/scheduler.c **** #endif
  87:Middlewares/Third_Party/RealThread_RTOS/src/scheduler.c ****         (rt_ubase_t)thread->sp <= (rt_ubase_t)thread->stack_addr ||
  62              		.loc 1 87 27 discriminator 1 view .LVU8
  63 000e E269     		ldr	r2, [r4, #28]
  85:Middlewares/Third_Party/RealThread_RTOS/src/scheduler.c **** #endif
  64              		.loc 1 85 52 discriminator 1 view .LVU9
  65 0010 9A42     		cmp	r2, r3
  66 0012 03D9     		bls	.L3
  88:Middlewares/Third_Party/RealThread_RTOS/src/scheduler.c ****         (rt_ubase_t)thread->sp >
  89:Middlewares/Third_Party/RealThread_RTOS/src/scheduler.c ****         (rt_ubase_t)thread->stack_addr + (rt_ubase_t)thread->stack_size)
  67              		.loc 1 89 60 view .LVU10
  68 0014 E16A     		ldr	r1, [r4, #44]
  69              		.loc 1 89 40 view .LVU11
  70 0016 1944     		add	r1, r1, r3
ARM GAS  C:\Users\Administrator\AppData\Local\Temp\cc5PlrjZ.s 			page 4


  87:Middlewares/Third_Party/RealThread_RTOS/src/scheduler.c ****         (rt_ubase_t)thread->sp >
  71              		.loc 1 87 66 view .LVU12
  72 0018 8A42     		cmp	r2, r1
  73 001a 10D9     		bls	.L4
  74              	.L3:
  75              	.LBB12:
  90:Middlewares/Third_Party/RealThread_RTOS/src/scheduler.c ****     {
  91:Middlewares/Third_Party/RealThread_RTOS/src/scheduler.c ****         rt_ubase_t level;
  76              		.loc 1 91 9 is_stmt 1 view .LVU13
  92:Middlewares/Third_Party/RealThread_RTOS/src/scheduler.c **** 
  93:Middlewares/Third_Party/RealThread_RTOS/src/scheduler.c ****         rt_kprintf("thread:%s stack overflow\n", thread->name);
  77              		.loc 1 93 9 view .LVU14
  78 001c 2146     		mov	r1, r4
  79 001e 0C48     		ldr	r0, .L9
  80 0020 FFF7FEFF 		bl	rt_kprintf
  81              	.LVL2:
  82              	.LBB13:
  94:Middlewares/Third_Party/RealThread_RTOS/src/scheduler.c **** #ifdef RT_USING_FINSH
  95:Middlewares/Third_Party/RealThread_RTOS/src/scheduler.c ****         {
  96:Middlewares/Third_Party/RealThread_RTOS/src/scheduler.c ****             extern long list_thread(void);
  83              		.loc 1 96 13 view .LVU15
  97:Middlewares/Third_Party/RealThread_RTOS/src/scheduler.c ****             list_thread();
  84              		.loc 1 97 13 view .LVU16
  85 0024 FFF7FEFF 		bl	list_thread
  86              	.LVL3:
  87              	.LBE13:
  98:Middlewares/Third_Party/RealThread_RTOS/src/scheduler.c ****         }
  99:Middlewares/Third_Party/RealThread_RTOS/src/scheduler.c **** #endif
 100:Middlewares/Third_Party/RealThread_RTOS/src/scheduler.c ****         level = rt_hw_interrupt_disable();
  88              		.loc 1 100 9 view .LVU17
  89              		.loc 1 100 17 is_stmt 0 view .LVU18
  90 0028 FFF7FEFF 		bl	rt_hw_interrupt_disable
  91              	.LVL4:
 101:Middlewares/Third_Party/RealThread_RTOS/src/scheduler.c ****         while (level);
  92              		.loc 1 101 9 is_stmt 1 view .LVU19
  93              	.L5:
  94              		.loc 1 101 22 discriminator 1 view .LVU20
  95              		.loc 1 101 15 discriminator 1 view .LVU21
  96 002c 0028     		cmp	r0, #0
  97 002e FDD1     		bne	.L5
  98              	.LVL5:
  99              	.L1:
 100              		.loc 1 101 15 is_stmt 0 discriminator 1 view .LVU22
 101              	.LBE12:
 102:Middlewares/Third_Party/RealThread_RTOS/src/scheduler.c ****     }
 103:Middlewares/Third_Party/RealThread_RTOS/src/scheduler.c **** #if defined(ARCH_CPU_STACK_GROWS_UPWARD)
 104:Middlewares/Third_Party/RealThread_RTOS/src/scheduler.c ****     else if ((rt_ubase_t)thread->sp > ((rt_ubase_t)thread->stack_addr + thread->stack_size))
 105:Middlewares/Third_Party/RealThread_RTOS/src/scheduler.c ****     {
 106:Middlewares/Third_Party/RealThread_RTOS/src/scheduler.c ****         rt_kprintf("warning: %s stack is close to the top of stack address.\n",
 107:Middlewares/Third_Party/RealThread_RTOS/src/scheduler.c ****                    thread->name);
 108:Middlewares/Third_Party/RealThread_RTOS/src/scheduler.c ****     }
 109:Middlewares/Third_Party/RealThread_RTOS/src/scheduler.c **** #else
 110:Middlewares/Third_Party/RealThread_RTOS/src/scheduler.c ****     else if ((rt_ubase_t)thread->sp <= ((rt_ubase_t)thread->stack_addr + 32))
 111:Middlewares/Third_Party/RealThread_RTOS/src/scheduler.c ****     {
 112:Middlewares/Third_Party/RealThread_RTOS/src/scheduler.c ****         rt_kprintf("warning: %s stack is close to end of stack address.\n",
 113:Middlewares/Third_Party/RealThread_RTOS/src/scheduler.c ****                    thread->name);
 114:Middlewares/Third_Party/RealThread_RTOS/src/scheduler.c ****     }
ARM GAS  C:\Users\Administrator\AppData\Local\Temp\cc5PlrjZ.s 			page 5


 115:Middlewares/Third_Party/RealThread_RTOS/src/scheduler.c **** #endif
 116:Middlewares/Third_Party/RealThread_RTOS/src/scheduler.c **** }
 102              		.loc 1 116 1 view .LVU23
 103 0030 10BD     		pop	{r4, pc}
 104              	.LVL6:
 105              	.L8:
  80:Middlewares/Third_Party/RealThread_RTOS/src/scheduler.c **** 
 106              		.loc 1 80 5 is_stmt 1 discriminator 1 view .LVU24
 107 0032 5022     		movs	r2, #80
 108 0034 0749     		ldr	r1, .L9+4
 109 0036 0848     		ldr	r0, .L9+8
 110              	.LVL7:
  80:Middlewares/Third_Party/RealThread_RTOS/src/scheduler.c **** 
 111              		.loc 1 80 5 is_stmt 0 discriminator 1 view .LVU25
 112 0038 FFF7FEFF 		bl	rt_assert_handler
 113              	.LVL8:
 114 003c E3E7     		b	.L2
 115              	.L4:
 110:Middlewares/Third_Party/RealThread_RTOS/src/scheduler.c ****     {
 116              		.loc 1 110 10 is_stmt 1 view .LVU26
 110:Middlewares/Third_Party/RealThread_RTOS/src/scheduler.c ****     {
 117              		.loc 1 110 72 is_stmt 0 view .LVU27
 118 003e 2033     		adds	r3, r3, #32
 110:Middlewares/Third_Party/RealThread_RTOS/src/scheduler.c ****     {
 119              		.loc 1 110 13 view .LVU28
 120 0040 9A42     		cmp	r2, r3
 121 0042 F5D8     		bhi	.L1
 112:Middlewares/Third_Party/RealThread_RTOS/src/scheduler.c ****                    thread->name);
 122              		.loc 1 112 9 is_stmt 1 view .LVU29
 123 0044 2146     		mov	r1, r4
 124 0046 0548     		ldr	r0, .L9+12
 125 0048 FFF7FEFF 		bl	rt_kprintf
 126              	.LVL9:
 127              		.loc 1 116 1 is_stmt 0 view .LVU30
 128 004c F0E7     		b	.L1
 129              	.L10:
 130 004e 00BF     		.align	2
 131              	.L9:
 132 0050 14000000 		.word	.LC1
 133 0054 00000000 		.word	.LANCHOR0
 134 0058 00000000 		.word	.LC0
 135 005c 30000000 		.word	.LC2
 136              		.cfi_endproc
 137              	.LFE16:
 139              		.section	.text.rt_scheduler_sethook,"ax",%progbits
 140              		.align	1
 141              		.global	rt_scheduler_sethook
 142              		.syntax unified
 143              		.thumb
 144              		.thumb_func
 145              		.fpu softvfp
 147              	rt_scheduler_sethook:
 148              	.LVL10:
 149              	.LFB15:
  70:Middlewares/Third_Party/RealThread_RTOS/src/scheduler.c ****     rt_scheduler_hook = hook;
 150              		.loc 1 70 1 is_stmt 1 view -0
 151              		.cfi_startproc
ARM GAS  C:\Users\Administrator\AppData\Local\Temp\cc5PlrjZ.s 			page 6


 152              		@ args = 0, pretend = 0, frame = 0
 153              		@ frame_needed = 0, uses_anonymous_args = 0
 154              		@ link register save eliminated.
  71:Middlewares/Third_Party/RealThread_RTOS/src/scheduler.c **** }
 155              		.loc 1 71 5 view .LVU32
  71:Middlewares/Third_Party/RealThread_RTOS/src/scheduler.c **** }
 156              		.loc 1 71 23 is_stmt 0 view .LVU33
 157 0000 014B     		ldr	r3, .L12
 158 0002 1860     		str	r0, [r3]
  72:Middlewares/Third_Party/RealThread_RTOS/src/scheduler.c **** 
 159              		.loc 1 72 1 view .LVU34
 160 0004 7047     		bx	lr
 161              	.L13:
 162 0006 00BF     		.align	2
 163              	.L12:
 164 0008 00000000 		.word	.LANCHOR1
 165              		.cfi_endproc
 166              	.LFE15:
 168              		.section	.text.rt_system_scheduler_init,"ax",%progbits
 169              		.align	1
 170              		.global	rt_system_scheduler_init
 171              		.syntax unified
 172              		.thumb
 173              		.thumb_func
 174              		.fpu softvfp
 176              	rt_system_scheduler_init:
 177              	.LFB17:
 117:Middlewares/Third_Party/RealThread_RTOS/src/scheduler.c **** #endif
 118:Middlewares/Third_Party/RealThread_RTOS/src/scheduler.c **** 
 119:Middlewares/Third_Party/RealThread_RTOS/src/scheduler.c **** /**
 120:Middlewares/Third_Party/RealThread_RTOS/src/scheduler.c ****  * @ingroup SystemInit
 121:Middlewares/Third_Party/RealThread_RTOS/src/scheduler.c ****  * This function will initialize the system scheduler
 122:Middlewares/Third_Party/RealThread_RTOS/src/scheduler.c ****  */
 123:Middlewares/Third_Party/RealThread_RTOS/src/scheduler.c **** void rt_system_scheduler_init(void)
 124:Middlewares/Third_Party/RealThread_RTOS/src/scheduler.c **** {
 178              		.loc 1 124 1 is_stmt 1 view -0
 179              		.cfi_startproc
 180              		@ args = 0, pretend = 0, frame = 0
 181              		@ frame_needed = 0, uses_anonymous_args = 0
 182              		@ link register save eliminated.
 125:Middlewares/Third_Party/RealThread_RTOS/src/scheduler.c ****     register rt_base_t offset;
 183              		.loc 1 125 5 view .LVU36
 126:Middlewares/Third_Party/RealThread_RTOS/src/scheduler.c **** 
 127:Middlewares/Third_Party/RealThread_RTOS/src/scheduler.c ****     rt_scheduler_lock_nest = 0;
 184              		.loc 1 127 5 view .LVU37
 185              		.loc 1 127 28 is_stmt 0 view .LVU38
 186 0000 0023     		movs	r3, #0
 187 0002 0C4A     		ldr	r2, .L17
 188 0004 1380     		strh	r3, [r2]	@ movhi
 128:Middlewares/Third_Party/RealThread_RTOS/src/scheduler.c **** 
 129:Middlewares/Third_Party/RealThread_RTOS/src/scheduler.c ****     RT_DEBUG_LOG(RT_DEBUG_SCHEDULER, ("start scheduler: max priority 0x%02x\n",
 189              		.loc 1 129 5 is_stmt 1 view .LVU39
 190              		.loc 1 129 5 view .LVU40
 191              		.loc 1 129 5 view .LVU41
 130:Middlewares/Third_Party/RealThread_RTOS/src/scheduler.c ****                                       RT_THREAD_PRIORITY_MAX));
 131:Middlewares/Third_Party/RealThread_RTOS/src/scheduler.c **** 
 132:Middlewares/Third_Party/RealThread_RTOS/src/scheduler.c ****     for (offset = 0; offset < RT_THREAD_PRIORITY_MAX; offset ++)
ARM GAS  C:\Users\Administrator\AppData\Local\Temp\cc5PlrjZ.s 			page 7


 192              		.loc 1 132 5 view .LVU42
 193              	.LVL11:
 194              		.loc 1 132 5 is_stmt 0 view .LVU43
 195 0006 06E0     		b	.L15
 196              	.LVL12:
 197              	.L16:
 133:Middlewares/Third_Party/RealThread_RTOS/src/scheduler.c ****     {
 134:Middlewares/Third_Party/RealThread_RTOS/src/scheduler.c ****         rt_list_init(&rt_thread_priority_table[offset]);
 198              		.loc 1 134 9 is_stmt 1 discriminator 3 view .LVU44
 199 0008 0B49     		ldr	r1, .L17+4
 200 000a 01EBC302 		add	r2, r1, r3, lsl #3
 201              	.LVL13:
 202              	.LBB14:
 203              	.LBI14:
 204              		.file 2 "Middlewares/Third_Party/RealThread_RTOS/include/rtservice.h"
   1:Middlewares/Third_Party/RealThread_RTOS/include/rtservice.h **** /*
   2:Middlewares/Third_Party/RealThread_RTOS/include/rtservice.h ****  * Copyright (c) 2006-2021, RT-Thread Development Team
   3:Middlewares/Third_Party/RealThread_RTOS/include/rtservice.h ****  *
   4:Middlewares/Third_Party/RealThread_RTOS/include/rtservice.h ****  * SPDX-License-Identifier: Apache-2.0
   5:Middlewares/Third_Party/RealThread_RTOS/include/rtservice.h ****  *
   6:Middlewares/Third_Party/RealThread_RTOS/include/rtservice.h ****  * Change Logs:
   7:Middlewares/Third_Party/RealThread_RTOS/include/rtservice.h ****  * Date           Author       Notes
   8:Middlewares/Third_Party/RealThread_RTOS/include/rtservice.h ****  * 2006-03-16     Bernard      the first version
   9:Middlewares/Third_Party/RealThread_RTOS/include/rtservice.h ****  * 2006-09-07     Bernard      move the kservice APIs to rtthread.h
  10:Middlewares/Third_Party/RealThread_RTOS/include/rtservice.h ****  * 2007-06-27     Bernard      fix the rt_list_remove bug
  11:Middlewares/Third_Party/RealThread_RTOS/include/rtservice.h ****  * 2012-03-22     Bernard      rename kservice.h to rtservice.h
  12:Middlewares/Third_Party/RealThread_RTOS/include/rtservice.h ****  * 2017-11-15     JasonJia     Modify rt_slist_foreach to rt_slist_for_each_entry.
  13:Middlewares/Third_Party/RealThread_RTOS/include/rtservice.h ****  *                             Make code cleanup.
  14:Middlewares/Third_Party/RealThread_RTOS/include/rtservice.h ****  */
  15:Middlewares/Third_Party/RealThread_RTOS/include/rtservice.h **** 
  16:Middlewares/Third_Party/RealThread_RTOS/include/rtservice.h **** #ifndef __RT_SERVICE_H__
  17:Middlewares/Third_Party/RealThread_RTOS/include/rtservice.h **** #define __RT_SERVICE_H__
  18:Middlewares/Third_Party/RealThread_RTOS/include/rtservice.h **** 
  19:Middlewares/Third_Party/RealThread_RTOS/include/rtservice.h **** #ifdef __cplusplus
  20:Middlewares/Third_Party/RealThread_RTOS/include/rtservice.h **** extern "C" {
  21:Middlewares/Third_Party/RealThread_RTOS/include/rtservice.h **** #endif
  22:Middlewares/Third_Party/RealThread_RTOS/include/rtservice.h **** 
  23:Middlewares/Third_Party/RealThread_RTOS/include/rtservice.h **** /**
  24:Middlewares/Third_Party/RealThread_RTOS/include/rtservice.h ****  * @addtogroup KernelService
  25:Middlewares/Third_Party/RealThread_RTOS/include/rtservice.h ****  */
  26:Middlewares/Third_Party/RealThread_RTOS/include/rtservice.h **** 
  27:Middlewares/Third_Party/RealThread_RTOS/include/rtservice.h **** /**@{*/
  28:Middlewares/Third_Party/RealThread_RTOS/include/rtservice.h **** 
  29:Middlewares/Third_Party/RealThread_RTOS/include/rtservice.h **** /**
  30:Middlewares/Third_Party/RealThread_RTOS/include/rtservice.h ****  * rt_container_of - return the member address of ptr, if the type of ptr is the
  31:Middlewares/Third_Party/RealThread_RTOS/include/rtservice.h ****  * struct type.
  32:Middlewares/Third_Party/RealThread_RTOS/include/rtservice.h ****  */
  33:Middlewares/Third_Party/RealThread_RTOS/include/rtservice.h **** #define rt_container_of(ptr, type, member) \
  34:Middlewares/Third_Party/RealThread_RTOS/include/rtservice.h ****     ((type *)((char *)(ptr) - (unsigned long)(&((type *)0)->member)))
  35:Middlewares/Third_Party/RealThread_RTOS/include/rtservice.h **** 
  36:Middlewares/Third_Party/RealThread_RTOS/include/rtservice.h **** 
  37:Middlewares/Third_Party/RealThread_RTOS/include/rtservice.h **** /**
  38:Middlewares/Third_Party/RealThread_RTOS/include/rtservice.h ****  * @brief initialize a list object
  39:Middlewares/Third_Party/RealThread_RTOS/include/rtservice.h ****  */
  40:Middlewares/Third_Party/RealThread_RTOS/include/rtservice.h **** #define RT_LIST_OBJECT_INIT(object) { &(object), &(object) }
  41:Middlewares/Third_Party/RealThread_RTOS/include/rtservice.h **** 
  42:Middlewares/Third_Party/RealThread_RTOS/include/rtservice.h **** /**
ARM GAS  C:\Users\Administrator\AppData\Local\Temp\cc5PlrjZ.s 			page 8


  43:Middlewares/Third_Party/RealThread_RTOS/include/rtservice.h ****  * @brief initialize a list
  44:Middlewares/Third_Party/RealThread_RTOS/include/rtservice.h ****  *
  45:Middlewares/Third_Party/RealThread_RTOS/include/rtservice.h ****  * @param l list to be initialized
  46:Middlewares/Third_Party/RealThread_RTOS/include/rtservice.h ****  */
  47:Middlewares/Third_Party/RealThread_RTOS/include/rtservice.h **** rt_inline void rt_list_init(rt_list_t *l)
 205              		.loc 2 47 16 discriminator 3 view .LVU45
 206              	.LBB15:
  48:Middlewares/Third_Party/RealThread_RTOS/include/rtservice.h **** {
  49:Middlewares/Third_Party/RealThread_RTOS/include/rtservice.h ****     l->next = l->prev = l;
 207              		.loc 2 49 5 discriminator 3 view .LVU46
 208              		.loc 2 49 23 is_stmt 0 discriminator 3 view .LVU47
 209 000e 5260     		str	r2, [r2, #4]
 210              		.loc 2 49 13 discriminator 3 view .LVU48
 211 0010 41F83320 		str	r2, [r1, r3, lsl #3]
 212              	.LVL14:
 213              		.loc 2 49 13 discriminator 3 view .LVU49
 214              	.LBE15:
 215              	.LBE14:
 132:Middlewares/Third_Party/RealThread_RTOS/src/scheduler.c ****     {
 216              		.loc 1 132 55 is_stmt 1 discriminator 3 view .LVU50
 132:Middlewares/Third_Party/RealThread_RTOS/src/scheduler.c ****     {
 217              		.loc 1 132 62 is_stmt 0 discriminator 3 view .LVU51
 218 0014 0133     		adds	r3, r3, #1
 219              	.LVL15:
 220              	.L15:
 132:Middlewares/Third_Party/RealThread_RTOS/src/scheduler.c ****     {
 221              		.loc 1 132 22 is_stmt 1 discriminator 1 view .LVU52
 132:Middlewares/Third_Party/RealThread_RTOS/src/scheduler.c ****     {
 222              		.loc 1 132 5 is_stmt 0 discriminator 1 view .LVU53
 223 0016 1F2B     		cmp	r3, #31
 224 0018 F6DD     		ble	.L16
 135:Middlewares/Third_Party/RealThread_RTOS/src/scheduler.c ****     }
 136:Middlewares/Third_Party/RealThread_RTOS/src/scheduler.c **** 
 137:Middlewares/Third_Party/RealThread_RTOS/src/scheduler.c ****     rt_current_priority = RT_THREAD_PRIORITY_MAX - 1;
 225              		.loc 1 137 5 is_stmt 1 view .LVU54
 226              		.loc 1 137 25 is_stmt 0 view .LVU55
 227 001a 084B     		ldr	r3, .L17+8
 228              	.LVL16:
 229              		.loc 1 137 25 view .LVU56
 230 001c 1F22     		movs	r2, #31
 231 001e 1A70     		strb	r2, [r3]
 138:Middlewares/Third_Party/RealThread_RTOS/src/scheduler.c ****     rt_current_thread = RT_NULL;
 232              		.loc 1 138 5 is_stmt 1 view .LVU57
 233              		.loc 1 138 23 is_stmt 0 view .LVU58
 234 0020 0023     		movs	r3, #0
 235 0022 074A     		ldr	r2, .L17+12
 236 0024 1360     		str	r3, [r2]
 139:Middlewares/Third_Party/RealThread_RTOS/src/scheduler.c **** 
 140:Middlewares/Third_Party/RealThread_RTOS/src/scheduler.c ****     /* initialize ready priority group */
 141:Middlewares/Third_Party/RealThread_RTOS/src/scheduler.c ****     rt_thread_ready_priority_group = 0;
 237              		.loc 1 141 5 is_stmt 1 view .LVU59
 238              		.loc 1 141 36 is_stmt 0 view .LVU60
 239 0026 074A     		ldr	r2, .L17+16
 240 0028 1360     		str	r3, [r2]
 142:Middlewares/Third_Party/RealThread_RTOS/src/scheduler.c **** 
 143:Middlewares/Third_Party/RealThread_RTOS/src/scheduler.c **** #if RT_THREAD_PRIORITY_MAX > 32
 144:Middlewares/Third_Party/RealThread_RTOS/src/scheduler.c ****     /* initialize ready table */
ARM GAS  C:\Users\Administrator\AppData\Local\Temp\cc5PlrjZ.s 			page 9


 145:Middlewares/Third_Party/RealThread_RTOS/src/scheduler.c ****     rt_memset(rt_thread_ready_table, 0, sizeof(rt_thread_ready_table));
 146:Middlewares/Third_Party/RealThread_RTOS/src/scheduler.c **** #endif
 147:Middlewares/Third_Party/RealThread_RTOS/src/scheduler.c **** 
 148:Middlewares/Third_Party/RealThread_RTOS/src/scheduler.c ****     /* initialize thread defunct */
 149:Middlewares/Third_Party/RealThread_RTOS/src/scheduler.c ****     rt_list_init(&rt_thread_defunct);
 241              		.loc 1 149 5 is_stmt 1 view .LVU61
 242              	.LVL17:
 243              	.LBB16:
 244              	.LBI16:
  47:Middlewares/Third_Party/RealThread_RTOS/include/rtservice.h **** {
 245              		.loc 2 47 16 view .LVU62
 246              	.LBB17:
 247              		.loc 2 49 5 view .LVU63
 248              		.loc 2 49 23 is_stmt 0 view .LVU64
 249 002a 074B     		ldr	r3, .L17+20
 250 002c 5B60     		str	r3, [r3, #4]
 251              		.loc 2 49 13 view .LVU65
 252 002e 1B60     		str	r3, [r3]
 253              	.LVL18:
 254              		.loc 2 49 13 view .LVU66
 255              	.LBE17:
 256              	.LBE16:
 150:Middlewares/Third_Party/RealThread_RTOS/src/scheduler.c **** }
 257              		.loc 1 150 1 view .LVU67
 258 0030 7047     		bx	lr
 259              	.L18:
 260 0032 00BF     		.align	2
 261              	.L17:
 262 0034 00000000 		.word	.LANCHOR2
 263 0038 00000000 		.word	.LANCHOR3
 264 003c 00000000 		.word	.LANCHOR4
 265 0040 00000000 		.word	.LANCHOR5
 266 0044 00000000 		.word	.LANCHOR6
 267 0048 00000000 		.word	.LANCHOR7
 268              		.cfi_endproc
 269              	.LFE17:
 271              		.section	.text.rt_system_scheduler_start,"ax",%progbits
 272              		.align	1
 273              		.global	rt_system_scheduler_start
 274              		.syntax unified
 275              		.thumb
 276              		.thumb_func
 277              		.fpu softvfp
 279              	rt_system_scheduler_start:
 280              	.LFB18:
 151:Middlewares/Third_Party/RealThread_RTOS/src/scheduler.c **** 
 152:Middlewares/Third_Party/RealThread_RTOS/src/scheduler.c **** /**
 153:Middlewares/Third_Party/RealThread_RTOS/src/scheduler.c ****  * @ingroup SystemInit
 154:Middlewares/Third_Party/RealThread_RTOS/src/scheduler.c ****  * This function will startup scheduler. It will select one thread
 155:Middlewares/Third_Party/RealThread_RTOS/src/scheduler.c ****  * with the highest priority level, then switch to it.
 156:Middlewares/Third_Party/RealThread_RTOS/src/scheduler.c ****  */
 157:Middlewares/Third_Party/RealThread_RTOS/src/scheduler.c **** void rt_system_scheduler_start(void)
 158:Middlewares/Third_Party/RealThread_RTOS/src/scheduler.c **** {
 281              		.loc 1 158 1 is_stmt 1 view -0
 282              		.cfi_startproc
 283              		@ args = 0, pretend = 0, frame = 0
 284              		@ frame_needed = 0, uses_anonymous_args = 0
ARM GAS  C:\Users\Administrator\AppData\Local\Temp\cc5PlrjZ.s 			page 10


 285 0000 08B5     		push	{r3, lr}
 286              	.LCFI1:
 287              		.cfi_def_cfa_offset 8
 288              		.cfi_offset 3, -8
 289              		.cfi_offset 14, -4
 159:Middlewares/Third_Party/RealThread_RTOS/src/scheduler.c ****     register struct rt_thread *to_thread;
 290              		.loc 1 159 5 view .LVU69
 160:Middlewares/Third_Party/RealThread_RTOS/src/scheduler.c ****     register rt_ubase_t highest_ready_priority;
 291              		.loc 1 160 5 view .LVU70
 161:Middlewares/Third_Party/RealThread_RTOS/src/scheduler.c **** 
 162:Middlewares/Third_Party/RealThread_RTOS/src/scheduler.c **** #if RT_THREAD_PRIORITY_MAX > 32
 163:Middlewares/Third_Party/RealThread_RTOS/src/scheduler.c ****     register rt_ubase_t number;
 164:Middlewares/Third_Party/RealThread_RTOS/src/scheduler.c **** 
 165:Middlewares/Third_Party/RealThread_RTOS/src/scheduler.c ****     number = __rt_ffs(rt_thread_ready_priority_group) - 1;
 166:Middlewares/Third_Party/RealThread_RTOS/src/scheduler.c ****     highest_ready_priority = (number << 3) + __rt_ffs(rt_thread_ready_table[number]) - 1;
 167:Middlewares/Third_Party/RealThread_RTOS/src/scheduler.c **** #else
 168:Middlewares/Third_Party/RealThread_RTOS/src/scheduler.c ****     highest_ready_priority = __rt_ffs(rt_thread_ready_priority_group) - 1;
 292              		.loc 1 168 5 view .LVU71
 293              		.loc 1 168 30 is_stmt 0 view .LVU72
 294 0002 084B     		ldr	r3, .L21
 295 0004 1868     		ldr	r0, [r3]
 296 0006 FFF7FEFF 		bl	__rt_ffs
 297              	.LVL19:
 298              		.loc 1 168 71 view .LVU73
 299 000a 0138     		subs	r0, r0, #1
 300              	.LVL20:
 169:Middlewares/Third_Party/RealThread_RTOS/src/scheduler.c **** #endif
 170:Middlewares/Third_Party/RealThread_RTOS/src/scheduler.c **** 
 171:Middlewares/Third_Party/RealThread_RTOS/src/scheduler.c ****     /* get switch to thread */
 172:Middlewares/Third_Party/RealThread_RTOS/src/scheduler.c ****     to_thread = rt_list_entry(rt_thread_priority_table[highest_ready_priority].next,
 301              		.loc 1 172 5 is_stmt 1 view .LVU74
 302              		.loc 1 172 17 is_stmt 0 view .LVU75
 303 000c 064B     		ldr	r3, .L21+4
 304 000e 53F83000 		ldr	r0, [r3, r0, lsl #3]
 305              	.LVL21:
 306              		.loc 1 172 15 view .LVU76
 307 0012 A0F11402 		sub	r2, r0, #20
 308              	.LVL22:
 173:Middlewares/Third_Party/RealThread_RTOS/src/scheduler.c ****                               struct rt_thread,
 174:Middlewares/Third_Party/RealThread_RTOS/src/scheduler.c ****                               tlist);
 175:Middlewares/Third_Party/RealThread_RTOS/src/scheduler.c **** 
 176:Middlewares/Third_Party/RealThread_RTOS/src/scheduler.c ****     rt_current_thread = to_thread;
 309              		.loc 1 176 5 is_stmt 1 view .LVU77
 310              		.loc 1 176 23 is_stmt 0 view .LVU78
 311 0016 054B     		ldr	r3, .L21+8
 312 0018 1A60     		str	r2, [r3]
 177:Middlewares/Third_Party/RealThread_RTOS/src/scheduler.c **** 
 178:Middlewares/Third_Party/RealThread_RTOS/src/scheduler.c ****     /* switch to new thread */
 179:Middlewares/Third_Party/RealThread_RTOS/src/scheduler.c ****     rt_hw_context_switch_to((rt_uint32_t)&to_thread->sp);
 313              		.loc 1 179 5 is_stmt 1 view .LVU79
 314 001a 0830     		adds	r0, r0, #8
 315 001c FFF7FEFF 		bl	rt_hw_context_switch_to
 316              	.LVL23:
 180:Middlewares/Third_Party/RealThread_RTOS/src/scheduler.c **** 
 181:Middlewares/Third_Party/RealThread_RTOS/src/scheduler.c ****     /* never come back */
 182:Middlewares/Third_Party/RealThread_RTOS/src/scheduler.c **** }
 317              		.loc 1 182 1 is_stmt 0 view .LVU80
ARM GAS  C:\Users\Administrator\AppData\Local\Temp\cc5PlrjZ.s 			page 11


 318 0020 08BD     		pop	{r3, pc}
 319              	.L22:
 320 0022 00BF     		.align	2
 321              	.L21:
 322 0024 00000000 		.word	.LANCHOR6
 323 0028 00000000 		.word	.LANCHOR3
 324 002c 00000000 		.word	.LANCHOR5
 325              		.cfi_endproc
 326              	.LFE18:
 328              		.section	.text.rt_schedule,"ax",%progbits
 329              		.align	1
 330              		.global	rt_schedule
 331              		.syntax unified
 332              		.thumb
 333              		.thumb_func
 334              		.fpu softvfp
 336              	rt_schedule:
 337              	.LFB19:
 183:Middlewares/Third_Party/RealThread_RTOS/src/scheduler.c **** 
 184:Middlewares/Third_Party/RealThread_RTOS/src/scheduler.c **** /**
 185:Middlewares/Third_Party/RealThread_RTOS/src/scheduler.c ****  * @addtogroup Thread
 186:Middlewares/Third_Party/RealThread_RTOS/src/scheduler.c ****  */
 187:Middlewares/Third_Party/RealThread_RTOS/src/scheduler.c **** 
 188:Middlewares/Third_Party/RealThread_RTOS/src/scheduler.c **** /**@{*/
 189:Middlewares/Third_Party/RealThread_RTOS/src/scheduler.c **** 
 190:Middlewares/Third_Party/RealThread_RTOS/src/scheduler.c **** /**
 191:Middlewares/Third_Party/RealThread_RTOS/src/scheduler.c ****  * This function will perform one schedule. It will select one thread
 192:Middlewares/Third_Party/RealThread_RTOS/src/scheduler.c ****  * with the highest priority level, then switch to it.
 193:Middlewares/Third_Party/RealThread_RTOS/src/scheduler.c ****  */
 194:Middlewares/Third_Party/RealThread_RTOS/src/scheduler.c **** void rt_schedule(void)
 195:Middlewares/Third_Party/RealThread_RTOS/src/scheduler.c **** {
 338              		.loc 1 195 1 is_stmt 1 view -0
 339              		.cfi_startproc
 340              		@ args = 0, pretend = 0, frame = 0
 341              		@ frame_needed = 0, uses_anonymous_args = 0
 342 0000 F8B5     		push	{r3, r4, r5, r6, r7, lr}
 343              	.LCFI2:
 344              		.cfi_def_cfa_offset 24
 345              		.cfi_offset 3, -24
 346              		.cfi_offset 4, -20
 347              		.cfi_offset 5, -16
 348              		.cfi_offset 6, -12
 349              		.cfi_offset 7, -8
 350              		.cfi_offset 14, -4
 196:Middlewares/Third_Party/RealThread_RTOS/src/scheduler.c ****     rt_base_t level;
 351              		.loc 1 196 5 view .LVU82
 197:Middlewares/Third_Party/RealThread_RTOS/src/scheduler.c ****     struct rt_thread *to_thread;
 352              		.loc 1 197 5 view .LVU83
 198:Middlewares/Third_Party/RealThread_RTOS/src/scheduler.c ****     struct rt_thread *from_thread;
 353              		.loc 1 198 5 view .LVU84
 199:Middlewares/Third_Party/RealThread_RTOS/src/scheduler.c **** 
 200:Middlewares/Third_Party/RealThread_RTOS/src/scheduler.c ****     /* disable interrupt */
 201:Middlewares/Third_Party/RealThread_RTOS/src/scheduler.c ****     level = rt_hw_interrupt_disable();
 354              		.loc 1 201 5 view .LVU85
 355              		.loc 1 201 13 is_stmt 0 view .LVU86
 356 0002 FFF7FEFF 		bl	rt_hw_interrupt_disable
 357              	.LVL24:
ARM GAS  C:\Users\Administrator\AppData\Local\Temp\cc5PlrjZ.s 			page 12


 358 0006 0446     		mov	r4, r0
 359              	.LVL25:
 202:Middlewares/Third_Party/RealThread_RTOS/src/scheduler.c **** 
 203:Middlewares/Third_Party/RealThread_RTOS/src/scheduler.c ****     /* check the scheduler is enabled or not */
 204:Middlewares/Third_Party/RealThread_RTOS/src/scheduler.c ****     if (rt_scheduler_lock_nest == 0)
 360              		.loc 1 204 5 is_stmt 1 view .LVU87
 361              		.loc 1 204 32 is_stmt 0 view .LVU88
 362 0008 1A4B     		ldr	r3, .L30
 363 000a B3F90030 		ldrsh	r3, [r3]
 364              		.loc 1 204 8 view .LVU89
 365 000e 1BBB     		cbnz	r3, .L24
 366              	.LBB18:
 205:Middlewares/Third_Party/RealThread_RTOS/src/scheduler.c ****     {
 206:Middlewares/Third_Party/RealThread_RTOS/src/scheduler.c ****         register rt_ubase_t highest_ready_priority;
 367              		.loc 1 206 9 is_stmt 1 view .LVU90
 207:Middlewares/Third_Party/RealThread_RTOS/src/scheduler.c **** 
 208:Middlewares/Third_Party/RealThread_RTOS/src/scheduler.c **** #if RT_THREAD_PRIORITY_MAX <= 32
 209:Middlewares/Third_Party/RealThread_RTOS/src/scheduler.c ****         highest_ready_priority = __rt_ffs(rt_thread_ready_priority_group) - 1;
 368              		.loc 1 209 9 view .LVU91
 369              		.loc 1 209 34 is_stmt 0 view .LVU92
 370 0010 194B     		ldr	r3, .L30+4
 371 0012 1868     		ldr	r0, [r3]
 372              	.LVL26:
 373              		.loc 1 209 34 view .LVU93
 374 0014 FFF7FEFF 		bl	__rt_ffs
 375              	.LVL27:
 376              		.loc 1 209 75 view .LVU94
 377 0018 0138     		subs	r0, r0, #1
 378              	.LVL28:
 210:Middlewares/Third_Party/RealThread_RTOS/src/scheduler.c **** #else
 211:Middlewares/Third_Party/RealThread_RTOS/src/scheduler.c ****         register rt_ubase_t number;
 212:Middlewares/Third_Party/RealThread_RTOS/src/scheduler.c **** 
 213:Middlewares/Third_Party/RealThread_RTOS/src/scheduler.c ****         number = __rt_ffs(rt_thread_ready_priority_group) - 1;
 214:Middlewares/Third_Party/RealThread_RTOS/src/scheduler.c ****         highest_ready_priority = (number << 3) + __rt_ffs(rt_thread_ready_table[number]) - 1;
 215:Middlewares/Third_Party/RealThread_RTOS/src/scheduler.c **** #endif
 216:Middlewares/Third_Party/RealThread_RTOS/src/scheduler.c **** 
 217:Middlewares/Third_Party/RealThread_RTOS/src/scheduler.c ****         /* get switch to thread */
 218:Middlewares/Third_Party/RealThread_RTOS/src/scheduler.c ****         to_thread = rt_list_entry(rt_thread_priority_table[highest_ready_priority].next,
 379              		.loc 1 218 9 is_stmt 1 view .LVU95
 380              		.loc 1 218 21 is_stmt 0 view .LVU96
 381 001a 184B     		ldr	r3, .L30+8
 382 001c 53F83070 		ldr	r7, [r3, r0, lsl #3]
 383              		.loc 1 218 19 view .LVU97
 384 0020 A7F11405 		sub	r5, r7, #20
 385              	.LVL29:
 219:Middlewares/Third_Party/RealThread_RTOS/src/scheduler.c ****                                   struct rt_thread,
 220:Middlewares/Third_Party/RealThread_RTOS/src/scheduler.c ****                                   tlist);
 221:Middlewares/Third_Party/RealThread_RTOS/src/scheduler.c **** 
 222:Middlewares/Third_Party/RealThread_RTOS/src/scheduler.c ****         /* if the destination thread is not the same as current thread */
 223:Middlewares/Third_Party/RealThread_RTOS/src/scheduler.c ****         if (to_thread != rt_current_thread)
 386              		.loc 1 223 9 is_stmt 1 view .LVU98
 387              		.loc 1 223 23 is_stmt 0 view .LVU99
 388 0024 164B     		ldr	r3, .L30+12
 389 0026 1E68     		ldr	r6, [r3]
 390              		.loc 1 223 12 view .LVU100
 391 0028 AE42     		cmp	r6, r5
 392 002a 15D0     		beq	.L24
ARM GAS  C:\Users\Administrator\AppData\Local\Temp\cc5PlrjZ.s 			page 13


 224:Middlewares/Third_Party/RealThread_RTOS/src/scheduler.c ****         {
 225:Middlewares/Third_Party/RealThread_RTOS/src/scheduler.c ****             rt_current_priority = (rt_uint8_t)highest_ready_priority;
 393              		.loc 1 225 13 is_stmt 1 view .LVU101
 394              		.loc 1 225 33 is_stmt 0 view .LVU102
 395 002c 154B     		ldr	r3, .L30+16
 396 002e 1870     		strb	r0, [r3]
 226:Middlewares/Third_Party/RealThread_RTOS/src/scheduler.c ****             from_thread         = rt_current_thread;
 397              		.loc 1 226 13 is_stmt 1 view .LVU103
 398              	.LVL30:
 227:Middlewares/Third_Party/RealThread_RTOS/src/scheduler.c ****             rt_current_thread   = to_thread;
 399              		.loc 1 227 13 view .LVU104
 400              		.loc 1 227 33 is_stmt 0 view .LVU105
 401 0030 134B     		ldr	r3, .L30+12
 402 0032 1D60     		str	r5, [r3]
 228:Middlewares/Third_Party/RealThread_RTOS/src/scheduler.c **** 
 229:Middlewares/Third_Party/RealThread_RTOS/src/scheduler.c ****             RT_OBJECT_HOOK_CALL(rt_scheduler_hook, (from_thread, to_thread));
 403              		.loc 1 229 13 is_stmt 1 view .LVU106
 404              		.loc 1 229 13 view .LVU107
 405 0034 144B     		ldr	r3, .L30+20
 406 0036 1B68     		ldr	r3, [r3]
 407 0038 13B1     		cbz	r3, .L25
 408              		.loc 1 229 13 discriminator 1 view .LVU108
 409 003a 2946     		mov	r1, r5
 410 003c 3046     		mov	r0, r6
 411              	.LVL31:
 412              		.loc 1 229 13 is_stmt 0 discriminator 1 view .LVU109
 413 003e 9847     		blx	r3
 414              	.LVL32:
 415              	.L25:
 416              		.loc 1 229 13 is_stmt 1 discriminator 3 view .LVU110
 230:Middlewares/Third_Party/RealThread_RTOS/src/scheduler.c **** 
 231:Middlewares/Third_Party/RealThread_RTOS/src/scheduler.c ****             /* switch to new thread */
 232:Middlewares/Third_Party/RealThread_RTOS/src/scheduler.c ****             RT_DEBUG_LOG(RT_DEBUG_SCHEDULER,
 417              		.loc 1 232 13 discriminator 3 view .LVU111
 418              		.loc 1 232 13 discriminator 3 view .LVU112
 419              		.loc 1 232 13 discriminator 3 view .LVU113
 233:Middlewares/Third_Party/RealThread_RTOS/src/scheduler.c ****                          ("[%d]switch to priority#%d "
 234:Middlewares/Third_Party/RealThread_RTOS/src/scheduler.c ****                           "thread:%.*s(sp:0x%p), "
 235:Middlewares/Third_Party/RealThread_RTOS/src/scheduler.c ****                           "from thread:%.*s(sp: 0x%p)\n",
 236:Middlewares/Third_Party/RealThread_RTOS/src/scheduler.c ****                           rt_interrupt_nest, highest_ready_priority,
 237:Middlewares/Third_Party/RealThread_RTOS/src/scheduler.c ****                           RT_NAME_MAX, to_thread->name, to_thread->sp,
 238:Middlewares/Third_Party/RealThread_RTOS/src/scheduler.c ****                           RT_NAME_MAX, from_thread->name, from_thread->sp));
 239:Middlewares/Third_Party/RealThread_RTOS/src/scheduler.c **** 
 240:Middlewares/Third_Party/RealThread_RTOS/src/scheduler.c **** #ifdef RT_USING_OVERFLOW_CHECK
 241:Middlewares/Third_Party/RealThread_RTOS/src/scheduler.c ****             _rt_scheduler_stack_check(to_thread);
 420              		.loc 1 241 13 discriminator 3 view .LVU114
 421 0040 2846     		mov	r0, r5
 422 0042 FFF7FEFF 		bl	_rt_scheduler_stack_check
 423              	.LVL33:
 242:Middlewares/Third_Party/RealThread_RTOS/src/scheduler.c **** #endif
 243:Middlewares/Third_Party/RealThread_RTOS/src/scheduler.c **** 
 244:Middlewares/Third_Party/RealThread_RTOS/src/scheduler.c ****             if (rt_interrupt_nest == 0)
 424              		.loc 1 244 13 discriminator 3 view .LVU115
 425              		.loc 1 244 35 is_stmt 0 discriminator 3 view .LVU116
 426 0046 114B     		ldr	r3, .L30+24
 427 0048 1B78     		ldrb	r3, [r3]	@ zero_extendqisi2
 428              		.loc 1 244 16 discriminator 3 view .LVU117
ARM GAS  C:\Users\Administrator\AppData\Local\Temp\cc5PlrjZ.s 			page 14


 429 004a 4BB1     		cbz	r3, .L29
 245:Middlewares/Third_Party/RealThread_RTOS/src/scheduler.c ****             {
 246:Middlewares/Third_Party/RealThread_RTOS/src/scheduler.c ****                 rt_hw_context_switch((rt_ubase_t)&from_thread->sp,
 247:Middlewares/Third_Party/RealThread_RTOS/src/scheduler.c ****                                      (rt_ubase_t)&to_thread->sp);
 248:Middlewares/Third_Party/RealThread_RTOS/src/scheduler.c **** 
 249:Middlewares/Third_Party/RealThread_RTOS/src/scheduler.c ****                 /* enable interrupt */
 250:Middlewares/Third_Party/RealThread_RTOS/src/scheduler.c ****                 rt_hw_interrupt_enable(level);
 251:Middlewares/Third_Party/RealThread_RTOS/src/scheduler.c **** 
 252:Middlewares/Third_Party/RealThread_RTOS/src/scheduler.c ****                 return ;
 253:Middlewares/Third_Party/RealThread_RTOS/src/scheduler.c ****             }
 254:Middlewares/Third_Party/RealThread_RTOS/src/scheduler.c ****             else
 255:Middlewares/Third_Party/RealThread_RTOS/src/scheduler.c ****             {
 256:Middlewares/Third_Party/RealThread_RTOS/src/scheduler.c ****                 RT_DEBUG_LOG(RT_DEBUG_SCHEDULER, ("switch in interrupt\n"));
 430              		.loc 1 256 17 is_stmt 1 discriminator 3 view .LVU118
 431              		.loc 1 256 17 discriminator 3 view .LVU119
 432              		.loc 1 256 17 discriminator 3 view .LVU120
 257:Middlewares/Third_Party/RealThread_RTOS/src/scheduler.c **** 
 258:Middlewares/Third_Party/RealThread_RTOS/src/scheduler.c ****                 rt_hw_context_switch_interrupt((rt_ubase_t)&from_thread->sp,
 433              		.loc 1 258 17 discriminator 3 view .LVU121
 434 004c 07F10801 		add	r1, r7, #8
 435 0050 06F11C00 		add	r0, r6, #28
 436 0054 FFF7FEFF 		bl	rt_hw_context_switch_interrupt
 437              	.LVL34:
 438              	.L24:
 439              		.loc 1 258 17 is_stmt 0 discriminator 3 view .LVU122
 440              	.LBE18:
 259:Middlewares/Third_Party/RealThread_RTOS/src/scheduler.c ****                                                (rt_ubase_t)&to_thread->sp);
 260:Middlewares/Third_Party/RealThread_RTOS/src/scheduler.c ****             }
 261:Middlewares/Third_Party/RealThread_RTOS/src/scheduler.c ****         }
 262:Middlewares/Third_Party/RealThread_RTOS/src/scheduler.c ****     }
 263:Middlewares/Third_Party/RealThread_RTOS/src/scheduler.c **** 
 264:Middlewares/Third_Party/RealThread_RTOS/src/scheduler.c ****     /* enable interrupt */
 265:Middlewares/Third_Party/RealThread_RTOS/src/scheduler.c ****     rt_hw_interrupt_enable(level);
 441              		.loc 1 265 5 is_stmt 1 view .LVU123
 442 0058 2046     		mov	r0, r4
 443 005a FFF7FEFF 		bl	rt_hw_interrupt_enable
 444              	.LVL35:
 445              	.L23:
 266:Middlewares/Third_Party/RealThread_RTOS/src/scheduler.c **** }
 446              		.loc 1 266 1 is_stmt 0 view .LVU124
 447 005e F8BD     		pop	{r3, r4, r5, r6, r7, pc}
 448              	.LVL36:
 449              	.L29:
 450              	.LBB19:
 246:Middlewares/Third_Party/RealThread_RTOS/src/scheduler.c ****                                      (rt_ubase_t)&to_thread->sp);
 451              		.loc 1 246 17 is_stmt 1 view .LVU125
 452 0060 07F10801 		add	r1, r7, #8
 453 0064 06F11C00 		add	r0, r6, #28
 454 0068 FFF7FEFF 		bl	rt_hw_context_switch
 455              	.LVL37:
 250:Middlewares/Third_Party/RealThread_RTOS/src/scheduler.c **** 
 456              		.loc 1 250 17 view .LVU126
 457 006c 2046     		mov	r0, r4
 458 006e FFF7FEFF 		bl	rt_hw_interrupt_enable
 459              	.LVL38:
 252:Middlewares/Third_Party/RealThread_RTOS/src/scheduler.c ****             }
 460              		.loc 1 252 17 view .LVU127
ARM GAS  C:\Users\Administrator\AppData\Local\Temp\cc5PlrjZ.s 			page 15


 461 0072 F4E7     		b	.L23
 462              	.L31:
 463              		.align	2
 464              	.L30:
 465 0074 00000000 		.word	.LANCHOR2
 466 0078 00000000 		.word	.LANCHOR6
 467 007c 00000000 		.word	.LANCHOR3
 468 0080 00000000 		.word	.LANCHOR5
 469 0084 00000000 		.word	.LANCHOR4
 470 0088 00000000 		.word	.LANCHOR1
 471 008c 00000000 		.word	rt_interrupt_nest
 472              	.LBE19:
 473              		.cfi_endproc
 474              	.LFE19:
 476              		.section	.text.rt_schedule_insert_thread,"ax",%progbits
 477              		.align	1
 478              		.global	rt_schedule_insert_thread
 479              		.syntax unified
 480              		.thumb
 481              		.thumb_func
 482              		.fpu softvfp
 484              	rt_schedule_insert_thread:
 485              	.LVL39:
 486              	.LFB20:
 267:Middlewares/Third_Party/RealThread_RTOS/src/scheduler.c **** 
 268:Middlewares/Third_Party/RealThread_RTOS/src/scheduler.c **** /*
 269:Middlewares/Third_Party/RealThread_RTOS/src/scheduler.c ****  * This function will insert a thread to system ready queue. The state of
 270:Middlewares/Third_Party/RealThread_RTOS/src/scheduler.c ****  * thread will be set as READY and remove from suspend queue.
 271:Middlewares/Third_Party/RealThread_RTOS/src/scheduler.c ****  *
 272:Middlewares/Third_Party/RealThread_RTOS/src/scheduler.c ****  * @param thread the thread to be inserted
 273:Middlewares/Third_Party/RealThread_RTOS/src/scheduler.c ****  * @note Please do not invoke this function in user application.
 274:Middlewares/Third_Party/RealThread_RTOS/src/scheduler.c ****  */
 275:Middlewares/Third_Party/RealThread_RTOS/src/scheduler.c **** void rt_schedule_insert_thread(struct rt_thread *thread)
 276:Middlewares/Third_Party/RealThread_RTOS/src/scheduler.c **** {
 487              		.loc 1 276 1 view -0
 488              		.cfi_startproc
 489              		@ args = 0, pretend = 0, frame = 0
 490              		@ frame_needed = 0, uses_anonymous_args = 0
 491              		.loc 1 276 1 is_stmt 0 view .LVU129
 492 0000 10B5     		push	{r4, lr}
 493              	.LCFI3:
 494              		.cfi_def_cfa_offset 8
 495              		.cfi_offset 4, -8
 496              		.cfi_offset 14, -4
 277:Middlewares/Third_Party/RealThread_RTOS/src/scheduler.c ****     register rt_base_t temp;
 497              		.loc 1 277 5 is_stmt 1 view .LVU130
 278:Middlewares/Third_Party/RealThread_RTOS/src/scheduler.c **** 
 279:Middlewares/Third_Party/RealThread_RTOS/src/scheduler.c ****     RT_ASSERT(thread != RT_NULL);
 498              		.loc 1 279 5 view .LVU131
 499 0002 0446     		mov	r4, r0
 500 0004 F0B1     		cbz	r0, .L35
 501              	.LVL40:
 502              	.L33:
 503              		.loc 1 279 33 discriminator 3 view .LVU132
 280:Middlewares/Third_Party/RealThread_RTOS/src/scheduler.c **** 
 281:Middlewares/Third_Party/RealThread_RTOS/src/scheduler.c ****     /* disable interrupt */
 282:Middlewares/Third_Party/RealThread_RTOS/src/scheduler.c ****     temp = rt_hw_interrupt_disable();
ARM GAS  C:\Users\Administrator\AppData\Local\Temp\cc5PlrjZ.s 			page 16


 504              		.loc 1 282 5 discriminator 3 view .LVU133
 505              		.loc 1 282 12 is_stmt 0 discriminator 3 view .LVU134
 506 0006 FFF7FEFF 		bl	rt_hw_interrupt_disable
 507              	.LVL41:
 283:Middlewares/Third_Party/RealThread_RTOS/src/scheduler.c **** 
 284:Middlewares/Third_Party/RealThread_RTOS/src/scheduler.c ****     /* change stat */
 285:Middlewares/Third_Party/RealThread_RTOS/src/scheduler.c ****     thread->stat = RT_THREAD_READY | (thread->stat & ~RT_THREAD_STAT_MASK);
 508              		.loc 1 285 5 is_stmt 1 discriminator 3 view .LVU135
 509              		.loc 1 285 45 is_stmt 0 discriminator 3 view .LVU136
 510 000a 94F93430 		ldrsb	r3, [r4, #52]
 511              		.loc 1 285 52 discriminator 3 view .LVU137
 512 000e 23F00F03 		bic	r3, r3, #15
 513              		.loc 1 285 36 discriminator 3 view .LVU138
 514 0012 43F00103 		orr	r3, r3, #1
 515              		.loc 1 285 18 discriminator 3 view .LVU139
 516 0016 84F83430 		strb	r3, [r4, #52]
 286:Middlewares/Third_Party/RealThread_RTOS/src/scheduler.c **** 
 287:Middlewares/Third_Party/RealThread_RTOS/src/scheduler.c ****     /* insert thread to ready list */
 288:Middlewares/Third_Party/RealThread_RTOS/src/scheduler.c ****     rt_list_insert_before(&(rt_thread_priority_table[thread->current_priority]),
 517              		.loc 1 288 5 is_stmt 1 discriminator 3 view .LVU140
 518              		.loc 1 288 60 is_stmt 0 discriminator 3 view .LVU141
 519 001a 94F83520 		ldrb	r2, [r4, #53]	@ zero_extendqisi2
 520              		.loc 1 288 5 discriminator 3 view .LVU142
 521 001e 0D4B     		ldr	r3, .L36
 522 0020 03EBC203 		add	r3, r3, r2, lsl #3
 523 0024 04F11402 		add	r2, r4, #20
 524              	.LVL42:
 525              	.LBB20:
 526              	.LBI20:
  50:Middlewares/Third_Party/RealThread_RTOS/include/rtservice.h **** }
  51:Middlewares/Third_Party/RealThread_RTOS/include/rtservice.h **** 
  52:Middlewares/Third_Party/RealThread_RTOS/include/rtservice.h **** /**
  53:Middlewares/Third_Party/RealThread_RTOS/include/rtservice.h ****  * @brief insert a node after a list
  54:Middlewares/Third_Party/RealThread_RTOS/include/rtservice.h ****  *
  55:Middlewares/Third_Party/RealThread_RTOS/include/rtservice.h ****  * @param l list to insert it
  56:Middlewares/Third_Party/RealThread_RTOS/include/rtservice.h ****  * @param n new node to be inserted
  57:Middlewares/Third_Party/RealThread_RTOS/include/rtservice.h ****  */
  58:Middlewares/Third_Party/RealThread_RTOS/include/rtservice.h **** rt_inline void rt_list_insert_after(rt_list_t *l, rt_list_t *n)
  59:Middlewares/Third_Party/RealThread_RTOS/include/rtservice.h **** {
  60:Middlewares/Third_Party/RealThread_RTOS/include/rtservice.h ****     l->next->prev = n;
  61:Middlewares/Third_Party/RealThread_RTOS/include/rtservice.h ****     n->next = l->next;
  62:Middlewares/Third_Party/RealThread_RTOS/include/rtservice.h **** 
  63:Middlewares/Third_Party/RealThread_RTOS/include/rtservice.h ****     l->next = n;
  64:Middlewares/Third_Party/RealThread_RTOS/include/rtservice.h ****     n->prev = l;
  65:Middlewares/Third_Party/RealThread_RTOS/include/rtservice.h **** }
  66:Middlewares/Third_Party/RealThread_RTOS/include/rtservice.h **** 
  67:Middlewares/Third_Party/RealThread_RTOS/include/rtservice.h **** /**
  68:Middlewares/Third_Party/RealThread_RTOS/include/rtservice.h ****  * @brief insert a node before a list
  69:Middlewares/Third_Party/RealThread_RTOS/include/rtservice.h ****  *
  70:Middlewares/Third_Party/RealThread_RTOS/include/rtservice.h ****  * @param n new node to be inserted
  71:Middlewares/Third_Party/RealThread_RTOS/include/rtservice.h ****  * @param l list to insert it
  72:Middlewares/Third_Party/RealThread_RTOS/include/rtservice.h ****  */
  73:Middlewares/Third_Party/RealThread_RTOS/include/rtservice.h **** rt_inline void rt_list_insert_before(rt_list_t *l, rt_list_t *n)
 527              		.loc 2 73 16 is_stmt 1 discriminator 3 view .LVU143
 528              	.LBB21:
  74:Middlewares/Third_Party/RealThread_RTOS/include/rtservice.h **** {
  75:Middlewares/Third_Party/RealThread_RTOS/include/rtservice.h ****     l->prev->next = n;
ARM GAS  C:\Users\Administrator\AppData\Local\Temp\cc5PlrjZ.s 			page 17


 529              		.loc 2 75 5 discriminator 3 view .LVU144
 530              		.loc 2 75 6 is_stmt 0 discriminator 3 view .LVU145
 531 0028 5968     		ldr	r1, [r3, #4]
 532              		.loc 2 75 19 discriminator 3 view .LVU146
 533 002a 0A60     		str	r2, [r1]
  76:Middlewares/Third_Party/RealThread_RTOS/include/rtservice.h ****     n->prev = l->prev;
 534              		.loc 2 76 5 is_stmt 1 discriminator 3 view .LVU147
 535              		.loc 2 76 16 is_stmt 0 discriminator 3 view .LVU148
 536 002c 5968     		ldr	r1, [r3, #4]
 537              		.loc 2 76 13 discriminator 3 view .LVU149
 538 002e A161     		str	r1, [r4, #24]
  77:Middlewares/Third_Party/RealThread_RTOS/include/rtservice.h **** 
  78:Middlewares/Third_Party/RealThread_RTOS/include/rtservice.h ****     l->prev = n;
 539              		.loc 2 78 5 is_stmt 1 discriminator 3 view .LVU150
 540              		.loc 2 78 13 is_stmt 0 discriminator 3 view .LVU151
 541 0030 5A60     		str	r2, [r3, #4]
  79:Middlewares/Third_Party/RealThread_RTOS/include/rtservice.h ****     n->next = l;
 542              		.loc 2 79 5 is_stmt 1 discriminator 3 view .LVU152
 543              		.loc 2 79 13 is_stmt 0 discriminator 3 view .LVU153
 544 0032 6361     		str	r3, [r4, #20]
 545              	.LVL43:
 546              		.loc 2 79 13 discriminator 3 view .LVU154
 547              	.LBE21:
 548              	.LBE20:
 289:Middlewares/Third_Party/RealThread_RTOS/src/scheduler.c ****                           &(thread->tlist));
 290:Middlewares/Third_Party/RealThread_RTOS/src/scheduler.c **** 
 291:Middlewares/Third_Party/RealThread_RTOS/src/scheduler.c ****     /* set priority mask */
 292:Middlewares/Third_Party/RealThread_RTOS/src/scheduler.c **** #if RT_THREAD_PRIORITY_MAX <= 32
 293:Middlewares/Third_Party/RealThread_RTOS/src/scheduler.c ****     RT_DEBUG_LOG(RT_DEBUG_SCHEDULER, ("insert thread[%.*s], the priority: %d\n",
 549              		.loc 1 293 5 is_stmt 1 discriminator 3 view .LVU155
 550              		.loc 1 293 5 discriminator 3 view .LVU156
 551              		.loc 1 293 5 discriminator 3 view .LVU157
 294:Middlewares/Third_Party/RealThread_RTOS/src/scheduler.c ****                                       RT_NAME_MAX, thread->name, thread->current_priority));
 295:Middlewares/Third_Party/RealThread_RTOS/src/scheduler.c **** #else
 296:Middlewares/Third_Party/RealThread_RTOS/src/scheduler.c ****     RT_DEBUG_LOG(RT_DEBUG_SCHEDULER,
 297:Middlewares/Third_Party/RealThread_RTOS/src/scheduler.c ****                  ("insert thread[%.*s], the priority: %d 0x%x %d\n",
 298:Middlewares/Third_Party/RealThread_RTOS/src/scheduler.c ****                   RT_NAME_MAX,
 299:Middlewares/Third_Party/RealThread_RTOS/src/scheduler.c ****                   thread->name,
 300:Middlewares/Third_Party/RealThread_RTOS/src/scheduler.c ****                   thread->number,
 301:Middlewares/Third_Party/RealThread_RTOS/src/scheduler.c ****                   thread->number_mask,
 302:Middlewares/Third_Party/RealThread_RTOS/src/scheduler.c ****                   thread->high_mask));
 303:Middlewares/Third_Party/RealThread_RTOS/src/scheduler.c **** #endif
 304:Middlewares/Third_Party/RealThread_RTOS/src/scheduler.c **** 
 305:Middlewares/Third_Party/RealThread_RTOS/src/scheduler.c **** #if RT_THREAD_PRIORITY_MAX > 32
 306:Middlewares/Third_Party/RealThread_RTOS/src/scheduler.c ****     rt_thread_ready_table[thread->number] |= thread->high_mask;
 307:Middlewares/Third_Party/RealThread_RTOS/src/scheduler.c **** #endif
 308:Middlewares/Third_Party/RealThread_RTOS/src/scheduler.c ****     rt_thread_ready_priority_group |= thread->number_mask;
 552              		.loc 1 308 5 discriminator 3 view .LVU158
 553              		.loc 1 308 45 is_stmt 0 discriminator 3 view .LVU159
 554 0034 A16B     		ldr	r1, [r4, #56]
 555              		.loc 1 308 36 discriminator 3 view .LVU160
 556 0036 084A     		ldr	r2, .L36+4
 557 0038 1368     		ldr	r3, [r2]
 558 003a 0B43     		orrs	r3, r3, r1
 559 003c 1360     		str	r3, [r2]
 309:Middlewares/Third_Party/RealThread_RTOS/src/scheduler.c **** 
 310:Middlewares/Third_Party/RealThread_RTOS/src/scheduler.c ****     /* enable interrupt */
ARM GAS  C:\Users\Administrator\AppData\Local\Temp\cc5PlrjZ.s 			page 18


 311:Middlewares/Third_Party/RealThread_RTOS/src/scheduler.c ****     rt_hw_interrupt_enable(temp);
 560              		.loc 1 311 5 is_stmt 1 discriminator 3 view .LVU161
 561 003e FFF7FEFF 		bl	rt_hw_interrupt_enable
 562              	.LVL44:
 312:Middlewares/Third_Party/RealThread_RTOS/src/scheduler.c **** }
 563              		.loc 1 312 1 is_stmt 0 discriminator 3 view .LVU162
 564 0042 10BD     		pop	{r4, pc}
 565              	.LVL45:
 566              	.L35:
 279:Middlewares/Third_Party/RealThread_RTOS/src/scheduler.c **** 
 567              		.loc 1 279 5 is_stmt 1 discriminator 1 view .LVU163
 568 0044 40F21712 		movw	r2, #279
 569 0048 0449     		ldr	r1, .L36+8
 570 004a 0548     		ldr	r0, .L36+12
 571              	.LVL46:
 279:Middlewares/Third_Party/RealThread_RTOS/src/scheduler.c **** 
 572              		.loc 1 279 5 is_stmt 0 discriminator 1 view .LVU164
 573 004c FFF7FEFF 		bl	rt_assert_handler
 574              	.LVL47:
 575 0050 D9E7     		b	.L33
 576              	.L37:
 577 0052 00BF     		.align	2
 578              	.L36:
 579 0054 00000000 		.word	.LANCHOR3
 580 0058 00000000 		.word	.LANCHOR6
 581 005c 00000000 		.word	.LANCHOR8
 582 0060 00000000 		.word	.LC0
 583              		.cfi_endproc
 584              	.LFE20:
 586              		.section	.text.rt_schedule_remove_thread,"ax",%progbits
 587              		.align	1
 588              		.global	rt_schedule_remove_thread
 589              		.syntax unified
 590              		.thumb
 591              		.thumb_func
 592              		.fpu softvfp
 594              	rt_schedule_remove_thread:
 595              	.LVL48:
 596              	.LFB21:
 313:Middlewares/Third_Party/RealThread_RTOS/src/scheduler.c **** 
 314:Middlewares/Third_Party/RealThread_RTOS/src/scheduler.c **** /*
 315:Middlewares/Third_Party/RealThread_RTOS/src/scheduler.c ****  * This function will remove a thread from system ready queue.
 316:Middlewares/Third_Party/RealThread_RTOS/src/scheduler.c ****  *
 317:Middlewares/Third_Party/RealThread_RTOS/src/scheduler.c ****  * @param thread the thread to be removed
 318:Middlewares/Third_Party/RealThread_RTOS/src/scheduler.c ****  *
 319:Middlewares/Third_Party/RealThread_RTOS/src/scheduler.c ****  * @note Please do not invoke this function in user application.
 320:Middlewares/Third_Party/RealThread_RTOS/src/scheduler.c ****  */
 321:Middlewares/Third_Party/RealThread_RTOS/src/scheduler.c **** void rt_schedule_remove_thread(struct rt_thread *thread)
 322:Middlewares/Third_Party/RealThread_RTOS/src/scheduler.c **** {
 597              		.loc 1 322 1 is_stmt 1 view -0
 598              		.cfi_startproc
 599              		@ args = 0, pretend = 0, frame = 0
 600              		@ frame_needed = 0, uses_anonymous_args = 0
 601              		.loc 1 322 1 is_stmt 0 view .LVU166
 602 0000 10B5     		push	{r4, lr}
 603              	.LCFI4:
 604              		.cfi_def_cfa_offset 8
ARM GAS  C:\Users\Administrator\AppData\Local\Temp\cc5PlrjZ.s 			page 19


 605              		.cfi_offset 4, -8
 606              		.cfi_offset 14, -4
 323:Middlewares/Third_Party/RealThread_RTOS/src/scheduler.c ****     register rt_base_t temp;
 607              		.loc 1 323 5 is_stmt 1 view .LVU167
 324:Middlewares/Third_Party/RealThread_RTOS/src/scheduler.c **** 
 325:Middlewares/Third_Party/RealThread_RTOS/src/scheduler.c ****     RT_ASSERT(thread != RT_NULL);
 608              		.loc 1 325 5 view .LVU168
 609 0002 0446     		mov	r4, r0
 610 0004 B0B1     		cbz	r0, .L42
 611              	.LVL49:
 612              	.L39:
 613              		.loc 1 325 33 discriminator 3 view .LVU169
 326:Middlewares/Third_Party/RealThread_RTOS/src/scheduler.c **** 
 327:Middlewares/Third_Party/RealThread_RTOS/src/scheduler.c ****     /* disable interrupt */
 328:Middlewares/Third_Party/RealThread_RTOS/src/scheduler.c ****     temp = rt_hw_interrupt_disable();
 614              		.loc 1 328 5 discriminator 3 view .LVU170
 615              		.loc 1 328 12 is_stmt 0 discriminator 3 view .LVU171
 616 0006 FFF7FEFF 		bl	rt_hw_interrupt_disable
 617              	.LVL50:
 329:Middlewares/Third_Party/RealThread_RTOS/src/scheduler.c **** 
 330:Middlewares/Third_Party/RealThread_RTOS/src/scheduler.c **** #if RT_THREAD_PRIORITY_MAX <= 32
 331:Middlewares/Third_Party/RealThread_RTOS/src/scheduler.c ****     RT_DEBUG_LOG(RT_DEBUG_SCHEDULER, ("remove thread[%.*s], the priority: %d\n",
 618              		.loc 1 331 5 is_stmt 1 discriminator 3 view .LVU172
 619              		.loc 1 331 5 discriminator 3 view .LVU173
 620              		.loc 1 331 5 discriminator 3 view .LVU174
 332:Middlewares/Third_Party/RealThread_RTOS/src/scheduler.c ****                                       RT_NAME_MAX, thread->name,
 333:Middlewares/Third_Party/RealThread_RTOS/src/scheduler.c ****                                       thread->current_priority));
 334:Middlewares/Third_Party/RealThread_RTOS/src/scheduler.c **** #else
 335:Middlewares/Third_Party/RealThread_RTOS/src/scheduler.c ****     RT_DEBUG_LOG(RT_DEBUG_SCHEDULER,
 336:Middlewares/Third_Party/RealThread_RTOS/src/scheduler.c ****                  ("remove thread[%.*s], the priority: %d 0x%x %d\n",
 337:Middlewares/Third_Party/RealThread_RTOS/src/scheduler.c ****                   RT_NAME_MAX,
 338:Middlewares/Third_Party/RealThread_RTOS/src/scheduler.c ****                   thread->name,
 339:Middlewares/Third_Party/RealThread_RTOS/src/scheduler.c ****                   thread->number,
 340:Middlewares/Third_Party/RealThread_RTOS/src/scheduler.c ****                   thread->number_mask,
 341:Middlewares/Third_Party/RealThread_RTOS/src/scheduler.c ****                   thread->high_mask));
 342:Middlewares/Third_Party/RealThread_RTOS/src/scheduler.c **** #endif
 343:Middlewares/Third_Party/RealThread_RTOS/src/scheduler.c **** 
 344:Middlewares/Third_Party/RealThread_RTOS/src/scheduler.c ****     /* remove thread from ready list */
 345:Middlewares/Third_Party/RealThread_RTOS/src/scheduler.c ****     rt_list_remove(&(thread->tlist));
 621              		.loc 1 345 5 discriminator 3 view .LVU175
 622 000a 04F11403 		add	r3, r4, #20
 623              	.LBB22:
 624              	.LBI22:
  80:Middlewares/Third_Party/RealThread_RTOS/include/rtservice.h **** }
  81:Middlewares/Third_Party/RealThread_RTOS/include/rtservice.h **** 
  82:Middlewares/Third_Party/RealThread_RTOS/include/rtservice.h **** /**
  83:Middlewares/Third_Party/RealThread_RTOS/include/rtservice.h ****  * @brief remove node from list.
  84:Middlewares/Third_Party/RealThread_RTOS/include/rtservice.h ****  * @param n the node to remove from the list.
  85:Middlewares/Third_Party/RealThread_RTOS/include/rtservice.h ****  */
  86:Middlewares/Third_Party/RealThread_RTOS/include/rtservice.h **** rt_inline void rt_list_remove(rt_list_t *n)
 625              		.loc 2 86 16 discriminator 3 view .LVU176
 626              	.LBB23:
  87:Middlewares/Third_Party/RealThread_RTOS/include/rtservice.h **** {
  88:Middlewares/Third_Party/RealThread_RTOS/include/rtservice.h ****     n->next->prev = n->prev;
 627              		.loc 2 88 5 discriminator 3 view .LVU177
 628              		.loc 2 88 6 is_stmt 0 discriminator 3 view .LVU178
 629 000e 6169     		ldr	r1, [r4, #20]
ARM GAS  C:\Users\Administrator\AppData\Local\Temp\cc5PlrjZ.s 			page 20


 630              		.loc 2 88 22 discriminator 3 view .LVU179
 631 0010 A269     		ldr	r2, [r4, #24]
 632              		.loc 2 88 19 discriminator 3 view .LVU180
 633 0012 4A60     		str	r2, [r1, #4]
  89:Middlewares/Third_Party/RealThread_RTOS/include/rtservice.h ****     n->prev->next = n->next;
 634              		.loc 2 89 5 is_stmt 1 discriminator 3 view .LVU181
 635              		.loc 2 89 22 is_stmt 0 discriminator 3 view .LVU182
 636 0014 6169     		ldr	r1, [r4, #20]
 637              		.loc 2 89 19 discriminator 3 view .LVU183
 638 0016 1160     		str	r1, [r2]
  90:Middlewares/Third_Party/RealThread_RTOS/include/rtservice.h **** 
  91:Middlewares/Third_Party/RealThread_RTOS/include/rtservice.h ****     n->next = n->prev = n;
 639              		.loc 2 91 5 is_stmt 1 discriminator 3 view .LVU184
 640              		.loc 2 91 23 is_stmt 0 discriminator 3 view .LVU185
 641 0018 A361     		str	r3, [r4, #24]
 642              		.loc 2 91 13 discriminator 3 view .LVU186
 643 001a 6361     		str	r3, [r4, #20]
 644              	.LBE23:
 645              	.LBE22:
 346:Middlewares/Third_Party/RealThread_RTOS/src/scheduler.c ****     if (rt_list_isempty(&(rt_thread_priority_table[thread->current_priority])))
 646              		.loc 1 346 5 is_stmt 1 discriminator 3 view .LVU187
 647              		.loc 1 346 58 is_stmt 0 discriminator 3 view .LVU188
 648 001c 94F83520 		ldrb	r2, [r4, #53]	@ zero_extendqisi2
 649              		.loc 1 346 25 discriminator 3 view .LVU189
 650 0020 0B4B     		ldr	r3, .L44
 651 0022 03EBC201 		add	r1, r3, r2, lsl #3
 652              	.LVL51:
 653              	.LBB24:
 654              	.LBI24:
  92:Middlewares/Third_Party/RealThread_RTOS/include/rtservice.h **** }
  93:Middlewares/Third_Party/RealThread_RTOS/include/rtservice.h **** 
  94:Middlewares/Third_Party/RealThread_RTOS/include/rtservice.h **** /**
  95:Middlewares/Third_Party/RealThread_RTOS/include/rtservice.h ****  * @brief tests whether a list is empty
  96:Middlewares/Third_Party/RealThread_RTOS/include/rtservice.h ****  * @param l the list to test.
  97:Middlewares/Third_Party/RealThread_RTOS/include/rtservice.h ****  */
  98:Middlewares/Third_Party/RealThread_RTOS/include/rtservice.h **** rt_inline int rt_list_isempty(const rt_list_t *l)
 655              		.loc 2 98 15 is_stmt 1 discriminator 3 view .LVU190
 656              	.LBB25:
  99:Middlewares/Third_Party/RealThread_RTOS/include/rtservice.h **** {
 100:Middlewares/Third_Party/RealThread_RTOS/include/rtservice.h ****     return l->next == l;
 657              		.loc 2 100 5 discriminator 3 view .LVU191
 658              		.loc 2 100 13 is_stmt 0 discriminator 3 view .LVU192
 659 0026 53F83230 		ldr	r3, [r3, r2, lsl #3]
 660              	.LVL52:
 661              		.loc 2 100 13 discriminator 3 view .LVU193
 662              	.LBE25:
 663              	.LBE24:
 664              		.loc 1 346 8 discriminator 3 view .LVU194
 665 002a 9942     		cmp	r1, r3
 666 002c 09D0     		beq	.L43
 667              	.L40:
 347:Middlewares/Third_Party/RealThread_RTOS/src/scheduler.c ****     {
 348:Middlewares/Third_Party/RealThread_RTOS/src/scheduler.c **** #if RT_THREAD_PRIORITY_MAX > 32
 349:Middlewares/Third_Party/RealThread_RTOS/src/scheduler.c ****         rt_thread_ready_table[thread->number] &= ~thread->high_mask;
 350:Middlewares/Third_Party/RealThread_RTOS/src/scheduler.c ****         if (rt_thread_ready_table[thread->number] == 0)
 351:Middlewares/Third_Party/RealThread_RTOS/src/scheduler.c ****         {
 352:Middlewares/Third_Party/RealThread_RTOS/src/scheduler.c ****             rt_thread_ready_priority_group &= ~thread->number_mask;
ARM GAS  C:\Users\Administrator\AppData\Local\Temp\cc5PlrjZ.s 			page 21


 353:Middlewares/Third_Party/RealThread_RTOS/src/scheduler.c ****         }
 354:Middlewares/Third_Party/RealThread_RTOS/src/scheduler.c **** #else
 355:Middlewares/Third_Party/RealThread_RTOS/src/scheduler.c ****         rt_thread_ready_priority_group &= ~thread->number_mask;
 356:Middlewares/Third_Party/RealThread_RTOS/src/scheduler.c **** #endif
 357:Middlewares/Third_Party/RealThread_RTOS/src/scheduler.c ****     }
 358:Middlewares/Third_Party/RealThread_RTOS/src/scheduler.c **** 
 359:Middlewares/Third_Party/RealThread_RTOS/src/scheduler.c ****     /* enable interrupt */
 360:Middlewares/Third_Party/RealThread_RTOS/src/scheduler.c ****     rt_hw_interrupt_enable(temp);
 668              		.loc 1 360 5 is_stmt 1 view .LVU195
 669 002e FFF7FEFF 		bl	rt_hw_interrupt_enable
 670              	.LVL53:
 361:Middlewares/Third_Party/RealThread_RTOS/src/scheduler.c **** }
 671              		.loc 1 361 1 is_stmt 0 view .LVU196
 672 0032 10BD     		pop	{r4, pc}
 673              	.LVL54:
 674              	.L42:
 325:Middlewares/Third_Party/RealThread_RTOS/src/scheduler.c **** 
 675              		.loc 1 325 5 is_stmt 1 discriminator 1 view .LVU197
 676 0034 40F24512 		movw	r2, #325
 677 0038 0649     		ldr	r1, .L44+4
 678 003a 0748     		ldr	r0, .L44+8
 679              	.LVL55:
 325:Middlewares/Third_Party/RealThread_RTOS/src/scheduler.c **** 
 680              		.loc 1 325 5 is_stmt 0 discriminator 1 view .LVU198
 681 003c FFF7FEFF 		bl	rt_assert_handler
 682              	.LVL56:
 683 0040 E1E7     		b	.L39
 684              	.LVL57:
 685              	.L43:
 355:Middlewares/Third_Party/RealThread_RTOS/src/scheduler.c **** #endif
 686              		.loc 1 355 9 is_stmt 1 view .LVU199
 355:Middlewares/Third_Party/RealThread_RTOS/src/scheduler.c **** #endif
 687              		.loc 1 355 50 is_stmt 0 view .LVU200
 688 0042 A16B     		ldr	r1, [r4, #56]
 355:Middlewares/Third_Party/RealThread_RTOS/src/scheduler.c **** #endif
 689              		.loc 1 355 40 view .LVU201
 690 0044 054A     		ldr	r2, .L44+12
 691 0046 1368     		ldr	r3, [r2]
 692 0048 23EA0103 		bic	r3, r3, r1
 693 004c 1360     		str	r3, [r2]
 694 004e EEE7     		b	.L40
 695              	.L45:
 696              		.align	2
 697              	.L44:
 698 0050 00000000 		.word	.LANCHOR3
 699 0054 00000000 		.word	.LANCHOR9
 700 0058 00000000 		.word	.LC0
 701 005c 00000000 		.word	.LANCHOR6
 702              		.cfi_endproc
 703              	.LFE21:
 705              		.section	.text.rt_enter_critical,"ax",%progbits
 706              		.align	1
 707              		.global	rt_enter_critical
 708              		.syntax unified
 709              		.thumb
 710              		.thumb_func
 711              		.fpu softvfp
ARM GAS  C:\Users\Administrator\AppData\Local\Temp\cc5PlrjZ.s 			page 22


 713              	rt_enter_critical:
 714              	.LFB22:
 362:Middlewares/Third_Party/RealThread_RTOS/src/scheduler.c **** 
 363:Middlewares/Third_Party/RealThread_RTOS/src/scheduler.c **** /**
 364:Middlewares/Third_Party/RealThread_RTOS/src/scheduler.c ****  * This function will lock the thread scheduler.
 365:Middlewares/Third_Party/RealThread_RTOS/src/scheduler.c ****  */
 366:Middlewares/Third_Party/RealThread_RTOS/src/scheduler.c **** void rt_enter_critical(void)
 367:Middlewares/Third_Party/RealThread_RTOS/src/scheduler.c **** {
 715              		.loc 1 367 1 is_stmt 1 view -0
 716              		.cfi_startproc
 717              		@ args = 0, pretend = 0, frame = 0
 718              		@ frame_needed = 0, uses_anonymous_args = 0
 719 0000 08B5     		push	{r3, lr}
 720              	.LCFI5:
 721              		.cfi_def_cfa_offset 8
 722              		.cfi_offset 3, -8
 723              		.cfi_offset 14, -4
 368:Middlewares/Third_Party/RealThread_RTOS/src/scheduler.c ****     register rt_base_t level;
 724              		.loc 1 368 5 view .LVU203
 369:Middlewares/Third_Party/RealThread_RTOS/src/scheduler.c **** 
 370:Middlewares/Third_Party/RealThread_RTOS/src/scheduler.c ****     /* disable interrupt */
 371:Middlewares/Third_Party/RealThread_RTOS/src/scheduler.c ****     level = rt_hw_interrupt_disable();
 725              		.loc 1 371 5 view .LVU204
 726              		.loc 1 371 13 is_stmt 0 view .LVU205
 727 0002 FFF7FEFF 		bl	rt_hw_interrupt_disable
 728              	.LVL58:
 372:Middlewares/Third_Party/RealThread_RTOS/src/scheduler.c **** 
 373:Middlewares/Third_Party/RealThread_RTOS/src/scheduler.c ****     /*
 374:Middlewares/Third_Party/RealThread_RTOS/src/scheduler.c ****      * the maximal number of nest is RT_UINT16_MAX, which is big
 375:Middlewares/Third_Party/RealThread_RTOS/src/scheduler.c ****      * enough and does not check here
 376:Middlewares/Third_Party/RealThread_RTOS/src/scheduler.c ****      */
 377:Middlewares/Third_Party/RealThread_RTOS/src/scheduler.c ****     rt_scheduler_lock_nest ++;
 729              		.loc 1 377 5 is_stmt 1 view .LVU206
 730              		.loc 1 377 28 is_stmt 0 view .LVU207
 731 0006 034A     		ldr	r2, .L48
 732 0008 1388     		ldrh	r3, [r2]
 733 000a 0133     		adds	r3, r3, #1
 734 000c 1380     		strh	r3, [r2]	@ movhi
 378:Middlewares/Third_Party/RealThread_RTOS/src/scheduler.c **** 
 379:Middlewares/Third_Party/RealThread_RTOS/src/scheduler.c ****     /* enable interrupt */
 380:Middlewares/Third_Party/RealThread_RTOS/src/scheduler.c ****     rt_hw_interrupt_enable(level);
 735              		.loc 1 380 5 is_stmt 1 view .LVU208
 736 000e FFF7FEFF 		bl	rt_hw_interrupt_enable
 737              	.LVL59:
 381:Middlewares/Third_Party/RealThread_RTOS/src/scheduler.c **** }
 738              		.loc 1 381 1 is_stmt 0 view .LVU209
 739 0012 08BD     		pop	{r3, pc}
 740              	.L49:
 741              		.align	2
 742              	.L48:
 743 0014 00000000 		.word	.LANCHOR2
 744              		.cfi_endproc
 745              	.LFE22:
 747              		.section	.text.rt_exit_critical,"ax",%progbits
 748              		.align	1
 749              		.global	rt_exit_critical
 750              		.syntax unified
ARM GAS  C:\Users\Administrator\AppData\Local\Temp\cc5PlrjZ.s 			page 23


 751              		.thumb
 752              		.thumb_func
 753              		.fpu softvfp
 755              	rt_exit_critical:
 756              	.LFB23:
 382:Middlewares/Third_Party/RealThread_RTOS/src/scheduler.c **** 
 383:Middlewares/Third_Party/RealThread_RTOS/src/scheduler.c **** /**
 384:Middlewares/Third_Party/RealThread_RTOS/src/scheduler.c ****  * This function will unlock the thread scheduler.
 385:Middlewares/Third_Party/RealThread_RTOS/src/scheduler.c ****  */
 386:Middlewares/Third_Party/RealThread_RTOS/src/scheduler.c **** void rt_exit_critical(void)
 387:Middlewares/Third_Party/RealThread_RTOS/src/scheduler.c **** {
 757              		.loc 1 387 1 is_stmt 1 view -0
 758              		.cfi_startproc
 759              		@ args = 0, pretend = 0, frame = 0
 760              		@ frame_needed = 0, uses_anonymous_args = 0
 761 0000 08B5     		push	{r3, lr}
 762              	.LCFI6:
 763              		.cfi_def_cfa_offset 8
 764              		.cfi_offset 3, -8
 765              		.cfi_offset 14, -4
 388:Middlewares/Third_Party/RealThread_RTOS/src/scheduler.c ****     register rt_base_t level;
 766              		.loc 1 388 5 view .LVU211
 389:Middlewares/Third_Party/RealThread_RTOS/src/scheduler.c **** 
 390:Middlewares/Third_Party/RealThread_RTOS/src/scheduler.c ****     /* disable interrupt */
 391:Middlewares/Third_Party/RealThread_RTOS/src/scheduler.c ****     level = rt_hw_interrupt_disable();
 767              		.loc 1 391 5 view .LVU212
 768              		.loc 1 391 13 is_stmt 0 view .LVU213
 769 0002 FFF7FEFF 		bl	rt_hw_interrupt_disable
 770              	.LVL60:
 392:Middlewares/Third_Party/RealThread_RTOS/src/scheduler.c **** 
 393:Middlewares/Third_Party/RealThread_RTOS/src/scheduler.c ****     rt_scheduler_lock_nest --;
 771              		.loc 1 393 5 is_stmt 1 view .LVU214
 772              		.loc 1 393 28 is_stmt 0 view .LVU215
 773 0006 0B4A     		ldr	r2, .L55
 774 0008 1388     		ldrh	r3, [r2]
 775 000a 013B     		subs	r3, r3, #1
 776 000c 1BB2     		sxth	r3, r3
 777 000e 1380     		strh	r3, [r2]	@ movhi
 394:Middlewares/Third_Party/RealThread_RTOS/src/scheduler.c ****     if (rt_scheduler_lock_nest <= 0)
 778              		.loc 1 394 5 is_stmt 1 view .LVU216
 779              		.loc 1 394 8 is_stmt 0 view .LVU217
 780 0010 002B     		cmp	r3, #0
 781 0012 02DD     		ble	.L54
 395:Middlewares/Third_Party/RealThread_RTOS/src/scheduler.c ****     {
 396:Middlewares/Third_Party/RealThread_RTOS/src/scheduler.c ****         rt_scheduler_lock_nest = 0;
 397:Middlewares/Third_Party/RealThread_RTOS/src/scheduler.c ****         /* enable interrupt */
 398:Middlewares/Third_Party/RealThread_RTOS/src/scheduler.c ****         rt_hw_interrupt_enable(level);
 399:Middlewares/Third_Party/RealThread_RTOS/src/scheduler.c **** 
 400:Middlewares/Third_Party/RealThread_RTOS/src/scheduler.c ****         if (rt_current_thread)
 401:Middlewares/Third_Party/RealThread_RTOS/src/scheduler.c ****         {
 402:Middlewares/Third_Party/RealThread_RTOS/src/scheduler.c ****             /* if scheduler is started, do a schedule */
 403:Middlewares/Third_Party/RealThread_RTOS/src/scheduler.c ****             rt_schedule();
 404:Middlewares/Third_Party/RealThread_RTOS/src/scheduler.c ****         }
 405:Middlewares/Third_Party/RealThread_RTOS/src/scheduler.c ****     }
 406:Middlewares/Third_Party/RealThread_RTOS/src/scheduler.c ****     else
 407:Middlewares/Third_Party/RealThread_RTOS/src/scheduler.c ****     {
 408:Middlewares/Third_Party/RealThread_RTOS/src/scheduler.c ****         /* enable interrupt */
ARM GAS  C:\Users\Administrator\AppData\Local\Temp\cc5PlrjZ.s 			page 24


 409:Middlewares/Third_Party/RealThread_RTOS/src/scheduler.c ****         rt_hw_interrupt_enable(level);
 782              		.loc 1 409 9 is_stmt 1 view .LVU218
 783 0014 FFF7FEFF 		bl	rt_hw_interrupt_enable
 784              	.LVL61:
 785              	.L50:
 410:Middlewares/Third_Party/RealThread_RTOS/src/scheduler.c ****     }
 411:Middlewares/Third_Party/RealThread_RTOS/src/scheduler.c **** }
 786              		.loc 1 411 1 is_stmt 0 view .LVU219
 787 0018 08BD     		pop	{r3, pc}
 788              	.LVL62:
 789              	.L54:
 396:Middlewares/Third_Party/RealThread_RTOS/src/scheduler.c ****         /* enable interrupt */
 790              		.loc 1 396 9 is_stmt 1 view .LVU220
 396:Middlewares/Third_Party/RealThread_RTOS/src/scheduler.c ****         /* enable interrupt */
 791              		.loc 1 396 32 is_stmt 0 view .LVU221
 792 001a 1346     		mov	r3, r2
 793 001c 0022     		movs	r2, #0
 794 001e 1A80     		strh	r2, [r3]	@ movhi
 398:Middlewares/Third_Party/RealThread_RTOS/src/scheduler.c **** 
 795              		.loc 1 398 9 is_stmt 1 view .LVU222
 796 0020 FFF7FEFF 		bl	rt_hw_interrupt_enable
 797              	.LVL63:
 400:Middlewares/Third_Party/RealThread_RTOS/src/scheduler.c ****         {
 798              		.loc 1 400 9 view .LVU223
 400:Middlewares/Third_Party/RealThread_RTOS/src/scheduler.c ****         {
 799              		.loc 1 400 13 is_stmt 0 view .LVU224
 800 0024 044B     		ldr	r3, .L55+4
 801 0026 1B68     		ldr	r3, [r3]
 400:Middlewares/Third_Party/RealThread_RTOS/src/scheduler.c ****         {
 802              		.loc 1 400 12 view .LVU225
 803 0028 002B     		cmp	r3, #0
 804 002a F5D0     		beq	.L50
 403:Middlewares/Third_Party/RealThread_RTOS/src/scheduler.c ****         }
 805              		.loc 1 403 13 is_stmt 1 view .LVU226
 806 002c FFF7FEFF 		bl	rt_schedule
 807              	.LVL64:
 808 0030 F2E7     		b	.L50
 809              	.L56:
 810 0032 00BF     		.align	2
 811              	.L55:
 812 0034 00000000 		.word	.LANCHOR2
 813 0038 00000000 		.word	.LANCHOR5
 814              		.cfi_endproc
 815              	.LFE23:
 817              		.section	.text.rt_critical_level,"ax",%progbits
 818              		.align	1
 819              		.global	rt_critical_level
 820              		.syntax unified
 821              		.thumb
 822              		.thumb_func
 823              		.fpu softvfp
 825              	rt_critical_level:
 826              	.LFB24:
 412:Middlewares/Third_Party/RealThread_RTOS/src/scheduler.c **** 
 413:Middlewares/Third_Party/RealThread_RTOS/src/scheduler.c **** /**
 414:Middlewares/Third_Party/RealThread_RTOS/src/scheduler.c ****  * Get the scheduler lock level
 415:Middlewares/Third_Party/RealThread_RTOS/src/scheduler.c ****  *
ARM GAS  C:\Users\Administrator\AppData\Local\Temp\cc5PlrjZ.s 			page 25


 416:Middlewares/Third_Party/RealThread_RTOS/src/scheduler.c ****  * @return the level of the scheduler lock. 0 means unlocked.
 417:Middlewares/Third_Party/RealThread_RTOS/src/scheduler.c ****  */
 418:Middlewares/Third_Party/RealThread_RTOS/src/scheduler.c **** rt_uint16_t rt_critical_level(void)
 419:Middlewares/Third_Party/RealThread_RTOS/src/scheduler.c **** {
 827              		.loc 1 419 1 view -0
 828              		.cfi_startproc
 829              		@ args = 0, pretend = 0, frame = 0
 830              		@ frame_needed = 0, uses_anonymous_args = 0
 831              		@ link register save eliminated.
 420:Middlewares/Third_Party/RealThread_RTOS/src/scheduler.c ****     return rt_scheduler_lock_nest;
 832              		.loc 1 420 5 view .LVU228
 421:Middlewares/Third_Party/RealThread_RTOS/src/scheduler.c **** }
 833              		.loc 1 421 1 is_stmt 0 view .LVU229
 834 0000 014B     		ldr	r3, .L58
 835 0002 1888     		ldrh	r0, [r3]
 836 0004 7047     		bx	lr
 837              	.L59:
 838 0006 00BF     		.align	2
 839              	.L58:
 840 0008 00000000 		.word	.LANCHOR2
 841              		.cfi_endproc
 842              	.LFE24:
 844              		.global	rt_thread_defunct
 845              		.global	rt_current_priority
 846              		.global	rt_current_thread
 847              		.global	rt_thread_ready_priority_group
 848              		.global	rt_thread_priority_table
 849              		.section	.bss.rt_current_priority,"aw",%nobits
 850              		.set	.LANCHOR4,. + 0
 853              	rt_current_priority:
 854 0000 00       		.space	1
 855              		.section	.bss.rt_current_thread,"aw",%nobits
 856              		.align	2
 857              		.set	.LANCHOR5,. + 0
 860              	rt_current_thread:
 861 0000 00000000 		.space	4
 862              		.section	.bss.rt_scheduler_hook,"aw",%nobits
 863              		.align	2
 864              		.set	.LANCHOR1,. + 0
 867              	rt_scheduler_hook:
 868 0000 00000000 		.space	4
 869              		.section	.bss.rt_scheduler_lock_nest,"aw",%nobits
 870              		.align	1
 871              		.set	.LANCHOR2,. + 0
 874              	rt_scheduler_lock_nest:
 875 0000 0000     		.space	2
 876              		.section	.bss.rt_thread_defunct,"aw",%nobits
 877              		.align	2
 878              		.set	.LANCHOR7,. + 0
 881              	rt_thread_defunct:
 882 0000 00000000 		.space	8
 882      00000000 
 883              		.section	.bss.rt_thread_priority_table,"aw",%nobits
 884              		.align	2
 885              		.set	.LANCHOR3,. + 0
 888              	rt_thread_priority_table:
 889 0000 00000000 		.space	256
ARM GAS  C:\Users\Administrator\AppData\Local\Temp\cc5PlrjZ.s 			page 26


 889      00000000 
 889      00000000 
 889      00000000 
 889      00000000 
 890              		.section	.bss.rt_thread_ready_priority_group,"aw",%nobits
 891              		.align	2
 892              		.set	.LANCHOR6,. + 0
 895              	rt_thread_ready_priority_group:
 896 0000 00000000 		.space	4
 897              		.section	.rodata.__FUNCTION__.0,"a"
 898              		.align	2
 899              		.set	.LANCHOR9,. + 0
 902              	__FUNCTION__.0:
 903 0000 72745F73 		.ascii	"rt_schedule_remove_thread\000"
 903      63686564 
 903      756C655F 
 903      72656D6F 
 903      76655F74 
 904              		.section	.rodata.__FUNCTION__.1,"a"
 905              		.align	2
 906              		.set	.LANCHOR8,. + 0
 909              	__FUNCTION__.1:
 910 0000 72745F73 		.ascii	"rt_schedule_insert_thread\000"
 910      63686564 
 910      756C655F 
 910      696E7365 
 910      72745F74 
 911              		.section	.rodata.__FUNCTION__.2,"a"
 912              		.align	2
 913              		.set	.LANCHOR0,. + 0
 916              	__FUNCTION__.2:
 917 0000 5F72745F 		.ascii	"_rt_scheduler_stack_check\000"
 917      73636865 
 917      64756C65 
 917      725F7374 
 917      61636B5F 
 918              		.text
 919              	.Letext0:
 920              		.file 3 "Middlewares/Third_Party/RealThread_RTOS/include/rtdef.h"
 921              		.file 4 "Middlewares/Third_Party/RealThread_RTOS/include/rthw.h"
 922              		.file 5 "Middlewares/Third_Party/RealThread_RTOS/include/rtthread.h"
ARM GAS  C:\Users\Administrator\AppData\Local\Temp\cc5PlrjZ.s 			page 27


DEFINED SYMBOLS
                            *ABS*:00000000 scheduler.c
C:\Users\Administrator\AppData\Local\Temp\cc5PlrjZ.s:16     .rodata._rt_scheduler_stack_check.str1.4:00000000 $d
C:\Users\Administrator\AppData\Local\Temp\cc5PlrjZ.s:27     .text._rt_scheduler_stack_check:00000000 $t
C:\Users\Administrator\AppData\Local\Temp\cc5PlrjZ.s:34     .text._rt_scheduler_stack_check:00000000 _rt_scheduler_stack_check
C:\Users\Administrator\AppData\Local\Temp\cc5PlrjZ.s:132    .text._rt_scheduler_stack_check:00000050 $d
C:\Users\Administrator\AppData\Local\Temp\cc5PlrjZ.s:140    .text.rt_scheduler_sethook:00000000 $t
C:\Users\Administrator\AppData\Local\Temp\cc5PlrjZ.s:147    .text.rt_scheduler_sethook:00000000 rt_scheduler_sethook
C:\Users\Administrator\AppData\Local\Temp\cc5PlrjZ.s:164    .text.rt_scheduler_sethook:00000008 $d
C:\Users\Administrator\AppData\Local\Temp\cc5PlrjZ.s:169    .text.rt_system_scheduler_init:00000000 $t
C:\Users\Administrator\AppData\Local\Temp\cc5PlrjZ.s:176    .text.rt_system_scheduler_init:00000000 rt_system_scheduler_init
C:\Users\Administrator\AppData\Local\Temp\cc5PlrjZ.s:262    .text.rt_system_scheduler_init:00000034 $d
C:\Users\Administrator\AppData\Local\Temp\cc5PlrjZ.s:272    .text.rt_system_scheduler_start:00000000 $t
C:\Users\Administrator\AppData\Local\Temp\cc5PlrjZ.s:279    .text.rt_system_scheduler_start:00000000 rt_system_scheduler_start
C:\Users\Administrator\AppData\Local\Temp\cc5PlrjZ.s:322    .text.rt_system_scheduler_start:00000024 $d
C:\Users\Administrator\AppData\Local\Temp\cc5PlrjZ.s:329    .text.rt_schedule:00000000 $t
C:\Users\Administrator\AppData\Local\Temp\cc5PlrjZ.s:336    .text.rt_schedule:00000000 rt_schedule
C:\Users\Administrator\AppData\Local\Temp\cc5PlrjZ.s:465    .text.rt_schedule:00000074 $d
C:\Users\Administrator\AppData\Local\Temp\cc5PlrjZ.s:477    .text.rt_schedule_insert_thread:00000000 $t
C:\Users\Administrator\AppData\Local\Temp\cc5PlrjZ.s:484    .text.rt_schedule_insert_thread:00000000 rt_schedule_insert_thread
C:\Users\Administrator\AppData\Local\Temp\cc5PlrjZ.s:579    .text.rt_schedule_insert_thread:00000054 $d
C:\Users\Administrator\AppData\Local\Temp\cc5PlrjZ.s:587    .text.rt_schedule_remove_thread:00000000 $t
C:\Users\Administrator\AppData\Local\Temp\cc5PlrjZ.s:594    .text.rt_schedule_remove_thread:00000000 rt_schedule_remove_thread
C:\Users\Administrator\AppData\Local\Temp\cc5PlrjZ.s:698    .text.rt_schedule_remove_thread:00000050 $d
C:\Users\Administrator\AppData\Local\Temp\cc5PlrjZ.s:706    .text.rt_enter_critical:00000000 $t
C:\Users\Administrator\AppData\Local\Temp\cc5PlrjZ.s:713    .text.rt_enter_critical:00000000 rt_enter_critical
C:\Users\Administrator\AppData\Local\Temp\cc5PlrjZ.s:743    .text.rt_enter_critical:00000014 $d
C:\Users\Administrator\AppData\Local\Temp\cc5PlrjZ.s:748    .text.rt_exit_critical:00000000 $t
C:\Users\Administrator\AppData\Local\Temp\cc5PlrjZ.s:755    .text.rt_exit_critical:00000000 rt_exit_critical
C:\Users\Administrator\AppData\Local\Temp\cc5PlrjZ.s:812    .text.rt_exit_critical:00000034 $d
C:\Users\Administrator\AppData\Local\Temp\cc5PlrjZ.s:818    .text.rt_critical_level:00000000 $t
C:\Users\Administrator\AppData\Local\Temp\cc5PlrjZ.s:825    .text.rt_critical_level:00000000 rt_critical_level
C:\Users\Administrator\AppData\Local\Temp\cc5PlrjZ.s:840    .text.rt_critical_level:00000008 $d
C:\Users\Administrator\AppData\Local\Temp\cc5PlrjZ.s:881    .bss.rt_thread_defunct:00000000 rt_thread_defunct
C:\Users\Administrator\AppData\Local\Temp\cc5PlrjZ.s:853    .bss.rt_current_priority:00000000 rt_current_priority
C:\Users\Administrator\AppData\Local\Temp\cc5PlrjZ.s:860    .bss.rt_current_thread:00000000 rt_current_thread
C:\Users\Administrator\AppData\Local\Temp\cc5PlrjZ.s:895    .bss.rt_thread_ready_priority_group:00000000 rt_thread_ready_priority_group
C:\Users\Administrator\AppData\Local\Temp\cc5PlrjZ.s:888    .bss.rt_thread_priority_table:00000000 rt_thread_priority_table
C:\Users\Administrator\AppData\Local\Temp\cc5PlrjZ.s:854    .bss.rt_current_priority:00000000 $d
C:\Users\Administrator\AppData\Local\Temp\cc5PlrjZ.s:856    .bss.rt_current_thread:00000000 $d
C:\Users\Administrator\AppData\Local\Temp\cc5PlrjZ.s:863    .bss.rt_scheduler_hook:00000000 $d
C:\Users\Administrator\AppData\Local\Temp\cc5PlrjZ.s:867    .bss.rt_scheduler_hook:00000000 rt_scheduler_hook
C:\Users\Administrator\AppData\Local\Temp\cc5PlrjZ.s:870    .bss.rt_scheduler_lock_nest:00000000 $d
C:\Users\Administrator\AppData\Local\Temp\cc5PlrjZ.s:874    .bss.rt_scheduler_lock_nest:00000000 rt_scheduler_lock_nest
C:\Users\Administrator\AppData\Local\Temp\cc5PlrjZ.s:877    .bss.rt_thread_defunct:00000000 $d
C:\Users\Administrator\AppData\Local\Temp\cc5PlrjZ.s:884    .bss.rt_thread_priority_table:00000000 $d
C:\Users\Administrator\AppData\Local\Temp\cc5PlrjZ.s:891    .bss.rt_thread_ready_priority_group:00000000 $d
C:\Users\Administrator\AppData\Local\Temp\cc5PlrjZ.s:898    .rodata.__FUNCTION__.0:00000000 $d
C:\Users\Administrator\AppData\Local\Temp\cc5PlrjZ.s:902    .rodata.__FUNCTION__.0:00000000 __FUNCTION__.0
C:\Users\Administrator\AppData\Local\Temp\cc5PlrjZ.s:905    .rodata.__FUNCTION__.1:00000000 $d
C:\Users\Administrator\AppData\Local\Temp\cc5PlrjZ.s:909    .rodata.__FUNCTION__.1:00000000 __FUNCTION__.1
C:\Users\Administrator\AppData\Local\Temp\cc5PlrjZ.s:912    .rodata.__FUNCTION__.2:00000000 $d
C:\Users\Administrator\AppData\Local\Temp\cc5PlrjZ.s:916    .rodata.__FUNCTION__.2:00000000 __FUNCTION__.2

UNDEFINED SYMBOLS
rt_kprintf
list_thread
ARM GAS  C:\Users\Administrator\AppData\Local\Temp\cc5PlrjZ.s 			page 28


rt_hw_interrupt_disable
rt_assert_handler
__rt_ffs
rt_hw_context_switch_to
rt_hw_context_switch_interrupt
rt_hw_interrupt_enable
rt_hw_context_switch
rt_interrupt_nest
