ARM GAS  C:\Users\Administrator\AppData\Local\Temp\cchb52ze.s 			page 1


   1              		.cpu cortex-m4
   2              		.eabi_attribute 20, 1
   3              		.eabi_attribute 21, 1
   4              		.eabi_attribute 23, 3
   5              		.eabi_attribute 24, 1
   6              		.eabi_attribute 25, 1
   7              		.eabi_attribute 26, 1
   8              		.eabi_attribute 30, 1
   9              		.eabi_attribute 34, 1
  10              		.eabi_attribute 18, 4
  11              		.file	"shell.c"
  12              		.text
  13              	.Ltext0:
  14              		.cfi_sections	.debug_frame
  15              		.section	.rodata.finsh_rx_ind.str1.4,"aMS",%progbits,1
  16              		.align	2
  17              	.LC0:
  18 0000 7368656C 		.ascii	"shell != RT_NULL\000"
  18      6C20213D 
  18      2052545F 
  18      4E554C4C 
  18      00
  19              		.section	.text.finsh_rx_ind,"ax",%progbits
  20              		.align	1
  21              		.arch armv7e-m
  22              		.syntax unified
  23              		.thumb
  24              		.thumb_func
  25              		.fpu softvfp
  27              	finsh_rx_ind:
  28              	.LVL0:
  29              	.LFB23:
  30              		.file 1 "Middlewares/Third_Party/RealThread_RTOS/components/finsh/shell.c"
   1:Middlewares/Third_Party/RealThread_RTOS/components/finsh/shell.c **** /*
   2:Middlewares/Third_Party/RealThread_RTOS/components/finsh/shell.c ****  * Copyright (c) 2006-2021, RT-Thread Development Team
   3:Middlewares/Third_Party/RealThread_RTOS/components/finsh/shell.c ****  *
   4:Middlewares/Third_Party/RealThread_RTOS/components/finsh/shell.c ****  * SPDX-License-Identifier: Apache-2.0
   5:Middlewares/Third_Party/RealThread_RTOS/components/finsh/shell.c ****  *
   6:Middlewares/Third_Party/RealThread_RTOS/components/finsh/shell.c ****  * Change Logs:
   7:Middlewares/Third_Party/RealThread_RTOS/components/finsh/shell.c ****  * Date           Author       Notes
   8:Middlewares/Third_Party/RealThread_RTOS/components/finsh/shell.c ****  * 2006-04-30     Bernard      the first version for FinSH
   9:Middlewares/Third_Party/RealThread_RTOS/components/finsh/shell.c ****  * 2006-05-08     Bernard      change finsh thread stack to 2048
  10:Middlewares/Third_Party/RealThread_RTOS/components/finsh/shell.c ****  * 2006-06-03     Bernard      add support for skyeye
  11:Middlewares/Third_Party/RealThread_RTOS/components/finsh/shell.c ****  * 2006-09-24     Bernard      remove the code related with hardware
  12:Middlewares/Third_Party/RealThread_RTOS/components/finsh/shell.c ****  * 2010-01-18     Bernard      fix down then up key bug.
  13:Middlewares/Third_Party/RealThread_RTOS/components/finsh/shell.c ****  * 2010-03-19     Bernard      fix backspace issue and fix device read in shell.
  14:Middlewares/Third_Party/RealThread_RTOS/components/finsh/shell.c ****  * 2010-04-01     Bernard      add prompt output when start and remove the empty history
  15:Middlewares/Third_Party/RealThread_RTOS/components/finsh/shell.c ****  * 2011-02-23     Bernard      fix variable section end issue of finsh shell
  16:Middlewares/Third_Party/RealThread_RTOS/components/finsh/shell.c ****  *                             initialization when use GNU GCC compiler.
  17:Middlewares/Third_Party/RealThread_RTOS/components/finsh/shell.c ****  * 2016-11-26     armink       add password authentication
  18:Middlewares/Third_Party/RealThread_RTOS/components/finsh/shell.c ****  * 2018-07-02     aozima       add custome prompt support.
  19:Middlewares/Third_Party/RealThread_RTOS/components/finsh/shell.c ****  */
  20:Middlewares/Third_Party/RealThread_RTOS/components/finsh/shell.c **** 
  21:Middlewares/Third_Party/RealThread_RTOS/components/finsh/shell.c **** #include <rthw.h>
  22:Middlewares/Third_Party/RealThread_RTOS/components/finsh/shell.c **** #include <finsh_config.h>
  23:Middlewares/Third_Party/RealThread_RTOS/components/finsh/shell.c **** 
  24:Middlewares/Third_Party/RealThread_RTOS/components/finsh/shell.c **** #ifdef RT_USING_FINSH
ARM GAS  C:\Users\Administrator\AppData\Local\Temp\cchb52ze.s 			page 2


  25:Middlewares/Third_Party/RealThread_RTOS/components/finsh/shell.c **** 
  26:Middlewares/Third_Party/RealThread_RTOS/components/finsh/shell.c **** #include "finsh.h"
  27:Middlewares/Third_Party/RealThread_RTOS/components/finsh/shell.c **** #include "shell.h"
  28:Middlewares/Third_Party/RealThread_RTOS/components/finsh/shell.c **** 
  29:Middlewares/Third_Party/RealThread_RTOS/components/finsh/shell.c **** #ifdef FINSH_USING_MSH
  30:Middlewares/Third_Party/RealThread_RTOS/components/finsh/shell.c **** #include "msh.h"
  31:Middlewares/Third_Party/RealThread_RTOS/components/finsh/shell.c **** #endif
  32:Middlewares/Third_Party/RealThread_RTOS/components/finsh/shell.c **** 
  33:Middlewares/Third_Party/RealThread_RTOS/components/finsh/shell.c **** #ifdef _WIN32
  34:Middlewares/Third_Party/RealThread_RTOS/components/finsh/shell.c **** #include <stdio.h> /* for putchar */
  35:Middlewares/Third_Party/RealThread_RTOS/components/finsh/shell.c **** #endif
  36:Middlewares/Third_Party/RealThread_RTOS/components/finsh/shell.c **** 
  37:Middlewares/Third_Party/RealThread_RTOS/components/finsh/shell.c **** /* finsh thread */
  38:Middlewares/Third_Party/RealThread_RTOS/components/finsh/shell.c **** #ifndef RT_USING_HEAP
  39:Middlewares/Third_Party/RealThread_RTOS/components/finsh/shell.c **** static struct rt_thread finsh_thread;
  40:Middlewares/Third_Party/RealThread_RTOS/components/finsh/shell.c **** ALIGN(RT_ALIGN_SIZE)
  41:Middlewares/Third_Party/RealThread_RTOS/components/finsh/shell.c **** static char finsh_thread_stack[FINSH_THREAD_STACK_SIZE];
  42:Middlewares/Third_Party/RealThread_RTOS/components/finsh/shell.c **** struct finsh_shell _shell;
  43:Middlewares/Third_Party/RealThread_RTOS/components/finsh/shell.c **** #endif
  44:Middlewares/Third_Party/RealThread_RTOS/components/finsh/shell.c **** 
  45:Middlewares/Third_Party/RealThread_RTOS/components/finsh/shell.c **** /* finsh symtab */
  46:Middlewares/Third_Party/RealThread_RTOS/components/finsh/shell.c **** #ifdef FINSH_USING_SYMTAB
  47:Middlewares/Third_Party/RealThread_RTOS/components/finsh/shell.c **** struct finsh_syscall *_syscall_table_begin  = NULL;
  48:Middlewares/Third_Party/RealThread_RTOS/components/finsh/shell.c **** struct finsh_syscall *_syscall_table_end    = NULL;
  49:Middlewares/Third_Party/RealThread_RTOS/components/finsh/shell.c **** struct finsh_sysvar *_sysvar_table_begin    = NULL;
  50:Middlewares/Third_Party/RealThread_RTOS/components/finsh/shell.c **** struct finsh_sysvar *_sysvar_table_end      = NULL;
  51:Middlewares/Third_Party/RealThread_RTOS/components/finsh/shell.c **** #endif
  52:Middlewares/Third_Party/RealThread_RTOS/components/finsh/shell.c **** 
  53:Middlewares/Third_Party/RealThread_RTOS/components/finsh/shell.c **** struct finsh_shell *shell;
  54:Middlewares/Third_Party/RealThread_RTOS/components/finsh/shell.c **** static char *finsh_prompt_custom = RT_NULL;
  55:Middlewares/Third_Party/RealThread_RTOS/components/finsh/shell.c **** 
  56:Middlewares/Third_Party/RealThread_RTOS/components/finsh/shell.c **** #if defined(_MSC_VER) || (defined(__GNUC__) && defined(__x86_64__))
  57:Middlewares/Third_Party/RealThread_RTOS/components/finsh/shell.c **** struct finsh_syscall* finsh_syscall_next(struct finsh_syscall* call)
  58:Middlewares/Third_Party/RealThread_RTOS/components/finsh/shell.c **** {
  59:Middlewares/Third_Party/RealThread_RTOS/components/finsh/shell.c ****     unsigned int *ptr;
  60:Middlewares/Third_Party/RealThread_RTOS/components/finsh/shell.c ****     ptr = (unsigned int*) (call + 1);
  61:Middlewares/Third_Party/RealThread_RTOS/components/finsh/shell.c ****     while ((*ptr == 0) && ((unsigned int*)ptr < (unsigned int*) _syscall_table_end))
  62:Middlewares/Third_Party/RealThread_RTOS/components/finsh/shell.c ****         ptr ++;
  63:Middlewares/Third_Party/RealThread_RTOS/components/finsh/shell.c **** 
  64:Middlewares/Third_Party/RealThread_RTOS/components/finsh/shell.c ****     return (struct finsh_syscall*)ptr;
  65:Middlewares/Third_Party/RealThread_RTOS/components/finsh/shell.c **** }
  66:Middlewares/Third_Party/RealThread_RTOS/components/finsh/shell.c **** 
  67:Middlewares/Third_Party/RealThread_RTOS/components/finsh/shell.c **** struct finsh_sysvar* finsh_sysvar_next(struct finsh_sysvar* call)
  68:Middlewares/Third_Party/RealThread_RTOS/components/finsh/shell.c **** {
  69:Middlewares/Third_Party/RealThread_RTOS/components/finsh/shell.c ****     unsigned int *ptr;
  70:Middlewares/Third_Party/RealThread_RTOS/components/finsh/shell.c ****     ptr = (unsigned int*) (call + 1);
  71:Middlewares/Third_Party/RealThread_RTOS/components/finsh/shell.c ****     while ((*ptr == 0) && ((unsigned int*)ptr < (unsigned int*) _sysvar_table_end))
  72:Middlewares/Third_Party/RealThread_RTOS/components/finsh/shell.c ****         ptr ++;
  73:Middlewares/Third_Party/RealThread_RTOS/components/finsh/shell.c **** 
  74:Middlewares/Third_Party/RealThread_RTOS/components/finsh/shell.c ****     return (struct finsh_sysvar*)ptr;
  75:Middlewares/Third_Party/RealThread_RTOS/components/finsh/shell.c **** }
  76:Middlewares/Third_Party/RealThread_RTOS/components/finsh/shell.c **** #endif /* defined(_MSC_VER) || (defined(__GNUC__) && defined(__x86_64__)) */
  77:Middlewares/Third_Party/RealThread_RTOS/components/finsh/shell.c **** 
  78:Middlewares/Third_Party/RealThread_RTOS/components/finsh/shell.c **** #ifdef RT_USING_HEAP
  79:Middlewares/Third_Party/RealThread_RTOS/components/finsh/shell.c **** int finsh_set_prompt(const char * prompt)
  80:Middlewares/Third_Party/RealThread_RTOS/components/finsh/shell.c **** {
  81:Middlewares/Third_Party/RealThread_RTOS/components/finsh/shell.c ****     if(finsh_prompt_custom)
ARM GAS  C:\Users\Administrator\AppData\Local\Temp\cchb52ze.s 			page 3


  82:Middlewares/Third_Party/RealThread_RTOS/components/finsh/shell.c ****     {
  83:Middlewares/Third_Party/RealThread_RTOS/components/finsh/shell.c ****         rt_free(finsh_prompt_custom);
  84:Middlewares/Third_Party/RealThread_RTOS/components/finsh/shell.c ****         finsh_prompt_custom = RT_NULL;
  85:Middlewares/Third_Party/RealThread_RTOS/components/finsh/shell.c ****     }
  86:Middlewares/Third_Party/RealThread_RTOS/components/finsh/shell.c **** 
  87:Middlewares/Third_Party/RealThread_RTOS/components/finsh/shell.c ****     /* strdup */
  88:Middlewares/Third_Party/RealThread_RTOS/components/finsh/shell.c ****     if(prompt)
  89:Middlewares/Third_Party/RealThread_RTOS/components/finsh/shell.c ****     {
  90:Middlewares/Third_Party/RealThread_RTOS/components/finsh/shell.c ****         finsh_prompt_custom = (char *)rt_malloc(strlen(prompt)+1);
  91:Middlewares/Third_Party/RealThread_RTOS/components/finsh/shell.c ****         if(finsh_prompt_custom)
  92:Middlewares/Third_Party/RealThread_RTOS/components/finsh/shell.c ****         {
  93:Middlewares/Third_Party/RealThread_RTOS/components/finsh/shell.c ****             strcpy(finsh_prompt_custom, prompt);
  94:Middlewares/Third_Party/RealThread_RTOS/components/finsh/shell.c ****         }
  95:Middlewares/Third_Party/RealThread_RTOS/components/finsh/shell.c ****     }
  96:Middlewares/Third_Party/RealThread_RTOS/components/finsh/shell.c **** 
  97:Middlewares/Third_Party/RealThread_RTOS/components/finsh/shell.c ****     return 0;
  98:Middlewares/Third_Party/RealThread_RTOS/components/finsh/shell.c **** }
  99:Middlewares/Third_Party/RealThread_RTOS/components/finsh/shell.c **** #endif /* RT_USING_HEAP */
 100:Middlewares/Third_Party/RealThread_RTOS/components/finsh/shell.c **** 
 101:Middlewares/Third_Party/RealThread_RTOS/components/finsh/shell.c **** #if defined(RT_USING_DFS)
 102:Middlewares/Third_Party/RealThread_RTOS/components/finsh/shell.c **** #include <dfs_posix.h>
 103:Middlewares/Third_Party/RealThread_RTOS/components/finsh/shell.c **** #endif /* RT_USING_DFS */
 104:Middlewares/Third_Party/RealThread_RTOS/components/finsh/shell.c **** 
 105:Middlewares/Third_Party/RealThread_RTOS/components/finsh/shell.c **** const char *finsh_get_prompt()
 106:Middlewares/Third_Party/RealThread_RTOS/components/finsh/shell.c **** {
 107:Middlewares/Third_Party/RealThread_RTOS/components/finsh/shell.c **** #define _MSH_PROMPT "msh "
 108:Middlewares/Third_Party/RealThread_RTOS/components/finsh/shell.c **** #define _PROMPT     "finsh "
 109:Middlewares/Third_Party/RealThread_RTOS/components/finsh/shell.c ****     static char finsh_prompt[RT_CONSOLEBUF_SIZE + 1] = {0};
 110:Middlewares/Third_Party/RealThread_RTOS/components/finsh/shell.c **** 
 111:Middlewares/Third_Party/RealThread_RTOS/components/finsh/shell.c ****     /* check prompt mode */
 112:Middlewares/Third_Party/RealThread_RTOS/components/finsh/shell.c ****     if (!shell->prompt_mode)
 113:Middlewares/Third_Party/RealThread_RTOS/components/finsh/shell.c ****     {
 114:Middlewares/Third_Party/RealThread_RTOS/components/finsh/shell.c ****         finsh_prompt[0] = '\0';
 115:Middlewares/Third_Party/RealThread_RTOS/components/finsh/shell.c ****         return finsh_prompt;
 116:Middlewares/Third_Party/RealThread_RTOS/components/finsh/shell.c ****     }
 117:Middlewares/Third_Party/RealThread_RTOS/components/finsh/shell.c **** 
 118:Middlewares/Third_Party/RealThread_RTOS/components/finsh/shell.c ****     if(finsh_prompt_custom)
 119:Middlewares/Third_Party/RealThread_RTOS/components/finsh/shell.c ****     {
 120:Middlewares/Third_Party/RealThread_RTOS/components/finsh/shell.c ****         strncpy(finsh_prompt, finsh_prompt_custom, sizeof(finsh_prompt)-1);
 121:Middlewares/Third_Party/RealThread_RTOS/components/finsh/shell.c ****         return finsh_prompt;
 122:Middlewares/Third_Party/RealThread_RTOS/components/finsh/shell.c ****     }
 123:Middlewares/Third_Party/RealThread_RTOS/components/finsh/shell.c **** 
 124:Middlewares/Third_Party/RealThread_RTOS/components/finsh/shell.c **** #ifdef FINSH_USING_MSH
 125:Middlewares/Third_Party/RealThread_RTOS/components/finsh/shell.c ****     if (msh_is_used()) strcpy(finsh_prompt, _MSH_PROMPT);
 126:Middlewares/Third_Party/RealThread_RTOS/components/finsh/shell.c ****     else
 127:Middlewares/Third_Party/RealThread_RTOS/components/finsh/shell.c **** #endif
 128:Middlewares/Third_Party/RealThread_RTOS/components/finsh/shell.c ****         strcpy(finsh_prompt, _PROMPT);
 129:Middlewares/Third_Party/RealThread_RTOS/components/finsh/shell.c **** 
 130:Middlewares/Third_Party/RealThread_RTOS/components/finsh/shell.c **** #if defined(RT_USING_DFS) && defined(DFS_USING_WORKDIR)
 131:Middlewares/Third_Party/RealThread_RTOS/components/finsh/shell.c ****     /* get current working directory */
 132:Middlewares/Third_Party/RealThread_RTOS/components/finsh/shell.c ****     getcwd(&finsh_prompt[rt_strlen(finsh_prompt)], RT_CONSOLEBUF_SIZE - rt_strlen(finsh_prompt));
 133:Middlewares/Third_Party/RealThread_RTOS/components/finsh/shell.c **** #endif
 134:Middlewares/Third_Party/RealThread_RTOS/components/finsh/shell.c **** 
 135:Middlewares/Third_Party/RealThread_RTOS/components/finsh/shell.c ****     strcat(finsh_prompt, ">");
 136:Middlewares/Third_Party/RealThread_RTOS/components/finsh/shell.c **** 
 137:Middlewares/Third_Party/RealThread_RTOS/components/finsh/shell.c ****     return finsh_prompt;
 138:Middlewares/Third_Party/RealThread_RTOS/components/finsh/shell.c **** }
ARM GAS  C:\Users\Administrator\AppData\Local\Temp\cchb52ze.s 			page 4


 139:Middlewares/Third_Party/RealThread_RTOS/components/finsh/shell.c **** 
 140:Middlewares/Third_Party/RealThread_RTOS/components/finsh/shell.c **** /**
 141:Middlewares/Third_Party/RealThread_RTOS/components/finsh/shell.c ****  * @ingroup finsh
 142:Middlewares/Third_Party/RealThread_RTOS/components/finsh/shell.c ****  *
 143:Middlewares/Third_Party/RealThread_RTOS/components/finsh/shell.c ****  * This function get the prompt mode of finsh shell.
 144:Middlewares/Third_Party/RealThread_RTOS/components/finsh/shell.c ****  *
 145:Middlewares/Third_Party/RealThread_RTOS/components/finsh/shell.c ****  * @return prompt the prompt mode, 0 disable prompt mode, other values enable prompt mode.
 146:Middlewares/Third_Party/RealThread_RTOS/components/finsh/shell.c ****  */
 147:Middlewares/Third_Party/RealThread_RTOS/components/finsh/shell.c **** rt_uint32_t finsh_get_prompt_mode(void)
 148:Middlewares/Third_Party/RealThread_RTOS/components/finsh/shell.c **** {
 149:Middlewares/Third_Party/RealThread_RTOS/components/finsh/shell.c ****     RT_ASSERT(shell != RT_NULL);
 150:Middlewares/Third_Party/RealThread_RTOS/components/finsh/shell.c ****     return shell->prompt_mode;
 151:Middlewares/Third_Party/RealThread_RTOS/components/finsh/shell.c **** }
 152:Middlewares/Third_Party/RealThread_RTOS/components/finsh/shell.c **** 
 153:Middlewares/Third_Party/RealThread_RTOS/components/finsh/shell.c **** /**
 154:Middlewares/Third_Party/RealThread_RTOS/components/finsh/shell.c ****  * @ingroup finsh
 155:Middlewares/Third_Party/RealThread_RTOS/components/finsh/shell.c ****  *
 156:Middlewares/Third_Party/RealThread_RTOS/components/finsh/shell.c ****  * This function set the prompt mode of finsh shell.
 157:Middlewares/Third_Party/RealThread_RTOS/components/finsh/shell.c ****  *
 158:Middlewares/Third_Party/RealThread_RTOS/components/finsh/shell.c ****  * The parameter 0 disable prompt mode, other values enable prompt mode.
 159:Middlewares/Third_Party/RealThread_RTOS/components/finsh/shell.c ****  *
 160:Middlewares/Third_Party/RealThread_RTOS/components/finsh/shell.c ****  * @param prompt the prompt mode
 161:Middlewares/Third_Party/RealThread_RTOS/components/finsh/shell.c ****  */
 162:Middlewares/Third_Party/RealThread_RTOS/components/finsh/shell.c **** void finsh_set_prompt_mode(rt_uint32_t prompt_mode)
 163:Middlewares/Third_Party/RealThread_RTOS/components/finsh/shell.c **** {
 164:Middlewares/Third_Party/RealThread_RTOS/components/finsh/shell.c ****     RT_ASSERT(shell != RT_NULL);
 165:Middlewares/Third_Party/RealThread_RTOS/components/finsh/shell.c ****     shell->prompt_mode = prompt_mode;
 166:Middlewares/Third_Party/RealThread_RTOS/components/finsh/shell.c **** }
 167:Middlewares/Third_Party/RealThread_RTOS/components/finsh/shell.c **** 
 168:Middlewares/Third_Party/RealThread_RTOS/components/finsh/shell.c **** static int finsh_getchar(void)
 169:Middlewares/Third_Party/RealThread_RTOS/components/finsh/shell.c **** {
 170:Middlewares/Third_Party/RealThread_RTOS/components/finsh/shell.c **** #ifdef RT_USING_DEVICE
 171:Middlewares/Third_Party/RealThread_RTOS/components/finsh/shell.c **** #ifdef RT_USING_POSIX
 172:Middlewares/Third_Party/RealThread_RTOS/components/finsh/shell.c ****     return getchar();
 173:Middlewares/Third_Party/RealThread_RTOS/components/finsh/shell.c **** #else
 174:Middlewares/Third_Party/RealThread_RTOS/components/finsh/shell.c ****     char ch = 0;
 175:Middlewares/Third_Party/RealThread_RTOS/components/finsh/shell.c **** 
 176:Middlewares/Third_Party/RealThread_RTOS/components/finsh/shell.c ****     RT_ASSERT(shell != RT_NULL);
 177:Middlewares/Third_Party/RealThread_RTOS/components/finsh/shell.c **** 
 178:Middlewares/Third_Party/RealThread_RTOS/components/finsh/shell.c ****     if(shell->device)
 179:Middlewares/Third_Party/RealThread_RTOS/components/finsh/shell.c ****     {
 180:Middlewares/Third_Party/RealThread_RTOS/components/finsh/shell.c ****         while (rt_device_read(shell->device, -1, &ch, 1) != 1)
 181:Middlewares/Third_Party/RealThread_RTOS/components/finsh/shell.c ****             rt_sem_take(&shell->rx_sem, RT_WAITING_FOREVER);
 182:Middlewares/Third_Party/RealThread_RTOS/components/finsh/shell.c **** 
 183:Middlewares/Third_Party/RealThread_RTOS/components/finsh/shell.c ****         return (int)ch;
 184:Middlewares/Third_Party/RealThread_RTOS/components/finsh/shell.c ****     }
 185:Middlewares/Third_Party/RealThread_RTOS/components/finsh/shell.c ****     else
 186:Middlewares/Third_Party/RealThread_RTOS/components/finsh/shell.c **** #endif
 187:Middlewares/Third_Party/RealThread_RTOS/components/finsh/shell.c **** #endif
 188:Middlewares/Third_Party/RealThread_RTOS/components/finsh/shell.c ****     {
 189:Middlewares/Third_Party/RealThread_RTOS/components/finsh/shell.c ****         extern char rt_hw_console_getchar(void);
 190:Middlewares/Third_Party/RealThread_RTOS/components/finsh/shell.c ****         return rt_hw_console_getchar();
 191:Middlewares/Third_Party/RealThread_RTOS/components/finsh/shell.c ****     }
 192:Middlewares/Third_Party/RealThread_RTOS/components/finsh/shell.c **** }
 193:Middlewares/Third_Party/RealThread_RTOS/components/finsh/shell.c **** 
 194:Middlewares/Third_Party/RealThread_RTOS/components/finsh/shell.c **** #if !defined(RT_USING_POSIX) && defined(RT_USING_DEVICE)
 195:Middlewares/Third_Party/RealThread_RTOS/components/finsh/shell.c **** static rt_err_t finsh_rx_ind(rt_device_t dev, rt_size_t size)
ARM GAS  C:\Users\Administrator\AppData\Local\Temp\cchb52ze.s 			page 5


 196:Middlewares/Third_Party/RealThread_RTOS/components/finsh/shell.c **** {
  31              		.loc 1 196 1 view -0
  32              		.cfi_startproc
  33              		@ args = 0, pretend = 0, frame = 0
  34              		@ frame_needed = 0, uses_anonymous_args = 0
  35              		.loc 1 196 1 is_stmt 0 view .LVU1
  36 0000 08B5     		push	{r3, lr}
  37              	.LCFI0:
  38              		.cfi_def_cfa_offset 8
  39              		.cfi_offset 3, -8
  40              		.cfi_offset 14, -4
 197:Middlewares/Third_Party/RealThread_RTOS/components/finsh/shell.c ****     RT_ASSERT(shell != RT_NULL);
  41              		.loc 1 197 5 is_stmt 1 view .LVU2
  42 0002 074B     		ldr	r3, .L5
  43 0004 1B68     		ldr	r3, [r3]
  44 0006 2BB1     		cbz	r3, .L4
  45              	.LVL1:
  46              	.L2:
  47              		.loc 1 197 32 discriminator 3 view .LVU3
 198:Middlewares/Third_Party/RealThread_RTOS/components/finsh/shell.c **** 
 199:Middlewares/Third_Party/RealThread_RTOS/components/finsh/shell.c ****     /* release semaphore to let finsh thread rx data */
 200:Middlewares/Third_Party/RealThread_RTOS/components/finsh/shell.c ****     rt_sem_release(&shell->rx_sem);
  48              		.loc 1 200 5 discriminator 3 view .LVU4
  49 0008 054B     		ldr	r3, .L5
  50 000a 1868     		ldr	r0, [r3]
  51 000c FFF7FEFF 		bl	rt_sem_release
  52              	.LVL2:
 201:Middlewares/Third_Party/RealThread_RTOS/components/finsh/shell.c **** 
 202:Middlewares/Third_Party/RealThread_RTOS/components/finsh/shell.c ****     return RT_EOK;
  53              		.loc 1 202 5 discriminator 3 view .LVU5
 203:Middlewares/Third_Party/RealThread_RTOS/components/finsh/shell.c **** }
  54              		.loc 1 203 1 is_stmt 0 discriminator 3 view .LVU6
  55 0010 0020     		movs	r0, #0
  56 0012 08BD     		pop	{r3, pc}
  57              	.LVL3:
  58              	.L4:
 197:Middlewares/Third_Party/RealThread_RTOS/components/finsh/shell.c **** 
  59              		.loc 1 197 5 is_stmt 1 discriminator 1 view .LVU7
  60 0014 C522     		movs	r2, #197
  61 0016 0349     		ldr	r1, .L5+4
  62              	.LVL4:
 197:Middlewares/Third_Party/RealThread_RTOS/components/finsh/shell.c **** 
  63              		.loc 1 197 5 is_stmt 0 discriminator 1 view .LVU8
  64 0018 0348     		ldr	r0, .L5+8
  65              	.LVL5:
 197:Middlewares/Third_Party/RealThread_RTOS/components/finsh/shell.c **** 
  66              		.loc 1 197 5 discriminator 1 view .LVU9
  67 001a FFF7FEFF 		bl	rt_assert_handler
  68              	.LVL6:
  69 001e F3E7     		b	.L2
  70              	.L6:
  71              		.align	2
  72              	.L5:
  73 0020 00000000 		.word	.LANCHOR0
  74 0024 00000000 		.word	.LANCHOR1
  75 0028 00000000 		.word	.LC0
  76              		.cfi_endproc
ARM GAS  C:\Users\Administrator\AppData\Local\Temp\cchb52ze.s 			page 6


  77              	.LFE23:
  79              		.section	.text.finsh_getchar,"ax",%progbits
  80              		.align	1
  81              		.syntax unified
  82              		.thumb
  83              		.thumb_func
  84              		.fpu softvfp
  86              	finsh_getchar:
  87              	.LFB22:
 169:Middlewares/Third_Party/RealThread_RTOS/components/finsh/shell.c **** #ifdef RT_USING_DEVICE
  88              		.loc 1 169 1 is_stmt 1 view -0
  89              		.cfi_startproc
  90              		@ args = 0, pretend = 0, frame = 8
  91              		@ frame_needed = 0, uses_anonymous_args = 0
  92 0000 00B5     		push	{lr}
  93              	.LCFI1:
  94              		.cfi_def_cfa_offset 4
  95              		.cfi_offset 14, -4
  96 0002 83B0     		sub	sp, sp, #12
  97              	.LCFI2:
  98              		.cfi_def_cfa_offset 16
 174:Middlewares/Third_Party/RealThread_RTOS/components/finsh/shell.c **** 
  99              		.loc 1 174 5 view .LVU11
 174:Middlewares/Third_Party/RealThread_RTOS/components/finsh/shell.c **** 
 100              		.loc 1 174 10 is_stmt 0 view .LVU12
 101 0004 0023     		movs	r3, #0
 102 0006 8DF80730 		strb	r3, [sp, #7]
 176:Middlewares/Third_Party/RealThread_RTOS/components/finsh/shell.c **** 
 103              		.loc 1 176 5 is_stmt 1 view .LVU13
 104 000a 134B     		ldr	r3, .L16
 105 000c 1B68     		ldr	r3, [r3]
 106 000e 33B1     		cbz	r3, .L15
 107              	.L8:
 176:Middlewares/Third_Party/RealThread_RTOS/components/finsh/shell.c **** 
 108              		.loc 1 176 32 discriminator 3 view .LVU14
 178:Middlewares/Third_Party/RealThread_RTOS/components/finsh/shell.c ****     {
 109              		.loc 1 178 5 discriminator 3 view .LVU15
 178:Middlewares/Third_Party/RealThread_RTOS/components/finsh/shell.c ****     {
 110              		.loc 1 178 13 is_stmt 0 discriminator 3 view .LVU16
 111 0010 114B     		ldr	r3, .L16
 112 0012 1B68     		ldr	r3, [r3]
 113 0014 9B6F     		ldr	r3, [r3, #120]
 178:Middlewares/Third_Party/RealThread_RTOS/components/finsh/shell.c ****     {
 114              		.loc 1 178 7 discriminator 3 view .LVU17
 115 0016 73B9     		cbnz	r3, .L9
 116              	.LBB2:
 189:Middlewares/Third_Party/RealThread_RTOS/components/finsh/shell.c ****         return rt_hw_console_getchar();
 117              		.loc 1 189 9 is_stmt 1 view .LVU18
 190:Middlewares/Third_Party/RealThread_RTOS/components/finsh/shell.c ****     }
 118              		.loc 1 190 9 view .LVU19
 190:Middlewares/Third_Party/RealThread_RTOS/components/finsh/shell.c ****     }
 119              		.loc 1 190 16 is_stmt 0 view .LVU20
 120 0018 FFF7FEFF 		bl	rt_hw_console_getchar
 121              	.LVL7:
 122 001c 19E0     		b	.L7
 123              	.L15:
 124              	.LBE2:
ARM GAS  C:\Users\Administrator\AppData\Local\Temp\cchb52ze.s 			page 7


 176:Middlewares/Third_Party/RealThread_RTOS/components/finsh/shell.c **** 
 125              		.loc 1 176 5 is_stmt 1 discriminator 1 view .LVU21
 126 001e B022     		movs	r2, #176
 127 0020 0E49     		ldr	r1, .L16+4
 128 0022 0F48     		ldr	r0, .L16+8
 129 0024 FFF7FEFF 		bl	rt_assert_handler
 130              	.LVL8:
 131 0028 F2E7     		b	.L8
 132              	.L11:
 181:Middlewares/Third_Party/RealThread_RTOS/components/finsh/shell.c **** 
 133              		.loc 1 181 13 view .LVU22
 134 002a 4FF0FF31 		mov	r1, #-1
 135 002e 0A4B     		ldr	r3, .L16
 136 0030 1868     		ldr	r0, [r3]
 137 0032 FFF7FEFF 		bl	rt_sem_take
 138              	.LVL9:
 139              	.L9:
 180:Middlewares/Third_Party/RealThread_RTOS/components/finsh/shell.c ****             rt_sem_take(&shell->rx_sem, RT_WAITING_FOREVER);
 140              		.loc 1 180 15 view .LVU23
 180:Middlewares/Third_Party/RealThread_RTOS/components/finsh/shell.c ****             rt_sem_take(&shell->rx_sem, RT_WAITING_FOREVER);
 141              		.loc 1 180 36 is_stmt 0 view .LVU24
 142 0036 084B     		ldr	r3, .L16
 143 0038 1868     		ldr	r0, [r3]
 180:Middlewares/Third_Party/RealThread_RTOS/components/finsh/shell.c ****             rt_sem_take(&shell->rx_sem, RT_WAITING_FOREVER);
 144              		.loc 1 180 16 view .LVU25
 145 003a 0123     		movs	r3, #1
 146 003c 0DF10702 		add	r2, sp, #7
 147 0040 4FF0FF31 		mov	r1, #-1
 148 0044 806F     		ldr	r0, [r0, #120]
 149 0046 FFF7FEFF 		bl	rt_device_read
 150              	.LVL10:
 180:Middlewares/Third_Party/RealThread_RTOS/components/finsh/shell.c ****             rt_sem_take(&shell->rx_sem, RT_WAITING_FOREVER);
 151              		.loc 1 180 15 view .LVU26
 152 004a 0128     		cmp	r0, #1
 153 004c EDD1     		bne	.L11
 183:Middlewares/Third_Party/RealThread_RTOS/components/finsh/shell.c ****     }
 154              		.loc 1 183 9 is_stmt 1 view .LVU27
 183:Middlewares/Third_Party/RealThread_RTOS/components/finsh/shell.c ****     }
 155              		.loc 1 183 16 is_stmt 0 view .LVU28
 156 004e 9DF80700 		ldrb	r0, [sp, #7]	@ zero_extendqisi2
 157              	.L7:
 192:Middlewares/Third_Party/RealThread_RTOS/components/finsh/shell.c **** 
 158              		.loc 1 192 1 view .LVU29
 159 0052 03B0     		add	sp, sp, #12
 160              	.LCFI3:
 161              		.cfi_def_cfa_offset 4
 162              		@ sp needed
 163 0054 5DF804FB 		ldr	pc, [sp], #4
 164              	.L17:
 165              		.align	2
 166              	.L16:
 167 0058 00000000 		.word	.LANCHOR0
 168 005c 00000000 		.word	.LANCHOR2
 169 0060 00000000 		.word	.LC0
 170              		.cfi_endproc
 171              	.LFE22:
 173              		.section	.text.finsh_set_prompt,"ax",%progbits
ARM GAS  C:\Users\Administrator\AppData\Local\Temp\cchb52ze.s 			page 8


 174              		.align	1
 175              		.global	finsh_set_prompt
 176              		.syntax unified
 177              		.thumb
 178              		.thumb_func
 179              		.fpu softvfp
 181              	finsh_set_prompt:
 182              	.LVL11:
 183              	.LFB18:
  80:Middlewares/Third_Party/RealThread_RTOS/components/finsh/shell.c ****     if(finsh_prompt_custom)
 184              		.loc 1 80 1 is_stmt 1 view -0
 185              		.cfi_startproc
 186              		@ args = 0, pretend = 0, frame = 0
 187              		@ frame_needed = 0, uses_anonymous_args = 0
  80:Middlewares/Third_Party/RealThread_RTOS/components/finsh/shell.c ****     if(finsh_prompt_custom)
 188              		.loc 1 80 1 is_stmt 0 view .LVU31
 189 0000 10B5     		push	{r4, lr}
 190              	.LCFI4:
 191              		.cfi_def_cfa_offset 8
 192              		.cfi_offset 4, -8
 193              		.cfi_offset 14, -4
 194 0002 0446     		mov	r4, r0
  81:Middlewares/Third_Party/RealThread_RTOS/components/finsh/shell.c ****     {
 195              		.loc 1 81 5 is_stmt 1 view .LVU32
  81:Middlewares/Third_Party/RealThread_RTOS/components/finsh/shell.c ****     {
 196              		.loc 1 81 8 is_stmt 0 view .LVU33
 197 0004 0B4B     		ldr	r3, .L22
 198 0006 1868     		ldr	r0, [r3]
 199              	.LVL12:
  81:Middlewares/Third_Party/RealThread_RTOS/components/finsh/shell.c ****     {
 200              		.loc 1 81 7 view .LVU34
 201 0008 20B1     		cbz	r0, .L19
  83:Middlewares/Third_Party/RealThread_RTOS/components/finsh/shell.c ****         finsh_prompt_custom = RT_NULL;
 202              		.loc 1 83 9 is_stmt 1 view .LVU35
 203 000a FFF7FEFF 		bl	rt_free
 204              	.LVL13:
  84:Middlewares/Third_Party/RealThread_RTOS/components/finsh/shell.c ****     }
 205              		.loc 1 84 9 view .LVU36
  84:Middlewares/Third_Party/RealThread_RTOS/components/finsh/shell.c ****     }
 206              		.loc 1 84 29 is_stmt 0 view .LVU37
 207 000e 094B     		ldr	r3, .L22
 208 0010 0022     		movs	r2, #0
 209 0012 1A60     		str	r2, [r3]
 210              	.L19:
  88:Middlewares/Third_Party/RealThread_RTOS/components/finsh/shell.c ****     {
 211              		.loc 1 88 5 is_stmt 1 view .LVU38
  88:Middlewares/Third_Party/RealThread_RTOS/components/finsh/shell.c ****     {
 212              		.loc 1 88 7 is_stmt 0 view .LVU39
 213 0014 5CB1     		cbz	r4, .L20
  90:Middlewares/Third_Party/RealThread_RTOS/components/finsh/shell.c ****         if(finsh_prompt_custom)
 214              		.loc 1 90 9 is_stmt 1 view .LVU40
  90:Middlewares/Third_Party/RealThread_RTOS/components/finsh/shell.c ****         if(finsh_prompt_custom)
 215              		.loc 1 90 49 is_stmt 0 view .LVU41
 216 0016 2046     		mov	r0, r4
 217 0018 FFF7FEFF 		bl	strlen
 218              	.LVL14:
  90:Middlewares/Third_Party/RealThread_RTOS/components/finsh/shell.c ****         if(finsh_prompt_custom)
ARM GAS  C:\Users\Administrator\AppData\Local\Temp\cchb52ze.s 			page 9


 219              		.loc 1 90 39 view .LVU42
 220 001c 0130     		adds	r0, r0, #1
 221 001e FFF7FEFF 		bl	rt_malloc
 222              	.LVL15:
  90:Middlewares/Third_Party/RealThread_RTOS/components/finsh/shell.c ****         if(finsh_prompt_custom)
 223              		.loc 1 90 29 view .LVU43
 224 0022 044B     		ldr	r3, .L22
 225 0024 1860     		str	r0, [r3]
  91:Middlewares/Third_Party/RealThread_RTOS/components/finsh/shell.c ****         {
 226              		.loc 1 91 9 is_stmt 1 view .LVU44
  91:Middlewares/Third_Party/RealThread_RTOS/components/finsh/shell.c ****         {
 227              		.loc 1 91 11 is_stmt 0 view .LVU45
 228 0026 10B1     		cbz	r0, .L20
  93:Middlewares/Third_Party/RealThread_RTOS/components/finsh/shell.c ****         }
 229              		.loc 1 93 13 is_stmt 1 view .LVU46
 230 0028 2146     		mov	r1, r4
 231 002a FFF7FEFF 		bl	strcpy
 232              	.LVL16:
 233              	.L20:
  97:Middlewares/Third_Party/RealThread_RTOS/components/finsh/shell.c **** }
 234              		.loc 1 97 5 view .LVU47
  98:Middlewares/Third_Party/RealThread_RTOS/components/finsh/shell.c **** #endif /* RT_USING_HEAP */
 235              		.loc 1 98 1 is_stmt 0 view .LVU48
 236 002e 0020     		movs	r0, #0
 237 0030 10BD     		pop	{r4, pc}
 238              	.LVL17:
 239              	.L23:
  98:Middlewares/Third_Party/RealThread_RTOS/components/finsh/shell.c **** #endif /* RT_USING_HEAP */
 240              		.loc 1 98 1 view .LVU49
 241 0032 00BF     		.align	2
 242              	.L22:
 243 0034 00000000 		.word	.LANCHOR3
 244              		.cfi_endproc
 245              	.LFE18:
 247              		.section	.rodata.finsh_get_prompt.str1.4,"aMS",%progbits,1
 248              		.align	2
 249              	.LC1:
 250 0000 6D736820 		.ascii	"msh \000"
 250      00
 251 0005 000000   		.align	2
 252              	.LC2:
 253 0008 66696E73 		.ascii	"finsh \000"
 253      682000
 254 000f 00       		.align	2
 255              	.LC3:
 256 0010 3E00     		.ascii	">\000"
 257              		.section	.text.finsh_get_prompt,"ax",%progbits
 258              		.align	1
 259              		.global	finsh_get_prompt
 260              		.syntax unified
 261              		.thumb
 262              		.thumb_func
 263              		.fpu softvfp
 265              	finsh_get_prompt:
 266              	.LFB19:
 106:Middlewares/Third_Party/RealThread_RTOS/components/finsh/shell.c **** #define _MSH_PROMPT "msh "
 267              		.loc 1 106 1 is_stmt 1 view -0
ARM GAS  C:\Users\Administrator\AppData\Local\Temp\cchb52ze.s 			page 10


 268              		.cfi_startproc
 269              		@ args = 0, pretend = 0, frame = 0
 270              		@ frame_needed = 0, uses_anonymous_args = 0
 109:Middlewares/Third_Party/RealThread_RTOS/components/finsh/shell.c **** 
 271              		.loc 1 109 5 view .LVU51
 112:Middlewares/Third_Party/RealThread_RTOS/components/finsh/shell.c ****     {
 272              		.loc 1 112 5 view .LVU52
 112:Middlewares/Third_Party/RealThread_RTOS/components/finsh/shell.c ****     {
 273              		.loc 1 112 15 is_stmt 0 view .LVU53
 274 0000 184B     		ldr	r3, .L34
 275 0002 1B68     		ldr	r3, [r3]
 112:Middlewares/Third_Party/RealThread_RTOS/components/finsh/shell.c ****     {
 276              		.loc 1 112 9 view .LVU54
 277 0004 93F82130 		ldrb	r3, [r3, #33]	@ zero_extendqisi2
 112:Middlewares/Third_Party/RealThread_RTOS/components/finsh/shell.c ****     {
 278              		.loc 1 112 8 view .LVU55
 279 0008 13F0020F 		tst	r3, #2
 280 000c 0AD0     		beq	.L33
 106:Middlewares/Third_Party/RealThread_RTOS/components/finsh/shell.c **** #define _MSH_PROMPT "msh "
 281              		.loc 1 106 1 view .LVU56
 282 000e 10B5     		push	{r4, lr}
 283              	.LCFI5:
 284              		.cfi_def_cfa_offset 8
 285              		.cfi_offset 4, -8
 286              		.cfi_offset 14, -4
 118:Middlewares/Third_Party/RealThread_RTOS/components/finsh/shell.c ****     {
 287              		.loc 1 118 5 is_stmt 1 view .LVU57
 118:Middlewares/Third_Party/RealThread_RTOS/components/finsh/shell.c ****     {
 288              		.loc 1 118 8 is_stmt 0 view .LVU58
 289 0010 154B     		ldr	r3, .L34+4
 290 0012 1968     		ldr	r1, [r3]
 118:Middlewares/Third_Party/RealThread_RTOS/components/finsh/shell.c ****     {
 291              		.loc 1 118 7 view .LVU59
 292 0014 59B1     		cbz	r1, .L27
 120:Middlewares/Third_Party/RealThread_RTOS/components/finsh/shell.c ****         return finsh_prompt;
 293              		.loc 1 120 9 is_stmt 1 view .LVU60
 294 0016 4FF40072 		mov	r2, #512
 295 001a 1448     		ldr	r0, .L34+8
 296 001c FFF7FEFF 		bl	strncpy
 297              	.LVL18:
 121:Middlewares/Third_Party/RealThread_RTOS/components/finsh/shell.c ****     }
 298              		.loc 1 121 9 view .LVU61
 299              	.L26:
 138:Middlewares/Third_Party/RealThread_RTOS/components/finsh/shell.c **** 
 300              		.loc 1 138 1 is_stmt 0 view .LVU62
 301 0020 1248     		ldr	r0, .L34+8
 302 0022 10BD     		pop	{r4, pc}
 303              	.L33:
 304              	.LCFI6:
 305              		.cfi_def_cfa_offset 0
 306              		.cfi_restore 4
 307              		.cfi_restore 14
 114:Middlewares/Third_Party/RealThread_RTOS/components/finsh/shell.c ****         return finsh_prompt;
 308              		.loc 1 114 9 is_stmt 1 view .LVU63
 114:Middlewares/Third_Party/RealThread_RTOS/components/finsh/shell.c ****         return finsh_prompt;
 309              		.loc 1 114 25 is_stmt 0 view .LVU64
 310 0024 114B     		ldr	r3, .L34+8
ARM GAS  C:\Users\Administrator\AppData\Local\Temp\cchb52ze.s 			page 11


 311 0026 0022     		movs	r2, #0
 312 0028 1A70     		strb	r2, [r3]
 115:Middlewares/Third_Party/RealThread_RTOS/components/finsh/shell.c ****     }
 313              		.loc 1 115 9 is_stmt 1 view .LVU65
 138:Middlewares/Third_Party/RealThread_RTOS/components/finsh/shell.c **** 
 314              		.loc 1 138 1 is_stmt 0 view .LVU66
 315 002a 1048     		ldr	r0, .L34+8
 316 002c 7047     		bx	lr
 317              	.L27:
 318              	.LCFI7:
 319              		.cfi_def_cfa_offset 8
 320              		.cfi_offset 4, -8
 321              		.cfi_offset 14, -4
 125:Middlewares/Third_Party/RealThread_RTOS/components/finsh/shell.c ****     else
 322              		.loc 1 125 5 is_stmt 1 view .LVU67
 125:Middlewares/Third_Party/RealThread_RTOS/components/finsh/shell.c ****     else
 323              		.loc 1 125 9 is_stmt 0 view .LVU68
 324 002e FFF7FEFF 		bl	msh_is_used
 325              	.LVL19:
 125:Middlewares/Third_Party/RealThread_RTOS/components/finsh/shell.c ****     else
 326              		.loc 1 125 8 view .LVU69
 327 0032 68B1     		cbz	r0, .L28
 125:Middlewares/Third_Party/RealThread_RTOS/components/finsh/shell.c ****     else
 328              		.loc 1 125 24 is_stmt 1 discriminator 1 view .LVU70
 329 0034 0D4B     		ldr	r3, .L34+8
 330 0036 0E4A     		ldr	r2, .L34+12
 331 0038 92E80300 		ldm	r2, {r0, r1}
 332 003c 1860     		str	r0, [r3]
 333 003e 1971     		strb	r1, [r3, #4]
 334              	.L29:
 135:Middlewares/Third_Party/RealThread_RTOS/components/finsh/shell.c **** 
 335              		.loc 1 135 5 view .LVU71
 336 0040 0A4C     		ldr	r4, .L34+8
 337 0042 2046     		mov	r0, r4
 338 0044 FFF7FEFF 		bl	strlen
 339              	.LVL20:
 340 0048 0A4B     		ldr	r3, .L34+16
 341 004a 1B88     		ldrh	r3, [r3]	@ unaligned
 342 004c 2352     		strh	r3, [r4, r0]	@ unaligned
 137:Middlewares/Third_Party/RealThread_RTOS/components/finsh/shell.c **** }
 343              		.loc 1 137 5 view .LVU72
 137:Middlewares/Third_Party/RealThread_RTOS/components/finsh/shell.c **** }
 344              		.loc 1 137 12 is_stmt 0 view .LVU73
 345 004e E7E7     		b	.L26
 346              	.L28:
 128:Middlewares/Third_Party/RealThread_RTOS/components/finsh/shell.c **** 
 347              		.loc 1 128 9 is_stmt 1 view .LVU74
 348 0050 064B     		ldr	r3, .L34+8
 349 0052 094A     		ldr	r2, .L34+20
 350 0054 92E80300 		ldm	r2, {r0, r1}
 351 0058 1860     		str	r0, [r3]
 352 005a 9980     		strh	r1, [r3, #4]	@ movhi
 353 005c 090C     		lsrs	r1, r1, #16
 354 005e 9971     		strb	r1, [r3, #6]
 355 0060 EEE7     		b	.L29
 356              	.L35:
 357 0062 00BF     		.align	2
ARM GAS  C:\Users\Administrator\AppData\Local\Temp\cchb52ze.s 			page 12


 358              	.L34:
 359 0064 00000000 		.word	.LANCHOR0
 360 0068 00000000 		.word	.LANCHOR3
 361 006c 00000000 		.word	.LANCHOR4
 362 0070 00000000 		.word	.LC1
 363 0074 10000000 		.word	.LC3
 364 0078 08000000 		.word	.LC2
 365              		.cfi_endproc
 366              	.LFE19:
 368              		.section	.rodata.shell_auto_complete.str1.4,"aMS",%progbits,1
 369              		.align	2
 370              	.LC4:
 371 0000 0A00     		.ascii	"\012\000"
 372 0002 0000     		.align	2
 373              	.LC5:
 374 0004 25732573 		.ascii	"%s%s\000"
 374      00
 375              		.section	.text.shell_auto_complete,"ax",%progbits
 376              		.align	1
 377              		.syntax unified
 378              		.thumb
 379              		.thumb_func
 380              		.fpu softvfp
 382              	shell_auto_complete:
 383              	.LVL21:
 384              	.LFB28:
 204:Middlewares/Third_Party/RealThread_RTOS/components/finsh/shell.c **** 
 205:Middlewares/Third_Party/RealThread_RTOS/components/finsh/shell.c **** /**
 206:Middlewares/Third_Party/RealThread_RTOS/components/finsh/shell.c ****  * @ingroup finsh
 207:Middlewares/Third_Party/RealThread_RTOS/components/finsh/shell.c ****  *
 208:Middlewares/Third_Party/RealThread_RTOS/components/finsh/shell.c ****  * This function sets the input device of finsh shell.
 209:Middlewares/Third_Party/RealThread_RTOS/components/finsh/shell.c ****  *
 210:Middlewares/Third_Party/RealThread_RTOS/components/finsh/shell.c ****  * @param device_name the name of new input device.
 211:Middlewares/Third_Party/RealThread_RTOS/components/finsh/shell.c ****  */
 212:Middlewares/Third_Party/RealThread_RTOS/components/finsh/shell.c **** void finsh_set_device(const char *device_name)
 213:Middlewares/Third_Party/RealThread_RTOS/components/finsh/shell.c **** {
 214:Middlewares/Third_Party/RealThread_RTOS/components/finsh/shell.c ****     rt_device_t dev = RT_NULL;
 215:Middlewares/Third_Party/RealThread_RTOS/components/finsh/shell.c **** 
 216:Middlewares/Third_Party/RealThread_RTOS/components/finsh/shell.c ****     RT_ASSERT(shell != RT_NULL);
 217:Middlewares/Third_Party/RealThread_RTOS/components/finsh/shell.c ****     dev = rt_device_find(device_name);
 218:Middlewares/Third_Party/RealThread_RTOS/components/finsh/shell.c ****     if (dev == RT_NULL)
 219:Middlewares/Third_Party/RealThread_RTOS/components/finsh/shell.c ****     {
 220:Middlewares/Third_Party/RealThread_RTOS/components/finsh/shell.c ****         rt_kprintf("finsh: can not find device: %s\n", device_name);
 221:Middlewares/Third_Party/RealThread_RTOS/components/finsh/shell.c ****         return;
 222:Middlewares/Third_Party/RealThread_RTOS/components/finsh/shell.c ****     }
 223:Middlewares/Third_Party/RealThread_RTOS/components/finsh/shell.c **** 
 224:Middlewares/Third_Party/RealThread_RTOS/components/finsh/shell.c ****     /* check whether it's a same device */
 225:Middlewares/Third_Party/RealThread_RTOS/components/finsh/shell.c ****     if (dev == shell->device) return;
 226:Middlewares/Third_Party/RealThread_RTOS/components/finsh/shell.c ****     /* open this device and set the new device in finsh shell */
 227:Middlewares/Third_Party/RealThread_RTOS/components/finsh/shell.c ****     if (rt_device_open(dev, RT_DEVICE_OFLAG_RDWR | RT_DEVICE_FLAG_INT_RX | \
 228:Middlewares/Third_Party/RealThread_RTOS/components/finsh/shell.c ****                        RT_DEVICE_FLAG_STREAM) == RT_EOK)
 229:Middlewares/Third_Party/RealThread_RTOS/components/finsh/shell.c ****     {
 230:Middlewares/Third_Party/RealThread_RTOS/components/finsh/shell.c ****         if (shell->device != RT_NULL)
 231:Middlewares/Third_Party/RealThread_RTOS/components/finsh/shell.c ****         {
 232:Middlewares/Third_Party/RealThread_RTOS/components/finsh/shell.c ****             /* close old finsh device */
 233:Middlewares/Third_Party/RealThread_RTOS/components/finsh/shell.c ****             rt_device_close(shell->device);
 234:Middlewares/Third_Party/RealThread_RTOS/components/finsh/shell.c ****             rt_device_set_rx_indicate(shell->device, RT_NULL);
ARM GAS  C:\Users\Administrator\AppData\Local\Temp\cchb52ze.s 			page 13


 235:Middlewares/Third_Party/RealThread_RTOS/components/finsh/shell.c ****         }
 236:Middlewares/Third_Party/RealThread_RTOS/components/finsh/shell.c **** 
 237:Middlewares/Third_Party/RealThread_RTOS/components/finsh/shell.c ****         /* clear line buffer before switch to new device */
 238:Middlewares/Third_Party/RealThread_RTOS/components/finsh/shell.c ****         memset(shell->line, 0, sizeof(shell->line));
 239:Middlewares/Third_Party/RealThread_RTOS/components/finsh/shell.c ****         shell->line_curpos = shell->line_position = 0;
 240:Middlewares/Third_Party/RealThread_RTOS/components/finsh/shell.c **** 
 241:Middlewares/Third_Party/RealThread_RTOS/components/finsh/shell.c ****         shell->device = dev;
 242:Middlewares/Third_Party/RealThread_RTOS/components/finsh/shell.c ****         rt_device_set_rx_indicate(dev, finsh_rx_ind);
 243:Middlewares/Third_Party/RealThread_RTOS/components/finsh/shell.c ****     }
 244:Middlewares/Third_Party/RealThread_RTOS/components/finsh/shell.c **** }
 245:Middlewares/Third_Party/RealThread_RTOS/components/finsh/shell.c **** 
 246:Middlewares/Third_Party/RealThread_RTOS/components/finsh/shell.c **** /**
 247:Middlewares/Third_Party/RealThread_RTOS/components/finsh/shell.c ****  * @ingroup finsh
 248:Middlewares/Third_Party/RealThread_RTOS/components/finsh/shell.c ****  *
 249:Middlewares/Third_Party/RealThread_RTOS/components/finsh/shell.c ****  * This function returns current finsh shell input device.
 250:Middlewares/Third_Party/RealThread_RTOS/components/finsh/shell.c ****  *
 251:Middlewares/Third_Party/RealThread_RTOS/components/finsh/shell.c ****  * @return the finsh shell input device name is returned.
 252:Middlewares/Third_Party/RealThread_RTOS/components/finsh/shell.c ****  */
 253:Middlewares/Third_Party/RealThread_RTOS/components/finsh/shell.c **** const char *finsh_get_device()
 254:Middlewares/Third_Party/RealThread_RTOS/components/finsh/shell.c **** {
 255:Middlewares/Third_Party/RealThread_RTOS/components/finsh/shell.c ****     RT_ASSERT(shell != RT_NULL);
 256:Middlewares/Third_Party/RealThread_RTOS/components/finsh/shell.c ****     return shell->device->parent.name;
 257:Middlewares/Third_Party/RealThread_RTOS/components/finsh/shell.c **** }
 258:Middlewares/Third_Party/RealThread_RTOS/components/finsh/shell.c **** #endif
 259:Middlewares/Third_Party/RealThread_RTOS/components/finsh/shell.c **** 
 260:Middlewares/Third_Party/RealThread_RTOS/components/finsh/shell.c **** /**
 261:Middlewares/Third_Party/RealThread_RTOS/components/finsh/shell.c ****  * @ingroup finsh
 262:Middlewares/Third_Party/RealThread_RTOS/components/finsh/shell.c ****  *
 263:Middlewares/Third_Party/RealThread_RTOS/components/finsh/shell.c ****  * This function set the echo mode of finsh shell.
 264:Middlewares/Third_Party/RealThread_RTOS/components/finsh/shell.c ****  *
 265:Middlewares/Third_Party/RealThread_RTOS/components/finsh/shell.c ****  * FINSH_OPTION_ECHO=0x01 is echo mode, other values are none-echo mode.
 266:Middlewares/Third_Party/RealThread_RTOS/components/finsh/shell.c ****  *
 267:Middlewares/Third_Party/RealThread_RTOS/components/finsh/shell.c ****  * @param echo the echo mode
 268:Middlewares/Third_Party/RealThread_RTOS/components/finsh/shell.c ****  */
 269:Middlewares/Third_Party/RealThread_RTOS/components/finsh/shell.c **** void finsh_set_echo(rt_uint32_t echo)
 270:Middlewares/Third_Party/RealThread_RTOS/components/finsh/shell.c **** {
 271:Middlewares/Third_Party/RealThread_RTOS/components/finsh/shell.c ****     RT_ASSERT(shell != RT_NULL);
 272:Middlewares/Third_Party/RealThread_RTOS/components/finsh/shell.c ****     shell->echo_mode = (rt_uint8_t)echo;
 273:Middlewares/Third_Party/RealThread_RTOS/components/finsh/shell.c **** }
 274:Middlewares/Third_Party/RealThread_RTOS/components/finsh/shell.c **** 
 275:Middlewares/Third_Party/RealThread_RTOS/components/finsh/shell.c **** /**
 276:Middlewares/Third_Party/RealThread_RTOS/components/finsh/shell.c ****  * @ingroup finsh
 277:Middlewares/Third_Party/RealThread_RTOS/components/finsh/shell.c ****  *
 278:Middlewares/Third_Party/RealThread_RTOS/components/finsh/shell.c ****  * This function gets the echo mode of finsh shell.
 279:Middlewares/Third_Party/RealThread_RTOS/components/finsh/shell.c ****  *
 280:Middlewares/Third_Party/RealThread_RTOS/components/finsh/shell.c ****  * @return the echo mode
 281:Middlewares/Third_Party/RealThread_RTOS/components/finsh/shell.c ****  */
 282:Middlewares/Third_Party/RealThread_RTOS/components/finsh/shell.c **** rt_uint32_t finsh_get_echo()
 283:Middlewares/Third_Party/RealThread_RTOS/components/finsh/shell.c **** {
 284:Middlewares/Third_Party/RealThread_RTOS/components/finsh/shell.c ****     RT_ASSERT(shell != RT_NULL);
 285:Middlewares/Third_Party/RealThread_RTOS/components/finsh/shell.c **** 
 286:Middlewares/Third_Party/RealThread_RTOS/components/finsh/shell.c ****     return shell->echo_mode;
 287:Middlewares/Third_Party/RealThread_RTOS/components/finsh/shell.c **** }
 288:Middlewares/Third_Party/RealThread_RTOS/components/finsh/shell.c **** 
 289:Middlewares/Third_Party/RealThread_RTOS/components/finsh/shell.c **** #ifdef FINSH_USING_AUTH
 290:Middlewares/Third_Party/RealThread_RTOS/components/finsh/shell.c **** /**
 291:Middlewares/Third_Party/RealThread_RTOS/components/finsh/shell.c ****  * set a new password for finsh
ARM GAS  C:\Users\Administrator\AppData\Local\Temp\cchb52ze.s 			page 14


 292:Middlewares/Third_Party/RealThread_RTOS/components/finsh/shell.c ****  *
 293:Middlewares/Third_Party/RealThread_RTOS/components/finsh/shell.c ****  * @param password new password
 294:Middlewares/Third_Party/RealThread_RTOS/components/finsh/shell.c ****  *
 295:Middlewares/Third_Party/RealThread_RTOS/components/finsh/shell.c ****  * @return result, RT_EOK on OK, -RT_ERROR on the new password length is less than
 296:Middlewares/Third_Party/RealThread_RTOS/components/finsh/shell.c ****  *  FINSH_PASSWORD_MIN or greater than FINSH_PASSWORD_MAX
 297:Middlewares/Third_Party/RealThread_RTOS/components/finsh/shell.c ****  */
 298:Middlewares/Third_Party/RealThread_RTOS/components/finsh/shell.c **** rt_err_t finsh_set_password(const char *password) {
 299:Middlewares/Third_Party/RealThread_RTOS/components/finsh/shell.c ****     rt_ubase_t level;
 300:Middlewares/Third_Party/RealThread_RTOS/components/finsh/shell.c ****     rt_size_t pw_len = rt_strlen(password);
 301:Middlewares/Third_Party/RealThread_RTOS/components/finsh/shell.c **** 
 302:Middlewares/Third_Party/RealThread_RTOS/components/finsh/shell.c ****     if (pw_len < FINSH_PASSWORD_MIN || pw_len > FINSH_PASSWORD_MAX)
 303:Middlewares/Third_Party/RealThread_RTOS/components/finsh/shell.c ****         return -RT_ERROR;
 304:Middlewares/Third_Party/RealThread_RTOS/components/finsh/shell.c **** 
 305:Middlewares/Third_Party/RealThread_RTOS/components/finsh/shell.c ****     level = rt_hw_interrupt_disable();
 306:Middlewares/Third_Party/RealThread_RTOS/components/finsh/shell.c ****     rt_strncpy(shell->password, password, FINSH_PASSWORD_MAX);
 307:Middlewares/Third_Party/RealThread_RTOS/components/finsh/shell.c ****     rt_hw_interrupt_enable(level);
 308:Middlewares/Third_Party/RealThread_RTOS/components/finsh/shell.c **** 
 309:Middlewares/Third_Party/RealThread_RTOS/components/finsh/shell.c ****     return RT_EOK;
 310:Middlewares/Third_Party/RealThread_RTOS/components/finsh/shell.c **** }
 311:Middlewares/Third_Party/RealThread_RTOS/components/finsh/shell.c **** 
 312:Middlewares/Third_Party/RealThread_RTOS/components/finsh/shell.c **** /**
 313:Middlewares/Third_Party/RealThread_RTOS/components/finsh/shell.c ****  * get the finsh password
 314:Middlewares/Third_Party/RealThread_RTOS/components/finsh/shell.c ****  *
 315:Middlewares/Third_Party/RealThread_RTOS/components/finsh/shell.c ****  * @return password
 316:Middlewares/Third_Party/RealThread_RTOS/components/finsh/shell.c ****  */
 317:Middlewares/Third_Party/RealThread_RTOS/components/finsh/shell.c **** const char *finsh_get_password(void)
 318:Middlewares/Third_Party/RealThread_RTOS/components/finsh/shell.c **** {
 319:Middlewares/Third_Party/RealThread_RTOS/components/finsh/shell.c ****     return shell->password;
 320:Middlewares/Third_Party/RealThread_RTOS/components/finsh/shell.c **** }
 321:Middlewares/Third_Party/RealThread_RTOS/components/finsh/shell.c **** 
 322:Middlewares/Third_Party/RealThread_RTOS/components/finsh/shell.c **** static void finsh_wait_auth(void)
 323:Middlewares/Third_Party/RealThread_RTOS/components/finsh/shell.c **** {
 324:Middlewares/Third_Party/RealThread_RTOS/components/finsh/shell.c ****     int ch;
 325:Middlewares/Third_Party/RealThread_RTOS/components/finsh/shell.c ****     rt_bool_t input_finish = RT_FALSE;
 326:Middlewares/Third_Party/RealThread_RTOS/components/finsh/shell.c ****     char password[FINSH_PASSWORD_MAX] = { 0 };
 327:Middlewares/Third_Party/RealThread_RTOS/components/finsh/shell.c ****     rt_size_t cur_pos = 0;
 328:Middlewares/Third_Party/RealThread_RTOS/components/finsh/shell.c ****     /* password not set */
 329:Middlewares/Third_Party/RealThread_RTOS/components/finsh/shell.c ****     if (rt_strlen(finsh_get_password()) == 0) return;
 330:Middlewares/Third_Party/RealThread_RTOS/components/finsh/shell.c **** 
 331:Middlewares/Third_Party/RealThread_RTOS/components/finsh/shell.c ****     while (1)
 332:Middlewares/Third_Party/RealThread_RTOS/components/finsh/shell.c ****     {
 333:Middlewares/Third_Party/RealThread_RTOS/components/finsh/shell.c ****         rt_kprintf("Password for login: ");
 334:Middlewares/Third_Party/RealThread_RTOS/components/finsh/shell.c ****         while (!input_finish)
 335:Middlewares/Third_Party/RealThread_RTOS/components/finsh/shell.c ****         {
 336:Middlewares/Third_Party/RealThread_RTOS/components/finsh/shell.c ****             while (1)
 337:Middlewares/Third_Party/RealThread_RTOS/components/finsh/shell.c ****             {
 338:Middlewares/Third_Party/RealThread_RTOS/components/finsh/shell.c ****                 /* read one character from device */
 339:Middlewares/Third_Party/RealThread_RTOS/components/finsh/shell.c ****                 ch = finsh_getchar();
 340:Middlewares/Third_Party/RealThread_RTOS/components/finsh/shell.c ****                 if (ch < 0)
 341:Middlewares/Third_Party/RealThread_RTOS/components/finsh/shell.c ****                 {
 342:Middlewares/Third_Party/RealThread_RTOS/components/finsh/shell.c ****                     continue;
 343:Middlewares/Third_Party/RealThread_RTOS/components/finsh/shell.c ****                 }
 344:Middlewares/Third_Party/RealThread_RTOS/components/finsh/shell.c **** 
 345:Middlewares/Third_Party/RealThread_RTOS/components/finsh/shell.c ****                 if (ch >= ' ' && ch <= '~' && cur_pos < FINSH_PASSWORD_MAX)
 346:Middlewares/Third_Party/RealThread_RTOS/components/finsh/shell.c ****                 {
 347:Middlewares/Third_Party/RealThread_RTOS/components/finsh/shell.c ****                     /* change the printable characters to '*' */
 348:Middlewares/Third_Party/RealThread_RTOS/components/finsh/shell.c ****                     rt_kprintf("*");
ARM GAS  C:\Users\Administrator\AppData\Local\Temp\cchb52ze.s 			page 15


 349:Middlewares/Third_Party/RealThread_RTOS/components/finsh/shell.c ****                     password[cur_pos++] = ch;
 350:Middlewares/Third_Party/RealThread_RTOS/components/finsh/shell.c ****                 }
 351:Middlewares/Third_Party/RealThread_RTOS/components/finsh/shell.c ****                 else if (ch == '\b' && cur_pos > 0)
 352:Middlewares/Third_Party/RealThread_RTOS/components/finsh/shell.c ****                 {
 353:Middlewares/Third_Party/RealThread_RTOS/components/finsh/shell.c ****                     /* backspace */
 354:Middlewares/Third_Party/RealThread_RTOS/components/finsh/shell.c ****                     cur_pos--;
 355:Middlewares/Third_Party/RealThread_RTOS/components/finsh/shell.c ****                     password[cur_pos] = '\0';
 356:Middlewares/Third_Party/RealThread_RTOS/components/finsh/shell.c ****                     rt_kprintf("\b \b");
 357:Middlewares/Third_Party/RealThread_RTOS/components/finsh/shell.c ****                 }
 358:Middlewares/Third_Party/RealThread_RTOS/components/finsh/shell.c ****                 else if (ch == '\r' || ch == '\n')
 359:Middlewares/Third_Party/RealThread_RTOS/components/finsh/shell.c ****                 {
 360:Middlewares/Third_Party/RealThread_RTOS/components/finsh/shell.c ****                     rt_kprintf("\n");
 361:Middlewares/Third_Party/RealThread_RTOS/components/finsh/shell.c ****                     input_finish = RT_TRUE;
 362:Middlewares/Third_Party/RealThread_RTOS/components/finsh/shell.c ****                     break;
 363:Middlewares/Third_Party/RealThread_RTOS/components/finsh/shell.c ****                 }
 364:Middlewares/Third_Party/RealThread_RTOS/components/finsh/shell.c ****             }
 365:Middlewares/Third_Party/RealThread_RTOS/components/finsh/shell.c ****         }
 366:Middlewares/Third_Party/RealThread_RTOS/components/finsh/shell.c ****         if (!rt_strncmp(shell->password, password, FINSH_PASSWORD_MAX)) return;
 367:Middlewares/Third_Party/RealThread_RTOS/components/finsh/shell.c ****         else
 368:Middlewares/Third_Party/RealThread_RTOS/components/finsh/shell.c ****         {
 369:Middlewares/Third_Party/RealThread_RTOS/components/finsh/shell.c ****             /* authentication failed, delay 2S for retry */
 370:Middlewares/Third_Party/RealThread_RTOS/components/finsh/shell.c ****             rt_thread_delay(2 * RT_TICK_PER_SECOND);
 371:Middlewares/Third_Party/RealThread_RTOS/components/finsh/shell.c ****             rt_kprintf("Sorry, try again.\n");
 372:Middlewares/Third_Party/RealThread_RTOS/components/finsh/shell.c ****             cur_pos = 0;
 373:Middlewares/Third_Party/RealThread_RTOS/components/finsh/shell.c ****             input_finish = RT_FALSE;
 374:Middlewares/Third_Party/RealThread_RTOS/components/finsh/shell.c ****             rt_memset(password, '\0', FINSH_PASSWORD_MAX);
 375:Middlewares/Third_Party/RealThread_RTOS/components/finsh/shell.c ****         }
 376:Middlewares/Third_Party/RealThread_RTOS/components/finsh/shell.c ****     }
 377:Middlewares/Third_Party/RealThread_RTOS/components/finsh/shell.c **** }
 378:Middlewares/Third_Party/RealThread_RTOS/components/finsh/shell.c **** #endif /* FINSH_USING_AUTH */
 379:Middlewares/Third_Party/RealThread_RTOS/components/finsh/shell.c **** 
 380:Middlewares/Third_Party/RealThread_RTOS/components/finsh/shell.c **** static void shell_auto_complete(char *prefix)
 381:Middlewares/Third_Party/RealThread_RTOS/components/finsh/shell.c **** {
 385              		.loc 1 381 1 view -0
 386              		.cfi_startproc
 387              		@ args = 0, pretend = 0, frame = 0
 388              		@ frame_needed = 0, uses_anonymous_args = 0
 389              		.loc 1 381 1 is_stmt 0 view .LVU76
 390 0000 10B5     		push	{r4, lr}
 391              	.LCFI8:
 392              		.cfi_def_cfa_offset 8
 393              		.cfi_offset 4, -8
 394              		.cfi_offset 14, -4
 395 0002 0446     		mov	r4, r0
 382:Middlewares/Third_Party/RealThread_RTOS/components/finsh/shell.c **** 
 383:Middlewares/Third_Party/RealThread_RTOS/components/finsh/shell.c ****     rt_kprintf("\n");
 396              		.loc 1 383 5 is_stmt 1 view .LVU77
 397 0004 0948     		ldr	r0, .L40
 398              	.LVL22:
 399              		.loc 1 383 5 is_stmt 0 view .LVU78
 400 0006 FFF7FEFF 		bl	rt_kprintf
 401              	.LVL23:
 384:Middlewares/Third_Party/RealThread_RTOS/components/finsh/shell.c **** #ifdef FINSH_USING_MSH
 385:Middlewares/Third_Party/RealThread_RTOS/components/finsh/shell.c ****     if (msh_is_used() == RT_TRUE)
 402              		.loc 1 385 5 is_stmt 1 view .LVU79
 403              		.loc 1 385 9 is_stmt 0 view .LVU80
 404 000a FFF7FEFF 		bl	msh_is_used
ARM GAS  C:\Users\Administrator\AppData\Local\Temp\cchb52ze.s 			page 16


 405              	.LVL24:
 406              		.loc 1 385 8 view .LVU81
 407 000e 0128     		cmp	r0, #1
 408 0010 07D0     		beq	.L39
 409              	.L37:
 386:Middlewares/Third_Party/RealThread_RTOS/components/finsh/shell.c ****     {
 387:Middlewares/Third_Party/RealThread_RTOS/components/finsh/shell.c ****         msh_auto_complete(prefix);
 388:Middlewares/Third_Party/RealThread_RTOS/components/finsh/shell.c ****     }
 389:Middlewares/Third_Party/RealThread_RTOS/components/finsh/shell.c ****     else
 390:Middlewares/Third_Party/RealThread_RTOS/components/finsh/shell.c **** #endif
 391:Middlewares/Third_Party/RealThread_RTOS/components/finsh/shell.c ****     {
 392:Middlewares/Third_Party/RealThread_RTOS/components/finsh/shell.c **** #ifndef FINSH_USING_MSH_ONLY
 393:Middlewares/Third_Party/RealThread_RTOS/components/finsh/shell.c ****         extern void list_prefix(char * prefix);
 394:Middlewares/Third_Party/RealThread_RTOS/components/finsh/shell.c ****         list_prefix(prefix);
 395:Middlewares/Third_Party/RealThread_RTOS/components/finsh/shell.c **** #endif
 396:Middlewares/Third_Party/RealThread_RTOS/components/finsh/shell.c ****     }
 410              		.loc 1 396 5 is_stmt 1 view .LVU82
 397:Middlewares/Third_Party/RealThread_RTOS/components/finsh/shell.c **** 
 398:Middlewares/Third_Party/RealThread_RTOS/components/finsh/shell.c ****     rt_kprintf("%s%s", FINSH_PROMPT, prefix);
 411              		.loc 1 398 5 view .LVU83
 412 0012 FFF7FEFF 		bl	finsh_get_prompt
 413              	.LVL25:
 414 0016 0146     		mov	r1, r0
 415 0018 2246     		mov	r2, r4
 416 001a 0548     		ldr	r0, .L40+4
 417 001c FFF7FEFF 		bl	rt_kprintf
 418              	.LVL26:
 399:Middlewares/Third_Party/RealThread_RTOS/components/finsh/shell.c **** }
 419              		.loc 1 399 1 is_stmt 0 view .LVU84
 420 0020 10BD     		pop	{r4, pc}
 421              	.LVL27:
 422              	.L39:
 387:Middlewares/Third_Party/RealThread_RTOS/components/finsh/shell.c ****     }
 423              		.loc 1 387 9 is_stmt 1 view .LVU85
 424 0022 2046     		mov	r0, r4
 425 0024 FFF7FEFF 		bl	msh_auto_complete
 426              	.LVL28:
 427 0028 F3E7     		b	.L37
 428              	.L41:
 429 002a 00BF     		.align	2
 430              	.L40:
 431 002c 00000000 		.word	.LC4
 432 0030 04000000 		.word	.LC5
 433              		.cfi_endproc
 434              	.LFE28:
 436              		.section	.text.finsh_get_prompt_mode,"ax",%progbits
 437              		.align	1
 438              		.global	finsh_get_prompt_mode
 439              		.syntax unified
 440              		.thumb
 441              		.thumb_func
 442              		.fpu softvfp
 444              	finsh_get_prompt_mode:
 445              	.LFB20:
 148:Middlewares/Third_Party/RealThread_RTOS/components/finsh/shell.c ****     RT_ASSERT(shell != RT_NULL);
 446              		.loc 1 148 1 view -0
 447              		.cfi_startproc
ARM GAS  C:\Users\Administrator\AppData\Local\Temp\cchb52ze.s 			page 17


 448              		@ args = 0, pretend = 0, frame = 0
 449              		@ frame_needed = 0, uses_anonymous_args = 0
 450 0000 08B5     		push	{r3, lr}
 451              	.LCFI9:
 452              		.cfi_def_cfa_offset 8
 453              		.cfi_offset 3, -8
 454              		.cfi_offset 14, -4
 149:Middlewares/Third_Party/RealThread_RTOS/components/finsh/shell.c ****     return shell->prompt_mode;
 455              		.loc 1 149 5 view .LVU87
 456 0002 084B     		ldr	r3, .L46
 457 0004 1B68     		ldr	r3, [r3]
 458 0006 33B1     		cbz	r3, .L45
 459              	.L43:
 149:Middlewares/Third_Party/RealThread_RTOS/components/finsh/shell.c ****     return shell->prompt_mode;
 460              		.loc 1 149 32 discriminator 3 view .LVU88
 150:Middlewares/Third_Party/RealThread_RTOS/components/finsh/shell.c **** }
 461              		.loc 1 150 5 discriminator 3 view .LVU89
 150:Middlewares/Third_Party/RealThread_RTOS/components/finsh/shell.c **** }
 462              		.loc 1 150 17 is_stmt 0 discriminator 3 view .LVU90
 463 0008 064B     		ldr	r3, .L46
 464 000a 1B68     		ldr	r3, [r3]
 465 000c 93F82100 		ldrb	r0, [r3, #33]	@ zero_extendqisi2
 151:Middlewares/Third_Party/RealThread_RTOS/components/finsh/shell.c **** 
 466              		.loc 1 151 1 discriminator 3 view .LVU91
 467 0010 C0F34000 		ubfx	r0, r0, #1, #1
 468 0014 08BD     		pop	{r3, pc}
 469              	.L45:
 149:Middlewares/Third_Party/RealThread_RTOS/components/finsh/shell.c ****     return shell->prompt_mode;
 470              		.loc 1 149 5 is_stmt 1 discriminator 1 view .LVU92
 471 0016 9522     		movs	r2, #149
 472 0018 0349     		ldr	r1, .L46+4
 473 001a 0448     		ldr	r0, .L46+8
 474 001c FFF7FEFF 		bl	rt_assert_handler
 475              	.LVL29:
 476 0020 F2E7     		b	.L43
 477              	.L47:
 478 0022 00BF     		.align	2
 479              	.L46:
 480 0024 00000000 		.word	.LANCHOR0
 481 0028 00000000 		.word	.LANCHOR5
 482 002c 00000000 		.word	.LC0
 483              		.cfi_endproc
 484              	.LFE20:
 486              		.section	.text.finsh_set_prompt_mode,"ax",%progbits
 487              		.align	1
 488              		.global	finsh_set_prompt_mode
 489              		.syntax unified
 490              		.thumb
 491              		.thumb_func
 492              		.fpu softvfp
 494              	finsh_set_prompt_mode:
 495              	.LVL30:
 496              	.LFB21:
 163:Middlewares/Third_Party/RealThread_RTOS/components/finsh/shell.c ****     RT_ASSERT(shell != RT_NULL);
 497              		.loc 1 163 1 view -0
 498              		.cfi_startproc
 499              		@ args = 0, pretend = 0, frame = 0
ARM GAS  C:\Users\Administrator\AppData\Local\Temp\cchb52ze.s 			page 18


 500              		@ frame_needed = 0, uses_anonymous_args = 0
 163:Middlewares/Third_Party/RealThread_RTOS/components/finsh/shell.c ****     RT_ASSERT(shell != RT_NULL);
 501              		.loc 1 163 1 is_stmt 0 view .LVU94
 502 0000 10B5     		push	{r4, lr}
 503              	.LCFI10:
 504              		.cfi_def_cfa_offset 8
 505              		.cfi_offset 4, -8
 506              		.cfi_offset 14, -4
 507 0002 0446     		mov	r4, r0
 164:Middlewares/Third_Party/RealThread_RTOS/components/finsh/shell.c ****     shell->prompt_mode = prompt_mode;
 508              		.loc 1 164 5 is_stmt 1 view .LVU95
 509 0004 084B     		ldr	r3, .L52
 510 0006 1B68     		ldr	r3, [r3]
 511 0008 43B1     		cbz	r3, .L51
 512              	.LVL31:
 513              	.L49:
 164:Middlewares/Third_Party/RealThread_RTOS/components/finsh/shell.c ****     shell->prompt_mode = prompt_mode;
 514              		.loc 1 164 32 discriminator 3 view .LVU96
 165:Middlewares/Third_Party/RealThread_RTOS/components/finsh/shell.c **** }
 515              		.loc 1 165 5 discriminator 3 view .LVU97
 165:Middlewares/Third_Party/RealThread_RTOS/components/finsh/shell.c **** }
 516              		.loc 1 165 10 is_stmt 0 discriminator 3 view .LVU98
 517 000a 074B     		ldr	r3, .L52
 518 000c 1B68     		ldr	r3, [r3]
 165:Middlewares/Third_Party/RealThread_RTOS/components/finsh/shell.c **** }
 519              		.loc 1 165 24 discriminator 3 view .LVU99
 520 000e 93F82120 		ldrb	r2, [r3, #33]	@ zero_extendqisi2
 521 0012 64F34102 		bfi	r2, r4, #1, #1
 522 0016 83F82120 		strb	r2, [r3, #33]
 166:Middlewares/Third_Party/RealThread_RTOS/components/finsh/shell.c **** 
 523              		.loc 1 166 1 discriminator 3 view .LVU100
 524 001a 10BD     		pop	{r4, pc}
 525              	.LVL32:
 526              	.L51:
 164:Middlewares/Third_Party/RealThread_RTOS/components/finsh/shell.c ****     shell->prompt_mode = prompt_mode;
 527              		.loc 1 164 5 is_stmt 1 discriminator 1 view .LVU101
 528 001c A422     		movs	r2, #164
 529 001e 0349     		ldr	r1, .L52+4
 530 0020 0348     		ldr	r0, .L52+8
 531              	.LVL33:
 164:Middlewares/Third_Party/RealThread_RTOS/components/finsh/shell.c ****     shell->prompt_mode = prompt_mode;
 532              		.loc 1 164 5 is_stmt 0 discriminator 1 view .LVU102
 533 0022 FFF7FEFF 		bl	rt_assert_handler
 534              	.LVL34:
 535 0026 F0E7     		b	.L49
 536              	.L53:
 537              		.align	2
 538              	.L52:
 539 0028 00000000 		.word	.LANCHOR0
 540 002c 00000000 		.word	.LANCHOR6
 541 0030 00000000 		.word	.LC0
 542              		.cfi_endproc
 543              	.LFE21:
 545              		.section	.rodata.finsh_set_device.str1.4,"aMS",%progbits,1
 546              		.align	2
 547              	.LC6:
 548 0000 66696E73 		.ascii	"finsh: can not find device: %s\012\000"
ARM GAS  C:\Users\Administrator\AppData\Local\Temp\cchb52ze.s 			page 19


 548      683A2063 
 548      616E206E 
 548      6F742066 
 548      696E6420 
 549              		.section	.text.finsh_set_device,"ax",%progbits
 550              		.align	1
 551              		.global	finsh_set_device
 552              		.syntax unified
 553              		.thumb
 554              		.thumb_func
 555              		.fpu softvfp
 557              	finsh_set_device:
 558              	.LVL35:
 559              	.LFB24:
 213:Middlewares/Third_Party/RealThread_RTOS/components/finsh/shell.c ****     rt_device_t dev = RT_NULL;
 560              		.loc 1 213 1 is_stmt 1 view -0
 561              		.cfi_startproc
 562              		@ args = 0, pretend = 0, frame = 0
 563              		@ frame_needed = 0, uses_anonymous_args = 0
 213:Middlewares/Third_Party/RealThread_RTOS/components/finsh/shell.c ****     rt_device_t dev = RT_NULL;
 564              		.loc 1 213 1 is_stmt 0 view .LVU104
 565 0000 38B5     		push	{r3, r4, r5, lr}
 566              	.LCFI11:
 567              		.cfi_def_cfa_offset 16
 568              		.cfi_offset 3, -16
 569              		.cfi_offset 4, -12
 570              		.cfi_offset 5, -8
 571              		.cfi_offset 14, -4
 572 0002 0446     		mov	r4, r0
 214:Middlewares/Third_Party/RealThread_RTOS/components/finsh/shell.c **** 
 573              		.loc 1 214 5 is_stmt 1 view .LVU105
 574              	.LVL36:
 216:Middlewares/Third_Party/RealThread_RTOS/components/finsh/shell.c ****     dev = rt_device_find(device_name);
 575              		.loc 1 216 5 view .LVU106
 576 0004 1D4B     		ldr	r3, .L62
 577 0006 1B68     		ldr	r3, [r3]
 578 0008 6BB3     		cbz	r3, .L60
 579              	.LVL37:
 580              	.L55:
 216:Middlewares/Third_Party/RealThread_RTOS/components/finsh/shell.c ****     dev = rt_device_find(device_name);
 581              		.loc 1 216 32 discriminator 3 view .LVU107
 217:Middlewares/Third_Party/RealThread_RTOS/components/finsh/shell.c ****     if (dev == RT_NULL)
 582              		.loc 1 217 5 discriminator 3 view .LVU108
 217:Middlewares/Third_Party/RealThread_RTOS/components/finsh/shell.c ****     if (dev == RT_NULL)
 583              		.loc 1 217 11 is_stmt 0 discriminator 3 view .LVU109
 584 000a 2046     		mov	r0, r4
 585 000c FFF7FEFF 		bl	rt_device_find
 586              	.LVL38:
 218:Middlewares/Third_Party/RealThread_RTOS/components/finsh/shell.c ****     {
 587              		.loc 1 218 5 is_stmt 1 discriminator 3 view .LVU110
 218:Middlewares/Third_Party/RealThread_RTOS/components/finsh/shell.c ****     {
 588              		.loc 1 218 8 is_stmt 0 discriminator 3 view .LVU111
 589 0010 0546     		mov	r5, r0
 590 0012 70B3     		cbz	r0, .L61
 225:Middlewares/Third_Party/RealThread_RTOS/components/finsh/shell.c ****     /* open this device and set the new device in finsh shell */
 591              		.loc 1 225 5 is_stmt 1 view .LVU112
 225:Middlewares/Third_Party/RealThread_RTOS/components/finsh/shell.c ****     /* open this device and set the new device in finsh shell */
ARM GAS  C:\Users\Administrator\AppData\Local\Temp\cchb52ze.s 			page 20


 592              		.loc 1 225 21 is_stmt 0 view .LVU113
 593 0014 194B     		ldr	r3, .L62
 594 0016 1B68     		ldr	r3, [r3]
 595 0018 9B6F     		ldr	r3, [r3, #120]
 225:Middlewares/Third_Party/RealThread_RTOS/components/finsh/shell.c ****     /* open this device and set the new device in finsh shell */
 596              		.loc 1 225 8 view .LVU114
 597 001a 8342     		cmp	r3, r0
 598 001c 22D0     		beq	.L54
 227:Middlewares/Third_Party/RealThread_RTOS/components/finsh/shell.c ****                        RT_DEVICE_FLAG_STREAM) == RT_EOK)
 599              		.loc 1 227 5 is_stmt 1 view .LVU115
 227:Middlewares/Third_Party/RealThread_RTOS/components/finsh/shell.c ****                        RT_DEVICE_FLAG_STREAM) == RT_EOK)
 600              		.loc 1 227 9 is_stmt 0 view .LVU116
 601 001e 40F24311 		movw	r1, #323
 602 0022 FFF7FEFF 		bl	rt_device_open
 603              	.LVL39:
 227:Middlewares/Third_Party/RealThread_RTOS/components/finsh/shell.c ****                        RT_DEVICE_FLAG_STREAM) == RT_EOK)
 604              		.loc 1 227 8 view .LVU117
 605 0026 E8B9     		cbnz	r0, .L54
 230:Middlewares/Third_Party/RealThread_RTOS/components/finsh/shell.c ****         {
 606              		.loc 1 230 9 is_stmt 1 view .LVU118
 230:Middlewares/Third_Party/RealThread_RTOS/components/finsh/shell.c ****         {
 607              		.loc 1 230 18 is_stmt 0 view .LVU119
 608 0028 144B     		ldr	r3, .L62
 609 002a 1B68     		ldr	r3, [r3]
 610 002c 986F     		ldr	r0, [r3, #120]
 230:Middlewares/Third_Party/RealThread_RTOS/components/finsh/shell.c ****         {
 611              		.loc 1 230 12 view .LVU120
 612 002e 38B1     		cbz	r0, .L58
 233:Middlewares/Third_Party/RealThread_RTOS/components/finsh/shell.c ****             rt_device_set_rx_indicate(shell->device, RT_NULL);
 613              		.loc 1 233 13 is_stmt 1 view .LVU121
 614 0030 FFF7FEFF 		bl	rt_device_close
 615              	.LVL40:
 234:Middlewares/Third_Party/RealThread_RTOS/components/finsh/shell.c ****         }
 616              		.loc 1 234 13 view .LVU122
 234:Middlewares/Third_Party/RealThread_RTOS/components/finsh/shell.c ****         }
 617              		.loc 1 234 44 is_stmt 0 view .LVU123
 618 0034 114B     		ldr	r3, .L62
 619 0036 1B68     		ldr	r3, [r3]
 234:Middlewares/Third_Party/RealThread_RTOS/components/finsh/shell.c ****         }
 620              		.loc 1 234 13 view .LVU124
 621 0038 0021     		movs	r1, #0
 622 003a 986F     		ldr	r0, [r3, #120]
 623 003c FFF7FEFF 		bl	rt_device_set_rx_indicate
 624              	.LVL41:
 625              	.L58:
 238:Middlewares/Third_Party/RealThread_RTOS/components/finsh/shell.c ****         shell->line_curpos = shell->line_position = 0;
 626              		.loc 1 238 9 is_stmt 1 view .LVU125
 238:Middlewares/Third_Party/RealThread_RTOS/components/finsh/shell.c ****         shell->line_curpos = shell->line_position = 0;
 627              		.loc 1 238 21 is_stmt 0 view .LVU126
 628 0040 0E4B     		ldr	r3, .L62
 629 0042 1C68     		ldr	r4, [r3]
 630              	.LVL42:
 238:Middlewares/Third_Party/RealThread_RTOS/components/finsh/shell.c ****         shell->line_curpos = shell->line_position = 0;
 631              		.loc 1 238 9 view .LVU127
 632 0044 5022     		movs	r2, #80
 633 0046 0021     		movs	r1, #0
 634 0048 04F12200 		add	r0, r4, #34
ARM GAS  C:\Users\Administrator\AppData\Local\Temp\cchb52ze.s 			page 21


 635 004c FFF7FEFF 		bl	memset
 636              	.LVL43:
 239:Middlewares/Third_Party/RealThread_RTOS/components/finsh/shell.c **** 
 637              		.loc 1 239 9 is_stmt 1 view .LVU128
 239:Middlewares/Third_Party/RealThread_RTOS/components/finsh/shell.c **** 
 638              		.loc 1 239 51 is_stmt 0 view .LVU129
 639 0050 0023     		movs	r3, #0
 640 0052 A4F87230 		strh	r3, [r4, #114]	@ movhi
 239:Middlewares/Third_Party/RealThread_RTOS/components/finsh/shell.c **** 
 641              		.loc 1 239 28 view .LVU130
 642 0056 A4F87430 		strh	r3, [r4, #116]	@ movhi
 241:Middlewares/Third_Party/RealThread_RTOS/components/finsh/shell.c ****         rt_device_set_rx_indicate(dev, finsh_rx_ind);
 643              		.loc 1 241 9 is_stmt 1 view .LVU131
 241:Middlewares/Third_Party/RealThread_RTOS/components/finsh/shell.c ****         rt_device_set_rx_indicate(dev, finsh_rx_ind);
 644              		.loc 1 241 23 is_stmt 0 view .LVU132
 645 005a A567     		str	r5, [r4, #120]
 242:Middlewares/Third_Party/RealThread_RTOS/components/finsh/shell.c ****     }
 646              		.loc 1 242 9 is_stmt 1 view .LVU133
 647 005c 0849     		ldr	r1, .L62+4
 648 005e 2846     		mov	r0, r5
 649 0060 FFF7FEFF 		bl	rt_device_set_rx_indicate
 650              	.LVL44:
 651              	.L54:
 244:Middlewares/Third_Party/RealThread_RTOS/components/finsh/shell.c **** 
 652              		.loc 1 244 1 is_stmt 0 view .LVU134
 653 0064 38BD     		pop	{r3, r4, r5, pc}
 654              	.LVL45:
 655              	.L60:
 216:Middlewares/Third_Party/RealThread_RTOS/components/finsh/shell.c ****     dev = rt_device_find(device_name);
 656              		.loc 1 216 5 is_stmt 1 discriminator 1 view .LVU135
 657 0066 D822     		movs	r2, #216
 658 0068 0649     		ldr	r1, .L62+8
 659 006a 0748     		ldr	r0, .L62+12
 660              	.LVL46:
 216:Middlewares/Third_Party/RealThread_RTOS/components/finsh/shell.c ****     dev = rt_device_find(device_name);
 661              		.loc 1 216 5 is_stmt 0 discriminator 1 view .LVU136
 662 006c FFF7FEFF 		bl	rt_assert_handler
 663              	.LVL47:
 664 0070 CBE7     		b	.L55
 665              	.LVL48:
 666              	.L61:
 220:Middlewares/Third_Party/RealThread_RTOS/components/finsh/shell.c ****         return;
 667              		.loc 1 220 9 is_stmt 1 view .LVU137
 668 0072 2146     		mov	r1, r4
 669 0074 0548     		ldr	r0, .L62+16
 670              	.LVL49:
 220:Middlewares/Third_Party/RealThread_RTOS/components/finsh/shell.c ****         return;
 671              		.loc 1 220 9 is_stmt 0 view .LVU138
 672 0076 FFF7FEFF 		bl	rt_kprintf
 673              	.LVL50:
 221:Middlewares/Third_Party/RealThread_RTOS/components/finsh/shell.c ****     }
 674              		.loc 1 221 9 is_stmt 1 view .LVU139
 675 007a F3E7     		b	.L54
 676              	.L63:
 677              		.align	2
 678              	.L62:
 679 007c 00000000 		.word	.LANCHOR0
ARM GAS  C:\Users\Administrator\AppData\Local\Temp\cchb52ze.s 			page 22


 680 0080 00000000 		.word	finsh_rx_ind
 681 0084 00000000 		.word	.LANCHOR7
 682 0088 00000000 		.word	.LC0
 683 008c 00000000 		.word	.LC6
 684              		.cfi_endproc
 685              	.LFE24:
 687              		.section	.rodata.finsh_thread_entry.str1.4,"aMS",%progbits,1
 688              		.align	2
 689              	.LC7:
 690 0000 0800     		.ascii	"\010\000"
 691 0002 0000     		.align	2
 692              	.LC8:
 693 0004 256300   		.ascii	"%c\000"
 694 0007 00       		.align	2
 695              	.LC9:
 696 0008 08257320 		.ascii	"\010%s  \010\000"
 696      200800
 697 000f 00       		.align	2
 698              	.LC10:
 699 0010 08200800 		.ascii	"\010 \010\000"
 700              		.align	2
 701              	.LC11:
 702 0014 257300   		.ascii	"%s\000"
 703              		.section	.text.finsh_thread_entry,"ax",%progbits
 704              		.align	1
 705              		.global	finsh_thread_entry
 706              		.syntax unified
 707              		.thumb
 708              		.thumb_func
 709              		.fpu softvfp
 711              	finsh_thread_entry:
 712              	.LVL51:
 713              	.LFB29:
 400:Middlewares/Third_Party/RealThread_RTOS/components/finsh/shell.c **** 
 401:Middlewares/Third_Party/RealThread_RTOS/components/finsh/shell.c **** #ifndef FINSH_USING_MSH_ONLY
 402:Middlewares/Third_Party/RealThread_RTOS/components/finsh/shell.c **** void finsh_run_line(struct finsh_parser *parser, const char *line)
 403:Middlewares/Third_Party/RealThread_RTOS/components/finsh/shell.c **** {
 404:Middlewares/Third_Party/RealThread_RTOS/components/finsh/shell.c ****     const char *err_str;
 405:Middlewares/Third_Party/RealThread_RTOS/components/finsh/shell.c **** 
 406:Middlewares/Third_Party/RealThread_RTOS/components/finsh/shell.c ****     if(shell->echo_mode)
 407:Middlewares/Third_Party/RealThread_RTOS/components/finsh/shell.c ****         rt_kprintf("\n");
 408:Middlewares/Third_Party/RealThread_RTOS/components/finsh/shell.c ****     finsh_parser_run(parser, (unsigned char *)line);
 409:Middlewares/Third_Party/RealThread_RTOS/components/finsh/shell.c **** 
 410:Middlewares/Third_Party/RealThread_RTOS/components/finsh/shell.c ****     /* compile node root */
 411:Middlewares/Third_Party/RealThread_RTOS/components/finsh/shell.c ****     if (finsh_errno() == 0)
 412:Middlewares/Third_Party/RealThread_RTOS/components/finsh/shell.c ****     {
 413:Middlewares/Third_Party/RealThread_RTOS/components/finsh/shell.c ****         finsh_compiler_run(parser->root);
 414:Middlewares/Third_Party/RealThread_RTOS/components/finsh/shell.c ****     }
 415:Middlewares/Third_Party/RealThread_RTOS/components/finsh/shell.c ****     else
 416:Middlewares/Third_Party/RealThread_RTOS/components/finsh/shell.c ****     {
 417:Middlewares/Third_Party/RealThread_RTOS/components/finsh/shell.c ****         err_str = finsh_error_string(finsh_errno());
 418:Middlewares/Third_Party/RealThread_RTOS/components/finsh/shell.c ****         rt_kprintf("%s\n", err_str);
 419:Middlewares/Third_Party/RealThread_RTOS/components/finsh/shell.c ****     }
 420:Middlewares/Third_Party/RealThread_RTOS/components/finsh/shell.c **** 
 421:Middlewares/Third_Party/RealThread_RTOS/components/finsh/shell.c ****     /* run virtual machine */
 422:Middlewares/Third_Party/RealThread_RTOS/components/finsh/shell.c ****     if (finsh_errno() == 0)
 423:Middlewares/Third_Party/RealThread_RTOS/components/finsh/shell.c ****     {
ARM GAS  C:\Users\Administrator\AppData\Local\Temp\cchb52ze.s 			page 23


 424:Middlewares/Third_Party/RealThread_RTOS/components/finsh/shell.c ****         char ch;
 425:Middlewares/Third_Party/RealThread_RTOS/components/finsh/shell.c ****         finsh_vm_run();
 426:Middlewares/Third_Party/RealThread_RTOS/components/finsh/shell.c **** 
 427:Middlewares/Third_Party/RealThread_RTOS/components/finsh/shell.c ****         ch = (unsigned char)finsh_stack_bottom();
 428:Middlewares/Third_Party/RealThread_RTOS/components/finsh/shell.c ****         if (ch > 0x20 && ch < 0x7e)
 429:Middlewares/Third_Party/RealThread_RTOS/components/finsh/shell.c ****         {
 430:Middlewares/Third_Party/RealThread_RTOS/components/finsh/shell.c ****             rt_kprintf("\t'%c', %d, 0x%08x\n",
 431:Middlewares/Third_Party/RealThread_RTOS/components/finsh/shell.c ****                        (unsigned char)finsh_stack_bottom(),
 432:Middlewares/Third_Party/RealThread_RTOS/components/finsh/shell.c ****                        (unsigned int)finsh_stack_bottom(),
 433:Middlewares/Third_Party/RealThread_RTOS/components/finsh/shell.c ****                        (unsigned int)finsh_stack_bottom());
 434:Middlewares/Third_Party/RealThread_RTOS/components/finsh/shell.c ****         }
 435:Middlewares/Third_Party/RealThread_RTOS/components/finsh/shell.c ****         else
 436:Middlewares/Third_Party/RealThread_RTOS/components/finsh/shell.c ****         {
 437:Middlewares/Third_Party/RealThread_RTOS/components/finsh/shell.c ****             rt_kprintf("\t%d, 0x%08x\n",
 438:Middlewares/Third_Party/RealThread_RTOS/components/finsh/shell.c ****                        (unsigned int)finsh_stack_bottom(),
 439:Middlewares/Third_Party/RealThread_RTOS/components/finsh/shell.c ****                        (unsigned int)finsh_stack_bottom());
 440:Middlewares/Third_Party/RealThread_RTOS/components/finsh/shell.c ****         }
 441:Middlewares/Third_Party/RealThread_RTOS/components/finsh/shell.c ****     }
 442:Middlewares/Third_Party/RealThread_RTOS/components/finsh/shell.c **** 
 443:Middlewares/Third_Party/RealThread_RTOS/components/finsh/shell.c ****     finsh_flush(parser);
 444:Middlewares/Third_Party/RealThread_RTOS/components/finsh/shell.c **** }
 445:Middlewares/Third_Party/RealThread_RTOS/components/finsh/shell.c **** #endif
 446:Middlewares/Third_Party/RealThread_RTOS/components/finsh/shell.c **** 
 447:Middlewares/Third_Party/RealThread_RTOS/components/finsh/shell.c **** #ifdef FINSH_USING_HISTORY
 448:Middlewares/Third_Party/RealThread_RTOS/components/finsh/shell.c **** static rt_bool_t shell_handle_history(struct finsh_shell *shell)
 449:Middlewares/Third_Party/RealThread_RTOS/components/finsh/shell.c **** {
 450:Middlewares/Third_Party/RealThread_RTOS/components/finsh/shell.c **** #if defined(_WIN32)
 451:Middlewares/Third_Party/RealThread_RTOS/components/finsh/shell.c ****     int i;
 452:Middlewares/Third_Party/RealThread_RTOS/components/finsh/shell.c ****     rt_kprintf("\r");
 453:Middlewares/Third_Party/RealThread_RTOS/components/finsh/shell.c **** 
 454:Middlewares/Third_Party/RealThread_RTOS/components/finsh/shell.c ****     for (i = 0; i <= 60; i++)
 455:Middlewares/Third_Party/RealThread_RTOS/components/finsh/shell.c ****         putchar(' ');
 456:Middlewares/Third_Party/RealThread_RTOS/components/finsh/shell.c ****     rt_kprintf("\r");
 457:Middlewares/Third_Party/RealThread_RTOS/components/finsh/shell.c **** 
 458:Middlewares/Third_Party/RealThread_RTOS/components/finsh/shell.c **** #else
 459:Middlewares/Third_Party/RealThread_RTOS/components/finsh/shell.c ****     rt_kprintf("\033[2K\r");
 460:Middlewares/Third_Party/RealThread_RTOS/components/finsh/shell.c **** #endif
 461:Middlewares/Third_Party/RealThread_RTOS/components/finsh/shell.c ****     rt_kprintf("%s%s", FINSH_PROMPT, shell->line);
 462:Middlewares/Third_Party/RealThread_RTOS/components/finsh/shell.c ****     return RT_FALSE;
 463:Middlewares/Third_Party/RealThread_RTOS/components/finsh/shell.c **** }
 464:Middlewares/Third_Party/RealThread_RTOS/components/finsh/shell.c **** 
 465:Middlewares/Third_Party/RealThread_RTOS/components/finsh/shell.c **** static void shell_push_history(struct finsh_shell *shell)
 466:Middlewares/Third_Party/RealThread_RTOS/components/finsh/shell.c **** {
 467:Middlewares/Third_Party/RealThread_RTOS/components/finsh/shell.c ****     if (shell->line_position != 0)
 468:Middlewares/Third_Party/RealThread_RTOS/components/finsh/shell.c ****     {
 469:Middlewares/Third_Party/RealThread_RTOS/components/finsh/shell.c ****         /* push history */
 470:Middlewares/Third_Party/RealThread_RTOS/components/finsh/shell.c ****         if (shell->history_count >= FINSH_HISTORY_LINES)
 471:Middlewares/Third_Party/RealThread_RTOS/components/finsh/shell.c ****         {
 472:Middlewares/Third_Party/RealThread_RTOS/components/finsh/shell.c ****             /* if current cmd is same as last cmd, don't push */
 473:Middlewares/Third_Party/RealThread_RTOS/components/finsh/shell.c ****             if (memcmp(&shell->cmd_history[FINSH_HISTORY_LINES - 1], shell->line, FINSH_CMD_SIZE))
 474:Middlewares/Third_Party/RealThread_RTOS/components/finsh/shell.c ****             {
 475:Middlewares/Third_Party/RealThread_RTOS/components/finsh/shell.c ****                 /* move history */
 476:Middlewares/Third_Party/RealThread_RTOS/components/finsh/shell.c ****                 int index;
 477:Middlewares/Third_Party/RealThread_RTOS/components/finsh/shell.c ****                 for (index = 0; index < FINSH_HISTORY_LINES - 1; index ++)
 478:Middlewares/Third_Party/RealThread_RTOS/components/finsh/shell.c ****                 {
 479:Middlewares/Third_Party/RealThread_RTOS/components/finsh/shell.c ****                     memcpy(&shell->cmd_history[index][0],
 480:Middlewares/Third_Party/RealThread_RTOS/components/finsh/shell.c ****                            &shell->cmd_history[index + 1][0], FINSH_CMD_SIZE);
ARM GAS  C:\Users\Administrator\AppData\Local\Temp\cchb52ze.s 			page 24


 481:Middlewares/Third_Party/RealThread_RTOS/components/finsh/shell.c ****                 }
 482:Middlewares/Third_Party/RealThread_RTOS/components/finsh/shell.c ****                 memset(&shell->cmd_history[index][0], 0, FINSH_CMD_SIZE);
 483:Middlewares/Third_Party/RealThread_RTOS/components/finsh/shell.c ****                 memcpy(&shell->cmd_history[index][0], shell->line, shell->line_position);
 484:Middlewares/Third_Party/RealThread_RTOS/components/finsh/shell.c **** 
 485:Middlewares/Third_Party/RealThread_RTOS/components/finsh/shell.c ****                 /* it's the maximum history */
 486:Middlewares/Third_Party/RealThread_RTOS/components/finsh/shell.c ****                 shell->history_count = FINSH_HISTORY_LINES;
 487:Middlewares/Third_Party/RealThread_RTOS/components/finsh/shell.c ****             }
 488:Middlewares/Third_Party/RealThread_RTOS/components/finsh/shell.c ****         }
 489:Middlewares/Third_Party/RealThread_RTOS/components/finsh/shell.c ****         else
 490:Middlewares/Third_Party/RealThread_RTOS/components/finsh/shell.c ****         {
 491:Middlewares/Third_Party/RealThread_RTOS/components/finsh/shell.c ****             /* if current cmd is same as last cmd, don't push */
 492:Middlewares/Third_Party/RealThread_RTOS/components/finsh/shell.c ****             if (shell->history_count == 0 || memcmp(&shell->cmd_history[shell->history_count - 1], 
 493:Middlewares/Third_Party/RealThread_RTOS/components/finsh/shell.c ****             {
 494:Middlewares/Third_Party/RealThread_RTOS/components/finsh/shell.c ****                 shell->current_history = shell->history_count;
 495:Middlewares/Third_Party/RealThread_RTOS/components/finsh/shell.c ****                 memset(&shell->cmd_history[shell->history_count][0], 0, FINSH_CMD_SIZE);
 496:Middlewares/Third_Party/RealThread_RTOS/components/finsh/shell.c ****                 memcpy(&shell->cmd_history[shell->history_count][0], shell->line, shell->line_posit
 497:Middlewares/Third_Party/RealThread_RTOS/components/finsh/shell.c **** 
 498:Middlewares/Third_Party/RealThread_RTOS/components/finsh/shell.c ****                 /* increase count and set current history position */
 499:Middlewares/Third_Party/RealThread_RTOS/components/finsh/shell.c ****                 shell->history_count ++;
 500:Middlewares/Third_Party/RealThread_RTOS/components/finsh/shell.c ****             }
 501:Middlewares/Third_Party/RealThread_RTOS/components/finsh/shell.c ****         }
 502:Middlewares/Third_Party/RealThread_RTOS/components/finsh/shell.c ****     }
 503:Middlewares/Third_Party/RealThread_RTOS/components/finsh/shell.c ****     shell->current_history = shell->history_count;
 504:Middlewares/Third_Party/RealThread_RTOS/components/finsh/shell.c **** }
 505:Middlewares/Third_Party/RealThread_RTOS/components/finsh/shell.c **** #endif
 506:Middlewares/Third_Party/RealThread_RTOS/components/finsh/shell.c **** 
 507:Middlewares/Third_Party/RealThread_RTOS/components/finsh/shell.c **** void finsh_thread_entry(void *parameter)
 508:Middlewares/Third_Party/RealThread_RTOS/components/finsh/shell.c **** {
 714              		.loc 1 508 1 view -0
 715              		.cfi_startproc
 716              		@ args = 0, pretend = 0, frame = 0
 717              		@ frame_needed = 0, uses_anonymous_args = 0
 718              		.loc 1 508 1 is_stmt 0 view .LVU141
 719 0000 10B5     		push	{r4, lr}
 720              	.LCFI12:
 721              		.cfi_def_cfa_offset 8
 722              		.cfi_offset 4, -8
 723              		.cfi_offset 14, -4
 509:Middlewares/Third_Party/RealThread_RTOS/components/finsh/shell.c ****     int ch;
 724              		.loc 1 509 5 is_stmt 1 view .LVU142
 510:Middlewares/Third_Party/RealThread_RTOS/components/finsh/shell.c **** 
 511:Middlewares/Third_Party/RealThread_RTOS/components/finsh/shell.c ****     /* normal is echo mode */
 512:Middlewares/Third_Party/RealThread_RTOS/components/finsh/shell.c **** #ifndef FINSH_ECHO_DISABLE_DEFAULT
 513:Middlewares/Third_Party/RealThread_RTOS/components/finsh/shell.c ****     shell->echo_mode = 1;
 725              		.loc 1 513 5 view .LVU143
 726              		.loc 1 513 10 is_stmt 0 view .LVU144
 727 0002 AF4B     		ldr	r3, .L110
 728 0004 1B68     		ldr	r3, [r3]
 729              		.loc 1 513 22 view .LVU145
 730 0006 93F82120 		ldrb	r2, [r3, #33]	@ zero_extendqisi2
 731 000a 42F00102 		orr	r2, r2, #1
 732 000e 83F82120 		strb	r2, [r3, #33]
 514:Middlewares/Third_Party/RealThread_RTOS/components/finsh/shell.c **** #else
 515:Middlewares/Third_Party/RealThread_RTOS/components/finsh/shell.c ****     shell->echo_mode = 0;
 516:Middlewares/Third_Party/RealThread_RTOS/components/finsh/shell.c **** #endif
 517:Middlewares/Third_Party/RealThread_RTOS/components/finsh/shell.c **** 
 518:Middlewares/Third_Party/RealThread_RTOS/components/finsh/shell.c **** #ifndef FINSH_USING_MSH_ONLY
ARM GAS  C:\Users\Administrator\AppData\Local\Temp\cchb52ze.s 			page 25


 519:Middlewares/Third_Party/RealThread_RTOS/components/finsh/shell.c ****     finsh_init(&shell->parser);
 520:Middlewares/Third_Party/RealThread_RTOS/components/finsh/shell.c **** #endif
 521:Middlewares/Third_Party/RealThread_RTOS/components/finsh/shell.c **** 
 522:Middlewares/Third_Party/RealThread_RTOS/components/finsh/shell.c **** #if !defined(RT_USING_POSIX) && defined(RT_USING_DEVICE)
 523:Middlewares/Third_Party/RealThread_RTOS/components/finsh/shell.c ****     /* set console device as shell device */
 524:Middlewares/Third_Party/RealThread_RTOS/components/finsh/shell.c ****     if (shell->device == RT_NULL)
 733              		.loc 1 524 5 is_stmt 1 view .LVU146
 734              		.loc 1 524 14 is_stmt 0 view .LVU147
 735 0012 9B6F     		ldr	r3, [r3, #120]
 736              		.loc 1 524 8 view .LVU148
 737 0014 23B1     		cbz	r3, .L97
 738              	.LVL52:
 739              	.L65:
 525:Middlewares/Third_Party/RealThread_RTOS/components/finsh/shell.c ****     {
 526:Middlewares/Third_Party/RealThread_RTOS/components/finsh/shell.c ****         rt_device_t console = rt_console_get_device();
 527:Middlewares/Third_Party/RealThread_RTOS/components/finsh/shell.c ****         if (console)
 528:Middlewares/Third_Party/RealThread_RTOS/components/finsh/shell.c ****         {
 529:Middlewares/Third_Party/RealThread_RTOS/components/finsh/shell.c ****             finsh_set_device(console->parent.name);
 530:Middlewares/Third_Party/RealThread_RTOS/components/finsh/shell.c ****         }
 531:Middlewares/Third_Party/RealThread_RTOS/components/finsh/shell.c ****     }
 532:Middlewares/Third_Party/RealThread_RTOS/components/finsh/shell.c **** #endif
 533:Middlewares/Third_Party/RealThread_RTOS/components/finsh/shell.c **** 
 534:Middlewares/Third_Party/RealThread_RTOS/components/finsh/shell.c **** #ifdef FINSH_USING_AUTH
 535:Middlewares/Third_Party/RealThread_RTOS/components/finsh/shell.c ****     /* set the default password when the password isn't setting */
 536:Middlewares/Third_Party/RealThread_RTOS/components/finsh/shell.c ****     if (rt_strlen(finsh_get_password()) == 0)
 537:Middlewares/Third_Party/RealThread_RTOS/components/finsh/shell.c ****     {
 538:Middlewares/Third_Party/RealThread_RTOS/components/finsh/shell.c ****         if (finsh_set_password(FINSH_DEFAULT_PASSWORD) != RT_EOK)
 539:Middlewares/Third_Party/RealThread_RTOS/components/finsh/shell.c ****         {
 540:Middlewares/Third_Party/RealThread_RTOS/components/finsh/shell.c ****             rt_kprintf("Finsh password set failed.\n");
 541:Middlewares/Third_Party/RealThread_RTOS/components/finsh/shell.c ****         }
 542:Middlewares/Third_Party/RealThread_RTOS/components/finsh/shell.c ****     }
 543:Middlewares/Third_Party/RealThread_RTOS/components/finsh/shell.c ****     /* waiting authenticate success */
 544:Middlewares/Third_Party/RealThread_RTOS/components/finsh/shell.c ****     finsh_wait_auth();
 545:Middlewares/Third_Party/RealThread_RTOS/components/finsh/shell.c **** #endif
 546:Middlewares/Third_Party/RealThread_RTOS/components/finsh/shell.c **** 
 547:Middlewares/Third_Party/RealThread_RTOS/components/finsh/shell.c ****     rt_kprintf(FINSH_PROMPT);
 740              		.loc 1 547 5 is_stmt 1 view .LVU149
 741 0016 FFF7FEFF 		bl	finsh_get_prompt
 742              	.LVL53:
 743 001a FFF7FEFF 		bl	rt_kprintf
 744              	.LVL54:
 745 001e 0BE0     		b	.L66
 746              	.LVL55:
 747              	.L97:
 748              	.LBB3:
 526:Middlewares/Third_Party/RealThread_RTOS/components/finsh/shell.c ****         if (console)
 749              		.loc 1 526 9 view .LVU150
 526:Middlewares/Third_Party/RealThread_RTOS/components/finsh/shell.c ****         if (console)
 750              		.loc 1 526 31 is_stmt 0 view .LVU151
 751 0020 FFF7FEFF 		bl	rt_console_get_device
 752              	.LVL56:
 527:Middlewares/Third_Party/RealThread_RTOS/components/finsh/shell.c ****         {
 753              		.loc 1 527 9 is_stmt 1 view .LVU152
 527:Middlewares/Third_Party/RealThread_RTOS/components/finsh/shell.c ****         {
 754              		.loc 1 527 12 is_stmt 0 view .LVU153
 755 0024 0028     		cmp	r0, #0
 756 0026 F6D0     		beq	.L65
ARM GAS  C:\Users\Administrator\AppData\Local\Temp\cchb52ze.s 			page 26


 529:Middlewares/Third_Party/RealThread_RTOS/components/finsh/shell.c ****         }
 757              		.loc 1 529 13 is_stmt 1 view .LVU154
 758 0028 FFF7FEFF 		bl	finsh_set_device
 759              	.LVL57:
 529:Middlewares/Third_Party/RealThread_RTOS/components/finsh/shell.c ****         }
 760              		.loc 1 529 13 is_stmt 0 view .LVU155
 761 002c F3E7     		b	.L65
 762              	.LVL58:
 763              	.L98:
 529:Middlewares/Third_Party/RealThread_RTOS/components/finsh/shell.c ****         }
 764              		.loc 1 529 13 view .LVU156
 765              	.LBE3:
 548:Middlewares/Third_Party/RealThread_RTOS/components/finsh/shell.c **** 
 549:Middlewares/Third_Party/RealThread_RTOS/components/finsh/shell.c ****     while (1)
 550:Middlewares/Third_Party/RealThread_RTOS/components/finsh/shell.c ****     {
 551:Middlewares/Third_Party/RealThread_RTOS/components/finsh/shell.c ****         ch = finsh_getchar();
 552:Middlewares/Third_Party/RealThread_RTOS/components/finsh/shell.c ****         if (ch < 0)
 553:Middlewares/Third_Party/RealThread_RTOS/components/finsh/shell.c ****         {
 554:Middlewares/Third_Party/RealThread_RTOS/components/finsh/shell.c ****             continue;
 555:Middlewares/Third_Party/RealThread_RTOS/components/finsh/shell.c ****         }
 556:Middlewares/Third_Party/RealThread_RTOS/components/finsh/shell.c **** 
 557:Middlewares/Third_Party/RealThread_RTOS/components/finsh/shell.c ****         /*
 558:Middlewares/Third_Party/RealThread_RTOS/components/finsh/shell.c ****          * handle control key
 559:Middlewares/Third_Party/RealThread_RTOS/components/finsh/shell.c ****          * up key  : 0x1b 0x5b 0x41
 560:Middlewares/Third_Party/RealThread_RTOS/components/finsh/shell.c ****          * down key: 0x1b 0x5b 0x42
 561:Middlewares/Third_Party/RealThread_RTOS/components/finsh/shell.c ****          * right key:0x1b 0x5b 0x43
 562:Middlewares/Third_Party/RealThread_RTOS/components/finsh/shell.c ****          * left key: 0x1b 0x5b 0x44
 563:Middlewares/Third_Party/RealThread_RTOS/components/finsh/shell.c ****          */
 564:Middlewares/Third_Party/RealThread_RTOS/components/finsh/shell.c ****         if (ch == 0x1b)
 565:Middlewares/Third_Party/RealThread_RTOS/components/finsh/shell.c ****         {
 566:Middlewares/Third_Party/RealThread_RTOS/components/finsh/shell.c ****             shell->stat = WAIT_SPEC_KEY;
 766              		.loc 1 566 13 is_stmt 1 view .LVU157
 767              		.loc 1 566 18 is_stmt 0 view .LVU158
 768 002e A44B     		ldr	r3, .L110
 769 0030 1B68     		ldr	r3, [r3]
 770              		.loc 1 566 25 view .LVU159
 771 0032 0122     		movs	r2, #1
 772 0034 83F82020 		strb	r2, [r3, #32]
 567:Middlewares/Third_Party/RealThread_RTOS/components/finsh/shell.c ****             continue;
 773              		.loc 1 567 13 is_stmt 1 view .LVU160
 774              	.LVL59:
 775              	.L66:
 549:Middlewares/Third_Party/RealThread_RTOS/components/finsh/shell.c ****     {
 776              		.loc 1 549 5 view .LVU161
 551:Middlewares/Third_Party/RealThread_RTOS/components/finsh/shell.c ****         if (ch < 0)
 777              		.loc 1 551 9 view .LVU162
 551:Middlewares/Third_Party/RealThread_RTOS/components/finsh/shell.c ****         if (ch < 0)
 778              		.loc 1 551 14 is_stmt 0 view .LVU163
 779 0038 FFF7FEFF 		bl	finsh_getchar
 780              	.LVL60:
 552:Middlewares/Third_Party/RealThread_RTOS/components/finsh/shell.c ****         {
 781              		.loc 1 552 9 is_stmt 1 view .LVU164
 552:Middlewares/Third_Party/RealThread_RTOS/components/finsh/shell.c ****         {
 782              		.loc 1 552 12 is_stmt 0 view .LVU165
 783 003c 041E     		subs	r4, r0, #0
 784 003e FBDB     		blt	.L66
 564:Middlewares/Third_Party/RealThread_RTOS/components/finsh/shell.c ****         {
ARM GAS  C:\Users\Administrator\AppData\Local\Temp\cchb52ze.s 			page 27


 785              		.loc 1 564 9 is_stmt 1 view .LVU166
 564:Middlewares/Third_Party/RealThread_RTOS/components/finsh/shell.c ****         {
 786              		.loc 1 564 12 is_stmt 0 view .LVU167
 787 0040 1B2C     		cmp	r4, #27
 788 0042 F4D0     		beq	.L98
 568:Middlewares/Third_Party/RealThread_RTOS/components/finsh/shell.c ****         }
 569:Middlewares/Third_Party/RealThread_RTOS/components/finsh/shell.c ****         else if (shell->stat == WAIT_SPEC_KEY)
 789              		.loc 1 569 14 is_stmt 1 view .LVU168
 790              		.loc 1 569 23 is_stmt 0 view .LVU169
 791 0044 9E4B     		ldr	r3, .L110
 792 0046 1B68     		ldr	r3, [r3]
 793 0048 93F82020 		ldrb	r2, [r3, #32]	@ zero_extendqisi2
 794              		.loc 1 569 17 view .LVU170
 795 004c 012A     		cmp	r2, #1
 796 004e 40D0     		beq	.L99
 570:Middlewares/Third_Party/RealThread_RTOS/components/finsh/shell.c ****         {
 571:Middlewares/Third_Party/RealThread_RTOS/components/finsh/shell.c ****             if (ch == 0x5b)
 572:Middlewares/Third_Party/RealThread_RTOS/components/finsh/shell.c ****             {
 573:Middlewares/Third_Party/RealThread_RTOS/components/finsh/shell.c ****                 shell->stat = WAIT_FUNC_KEY;
 574:Middlewares/Third_Party/RealThread_RTOS/components/finsh/shell.c ****                 continue;
 575:Middlewares/Third_Party/RealThread_RTOS/components/finsh/shell.c ****             }
 576:Middlewares/Third_Party/RealThread_RTOS/components/finsh/shell.c **** 
 577:Middlewares/Third_Party/RealThread_RTOS/components/finsh/shell.c ****             shell->stat = WAIT_NORMAL;
 578:Middlewares/Third_Party/RealThread_RTOS/components/finsh/shell.c ****         }
 579:Middlewares/Third_Party/RealThread_RTOS/components/finsh/shell.c ****         else if (shell->stat == WAIT_FUNC_KEY)
 797              		.loc 1 579 14 is_stmt 1 view .LVU171
 798              		.loc 1 579 17 is_stmt 0 view .LVU172
 799 0050 022A     		cmp	r2, #2
 800 0052 48D0     		beq	.L100
 801              	.L71:
 580:Middlewares/Third_Party/RealThread_RTOS/components/finsh/shell.c ****         {
 581:Middlewares/Third_Party/RealThread_RTOS/components/finsh/shell.c ****             shell->stat = WAIT_NORMAL;
 582:Middlewares/Third_Party/RealThread_RTOS/components/finsh/shell.c **** 
 583:Middlewares/Third_Party/RealThread_RTOS/components/finsh/shell.c ****             if (ch == 0x41) /* up key */
 584:Middlewares/Third_Party/RealThread_RTOS/components/finsh/shell.c ****             {
 585:Middlewares/Third_Party/RealThread_RTOS/components/finsh/shell.c **** #ifdef FINSH_USING_HISTORY
 586:Middlewares/Third_Party/RealThread_RTOS/components/finsh/shell.c ****                 /* prev history */
 587:Middlewares/Third_Party/RealThread_RTOS/components/finsh/shell.c ****                 if (shell->current_history > 0)
 588:Middlewares/Third_Party/RealThread_RTOS/components/finsh/shell.c ****                     shell->current_history --;
 589:Middlewares/Third_Party/RealThread_RTOS/components/finsh/shell.c ****                 else
 590:Middlewares/Third_Party/RealThread_RTOS/components/finsh/shell.c ****                 {
 591:Middlewares/Third_Party/RealThread_RTOS/components/finsh/shell.c ****                     shell->current_history = 0;
 592:Middlewares/Third_Party/RealThread_RTOS/components/finsh/shell.c ****                     continue;
 593:Middlewares/Third_Party/RealThread_RTOS/components/finsh/shell.c ****                 }
 594:Middlewares/Third_Party/RealThread_RTOS/components/finsh/shell.c **** 
 595:Middlewares/Third_Party/RealThread_RTOS/components/finsh/shell.c ****                 /* copy the history command */
 596:Middlewares/Third_Party/RealThread_RTOS/components/finsh/shell.c ****                 memcpy(shell->line, &shell->cmd_history[shell->current_history][0],
 597:Middlewares/Third_Party/RealThread_RTOS/components/finsh/shell.c ****                        FINSH_CMD_SIZE);
 598:Middlewares/Third_Party/RealThread_RTOS/components/finsh/shell.c ****                 shell->line_curpos = shell->line_position = strlen(shell->line);
 599:Middlewares/Third_Party/RealThread_RTOS/components/finsh/shell.c ****                 shell_handle_history(shell);
 600:Middlewares/Third_Party/RealThread_RTOS/components/finsh/shell.c **** #endif
 601:Middlewares/Third_Party/RealThread_RTOS/components/finsh/shell.c ****                 continue;
 602:Middlewares/Third_Party/RealThread_RTOS/components/finsh/shell.c ****             }
 603:Middlewares/Third_Party/RealThread_RTOS/components/finsh/shell.c ****             else if (ch == 0x42) /* down key */
 604:Middlewares/Third_Party/RealThread_RTOS/components/finsh/shell.c ****             {
 605:Middlewares/Third_Party/RealThread_RTOS/components/finsh/shell.c **** #ifdef FINSH_USING_HISTORY
 606:Middlewares/Third_Party/RealThread_RTOS/components/finsh/shell.c ****                 /* next history */
ARM GAS  C:\Users\Administrator\AppData\Local\Temp\cchb52ze.s 			page 28


 607:Middlewares/Third_Party/RealThread_RTOS/components/finsh/shell.c ****                 if (shell->current_history < shell->history_count - 1)
 608:Middlewares/Third_Party/RealThread_RTOS/components/finsh/shell.c ****                     shell->current_history ++;
 609:Middlewares/Third_Party/RealThread_RTOS/components/finsh/shell.c ****                 else
 610:Middlewares/Third_Party/RealThread_RTOS/components/finsh/shell.c ****                 {
 611:Middlewares/Third_Party/RealThread_RTOS/components/finsh/shell.c ****                     /* set to the end of history */
 612:Middlewares/Third_Party/RealThread_RTOS/components/finsh/shell.c ****                     if (shell->history_count != 0)
 613:Middlewares/Third_Party/RealThread_RTOS/components/finsh/shell.c ****                         shell->current_history = shell->history_count - 1;
 614:Middlewares/Third_Party/RealThread_RTOS/components/finsh/shell.c ****                     else
 615:Middlewares/Third_Party/RealThread_RTOS/components/finsh/shell.c ****                         continue;
 616:Middlewares/Third_Party/RealThread_RTOS/components/finsh/shell.c ****                 }
 617:Middlewares/Third_Party/RealThread_RTOS/components/finsh/shell.c **** 
 618:Middlewares/Third_Party/RealThread_RTOS/components/finsh/shell.c ****                 memcpy(shell->line, &shell->cmd_history[shell->current_history][0],
 619:Middlewares/Third_Party/RealThread_RTOS/components/finsh/shell.c ****                        FINSH_CMD_SIZE);
 620:Middlewares/Third_Party/RealThread_RTOS/components/finsh/shell.c ****                 shell->line_curpos = shell->line_position = strlen(shell->line);
 621:Middlewares/Third_Party/RealThread_RTOS/components/finsh/shell.c ****                 shell_handle_history(shell);
 622:Middlewares/Third_Party/RealThread_RTOS/components/finsh/shell.c **** #endif
 623:Middlewares/Third_Party/RealThread_RTOS/components/finsh/shell.c ****                 continue;
 624:Middlewares/Third_Party/RealThread_RTOS/components/finsh/shell.c ****             }
 625:Middlewares/Third_Party/RealThread_RTOS/components/finsh/shell.c ****             else if (ch == 0x44) /* left key */
 626:Middlewares/Third_Party/RealThread_RTOS/components/finsh/shell.c ****             {
 627:Middlewares/Third_Party/RealThread_RTOS/components/finsh/shell.c ****                 if (shell->line_curpos)
 628:Middlewares/Third_Party/RealThread_RTOS/components/finsh/shell.c ****                 {
 629:Middlewares/Third_Party/RealThread_RTOS/components/finsh/shell.c ****                     rt_kprintf("\b");
 630:Middlewares/Third_Party/RealThread_RTOS/components/finsh/shell.c ****                     shell->line_curpos --;
 631:Middlewares/Third_Party/RealThread_RTOS/components/finsh/shell.c ****                 }
 632:Middlewares/Third_Party/RealThread_RTOS/components/finsh/shell.c **** 
 633:Middlewares/Third_Party/RealThread_RTOS/components/finsh/shell.c ****                 continue;
 634:Middlewares/Third_Party/RealThread_RTOS/components/finsh/shell.c ****             }
 635:Middlewares/Third_Party/RealThread_RTOS/components/finsh/shell.c ****             else if (ch == 0x43) /* right key */
 636:Middlewares/Third_Party/RealThread_RTOS/components/finsh/shell.c ****             {
 637:Middlewares/Third_Party/RealThread_RTOS/components/finsh/shell.c ****                 if (shell->line_curpos < shell->line_position)
 638:Middlewares/Third_Party/RealThread_RTOS/components/finsh/shell.c ****                 {
 639:Middlewares/Third_Party/RealThread_RTOS/components/finsh/shell.c ****                     rt_kprintf("%c", shell->line[shell->line_curpos]);
 640:Middlewares/Third_Party/RealThread_RTOS/components/finsh/shell.c ****                     shell->line_curpos ++;
 641:Middlewares/Third_Party/RealThread_RTOS/components/finsh/shell.c ****                 }
 642:Middlewares/Third_Party/RealThread_RTOS/components/finsh/shell.c **** 
 643:Middlewares/Third_Party/RealThread_RTOS/components/finsh/shell.c ****                 continue;
 644:Middlewares/Third_Party/RealThread_RTOS/components/finsh/shell.c ****             }
 645:Middlewares/Third_Party/RealThread_RTOS/components/finsh/shell.c ****         }
 646:Middlewares/Third_Party/RealThread_RTOS/components/finsh/shell.c **** 
 647:Middlewares/Third_Party/RealThread_RTOS/components/finsh/shell.c ****         /* received null or error */
 648:Middlewares/Third_Party/RealThread_RTOS/components/finsh/shell.c ****         if (ch == '\0' || ch == 0xFF) continue;
 802              		.loc 1 648 9 is_stmt 1 view .LVU173
 803              		.loc 1 648 12 is_stmt 0 view .LVU174
 804 0054 002C     		cmp	r4, #0
 805 0056 EFD0     		beq	.L66
 806              		.loc 1 648 24 discriminator 2 view .LVU175
 807 0058 FF2C     		cmp	r4, #255
 808 005a EDD0     		beq	.L66
 649:Middlewares/Third_Party/RealThread_RTOS/components/finsh/shell.c ****         /* handle tab key */
 650:Middlewares/Third_Party/RealThread_RTOS/components/finsh/shell.c ****         else if (ch == '\t')
 809              		.loc 1 650 14 is_stmt 1 view .LVU176
 810              		.loc 1 650 17 is_stmt 0 view .LVU177
 811 005c 092C     		cmp	r4, #9
 812 005e 00F08980 		beq	.L101
 651:Middlewares/Third_Party/RealThread_RTOS/components/finsh/shell.c ****         {
 652:Middlewares/Third_Party/RealThread_RTOS/components/finsh/shell.c ****             int i;
ARM GAS  C:\Users\Administrator\AppData\Local\Temp\cchb52ze.s 			page 29


 653:Middlewares/Third_Party/RealThread_RTOS/components/finsh/shell.c ****             /* move the cursor to the beginning of line */
 654:Middlewares/Third_Party/RealThread_RTOS/components/finsh/shell.c ****             for (i = 0; i < shell->line_curpos; i++)
 655:Middlewares/Third_Party/RealThread_RTOS/components/finsh/shell.c ****                 rt_kprintf("\b");
 656:Middlewares/Third_Party/RealThread_RTOS/components/finsh/shell.c **** 
 657:Middlewares/Third_Party/RealThread_RTOS/components/finsh/shell.c ****             /* auto complete */
 658:Middlewares/Third_Party/RealThread_RTOS/components/finsh/shell.c ****             shell_auto_complete(&shell->line[0]);
 659:Middlewares/Third_Party/RealThread_RTOS/components/finsh/shell.c ****             /* re-calculate position */
 660:Middlewares/Third_Party/RealThread_RTOS/components/finsh/shell.c ****             shell->line_curpos = shell->line_position = strlen(shell->line);
 661:Middlewares/Third_Party/RealThread_RTOS/components/finsh/shell.c **** 
 662:Middlewares/Third_Party/RealThread_RTOS/components/finsh/shell.c ****             continue;
 663:Middlewares/Third_Party/RealThread_RTOS/components/finsh/shell.c ****         }
 664:Middlewares/Third_Party/RealThread_RTOS/components/finsh/shell.c ****         /* handle backspace key */
 665:Middlewares/Third_Party/RealThread_RTOS/components/finsh/shell.c ****         else if (ch == 0x7f || ch == 0x08)
 813              		.loc 1 665 14 is_stmt 1 view .LVU178
 814              		.loc 1 665 17 is_stmt 0 view .LVU179
 815 0062 7F2C     		cmp	r4, #127
 816 0064 00F08880 		beq	.L78
 817              		.loc 1 665 29 discriminator 1 view .LVU180
 818 0068 082C     		cmp	r4, #8
 819 006a 00F08580 		beq	.L78
 666:Middlewares/Third_Party/RealThread_RTOS/components/finsh/shell.c ****         {
 667:Middlewares/Third_Party/RealThread_RTOS/components/finsh/shell.c ****             /* note that shell->line_curpos >= 0 */
 668:Middlewares/Third_Party/RealThread_RTOS/components/finsh/shell.c ****             if (shell->line_curpos == 0)
 669:Middlewares/Third_Party/RealThread_RTOS/components/finsh/shell.c ****                 continue;
 670:Middlewares/Third_Party/RealThread_RTOS/components/finsh/shell.c **** 
 671:Middlewares/Third_Party/RealThread_RTOS/components/finsh/shell.c ****             shell->line_position--;
 672:Middlewares/Third_Party/RealThread_RTOS/components/finsh/shell.c ****             shell->line_curpos--;
 673:Middlewares/Third_Party/RealThread_RTOS/components/finsh/shell.c **** 
 674:Middlewares/Third_Party/RealThread_RTOS/components/finsh/shell.c ****             if (shell->line_position > shell->line_curpos)
 675:Middlewares/Third_Party/RealThread_RTOS/components/finsh/shell.c ****             {
 676:Middlewares/Third_Party/RealThread_RTOS/components/finsh/shell.c ****                 int i;
 677:Middlewares/Third_Party/RealThread_RTOS/components/finsh/shell.c **** 
 678:Middlewares/Third_Party/RealThread_RTOS/components/finsh/shell.c ****                 rt_memmove(&shell->line[shell->line_curpos],
 679:Middlewares/Third_Party/RealThread_RTOS/components/finsh/shell.c ****                            &shell->line[shell->line_curpos + 1],
 680:Middlewares/Third_Party/RealThread_RTOS/components/finsh/shell.c ****                            shell->line_position - shell->line_curpos);
 681:Middlewares/Third_Party/RealThread_RTOS/components/finsh/shell.c ****                 shell->line[shell->line_position] = 0;
 682:Middlewares/Third_Party/RealThread_RTOS/components/finsh/shell.c **** 
 683:Middlewares/Third_Party/RealThread_RTOS/components/finsh/shell.c ****                 rt_kprintf("\b%s  \b", &shell->line[shell->line_curpos]);
 684:Middlewares/Third_Party/RealThread_RTOS/components/finsh/shell.c **** 
 685:Middlewares/Third_Party/RealThread_RTOS/components/finsh/shell.c ****                 /* move the cursor to the origin position */
 686:Middlewares/Third_Party/RealThread_RTOS/components/finsh/shell.c ****                 for (i = shell->line_curpos; i <= shell->line_position; i++)
 687:Middlewares/Third_Party/RealThread_RTOS/components/finsh/shell.c ****                     rt_kprintf("\b");
 688:Middlewares/Third_Party/RealThread_RTOS/components/finsh/shell.c ****             }
 689:Middlewares/Third_Party/RealThread_RTOS/components/finsh/shell.c ****             else
 690:Middlewares/Third_Party/RealThread_RTOS/components/finsh/shell.c ****             {
 691:Middlewares/Third_Party/RealThread_RTOS/components/finsh/shell.c ****                 rt_kprintf("\b \b");
 692:Middlewares/Third_Party/RealThread_RTOS/components/finsh/shell.c ****                 shell->line[shell->line_position] = 0;
 693:Middlewares/Third_Party/RealThread_RTOS/components/finsh/shell.c ****             }
 694:Middlewares/Third_Party/RealThread_RTOS/components/finsh/shell.c **** 
 695:Middlewares/Third_Party/RealThread_RTOS/components/finsh/shell.c ****             continue;
 696:Middlewares/Third_Party/RealThread_RTOS/components/finsh/shell.c ****         }
 697:Middlewares/Third_Party/RealThread_RTOS/components/finsh/shell.c **** 
 698:Middlewares/Third_Party/RealThread_RTOS/components/finsh/shell.c ****         /* handle end of line, break */
 699:Middlewares/Third_Party/RealThread_RTOS/components/finsh/shell.c ****         if (ch == '\r' || ch == '\n')
 820              		.loc 1 699 9 is_stmt 1 view .LVU181
 821              		.loc 1 699 12 is_stmt 0 view .LVU182
 822 006e 0D2C     		cmp	r4, #13
ARM GAS  C:\Users\Administrator\AppData\Local\Temp\cchb52ze.s 			page 30


 823 0070 00F0C980 		beq	.L84
 824              		.loc 1 699 24 discriminator 1 view .LVU183
 825 0074 0A2C     		cmp	r4, #10
 826 0076 00F0C680 		beq	.L84
 700:Middlewares/Third_Party/RealThread_RTOS/components/finsh/shell.c ****         {
 701:Middlewares/Third_Party/RealThread_RTOS/components/finsh/shell.c **** #ifdef FINSH_USING_HISTORY
 702:Middlewares/Third_Party/RealThread_RTOS/components/finsh/shell.c ****             shell_push_history(shell);
 703:Middlewares/Third_Party/RealThread_RTOS/components/finsh/shell.c **** #endif
 704:Middlewares/Third_Party/RealThread_RTOS/components/finsh/shell.c **** 
 705:Middlewares/Third_Party/RealThread_RTOS/components/finsh/shell.c **** #ifdef FINSH_USING_MSH
 706:Middlewares/Third_Party/RealThread_RTOS/components/finsh/shell.c ****             if (msh_is_used() == RT_TRUE)
 707:Middlewares/Third_Party/RealThread_RTOS/components/finsh/shell.c ****             {
 708:Middlewares/Third_Party/RealThread_RTOS/components/finsh/shell.c ****                 if (shell->echo_mode)
 709:Middlewares/Third_Party/RealThread_RTOS/components/finsh/shell.c ****                     rt_kprintf("\n");
 710:Middlewares/Third_Party/RealThread_RTOS/components/finsh/shell.c ****                 msh_exec(shell->line, shell->line_position);
 711:Middlewares/Third_Party/RealThread_RTOS/components/finsh/shell.c ****             }
 712:Middlewares/Third_Party/RealThread_RTOS/components/finsh/shell.c ****             else
 713:Middlewares/Third_Party/RealThread_RTOS/components/finsh/shell.c **** #endif
 714:Middlewares/Third_Party/RealThread_RTOS/components/finsh/shell.c ****             {
 715:Middlewares/Third_Party/RealThread_RTOS/components/finsh/shell.c **** #ifndef FINSH_USING_MSH_ONLY
 716:Middlewares/Third_Party/RealThread_RTOS/components/finsh/shell.c ****                 /* add ';' and run the command line */
 717:Middlewares/Third_Party/RealThread_RTOS/components/finsh/shell.c ****                 shell->line[shell->line_position] = ';';
 718:Middlewares/Third_Party/RealThread_RTOS/components/finsh/shell.c **** 
 719:Middlewares/Third_Party/RealThread_RTOS/components/finsh/shell.c ****                 if (shell->line_position != 0) finsh_run_line(&shell->parser, shell->line);
 720:Middlewares/Third_Party/RealThread_RTOS/components/finsh/shell.c ****                 else
 721:Middlewares/Third_Party/RealThread_RTOS/components/finsh/shell.c ****                     if (shell->echo_mode) rt_kprintf("\n");
 722:Middlewares/Third_Party/RealThread_RTOS/components/finsh/shell.c **** #endif
 723:Middlewares/Third_Party/RealThread_RTOS/components/finsh/shell.c ****             }
 724:Middlewares/Third_Party/RealThread_RTOS/components/finsh/shell.c **** 
 725:Middlewares/Third_Party/RealThread_RTOS/components/finsh/shell.c ****             rt_kprintf(FINSH_PROMPT);
 726:Middlewares/Third_Party/RealThread_RTOS/components/finsh/shell.c ****             memset(shell->line, 0, sizeof(shell->line));
 727:Middlewares/Third_Party/RealThread_RTOS/components/finsh/shell.c ****             shell->line_curpos = shell->line_position = 0;
 728:Middlewares/Third_Party/RealThread_RTOS/components/finsh/shell.c ****             continue;
 729:Middlewares/Third_Party/RealThread_RTOS/components/finsh/shell.c ****         }
 730:Middlewares/Third_Party/RealThread_RTOS/components/finsh/shell.c **** 
 731:Middlewares/Third_Party/RealThread_RTOS/components/finsh/shell.c ****         /* it's a large line, discard it */
 732:Middlewares/Third_Party/RealThread_RTOS/components/finsh/shell.c ****         if (shell->line_position >= FINSH_CMD_SIZE)
 827              		.loc 1 732 9 is_stmt 1 view .LVU184
 828              		.loc 1 732 18 is_stmt 0 view .LVU185
 829 007a B3F87220 		ldrh	r2, [r3, #114]
 830              		.loc 1 732 12 view .LVU186
 831 007e 4F2A     		cmp	r2, #79
 832 0080 02D9     		bls	.L88
 733:Middlewares/Third_Party/RealThread_RTOS/components/finsh/shell.c ****             shell->line_position = 0;
 833              		.loc 1 733 13 is_stmt 1 view .LVU187
 834              		.loc 1 733 34 is_stmt 0 view .LVU188
 835 0082 0022     		movs	r2, #0
 836 0084 A3F87220 		strh	r2, [r3, #114]	@ movhi
 837              	.L88:
 734:Middlewares/Third_Party/RealThread_RTOS/components/finsh/shell.c **** 
 735:Middlewares/Third_Party/RealThread_RTOS/components/finsh/shell.c ****         /* normal character */
 736:Middlewares/Third_Party/RealThread_RTOS/components/finsh/shell.c ****         if (shell->line_curpos < shell->line_position)
 838              		.loc 1 736 9 is_stmt 1 view .LVU189
 839              		.loc 1 736 18 is_stmt 0 view .LVU190
 840 0088 B3F874C0 		ldrh	ip, [r3, #116]
 841              		.loc 1 736 39 view .LVU191
 842 008c B3F87220 		ldrh	r2, [r3, #114]
ARM GAS  C:\Users\Administrator\AppData\Local\Temp\cchb52ze.s 			page 31


 843              		.loc 1 736 12 view .LVU192
 844 0090 9445     		cmp	ip, r2
 845 0092 C0F0E180 		bcc	.L102
 737:Middlewares/Third_Party/RealThread_RTOS/components/finsh/shell.c ****         {
 738:Middlewares/Third_Party/RealThread_RTOS/components/finsh/shell.c ****             int i;
 739:Middlewares/Third_Party/RealThread_RTOS/components/finsh/shell.c **** 
 740:Middlewares/Third_Party/RealThread_RTOS/components/finsh/shell.c ****             rt_memmove(&shell->line[shell->line_curpos + 1],
 741:Middlewares/Third_Party/RealThread_RTOS/components/finsh/shell.c ****                        &shell->line[shell->line_curpos],
 742:Middlewares/Third_Party/RealThread_RTOS/components/finsh/shell.c ****                        shell->line_position - shell->line_curpos);
 743:Middlewares/Third_Party/RealThread_RTOS/components/finsh/shell.c ****             shell->line[shell->line_curpos] = ch;
 744:Middlewares/Third_Party/RealThread_RTOS/components/finsh/shell.c ****             if (shell->echo_mode)
 745:Middlewares/Third_Party/RealThread_RTOS/components/finsh/shell.c ****                 rt_kprintf("%s", &shell->line[shell->line_curpos]);
 746:Middlewares/Third_Party/RealThread_RTOS/components/finsh/shell.c **** 
 747:Middlewares/Third_Party/RealThread_RTOS/components/finsh/shell.c ****             /* move the cursor to new position */
 748:Middlewares/Third_Party/RealThread_RTOS/components/finsh/shell.c ****             for (i = shell->line_curpos; i < shell->line_position; i++)
 749:Middlewares/Third_Party/RealThread_RTOS/components/finsh/shell.c ****                 rt_kprintf("\b");
 750:Middlewares/Third_Party/RealThread_RTOS/components/finsh/shell.c ****         }
 751:Middlewares/Third_Party/RealThread_RTOS/components/finsh/shell.c ****         else
 752:Middlewares/Third_Party/RealThread_RTOS/components/finsh/shell.c ****         {
 753:Middlewares/Third_Party/RealThread_RTOS/components/finsh/shell.c ****             shell->line[shell->line_position] = ch;
 846              		.loc 1 753 13 is_stmt 1 view .LVU193
 847              		.loc 1 753 47 is_stmt 0 view .LVU194
 848 0096 1A44     		add	r2, r2, r3
 849 0098 82F82240 		strb	r4, [r2, #34]
 754:Middlewares/Third_Party/RealThread_RTOS/components/finsh/shell.c ****             if (shell->echo_mode)
 850              		.loc 1 754 13 is_stmt 1 view .LVU195
 851              		.loc 1 754 17 is_stmt 0 view .LVU196
 852 009c 93F82130 		ldrb	r3, [r3, #33]	@ zero_extendqisi2
 853              		.loc 1 754 16 view .LVU197
 854 00a0 13F0010F 		tst	r3, #1
 855 00a4 40F00781 		bne	.L103
 856              	.LVL61:
 857              	.L93:
 755:Middlewares/Third_Party/RealThread_RTOS/components/finsh/shell.c ****                 rt_kprintf("%c", ch);
 756:Middlewares/Third_Party/RealThread_RTOS/components/finsh/shell.c ****         }
 757:Middlewares/Third_Party/RealThread_RTOS/components/finsh/shell.c **** 
 758:Middlewares/Third_Party/RealThread_RTOS/components/finsh/shell.c ****         ch = 0;
 858              		.loc 1 758 9 is_stmt 1 view .LVU198
 759:Middlewares/Third_Party/RealThread_RTOS/components/finsh/shell.c ****         shell->line_position ++;
 859              		.loc 1 759 9 view .LVU199
 860              		.loc 1 759 14 is_stmt 0 view .LVU200
 861 00a8 854B     		ldr	r3, .L110
 862 00aa 1A68     		ldr	r2, [r3]
 863 00ac B2F87230 		ldrh	r3, [r2, #114]
 864              		.loc 1 759 30 view .LVU201
 865 00b0 0133     		adds	r3, r3, #1
 866 00b2 9BB2     		uxth	r3, r3
 867 00b4 A2F87230 		strh	r3, [r2, #114]	@ movhi
 760:Middlewares/Third_Party/RealThread_RTOS/components/finsh/shell.c ****         shell->line_curpos++;
 868              		.loc 1 760 9 is_stmt 1 view .LVU202
 869              		.loc 1 760 14 is_stmt 0 view .LVU203
 870 00b8 B2F87410 		ldrh	r1, [r2, #116]
 871              		.loc 1 760 27 view .LVU204
 872 00bc 0131     		adds	r1, r1, #1
 873 00be A2F87410 		strh	r1, [r2, #116]	@ movhi
 761:Middlewares/Third_Party/RealThread_RTOS/components/finsh/shell.c ****         if (shell->line_position >= FINSH_CMD_SIZE)
 874              		.loc 1 761 9 is_stmt 1 view .LVU205
ARM GAS  C:\Users\Administrator\AppData\Local\Temp\cchb52ze.s 			page 32


 875              		.loc 1 761 12 is_stmt 0 view .LVU206
 876 00c2 4F2B     		cmp	r3, #79
 877 00c4 B8D9     		bls	.L66
 762:Middlewares/Third_Party/RealThread_RTOS/components/finsh/shell.c ****         {
 763:Middlewares/Third_Party/RealThread_RTOS/components/finsh/shell.c ****             /* clear command line */
 764:Middlewares/Third_Party/RealThread_RTOS/components/finsh/shell.c ****             shell->line_position = 0;
 878              		.loc 1 764 13 is_stmt 1 view .LVU207
 879              		.loc 1 764 34 is_stmt 0 view .LVU208
 880 00c6 0023     		movs	r3, #0
 881 00c8 A2F87230 		strh	r3, [r2, #114]	@ movhi
 765:Middlewares/Third_Party/RealThread_RTOS/components/finsh/shell.c ****             shell->line_curpos = 0;
 882              		.loc 1 765 13 is_stmt 1 view .LVU209
 883              		.loc 1 765 32 is_stmt 0 view .LVU210
 884 00cc A2F87430 		strh	r3, [r2, #116]	@ movhi
 885 00d0 B2E7     		b	.L66
 886              	.LVL62:
 887              	.L99:
 571:Middlewares/Third_Party/RealThread_RTOS/components/finsh/shell.c ****             {
 888              		.loc 1 571 13 is_stmt 1 view .LVU211
 571:Middlewares/Third_Party/RealThread_RTOS/components/finsh/shell.c ****             {
 889              		.loc 1 571 16 is_stmt 0 view .LVU212
 890 00d2 5B2C     		cmp	r4, #91
 891 00d4 03D0     		beq	.L104
 577:Middlewares/Third_Party/RealThread_RTOS/components/finsh/shell.c ****         }
 892              		.loc 1 577 13 is_stmt 1 view .LVU213
 577:Middlewares/Third_Party/RealThread_RTOS/components/finsh/shell.c ****         }
 893              		.loc 1 577 25 is_stmt 0 view .LVU214
 894 00d6 0022     		movs	r2, #0
 895 00d8 83F82020 		strb	r2, [r3, #32]
 896 00dc BAE7     		b	.L71
 897              	.L104:
 573:Middlewares/Third_Party/RealThread_RTOS/components/finsh/shell.c ****                 continue;
 898              		.loc 1 573 17 is_stmt 1 view .LVU215
 573:Middlewares/Third_Party/RealThread_RTOS/components/finsh/shell.c ****                 continue;
 899              		.loc 1 573 29 is_stmt 0 view .LVU216
 900 00de 0222     		movs	r2, #2
 901 00e0 83F82020 		strb	r2, [r3, #32]
 574:Middlewares/Third_Party/RealThread_RTOS/components/finsh/shell.c ****             }
 902              		.loc 1 574 17 is_stmt 1 view .LVU217
 903 00e4 A8E7     		b	.L66
 904              	.L100:
 581:Middlewares/Third_Party/RealThread_RTOS/components/finsh/shell.c **** 
 905              		.loc 1 581 13 view .LVU218
 581:Middlewares/Third_Party/RealThread_RTOS/components/finsh/shell.c **** 
 906              		.loc 1 581 25 is_stmt 0 view .LVU219
 907 00e6 0022     		movs	r2, #0
 908 00e8 83F82020 		strb	r2, [r3, #32]
 583:Middlewares/Third_Party/RealThread_RTOS/components/finsh/shell.c ****             {
 909              		.loc 1 583 13 is_stmt 1 view .LVU220
 583:Middlewares/Third_Party/RealThread_RTOS/components/finsh/shell.c ****             {
 910              		.loc 1 583 16 is_stmt 0 view .LVU221
 911 00ec 412C     		cmp	r4, #65
 912 00ee A3D0     		beq	.L66
 603:Middlewares/Third_Party/RealThread_RTOS/components/finsh/shell.c ****             {
 913              		.loc 1 603 18 is_stmt 1 view .LVU222
 603:Middlewares/Third_Party/RealThread_RTOS/components/finsh/shell.c ****             {
 914              		.loc 1 603 21 is_stmt 0 view .LVU223
ARM GAS  C:\Users\Administrator\AppData\Local\Temp\cchb52ze.s 			page 33


 915 00f0 422C     		cmp	r4, #66
 916 00f2 A1D0     		beq	.L66
 625:Middlewares/Third_Party/RealThread_RTOS/components/finsh/shell.c ****             {
 917              		.loc 1 625 18 is_stmt 1 view .LVU224
 625:Middlewares/Third_Party/RealThread_RTOS/components/finsh/shell.c ****             {
 918              		.loc 1 625 21 is_stmt 0 view .LVU225
 919 00f4 442C     		cmp	r4, #68
 920 00f6 15D0     		beq	.L105
 635:Middlewares/Third_Party/RealThread_RTOS/components/finsh/shell.c ****             {
 921              		.loc 1 635 18 is_stmt 1 view .LVU226
 635:Middlewares/Third_Party/RealThread_RTOS/components/finsh/shell.c ****             {
 922              		.loc 1 635 21 is_stmt 0 view .LVU227
 923 00f8 432C     		cmp	r4, #67
 924 00fa ABD1     		bne	.L71
 637:Middlewares/Third_Party/RealThread_RTOS/components/finsh/shell.c ****                 {
 925              		.loc 1 637 17 is_stmt 1 view .LVU228
 637:Middlewares/Third_Party/RealThread_RTOS/components/finsh/shell.c ****                 {
 926              		.loc 1 637 26 is_stmt 0 view .LVU229
 927 00fc B3F87420 		ldrh	r2, [r3, #116]
 637:Middlewares/Third_Party/RealThread_RTOS/components/finsh/shell.c ****                 {
 928              		.loc 1 637 47 view .LVU230
 929 0100 B3F87210 		ldrh	r1, [r3, #114]
 637:Middlewares/Third_Party/RealThread_RTOS/components/finsh/shell.c ****                 {
 930              		.loc 1 637 20 view .LVU231
 931 0104 8A42     		cmp	r2, r1
 932 0106 97D2     		bcs	.L66
 639:Middlewares/Third_Party/RealThread_RTOS/components/finsh/shell.c ****                     shell->line_curpos ++;
 933              		.loc 1 639 21 is_stmt 1 view .LVU232
 639:Middlewares/Third_Party/RealThread_RTOS/components/finsh/shell.c ****                     shell->line_curpos ++;
 934              		.loc 1 639 49 is_stmt 0 view .LVU233
 935 0108 1344     		add	r3, r3, r2
 639:Middlewares/Third_Party/RealThread_RTOS/components/finsh/shell.c ****                     shell->line_curpos ++;
 936              		.loc 1 639 21 view .LVU234
 937 010a 93F82210 		ldrb	r1, [r3, #34]	@ zero_extendqisi2
 938 010e 6D48     		ldr	r0, .L110+4
 939              	.LVL63:
 639:Middlewares/Third_Party/RealThread_RTOS/components/finsh/shell.c ****                     shell->line_curpos ++;
 940              		.loc 1 639 21 view .LVU235
 941 0110 FFF7FEFF 		bl	rt_kprintf
 942              	.LVL64:
 640:Middlewares/Third_Party/RealThread_RTOS/components/finsh/shell.c ****                 }
 943              		.loc 1 640 21 is_stmt 1 view .LVU236
 640:Middlewares/Third_Party/RealThread_RTOS/components/finsh/shell.c ****                 }
 944              		.loc 1 640 26 is_stmt 0 view .LVU237
 945 0114 6A4B     		ldr	r3, .L110
 946 0116 1A68     		ldr	r2, [r3]
 947 0118 B2F87430 		ldrh	r3, [r2, #116]
 640:Middlewares/Third_Party/RealThread_RTOS/components/finsh/shell.c ****                 }
 948              		.loc 1 640 40 view .LVU238
 949 011c 0133     		adds	r3, r3, #1
 950 011e A2F87430 		strh	r3, [r2, #116]	@ movhi
 643:Middlewares/Third_Party/RealThread_RTOS/components/finsh/shell.c ****             }
 951              		.loc 1 643 17 is_stmt 1 view .LVU239
 952 0122 89E7     		b	.L66
 953              	.LVL65:
 954              	.L105:
 627:Middlewares/Third_Party/RealThread_RTOS/components/finsh/shell.c ****                 {
ARM GAS  C:\Users\Administrator\AppData\Local\Temp\cchb52ze.s 			page 34


 955              		.loc 1 627 17 view .LVU240
 627:Middlewares/Third_Party/RealThread_RTOS/components/finsh/shell.c ****                 {
 956              		.loc 1 627 26 is_stmt 0 view .LVU241
 957 0124 B3F87430 		ldrh	r3, [r3, #116]
 627:Middlewares/Third_Party/RealThread_RTOS/components/finsh/shell.c ****                 {
 958              		.loc 1 627 20 view .LVU242
 959 0128 002B     		cmp	r3, #0
 960 012a 85D0     		beq	.L66
 629:Middlewares/Third_Party/RealThread_RTOS/components/finsh/shell.c ****                     shell->line_curpos --;
 961              		.loc 1 629 21 is_stmt 1 view .LVU243
 962 012c 6648     		ldr	r0, .L110+8
 963              	.LVL66:
 629:Middlewares/Third_Party/RealThread_RTOS/components/finsh/shell.c ****                     shell->line_curpos --;
 964              		.loc 1 629 21 is_stmt 0 view .LVU244
 965 012e FFF7FEFF 		bl	rt_kprintf
 966              	.LVL67:
 630:Middlewares/Third_Party/RealThread_RTOS/components/finsh/shell.c ****                 }
 967              		.loc 1 630 21 is_stmt 1 view .LVU245
 630:Middlewares/Third_Party/RealThread_RTOS/components/finsh/shell.c ****                 }
 968              		.loc 1 630 26 is_stmt 0 view .LVU246
 969 0132 634B     		ldr	r3, .L110
 970 0134 1A68     		ldr	r2, [r3]
 971 0136 B2F87430 		ldrh	r3, [r2, #116]
 630:Middlewares/Third_Party/RealThread_RTOS/components/finsh/shell.c ****                 }
 972              		.loc 1 630 40 view .LVU247
 973 013a 013B     		subs	r3, r3, #1
 974 013c A2F87430 		strh	r3, [r2, #116]	@ movhi
 633:Middlewares/Third_Party/RealThread_RTOS/components/finsh/shell.c ****             }
 975              		.loc 1 633 17 is_stmt 1 view .LVU248
 976 0140 7AE7     		b	.L66
 977              	.LVL68:
 978              	.L77:
 979              	.LBB4:
 655:Middlewares/Third_Party/RealThread_RTOS/components/finsh/shell.c **** 
 980              		.loc 1 655 17 discriminator 3 view .LVU249
 981 0142 6148     		ldr	r0, .L110+8
 982 0144 FFF7FEFF 		bl	rt_kprintf
 983              	.LVL69:
 654:Middlewares/Third_Party/RealThread_RTOS/components/finsh/shell.c ****                 rt_kprintf("\b");
 984              		.loc 1 654 49 discriminator 3 view .LVU250
 654:Middlewares/Third_Party/RealThread_RTOS/components/finsh/shell.c ****                 rt_kprintf("\b");
 985              		.loc 1 654 50 is_stmt 0 discriminator 3 view .LVU251
 986 0148 0134     		adds	r4, r4, #1
 987              	.LVL70:
 988              	.L75:
 654:Middlewares/Third_Party/RealThread_RTOS/components/finsh/shell.c ****                 rt_kprintf("\b");
 989              		.loc 1 654 25 is_stmt 1 discriminator 1 view .LVU252
 654:Middlewares/Third_Party/RealThread_RTOS/components/finsh/shell.c ****                 rt_kprintf("\b");
 990              		.loc 1 654 34 is_stmt 0 discriminator 1 view .LVU253
 991 014a 5D4B     		ldr	r3, .L110
 992 014c 1868     		ldr	r0, [r3]
 993 014e B0F87430 		ldrh	r3, [r0, #116]
 654:Middlewares/Third_Party/RealThread_RTOS/components/finsh/shell.c ****                 rt_kprintf("\b");
 994              		.loc 1 654 13 discriminator 1 view .LVU254
 995 0152 A342     		cmp	r3, r4
 996 0154 F5DC     		bgt	.L77
 658:Middlewares/Third_Party/RealThread_RTOS/components/finsh/shell.c ****             /* re-calculate position */
ARM GAS  C:\Users\Administrator\AppData\Local\Temp\cchb52ze.s 			page 35


 997              		.loc 1 658 13 is_stmt 1 view .LVU255
 998 0156 2230     		adds	r0, r0, #34
 999 0158 FFF7FEFF 		bl	shell_auto_complete
 1000              	.LVL71:
 660:Middlewares/Third_Party/RealThread_RTOS/components/finsh/shell.c **** 
 1001              		.loc 1 660 13 view .LVU256
 660:Middlewares/Third_Party/RealThread_RTOS/components/finsh/shell.c **** 
 1002              		.loc 1 660 69 is_stmt 0 view .LVU257
 1003 015c 584B     		ldr	r3, .L110
 1004 015e 1C68     		ldr	r4, [r3]
 1005              	.LVL72:
 660:Middlewares/Third_Party/RealThread_RTOS/components/finsh/shell.c **** 
 1006              		.loc 1 660 57 view .LVU258
 1007 0160 04F12200 		add	r0, r4, #34
 1008 0164 FFF7FEFF 		bl	strlen
 1009              	.LVL73:
 660:Middlewares/Third_Party/RealThread_RTOS/components/finsh/shell.c **** 
 1010              		.loc 1 660 55 view .LVU259
 1011 0168 80B2     		uxth	r0, r0
 1012 016a A4F87200 		strh	r0, [r4, #114]	@ movhi
 660:Middlewares/Third_Party/RealThread_RTOS/components/finsh/shell.c **** 
 1013              		.loc 1 660 32 view .LVU260
 1014 016e A4F87400 		strh	r0, [r4, #116]	@ movhi
 662:Middlewares/Third_Party/RealThread_RTOS/components/finsh/shell.c ****         }
 1015              		.loc 1 662 13 is_stmt 1 view .LVU261
 1016 0172 61E7     		b	.L66
 1017              	.LVL74:
 1018              	.L101:
 654:Middlewares/Third_Party/RealThread_RTOS/components/finsh/shell.c ****                 rt_kprintf("\b");
 1019              		.loc 1 654 20 is_stmt 0 view .LVU262
 1020 0174 0024     		movs	r4, #0
 1021 0176 E8E7     		b	.L75
 1022              	.L78:
 654:Middlewares/Third_Party/RealThread_RTOS/components/finsh/shell.c ****                 rt_kprintf("\b");
 1023              		.loc 1 654 20 view .LVU263
 1024              	.LBE4:
 668:Middlewares/Third_Party/RealThread_RTOS/components/finsh/shell.c ****                 continue;
 1025              		.loc 1 668 13 is_stmt 1 view .LVU264
 668:Middlewares/Third_Party/RealThread_RTOS/components/finsh/shell.c ****                 continue;
 1026              		.loc 1 668 22 is_stmt 0 view .LVU265
 1027 0178 B3F87410 		ldrh	r1, [r3, #116]
 668:Middlewares/Third_Party/RealThread_RTOS/components/finsh/shell.c ****                 continue;
 1028              		.loc 1 668 16 view .LVU266
 1029 017c 0029     		cmp	r1, #0
 1030 017e 3FF45BAF 		beq	.L66
 671:Middlewares/Third_Party/RealThread_RTOS/components/finsh/shell.c ****             shell->line_curpos--;
 1031              		.loc 1 671 13 is_stmt 1 view .LVU267
 671:Middlewares/Third_Party/RealThread_RTOS/components/finsh/shell.c ****             shell->line_curpos--;
 1032              		.loc 1 671 18 is_stmt 0 view .LVU268
 1033 0182 B3F87220 		ldrh	r2, [r3, #114]
 671:Middlewares/Third_Party/RealThread_RTOS/components/finsh/shell.c ****             shell->line_curpos--;
 1034              		.loc 1 671 33 view .LVU269
 1035 0186 013A     		subs	r2, r2, #1
 1036 0188 92B2     		uxth	r2, r2
 1037 018a A3F87220 		strh	r2, [r3, #114]	@ movhi
 672:Middlewares/Third_Party/RealThread_RTOS/components/finsh/shell.c **** 
 1038              		.loc 1 672 13 is_stmt 1 view .LVU270
ARM GAS  C:\Users\Administrator\AppData\Local\Temp\cchb52ze.s 			page 36


 672:Middlewares/Third_Party/RealThread_RTOS/components/finsh/shell.c **** 
 1039              		.loc 1 672 31 is_stmt 0 view .LVU271
 1040 018e 0139     		subs	r1, r1, #1
 1041 0190 89B2     		uxth	r1, r1
 1042 0192 A3F87410 		strh	r1, [r3, #116]	@ movhi
 674:Middlewares/Third_Party/RealThread_RTOS/components/finsh/shell.c ****             {
 1043              		.loc 1 674 13 is_stmt 1 view .LVU272
 674:Middlewares/Third_Party/RealThread_RTOS/components/finsh/shell.c ****             {
 1044              		.loc 1 674 16 is_stmt 0 view .LVU273
 1045 0196 8A42     		cmp	r2, r1
 1046 0198 0BD8     		bhi	.L106
 691:Middlewares/Third_Party/RealThread_RTOS/components/finsh/shell.c ****                 shell->line[shell->line_position] = 0;
 1047              		.loc 1 691 17 is_stmt 1 view .LVU274
 1048 019a 4C48     		ldr	r0, .L110+12
 1049              	.LVL75:
 691:Middlewares/Third_Party/RealThread_RTOS/components/finsh/shell.c ****                 shell->line[shell->line_position] = 0;
 1050              		.loc 1 691 17 is_stmt 0 view .LVU275
 1051 019c FFF7FEFF 		bl	rt_kprintf
 1052              	.LVL76:
 692:Middlewares/Third_Party/RealThread_RTOS/components/finsh/shell.c ****             }
 1053              		.loc 1 692 17 is_stmt 1 view .LVU276
 692:Middlewares/Third_Party/RealThread_RTOS/components/finsh/shell.c ****             }
 1054              		.loc 1 692 22 is_stmt 0 view .LVU277
 1055 01a0 474B     		ldr	r3, .L110
 1056 01a2 1B68     		ldr	r3, [r3]
 692:Middlewares/Third_Party/RealThread_RTOS/components/finsh/shell.c ****             }
 1057              		.loc 1 692 34 view .LVU278
 1058 01a4 B3F87220 		ldrh	r2, [r3, #114]
 692:Middlewares/Third_Party/RealThread_RTOS/components/finsh/shell.c ****             }
 1059              		.loc 1 692 51 view .LVU279
 1060 01a8 1344     		add	r3, r3, r2
 1061 01aa 0022     		movs	r2, #0
 1062 01ac 83F82220 		strb	r2, [r3, #34]
 695:Middlewares/Third_Party/RealThread_RTOS/components/finsh/shell.c ****         }
 1063              		.loc 1 695 13 is_stmt 1 view .LVU280
 1064 01b0 42E7     		b	.L66
 1065              	.LVL77:
 1066              	.L106:
 1067              	.LBB5:
 676:Middlewares/Third_Party/RealThread_RTOS/components/finsh/shell.c **** 
 1068              		.loc 1 676 17 view .LVU281
 678:Middlewares/Third_Party/RealThread_RTOS/components/finsh/shell.c ****                            &shell->line[shell->line_curpos + 1],
 1069              		.loc 1 678 17 view .LVU282
 678:Middlewares/Third_Party/RealThread_RTOS/components/finsh/shell.c ****                            &shell->line[shell->line_curpos + 1],
 1070              		.loc 1 678 28 is_stmt 0 view .LVU283
 1071 01b2 01F12000 		add	r0, r1, #32
 1072              	.LVL78:
 678:Middlewares/Third_Party/RealThread_RTOS/components/finsh/shell.c ****                            &shell->line[shell->line_curpos + 1],
 1073              		.loc 1 678 28 view .LVU284
 1074 01b6 1844     		add	r0, r0, r3
 679:Middlewares/Third_Party/RealThread_RTOS/components/finsh/shell.c ****                            shell->line_position - shell->line_curpos);
 1075              		.loc 1 679 28 view .LVU285
 1076 01b8 01F12104 		add	r4, r1, #33
 1077              	.LVL79:
 679:Middlewares/Third_Party/RealThread_RTOS/components/finsh/shell.c ****                            shell->line_position - shell->line_curpos);
 1078              		.loc 1 679 28 view .LVU286
 1079 01bc 2344     		add	r3, r3, r4
ARM GAS  C:\Users\Administrator\AppData\Local\Temp\cchb52ze.s 			page 37


 678:Middlewares/Third_Party/RealThread_RTOS/components/finsh/shell.c ****                            &shell->line[shell->line_curpos + 1],
 1080              		.loc 1 678 17 view .LVU287
 1081 01be 521A     		subs	r2, r2, r1
 1082 01c0 991C     		adds	r1, r3, #2
 1083 01c2 0230     		adds	r0, r0, #2
 1084 01c4 FFF7FEFF 		bl	rt_memmove
 1085              	.LVL80:
 681:Middlewares/Third_Party/RealThread_RTOS/components/finsh/shell.c **** 
 1086              		.loc 1 681 17 is_stmt 1 view .LVU288
 681:Middlewares/Third_Party/RealThread_RTOS/components/finsh/shell.c **** 
 1087              		.loc 1 681 22 is_stmt 0 view .LVU289
 1088 01c8 3D4C     		ldr	r4, .L110
 1089 01ca 2368     		ldr	r3, [r4]
 681:Middlewares/Third_Party/RealThread_RTOS/components/finsh/shell.c **** 
 1090              		.loc 1 681 34 view .LVU290
 1091 01cc B3F87220 		ldrh	r2, [r3, #114]
 681:Middlewares/Third_Party/RealThread_RTOS/components/finsh/shell.c **** 
 1092              		.loc 1 681 51 view .LVU291
 1093 01d0 1A44     		add	r2, r2, r3
 1094 01d2 0021     		movs	r1, #0
 1095 01d4 82F82210 		strb	r1, [r2, #34]
 683:Middlewares/Third_Party/RealThread_RTOS/components/finsh/shell.c **** 
 1096              		.loc 1 683 17 is_stmt 1 view .LVU292
 683:Middlewares/Third_Party/RealThread_RTOS/components/finsh/shell.c **** 
 1097              		.loc 1 683 58 is_stmt 0 view .LVU293
 1098 01d8 B3F87420 		ldrh	r2, [r3, #116]
 683:Middlewares/Third_Party/RealThread_RTOS/components/finsh/shell.c **** 
 1099              		.loc 1 683 17 view .LVU294
 1100 01dc 2032     		adds	r2, r2, #32
 1101 01de 1344     		add	r3, r3, r2
 1102 01e0 991C     		adds	r1, r3, #2
 1103 01e2 3B48     		ldr	r0, .L110+16
 1104 01e4 FFF7FEFF 		bl	rt_kprintf
 1105              	.LVL81:
 686:Middlewares/Third_Party/RealThread_RTOS/components/finsh/shell.c ****                     rt_kprintf("\b");
 1106              		.loc 1 686 17 is_stmt 1 view .LVU295
 686:Middlewares/Third_Party/RealThread_RTOS/components/finsh/shell.c ****                     rt_kprintf("\b");
 1107              		.loc 1 686 31 is_stmt 0 view .LVU296
 1108 01e8 2368     		ldr	r3, [r4]
 1109 01ea B3F87440 		ldrh	r4, [r3, #116]
 1110              	.LVL82:
 1111              	.L81:
 686:Middlewares/Third_Party/RealThread_RTOS/components/finsh/shell.c ****                     rt_kprintf("\b");
 1112              		.loc 1 686 46 is_stmt 1 discriminator 1 view .LVU297
 686:Middlewares/Third_Party/RealThread_RTOS/components/finsh/shell.c ****                     rt_kprintf("\b");
 1113              		.loc 1 686 56 is_stmt 0 discriminator 1 view .LVU298
 1114 01ee 344B     		ldr	r3, .L110
 1115 01f0 1B68     		ldr	r3, [r3]
 1116 01f2 B3F87230 		ldrh	r3, [r3, #114]
 686:Middlewares/Third_Party/RealThread_RTOS/components/finsh/shell.c ****                     rt_kprintf("\b");
 1117              		.loc 1 686 17 discriminator 1 view .LVU299
 1118 01f6 A342     		cmp	r3, r4
 1119 01f8 FFF61EAF 		blt	.L66
 687:Middlewares/Third_Party/RealThread_RTOS/components/finsh/shell.c ****             }
 1120              		.loc 1 687 21 is_stmt 1 discriminator 3 view .LVU300
 1121 01fc 3248     		ldr	r0, .L110+8
 1122 01fe FFF7FEFF 		bl	rt_kprintf
ARM GAS  C:\Users\Administrator\AppData\Local\Temp\cchb52ze.s 			page 38


 1123              	.LVL83:
 686:Middlewares/Third_Party/RealThread_RTOS/components/finsh/shell.c ****                     rt_kprintf("\b");
 1124              		.loc 1 686 73 discriminator 3 view .LVU301
 686:Middlewares/Third_Party/RealThread_RTOS/components/finsh/shell.c ****                     rt_kprintf("\b");
 1125              		.loc 1 686 74 is_stmt 0 discriminator 3 view .LVU302
 1126 0202 0134     		adds	r4, r4, #1
 1127              	.LVL84:
 686:Middlewares/Third_Party/RealThread_RTOS/components/finsh/shell.c ****                     rt_kprintf("\b");
 1128              		.loc 1 686 74 discriminator 3 view .LVU303
 1129 0204 F3E7     		b	.L81
 1130              	.LVL85:
 1131              	.L84:
 686:Middlewares/Third_Party/RealThread_RTOS/components/finsh/shell.c ****                     rt_kprintf("\b");
 1132              		.loc 1 686 74 discriminator 3 view .LVU304
 1133              	.LBE5:
 706:Middlewares/Third_Party/RealThread_RTOS/components/finsh/shell.c ****             {
 1134              		.loc 1 706 13 is_stmt 1 view .LVU305
 706:Middlewares/Third_Party/RealThread_RTOS/components/finsh/shell.c ****             {
 1135              		.loc 1 706 17 is_stmt 0 view .LVU306
 1136 0206 FFF7FEFF 		bl	msh_is_used
 1137              	.LVL86:
 706:Middlewares/Third_Party/RealThread_RTOS/components/finsh/shell.c ****             {
 1138              		.loc 1 706 16 view .LVU307
 1139 020a 0128     		cmp	r0, #1
 1140 020c 11D0     		beq	.L107
 1141              	.L86:
 723:Middlewares/Third_Party/RealThread_RTOS/components/finsh/shell.c **** 
 1142              		.loc 1 723 13 is_stmt 1 view .LVU308
 725:Middlewares/Third_Party/RealThread_RTOS/components/finsh/shell.c ****             memset(shell->line, 0, sizeof(shell->line));
 1143              		.loc 1 725 13 view .LVU309
 1144 020e FFF7FEFF 		bl	finsh_get_prompt
 1145              	.LVL87:
 1146 0212 FFF7FEFF 		bl	rt_kprintf
 1147              	.LVL88:
 726:Middlewares/Third_Party/RealThread_RTOS/components/finsh/shell.c ****             shell->line_curpos = shell->line_position = 0;
 1148              		.loc 1 726 13 view .LVU310
 726:Middlewares/Third_Party/RealThread_RTOS/components/finsh/shell.c ****             shell->line_curpos = shell->line_position = 0;
 1149              		.loc 1 726 25 is_stmt 0 view .LVU311
 1150 0216 2A4B     		ldr	r3, .L110
 1151 0218 1C68     		ldr	r4, [r3]
 1152              	.LVL89:
 726:Middlewares/Third_Party/RealThread_RTOS/components/finsh/shell.c ****             shell->line_curpos = shell->line_position = 0;
 1153              		.loc 1 726 13 view .LVU312
 1154 021a 5022     		movs	r2, #80
 1155 021c 0021     		movs	r1, #0
 1156 021e 04F12200 		add	r0, r4, #34
 1157 0222 FFF7FEFF 		bl	memset
 1158              	.LVL90:
 727:Middlewares/Third_Party/RealThread_RTOS/components/finsh/shell.c ****             continue;
 1159              		.loc 1 727 13 is_stmt 1 view .LVU313
 727:Middlewares/Third_Party/RealThread_RTOS/components/finsh/shell.c ****             continue;
 1160              		.loc 1 727 55 is_stmt 0 view .LVU314
 1161 0226 0023     		movs	r3, #0
 1162 0228 A4F87230 		strh	r3, [r4, #114]	@ movhi
 727:Middlewares/Third_Party/RealThread_RTOS/components/finsh/shell.c ****             continue;
 1163              		.loc 1 727 32 view .LVU315
 1164 022c A4F87430 		strh	r3, [r4, #116]	@ movhi
ARM GAS  C:\Users\Administrator\AppData\Local\Temp\cchb52ze.s 			page 39


 728:Middlewares/Third_Party/RealThread_RTOS/components/finsh/shell.c ****         }
 1165              		.loc 1 728 13 is_stmt 1 view .LVU316
 1166 0230 02E7     		b	.L66
 1167              	.LVL91:
 1168              	.L107:
 708:Middlewares/Third_Party/RealThread_RTOS/components/finsh/shell.c ****                     rt_kprintf("\n");
 1169              		.loc 1 708 17 view .LVU317
 708:Middlewares/Third_Party/RealThread_RTOS/components/finsh/shell.c ****                     rt_kprintf("\n");
 1170              		.loc 1 708 26 is_stmt 0 view .LVU318
 1171 0232 234B     		ldr	r3, .L110
 1172 0234 1B68     		ldr	r3, [r3]
 708:Middlewares/Third_Party/RealThread_RTOS/components/finsh/shell.c ****                     rt_kprintf("\n");
 1173              		.loc 1 708 21 view .LVU319
 1174 0236 93F82130 		ldrb	r3, [r3, #33]	@ zero_extendqisi2
 708:Middlewares/Third_Party/RealThread_RTOS/components/finsh/shell.c ****                     rt_kprintf("\n");
 1175              		.loc 1 708 20 view .LVU320
 1176 023a 13F0010F 		tst	r3, #1
 1177 023e 07D1     		bne	.L108
 1178              	.L87:
 710:Middlewares/Third_Party/RealThread_RTOS/components/finsh/shell.c ****             }
 1179              		.loc 1 710 17 is_stmt 1 view .LVU321
 710:Middlewares/Third_Party/RealThread_RTOS/components/finsh/shell.c ****             }
 1180              		.loc 1 710 31 is_stmt 0 view .LVU322
 1181 0240 1F4B     		ldr	r3, .L110
 1182 0242 1868     		ldr	r0, [r3]
 710:Middlewares/Third_Party/RealThread_RTOS/components/finsh/shell.c ****             }
 1183              		.loc 1 710 17 view .LVU323
 1184 0244 B0F87210 		ldrh	r1, [r0, #114]
 1185 0248 2230     		adds	r0, r0, #34
 1186 024a FFF7FEFF 		bl	msh_exec
 1187              	.LVL92:
 1188 024e DEE7     		b	.L86
 1189              	.L108:
 709:Middlewares/Third_Party/RealThread_RTOS/components/finsh/shell.c ****                 msh_exec(shell->line, shell->line_position);
 1190              		.loc 1 709 21 is_stmt 1 view .LVU324
 1191 0250 2048     		ldr	r0, .L110+20
 1192 0252 FFF7FEFF 		bl	rt_kprintf
 1193              	.LVL93:
 1194 0256 F3E7     		b	.L87
 1195              	.LVL94:
 1196              	.L102:
 1197              	.LBB6:
 738:Middlewares/Third_Party/RealThread_RTOS/components/finsh/shell.c **** 
 1198              		.loc 1 738 13 view .LVU325
 740:Middlewares/Third_Party/RealThread_RTOS/components/finsh/shell.c ****                        &shell->line[shell->line_curpos],
 1199              		.loc 1 740 13 view .LVU326
 740:Middlewares/Third_Party/RealThread_RTOS/components/finsh/shell.c ****                        &shell->line[shell->line_curpos],
 1200              		.loc 1 740 24 is_stmt 0 view .LVU327
 1201 0258 0CF12100 		add	r0, ip, #33
 1202              	.LVL95:
 740:Middlewares/Third_Party/RealThread_RTOS/components/finsh/shell.c ****                        &shell->line[shell->line_curpos],
 1203              		.loc 1 740 24 view .LVU328
 1204 025c 1844     		add	r0, r0, r3
 741:Middlewares/Third_Party/RealThread_RTOS/components/finsh/shell.c ****                        shell->line_position - shell->line_curpos);
 1205              		.loc 1 741 24 view .LVU329
 1206 025e 0CF12001 		add	r1, ip, #32
 1207 0262 1944     		add	r1, r1, r3
ARM GAS  C:\Users\Administrator\AppData\Local\Temp\cchb52ze.s 			page 40


 740:Middlewares/Third_Party/RealThread_RTOS/components/finsh/shell.c ****                        &shell->line[shell->line_curpos],
 1208              		.loc 1 740 13 view .LVU330
 1209 0264 A2EB0C02 		sub	r2, r2, ip
 1210 0268 0231     		adds	r1, r1, #2
 1211 026a 0230     		adds	r0, r0, #2
 1212 026c FFF7FEFF 		bl	rt_memmove
 1213              	.LVL96:
 743:Middlewares/Third_Party/RealThread_RTOS/components/finsh/shell.c ****             if (shell->echo_mode)
 1214              		.loc 1 743 13 is_stmt 1 view .LVU331
 743:Middlewares/Third_Party/RealThread_RTOS/components/finsh/shell.c ****             if (shell->echo_mode)
 1215              		.loc 1 743 18 is_stmt 0 view .LVU332
 1216 0270 134B     		ldr	r3, .L110
 1217 0272 1B68     		ldr	r3, [r3]
 743:Middlewares/Third_Party/RealThread_RTOS/components/finsh/shell.c ****             if (shell->echo_mode)
 1218              		.loc 1 743 30 view .LVU333
 1219 0274 B3F87420 		ldrh	r2, [r3, #116]
 743:Middlewares/Third_Party/RealThread_RTOS/components/finsh/shell.c ****             if (shell->echo_mode)
 1220              		.loc 1 743 45 view .LVU334
 1221 0278 9918     		adds	r1, r3, r2
 1222 027a 81F82240 		strb	r4, [r1, #34]
 744:Middlewares/Third_Party/RealThread_RTOS/components/finsh/shell.c ****                 rt_kprintf("%s", &shell->line[shell->line_curpos]);
 1223              		.loc 1 744 13 is_stmt 1 view .LVU335
 744:Middlewares/Third_Party/RealThread_RTOS/components/finsh/shell.c ****                 rt_kprintf("%s", &shell->line[shell->line_curpos]);
 1224              		.loc 1 744 17 is_stmt 0 view .LVU336
 1225 027e 93F82110 		ldrb	r1, [r3, #33]	@ zero_extendqisi2
 744:Middlewares/Third_Party/RealThread_RTOS/components/finsh/shell.c ****                 rt_kprintf("%s", &shell->line[shell->line_curpos]);
 1226              		.loc 1 744 16 view .LVU337
 1227 0282 11F0010F 		tst	r1, #1
 1228 0286 04D1     		bne	.L109
 1229              	.L90:
 748:Middlewares/Third_Party/RealThread_RTOS/components/finsh/shell.c ****                 rt_kprintf("\b");
 1230              		.loc 1 748 13 is_stmt 1 view .LVU338
 748:Middlewares/Third_Party/RealThread_RTOS/components/finsh/shell.c ****                 rt_kprintf("\b");
 1231              		.loc 1 748 27 is_stmt 0 view .LVU339
 1232 0288 0D4B     		ldr	r3, .L110
 1233 028a 1B68     		ldr	r3, [r3]
 1234 028c B3F87440 		ldrh	r4, [r3, #116]
 1235              	.LVL97:
 748:Middlewares/Third_Party/RealThread_RTOS/components/finsh/shell.c ****                 rt_kprintf("\b");
 1236              		.loc 1 748 13 view .LVU340
 1237 0290 0AE0     		b	.L91
 1238              	.LVL98:
 1239              	.L109:
 745:Middlewares/Third_Party/RealThread_RTOS/components/finsh/shell.c **** 
 1240              		.loc 1 745 17 is_stmt 1 view .LVU341
 1241 0292 2032     		adds	r2, r2, #32
 1242 0294 1344     		add	r3, r3, r2
 1243 0296 991C     		adds	r1, r3, #2
 1244 0298 0F48     		ldr	r0, .L110+24
 1245 029a FFF7FEFF 		bl	rt_kprintf
 1246              	.LVL99:
 1247 029e F3E7     		b	.L90
 1248              	.LVL100:
 1249              	.L92:
 749:Middlewares/Third_Party/RealThread_RTOS/components/finsh/shell.c ****         }
 1250              		.loc 1 749 17 discriminator 3 view .LVU342
 1251 02a0 0948     		ldr	r0, .L110+8
ARM GAS  C:\Users\Administrator\AppData\Local\Temp\cchb52ze.s 			page 41


 1252 02a2 FFF7FEFF 		bl	rt_kprintf
 1253              	.LVL101:
 748:Middlewares/Third_Party/RealThread_RTOS/components/finsh/shell.c ****                 rt_kprintf("\b");
 1254              		.loc 1 748 68 discriminator 3 view .LVU343
 748:Middlewares/Third_Party/RealThread_RTOS/components/finsh/shell.c ****                 rt_kprintf("\b");
 1255              		.loc 1 748 69 is_stmt 0 discriminator 3 view .LVU344
 1256 02a6 0134     		adds	r4, r4, #1
 1257              	.LVL102:
 1258              	.L91:
 748:Middlewares/Third_Party/RealThread_RTOS/components/finsh/shell.c ****                 rt_kprintf("\b");
 1259              		.loc 1 748 42 is_stmt 1 discriminator 1 view .LVU345
 748:Middlewares/Third_Party/RealThread_RTOS/components/finsh/shell.c ****                 rt_kprintf("\b");
 1260              		.loc 1 748 51 is_stmt 0 discriminator 1 view .LVU346
 1261 02a8 054B     		ldr	r3, .L110
 1262 02aa 1B68     		ldr	r3, [r3]
 1263 02ac B3F87230 		ldrh	r3, [r3, #114]
 748:Middlewares/Third_Party/RealThread_RTOS/components/finsh/shell.c ****                 rt_kprintf("\b");
 1264              		.loc 1 748 13 discriminator 1 view .LVU347
 1265 02b0 A342     		cmp	r3, r4
 1266 02b2 F5DC     		bgt	.L92
 748:Middlewares/Third_Party/RealThread_RTOS/components/finsh/shell.c ****                 rt_kprintf("\b");
 1267              		.loc 1 748 13 discriminator 1 view .LVU348
 1268 02b4 F8E6     		b	.L93
 1269              	.LVL103:
 1270              	.L103:
 748:Middlewares/Third_Party/RealThread_RTOS/components/finsh/shell.c ****                 rt_kprintf("\b");
 1271              		.loc 1 748 13 discriminator 1 view .LVU349
 1272              	.LBE6:
 755:Middlewares/Third_Party/RealThread_RTOS/components/finsh/shell.c ****         }
 1273              		.loc 1 755 17 is_stmt 1 view .LVU350
 1274 02b6 2146     		mov	r1, r4
 1275 02b8 0248     		ldr	r0, .L110+4
 1276              	.LVL104:
 755:Middlewares/Third_Party/RealThread_RTOS/components/finsh/shell.c ****         }
 1277              		.loc 1 755 17 is_stmt 0 view .LVU351
 1278 02ba FFF7FEFF 		bl	rt_kprintf
 1279              	.LVL105:
 1280 02be F3E6     		b	.L93
 1281              	.L111:
 1282              		.align	2
 1283              	.L110:
 1284 02c0 00000000 		.word	.LANCHOR0
 1285 02c4 04000000 		.word	.LC8
 1286 02c8 00000000 		.word	.LC7
 1287 02cc 10000000 		.word	.LC10
 1288 02d0 08000000 		.word	.LC9
 1289 02d4 00000000 		.word	.LC4
 1290 02d8 14000000 		.word	.LC11
 1291              		.cfi_endproc
 1292              	.LFE29:
 1294              		.section	.text.finsh_get_device,"ax",%progbits
 1295              		.align	1
 1296              		.global	finsh_get_device
 1297              		.syntax unified
 1298              		.thumb
 1299              		.thumb_func
 1300              		.fpu softvfp
ARM GAS  C:\Users\Administrator\AppData\Local\Temp\cchb52ze.s 			page 42


 1302              	finsh_get_device:
 1303              	.LFB25:
 254:Middlewares/Third_Party/RealThread_RTOS/components/finsh/shell.c ****     RT_ASSERT(shell != RT_NULL);
 1304              		.loc 1 254 1 is_stmt 1 view -0
 1305              		.cfi_startproc
 1306              		@ args = 0, pretend = 0, frame = 0
 1307              		@ frame_needed = 0, uses_anonymous_args = 0
 1308 0000 08B5     		push	{r3, lr}
 1309              	.LCFI13:
 1310              		.cfi_def_cfa_offset 8
 1311              		.cfi_offset 3, -8
 1312              		.cfi_offset 14, -4
 255:Middlewares/Third_Party/RealThread_RTOS/components/finsh/shell.c ****     return shell->device->parent.name;
 1313              		.loc 1 255 5 view .LVU353
 1314 0002 064B     		ldr	r3, .L116
 1315 0004 1B68     		ldr	r3, [r3]
 1316 0006 1BB1     		cbz	r3, .L115
 1317              	.L113:
 255:Middlewares/Third_Party/RealThread_RTOS/components/finsh/shell.c ****     return shell->device->parent.name;
 1318              		.loc 1 255 32 discriminator 3 view .LVU354
 256:Middlewares/Third_Party/RealThread_RTOS/components/finsh/shell.c **** }
 1319              		.loc 1 256 5 discriminator 3 view .LVU355
 256:Middlewares/Third_Party/RealThread_RTOS/components/finsh/shell.c **** }
 1320              		.loc 1 256 17 is_stmt 0 discriminator 3 view .LVU356
 1321 0008 044B     		ldr	r3, .L116
 1322 000a 1B68     		ldr	r3, [r3]
 257:Middlewares/Third_Party/RealThread_RTOS/components/finsh/shell.c **** #endif
 1323              		.loc 1 257 1 discriminator 3 view .LVU357
 1324 000c 986F     		ldr	r0, [r3, #120]
 1325 000e 08BD     		pop	{r3, pc}
 1326              	.L115:
 255:Middlewares/Third_Party/RealThread_RTOS/components/finsh/shell.c ****     return shell->device->parent.name;
 1327              		.loc 1 255 5 is_stmt 1 discriminator 1 view .LVU358
 1328 0010 FF22     		movs	r2, #255
 1329 0012 0349     		ldr	r1, .L116+4
 1330 0014 0348     		ldr	r0, .L116+8
 1331 0016 FFF7FEFF 		bl	rt_assert_handler
 1332              	.LVL106:
 1333 001a F5E7     		b	.L113
 1334              	.L117:
 1335              		.align	2
 1336              	.L116:
 1337 001c 00000000 		.word	.LANCHOR0
 1338 0020 00000000 		.word	.LANCHOR8
 1339 0024 00000000 		.word	.LC0
 1340              		.cfi_endproc
 1341              	.LFE25:
 1343              		.section	.text.finsh_set_echo,"ax",%progbits
 1344              		.align	1
 1345              		.global	finsh_set_echo
 1346              		.syntax unified
 1347              		.thumb
 1348              		.thumb_func
 1349              		.fpu softvfp
 1351              	finsh_set_echo:
 1352              	.LVL107:
 1353              	.LFB26:
ARM GAS  C:\Users\Administrator\AppData\Local\Temp\cchb52ze.s 			page 43


 270:Middlewares/Third_Party/RealThread_RTOS/components/finsh/shell.c ****     RT_ASSERT(shell != RT_NULL);
 1354              		.loc 1 270 1 view -0
 1355              		.cfi_startproc
 1356              		@ args = 0, pretend = 0, frame = 0
 1357              		@ frame_needed = 0, uses_anonymous_args = 0
 270:Middlewares/Third_Party/RealThread_RTOS/components/finsh/shell.c ****     RT_ASSERT(shell != RT_NULL);
 1358              		.loc 1 270 1 is_stmt 0 view .LVU360
 1359 0000 10B5     		push	{r4, lr}
 1360              	.LCFI14:
 1361              		.cfi_def_cfa_offset 8
 1362              		.cfi_offset 4, -8
 1363              		.cfi_offset 14, -4
 1364 0002 0446     		mov	r4, r0
 271:Middlewares/Third_Party/RealThread_RTOS/components/finsh/shell.c ****     shell->echo_mode = (rt_uint8_t)echo;
 1365              		.loc 1 271 5 is_stmt 1 view .LVU361
 1366 0004 094B     		ldr	r3, .L122
 1367 0006 1B68     		ldr	r3, [r3]
 1368 0008 43B1     		cbz	r3, .L121
 1369              	.LVL108:
 1370              	.L119:
 271:Middlewares/Third_Party/RealThread_RTOS/components/finsh/shell.c ****     shell->echo_mode = (rt_uint8_t)echo;
 1371              		.loc 1 271 32 discriminator 3 view .LVU362
 272:Middlewares/Third_Party/RealThread_RTOS/components/finsh/shell.c **** }
 1372              		.loc 1 272 5 discriminator 3 view .LVU363
 272:Middlewares/Third_Party/RealThread_RTOS/components/finsh/shell.c **** }
 1373              		.loc 1 272 10 is_stmt 0 discriminator 3 view .LVU364
 1374 000a 084B     		ldr	r3, .L122
 1375 000c 1B68     		ldr	r3, [r3]
 272:Middlewares/Third_Party/RealThread_RTOS/components/finsh/shell.c **** }
 1376              		.loc 1 272 22 discriminator 3 view .LVU365
 1377 000e 93F82120 		ldrb	r2, [r3, #33]	@ zero_extendqisi2
 1378 0012 64F30002 		bfi	r2, r4, #0, #1
 1379 0016 83F82120 		strb	r2, [r3, #33]
 273:Middlewares/Third_Party/RealThread_RTOS/components/finsh/shell.c **** 
 1380              		.loc 1 273 1 discriminator 3 view .LVU366
 1381 001a 10BD     		pop	{r4, pc}
 1382              	.LVL109:
 1383              	.L121:
 271:Middlewares/Third_Party/RealThread_RTOS/components/finsh/shell.c ****     shell->echo_mode = (rt_uint8_t)echo;
 1384              		.loc 1 271 5 is_stmt 1 discriminator 1 view .LVU367
 1385 001c 40F20F12 		movw	r2, #271
 1386 0020 0349     		ldr	r1, .L122+4
 1387 0022 0448     		ldr	r0, .L122+8
 1388              	.LVL110:
 271:Middlewares/Third_Party/RealThread_RTOS/components/finsh/shell.c ****     shell->echo_mode = (rt_uint8_t)echo;
 1389              		.loc 1 271 5 is_stmt 0 discriminator 1 view .LVU368
 1390 0024 FFF7FEFF 		bl	rt_assert_handler
 1391              	.LVL111:
 1392 0028 EFE7     		b	.L119
 1393              	.L123:
 1394 002a 00BF     		.align	2
 1395              	.L122:
 1396 002c 00000000 		.word	.LANCHOR0
 1397 0030 00000000 		.word	.LANCHOR9
 1398 0034 00000000 		.word	.LC0
 1399              		.cfi_endproc
 1400              	.LFE26:
ARM GAS  C:\Users\Administrator\AppData\Local\Temp\cchb52ze.s 			page 44


 1402              		.section	.text.finsh_get_echo,"ax",%progbits
 1403              		.align	1
 1404              		.global	finsh_get_echo
 1405              		.syntax unified
 1406              		.thumb
 1407              		.thumb_func
 1408              		.fpu softvfp
 1410              	finsh_get_echo:
 1411              	.LFB27:
 283:Middlewares/Third_Party/RealThread_RTOS/components/finsh/shell.c ****     RT_ASSERT(shell != RT_NULL);
 1412              		.loc 1 283 1 is_stmt 1 view -0
 1413              		.cfi_startproc
 1414              		@ args = 0, pretend = 0, frame = 0
 1415              		@ frame_needed = 0, uses_anonymous_args = 0
 1416 0000 08B5     		push	{r3, lr}
 1417              	.LCFI15:
 1418              		.cfi_def_cfa_offset 8
 1419              		.cfi_offset 3, -8
 1420              		.cfi_offset 14, -4
 284:Middlewares/Third_Party/RealThread_RTOS/components/finsh/shell.c **** 
 1421              		.loc 1 284 5 view .LVU370
 1422 0002 084B     		ldr	r3, .L128
 1423 0004 1B68     		ldr	r3, [r3]
 1424 0006 33B1     		cbz	r3, .L127
 1425              	.L125:
 284:Middlewares/Third_Party/RealThread_RTOS/components/finsh/shell.c **** 
 1426              		.loc 1 284 32 discriminator 3 view .LVU371
 286:Middlewares/Third_Party/RealThread_RTOS/components/finsh/shell.c **** }
 1427              		.loc 1 286 5 discriminator 3 view .LVU372
 286:Middlewares/Third_Party/RealThread_RTOS/components/finsh/shell.c **** }
 1428              		.loc 1 286 17 is_stmt 0 discriminator 3 view .LVU373
 1429 0008 064B     		ldr	r3, .L128
 1430 000a 1B68     		ldr	r3, [r3]
 1431 000c 93F82100 		ldrb	r0, [r3, #33]	@ zero_extendqisi2
 287:Middlewares/Third_Party/RealThread_RTOS/components/finsh/shell.c **** 
 1432              		.loc 1 287 1 discriminator 3 view .LVU374
 1433 0010 00F00100 		and	r0, r0, #1
 1434 0014 08BD     		pop	{r3, pc}
 1435              	.L127:
 284:Middlewares/Third_Party/RealThread_RTOS/components/finsh/shell.c **** 
 1436              		.loc 1 284 5 is_stmt 1 discriminator 1 view .LVU375
 1437 0016 4FF48E72 		mov	r2, #284
 1438 001a 0349     		ldr	r1, .L128+4
 1439 001c 0348     		ldr	r0, .L128+8
 1440 001e FFF7FEFF 		bl	rt_assert_handler
 1441              	.LVL112:
 1442 0022 F1E7     		b	.L125
 1443              	.L129:
 1444              		.align	2
 1445              	.L128:
 1446 0024 00000000 		.word	.LANCHOR0
 1447 0028 00000000 		.word	.LANCHOR10
 1448 002c 00000000 		.word	.LC0
 1449              		.cfi_endproc
 1450              	.LFE27:
 1452              		.section	.text.finsh_system_function_init,"ax",%progbits
 1453              		.align	1
ARM GAS  C:\Users\Administrator\AppData\Local\Temp\cchb52ze.s 			page 45


 1454              		.global	finsh_system_function_init
 1455              		.syntax unified
 1456              		.thumb
 1457              		.thumb_func
 1458              		.fpu softvfp
 1460              	finsh_system_function_init:
 1461              	.LVL113:
 1462              	.LFB30:
 766:Middlewares/Third_Party/RealThread_RTOS/components/finsh/shell.c ****         }
 767:Middlewares/Third_Party/RealThread_RTOS/components/finsh/shell.c ****     } /* end of device read */
 768:Middlewares/Third_Party/RealThread_RTOS/components/finsh/shell.c **** }
 769:Middlewares/Third_Party/RealThread_RTOS/components/finsh/shell.c **** 
 770:Middlewares/Third_Party/RealThread_RTOS/components/finsh/shell.c **** void finsh_system_function_init(const void *begin, const void *end)
 771:Middlewares/Third_Party/RealThread_RTOS/components/finsh/shell.c **** {
 1463              		.loc 1 771 1 view -0
 1464              		.cfi_startproc
 1465              		@ args = 0, pretend = 0, frame = 0
 1466              		@ frame_needed = 0, uses_anonymous_args = 0
 1467              		@ link register save eliminated.
 772:Middlewares/Third_Party/RealThread_RTOS/components/finsh/shell.c ****     _syscall_table_begin = (struct finsh_syscall *) begin;
 1468              		.loc 1 772 5 view .LVU377
 1469              		.loc 1 772 26 is_stmt 0 view .LVU378
 1470 0000 024B     		ldr	r3, .L131
 1471 0002 1860     		str	r0, [r3]
 773:Middlewares/Third_Party/RealThread_RTOS/components/finsh/shell.c ****     _syscall_table_end = (struct finsh_syscall *) end;
 1472              		.loc 1 773 5 is_stmt 1 view .LVU379
 1473              		.loc 1 773 24 is_stmt 0 view .LVU380
 1474 0004 024B     		ldr	r3, .L131+4
 1475 0006 1960     		str	r1, [r3]
 774:Middlewares/Third_Party/RealThread_RTOS/components/finsh/shell.c **** }
 1476              		.loc 1 774 1 view .LVU381
 1477 0008 7047     		bx	lr
 1478              	.L132:
 1479 000a 00BF     		.align	2
 1480              	.L131:
 1481 000c 00000000 		.word	.LANCHOR11
 1482 0010 00000000 		.word	.LANCHOR12
 1483              		.cfi_endproc
 1484              	.LFE30:
 1486              		.section	.text.finsh_system_var_init,"ax",%progbits
 1487              		.align	1
 1488              		.global	finsh_system_var_init
 1489              		.syntax unified
 1490              		.thumb
 1491              		.thumb_func
 1492              		.fpu softvfp
 1494              	finsh_system_var_init:
 1495              	.LVL114:
 1496              	.LFB31:
 775:Middlewares/Third_Party/RealThread_RTOS/components/finsh/shell.c **** 
 776:Middlewares/Third_Party/RealThread_RTOS/components/finsh/shell.c **** void finsh_system_var_init(const void *begin, const void *end)
 777:Middlewares/Third_Party/RealThread_RTOS/components/finsh/shell.c **** {
 1497              		.loc 1 777 1 is_stmt 1 view -0
 1498              		.cfi_startproc
 1499              		@ args = 0, pretend = 0, frame = 0
 1500              		@ frame_needed = 0, uses_anonymous_args = 0
 1501              		@ link register save eliminated.
ARM GAS  C:\Users\Administrator\AppData\Local\Temp\cchb52ze.s 			page 46


 778:Middlewares/Third_Party/RealThread_RTOS/components/finsh/shell.c ****     _sysvar_table_begin = (struct finsh_sysvar *) begin;
 1502              		.loc 1 778 5 view .LVU383
 1503              		.loc 1 778 25 is_stmt 0 view .LVU384
 1504 0000 024B     		ldr	r3, .L134
 1505 0002 1860     		str	r0, [r3]
 779:Middlewares/Third_Party/RealThread_RTOS/components/finsh/shell.c ****     _sysvar_table_end = (struct finsh_sysvar *) end;
 1506              		.loc 1 779 5 is_stmt 1 view .LVU385
 1507              		.loc 1 779 23 is_stmt 0 view .LVU386
 1508 0004 024B     		ldr	r3, .L134+4
 1509 0006 1960     		str	r1, [r3]
 780:Middlewares/Third_Party/RealThread_RTOS/components/finsh/shell.c **** }
 1510              		.loc 1 780 1 view .LVU387
 1511 0008 7047     		bx	lr
 1512              	.L135:
 1513 000a 00BF     		.align	2
 1514              	.L134:
 1515 000c 00000000 		.word	.LANCHOR13
 1516 0010 00000000 		.word	.LANCHOR14
 1517              		.cfi_endproc
 1518              	.LFE31:
 1520              		.section	.rodata.finsh_system_init.str1.4,"aMS",%progbits,1
 1521              		.align	2
 1522              	.LC12:
 1523 0000 6E6F206D 		.ascii	"no memory for shell\012\000"
 1523      656D6F72 
 1523      7920666F 
 1523      72207368 
 1523      656C6C0A 
 1524 0015 000000   		.align	2
 1525              	.LC13:
 1526 0018 74736865 		.ascii	"tshell\000"
 1526      6C6C00
 1527 001f 00       		.align	2
 1528              	.LC14:
 1529 0020 73687278 		.ascii	"shrx\000"
 1529      00
 1530              		.section	.text.finsh_system_init,"ax",%progbits
 1531              		.align	1
 1532              		.global	finsh_system_init
 1533              		.syntax unified
 1534              		.thumb
 1535              		.thumb_func
 1536              		.fpu softvfp
 1538              	finsh_system_init:
 1539              	.LFB32:
 781:Middlewares/Third_Party/RealThread_RTOS/components/finsh/shell.c **** 
 782:Middlewares/Third_Party/RealThread_RTOS/components/finsh/shell.c **** #if defined(__ICCARM__) || defined(__ICCRX__)               /* for IAR compiler */
 783:Middlewares/Third_Party/RealThread_RTOS/components/finsh/shell.c **** #ifdef FINSH_USING_SYMTAB
 784:Middlewares/Third_Party/RealThread_RTOS/components/finsh/shell.c **** #pragma section="FSymTab"
 785:Middlewares/Third_Party/RealThread_RTOS/components/finsh/shell.c **** #pragma section="VSymTab"
 786:Middlewares/Third_Party/RealThread_RTOS/components/finsh/shell.c **** #endif
 787:Middlewares/Third_Party/RealThread_RTOS/components/finsh/shell.c **** #elif defined(__ADSPBLACKFIN__) /* for VisaulDSP++ Compiler*/
 788:Middlewares/Third_Party/RealThread_RTOS/components/finsh/shell.c **** #ifdef FINSH_USING_SYMTAB
 789:Middlewares/Third_Party/RealThread_RTOS/components/finsh/shell.c **** extern "asm" int __fsymtab_start;
 790:Middlewares/Third_Party/RealThread_RTOS/components/finsh/shell.c **** extern "asm" int __fsymtab_end;
 791:Middlewares/Third_Party/RealThread_RTOS/components/finsh/shell.c **** extern "asm" int __vsymtab_start;
 792:Middlewares/Third_Party/RealThread_RTOS/components/finsh/shell.c **** extern "asm" int __vsymtab_end;
ARM GAS  C:\Users\Administrator\AppData\Local\Temp\cchb52ze.s 			page 47


 793:Middlewares/Third_Party/RealThread_RTOS/components/finsh/shell.c **** #endif
 794:Middlewares/Third_Party/RealThread_RTOS/components/finsh/shell.c **** #elif defined(_MSC_VER)
 795:Middlewares/Third_Party/RealThread_RTOS/components/finsh/shell.c **** #pragma section("FSymTab$a", read)
 796:Middlewares/Third_Party/RealThread_RTOS/components/finsh/shell.c **** const char __fsym_begin_name[] = "__start";
 797:Middlewares/Third_Party/RealThread_RTOS/components/finsh/shell.c **** const char __fsym_begin_desc[] = "begin of finsh";
 798:Middlewares/Third_Party/RealThread_RTOS/components/finsh/shell.c **** __declspec(allocate("FSymTab$a")) const struct finsh_syscall __fsym_begin =
 799:Middlewares/Third_Party/RealThread_RTOS/components/finsh/shell.c **** {
 800:Middlewares/Third_Party/RealThread_RTOS/components/finsh/shell.c ****     __fsym_begin_name,
 801:Middlewares/Third_Party/RealThread_RTOS/components/finsh/shell.c ****     __fsym_begin_desc,
 802:Middlewares/Third_Party/RealThread_RTOS/components/finsh/shell.c ****     NULL
 803:Middlewares/Third_Party/RealThread_RTOS/components/finsh/shell.c **** };
 804:Middlewares/Third_Party/RealThread_RTOS/components/finsh/shell.c **** 
 805:Middlewares/Third_Party/RealThread_RTOS/components/finsh/shell.c **** #pragma section("FSymTab$z", read)
 806:Middlewares/Third_Party/RealThread_RTOS/components/finsh/shell.c **** const char __fsym_end_name[] = "__end";
 807:Middlewares/Third_Party/RealThread_RTOS/components/finsh/shell.c **** const char __fsym_end_desc[] = "end of finsh";
 808:Middlewares/Third_Party/RealThread_RTOS/components/finsh/shell.c **** __declspec(allocate("FSymTab$z")) const struct finsh_syscall __fsym_end =
 809:Middlewares/Third_Party/RealThread_RTOS/components/finsh/shell.c **** {
 810:Middlewares/Third_Party/RealThread_RTOS/components/finsh/shell.c ****     __fsym_end_name,
 811:Middlewares/Third_Party/RealThread_RTOS/components/finsh/shell.c ****     __fsym_end_desc,
 812:Middlewares/Third_Party/RealThread_RTOS/components/finsh/shell.c ****     NULL
 813:Middlewares/Third_Party/RealThread_RTOS/components/finsh/shell.c **** };
 814:Middlewares/Third_Party/RealThread_RTOS/components/finsh/shell.c **** #endif
 815:Middlewares/Third_Party/RealThread_RTOS/components/finsh/shell.c **** 
 816:Middlewares/Third_Party/RealThread_RTOS/components/finsh/shell.c **** /*
 817:Middlewares/Third_Party/RealThread_RTOS/components/finsh/shell.c ****  * @ingroup finsh
 818:Middlewares/Third_Party/RealThread_RTOS/components/finsh/shell.c ****  *
 819:Middlewares/Third_Party/RealThread_RTOS/components/finsh/shell.c ****  * This function will initialize finsh shell
 820:Middlewares/Third_Party/RealThread_RTOS/components/finsh/shell.c ****  */
 821:Middlewares/Third_Party/RealThread_RTOS/components/finsh/shell.c **** int finsh_system_init(void)
 822:Middlewares/Third_Party/RealThread_RTOS/components/finsh/shell.c **** {
 1540              		.loc 1 822 1 is_stmt 1 view -0
 1541              		.cfi_startproc
 1542              		@ args = 0, pretend = 0, frame = 0
 1543              		@ frame_needed = 0, uses_anonymous_args = 0
 1544 0000 10B5     		push	{r4, lr}
 1545              	.LCFI16:
 1546              		.cfi_def_cfa_offset 8
 1547              		.cfi_offset 4, -8
 1548              		.cfi_offset 14, -4
 1549 0002 82B0     		sub	sp, sp, #8
 1550              	.LCFI17:
 1551              		.cfi_def_cfa_offset 16
 823:Middlewares/Third_Party/RealThread_RTOS/components/finsh/shell.c ****     rt_err_t result = RT_EOK;
 1552              		.loc 1 823 5 view .LVU389
 1553              	.LVL115:
 824:Middlewares/Third_Party/RealThread_RTOS/components/finsh/shell.c ****     rt_thread_t tid;
 1554              		.loc 1 824 5 view .LVU390
 825:Middlewares/Third_Party/RealThread_RTOS/components/finsh/shell.c **** 
 826:Middlewares/Third_Party/RealThread_RTOS/components/finsh/shell.c **** #ifdef FINSH_USING_SYMTAB
 827:Middlewares/Third_Party/RealThread_RTOS/components/finsh/shell.c **** #if defined(__CC_ARM) || defined(__CLANG_ARM)          /* ARM C Compiler */
 828:Middlewares/Third_Party/RealThread_RTOS/components/finsh/shell.c ****     extern const int FSymTab$$Base;
 829:Middlewares/Third_Party/RealThread_RTOS/components/finsh/shell.c ****     extern const int FSymTab$$Limit;
 830:Middlewares/Third_Party/RealThread_RTOS/components/finsh/shell.c ****     extern const int VSymTab$$Base;
 831:Middlewares/Third_Party/RealThread_RTOS/components/finsh/shell.c ****     extern const int VSymTab$$Limit;
 832:Middlewares/Third_Party/RealThread_RTOS/components/finsh/shell.c ****     finsh_system_function_init(&FSymTab$$Base, &FSymTab$$Limit);
 833:Middlewares/Third_Party/RealThread_RTOS/components/finsh/shell.c **** #ifndef FINSH_USING_MSH_ONLY
 834:Middlewares/Third_Party/RealThread_RTOS/components/finsh/shell.c ****     finsh_system_var_init(&VSymTab$$Base, &VSymTab$$Limit);
ARM GAS  C:\Users\Administrator\AppData\Local\Temp\cchb52ze.s 			page 48


 835:Middlewares/Third_Party/RealThread_RTOS/components/finsh/shell.c **** #endif
 836:Middlewares/Third_Party/RealThread_RTOS/components/finsh/shell.c **** #elif defined (__ICCARM__) || defined(__ICCRX__)      /* for IAR Compiler */
 837:Middlewares/Third_Party/RealThread_RTOS/components/finsh/shell.c ****     finsh_system_function_init(__section_begin("FSymTab"),
 838:Middlewares/Third_Party/RealThread_RTOS/components/finsh/shell.c ****                                __section_end("FSymTab"));
 839:Middlewares/Third_Party/RealThread_RTOS/components/finsh/shell.c ****     finsh_system_var_init(__section_begin("VSymTab"),
 840:Middlewares/Third_Party/RealThread_RTOS/components/finsh/shell.c ****                           __section_end("VSymTab"));
 841:Middlewares/Third_Party/RealThread_RTOS/components/finsh/shell.c **** #elif defined (__GNUC__) || defined(__TI_COMPILER_VERSION__)
 842:Middlewares/Third_Party/RealThread_RTOS/components/finsh/shell.c ****     /* GNU GCC Compiler and TI CCS */
 843:Middlewares/Third_Party/RealThread_RTOS/components/finsh/shell.c ****     extern const int __fsymtab_start;
 1555              		.loc 1 843 5 view .LVU391
 844:Middlewares/Third_Party/RealThread_RTOS/components/finsh/shell.c ****     extern const int __fsymtab_end;
 1556              		.loc 1 844 5 view .LVU392
 845:Middlewares/Third_Party/RealThread_RTOS/components/finsh/shell.c ****     extern const int __vsymtab_start;
 1557              		.loc 1 845 5 view .LVU393
 846:Middlewares/Third_Party/RealThread_RTOS/components/finsh/shell.c ****     extern const int __vsymtab_end;
 1558              		.loc 1 846 5 view .LVU394
 847:Middlewares/Third_Party/RealThread_RTOS/components/finsh/shell.c ****     finsh_system_function_init(&__fsymtab_start, &__fsymtab_end);
 1559              		.loc 1 847 5 view .LVU395
 1560 0004 1949     		ldr	r1, .L142
 1561 0006 1A48     		ldr	r0, .L142+4
 1562 0008 FFF7FEFF 		bl	finsh_system_function_init
 1563              	.LVL116:
 848:Middlewares/Third_Party/RealThread_RTOS/components/finsh/shell.c ****     finsh_system_var_init(&__vsymtab_start, &__vsymtab_end);
 1564              		.loc 1 848 5 view .LVU396
 1565 000c 1949     		ldr	r1, .L142+8
 1566 000e 1A48     		ldr	r0, .L142+12
 1567 0010 FFF7FEFF 		bl	finsh_system_var_init
 1568              	.LVL117:
 849:Middlewares/Third_Party/RealThread_RTOS/components/finsh/shell.c **** #elif defined(__ADSPBLACKFIN__) /* for VisualDSP++ Compiler */
 850:Middlewares/Third_Party/RealThread_RTOS/components/finsh/shell.c ****     finsh_system_function_init(&__fsymtab_start, &__fsymtab_end);
 851:Middlewares/Third_Party/RealThread_RTOS/components/finsh/shell.c ****     finsh_system_var_init(&__vsymtab_start, &__vsymtab_end);
 852:Middlewares/Third_Party/RealThread_RTOS/components/finsh/shell.c **** #elif defined(_MSC_VER)
 853:Middlewares/Third_Party/RealThread_RTOS/components/finsh/shell.c ****     unsigned int *ptr_begin, *ptr_end;
 854:Middlewares/Third_Party/RealThread_RTOS/components/finsh/shell.c **** 
 855:Middlewares/Third_Party/RealThread_RTOS/components/finsh/shell.c ****     if(shell)
 856:Middlewares/Third_Party/RealThread_RTOS/components/finsh/shell.c ****     {
 857:Middlewares/Third_Party/RealThread_RTOS/components/finsh/shell.c ****         rt_kprintf("finsh shell already init.\n");
 858:Middlewares/Third_Party/RealThread_RTOS/components/finsh/shell.c ****         return RT_EOK;
 859:Middlewares/Third_Party/RealThread_RTOS/components/finsh/shell.c ****     }
 860:Middlewares/Third_Party/RealThread_RTOS/components/finsh/shell.c **** 
 861:Middlewares/Third_Party/RealThread_RTOS/components/finsh/shell.c ****     ptr_begin = (unsigned int *)&__fsym_begin;
 862:Middlewares/Third_Party/RealThread_RTOS/components/finsh/shell.c ****     ptr_begin += (sizeof(struct finsh_syscall) / sizeof(unsigned int));
 863:Middlewares/Third_Party/RealThread_RTOS/components/finsh/shell.c ****     while (*ptr_begin == 0) ptr_begin ++;
 864:Middlewares/Third_Party/RealThread_RTOS/components/finsh/shell.c **** 
 865:Middlewares/Third_Party/RealThread_RTOS/components/finsh/shell.c ****     ptr_end = (unsigned int *) &__fsym_end;
 866:Middlewares/Third_Party/RealThread_RTOS/components/finsh/shell.c ****     ptr_end --;
 867:Middlewares/Third_Party/RealThread_RTOS/components/finsh/shell.c ****     while (*ptr_end == 0) ptr_end --;
 868:Middlewares/Third_Party/RealThread_RTOS/components/finsh/shell.c **** 
 869:Middlewares/Third_Party/RealThread_RTOS/components/finsh/shell.c ****     finsh_system_function_init(ptr_begin, ptr_end);
 870:Middlewares/Third_Party/RealThread_RTOS/components/finsh/shell.c **** #endif
 871:Middlewares/Third_Party/RealThread_RTOS/components/finsh/shell.c **** #endif
 872:Middlewares/Third_Party/RealThread_RTOS/components/finsh/shell.c **** 
 873:Middlewares/Third_Party/RealThread_RTOS/components/finsh/shell.c **** #ifdef RT_USING_HEAP
 874:Middlewares/Third_Party/RealThread_RTOS/components/finsh/shell.c ****     /* create or set shell structure */
 875:Middlewares/Third_Party/RealThread_RTOS/components/finsh/shell.c ****     shell = (struct finsh_shell *)rt_calloc(1, sizeof(struct finsh_shell));
 1569              		.loc 1 875 5 view .LVU397
 1570              		.loc 1 875 35 is_stmt 0 view .LVU398
ARM GAS  C:\Users\Administrator\AppData\Local\Temp\cchb52ze.s 			page 49


 1571 0014 7C21     		movs	r1, #124
 1572 0016 0120     		movs	r0, #1
 1573 0018 FFF7FEFF 		bl	rt_calloc
 1574              	.LVL118:
 1575              		.loc 1 875 11 view .LVU399
 1576 001c 174B     		ldr	r3, .L142+16
 1577 001e 1860     		str	r0, [r3]
 876:Middlewares/Third_Party/RealThread_RTOS/components/finsh/shell.c ****     if (shell == RT_NULL)
 1578              		.loc 1 876 5 is_stmt 1 view .LVU400
 1579              		.loc 1 876 8 is_stmt 0 view .LVU401
 1580 0020 E0B1     		cbz	r0, .L141
 877:Middlewares/Third_Party/RealThread_RTOS/components/finsh/shell.c ****     {
 878:Middlewares/Third_Party/RealThread_RTOS/components/finsh/shell.c ****         rt_kprintf("no memory for shell\n");
 879:Middlewares/Third_Party/RealThread_RTOS/components/finsh/shell.c ****         return -1;
 880:Middlewares/Third_Party/RealThread_RTOS/components/finsh/shell.c ****     }
 881:Middlewares/Third_Party/RealThread_RTOS/components/finsh/shell.c ****     tid = rt_thread_create(FINSH_THREAD_NAME,
 1581              		.loc 1 881 5 is_stmt 1 view .LVU402
 1582              		.loc 1 881 11 is_stmt 0 view .LVU403
 1583 0022 0A23     		movs	r3, #10
 1584 0024 0193     		str	r3, [sp, #4]
 1585 0026 1523     		movs	r3, #21
 1586 0028 0093     		str	r3, [sp]
 1587 002a 4FF48063 		mov	r3, #1024
 1588 002e 0022     		movs	r2, #0
 1589 0030 1349     		ldr	r1, .L142+20
 1590 0032 1448     		ldr	r0, .L142+24
 1591 0034 FFF7FEFF 		bl	rt_thread_create
 1592              	.LVL119:
 1593 0038 0446     		mov	r4, r0
 1594              	.LVL120:
 882:Middlewares/Third_Party/RealThread_RTOS/components/finsh/shell.c ****                            finsh_thread_entry, RT_NULL,
 883:Middlewares/Third_Party/RealThread_RTOS/components/finsh/shell.c ****                            FINSH_THREAD_STACK_SIZE, FINSH_THREAD_PRIORITY, 10);
 884:Middlewares/Third_Party/RealThread_RTOS/components/finsh/shell.c **** #else
 885:Middlewares/Third_Party/RealThread_RTOS/components/finsh/shell.c ****     shell = &_shell;
 886:Middlewares/Third_Party/RealThread_RTOS/components/finsh/shell.c ****     tid = &finsh_thread;
 887:Middlewares/Third_Party/RealThread_RTOS/components/finsh/shell.c ****     result = rt_thread_init(&finsh_thread,
 888:Middlewares/Third_Party/RealThread_RTOS/components/finsh/shell.c ****                             FINSH_THREAD_NAME,
 889:Middlewares/Third_Party/RealThread_RTOS/components/finsh/shell.c ****                             finsh_thread_entry, RT_NULL,
 890:Middlewares/Third_Party/RealThread_RTOS/components/finsh/shell.c ****                             &finsh_thread_stack[0], sizeof(finsh_thread_stack),
 891:Middlewares/Third_Party/RealThread_RTOS/components/finsh/shell.c ****                             FINSH_THREAD_PRIORITY, 10);
 892:Middlewares/Third_Party/RealThread_RTOS/components/finsh/shell.c **** #endif /* RT_USING_HEAP */
 893:Middlewares/Third_Party/RealThread_RTOS/components/finsh/shell.c **** 
 894:Middlewares/Third_Party/RealThread_RTOS/components/finsh/shell.c ****     rt_sem_init(&(shell->rx_sem), "shrx", 0, 0);
 1595              		.loc 1 894 5 is_stmt 1 view .LVU404
 1596 003a 0023     		movs	r3, #0
 1597 003c 1A46     		mov	r2, r3
 1598 003e 1249     		ldr	r1, .L142+28
 1599 0040 0E48     		ldr	r0, .L142+16
 1600              	.LVL121:
 1601              		.loc 1 894 5 is_stmt 0 view .LVU405
 1602 0042 0068     		ldr	r0, [r0]
 1603 0044 FFF7FEFF 		bl	rt_sem_init
 1604              	.LVL122:
 895:Middlewares/Third_Party/RealThread_RTOS/components/finsh/shell.c ****     finsh_set_prompt_mode(1);
 1605              		.loc 1 895 5 is_stmt 1 view .LVU406
 1606 0048 0120     		movs	r0, #1
 1607 004a FFF7FEFF 		bl	finsh_set_prompt_mode
ARM GAS  C:\Users\Administrator\AppData\Local\Temp\cchb52ze.s 			page 50


 1608              	.LVL123:
 896:Middlewares/Third_Party/RealThread_RTOS/components/finsh/shell.c **** 
 897:Middlewares/Third_Party/RealThread_RTOS/components/finsh/shell.c ****     if (tid != NULL && result == RT_EOK)
 1609              		.loc 1 897 5 view .LVU407
 1610              		.loc 1 897 8 is_stmt 0 view .LVU408
 1611 004e 5CB1     		cbz	r4, .L139
 898:Middlewares/Third_Party/RealThread_RTOS/components/finsh/shell.c ****         rt_thread_startup(tid);
 1612              		.loc 1 898 9 is_stmt 1 view .LVU409
 1613 0050 2046     		mov	r0, r4
 1614 0052 FFF7FEFF 		bl	rt_thread_startup
 1615              	.LVL124:
 899:Middlewares/Third_Party/RealThread_RTOS/components/finsh/shell.c ****     return 0;
 1616              		.loc 1 899 12 is_stmt 0 view .LVU410
 1617 0056 0020     		movs	r0, #0
 1618              	.LVL125:
 1619              	.L136:
 900:Middlewares/Third_Party/RealThread_RTOS/components/finsh/shell.c **** }
 1620              		.loc 1 900 1 view .LVU411
 1621 0058 02B0     		add	sp, sp, #8
 1622              	.LCFI18:
 1623              		.cfi_remember_state
 1624              		.cfi_def_cfa_offset 8
 1625              		@ sp needed
 1626 005a 10BD     		pop	{r4, pc}
 1627              	.L141:
 1628              	.LCFI19:
 1629              		.cfi_restore_state
 878:Middlewares/Third_Party/RealThread_RTOS/components/finsh/shell.c ****         return -1;
 1630              		.loc 1 878 9 is_stmt 1 view .LVU412
 1631 005c 0B48     		ldr	r0, .L142+32
 1632 005e FFF7FEFF 		bl	rt_kprintf
 1633              	.LVL126:
 879:Middlewares/Third_Party/RealThread_RTOS/components/finsh/shell.c ****     }
 1634              		.loc 1 879 9 view .LVU413
 879:Middlewares/Third_Party/RealThread_RTOS/components/finsh/shell.c ****     }
 1635              		.loc 1 879 16 is_stmt 0 view .LVU414
 1636 0062 4FF0FF30 		mov	r0, #-1
 1637 0066 F7E7     		b	.L136
 1638              	.LVL127:
 1639              	.L139:
 899:Middlewares/Third_Party/RealThread_RTOS/components/finsh/shell.c **** }
 1640              		.loc 1 899 12 view .LVU415
 1641 0068 0020     		movs	r0, #0
 1642 006a F5E7     		b	.L136
 1643              	.L143:
 1644              		.align	2
 1645              	.L142:
 1646 006c 00000000 		.word	__fsymtab_end
 1647 0070 00000000 		.word	__fsymtab_start
 1648 0074 00000000 		.word	__vsymtab_end
 1649 0078 00000000 		.word	__vsymtab_start
 1650 007c 00000000 		.word	.LANCHOR0
 1651 0080 00000000 		.word	finsh_thread_entry
 1652 0084 18000000 		.word	.LC13
 1653 0088 20000000 		.word	.LC14
 1654 008c 00000000 		.word	.LC12
 1655              		.cfi_endproc
ARM GAS  C:\Users\Administrator\AppData\Local\Temp\cchb52ze.s 			page 51


 1656              	.LFE32:
 1658              		.global	__rt_init_desc_finsh_system_init
 1659              		.global	__rti_finsh_system_init_name
 1660              		.global	shell
 1661              		.global	_sysvar_table_end
 1662              		.global	_sysvar_table_begin
 1663              		.global	_syscall_table_end
 1664              		.global	_syscall_table_begin
 1665              		.section	.bss._syscall_table_begin,"aw",%nobits
 1666              		.align	2
 1667              		.set	.LANCHOR11,. + 0
 1670              	_syscall_table_begin:
 1671 0000 00000000 		.space	4
 1672              		.section	.bss._syscall_table_end,"aw",%nobits
 1673              		.align	2
 1674              		.set	.LANCHOR12,. + 0
 1677              	_syscall_table_end:
 1678 0000 00000000 		.space	4
 1679              		.section	.bss._sysvar_table_begin,"aw",%nobits
 1680              		.align	2
 1681              		.set	.LANCHOR13,. + 0
 1684              	_sysvar_table_begin:
 1685 0000 00000000 		.space	4
 1686              		.section	.bss._sysvar_table_end,"aw",%nobits
 1687              		.align	2
 1688              		.set	.LANCHOR14,. + 0
 1691              	_sysvar_table_end:
 1692 0000 00000000 		.space	4
 1693              		.section	.bss.finsh_prompt.8,"aw",%nobits
 1694              		.align	2
 1695              		.set	.LANCHOR4,. + 0
 1698              	finsh_prompt.8:
 1699 0000 00000000 		.space	513
 1699      00000000 
 1699      00000000 
 1699      00000000 
 1699      00000000 
 1700              		.section	.bss.finsh_prompt_custom,"aw",%nobits
 1701              		.align	2
 1702              		.set	.LANCHOR3,. + 0
 1705              	finsh_prompt_custom:
 1706 0000 00000000 		.space	4
 1707              		.section	.bss.shell,"aw",%nobits
 1708              		.align	2
 1709              		.set	.LANCHOR0,. + 0
 1712              	shell:
 1713 0000 00000000 		.space	4
 1714              		.section	.rodata.__FUNCTION__.0,"a"
 1715              		.align	2
 1716              		.set	.LANCHOR2,. + 0
 1719              	__FUNCTION__.0:
 1720 0000 66696E73 		.ascii	"finsh_getchar\000"
 1720      685F6765 
 1720      74636861 
 1720      7200
 1721              		.section	.rodata.__FUNCTION__.1,"a"
 1722              		.align	2
ARM GAS  C:\Users\Administrator\AppData\Local\Temp\cchb52ze.s 			page 52


 1723              		.set	.LANCHOR10,. + 0
 1726              	__FUNCTION__.1:
 1727 0000 66696E73 		.ascii	"finsh_get_echo\000"
 1727      685F6765 
 1727      745F6563 
 1727      686F00
 1728              		.section	.rodata.__FUNCTION__.2,"a"
 1729              		.align	2
 1730              		.set	.LANCHOR9,. + 0
 1733              	__FUNCTION__.2:
 1734 0000 66696E73 		.ascii	"finsh_set_echo\000"
 1734      685F7365 
 1734      745F6563 
 1734      686F00
 1735              		.section	.rodata.__FUNCTION__.3,"a"
 1736              		.align	2
 1737              		.set	.LANCHOR8,. + 0
 1740              	__FUNCTION__.3:
 1741 0000 66696E73 		.ascii	"finsh_get_device\000"
 1741      685F6765 
 1741      745F6465 
 1741      76696365 
 1741      00
 1742              		.section	.rodata.__FUNCTION__.4,"a"
 1743              		.align	2
 1744              		.set	.LANCHOR1,. + 0
 1747              	__FUNCTION__.4:
 1748 0000 66696E73 		.ascii	"finsh_rx_ind\000"
 1748      685F7278 
 1748      5F696E64 
 1748      00
 1749              		.section	.rodata.__FUNCTION__.5,"a"
 1750              		.align	2
 1751              		.set	.LANCHOR7,. + 0
 1754              	__FUNCTION__.5:
 1755 0000 66696E73 		.ascii	"finsh_set_device\000"
 1755      685F7365 
 1755      745F6465 
 1755      76696365 
 1755      00
 1756              		.section	.rodata.__FUNCTION__.6,"a"
 1757              		.align	2
 1758              		.set	.LANCHOR6,. + 0
 1761              	__FUNCTION__.6:
 1762 0000 66696E73 		.ascii	"finsh_set_prompt_mode\000"
 1762      685F7365 
 1762      745F7072 
 1762      6F6D7074 
 1762      5F6D6F64 
 1763              		.section	.rodata.__FUNCTION__.7,"a"
 1764              		.align	2
 1765              		.set	.LANCHOR5,. + 0
 1768              	__FUNCTION__.7:
 1769 0000 66696E73 		.ascii	"finsh_get_prompt_mode\000"
 1769      685F6765 
 1769      745F7072 
 1769      6F6D7074 
ARM GAS  C:\Users\Administrator\AppData\Local\Temp\cchb52ze.s 			page 53


 1769      5F6D6F64 
 1770              		.section	.rodata.__rti_finsh_system_init_name,"a"
 1771              		.align	2
 1774              	__rti_finsh_system_init_name:
 1775 0000 66696E73 		.ascii	"finsh_system_init\000"
 1775      685F7379 
 1775      7374656D 
 1775      5F696E69 
 1775      7400
 1776              		.section	.rti_fn.6,"a"
 1777              		.align	2
 1780              	__rt_init_desc_finsh_system_init:
 1781 0000 00000000 		.word	__rti_finsh_system_init_name
 1782 0004 00000000 		.word	finsh_system_init
 1783              		.text
 1784              	.Letext0:
 1785              		.file 2 "Middlewares/Third_Party/RealThread_RTOS/include/rtdef.h"
 1786              		.file 3 "Middlewares/Third_Party/RealThread_RTOS/finsh/finsh_api.h"
 1787              		.file 4 "c:\\gcc-arm-none-eabi-10-2020-q4-major\\arm-none-eabi\\include\\machine\\_default_types.h
 1788              		.file 5 "c:\\gcc-arm-none-eabi-10-2020-q4-major\\arm-none-eabi\\include\\sys\\_stdint.h"
 1789              		.file 6 "Middlewares/Third_Party/RealThread_RTOS/components/finsh/finsh.h"
 1790              		.file 7 "Middlewares/Third_Party/RealThread_RTOS/components/finsh/shell.h"
 1791              		.file 8 "Middlewares/Third_Party/RealThread_RTOS/include/rtthread.h"
 1792              		.file 9 "c:\\gcc-arm-none-eabi-10-2020-q4-major\\arm-none-eabi\\include\\string.h"
 1793              		.file 10 "Middlewares/Third_Party/RealThread_RTOS/components/finsh/msh.h"
 1794              		.file 11 "<built-in>"
ARM GAS  C:\Users\Administrator\AppData\Local\Temp\cchb52ze.s 			page 54


DEFINED SYMBOLS
                            *ABS*:00000000 shell.c
C:\Users\Administrator\AppData\Local\Temp\cchb52ze.s:16     .rodata.finsh_rx_ind.str1.4:00000000 $d
C:\Users\Administrator\AppData\Local\Temp\cchb52ze.s:20     .text.finsh_rx_ind:00000000 $t
C:\Users\Administrator\AppData\Local\Temp\cchb52ze.s:27     .text.finsh_rx_ind:00000000 finsh_rx_ind
C:\Users\Administrator\AppData\Local\Temp\cchb52ze.s:73     .text.finsh_rx_ind:00000020 $d
C:\Users\Administrator\AppData\Local\Temp\cchb52ze.s:80     .text.finsh_getchar:00000000 $t
C:\Users\Administrator\AppData\Local\Temp\cchb52ze.s:86     .text.finsh_getchar:00000000 finsh_getchar
C:\Users\Administrator\AppData\Local\Temp\cchb52ze.s:167    .text.finsh_getchar:00000058 $d
C:\Users\Administrator\AppData\Local\Temp\cchb52ze.s:174    .text.finsh_set_prompt:00000000 $t
C:\Users\Administrator\AppData\Local\Temp\cchb52ze.s:181    .text.finsh_set_prompt:00000000 finsh_set_prompt
C:\Users\Administrator\AppData\Local\Temp\cchb52ze.s:243    .text.finsh_set_prompt:00000034 $d
C:\Users\Administrator\AppData\Local\Temp\cchb52ze.s:248    .rodata.finsh_get_prompt.str1.4:00000000 $d
C:\Users\Administrator\AppData\Local\Temp\cchb52ze.s:258    .text.finsh_get_prompt:00000000 $t
C:\Users\Administrator\AppData\Local\Temp\cchb52ze.s:265    .text.finsh_get_prompt:00000000 finsh_get_prompt
C:\Users\Administrator\AppData\Local\Temp\cchb52ze.s:359    .text.finsh_get_prompt:00000064 $d
C:\Users\Administrator\AppData\Local\Temp\cchb52ze.s:369    .rodata.shell_auto_complete.str1.4:00000000 $d
C:\Users\Administrator\AppData\Local\Temp\cchb52ze.s:376    .text.shell_auto_complete:00000000 $t
C:\Users\Administrator\AppData\Local\Temp\cchb52ze.s:382    .text.shell_auto_complete:00000000 shell_auto_complete
C:\Users\Administrator\AppData\Local\Temp\cchb52ze.s:431    .text.shell_auto_complete:0000002c $d
C:\Users\Administrator\AppData\Local\Temp\cchb52ze.s:437    .text.finsh_get_prompt_mode:00000000 $t
C:\Users\Administrator\AppData\Local\Temp\cchb52ze.s:444    .text.finsh_get_prompt_mode:00000000 finsh_get_prompt_mode
C:\Users\Administrator\AppData\Local\Temp\cchb52ze.s:480    .text.finsh_get_prompt_mode:00000024 $d
