Archive member included to satisfy reference by file (symbol)

c:/gcc-arm-none-eabi-10-2020-q4-major/bin/../lib/gcc/arm-none-eabi/10.2.1/../../../../arm-none-eabi/lib/thumb/v7e-m/nofp\libc_nano.a(lib_a-exit.o)
                              c:/gcc-arm-none-eabi-10-2020-q4-major/bin/../lib/gcc/arm-none-eabi/10.2.1/../../../../arm-none-eabi/lib/thumb/v7e-m/nofp/crt0.o (exit)
c:/gcc-arm-none-eabi-10-2020-q4-major/bin/../lib/gcc/arm-none-eabi/10.2.1/../../../../arm-none-eabi/lib/thumb/v7e-m/nofp\libc_nano.a(lib_a-impure.o)
                              c:/gcc-arm-none-eabi-10-2020-q4-major/bin/../lib/gcc/arm-none-eabi/10.2.1/../../../../arm-none-eabi/lib/thumb/v7e-m/nofp\libc_nano.a(lib_a-exit.o) (_global_impure_ptr)
c:/gcc-arm-none-eabi-10-2020-q4-major/bin/../lib/gcc/arm-none-eabi/10.2.1/../../../../arm-none-eabi/lib/thumb/v7e-m/nofp\libc_nano.a(lib_a-init.o)
                              c:/gcc-arm-none-eabi-10-2020-q4-major/bin/../lib/gcc/arm-none-eabi/10.2.1/../../../../arm-none-eabi/lib/thumb/v7e-m/nofp/crt0.o (__libc_init_array)
c:/gcc-arm-none-eabi-10-2020-q4-major/bin/../lib/gcc/arm-none-eabi/10.2.1/../../../../arm-none-eabi/lib/thumb/v7e-m/nofp\libc_nano.a(lib_a-memcpy-stub.o)
                              build/cmd.o (memcpy)
c:/gcc-arm-none-eabi-10-2020-q4-major/bin/../lib/gcc/arm-none-eabi/10.2.1/../../../../arm-none-eabi/lib/thumb/v7e-m/nofp\libc_nano.a(lib_a-memset.o)
                              c:/gcc-arm-none-eabi-10-2020-q4-major/bin/../lib/gcc/arm-none-eabi/10.2.1/../../../../arm-none-eabi/lib/thumb/v7e-m/nofp/crt0.o (memset)
c:/gcc-arm-none-eabi-10-2020-q4-major/bin/../lib/gcc/arm-none-eabi/10.2.1/../../../../arm-none-eabi/lib/thumb/v7e-m/nofp\libc_nano.a(lib_a-strcpy.o)
                              build/shell.o (strcpy)
c:/gcc-arm-none-eabi-10-2020-q4-major/bin/../lib/gcc/arm-none-eabi/10.2.1/../../../../arm-none-eabi/lib/thumb/v7e-m/nofp\libc_nano.a(lib_a-strlen.o)
                              build/msh.o (strlen)
c:/gcc-arm-none-eabi-10-2020-q4-major/bin/../lib/gcc/arm-none-eabi/10.2.1/../../../../arm-none-eabi/lib/thumb/v7e-m/nofp\libc_nano.a(lib_a-strncmp.o)
                              build/cmd.o (strncmp)
c:/gcc-arm-none-eabi-10-2020-q4-major/bin/../lib/gcc/arm-none-eabi/10.2.1/../../../../arm-none-eabi/lib/thumb/v7e-m/nofp\libc_nano.a(lib_a-strncpy.o)
                              build/shell.o (strncpy)
c:/gcc-arm-none-eabi-10-2020-q4-major/bin/../lib/gcc/arm-none-eabi/10.2.1/../../../../arm-none-eabi/lib/thumb/v7e-m/nofp\libnosys.a(_exit.o)
                              c:/gcc-arm-none-eabi-10-2020-q4-major/bin/../lib/gcc/arm-none-eabi/10.2.1/../../../../arm-none-eabi/lib/thumb/v7e-m/nofp\libc_nano.a(lib_a-exit.o) (_exit)
c:/gcc-arm-none-eabi-10-2020-q4-major/bin/../lib/gcc/arm-none-eabi/10.2.1/thumb/v7e-m/nofp\libgcc.a(_aeabi_uldivmod.o)
                              build/stm32f4xx_hal_rcc.o (__aeabi_uldivmod)
c:/gcc-arm-none-eabi-10-2020-q4-major/bin/../lib/gcc/arm-none-eabi/10.2.1/thumb/v7e-m/nofp\libgcc.a(_udivmoddi4.o)
                              c:/gcc-arm-none-eabi-10-2020-q4-major/bin/../lib/gcc/arm-none-eabi/10.2.1/thumb/v7e-m/nofp\libgcc.a(_aeabi_uldivmod.o) (__udivmoddi4)
c:/gcc-arm-none-eabi-10-2020-q4-major/bin/../lib/gcc/arm-none-eabi/10.2.1/thumb/v7e-m/nofp\libgcc.a(_dvmd_tls.o)
                              c:/gcc-arm-none-eabi-10-2020-q4-major/bin/../lib/gcc/arm-none-eabi/10.2.1/thumb/v7e-m/nofp\libgcc.a(_aeabi_uldivmod.o) (__aeabi_ldiv0)

Discarded input sections

 .text          0x00000000        0x0 c:/gcc-arm-none-eabi-10-2020-q4-major/bin/../lib/gcc/arm-none-eabi/10.2.1/thumb/v7e-m/nofp/crti.o
 .data          0x00000000        0x0 c:/gcc-arm-none-eabi-10-2020-q4-major/bin/../lib/gcc/arm-none-eabi/10.2.1/thumb/v7e-m/nofp/crti.o
 .bss           0x00000000        0x0 c:/gcc-arm-none-eabi-10-2020-q4-major/bin/../lib/gcc/arm-none-eabi/10.2.1/thumb/v7e-m/nofp/crti.o
 .data          0x00000000        0x4 c:/gcc-arm-none-eabi-10-2020-q4-major/bin/../lib/gcc/arm-none-eabi/10.2.1/thumb/v7e-m/nofp/crtbegin.o
 .rodata        0x00000000       0x24 c:/gcc-arm-none-eabi-10-2020-q4-major/bin/../lib/gcc/arm-none-eabi/10.2.1/thumb/v7e-m/nofp/crtbegin.o
 .text          0x00000000       0x7c c:/gcc-arm-none-eabi-10-2020-q4-major/bin/../lib/gcc/arm-none-eabi/10.2.1/../../../../arm-none-eabi/lib/thumb/v7e-m/nofp/crt0.o
 .data          0x00000000        0x0 c:/gcc-arm-none-eabi-10-2020-q4-major/bin/../lib/gcc/arm-none-eabi/10.2.1/../../../../arm-none-eabi/lib/thumb/v7e-m/nofp/crt0.o
 .bss           0x00000000        0x0 c:/gcc-arm-none-eabi-10-2020-q4-major/bin/../lib/gcc/arm-none-eabi/10.2.1/../../../../arm-none-eabi/lib/thumb/v7e-m/nofp/crt0.o
 .ARM.extab     0x00000000        0x0 c:/gcc-arm-none-eabi-10-2020-q4-major/bin/../lib/gcc/arm-none-eabi/10.2.1/../../../../arm-none-eabi/lib/thumb/v7e-m/nofp/crt0.o
 .ARM.exidx     0x00000000       0x10 c:/gcc-arm-none-eabi-10-2020-q4-major/bin/../lib/gcc/arm-none-eabi/10.2.1/../../../../arm-none-eabi/lib/thumb/v7e-m/nofp/crt0.o
 .ARM.attributes
                0x00000000       0x1c c:/gcc-arm-none-eabi-10-2020-q4-major/bin/../lib/gcc/arm-none-eabi/10.2.1/../../../../arm-none-eabi/lib/thumb/v7e-m/nofp/crt0.o
 .text          0x00000000        0x0 build/main.o
 .data          0x00000000        0x0 build/main.o
 .bss           0x00000000        0x0 build/main.o
 .text          0x00000000        0x0 build/gpio.o
 .data          0x00000000        0x0 build/gpio.o
 .bss           0x00000000        0x0 build/gpio.o
Memory Configuration

Name             Origin             Length             Attributes
RAM              0x20000000         0x00020000         xrw
CCMRAM           0x10000000         0x00010000         xrw
FLASH            0x08000000         0x00100000         xr
*default*        0x00000000         0xffffffff

Linker script and memory map

LOAD c:/gcc-arm-none-eabi-10-2020-q4-major/bin/../lib/gcc/arm-none-eabi/10.2.1/thumb/v7e-m/nofp/crti.o
LOAD c:/gcc-arm-none-eabi-10-2020-q4-major/bin/../lib/gcc/arm-none-eabi/10.2.1/thumb/v7e-m/nofp/crtbegin.o
LOAD c:/gcc-arm-none-eabi-10-2020-q4-major/bin/../lib/gcc/arm-none-eabi/10.2.1/../../../../arm-none-eabi/lib/thumb/v7e-m/nofp/crt0.o
LOAD build/main.o
LOAD build/gpio.o
LOAD build/usart.o
LOAD build/stm32f4xx_it.o
LOAD build/stm32f4xx_hal_msp.o
LOAD build/stm32f4xx_hal_rcc.o
LOAD build/stm32f4xx_hal_rcc_ex.o
LOAD build/stm32f4xx_hal_flash.o
LOAD build/stm32f4xx_hal_flash_ex.o
LOAD build/stm32f4xx_hal_flash_ramfunc.o
LOAD build/stm32f4xx_hal_gpio.o
LOAD build/stm32f4xx_hal_dma_ex.o
LOAD build/stm32f4xx_hal_dma.o
LOAD build/stm32f4xx_hal_pwr.o
LOAD build/stm32f4xx_hal_pwr_ex.o
LOAD build/stm32f4xx_hal_cortex.o
LOAD build/stm32f4xx_hal.o
LOAD build/stm32f4xx_hal_exti.o
LOAD build/stm32f4xx_hal_tim.o
LOAD build/stm32f4xx_hal_tim_ex.o
LOAD build/stm32f4xx_hal_uart.o
LOAD build/system_stm32f4xx.o
LOAD build/clock.o
LOAD build/components.o
LOAD build/cpu.o
LOAD build/idle.o
LOAD build/ipc.o
LOAD build/irq.o
LOAD build/kservice.o
LOAD build/mem.o
LOAD build/memheap.o
LOAD build/mempool.o
LOAD build/object.o
LOAD build/scheduler.o
LOAD build/slab.o
LOAD build/thread.o
LOAD build/timer.o
LOAD build/cpuport.o
LOAD build/board.o
LOAD build/cmd.o
LOAD build/finsh_port.o
LOAD build/msh.o
LOAD build/shell.o
LOAD build/device.o
LOAD build/startup_stm32f407xx.o
LOAD build/context_gcc.o
LOAD c:/gcc-arm-none-eabi-10-2020-q4-major/bin/../lib/gcc/arm-none-eabi/10.2.1/../../../../arm-none-eabi/lib/thumb/v7e-m/nofp\libc_nano.a
LOAD c:/gcc-arm-none-eabi-10-2020-q4-major/bin/../lib/gcc/arm-none-eabi/10.2.1/../../../../arm-none-eabi/lib/thumb/v7e-m/nofp\libm.a
LOAD c:/gcc-arm-none-eabi-10-2020-q4-major/bin/../lib/gcc/arm-none-eabi/10.2.1/../../../../arm-none-eabi/lib/thumb/v7e-m/nofp\libnosys.a
START GROUP
LOAD c:/gcc-arm-none-eabi-10-2020-q4-major/bin/../lib/gcc/arm-none-eabi/10.2.1/thumb/v7e-m/nofp\libgcc.a
LOAD c:/gcc-arm-none-eabi-10-2020-q4-major/bin/../lib/gcc/arm-none-eabi/10.2.1/../../../../arm-none-eabi/lib/thumb/v7e-m/nofp\libc_nano.a
END GROUP
START GROUP
LOAD c:/gcc-arm-none-eabi-10-2020-q4-major/bin/../lib/gcc/arm-none-eabi/10.2.1/thumb/v7e-m/nofp\libgcc.a
LOAD c:/gcc-arm-none-eabi-10-2020-q4-major/bin/../lib/gcc/arm-none-eabi/10.2.1/../../../../arm-none-eabi/lib/thumb/v7e-m/nofp\libc_nano.a
END GROUP
LOAD c:/gcc-arm-none-eabi-10-2020-q4-major/bin/../lib/gcc/arm-none-eabi/10.2.1/thumb/v7e-m/nofp/crtend.o
LOAD c:/gcc-arm-none-eabi-10-2020-q4-major/bin/../lib/gcc/arm-none-eabi/10.2.1/thumb/v7e-m/nofp/crtn.o
                0x20020000                _estack = (ORIGIN (RAM) + LENGTH (RAM))
                0x00000200                _Min_Heap_Size = 0x200
                0x00000400                _Min_Stack_Size = 0x400

.isr_vector     0x08000000      0x188
                0x08000000                . = ALIGN (0x4)
 *(.isr_vector)
 .isr_vector    0x08000000      0x188 build/startup_stm32f407xx.o
                0x08000000                g_pfnVectors
                0x08000188                . = ALIGN (0x4)

.text           0x08000188     0x51a8
                0x08000188                . = ALIGN (0x4)
 *(.text)
 .text          0x08000188       0x40 c:/gcc-arm-none-eabi-10-2020-q4-major/bin/../lib/gcc/arm-none-eabi/10.2.1/thumb/v7e-m/nofp/crtbegin.o
 .text          0x080001c8       0xfc build/context_gcc.o
                0x080001c8                rt_hw_interrupt_disable
                0x080001d0                rt_hw_interrupt_enable
                0x080001d6                rt_hw_context_switch_interrupt
                0x080001d6                rt_hw_context_switch
                0x080001f6                PendSV_Handler
                0x08000232                rt_hw_context_switch_to
                0x0800026c                rt_hw_interrupt_thread_switch
                0x08000270                HardFault_Handler
 .text          0x080002c4       0x10 c:/gcc-arm-none-eabi-10-2020-q4-major/bin/../lib/gcc/arm-none-eabi/10.2.1/../../../../arm-none-eabi/lib/thumb/v7e-m/nofp\libc_nano.a(lib_a-strlen.o)
                0x080002c4                strlen
 .text          0x080002d4       0x30 c:/gcc-arm-none-eabi-10-2020-q4-major/bin/../lib/gcc/arm-none-eabi/10.2.1/thumb/v7e-m/nofp\libgcc.a(_aeabi_uldivmod.o)
                0x080002d4                __aeabi_uldivmod
 .text          0x08000304      0x2d0 c:/gcc-arm-none-eabi-10-2020-q4-major/bin/../lib/gcc/arm-none-eabi/10.2.1/thumb/v7e-m/nofp\libgcc.a(_udivmoddi4.o)
                0x08000304                __udivmoddi4
 .text          0x080005d4        0x4 c:/gcc-arm-none-eabi-10-2020-q4-major/bin/../lib/gcc/arm-none-eabi/10.2.1/thumb/v7e-m/nofp\libgcc.a(_dvmd_tls.o)
                0x080005d4                __aeabi_idiv0
                0x080005d4                __aeabi_ldiv0
 *(.text*)
 .text.Error_Handler
                0x080005d8        0x4 build/main.o
                0x080005d8                Error_Handler
 .text.SystemClock_Config
                0x080005dc       0xa8 build/main.o
                0x080005dc                SystemClock_Config
 .text.main     0x08000684       0x48 build/main.o
                0x08000684                main
 .text.MX_GPIO_Init
                0x080006cc      0x1b8 build/gpio.o
                0x080006cc                MX_GPIO_Init
 .text.MX_USART1_UART_Init
                0x08000884       0x34 build/usart.o
                0x08000884                MX_USART1_UART_Init
 .text.HAL_UART_MspInit
                0x080008b8       0x70 build/usart.o
                0x080008b8                HAL_UART_MspInit
 .text.NMI_Handler
                0x08000928        0x2 build/stm32f4xx_it.o
                0x08000928                NMI_Handler
 .text.MemManage_Handler
                0x0800092a        0x2 build/stm32f4xx_it.o
                0x0800092a                MemManage_Handler
 .text.BusFault_Handler
                0x0800092c        0x2 build/stm32f4xx_it.o
                0x0800092c                BusFault_Handler
 .text.UsageFault_Handler
                0x0800092e        0x2 build/stm32f4xx_it.o
                0x0800092e                UsageFault_Handler
 .text.DebugMon_Handler
                0x08000930        0x2 build/stm32f4xx_it.o
                0x08000930                DebugMon_Handler
 *fill*         0x08000932        0x2 
 .text.HAL_MspInit
                0x08000934       0x38 build/stm32f4xx_hal_msp.o
                0x08000934                HAL_MspInit
 .text.HAL_RCC_OscConfig
                0x0800096c      0x3f8 build/stm32f4xx_hal_rcc.o
                0x0800096c                HAL_RCC_OscConfig
 .text.HAL_RCC_GetSysClockFreq
                0x08000d64       0xd4 build/stm32f4xx_hal_rcc.o
                0x08000d64                HAL_RCC_GetSysClockFreq
 .text.HAL_RCC_ClockConfig
                0x08000e38      0x160 build/stm32f4xx_hal_rcc.o
                0x08000e38                HAL_RCC_ClockConfig
 .text.HAL_RCC_GetHCLKFreq
                0x08000f98        0xc build/stm32f4xx_hal_rcc.o
                0x08000f98                HAL_RCC_GetHCLKFreq
 .text.HAL_RCC_GetPCLK1Freq
                0x08000fa4       0x20 build/stm32f4xx_hal_rcc.o
                0x08000fa4                HAL_RCC_GetPCLK1Freq
 .text.HAL_RCC_GetPCLK2Freq
                0x08000fc4       0x20 build/stm32f4xx_hal_rcc.o
                0x08000fc4                HAL_RCC_GetPCLK2Freq
 .text.HAL_GPIO_Init
                0x08000fe4      0x1e4 build/stm32f4xx_hal_gpio.o
                0x08000fe4                HAL_GPIO_Init
 .text.HAL_GPIO_WritePin
                0x080011c8        0xc build/stm32f4xx_hal_gpio.o
                0x080011c8                HAL_GPIO_WritePin
 .text.HAL_GPIO_TogglePin
                0x080011d4       0x12 build/stm32f4xx_hal_gpio.o
                0x080011d4                HAL_GPIO_TogglePin
 *fill*         0x080011e6        0x2 
 .text.HAL_NVIC_SetPriorityGrouping
                0x080011e8       0x24 build/stm32f4xx_hal_cortex.o
                0x080011e8                HAL_NVIC_SetPriorityGrouping
 .text.HAL_NVIC_SetPriority
                0x0800120c       0x70 build/stm32f4xx_hal_cortex.o
                0x0800120c                HAL_NVIC_SetPriority
 .text.HAL_SYSTICK_Config
                0x0800127c       0x28 build/stm32f4xx_hal_cortex.o
                0x0800127c                HAL_SYSTICK_Config
 .text.HAL_InitTick
                0x080012a4       0x4c build/stm32f4xx_hal.o
                0x080012a4                HAL_InitTick
 .text.HAL_Init
                0x080012f0       0x34 build/stm32f4xx_hal.o
                0x080012f0                HAL_Init
 .text.HAL_GetTick
                0x08001324        0xc build/stm32f4xx_hal.o
                0x08001324                HAL_GetTick
 .text.UART_SetConfig
                0x08001330      0x110 build/stm32f4xx_hal_uart.o
 .text.UART_WaitOnFlagUntilTimeout
                0x08001440       0x88 build/stm32f4xx_hal_uart.o
 .text.HAL_UART_Init
                0x080014c8       0x5e build/stm32f4xx_hal_uart.o
                0x080014c8                HAL_UART_Init
 .text.HAL_UART_Transmit
                0x08001526       0xd8 build/stm32f4xx_hal_uart.o
                0x08001526                HAL_UART_Transmit
 .text.SystemInit
                0x080015fe        0x2 build/system_stm32f4xx.o
                0x080015fe                SystemInit
 .text.SystemCoreClockUpdate
                0x08001600       0xa0 build/system_stm32f4xx.o
                0x08001600                SystemCoreClockUpdate
 .text.rt_tick_get
                0x080016a0        0xc build/clock.o
                0x080016a0                rt_tick_get
 .text.rt_tick_increase
                0x080016ac       0x2c build/clock.o
                0x080016ac                rt_tick_increase
 .text.rt_tick_from_millisecond
                0x080016d8       0x3c build/clock.o
                0x080016d8                rt_tick_from_millisecond
 .text.rti_start
                0x08001714        0x4 build/components.o
 .text.rti_board_start
                0x08001718        0x4 build/components.o
 .text.rti_board_end
                0x0800171c        0x4 build/components.o
 .text.rti_end  0x08001720        0x4 build/components.o
 .text.rt_components_board_init
                0x08001724       0x34 build/components.o
                0x08001724                rt_components_board_init
 .text.rt_components_init
                0x08001758       0x40 build/components.o
                0x08001758                rt_components_init
 .text.main_thread_entry
                0x08001798        0xc build/components.o
                0x08001798                main_thread_entry
 .text.rt_application_init
                0x080017a4       0x44 build/components.o
                0x080017a4                rt_application_init
 .text.rtthread_startup
                0x080017e8       0x2a build/components.o
                0x080017e8                rtthread_startup
 .text.entry    0x08001812        0xa build/components.o
                0x08001812                entry
 .text.rt_thread_idle_excute
                0x0800181c       0x78 build/idle.o
                0x0800181c                rt_thread_idle_excute
 .text.rt_thread_idle_entry
                0x08001894       0x24 build/idle.o
 .text.rt_thread_idle_init
                0x080018b8       0x40 build/idle.o
                0x080018b8                rt_thread_idle_init
 .text.rt_sem_init
                0x080018f8       0x50 build/ipc.o
                0x080018f8                rt_sem_init
 .text.rt_sem_take
                0x08001948      0x190 build/ipc.o
                0x08001948                rt_sem_take
 .text.rt_sem_release
                0x08001ad8       0x94 build/ipc.o
                0x08001ad8                rt_sem_release
 .text.rt_interrupt_enter
                0x08001b6c       0x2c build/irq.o
                0x08001b6c                rt_interrupt_enter
 .text.rt_interrupt_leave
                0x08001b98       0x2c build/irq.o
                0x08001b98                rt_interrupt_leave
 .text.rt_interrupt_get_nest
                0x08001bc4       0x18 build/irq.o
                0x08001bc4                rt_interrupt_get_nest
 .text.print_number
                0x08001bdc      0x168 build/kservice.o
 .text.rt_set_errno
                0x08001d44       0x24 build/kservice.o
                0x08001d44                rt_set_errno
 .text.rt_memset
                0x08001d68       0x62 build/kservice.o
                0x08001d68                rt_memset
 .text.rt_memmove
                0x08001dca       0x3e build/kservice.o
                0x08001dca                rt_memmove
 .text.rt_strncpy
                0x08001e08       0x2c build/kservice.o
                0x08001e08                rt_strncpy
 .text.rt_strncmp
                0x08001e34       0x24 build/kservice.o
                0x08001e34                rt_strncmp
 .text.rt_strlen
                0x08001e58       0x10 build/kservice.o
                0x08001e58                rt_strlen
 .text.rt_vsnprintf
                0x08001e68      0x2f8 build/kservice.o
                0x08001e68                rt_vsnprintf
 .text.rt_console_get_device
                0x08002160        0xc build/kservice.o
                0x08002160                rt_console_get_device
 .text.rt_kprintf
                0x0800216c       0x5c build/kservice.o
                0x0800216c                rt_kprintf
 .text.rt_show_version
                0x080021c8       0x40 build/kservice.o
                0x080021c8                rt_show_version
 .text.__rt_ffs
                0x08002208       0x44 build/kservice.o
                0x08002208                __rt_ffs
 .text.rt_assert_handler
                0x0800224c       0x38 build/kservice.o
                0x0800224c                rt_assert_handler
 .text.list_mem
                0x08002284       0x3c build/mem.o
                0x08002284                list_mem
 .text.plug_holes
                0x080022c0       0xb4 build/mem.o
 .text.rt_system_heap_init
                0x08002374       0xbc build/mem.o
                0x08002374                rt_system_heap_init
 .text.rt_malloc
                0x08002430      0x1d4 build/mem.o
                0x08002430                rt_malloc
 .text.rt_calloc
                0x08002604       0x1c build/mem.o
                0x08002604                rt_calloc
 .text.rt_free  0x08002620      0x15c build/mem.o
                0x08002620                rt_free
 .text.rt_object_get_information
                0x0800277c       0x24 build/object.o
                0x0800277c                rt_object_get_information
 .text.rt_object_init
                0x080027a0       0x98 build/object.o
                0x080027a0                rt_object_init
 .text.rt_object_detach
                0x08002838       0x4c build/object.o
                0x08002838                rt_object_detach
 .text.rt_object_allocate
                0x08002884       0xa8 build/object.o
                0x08002884                rt_object_allocate
 .text.rt_object_delete
                0x0800292c       0x6c build/object.o
                0x0800292c                rt_object_delete
 .text.rt_object_is_systemobject
                0x08002998       0x2c build/object.o
                0x08002998                rt_object_is_systemobject
 .text.rt_object_get_type
                0x080029c4       0x24 build/object.o
                0x080029c4                rt_object_get_type
 .text.rt_object_find
                0x080029e8       0x80 build/object.o
                0x080029e8                rt_object_find
 .text._rt_scheduler_stack_check
                0x08002a68       0x60 build/scheduler.o
 .text.rt_system_scheduler_init
                0x08002ac8       0x4c build/scheduler.o
                0x08002ac8                rt_system_scheduler_init
 .text.rt_system_scheduler_start
                0x08002b14       0x30 build/scheduler.o
                0x08002b14                rt_system_scheduler_start
 .text.rt_schedule
                0x08002b44       0x90 build/scheduler.o
                0x08002b44                rt_schedule
 .text.rt_schedule_insert_thread
                0x08002bd4       0x64 build/scheduler.o
                0x08002bd4                rt_schedule_insert_thread
 .text.rt_schedule_remove_thread
                0x08002c38       0x60 build/scheduler.o
                0x08002c38                rt_schedule_remove_thread
 .text.rt_enter_critical
                0x08002c98       0x18 build/scheduler.o
                0x08002c98                rt_enter_critical
 .text.rt_exit_critical
                0x08002cb0       0x3c build/scheduler.o
                0x08002cb0                rt_exit_critical
 .text._thread_cleanup_execute
                0x08002cec       0x1a build/thread.o
 *fill*         0x08002d06        0x2 
 .text.rt_thread_exit
                0x08002d08       0x5c build/thread.o
                0x08002d08                rt_thread_exit
 .text._rt_thread_init
                0x08002d64       0x9c build/thread.o
 .text.rt_thread_timeout
                0x08002e00       0x7c build/thread.o
                0x08002e00                rt_thread_timeout
 .text.rt_thread_init
                0x08002e7c       0x6c build/thread.o
                0x08002e7c                rt_thread_init
 .text.rt_thread_self
                0x08002ee8        0xc build/thread.o
                0x08002ee8                rt_thread_self
 .text.rt_thread_create
                0x08002ef4       0x50 build/thread.o
                0x08002ef4                rt_thread_create
 .text.rt_thread_yield
                0x08002f44       0x5c build/thread.o
                0x08002f44                rt_thread_yield
 .text.rt_thread_suspend
                0x08002fa0       0x8c build/thread.o
                0x08002fa0                rt_thread_suspend
 .text.rt_thread_sleep
                0x0800302c       0x80 build/thread.o
                0x0800302c                rt_thread_sleep
 .text.rt_thread_delay
                0x080030ac        0x8 build/thread.o
                0x080030ac                rt_thread_delay
 .text.rt_thread_mdelay
                0x080030b4        0xc build/thread.o
                0x080030b4                rt_thread_mdelay
 .text.rt_thread_resume
                0x080030c0       0x8c build/thread.o
                0x080030c0                rt_thread_resume
 .text.rt_thread_startup
                0x0800314c       0x7c build/thread.o
                0x0800314c                rt_thread_startup
 .text._rt_timer_init
                0x080031c8       0x32 build/timer.o
 .text.rt_timer_list_next_timeout
                0x080031fa       0x1e build/timer.o
 .text.rt_timer_init
                0x08003218       0x44 build/timer.o
                0x08003218                rt_timer_init
 .text.rt_timer_detach
                0x0800325c       0x90 build/timer.o
                0x0800325c                rt_timer_detach
 .text.rt_timer_start
                0x080032ec      0x15c build/timer.o
                0x080032ec                rt_timer_start
 .text.rt_timer_stop
                0x08003448       0x90 build/timer.o
                0x08003448                rt_timer_stop
 .text.rt_timer_control
                0x080034d8       0x88 build/timer.o
                0x080034d8                rt_timer_control
 .text.rt_timer_check
                0x08003560       0xdc build/timer.o
                0x08003560                rt_timer_check
 .text.rt_soft_timer_check
                0x0800363c       0xf8 build/timer.o
                0x0800363c                rt_soft_timer_check
 .text.rt_thread_timer_entry
                0x08003734       0x3c build/timer.o
 .text.rt_system_timer_init
                0x08003770       0x1c build/timer.o
                0x08003770                rt_system_timer_init
 .text.rt_system_timer_thread_init
                0x0800378c       0x58 build/timer.o
                0x0800378c                rt_system_timer_thread_init
 .text.bus_fault_track
                0x080037e4       0xc4 build/cpuport.o
 .text.mem_manage_fault_track
                0x080038a8       0xac build/cpuport.o
 .text.usage_fault_track
                0x08003954       0xb0 build/cpuport.o
 .text.hard_fault_track
                0x08003a04       0x74 build/cpuport.o
 .text.rt_hw_stack_init
                0x08003a78       0x4c build/cpuport.o
                0x08003a78                rt_hw_stack_init
 .text.rt_hw_hard_fault_exception
                0x08003ac4      0x11c build/cpuport.o
                0x08003ac4                rt_hw_hard_fault_exception
 .text.uart_init
                0x08003be0       0x34 build/board.o
 .text.rt_heap_begin_get
                0x08003c14        0x8 build/board.o
                0x08003c14                rt_heap_begin_get
 .text.rt_heap_end_get
                0x08003c1c        0x8 build/board.o
                0x08003c1c                rt_heap_end_get
 .text.SysTick_Handler
                0x08003c24       0x10 build/board.o
                0x08003c24                SysTick_Handler
 .text.rt_hw_board_init
                0x08003c34       0x3c build/board.o
                0x08003c34                rt_hw_board_init
 .text.rt_hw_console_output
                0x08003c70       0x50 build/board.o
                0x08003c70                rt_hw_console_output
 .text.rt_hw_console_getchar
                0x08003cc0       0x28 build/board.o
                0x08003cc0                rt_hw_console_getchar
 .text.hello    0x08003ce8       0x10 build/cmd.o
                0x08003ce8                hello
 .text.show_wait_queue
                0x08003cf8       0x30 build/cmd.o
 .text.version  0x08003d28        0xa build/cmd.o
                0x08003d28                version
 .text.list_get_next
                0x08003d32       0x66 build/cmd.o
 .text.list_find_init
                0x08003d98       0x20 build/cmd.o
 .text.list_thread
                0x08003db8      0x14c build/cmd.o
                0x08003db8                list_thread
 .text.list_sem
                0x08003f04      0x100 build/cmd.o
                0x08003f04                list_sem
 .text.list_event
                0x08004004       0xf0 build/cmd.o
                0x08004004                list_event
 .text.list_mutex
                0x080040f4       0xbc build/cmd.o
                0x080040f4                list_mutex
 .text.list_mailbox
                0x080041b0      0x108 build/cmd.o
                0x080041b0                list_mailbox
 .text.list_msgqueue
                0x080042b8      0x100 build/cmd.o
                0x080042b8                list_msgqueue
 .text.list_device
                0x080043b8       0xbc build/cmd.o
                0x080043b8                list_device
 .text.list_timer
                0x08004474       0xd8 build/cmd.o
                0x08004474                list_timer
 .text.list     0x0800454c       0x4c build/cmd.o
                0x0800454c                list
 .text.str_common
                0x08004598       0x24 build/msh.o
 .text.msh_split
                0x080045bc       0xc0 build/msh.o
 .text.msh_help
                0x0800467c       0x58 build/msh.o
                0x0800467c                msh_help
 .text.msh_get_cmd
                0x080046d4       0x50 build/msh.o
 .text.cmd_ps   0x08004724        0xa build/msh.o
                0x08004724                cmd_ps
 .text.cmd_free
                0x0800472e        0xa build/msh.o
                0x0800472e                cmd_free
 .text._msh_exec_cmd
                0x08004738       0x8c build/msh.o
 .text.msh_is_used
                0x080047c4        0x4 build/msh.o
                0x080047c4                msh_is_used
 .text.msh_exec
                0x080047c8       0x54 build/msh.o
                0x080047c8                msh_exec
 .text.msh_auto_complete
                0x0800481c       0x9c build/msh.o
                0x0800481c                msh_auto_complete
 .text.finsh_rx_ind
                0x080048b8       0x2c build/shell.o
 .text.finsh_getchar
                0x080048e4       0x64 build/shell.o
 .text.finsh_get_prompt
                0x08004948       0x7c build/shell.o
                0x08004948                finsh_get_prompt
 .text.shell_auto_complete
                0x080049c4       0x34 build/shell.o
 .text.finsh_set_prompt_mode
                0x080049f8       0x34 build/shell.o
                0x080049f8                finsh_set_prompt_mode
 .text.finsh_set_device
                0x08004a2c       0x90 build/shell.o
                0x08004a2c                finsh_set_device
 .text.finsh_thread_entry
                0x08004abc      0x2dc build/shell.o
                0x08004abc                finsh_thread_entry
 .text.finsh_system_function_init
                0x08004d98       0x14 build/shell.o
                0x08004d98                finsh_system_function_init
 .text.finsh_system_var_init
                0x08004dac       0x14 build/shell.o
                0x08004dac                finsh_system_var_init
 .text.finsh_system_init
                0x08004dc0       0x90 build/shell.o
                0x08004dc0                finsh_system_init
 .text.rt_device_find
                0x08004e50        0xa build/device.o
                0x08004e50                rt_device_find
 *fill*         0x08004e5a        0x2 
 .text.rt_device_open
                0x08004e5c       0xc4 build/device.o
                0x08004e5c                rt_device_open
 .text.rt_device_close
                0x08004f20       0x68 build/device.o
                0x08004f20                rt_device_close
 .text.rt_device_read
                0x08004f88       0x74 build/device.o
                0x08004f88                rt_device_read
 .text.rt_device_write
                0x08004ffc       0x74 build/device.o
                0x08004ffc                rt_device_write
 .text.rt_device_set_rx_indicate
                0x08005070       0x40 build/device.o
                0x08005070                rt_device_set_rx_indicate
 .text.Reset_Handler
                0x080050b0       0x50 build/startup_stm32f407xx.o
                0x080050b0                Reset_Handler
 .text.Default_Handler
                0x08005100        0x2 build/startup_stm32f407xx.o
                0x08005100                RTC_Alarm_IRQHandler
                0x08005100                HASH_RNG_IRQHandler
                0x08005100                EXTI2_IRQHandler
                0x08005100                TIM8_CC_IRQHandler
                0x08005100                TIM1_CC_IRQHandler
                0x08005100                DMA2_Stream5_IRQHandler
                0x08005100                DMA1_Stream5_IRQHandler
                0x08005100                PVD_IRQHandler
                0x08005100                SDIO_IRQHandler
                0x08005100                TAMP_STAMP_IRQHandler
                0x08005100                CAN2_RX1_IRQHandler
                0x08005100                EXTI3_IRQHandler
                0x08005100                TIM8_TRG_COM_TIM14_IRQHandler
                0x08005100                TIM1_UP_TIM10_IRQHandler
                0x08005100                TIM8_UP_TIM13_IRQHandler
                0x08005100                I2C3_ER_IRQHandler
                0x08005100                EXTI0_IRQHandler
                0x08005100                I2C2_EV_IRQHandler
                0x08005100                DMA1_Stream2_IRQHandler
                0x08005100                CAN1_RX0_IRQHandler
                0x08005100                FPU_IRQHandler
                0x08005100                OTG_HS_WKUP_IRQHandler
                0x08005100                CAN2_SCE_IRQHandler
                0x08005100                DMA2_Stream2_IRQHandler
                0x08005100                SPI1_IRQHandler
                0x08005100                TIM6_DAC_IRQHandler
                0x08005100                TIM1_BRK_TIM9_IRQHandler
                0x08005100                DCMI_IRQHandler
                0x08005100                CAN2_RX0_IRQHandler
                0x08005100                DMA2_Stream3_IRQHandler
                0x08005100                USART6_IRQHandler
                0x08005100                USART3_IRQHandler
                0x08005100                CAN1_RX1_IRQHandler
                0x08005100                UART5_IRQHandler
                0x08005100                DMA2_Stream0_IRQHandler
                0x08005100                TIM4_IRQHandler
                0x08005100                I2C1_EV_IRQHandler
                0x08005100                DMA1_Stream6_IRQHandler
                0x08005100                DMA1_Stream1_IRQHandler
                0x08005100                UART4_IRQHandler
                0x08005100                TIM3_IRQHandler
                0x08005100                RCC_IRQHandler
                0x08005100                TIM8_BRK_TIM12_IRQHandler
                0x08005100                Default_Handler
                0x08005100                EXTI15_10_IRQHandler
                0x08005100                ADC_IRQHandler
                0x08005100                DMA1_Stream7_IRQHandler
                0x08005100                TIM7_IRQHandler
                0x08005100                CAN2_TX_IRQHandler
                0x08005100                TIM5_IRQHandler
                0x08005100                DMA2_Stream7_IRQHandler
                0x08005100                I2C3_EV_IRQHandler
                0x08005100                EXTI9_5_IRQHandler
                0x08005100                RTC_WKUP_IRQHandler
                0x08005100                ETH_WKUP_IRQHandler
                0x08005100                SPI2_IRQHandler
                0x08005100                OTG_HS_EP1_IN_IRQHandler
                0x08005100                DMA1_Stream0_IRQHandler
                0x08005100                CAN1_TX_IRQHandler
                0x08005100                SVC_Handler
                0x08005100                EXTI4_IRQHandler
                0x08005100                FSMC_IRQHandler
                0x08005100                ETH_IRQHandler
                0x08005100                OTG_HS_EP1_OUT_IRQHandler
                0x08005100                WWDG_IRQHandler
                0x08005100                TIM2_IRQHandler
                0x08005100                OTG_FS_WKUP_IRQHandler
                0x08005100                TIM1_TRG_COM_TIM11_IRQHandler
                0x08005100                OTG_HS_IRQHandler
                0x08005100                EXTI1_IRQHandler
                0x08005100                USART2_IRQHandler
                0x08005100                I2C2_ER_IRQHandler
                0x08005100                DMA2_Stream1_IRQHandler
                0x08005100                CAN1_SCE_IRQHandler
                0x08005100                FLASH_IRQHandler
                0x08005100                DMA2_Stream4_IRQHandler
                0x08005100                USART1_IRQHandler
                0x08005100                OTG_FS_IRQHandler
                0x08005100                SPI3_IRQHandler
                0x08005100                DMA1_Stream4_IRQHandler
                0x08005100                I2C1_ER_IRQHandler
                0x08005100                DMA2_Stream6_IRQHandler
                0x08005100                DMA1_Stream3_IRQHandler
 *fill*         0x08005102        0x2 
 .text.__libc_init_array
                0x08005104       0x48 c:/gcc-arm-none-eabi-10-2020-q4-major/bin/../lib/gcc/arm-none-eabi/10.2.1/../../../../arm-none-eabi/lib/thumb/v7e-m/nofp\libc_nano.a(lib_a-init.o)
                0x08005104                __libc_init_array
 .text.memcpy   0x0800514c       0x1c c:/gcc-arm-none-eabi-10-2020-q4-major/bin/../lib/gcc/arm-none-eabi/10.2.1/../../../../arm-none-eabi/lib/thumb/v7e-m/nofp\libc_nano.a(lib_a-memcpy-stub.o)
                0x0800514c                memcpy
 .text.memset   0x08005168       0x10 c:/gcc-arm-none-eabi-10-2020-q4-major/bin/../lib/gcc/arm-none-eabi/10.2.1/../../../../arm-none-eabi/lib/thumb/v7e-m/nofp\libc_nano.a(lib_a-memset.o)
                0x08005168                memset
 .text.strncmp  0x08005178       0x28 c:/gcc-arm-none-eabi-10-2020-q4-major/bin/../lib/gcc/arm-none-eabi/10.2.1/../../../../arm-none-eabi/lib/thumb/v7e-m/nofp\libc_nano.a(lib_a-strncmp.o)
                0x08005178                strncmp
 .text.strncpy  0x080051a0       0x26 c:/gcc-arm-none-eabi-10-2020-q4-major/bin/../lib/gcc/arm-none-eabi/10.2.1/../../../../arm-none-eabi/lib/thumb/v7e-m/nofp\libc_nano.a(lib_a-strncpy.o)
                0x080051a0                strncpy
 *(.glue_7)
 .glue_7        0x080051c6        0x0 linker stubs
 *(.glue_7t)
 .glue_7t       0x080051c6        0x0 linker stubs
 *(.eh_frame)
 *fill*         0x080051c6        0x2 
 .eh_frame      0x080051c8        0x0 c:/gcc-arm-none-eabi-10-2020-q4-major/bin/../lib/gcc/arm-none-eabi/10.2.1/thumb/v7e-m/nofp/crtbegin.o
                0x080051c8                . = ALIGN (0x4)
                0x080051c8                __fsymtab_start = .
 *(FSymTab)
 FSymTab        0x080051c8        0xc build/mem.o
                0x080051c8                __fsym_list_mem
 FSymTab        0x080051d4       0xf0 build/cmd.o
                0x080051d4                __fsym_list
                0x080051e0                __fsym___cmd_list_device
                0x080051ec                __fsym_list_device
                0x080051f8                __fsym___cmd_list_timer
                0x08005204                __fsym_list_timer
                0x08005210                __fsym___cmd_list_msgqueue
                0x0800521c                __fsym_list_msgqueue
                0x08005228                __fsym___cmd_list_mailbox
                0x08005234                __fsym_list_mailbox
                0x08005240                __fsym___cmd_list_mutex
                0x0800524c                __fsym_list_mutex
                0x08005258                __fsym___cmd_list_event
                0x08005264                __fsym_list_event
                0x08005270                __fsym___cmd_list_sem
                0x0800527c                __fsym_list_sem
                0x08005288                __fsym___cmd_list_thread
                0x08005294                __fsym_list_thread
                0x080052a0                __fsym___cmd_version
                0x080052ac                __fsym_version
                0x080052b8                __fsym_hello
 FSymTab        0x080052c4       0x24 build/msh.o
                0x080052c4                __fsym___cmd_free
                0x080052d0                __fsym___cmd_ps
                0x080052dc                __fsym___cmd_help
                0x080052e8                __fsymtab_end = .
                0x080052e8                . = ALIGN (0x4)
                0x080052e8                __vsymtab_start = .
 *(VSymTab)
                0x080052e8                __vsymtab_end = .
                0x080052e8                . = ALIGN (0x4)
                0x080052e8                __rt_init_start = .
 *(SORT_BY_NAME(.rti_fn*))
 .rti_fn.0      0x080052e8        0x8 build/components.o
                0x080052e8                __rt_init_desc_rti_start
 .rti_fn.0.end  0x080052f0        0x8 build/components.o
                0x080052f0                __rt_init_desc_rti_board_start
 .rti_fn.1      0x080052f8        0x8 build/board.o
                0x080052f8                __rt_init_desc_uart_init
 .rti_fn.1.end  0x08005300        0x8 build/components.o
                0x08005300                __rt_init_desc_rti_board_end
 .rti_fn.6      0x08005308        0x8 build/shell.o
                0x08005308                __rt_init_desc_finsh_system_init
 .rti_fn.6.end  0x08005310        0x8 build/components.o
                0x08005310                __rt_init_desc_rti_end
                0x08005318                __rt_init_end = .
 *(.init)
 .init          0x08005318        0x4 c:/gcc-arm-none-eabi-10-2020-q4-major/bin/../lib/gcc/arm-none-eabi/10.2.1/thumb/v7e-m/nofp/crti.o
                0x08005318                _init
 .init          0x0800531c        0x8 c:/gcc-arm-none-eabi-10-2020-q4-major/bin/../lib/gcc/arm-none-eabi/10.2.1/thumb/v7e-m/nofp/crtn.o
 *(.fini)
 .fini          0x08005324        0x4 c:/gcc-arm-none-eabi-10-2020-q4-major/bin/../lib/gcc/arm-none-eabi/10.2.1/thumb/v7e-m/nofp/crti.o
                0x08005324                _fini
 .fini          0x08005328        0x8 c:/gcc-arm-none-eabi-10-2020-q4-major/bin/../lib/gcc/arm-none-eabi/10.2.1/thumb/v7e-m/nofp/crtn.o
                0x08005330                . = ALIGN (0x4)
                0x08005330                _etext = .

.vfp11_veneer   0x08005330        0x0
 .vfp11_veneer  0x08005330        0x0 linker stubs

.v4_bx          0x08005330        0x0
 .v4_bx         0x08005330        0x0 linker stubs

.iplt           0x08005330        0x0
 .iplt          0x08005330        0x0 c:/gcc-arm-none-eabi-10-2020-q4-major/bin/../lib/gcc/arm-none-eabi/10.2.1/thumb/v7e-m/nofp/crtbegin.o

.rodata         0x08005330     0x1a50
                0x08005330                . = ALIGN (0x4)
 *(.rodata)
 *(.rodata*)
 .rodata.main.str1.4
                0x08005330       0x29 build/main.o
 *fill*         0x08005359        0x3 
 .rodata.AHBPrescTable
                0x0800535c       0x10 build/system_stm32f4xx.o
                0x0800535c                AHBPrescTable
 .rodata.APBPrescTable
                0x0800536c        0x8 build/system_stm32f4xx.o
                0x0800536c                APBPrescTable
 .rodata.rt_components_board_init.str1.4
                0x08005374       0x1a build/components.o
 *fill*         0x0800538e        0x2 
 .rodata.rt_components_init.str1.4
                0x08005390       0x1f build/components.o
 *fill*         0x080053af        0x1 
 .rodata.rt_application_init.str1.4
                0x080053b0       0x17 build/components.o
 *fill*         0x080053c7        0x1 
 .rodata.__FUNCTION__.0
                0x080053c8       0x14 build/components.o
 .rodata.__rti_rti_board_end_name
                0x080053dc        0xe build/components.o
                0x080053dc                __rti_rti_board_end_name
 *fill*         0x080053ea        0x2 
 .rodata.__rti_rti_board_start_name
                0x080053ec       0x10 build/components.o
                0x080053ec                __rti_rti_board_start_name
 .rodata.__rti_rti_end_name
                0x080053fc        0x8 build/components.o
                0x080053fc                __rti_rti_end_name
 .rodata.__rti_rti_start_name
                0x08005404        0xa build/components.o
                0x08005404                __rti_rti_start_name
 *fill*         0x0800540e        0x2 
 .rodata.rt_thread_idle_excute.str1.4
                0x08005410       0x2a build/idle.o
 *fill*         0x0800543a        0x2 
 .rodata.rt_thread_idle_init.str1.4
                0x0800543c        0x6 build/idle.o
 *fill*         0x08005442        0x2 
 .rodata.__FUNCTION__.0
                0x08005444       0x16 build/idle.o
 *fill*         0x0800545a        0x2 
 .rodata.rt_sem_init.str1.4
                0x0800545c       0x21 build/ipc.o
 *fill*         0x0800547d        0x3 
 .rodata.rt_sem_detach.str1.4
                0x08005480       0x77 build/ipc.o
 .rodata.rt_sem_create.str1.4
                0x080054f7       0x2a build/ipc.o
 *fill*         0x080054f7        0x1 
 .rodata.rt_sem_take.str1.4
                0x080054f8       0x37 build/ipc.o
 *fill*         0x0800552f        0x1 
 .rodata.__FUNCTION__.30
                0x08005530        0xf build/ipc.o
 *fill*         0x0800553f        0x1 
 .rodata.__FUNCTION__.31
                0x08005540        0xc build/ipc.o
 .rodata.__FUNCTION__.35
                0x0800554c        0xc build/ipc.o
 .rodata.rt_vsnprintf.str1.4
                0x08005558        0x7 build/kservice.o
 *fill*         0x0800555f        0x1 
 .rodata.rt_show_version.str1.4
                0x08005560       0x86 build/kservice.o
 *fill*         0x080055e6        0x2 
 .rodata.rt_assert_handler.str1.4
                0x080055e8       0x37 build/kservice.o
 *fill*         0x0800561f        0x1 
 .rodata.__lowest_bit_bitmap
                0x08005620      0x100 build/kservice.o
                0x08005620                __lowest_bit_bitmap
 .rodata.large_digits.2
                0x08005720       0x11 build/kservice.o
 *fill*         0x08005731        0x3 
 .rodata.small_digits.1
                0x08005734       0x11 build/kservice.o
 *fill*         0x08005745        0x3 
 .rodata.list_mem.str1.4
                0x08005748       0x46 build/mem.o
 *fill*         0x0800578e        0x2 
 .rodata.plug_holes.str1.4
                0x08005790       0x5b build/mem.o
 *fill*         0x080057eb        0x1 
 .rodata.rt_system_heap_init.str1.4
                0x080057ec       0x42 build/mem.o
                                 0x6e (size before relaxing)
 *fill*         0x0800582e        0x2 
 .rodata.rt_malloc.str1.4
                0x08005830       0xe7 build/mem.o
 *fill*         0x08005917        0x1 
 .rodata.rt_free.str1.4
                0x08005918       0xfd build/mem.o
 *fill*         0x08005a15        0x3 
 .rodata.__FUNCTION__.0
                0x08005a18        0x8 build/mem.o
 .rodata.__FUNCTION__.1
                0x08005a20        0xb build/mem.o
 *fill*         0x08005a2b        0x1 
 .rodata.__FUNCTION__.3
                0x08005a2c        0xa build/mem.o
 *fill*         0x08005a36        0x2 
 .rodata.__FUNCTION__.4
                0x08005a38       0x14 build/mem.o
 .rodata.name   0x08005a4c       0x29 build/mem.o
                0x08005a4c                __fsym_list_mem_desc
                0x08005a6c                __fsym_list_mem_name
 *fill*         0x08005a75        0x3 
 .rodata.rt_object_init.str1.4
                0x08005a78       0x26 build/object.o
 *fill*         0x08005a9e        0x2 
 .rodata.rt_object_detach.str1.4
                0x08005aa0       0x12 build/object.o
 .rodata.rt_object_allocate.str1.4
                0x08005ab2       0x2a build/object.o
 *fill*         0x08005ab2        0x2 
 .rodata.rt_object_delete.str1.4
                0x08005ab4       0x29 build/object.o
 *fill*         0x08005add        0x3 
 .rodata.__FUNCTION__.0
                0x08005ae0        0xf build/object.o
 *fill*         0x08005aef        0x1 
 .rodata.__FUNCTION__.1
                0x08005af0       0x13 build/object.o
 *fill*         0x08005b03        0x1 
 .rodata.__FUNCTION__.2
                0x08005b04       0x1a build/object.o
 *fill*         0x08005b1e        0x2 
 .rodata.__FUNCTION__.3
                0x08005b20       0x11 build/object.o
 *fill*         0x08005b31        0x3 
 .rodata.__FUNCTION__.4
                0x08005b34       0x13 build/object.o
 *fill*         0x08005b47        0x1 
 .rodata.__FUNCTION__.5
                0x08005b48       0x11 build/object.o
 *fill*         0x08005b59        0x3 
 .rodata.__FUNCTION__.6
                0x08005b5c        0xf build/object.o
 *fill*         0x08005b6b        0x1 
 .rodata._rt_scheduler_stack_check.str1.4
                0x08005b6c       0x65 build/scheduler.o
 *fill*         0x08005bd1        0x3 
 .rodata.__FUNCTION__.0
                0x08005bd4       0x1a build/scheduler.o
 *fill*         0x08005bee        0x2 
 .rodata.__FUNCTION__.1
                0x08005bf0       0x1a build/scheduler.o
 *fill*         0x08005c0a        0x2 
 .rodata.__FUNCTION__.2
                0x08005c0c       0x1a build/scheduler.o
 *fill*         0x08005c26        0x2 
 .rodata._rt_thread_init.str1.4
                0x08005c28       0x22 build/thread.o
 *fill*         0x08005c4a        0x2 
 .rodata.rt_thread_timeout.str1.4
                0x08005c4c       0x7e build/thread.o
                                 0x92 (size before relaxing)
 *fill*         0x08005cca        0x2 
 .rodata.rt_thread_init.str1.4
                0x08005ccc       0x17 build/thread.o
 *fill*         0x08005ce3        0x1 
 .rodata.rt_thread_startup.str1.4
                0x08005ce4       0x37 build/thread.o
 *fill*         0x08005d1b        0x1 
 .rodata.__FUNCTION__.0
                0x08005d1c       0x12 build/thread.o
 *fill*         0x08005d2e        0x2 
 .rodata.__FUNCTION__.1
                0x08005d30       0x11 build/thread.o
 *fill*         0x08005d41        0x3 
 .rodata.__FUNCTION__.10
                0x08005d44        0xf build/thread.o
 *fill*         0x08005d53        0x1 
 .rodata.__FUNCTION__.2
                0x08005d54       0x12 build/thread.o
 *fill*         0x08005d66        0x2 
 .rodata.__FUNCTION__.5
                0x08005d68       0x10 build/thread.o
 .rodata.__FUNCTION__.8
                0x08005d78       0x12 build/thread.o
 *fill*         0x08005d8a        0x2 
 .rodata.__FUNCTION__.9
                0x08005d8c       0x10 build/thread.o
 .rodata.rt_timer_init.str1.4
                0x08005d9c       0x11 build/timer.o
 *fill*         0x08005dad        0x3 
 .rodata.rt_timer_detach.str1.4
                0x08005db0       0x66 build/timer.o
 *fill*         0x08005e16        0x2 
 .rodata.rt_timer_start.str1.4
                0x08005e18       0x23 build/timer.o
 *fill*         0x08005e3b        0x1 
 .rodata.rt_system_timer_thread_init.str1.4
                0x08005e3c        0x6 build/timer.o
 *fill*         0x08005e42        0x2 
 .rodata.__FUNCTION__.0
                0x08005e44       0x11 build/timer.o
 *fill*         0x08005e55        0x3 
 .rodata.__FUNCTION__.1
                0x08005e58        0xe build/timer.o
 *fill*         0x08005e66        0x2 
 .rodata.__FUNCTION__.3
                0x08005e68        0xf build/timer.o
 *fill*         0x08005e77        0x1 
 .rodata.__FUNCTION__.5
                0x08005e78       0x10 build/timer.o
 .rodata.__FUNCTION__.6
                0x08005e88        0xe build/timer.o
 *fill*         0x08005e96        0x2 
 .rodata.bus_fault_track.str1.4
                0x08005e98       0x70 build/cpuport.o
                                 0x72 (size before relaxing)
 .rodata.mem_manage_fault_track.str1.4
                0x08005f08       0x6c build/cpuport.o
 .rodata.usage_fault_track.str1.4
                0x08005f74       0x67 build/cpuport.o
 *fill*         0x08005fdb        0x1 
 .rodata.hard_fault_track.str1.4
                0x08005fdc       0x25 build/cpuport.o
 *fill*         0x08006001        0x3 
 .rodata.rt_hw_hard_fault_exception.str1.4
                0x08006004      0x14a build/cpuport.o
 *fill*         0x0800614e        0x2 
 .rodata.__rti_uart_init_name
                0x08006150        0xa build/board.o
                0x08006150                __rti_uart_init_name
 *fill*         0x0800615a        0x2 
 .rodata.hello.str1.4
                0x0800615c       0x12 build/cmd.o
 *fill*         0x0800616e        0x2 
 .rodata.show_wait_queue.str1.4
                0x08006170        0x6 build/cmd.o
 *fill*         0x08006176        0x2 
 .rodata.list_thread.str1.4
                0x08006178      0x100 build/cmd.o
 .rodata.list_sem.str1.4
                0x08006278       0x60 build/cmd.o
                                 0x64 (size before relaxing)
 .rodata.list_event.str1.4
                0x080062d8       0x76 build/cmd.o
 *fill*         0x0800634e        0x2 
 .rodata.list_mutex.str1.4
                0x08006350       0x63 build/cmd.o
 *fill*         0x080063b3        0x1 
 .rodata.list_mailbox.str1.4
                0x080063b4       0x76 build/cmd.o
 *fill*         0x0800642a        0x2 
 .rodata.list_msgqueue.str1.4
                0x0800642c       0x65 build/cmd.o
 *fill*         0x08006491        0x3 
 .rodata.list_device.str1.4
                0x08006494       0x6f build/cmd.o
 *fill*         0x08006503        0x1 
 .rodata.list_timer.str1.4
                0x08006504       0x95 build/cmd.o
                                 0x9d (size before relaxing)
 *fill*         0x08006599        0x3 
 .rodata.list.str1.4
                0x0800659c       0x25 build/cmd.o
 *fill*         0x080065c1        0x3 
 .rodata.str1.4
                0x080065c4      0x131 build/cmd.o
 *fill*         0x080066f5        0x3 
 .rodata.device_type_str
                0x080066f8       0x58 build/cmd.o
 .rodata.name   0x08006750      0x31e build/cmd.o
                0x08006750                __fsym_list_desc
                0x0800676c                __fsym_list_name
                0x08006774                __fsym___cmd_list_device_desc
                0x0800678c                __fsym___cmd_list_device_name
                0x080067a0                __fsym_list_device_desc
                0x080067b8                __fsym_list_device_name
                0x080067c4                __fsym___cmd_list_timer_desc
                0x080067dc                __fsym___cmd_list_timer_name
                0x080067f0                __fsym_list_timer_desc
                0x08006808                __fsym_list_timer_name
                0x08006814                __fsym___cmd_list_msgqueue_desc
                0x08006834                __fsym___cmd_list_msgqueue_name
                0x08006848                __fsym_list_msgqueue_desc
                0x08006868                __fsym_list_msgqueue_name
                0x08006878                __fsym___cmd_list_mailbox_desc
                0x08006890                __fsym___cmd_list_mailbox_name
                0x080068a4                __fsym_list_mailbox_desc
                0x080068bc                __fsym_list_mailbox_name
                0x080068cc                __fsym___cmd_list_mutex_desc
                0x080068e4                __fsym___cmd_list_mutex_name
                0x080068f8                __fsym_list_mutex_desc
                0x08006910                __fsym_list_mutex_name
                0x0800691c                __fsym___cmd_list_event_desc
                0x08006934                __fsym___cmd_list_event_name
                0x08006948                __fsym_list_event_desc
                0x08006960                __fsym_list_event_name
                0x0800696c                __fsym___cmd_list_sem_desc
                0x08006988                __fsym___cmd_list_sem_name
                0x08006998                __fsym_list_sem_desc
                0x080069b4                __fsym_list_sem_name
                0x080069c0                __fsym___cmd_list_thread_desc
                0x080069cc                __fsym___cmd_list_thread_name
                0x080069e0                __fsym_list_thread_desc
                0x080069ec                __fsym_list_thread_name
                0x080069f8                __fsym___cmd_version_desc
                0x08006a1c                __fsym___cmd_version_name
                0x08006a2c                __fsym_version_desc
                0x08006a50                __fsym_version_name
                0x08006a58                __fsym_hello_desc
                0x08006a68                __fsym_hello_name
 *fill*         0x08006a6e        0x2 
 .rodata.msh_split.str1.4
                0x08006a70       0x24 build/msh.o
                                 0x26 (size before relaxing)
 .rodata.msh_help.str1.4
                0x08006a94       0x30 build/msh.o
 .rodata._msh_exec_cmd.str1.4
                0x08006ac4        0x9 build/msh.o
 *fill*         0x08006acd        0x3 
 .rodata.msh_exec.str1.4
                0x08006ad0       0x18 build/msh.o
 .rodata.msh_auto_complete.str1.4
                0x08006ae8       0x18 build/msh.o
                                  0x4 (size before relaxing)
 .rodata.__FUNCTION__.0
                0x08006ae8        0xe build/msh.o
 *fill*         0x08006af6        0x2 
 .rodata.name   0x08006af8       0x7f build/msh.o
                0x08006af8                __fsym___cmd_free_desc
                0x08006b20                __fsym___cmd_free_name
                0x08006b2c                __fsym___cmd_ps_desc
                0x08006b48                __fsym___cmd_ps_name
                0x08006b54                __fsym___cmd_help_desc
                0x08006b6c                __fsym___cmd_help_name
 *fill*         0x08006b77        0x1 
 .rodata.finsh_rx_ind.str1.4
                0x08006b78       0x11 build/shell.o
 *fill*         0x08006b89        0x3 
 .rodata.finsh_get_prompt.str1.4
                0x08006b8c       0x12 build/shell.o
 *fill*         0x08006b9e        0x2 
 .rodata.shell_auto_complete.str1.4
                0x08006ba0        0x5 build/shell.o
                                  0x9 (size before relaxing)
 *fill*         0x08006ba5        0x3 
 .rodata.finsh_set_device.str1.4
                0x08006ba8       0x20 build/shell.o
 .rodata.finsh_thread_entry.str1.4
                0x08006bc8       0x14 build/shell.o
                                 0x17 (size before relaxing)
 .rodata.finsh_system_init.str1.4
                0x08006bdc       0x25 build/shell.o
 *fill*         0x08006c01        0x3 
 .rodata.__FUNCTION__.0
                0x08006c04        0xe build/shell.o
 *fill*         0x08006c12        0x2 
 .rodata.__FUNCTION__.4
                0x08006c14        0xd build/shell.o
 *fill*         0x08006c21        0x3 
 .rodata.__FUNCTION__.5
                0x08006c24       0x11 build/shell.o
 *fill*         0x08006c35        0x3 
 .rodata.__FUNCTION__.6
                0x08006c38       0x16 build/shell.o
 *fill*         0x08006c4e        0x2 
 .rodata.__rti_finsh_system_init_name
                0x08006c50       0x12 build/shell.o
                0x08006c50                __rti_finsh_system_init_name
 *fill*         0x08006c62        0x2 
 .rodata.rt_device_unregister.str1.4
                0x08006c64       0x74 build/device.o
 .rodata.rt_device_init.str1.4
                0x08006cd8       0x36 build/device.o
 *fill*         0x08006d0e        0x2 
 .rodata.rt_device_open.str1.4
                0x08006d10       0x14 build/device.o
 .rodata.__FUNCTION__.1
                0x08006d24       0x1a build/device.o
 *fill*         0x08006d3e        0x2 
 .rodata.__FUNCTION__.3
                0x08006d40       0x10 build/device.o
 .rodata.__FUNCTION__.4
                0x08006d50        0xf build/device.o
 *fill*         0x08006d5f        0x1 
 .rodata.__FUNCTION__.5
                0x08006d60       0x10 build/device.o
 .rodata.__FUNCTION__.6
                0x08006d70        0xf build/device.o
                0x08006d80                . = ALIGN (0x4)
 *fill*         0x08006d7f        0x1 

.ARM.extab
 *(.ARM.extab* .gnu.linkonce.armextab.*)

.ARM            0x08006d80        0x8
                0x08006d80                __exidx_start = .
 *(.ARM.exidx*)
 .ARM.exidx     0x08006d80        0x8 c:/gcc-arm-none-eabi-10-2020-q4-major/bin/../lib/gcc/arm-none-eabi/10.2.1/thumb/v7e-m/nofp\libgcc.a(_udivmoddi4.o)
                0x08006d88                __exidx_end = .

.rel.dyn        0x08006d88        0x0
 .rel.iplt      0x08006d88        0x0 c:/gcc-arm-none-eabi-10-2020-q4-major/bin/../lib/gcc/arm-none-eabi/10.2.1/thumb/v7e-m/nofp/crtbegin.o

.preinit_array  0x08006d88        0x0
                0x08006d88                PROVIDE (__preinit_array_start = .)
 *(.preinit_array*)
                0x08006d88                PROVIDE (__preinit_array_end = .)

.init_array     0x08006d88        0x4
                0x08006d88                PROVIDE (__init_array_start = .)
 *(SORT_BY_NAME(.init_array.*))
 *(.init_array*)
 .init_array    0x08006d88        0x4 c:/gcc-arm-none-eabi-10-2020-q4-major/bin/../lib/gcc/arm-none-eabi/10.2.1/thumb/v7e-m/nofp/crtbegin.o
                0x08006d8c                PROVIDE (__init_array_end = .)

.fini_array     0x08006d8c        0x4
                [!provide]                PROVIDE (__fini_array_start = .)
 *(SORT_BY_NAME(.fini_array.*))
 *(.fini_array*)
 .fini_array    0x08006d8c        0x4 c:/gcc-arm-none-eabi-10-2020-q4-major/bin/../lib/gcc/arm-none-eabi/10.2.1/thumb/v7e-m/nofp/crtbegin.o
                [!provide]                PROVIDE (__fini_array_end = .)
                0x08006d90                _sidata = LOADADDR (.data)

.data           0x20000000       0x90 load address 0x08006d90
                0x20000000                . = ALIGN (0x4)
                0x20000000                _sdata = .
 *(.data)
 *(.data*)
 .data.uwTickFreq
                0x20000000        0x1 build/stm32f4xx_hal.o
                0x20000000                uwTickFreq
 *fill*         0x20000001        0x3 
 .data.uwTickPrio
                0x20000004        0x4 build/stm32f4xx_hal.o
                0x20000004                uwTickPrio
 .data.SystemCoreClock
                0x20000008        0x4 build/system_stm32f4xx.o
                0x20000008                SystemCoreClock
 .data.rt_object_container
                0x2000000c       0x80 build/object.o
 .data.soft_timer_status
                0x2000008c        0x1 build/timer.o
                0x20000090                . = ALIGN (0x4)
 *fill*         0x2000008d        0x3 
                0x20000090                _edata = .
                0x08006e20                _siccmram = LOADADDR (.ccmram)

.igot.plt       0x20000090        0x0 load address 0x08006e20
 .igot.plt      0x20000090        0x0 c:/gcc-arm-none-eabi-10-2020-q4-major/bin/../lib/gcc/arm-none-eabi/10.2.1/thumb/v7e-m/nofp/crtbegin.o

.ccmram         0x10000000        0x0 load address 0x08006e20
                0x10000000                . = ALIGN (0x4)
                0x10000000                _sccmram = .
 *(.ccmram)
 *(.ccmram*)
                0x10000000                . = ALIGN (0x4)
                0x10000000                _eccmram = .
                0x10000000                . = ALIGN (0x4)

.bss            0x20000090     0x4698
                0x20000090                _sbss = .
                0x20000090                __bss_start__ = _sbss
 *(.bss)
 .bss           0x20000090       0x1c c:/gcc-arm-none-eabi-10-2020-q4-major/bin/../lib/gcc/arm-none-eabi/10.2.1/thumb/v7e-m/nofp/crtbegin.o
 *(.bss*)
 .bss.huart1    0x200000ac       0x44 build/usart.o
                0x200000ac                huart1
 .bss.uwTick    0x200000f0        0x4 build/stm32f4xx_hal.o
                0x200000f0                uwTick
 .bss.rt_tick   0x200000f4        0x4 build/clock.o
 .bss.idle      0x200000f8       0x80 build/idle.o
 .bss.idle_hook_list
                0x20000178       0x10 build/idle.o
 .bss.rt_thread_stack
                0x20000188      0x100 build/idle.o
 .bss.rt_interrupt_enter_hook
                0x20000288        0x4 build/irq.o
 .bss.rt_interrupt_leave_hook
                0x2000028c        0x4 build/irq.o
 .bss.rt_interrupt_nest
                0x20000290        0x1 build/irq.o
                0x20000290                rt_interrupt_nest
 *fill*         0x20000291        0x3 
 .bss.__rt_errno
                0x20000294        0x4 build/kservice.o
 .bss._console_device
                0x20000298        0x4 build/kservice.o
 .bss.rt_assert_hook
                0x2000029c        0x4 build/kservice.o
                0x2000029c                rt_assert_hook
 .bss.rt_log_buf.0
                0x200002a0      0x200 build/kservice.o
 .bss.heap_end  0x200004a0        0x4 build/mem.o
 .bss.heap_ptr  0x200004a4        0x4 build/mem.o
 .bss.heap_sem  0x200004a8       0x20 build/mem.o
 .bss.lfree     0x200004c8        0x4 build/mem.o
 .bss.max_mem   0x200004cc        0x4 build/mem.o
 .bss.mem_size_aligned
                0x200004d0        0x4 build/mem.o
 .bss.rt_free_hook
                0x200004d4        0x4 build/mem.o
 .bss.rt_malloc_hook
                0x200004d8        0x4 build/mem.o
 .bss.used_mem  0x200004dc        0x4 build/mem.o
 .bss.rt_object_attach_hook
                0x200004e0        0x4 build/object.o
 .bss.rt_object_detach_hook
                0x200004e4        0x4 build/object.o
 .bss.rt_object_put_hook
                0x200004e8        0x4 build/object.o
                0x200004e8                rt_object_put_hook
 .bss.rt_object_take_hook
                0x200004ec        0x4 build/object.o
                0x200004ec                rt_object_take_hook
 .bss.rt_object_trytake_hook
                0x200004f0        0x4 build/object.o
                0x200004f0                rt_object_trytake_hook
 .bss.rt_current_priority
                0x200004f4        0x1 build/scheduler.o
                0x200004f4                rt_current_priority
 *fill*         0x200004f5        0x3 
 .bss.rt_current_thread
                0x200004f8        0x4 build/scheduler.o
                0x200004f8                rt_current_thread
 .bss.rt_scheduler_hook
                0x200004fc        0x4 build/scheduler.o
 .bss.rt_scheduler_lock_nest
                0x20000500        0x2 build/scheduler.o
 *fill*         0x20000502        0x2 
 .bss.rt_thread_defunct
                0x20000504        0x8 build/scheduler.o
                0x20000504                rt_thread_defunct
 .bss.rt_thread_priority_table
                0x2000050c      0x100 build/scheduler.o
                0x2000050c                rt_thread_priority_table
 .bss.rt_thread_ready_priority_group
                0x2000060c        0x4 build/scheduler.o
                0x2000060c                rt_thread_ready_priority_group
 .bss.rt_thread_inited_hook
                0x20000610        0x4 build/thread.o
 .bss.rt_thread_resume_hook
                0x20000614        0x4 build/thread.o
 .bss.rt_thread_suspend_hook
                0x20000618        0x4 build/thread.o
 .bss.random_nr.2
                0x2000061c        0x4 build/timer.o
 .bss.rt_soft_timer_list
                0x20000620        0x8 build/timer.o
 .bss.rt_timer_enter_hook
                0x20000628        0x4 build/timer.o
 .bss.rt_timer_exit_hook
                0x2000062c        0x4 build/timer.o
 .bss.rt_timer_list
                0x20000630        0x8 build/timer.o
 .bss.timer_thread
                0x20000638       0x80 build/timer.o
 .bss.timer_thread_stack
                0x200006b8      0x200 build/timer.o
 .bss.rt_exception_hook
                0x200008b8        0x4 build/cpuport.o
 .bss.rt_interrupt_from_thread
                0x200008bc        0x4 build/cpuport.o
                0x200008bc                rt_interrupt_from_thread
 .bss.rt_interrupt_to_thread
                0x200008c0        0x4 build/cpuport.o
                0x200008c0                rt_interrupt_to_thread
 .bss.rt_thread_switch_interrupt_flag
                0x200008c4        0x4 build/cpuport.o
                0x200008c4                rt_thread_switch_interrupt_flag
 .bss.UartHandle
                0x200008c8       0x44 build/board.o
 .bss.rt_heap   0x2000090c     0x3c00 build/board.o
 .bss._syscall_table_begin
                0x2000450c        0x4 build/shell.o
                0x2000450c                _syscall_table_begin
 .bss._syscall_table_end
                0x20004510        0x4 build/shell.o
                0x20004510                _syscall_table_end
 .bss._sysvar_table_begin
                0x20004514        0x4 build/shell.o
                0x20004514                _sysvar_table_begin
 .bss._sysvar_table_end
                0x20004518        0x4 build/shell.o
                0x20004518                _sysvar_table_end
 .bss.finsh_prompt.8
                0x2000451c      0x201 build/shell.o
 *fill*         0x2000471d        0x3 
 .bss.finsh_prompt_custom
                0x20004720        0x4 build/shell.o
 .bss.shell     0x20004724        0x4 build/shell.o
                0x20004724                shell
 *(COMMON)
                0x20004728                . = ALIGN (0x4)
                0x20004728                _ebss = .
                0x20004728                __bss_end__ = _ebss

._user_heap_stack
                0x20004728      0x600
                0x20004728                . = ALIGN (0x8)
                [!provide]                PROVIDE (end = .)
                [!provide]                PROVIDE (_end = .)
                0x20004928                . = (. + _Min_Heap_Size)
 *fill*         0x20004728      0x200 
                0x20004d28                . = (. + _Min_Stack_Size)
 *fill*         0x20004928      0x400 
                0x20004d28                . = ALIGN (0x8)

/DISCARD/
 libc.a(*)
 libm.a(*)
 libgcc.a(*)

.ARM.attributes
                0x00000000       0x2e
 *(.ARM.attributes)
 .ARM.attributes
                0x00000000       0x1e c:/gcc-arm-none-eabi-10-2020-q4-major/bin/../lib/gcc/arm-none-eabi/10.2.1/thumb/v7e-m/nofp/crti.o
 .ARM.attributes
                0x0000001e       0x2e c:/gcc-arm-none-eabi-10-2020-q4-major/bin/../lib/gcc/arm-none-eabi/10.2.1/thumb/v7e-m/nofp/crtbegin.o
 .ARM.attributes
                0x0000004c       0x2e build/main.o
 .ARM.attributes
                0x0000007a       0x2e build/gpio.o
 .ARM.attributes
                0x000000a8       0x2e build/usart.o
 .ARM.attributes
                0x000000d6       0x2e build/stm32f4xx_it.o
 .ARM.attributes
                0x00000104       0x2e build/stm32f4xx_hal_msp.o
 .ARM.attributes
                0x00000132       0x2e build/stm32f4xx_hal_rcc.o
 .ARM.attributes
                0x00000160       0x2e build/stm32f4xx_hal_gpio.o
 .ARM.attributes
                0x0000018e       0x2e build/stm32f4xx_hal_cortex.o
 .ARM.attributes
                0x000001bc       0x2e build/stm32f4xx_hal.o
 .ARM.attributes
                0x000001ea       0x2e build/stm32f4xx_hal_uart.o
 .ARM.attributes
                0x00000218       0x2e build/system_stm32f4xx.o
 .ARM.attributes
                0x00000246       0x2e build/clock.o
 .ARM.attributes
                0x00000274       0x2e build/components.o
 .ARM.attributes
                0x000002a2       0x2e build/idle.o
 .ARM.attributes
                0x000002d0       0x2e build/ipc.o
 .ARM.attributes
                0x000002fe       0x2e build/irq.o
 .ARM.attributes
                0x0000032c       0x2e build/kservice.o
 .ARM.attributes
                0x0000035a       0x2e build/mem.o
 .ARM.attributes
                0x00000388       0x2e build/object.o
 .ARM.attributes
                0x000003b6       0x2e build/scheduler.o
 .ARM.attributes
                0x000003e4       0x2e build/thread.o
 .ARM.attributes
                0x00000412       0x2e build/timer.o
 .ARM.attributes
                0x00000440       0x2e build/cpuport.o
 .ARM.attributes
                0x0000046e       0x2e build/board.o
 .ARM.attributes
                0x0000049c       0x2e build/cmd.o
 .ARM.attributes
                0x000004ca       0x2e build/msh.o
 .ARM.attributes
                0x000004f8       0x2e build/shell.o
 .ARM.attributes
                0x00000526       0x2e build/device.o
 .ARM.attributes
                0x00000554       0x21 build/startup_stm32f407xx.o
 .ARM.attributes
                0x00000575       0x25 build/context_gcc.o
 .ARM.attributes
                0x0000059a       0x2e c:/gcc-arm-none-eabi-10-2020-q4-major/bin/../lib/gcc/arm-none-eabi/10.2.1/../../../../arm-none-eabi/lib/thumb/v7e-m/nofp\libc_nano.a(lib_a-init.o)
 .ARM.attributes
                0x000005c8       0x2e c:/gcc-arm-none-eabi-10-2020-q4-major/bin/../lib/gcc/arm-none-eabi/10.2.1/../../../../arm-none-eabi/lib/thumb/v7e-m/nofp\libc_nano.a(lib_a-memcpy-stub.o)
 .ARM.attributes
                0x000005f6       0x2e c:/gcc-arm-none-eabi-10-2020-q4-major/bin/../lib/gcc/arm-none-eabi/10.2.1/../../../../arm-none-eabi/lib/thumb/v7e-m/nofp\libc_nano.a(lib_a-memset.o)
 .ARM.attributes
                0x00000624       0x17 c:/gcc-arm-none-eabi-10-2020-q4-major/bin/../lib/gcc/arm-none-eabi/10.2.1/../../../../arm-none-eabi/lib/thumb/v7e-m/nofp\libc_nano.a(lib_a-strlen.o)
 .ARM.attributes
                0x0000063b       0x2e c:/gcc-arm-none-eabi-10-2020-q4-major/bin/../lib/gcc/arm-none-eabi/10.2.1/../../../../arm-none-eabi/lib/thumb/v7e-m/nofp\libc_nano.a(lib_a-strncmp.o)
 .ARM.attributes
                0x00000669       0x2e c:/gcc-arm-none-eabi-10-2020-q4-major/bin/../lib/gcc/arm-none-eabi/10.2.1/../../../../arm-none-eabi/lib/thumb/v7e-m/nofp\libc_nano.a(lib_a-strncpy.o)
 .ARM.attributes
                0x00000697       0x1e c:/gcc-arm-none-eabi-10-2020-q4-major/bin/../lib/gcc/arm-none-eabi/10.2.1/thumb/v7e-m/nofp\libgcc.a(_aeabi_uldivmod.o)
 .ARM.attributes
                0x000006b5       0x2e c:/gcc-arm-none-eabi-10-2020-q4-major/bin/../lib/gcc/arm-none-eabi/10.2.1/thumb/v7e-m/nofp\libgcc.a(_udivmoddi4.o)
 .ARM.attributes
                0x000006e3       0x1e c:/gcc-arm-none-eabi-10-2020-q4-major/bin/../lib/gcc/arm-none-eabi/10.2.1/thumb/v7e-m/nofp\libgcc.a(_dvmd_tls.o)
 .ARM.attributes
                0x00000701       0x1e c:/gcc-arm-none-eabi-10-2020-q4-major/bin/../lib/gcc/arm-none-eabi/10.2.1/thumb/v7e-m/nofp/crtn.o
OUTPUT(build/STM32F407IGT6-DMF407.elf elf32-littlearm)
LOAD linker stubs
LOAD c:/gcc-arm-none-eabi-10-2020-q4-major/bin/../lib/gcc/arm-none-eabi/10.2.1/../../../../arm-none-eabi/lib/thumb/v7e-m/nofp\libc.a
LOAD c:/gcc-arm-none-eabi-10-2020-q4-major/bin/../lib/gcc/arm-none-eabi/10.2.1/../../../../arm-none-eabi/lib/thumb/v7e-m/nofp\libm.a
LOAD c:/gcc-arm-none-eabi-10-2020-q4-major/bin/../lib/gcc/arm-none-eabi/10.2.1/thumb/v7e-m/nofp\libgcc.a

.debug_info     0x00000000    0x1e7a5
 .debug_info    0x00000000      0x785 build/main.o
 .debug_info    0x00000785      0x68f build/gpio.o
 .debug_info    0x00000e14      0xabf build/usart.o
 .debug_info    0x000018d3       0xe5 build/stm32f4xx_it.o
 .debug_info    0x000019b8      0x2eb build/stm32f4xx_hal_msp.o
 .debug_info    0x00001ca3      0xbe6 build/stm32f4xx_hal_rcc.o
 .debug_info    0x00002889      0x848 build/stm32f4xx_hal_gpio.o
 .debug_info    0x000030d1     0x1174 build/stm32f4xx_hal_cortex.o
 .debug_info    0x00004245      0xacf build/stm32f4xx_hal.o
 .debug_info    0x00004d14     0x43e7 build/stm32f4xx_hal_uart.o
 .debug_info    0x000090fb      0x3cd build/system_stm32f4xx.o
 .debug_info    0x000094c8      0x4f4 build/clock.o
 .debug_info    0x000099bc      0x89d build/components.o
 .debug_info    0x0000a259      0x847 build/idle.o
 .debug_info    0x0000aaa0     0x5bed build/ipc.o
 .debug_info    0x0001068d      0x22d build/irq.o
 .debug_info    0x000108ba     0x196d build/kservice.o
 .debug_info    0x00012227      0xed8 build/mem.o
 .debug_info    0x000130ff      0xe71 build/object.o
 .debug_info    0x00013f70      0xaa0 build/scheduler.o
 .debug_info    0x00014a10     0x1aa7 build/thread.o
 .debug_info    0x000164b7     0x17c4 build/timer.o
 .debug_info    0x00017c7b      0x964 build/cpuport.o
 .debug_info    0x000185df      0xa1f build/board.o
 .debug_info    0x00018ffe     0x2817 build/cmd.o
 .debug_info    0x0001b815      0xa45 build/msh.o
 .debug_info    0x0001c25a     0x14b4 build/shell.o
 .debug_info    0x0001d70e     0x104f build/device.o
 .debug_info    0x0001e75d       0x22 build/startup_stm32f407xx.o
 .debug_info    0x0001e77f       0x26 build/context_gcc.o

.debug_abbrev   0x00000000     0x45e5
 .debug_abbrev  0x00000000      0x1e3 build/main.o
 .debug_abbrev  0x000001e3      0x151 build/gpio.o
 .debug_abbrev  0x00000334      0x1de build/usart.o
 .debug_abbrev  0x00000512       0x46 build/stm32f4xx_it.o
 .debug_abbrev  0x00000558       0xd3 build/stm32f4xx_hal_msp.o
 .debug_abbrev  0x0000062b      0x2aa build/stm32f4xx_hal_rcc.o
 .debug_abbrev  0x000008d5      0x22b build/stm32f4xx_hal_gpio.o
 .debug_abbrev  0x00000b00      0x382 build/stm32f4xx_hal_cortex.o
 .debug_abbrev  0x00000e82      0x209 build/stm32f4xx_hal.o
 .debug_abbrev  0x0000108b      0x356 build/stm32f4xx_hal_uart.o
 .debug_abbrev  0x000013e1      0x11b build/system_stm32f4xx.o
 .debug_abbrev  0x000014fc      0x18b build/clock.o
 .debug_abbrev  0x00001687      0x22a build/components.o
 .debug_abbrev  0x000018b1      0x28f build/idle.o
 .debug_abbrev  0x00001b40      0x32f build/ipc.o
 .debug_abbrev  0x00001e6f      0x13b build/irq.o
 .debug_abbrev  0x00001faa      0x452 build/kservice.o
 .debug_abbrev  0x000023fc      0x2c2 build/mem.o
 .debug_abbrev  0x000026be      0x2db build/object.o
 .debug_abbrev  0x00002999      0x307 build/scheduler.o
 .debug_abbrev  0x00002ca0      0x323 build/thread.o
 .debug_abbrev  0x00002fc3      0x462 build/timer.o
 .debug_abbrev  0x00003425      0x295 build/cpuport.o
 .debug_abbrev  0x000036ba      0x281 build/board.o
 .debug_abbrev  0x0000393b      0x3a8 build/cmd.o
 .debug_abbrev  0x00003ce3      0x2db build/msh.o
 .debug_abbrev  0x00003fbe      0x3d9 build/shell.o
 .debug_abbrev  0x00004397      0x228 build/device.o
 .debug_abbrev  0x000045bf       0x12 build/startup_stm32f407xx.o
 .debug_abbrev  0x000045d1       0x14 build/context_gcc.o

.debug_loc      0x00000000    0x12ef2
 .debug_loc     0x00000000       0x66 build/main.o
 .debug_loc     0x00000066       0x39 build/gpio.o
 .debug_loc     0x0000009f      0x108 build/usart.o
 .debug_loc     0x000001a7       0x2c build/stm32f4xx_hal_msp.o
 .debug_loc     0x000001d3      0x6e4 build/stm32f4xx_hal_rcc.o
 .debug_loc     0x000008b7      0x5e8 build/stm32f4xx_hal_gpio.o
 .debug_loc     0x00000e9f      0x7a4 build/stm32f4xx_hal_cortex.o
 .debug_loc     0x00001643      0x1e1 build/stm32f4xx_hal.o
 .debug_loc     0x00001824     0x4fef build/stm32f4xx_hal_uart.o
 .debug_loc     0x00006813      0x158 build/system_stm32f4xx.o
 .debug_loc     0x0000696b      0x11c build/clock.o
 .debug_loc     0x00006a87      0x1d7 build/components.o
 .debug_loc     0x00006c5e      0x344 build/idle.o
 .debug_loc     0x00006fa2     0x415a build/ipc.o
 .debug_loc     0x0000b0fc       0xdb build/irq.o
 .debug_loc     0x0000b1d7     0x1f25 build/kservice.o
 .debug_loc     0x0000d0fc      0x6b0 build/mem.o
 .debug_loc     0x0000d7ac      0x910 build/object.o
 .debug_loc     0x0000e0bc      0x34d build/scheduler.o
 .debug_loc     0x0000e409      0xd72 build/thread.o
 .debug_loc     0x0000f17b      0xed1 build/timer.o
 .debug_loc     0x0001004c      0x2ab build/cpuport.o
 .debug_loc     0x000102f7      0x170 build/board.o
 .debug_loc     0x00010467     0x136d build/cmd.o
 .debug_loc     0x000117d4      0x7ce build/msh.o
 .debug_loc     0x00011fa2      0x5ba build/shell.o
 .debug_loc     0x0001255c      0x996 build/device.o

.debug_aranges  0x00000000      0xee0
 .debug_aranges
                0x00000000       0x30 build/main.o
 .debug_aranges
                0x00000030       0x20 build/gpio.o
 .debug_aranges
                0x00000050       0x30 build/usart.o
 .debug_aranges
                0x00000080       0x40 build/stm32f4xx_it.o
 .debug_aranges
                0x000000c0       0x20 build/stm32f4xx_hal_msp.o
 .debug_aranges
                0x000000e0       0x88 build/stm32f4xx_hal_rcc.o
 .debug_aranges
                0x00000168       0x58 build/stm32f4xx_hal_gpio.o
 .debug_aranges
                0x000001c0       0xa8 build/stm32f4xx_hal_cortex.o
 .debug_aranges
                0x00000268       0xf0 build/stm32f4xx_hal.o
 .debug_aranges
                0x00000358      0x200 build/stm32f4xx_hal_uart.o
 .debug_aranges
                0x00000558       0x28 build/system_stm32f4xx.o
 .debug_aranges
                0x00000580       0x40 build/clock.o
 .debug_aranges
                0x000005c0       0x68 build/components.o
 .debug_aranges
                0x00000628       0x48 build/idle.o
 .debug_aranges
                0x00000670      0x150 build/ipc.o
 .debug_aranges
                0x000007c0       0x40 build/irq.o
 .debug_aranges
                0x00000800      0x110 build/kservice.o
 .debug_aranges
                0x00000910       0x68 build/mem.o
 .debug_aranges
                0x00000978       0x98 build/object.o
 .debug_aranges
                0x00000a10       0x68 build/scheduler.o
 .debug_aranges
                0x00000a78       0xc8 build/thread.o
 .debug_aranges
                0x00000b40       0xa0 build/timer.o
 .debug_aranges
                0x00000be0       0x60 build/cpuport.o
 .debug_aranges
                0x00000c40       0x50 build/board.o
 .debug_aranges
                0x00000c90       0x88 build/cmd.o
 .debug_aranges
                0x00000d18       0x68 build/msh.o
 .debug_aranges
                0x00000d80       0x90 build/shell.o
 .debug_aranges
                0x00000e10       0x88 build/device.o
 .debug_aranges
                0x00000e98       0x28 build/startup_stm32f407xx.o
 .debug_aranges
                0x00000ec0       0x20 build/context_gcc.o

.debug_ranges   0x00000000     0x1580
 .debug_ranges  0x00000000       0x20 build/main.o
 .debug_ranges  0x00000020       0x10 build/gpio.o
 .debug_ranges  0x00000030       0x20 build/usart.o
 .debug_ranges  0x00000050       0x30 build/stm32f4xx_it.o
 .debug_ranges  0x00000080       0x10 build/stm32f4xx_hal_msp.o
 .debug_ranges  0x00000090       0x90 build/stm32f4xx_hal_rcc.o
 .debug_ranges  0x00000120       0x48 build/stm32f4xx_hal_gpio.o
 .debug_ranges  0x00000168       0xf8 build/stm32f4xx_hal_cortex.o
 .debug_ranges  0x00000260       0xe0 build/stm32f4xx_hal.o
 .debug_ranges  0x00000340      0x208 build/stm32f4xx_hal_uart.o
 .debug_ranges  0x00000548       0x18 build/system_stm32f4xx.o
 .debug_ranges  0x00000560       0x30 build/clock.o
 .debug_ranges  0x00000590       0x58 build/components.o
 .debug_ranges  0x000005e8       0x68 build/idle.o
 .debug_ranges  0x00000650      0x5c0 build/ipc.o
 .debug_ranges  0x00000c10       0x30 build/irq.o
 .debug_ranges  0x00000c40      0x148 build/kservice.o
 .debug_ranges  0x00000d88       0xb8 build/mem.o
 .debug_ranges  0x00000e40       0xd0 build/object.o
 .debug_ranges  0x00000f10       0x70 build/scheduler.o
 .debug_ranges  0x00000f80       0xb8 build/thread.o
 .debug_ranges  0x00001038      0x120 build/timer.o
 .debug_ranges  0x00001158       0x50 build/cpuport.o
 .debug_ranges  0x000011a8       0x40 build/board.o
 .debug_ranges  0x000011e8      0x210 build/cmd.o
 .debug_ranges  0x000013f8       0x70 build/msh.o
 .debug_ranges  0x00001468       0x80 build/shell.o
 .debug_ranges  0x000014e8       0x78 build/device.o
 .debug_ranges  0x00001560       0x20 build/startup_stm32f407xx.o

.debug_line     0x00000000    0x12370
 .debug_line    0x00000000      0x362 build/main.o
 .debug_line    0x00000362      0x2ba build/gpio.o
 .debug_line    0x0000061c      0x2ab build/usart.o
 .debug_line    0x000008c7       0xdf build/stm32f4xx_it.o
 .debug_line    0x000009a6      0x140 build/stm32f4xx_hal_msp.o
 .debug_line    0x00000ae6      0xaf6 build/stm32f4xx_hal_rcc.o
 .debug_line    0x000015dc      0x6c7 build/stm32f4xx_hal_gpio.o
 .debug_line    0x00001ca3      0x75e build/stm32f4xx_hal_cortex.o
 .debug_line    0x00002401      0x54b build/stm32f4xx_hal.o
 .debug_line    0x0000294c     0x45d4 build/stm32f4xx_hal_uart.o
 .debug_line    0x00006f20      0x209 build/system_stm32f4xx.o
 .debug_line    0x00007129      0x18e build/clock.o
 .debug_line    0x000072b7      0x28c build/components.o
 .debug_line    0x00007543      0x319 build/idle.o
 .debug_line    0x0000785c     0x3953 build/ipc.o
 .debug_line    0x0000b1af      0x185 build/irq.o
 .debug_line    0x0000b334     0x10e9 build/kservice.o
 .debug_line    0x0000c41d      0x91a build/mem.o
 .debug_line    0x0000cd37      0x844 build/object.o
 .debug_line    0x0000d57b      0x5e4 build/scheduler.o
 .debug_line    0x0000db5f      0xc18 build/thread.o
 .debug_line    0x0000e777      0xddf build/timer.o
 .debug_line    0x0000f556      0x3f0 build/cpuport.o
 .debug_line    0x0000f946      0x3f6 build/board.o
 .debug_line    0x0000fd3c      0xdbc build/cmd.o
 .debug_line    0x00010af8      0x68d build/msh.o
 .debug_line    0x00011185      0x9a8 build/shell.o
 .debug_line    0x00011b2d      0x6e7 build/device.o
 .debug_line    0x00012214       0x76 build/startup_stm32f407xx.o
 .debug_line    0x0001228a       0xe6 build/context_gcc.o

.debug_str      0x00000000     0x4c0a
 .debug_str     0x00000000      0x491 build/main.o
                                0x4f5 (size before relaxing)
 .debug_str     0x00000491       0x82 build/gpio.o
                                0x357 (size before relaxing)
 .debug_str     0x00000513      0x448 build/usart.o
                                0x7e7 (size before relaxing)
 .debug_str     0x0000095b       0x6b build/stm32f4xx_it.o
                                0x1d1 (size before relaxing)
 .debug_str     0x000009c6       0x29 build/stm32f4xx_hal_msp.o
                                0x2a6 (size before relaxing)
 .debug_str     0x000009ef      0x250 build/stm32f4xx_hal_rcc.o
                                0x6f1 (size before relaxing)
 .debug_str     0x00000c3f      0x112 build/stm32f4xx_hal_gpio.o
                                0x4cb (size before relaxing)
 .debug_str     0x00000d51      0x9f6 build/stm32f4xx_hal_cortex.o
                                0xc17 (size before relaxing)
 .debug_str     0x00001747      0x2a6 build/stm32f4xx_hal.o
                                0xb45 (size before relaxing)
 .debug_str     0x000019ed      0x64d build/stm32f4xx_hal_uart.o
                                0xd44 (size before relaxing)
 .debug_str     0x0000203a       0x47 build/system_stm32f4xx.o
                                0x30c (size before relaxing)
 .debug_str     0x00002081      0x20f build/clock.o
                                0x3d2 (size before relaxing)
 .debug_str     0x00002290      0x277 build/components.o
                                0x5a1 (size before relaxing)
 .debug_str     0x00002507      0x144 build/idle.o
                                0x4bb (size before relaxing)
 .debug_str     0x0000264b      0x6c2 build/ipc.o
                                0xa82 (size before relaxing)
 .debug_str     0x00002d0d       0xd0 build/irq.o
                                0x294 (size before relaxing)
 .debug_str     0x00002ddd      0x599 build/kservice.o
                                0x97d (size before relaxing)
 .debug_str     0x00003376      0x1b4 build/mem.o
                                0x4ca (size before relaxing)
 .debug_str     0x0000352a      0x2a7 build/object.o
                                0x76a (size before relaxing)
 .debug_str     0x000037d1      0x197 build/scheduler.o
                                0x5de (size before relaxing)
 .debug_str     0x00003968      0x1b8 build/thread.o
                                0x8a3 (size before relaxing)
 .debug_str     0x00003b20      0x1b5 build/timer.o
                                0x833 (size before relaxing)
 .debug_str     0x00003cd5      0x1af build/cpuport.o
                                0x3b6 (size before relaxing)
 .debug_str     0x00003e84       0xd5 build/board.o
                                0x833 (size before relaxing)
 .debug_str     0x00003f59      0x6ac build/cmd.o
                                0xfdc (size before relaxing)
 .debug_str     0x00004605      0x1dd build/msh.o
                                0x455 (size before relaxing)
 .debug_str     0x000047e2      0x2c3 build/shell.o
                                0xa91 (size before relaxing)
 .debug_str     0x00004aa5       0xf6 build/device.o
                                0x7e8 (size before relaxing)
 .debug_str     0x00004b9b       0x24 build/startup_stm32f407xx.o
                                 0x58 (size before relaxing)
 .debug_str     0x00004bbf       0x4b build/context_gcc.o
                                 0x8d (size before relaxing)

.comment        0x00000000       0x4d
 .comment       0x00000000       0x4d build/main.o
                                 0x4e (size before relaxing)
 .comment       0x0000004d       0x4e build/gpio.o
 .comment       0x0000004d       0x4e build/usart.o
 .comment       0x0000004d       0x4e build/stm32f4xx_it.o
 .comment       0x0000004d       0x4e build/stm32f4xx_hal_msp.o
 .comment       0x0000004d       0x4e build/stm32f4xx_hal_rcc.o
 .comment       0x0000004d       0x4e build/stm32f4xx_hal_gpio.o
 .comment       0x0000004d       0x4e build/stm32f4xx_hal_cortex.o
 .comment       0x0000004d       0x4e build/stm32f4xx_hal.o
 .comment       0x0000004d       0x4e build/stm32f4xx_hal_uart.o
 .comment       0x0000004d       0x4e build/system_stm32f4xx.o
 .comment       0x0000004d       0x4e build/clock.o
 .comment       0x0000004d       0x4e build/components.o
 .comment       0x0000004d       0x4e build/idle.o
 .comment       0x0000004d       0x4e build/ipc.o
 .comment       0x0000004d       0x4e build/irq.o
 .comment       0x0000004d       0x4e build/kservice.o
 .comment       0x0000004d       0x4e build/mem.o
 .comment       0x0000004d       0x4e build/object.o
 .comment       0x0000004d       0x4e build/scheduler.o
 .comment       0x0000004d       0x4e build/thread.o
 .comment       0x0000004d       0x4e build/timer.o
 .comment       0x0000004d       0x4e build/cpuport.o
 .comment       0x0000004d       0x4e build/board.o
 .comment       0x0000004d       0x4e build/cmd.o
 .comment       0x0000004d       0x4e build/msh.o
 .comment       0x0000004d       0x4e build/shell.o
 .comment       0x0000004d       0x4e build/device.o

.debug_frame    0x00000000     0x2880
 .debug_frame   0x00000000       0x58 build/main.o
 .debug_frame   0x00000058       0x34 build/gpio.o
 .debug_frame   0x0000008c       0x60 build/usart.o
 .debug_frame   0x000000ec       0x60 build/stm32f4xx_it.o
 .debug_frame   0x0000014c       0x28 build/stm32f4xx_hal_msp.o
 .debug_frame   0x00000174      0x16c build/stm32f4xx_hal_rcc.o
 .debug_frame   0x000002e0       0xd8 build/stm32f4xx_hal_gpio.o
 .debug_frame   0x000003b8      0x148 build/stm32f4xx_hal_cortex.o
 .debug_frame   0x00000500      0x1ec build/stm32f4xx_hal.o
 .debug_frame   0x000006ec      0x5cc build/stm32f4xx_hal_uart.o
 .debug_frame   0x00000cb8       0x30 build/system_stm32f4xx.o
 .debug_frame   0x00000ce8       0x70 build/clock.o
 .debug_frame   0x00000d58       0xe8 build/components.o
 .debug_frame   0x00000e40       0xa4 build/idle.o
 .debug_frame   0x00000ee4      0x504 build/ipc.o
 .debug_frame   0x000013e8       0x78 build/irq.o
 .debug_frame   0x00001460      0x36c build/kservice.o
 .debug_frame   0x000017cc      0x114 build/mem.o
 .debug_frame   0x000018e0      0x180 build/object.o
 .debug_frame   0x00001a60       0xf0 build/scheduler.o
 .debug_frame   0x00001b50      0x25c build/thread.o
 .debug_frame   0x00001dac      0x1e4 build/timer.o
 .debug_frame   0x00001f90       0xdc build/cpuport.o
 .debug_frame   0x0000206c       0xb4 build/board.o
 .debug_frame   0x00002120      0x1f0 build/cmd.o
 .debug_frame   0x00002310      0x130 build/msh.o
 .debug_frame   0x00002440      0x184 build/shell.o
 .debug_frame   0x000025c4      0x198 build/device.o
 .debug_frame   0x0000275c       0x2c c:/gcc-arm-none-eabi-10-2020-q4-major/bin/../lib/gcc/arm-none-eabi/10.2.1/../../../../arm-none-eabi/lib/thumb/v7e-m/nofp\libc_nano.a(lib_a-init.o)
 .debug_frame   0x00002788       0x28 c:/gcc-arm-none-eabi-10-2020-q4-major/bin/../lib/gcc/arm-none-eabi/10.2.1/../../../../arm-none-eabi/lib/thumb/v7e-m/nofp\libc_nano.a(lib_a-memcpy-stub.o)
 .debug_frame   0x000027b0       0x20 c:/gcc-arm-none-eabi-10-2020-q4-major/bin/../lib/gcc/arm-none-eabi/10.2.1/../../../../arm-none-eabi/lib/thumb/v7e-m/nofp\libc_nano.a(lib_a-memset.o)
 .debug_frame   0x000027d0       0x28 c:/gcc-arm-none-eabi-10-2020-q4-major/bin/../lib/gcc/arm-none-eabi/10.2.1/../../../../arm-none-eabi/lib/thumb/v7e-m/nofp\libc_nano.a(lib_a-strncmp.o)
 .debug_frame   0x000027f8       0x28 c:/gcc-arm-none-eabi-10-2020-q4-major/bin/../lib/gcc/arm-none-eabi/10.2.1/../../../../arm-none-eabi/lib/thumb/v7e-m/nofp\libc_nano.a(lib_a-strncpy.o)
 .debug_frame   0x00002820       0x2c c:/gcc-arm-none-eabi-10-2020-q4-major/bin/../lib/gcc/arm-none-eabi/10.2.1/thumb/v7e-m/nofp\libgcc.a(_aeabi_uldivmod.o)
 .debug_frame   0x0000284c       0x34 c:/gcc-arm-none-eabi-10-2020-q4-major/bin/../lib/gcc/arm-none-eabi/10.2.1/thumb/v7e-m/nofp\libgcc.a(_udivmoddi4.o)

Cross Reference Table

Symbol                                            File
ADC_IRQHandler                                    build/startup_stm32f407xx.o
AHBPrescTable                                     build/system_stm32f4xx.o
                                                  build/stm32f4xx_hal_rcc.o
APBPrescTable                                     build/system_stm32f4xx.o
                                                  build/stm32f4xx_hal_rcc.o
BusFault_Handler                                  build/stm32f4xx_it.o
CAN1_RX0_IRQHandler                               build/startup_stm32f407xx.o
CAN1_RX1_IRQHandler                               build/startup_stm32f407xx.o
CAN1_SCE_IRQHandler                               build/startup_stm32f407xx.o
CAN1_TX_IRQHandler                                build/startup_stm32f407xx.o
CAN2_RX0_IRQHandler                               build/startup_stm32f407xx.o
CAN2_RX1_IRQHandler                               build/startup_stm32f407xx.o
CAN2_SCE_IRQHandler                               build/startup_stm32f407xx.o
CAN2_TX_IRQHandler                                build/startup_stm32f407xx.o
DCMI_IRQHandler                                   build/startup_stm32f407xx.o
DMA1_Stream0_IRQHandler                           build/startup_stm32f407xx.o
DMA1_Stream1_IRQHandler                           build/startup_stm32f407xx.o
DMA1_Stream2_IRQHandler                           build/startup_stm32f407xx.o
DMA1_Stream3_IRQHandler                           build/startup_stm32f407xx.o
DMA1_Stream4_IRQHandler                           build/startup_stm32f407xx.o
DMA1_Stream5_IRQHandler                           build/startup_stm32f407xx.o
DMA1_Stream6_IRQHandler                           build/startup_stm32f407xx.o
DMA1_Stream7_IRQHandler                           build/startup_stm32f407xx.o
DMA2_Stream0_IRQHandler                           build/startup_stm32f407xx.o
DMA2_Stream1_IRQHandler                           build/startup_stm32f407xx.o
DMA2_Stream2_IRQHandler                           build/startup_stm32f407xx.o
DMA2_Stream3_IRQHandler                           build/startup_stm32f407xx.o
DMA2_Stream4_IRQHandler                           build/startup_stm32f407xx.o
DMA2_Stream5_IRQHandler                           build/startup_stm32f407xx.o
DMA2_Stream6_IRQHandler                           build/startup_stm32f407xx.o
DMA2_Stream7_IRQHandler                           build/startup_stm32f407xx.o
DebugMon_Handler                                  build/stm32f4xx_it.o
Default_Handler                                   build/startup_stm32f407xx.o
ETH_IRQHandler                                    build/startup_stm32f407xx.o
ETH_WKUP_IRQHandler                               build/startup_stm32f407xx.o
EXTI0_IRQHandler                                  build/startup_stm32f407xx.o
EXTI15_10_IRQHandler                              build/startup_stm32f407xx.o
EXTI1_IRQHandler                                  build/startup_stm32f407xx.o
EXTI2_IRQHandler                                  build/startup_stm32f407xx.o
EXTI3_IRQHandler                                  build/startup_stm32f407xx.o
EXTI4_IRQHandler                                  build/startup_stm32f407xx.o
EXTI9_5_IRQHandler                                build/startup_stm32f407xx.o
Error_Handler                                     build/main.o
                                                  build/usart.o
FLASH_Erase_Sector                                build/stm32f4xx_hal_flash_ex.o
                                                  build/stm32f4xx_hal_flash.o
FLASH_FlushCaches                                 build/stm32f4xx_hal_flash_ex.o
                                                  build/stm32f4xx_hal_flash.o
FLASH_IRQHandler                                  build/startup_stm32f407xx.o
FLASH_WaitForLastOperation                        build/stm32f4xx_hal_flash.o
                                                  build/stm32f4xx_hal_flash_ex.o
FPU_IRQHandler                                    build/startup_stm32f407xx.o
FSMC_IRQHandler                                   build/startup_stm32f407xx.o
HAL_DBGMCU_DisableDBGSleepMode                    build/stm32f4xx_hal.o
HAL_DBGMCU_DisableDBGStandbyMode                  build/stm32f4xx_hal.o
HAL_DBGMCU_DisableDBGStopMode                     build/stm32f4xx_hal.o
HAL_DBGMCU_EnableDBGSleepMode                     build/stm32f4xx_hal.o
HAL_DBGMCU_EnableDBGStandbyMode                   build/stm32f4xx_hal.o
HAL_DBGMCU_EnableDBGStopMode                      build/stm32f4xx_hal.o
HAL_DMAEx_ChangeMemory                            build/stm32f4xx_hal_dma_ex.o
HAL_DMAEx_MultiBufferStart                        build/stm32f4xx_hal_dma_ex.o
HAL_DMAEx_MultiBufferStart_IT                     build/stm32f4xx_hal_dma_ex.o
HAL_DMA_Abort                                     build/stm32f4xx_hal_dma.o
                                                  build/stm32f4xx_hal_uart.o
HAL_DMA_Abort_IT                                  build/stm32f4xx_hal_dma.o
                                                  build/stm32f4xx_hal_uart.o
HAL_DMA_DeInit                                    build/stm32f4xx_hal_dma.o
HAL_DMA_GetError                                  build/stm32f4xx_hal_dma.o
                                                  build/stm32f4xx_hal_uart.o
HAL_DMA_GetState                                  build/stm32f4xx_hal_dma.o
HAL_DMA_IRQHandler                                build/stm32f4xx_hal_dma.o
HAL_DMA_Init                                      build/stm32f4xx_hal_dma.o
HAL_DMA_PollForTransfer                           build/stm32f4xx_hal_dma.o
HAL_DMA_RegisterCallback                          build/stm32f4xx_hal_dma.o
HAL_DMA_Start                                     build/stm32f4xx_hal_dma.o
HAL_DMA_Start_IT                                  build/stm32f4xx_hal_dma.o
                                                  build/stm32f4xx_hal_uart.o
HAL_DMA_UnRegisterCallback                        build/stm32f4xx_hal_dma.o
HAL_DeInit                                        build/stm32f4xx_hal.o
HAL_Delay                                         build/stm32f4xx_hal.o
HAL_DisableCompensationCell                       build/stm32f4xx_hal.o
HAL_EXTI_ClearConfigLine                          build/stm32f4xx_hal_exti.o
HAL_EXTI_ClearPending                             build/stm32f4xx_hal_exti.o
HAL_EXTI_GenerateSWI                              build/stm32f4xx_hal_exti.o
HAL_EXTI_GetConfigLine                            build/stm32f4xx_hal_exti.o
HAL_EXTI_GetHandle                                build/stm32f4xx_hal_exti.o
HAL_EXTI_GetPending                               build/stm32f4xx_hal_exti.o
HAL_EXTI_IRQHandler                               build/stm32f4xx_hal_exti.o
HAL_EXTI_RegisterCallback                         build/stm32f4xx_hal_exti.o
HAL_EXTI_SetConfigLine                            build/stm32f4xx_hal_exti.o
HAL_EnableCompensationCell                        build/stm32f4xx_hal.o
HAL_FLASHEx_Erase                                 build/stm32f4xx_hal_flash_ex.o
HAL_FLASHEx_Erase_IT                              build/stm32f4xx_hal_flash_ex.o
HAL_FLASHEx_OBGetConfig                           build/stm32f4xx_hal_flash_ex.o
HAL_FLASHEx_OBProgram                             build/stm32f4xx_hal_flash_ex.o
HAL_FLASH_EndOfOperationCallback                  build/stm32f4xx_hal_flash.o
HAL_FLASH_GetError                                build/stm32f4xx_hal_flash.o
HAL_FLASH_IRQHandler                              build/stm32f4xx_hal_flash.o
HAL_FLASH_Lock                                    build/stm32f4xx_hal_flash.o
HAL_FLASH_OB_Launch                               build/stm32f4xx_hal_flash.o
HAL_FLASH_OB_Lock                                 build/stm32f4xx_hal_flash.o
HAL_FLASH_OB_Unlock                               build/stm32f4xx_hal_flash.o
HAL_FLASH_OperationErrorCallback                  build/stm32f4xx_hal_flash.o
HAL_FLASH_Program                                 build/stm32f4xx_hal_flash.o
HAL_FLASH_Program_IT                              build/stm32f4xx_hal_flash.o
HAL_FLASH_Unlock                                  build/stm32f4xx_hal_flash.o
HAL_GPIO_DeInit                                   build/stm32f4xx_hal_gpio.o
                                                  build/usart.o
HAL_GPIO_EXTI_Callback                            build/stm32f4xx_hal_gpio.o
HAL_GPIO_EXTI_IRQHandler                          build/stm32f4xx_hal_gpio.o
HAL_GPIO_Init                                     build/stm32f4xx_hal_gpio.o
                                                  build/stm32f4xx_hal_rcc.o
                                                  build/usart.o
                                                  build/gpio.o
HAL_GPIO_LockPin                                  build/stm32f4xx_hal_gpio.o
HAL_GPIO_ReadPin                                  build/stm32f4xx_hal_gpio.o
HAL_GPIO_TogglePin                                build/stm32f4xx_hal_gpio.o
                                                  build/main.o
HAL_GPIO_WritePin                                 build/stm32f4xx_hal_gpio.o
                                                  build/gpio.o
HAL_GetDEVID                                      build/stm32f4xx_hal.o
HAL_GetHalVersion                                 build/stm32f4xx_hal.o
HAL_GetREVID                                      build/stm32f4xx_hal.o
HAL_GetTick                                       build/stm32f4xx_hal.o
                                                  build/stm32f4xx_hal_uart.o
                                                  build/stm32f4xx_hal_pwr_ex.o
                                                  build/stm32f4xx_hal_dma.o
                                                  build/stm32f4xx_hal_flash.o
                                                  build/stm32f4xx_hal_rcc_ex.o
                                                  build/stm32f4xx_hal_rcc.o
HAL_GetTickFreq                                   build/stm32f4xx_hal.o
HAL_GetTickPrio                                   build/stm32f4xx_hal.o
HAL_GetUIDw0                                      build/stm32f4xx_hal.o
HAL_GetUIDw1                                      build/stm32f4xx_hal.o
HAL_GetUIDw2                                      build/stm32f4xx_hal.o
HAL_HalfDuplex_EnableReceiver                     build/stm32f4xx_hal_uart.o
HAL_HalfDuplex_EnableTransmitter                  build/stm32f4xx_hal_uart.o
HAL_HalfDuplex_Init                               build/stm32f4xx_hal_uart.o
HAL_IncTick                                       build/stm32f4xx_hal.o
HAL_Init                                          build/stm32f4xx_hal.o
                                                  build/board.o
                                                  build/main.o
HAL_InitTick                                      build/stm32f4xx_hal.o
                                                  build/stm32f4xx_hal_rcc_ex.o
                                                  build/stm32f4xx_hal_rcc.o
HAL_LIN_Init                                      build/stm32f4xx_hal_uart.o
HAL_LIN_SendBreak                                 build/stm32f4xx_hal_uart.o
HAL_MPU_ConfigRegion                              build/stm32f4xx_hal_cortex.o
HAL_MPU_Disable                                   build/stm32f4xx_hal_cortex.o
HAL_MPU_Enable                                    build/stm32f4xx_hal_cortex.o
HAL_MspDeInit                                     build/stm32f4xx_hal.o
HAL_MspInit                                       build/stm32f4xx_hal_msp.o
HAL_MultiProcessor_EnterMuteMode                  build/stm32f4xx_hal_uart.o
HAL_MultiProcessor_ExitMuteMode                   build/stm32f4xx_hal_uart.o
HAL_MultiProcessor_Init                           build/stm32f4xx_hal_uart.o
HAL_NVIC_ClearPendingIRQ                          build/stm32f4xx_hal_cortex.o
HAL_NVIC_DisableIRQ                               build/stm32f4xx_hal_cortex.o
HAL_NVIC_EnableIRQ                                build/stm32f4xx_hal_cortex.o
HAL_NVIC_GetActive                                build/stm32f4xx_hal_cortex.o
HAL_NVIC_GetPendingIRQ                            build/stm32f4xx_hal_cortex.o
HAL_NVIC_GetPriority                              build/stm32f4xx_hal_cortex.o
HAL_NVIC_GetPriorityGrouping                      build/stm32f4xx_hal_cortex.o
HAL_NVIC_SetPendingIRQ                            build/stm32f4xx_hal_cortex.o
HAL_NVIC_SetPriority                              build/stm32f4xx_hal_cortex.o
                                                  build/stm32f4xx_hal.o
HAL_NVIC_SetPriorityGrouping                      build/stm32f4xx_hal_cortex.o
                                                  build/stm32f4xx_hal.o
HAL_NVIC_SystemReset                              build/stm32f4xx_hal_cortex.o
HAL_PWREx_ControlVoltageScaling                   build/stm32f4xx_hal_pwr_ex.o
HAL_PWREx_DisableBkUpReg                          build/stm32f4xx_hal_pwr_ex.o
HAL_PWREx_DisableFlashPowerDown                   build/stm32f4xx_hal_pwr_ex.o
HAL_PWREx_EnableBkUpReg                           build/stm32f4xx_hal_pwr_ex.o
HAL_PWREx_EnableFlashPowerDown                    build/stm32f4xx_hal_pwr_ex.o
HAL_PWREx_GetVoltageRange                         build/stm32f4xx_hal_pwr_ex.o
HAL_PWR_ConfigPVD                                 build/stm32f4xx_hal_pwr.o
HAL_PWR_DeInit                                    build/stm32f4xx_hal_pwr.o
HAL_PWR_DisableBkUpAccess                         build/stm32f4xx_hal_pwr.o
HAL_PWR_DisablePVD                                build/stm32f4xx_hal_pwr.o
HAL_PWR_DisableSEVOnPend                          build/stm32f4xx_hal_pwr.o
HAL_PWR_DisableSleepOnExit                        build/stm32f4xx_hal_pwr.o
HAL_PWR_DisableWakeUpPin                          build/stm32f4xx_hal_pwr.o
HAL_PWR_EnableBkUpAccess                          build/stm32f4xx_hal_pwr.o
HAL_PWR_EnablePVD                                 build/stm32f4xx_hal_pwr.o
HAL_PWR_EnableSEVOnPend                           build/stm32f4xx_hal_pwr.o
HAL_PWR_EnableSleepOnExit                         build/stm32f4xx_hal_pwr.o
HAL_PWR_EnableWakeUpPin                           build/stm32f4xx_hal_pwr.o
HAL_PWR_EnterSLEEPMode                            build/stm32f4xx_hal_pwr.o
HAL_PWR_EnterSTANDBYMode                          build/stm32f4xx_hal_pwr.o
HAL_PWR_EnterSTOPMode                             build/stm32f4xx_hal_pwr.o
HAL_PWR_PVDCallback                               build/stm32f4xx_hal_pwr.o
HAL_PWR_PVD_IRQHandler                            build/stm32f4xx_hal_pwr.o
HAL_RCCEx_DisablePLLI2S                           build/stm32f4xx_hal_rcc_ex.o
HAL_RCCEx_EnablePLLI2S                            build/stm32f4xx_hal_rcc_ex.o
HAL_RCCEx_GetPeriphCLKConfig                      build/stm32f4xx_hal_rcc_ex.o
HAL_RCCEx_GetPeriphCLKFreq                        build/stm32f4xx_hal_rcc_ex.o
HAL_RCCEx_PeriphCLKConfig                         build/stm32f4xx_hal_rcc_ex.o
HAL_RCC_CSSCallback                               build/stm32f4xx_hal_rcc.o
HAL_RCC_ClockConfig                               build/stm32f4xx_hal_rcc.o
                                                  build/main.o
HAL_RCC_DeInit                                    build/stm32f4xx_hal_rcc_ex.o
                                                  build/stm32f4xx_hal_rcc.o
HAL_RCC_DisableCSS                                build/stm32f4xx_hal_rcc.o
HAL_RCC_EnableCSS                                 build/stm32f4xx_hal_rcc.o
HAL_RCC_GetClockConfig                            build/stm32f4xx_hal_rcc.o
HAL_RCC_GetHCLKFreq                               build/stm32f4xx_hal_rcc.o
                                                  build/board.o
HAL_RCC_GetOscConfig                              build/stm32f4xx_hal_rcc.o
HAL_RCC_GetPCLK1Freq                              build/stm32f4xx_hal_rcc.o
                                                  build/stm32f4xx_hal_uart.o
HAL_RCC_GetPCLK2Freq                              build/stm32f4xx_hal_rcc.o
                                                  build/stm32f4xx_hal_uart.o
HAL_RCC_GetSysClockFreq                           build/stm32f4xx_hal_rcc.o
HAL_RCC_MCOConfig                                 build/stm32f4xx_hal_rcc.o
HAL_RCC_NMI_IRQHandler                            build/stm32f4xx_hal_rcc.o
HAL_RCC_OscConfig                                 build/stm32f4xx_hal_rcc.o
                                                  build/main.o
HAL_ResumeTick                                    build/stm32f4xx_hal.o
HAL_SYSTICK_CLKSourceConfig                       build/stm32f4xx_hal_cortex.o
HAL_SYSTICK_Callback                              build/stm32f4xx_hal_cortex.o
HAL_SYSTICK_Config                                build/stm32f4xx_hal_cortex.o
                                                  build/board.o
                                                  build/stm32f4xx_hal.o
HAL_SYSTICK_IRQHandler                            build/stm32f4xx_hal_cortex.o
HAL_SetTickFreq                                   build/stm32f4xx_hal.o
HAL_SuspendTick                                   build/stm32f4xx_hal.o
HAL_UARTEx_ReceiveToIdle                          build/stm32f4xx_hal_uart.o
HAL_UARTEx_ReceiveToIdle_DMA                      build/stm32f4xx_hal_uart.o
HAL_UARTEx_ReceiveToIdle_IT                       build/stm32f4xx_hal_uart.o
HAL_UARTEx_RxEventCallback                        build/stm32f4xx_hal_uart.o
HAL_UART_Abort                                    build/stm32f4xx_hal_uart.o
HAL_UART_AbortCpltCallback                        build/stm32f4xx_hal_uart.o
HAL_UART_AbortReceive                             build/stm32f4xx_hal_uart.o
HAL_UART_AbortReceiveCpltCallback                 build/stm32f4xx_hal_uart.o
HAL_UART_AbortReceive_IT                          build/stm32f4xx_hal_uart.o
HAL_UART_AbortTransmit                            build/stm32f4xx_hal_uart.o
HAL_UART_AbortTransmitCpltCallback                build/stm32f4xx_hal_uart.o
HAL_UART_AbortTransmit_IT                         build/stm32f4xx_hal_uart.o
HAL_UART_Abort_IT                                 build/stm32f4xx_hal_uart.o
HAL_UART_DMAPause                                 build/stm32f4xx_hal_uart.o
HAL_UART_DMAResume                                build/stm32f4xx_hal_uart.o
HAL_UART_DMAStop                                  build/stm32f4xx_hal_uart.o
HAL_UART_DeInit                                   build/stm32f4xx_hal_uart.o
HAL_UART_ErrorCallback                            build/stm32f4xx_hal_uart.o
HAL_UART_GetError                                 build/stm32f4xx_hal_uart.o
HAL_UART_GetState                                 build/stm32f4xx_hal_uart.o
HAL_UART_IRQHandler                               build/stm32f4xx_hal_uart.o
HAL_UART_Init                                     build/stm32f4xx_hal_uart.o
                                                  build/board.o
                                                  build/usart.o
HAL_UART_MspDeInit                                build/usart.o
HAL_UART_MspInit                                  build/usart.o
HAL_UART_Receive                                  build/stm32f4xx_hal_uart.o
HAL_UART_Receive_DMA                              build/stm32f4xx_hal_uart.o
HAL_UART_Receive_IT                               build/stm32f4xx_hal_uart.o
HAL_UART_RxCpltCallback                           build/stm32f4xx_hal_uart.o
HAL_UART_RxHalfCpltCallback                       build/stm32f4xx_hal_uart.o
HAL_UART_Transmit                                 build/stm32f4xx_hal_uart.o
                                                  build/board.o
HAL_UART_Transmit_DMA                             build/stm32f4xx_hal_uart.o
HAL_UART_Transmit_IT                              build/stm32f4xx_hal_uart.o
HAL_UART_TxCpltCallback                           build/stm32f4xx_hal_uart.o
HAL_UART_TxHalfCpltCallback                       build/stm32f4xx_hal_uart.o
HASH_RNG_IRQHandler                               build/startup_stm32f407xx.o
HardFault_Handler                                 build/context_gcc.o
                                                  build/startup_stm32f407xx.o
I2C1_ER_IRQHandler                                build/startup_stm32f407xx.o
I2C1_EV_IRQHandler                                build/startup_stm32f407xx.o
I2C2_ER_IRQHandler                                build/startup_stm32f407xx.o
I2C2_EV_IRQHandler                                build/startup_stm32f407xx.o
I2C3_ER_IRQHandler                                build/startup_stm32f407xx.o
I2C3_EV_IRQHandler                                build/startup_stm32f407xx.o
MX_GPIO_Init                                      build/gpio.o
                                                  build/main.o
MX_USART1_UART_Init                               build/usart.o
                                                  build/main.o
MemManage_Handler                                 build/stm32f4xx_it.o
NMI_Handler                                       build/stm32f4xx_it.o
OTG_FS_IRQHandler                                 build/startup_stm32f407xx.o
OTG_FS_WKUP_IRQHandler                            build/startup_stm32f407xx.o
OTG_HS_EP1_IN_IRQHandler                          build/startup_stm32f407xx.o
OTG_HS_EP1_OUT_IRQHandler                         build/startup_stm32f407xx.o
OTG_HS_IRQHandler                                 build/startup_stm32f407xx.o
OTG_HS_WKUP_IRQHandler                            build/startup_stm32f407xx.o
PVD_IRQHandler                                    build/startup_stm32f407xx.o
PendSV_Handler                                    build/context_gcc.o
                                                  build/startup_stm32f407xx.o
RCC_IRQHandler                                    build/startup_stm32f407xx.o
RTC_Alarm_IRQHandler                              build/startup_stm32f407xx.o
RTC_WKUP_IRQHandler                               build/startup_stm32f407xx.o
Reset_Handler                                     build/startup_stm32f407xx.o
SDIO_IRQHandler                                   build/startup_stm32f407xx.o
SPI1_IRQHandler                                   build/startup_stm32f407xx.o
SPI2_IRQHandler                                   build/startup_stm32f407xx.o
SPI3_IRQHandler                                   build/startup_stm32f407xx.o
SVC_Handler                                       build/startup_stm32f407xx.o
SysTick_Handler                                   build/board.o
SystemClock_Config                                build/main.o
                                                  build/board.o
SystemCoreClock                                   build/system_stm32f4xx.o
                                                  build/stm32f4xx_hal.o
                                                  build/stm32f4xx_hal_dma.o
                                                  build/stm32f4xx_hal_rcc_ex.o
                                                  build/stm32f4xx_hal_rcc.o
SystemCoreClockUpdate                             build/system_stm32f4xx.o
                                                  build/board.o
SystemInit                                        build/system_stm32f4xx.o
                                                  build/startup_stm32f407xx.o
TAMP_STAMP_IRQHandler                             build/startup_stm32f407xx.o
TIM1_BRK_TIM9_IRQHandler                          build/startup_stm32f407xx.o
TIM1_CC_IRQHandler                                build/startup_stm32f407xx.o
TIM1_TRG_COM_TIM11_IRQHandler                     build/startup_stm32f407xx.o
TIM1_UP_TIM10_IRQHandler                          build/startup_stm32f407xx.o
TIM2_IRQHandler                                   build/startup_stm32f407xx.o
TIM3_IRQHandler                                   build/startup_stm32f407xx.o
TIM4_IRQHandler                                   build/startup_stm32f407xx.o
TIM5_IRQHandler                                   build/startup_stm32f407xx.o
TIM6_DAC_IRQHandler                               build/startup_stm32f407xx.o
TIM7_IRQHandler                                   build/startup_stm32f407xx.o
TIM8_BRK_TIM12_IRQHandler                         build/startup_stm32f407xx.o
TIM8_CC_IRQHandler                                build/startup_stm32f407xx.o
TIM8_TRG_COM_TIM14_IRQHandler                     build/startup_stm32f407xx.o
TIM8_UP_TIM13_IRQHandler                          build/startup_stm32f407xx.o
UART4_IRQHandler                                  build/startup_stm32f407xx.o
UART5_IRQHandler                                  build/startup_stm32f407xx.o
UART_Start_Receive_DMA                            build/stm32f4xx_hal_uart.o
UART_Start_Receive_IT                             build/stm32f4xx_hal_uart.o
USART1_IRQHandler                                 build/startup_stm32f407xx.o
USART2_IRQHandler                                 build/startup_stm32f407xx.o
USART3_IRQHandler                                 build/startup_stm32f407xx.o
USART6_IRQHandler                                 build/startup_stm32f407xx.o
UsageFault_Handler                                build/stm32f4xx_it.o
WWDG_IRQHandler                                   build/startup_stm32f407xx.o
__aeabi_idiv0                                     c:/gcc-arm-none-eabi-10-2020-q4-major/bin/../lib/gcc/arm-none-eabi/10.2.1/thumb/v7e-m/nofp\libgcc.a(_dvmd_tls.o)
__aeabi_ldiv0                                     c:/gcc-arm-none-eabi-10-2020-q4-major/bin/../lib/gcc/arm-none-eabi/10.2.1/thumb/v7e-m/nofp\libgcc.a(_dvmd_tls.o)
                                                  c:/gcc-arm-none-eabi-10-2020-q4-major/bin/../lib/gcc/arm-none-eabi/10.2.1/thumb/v7e-m/nofp\libgcc.a(_aeabi_uldivmod.o)
__aeabi_uldivmod                                  c:/gcc-arm-none-eabi-10-2020-q4-major/bin/../lib/gcc/arm-none-eabi/10.2.1/thumb/v7e-m/nofp\libgcc.a(_aeabi_uldivmod.o)
                                                  build/stm32f4xx_hal_uart.o
                                                  build/stm32f4xx_hal_rcc.o
__bss_end__                                       c:/gcc-arm-none-eabi-10-2020-q4-major/bin/../lib/gcc/arm-none-eabi/10.2.1/../../../../arm-none-eabi/lib/thumb/v7e-m/nofp/crt0.o
__bss_start__                                     c:/gcc-arm-none-eabi-10-2020-q4-major/bin/../lib/gcc/arm-none-eabi/10.2.1/../../../../arm-none-eabi/lib/thumb/v7e-m/nofp/crt0.o
__call_exitprocs                                  c:/gcc-arm-none-eabi-10-2020-q4-major/bin/../lib/gcc/arm-none-eabi/10.2.1/../../../../arm-none-eabi/lib/thumb/v7e-m/nofp\libc_nano.a(lib_a-exit.o)
__deregister_frame_info                           c:/gcc-arm-none-eabi-10-2020-q4-major/bin/../lib/gcc/arm-none-eabi/10.2.1/thumb/v7e-m/nofp/crtbegin.o
__dso_handle                                      c:/gcc-arm-none-eabi-10-2020-q4-major/bin/../lib/gcc/arm-none-eabi/10.2.1/thumb/v7e-m/nofp/crtbegin.o
__fsym___cmd_free                                 build/msh.o
__fsym___cmd_free_desc                            build/msh.o
__fsym___cmd_free_name                            build/msh.o
__fsym___cmd_help                                 build/msh.o
__fsym___cmd_help_desc                            build/msh.o
__fsym___cmd_help_name                            build/msh.o
__fsym___cmd_list_device                          build/cmd.o
__fsym___cmd_list_device_desc                     build/cmd.o
__fsym___cmd_list_device_name                     build/cmd.o
__fsym___cmd_list_event                           build/cmd.o
__fsym___cmd_list_event_desc                      build/cmd.o
__fsym___cmd_list_event_name                      build/cmd.o
__fsym___cmd_list_mailbox                         build/cmd.o
__fsym___cmd_list_mailbox_desc                    build/cmd.o
__fsym___cmd_list_mailbox_name                    build/cmd.o
__fsym___cmd_list_msgqueue                        build/cmd.o
__fsym___cmd_list_msgqueue_desc                   build/cmd.o
__fsym___cmd_list_msgqueue_name                   build/cmd.o
__fsym___cmd_list_mutex                           build/cmd.o
__fsym___cmd_list_mutex_desc                      build/cmd.o
__fsym___cmd_list_mutex_name                      build/cmd.o
__fsym___cmd_list_sem                             build/cmd.o
__fsym___cmd_list_sem_desc                        build/cmd.o
__fsym___cmd_list_sem_name                        build/cmd.o
__fsym___cmd_list_thread                          build/cmd.o
__fsym___cmd_list_thread_desc                     build/cmd.o
__fsym___cmd_list_thread_name                     build/cmd.o
__fsym___cmd_list_timer                           build/cmd.o
__fsym___cmd_list_timer_desc                      build/cmd.o
__fsym___cmd_list_timer_name                      build/cmd.o
__fsym___cmd_ps                                   build/msh.o
__fsym___cmd_ps_desc                              build/msh.o
__fsym___cmd_ps_name                              build/msh.o
__fsym___cmd_version                              build/cmd.o
__fsym___cmd_version_desc                         build/cmd.o
__fsym___cmd_version_name                         build/cmd.o
__fsym_hello                                      build/cmd.o
__fsym_hello_desc                                 build/cmd.o
__fsym_hello_name                                 build/cmd.o
__fsym_list                                       build/cmd.o
__fsym_list_desc                                  build/cmd.o
__fsym_list_device                                build/cmd.o
__fsym_list_device_desc                           build/cmd.o
__fsym_list_device_name                           build/cmd.o
__fsym_list_event                                 build/cmd.o
__fsym_list_event_desc                            build/cmd.o
__fsym_list_event_name                            build/cmd.o
__fsym_list_mailbox                               build/cmd.o
__fsym_list_mailbox_desc                          build/cmd.o
__fsym_list_mailbox_name                          build/cmd.o
__fsym_list_mem                                   build/mem.o
__fsym_list_mem_desc                              build/mem.o
__fsym_list_mem_name                              build/mem.o
__fsym_list_msgqueue                              build/cmd.o
__fsym_list_msgqueue_desc                         build/cmd.o
__fsym_list_msgqueue_name                         build/cmd.o
__fsym_list_mutex                                 build/cmd.o
__fsym_list_mutex_desc                            build/cmd.o
__fsym_list_mutex_name                            build/cmd.o
__fsym_list_name                                  build/cmd.o
__fsym_list_sem                                   build/cmd.o
__fsym_list_sem_desc                              build/cmd.o
__fsym_list_sem_name                              build/cmd.o
__fsym_list_thread                                build/cmd.o
__fsym_list_thread_desc                           build/cmd.o
__fsym_list_thread_name                           build/cmd.o
__fsym_list_timer                                 build/cmd.o
__fsym_list_timer_desc                            build/cmd.o
__fsym_list_timer_name                            build/cmd.o
__fsym_version                                    build/cmd.o
__fsym_version_desc                               build/cmd.o
__fsym_version_name                               build/cmd.o
__fsymtab_end                                     build/shell.o
__fsymtab_start                                   build/shell.o
__init_array_end                                  c:/gcc-arm-none-eabi-10-2020-q4-major/bin/../lib/gcc/arm-none-eabi/10.2.1/../../../../arm-none-eabi/lib/thumb/v7e-m/nofp\libc_nano.a(lib_a-init.o)
__init_array_start                                c:/gcc-arm-none-eabi-10-2020-q4-major/bin/../lib/gcc/arm-none-eabi/10.2.1/../../../../arm-none-eabi/lib/thumb/v7e-m/nofp\libc_nano.a(lib_a-init.o)
__libc_fini_array                                 c:/gcc-arm-none-eabi-10-2020-q4-major/bin/../lib/gcc/arm-none-eabi/10.2.1/../../../../arm-none-eabi/lib/thumb/v7e-m/nofp/crt0.o
__libc_init_array                                 c:/gcc-arm-none-eabi-10-2020-q4-major/bin/../lib/gcc/arm-none-eabi/10.2.1/../../../../arm-none-eabi/lib/thumb/v7e-m/nofp\libc_nano.a(lib_a-init.o)
                                                  build/startup_stm32f407xx.o
                                                  c:/gcc-arm-none-eabi-10-2020-q4-major/bin/../lib/gcc/arm-none-eabi/10.2.1/../../../../arm-none-eabi/lib/thumb/v7e-m/nofp/crt0.o
__lowest_bit_bitmap                               build/kservice.o
__preinit_array_end                               c:/gcc-arm-none-eabi-10-2020-q4-major/bin/../lib/gcc/arm-none-eabi/10.2.1/../../../../arm-none-eabi/lib/thumb/v7e-m/nofp\libc_nano.a(lib_a-init.o)
__preinit_array_start                             c:/gcc-arm-none-eabi-10-2020-q4-major/bin/../lib/gcc/arm-none-eabi/10.2.1/../../../../arm-none-eabi/lib/thumb/v7e-m/nofp\libc_nano.a(lib_a-init.o)
__register_frame_info                             c:/gcc-arm-none-eabi-10-2020-q4-major/bin/../lib/gcc/arm-none-eabi/10.2.1/thumb/v7e-m/nofp/crtbegin.o
__rt_ffs                                          build/kservice.o
                                                  build/scheduler.o
__rt_init_desc_finsh_system_init                  build/shell.o
__rt_init_desc_rti_board_end                      build/components.o
__rt_init_desc_rti_board_start                    build/components.o
__rt_init_desc_rti_end                            build/components.o
__rt_init_desc_rti_start                          build/components.o
__rt_init_desc_uart_init                          build/board.o
__rti_finsh_system_init_name                      build/shell.o
__rti_rti_board_end_name                          build/components.o
__rti_rti_board_start_name                        build/components.o
__rti_rti_end_name                                build/components.o
__rti_rti_start_name                              build/components.o
__rti_uart_init_name                              build/board.o
__sf_fake_stderr                                  c:/gcc-arm-none-eabi-10-2020-q4-major/bin/../lib/gcc/arm-none-eabi/10.2.1/../../../../arm-none-eabi/lib/thumb/v7e-m/nofp\libc_nano.a(lib_a-impure.o)
__sf_fake_stdin                                   c:/gcc-arm-none-eabi-10-2020-q4-major/bin/../lib/gcc/arm-none-eabi/10.2.1/../../../../arm-none-eabi/lib/thumb/v7e-m/nofp\libc_nano.a(lib_a-impure.o)
__sf_fake_stdout                                  c:/gcc-arm-none-eabi-10-2020-q4-major/bin/../lib/gcc/arm-none-eabi/10.2.1/../../../../arm-none-eabi/lib/thumb/v7e-m/nofp\libc_nano.a(lib_a-impure.o)
__stack                                           c:/gcc-arm-none-eabi-10-2020-q4-major/bin/../lib/gcc/arm-none-eabi/10.2.1/../../../../arm-none-eabi/lib/thumb/v7e-m/nofp/crt0.o
__udivmoddi4                                      c:/gcc-arm-none-eabi-10-2020-q4-major/bin/../lib/gcc/arm-none-eabi/10.2.1/thumb/v7e-m/nofp\libgcc.a(_udivmoddi4.o)
                                                  c:/gcc-arm-none-eabi-10-2020-q4-major/bin/../lib/gcc/arm-none-eabi/10.2.1/thumb/v7e-m/nofp\libgcc.a(_aeabi_uldivmod.o)
__vsymtab_end                                     build/shell.o
__vsymtab_start                                   build/shell.o
_ebss                                             build/startup_stm32f407xx.o
_edata                                            build/startup_stm32f407xx.o
_estack                                           build/startup_stm32f407xx.o
_exit                                             c:/gcc-arm-none-eabi-10-2020-q4-major/bin/../lib/gcc/arm-none-eabi/10.2.1/../../../../arm-none-eabi/lib/thumb/v7e-m/nofp\libnosys.a(_exit.o)
                                                  c:/gcc-arm-none-eabi-10-2020-q4-major/bin/../lib/gcc/arm-none-eabi/10.2.1/../../../../arm-none-eabi/lib/thumb/v7e-m/nofp\libc_nano.a(lib_a-exit.o)
_fini                                             c:/gcc-arm-none-eabi-10-2020-q4-major/bin/../lib/gcc/arm-none-eabi/10.2.1/thumb/v7e-m/nofp/crti.o
_global_impure_ptr                                c:/gcc-arm-none-eabi-10-2020-q4-major/bin/../lib/gcc/arm-none-eabi/10.2.1/../../../../arm-none-eabi/lib/thumb/v7e-m/nofp\libc_nano.a(lib_a-impure.o)
                                                  c:/gcc-arm-none-eabi-10-2020-q4-major/bin/../lib/gcc/arm-none-eabi/10.2.1/../../../../arm-none-eabi/lib/thumb/v7e-m/nofp\libc_nano.a(lib_a-exit.o)
_impure_ptr                                       c:/gcc-arm-none-eabi-10-2020-q4-major/bin/../lib/gcc/arm-none-eabi/10.2.1/../../../../arm-none-eabi/lib/thumb/v7e-m/nofp\libc_nano.a(lib_a-impure.o)
_init                                             c:/gcc-arm-none-eabi-10-2020-q4-major/bin/../lib/gcc/arm-none-eabi/10.2.1/thumb/v7e-m/nofp/crti.o
                                                  c:/gcc-arm-none-eabi-10-2020-q4-major/bin/../lib/gcc/arm-none-eabi/10.2.1/../../../../arm-none-eabi/lib/thumb/v7e-m/nofp\libc_nano.a(lib_a-init.o)
_mainCRTStartup                                   c:/gcc-arm-none-eabi-10-2020-q4-major/bin/../lib/gcc/arm-none-eabi/10.2.1/../../../../arm-none-eabi/lib/thumb/v7e-m/nofp/crt0.o
_rt_errno                                         build/kservice.o
_sbss                                             build/startup_stm32f407xx.o
_sdata                                            build/startup_stm32f407xx.o
_sidata                                           build/startup_stm32f407xx.o
_stack_init                                       c:/gcc-arm-none-eabi-10-2020-q4-major/bin/../lib/gcc/arm-none-eabi/10.2.1/../../../../arm-none-eabi/lib/thumb/v7e-m/nofp/crt0.o
_start                                            c:/gcc-arm-none-eabi-10-2020-q4-major/bin/../lib/gcc/arm-none-eabi/10.2.1/../../../../arm-none-eabi/lib/thumb/v7e-m/nofp/crt0.o
_syscall_table_begin                              build/shell.o
                                                  build/msh.o
                                                  build/cmd.o
_syscall_table_end                                build/shell.o
                                                  build/msh.o
                                                  build/cmd.o
_sysvar_table_begin                               build/shell.o
_sysvar_table_end                                 build/shell.o
atexit                                            c:/gcc-arm-none-eabi-10-2020-q4-major/bin/../lib/gcc/arm-none-eabi/10.2.1/../../../../arm-none-eabi/lib/thumb/v7e-m/nofp/crt0.o
cmd_free                                          build/msh.o
cmd_ps                                            build/msh.o
entry                                             build/components.o
                                                  build/startup_stm32f407xx.o
exit                                              c:/gcc-arm-none-eabi-10-2020-q4-major/bin/../lib/gcc/arm-none-eabi/10.2.1/../../../../arm-none-eabi/lib/thumb/v7e-m/nofp\libc_nano.a(lib_a-exit.o)
                                                  c:/gcc-arm-none-eabi-10-2020-q4-major/bin/../lib/gcc/arm-none-eabi/10.2.1/../../../../arm-none-eabi/lib/thumb/v7e-m/nofp/crt0.o
finsh_get_device                                  build/shell.o
finsh_get_echo                                    build/shell.o
finsh_get_prompt                                  build/shell.o
finsh_get_prompt_mode                             build/shell.o
finsh_set_device                                  build/shell.o
finsh_set_echo                                    build/shell.o
finsh_set_prompt                                  build/shell.o
finsh_set_prompt_mode                             build/shell.o
finsh_system_function_init                        build/shell.o
finsh_system_init                                 build/shell.o
finsh_system_var_init                             build/shell.o
finsh_thread_entry                                build/shell.o
g_pfnVectors                                      build/startup_stm32f407xx.o
hardware_init_hook                                c:/gcc-arm-none-eabi-10-2020-q4-major/bin/../lib/gcc/arm-none-eabi/10.2.1/../../../../arm-none-eabi/lib/thumb/v7e-m/nofp/crt0.o
hello                                             build/cmd.o
huart1                                            build/usart.o
list                                              build/cmd.o
list_device                                       build/cmd.o
list_event                                        build/cmd.o
list_mailbox                                      build/cmd.o
list_mem                                          build/mem.o
                                                  build/msh.o
list_msgqueue                                     build/cmd.o
list_mutex                                        build/cmd.o
list_sem                                          build/cmd.o
list_thread                                       build/cmd.o
                                                  build/msh.o
                                                  build/cpuport.o
                                                  build/scheduler.o
list_timer                                        build/cmd.o
main                                              build/main.o
                                                  build/components.o
                                                  c:/gcc-arm-none-eabi-10-2020-q4-major/bin/../lib/gcc/arm-none-eabi/10.2.1/../../../../arm-none-eabi/lib/thumb/v7e-m/nofp/crt0.o
main_thread_entry                                 build/components.o
memcpy                                            c:/gcc-arm-none-eabi-10-2020-q4-major/bin/../lib/gcc/arm-none-eabi/10.2.1/../../../../arm-none-eabi/lib/thumb/v7e-m/nofp\libc_nano.a(lib_a-memcpy-stub.o)
                                                  build/cmd.o
memset                                            c:/gcc-arm-none-eabi-10-2020-q4-major/bin/../lib/gcc/arm-none-eabi/10.2.1/../../../../arm-none-eabi/lib/thumb/v7e-m/nofp\libc_nano.a(lib_a-memset.o)
                                                  build/shell.o
                                                  build/msh.o
                                                  build/main.o
                                                  c:/gcc-arm-none-eabi-10-2020-q4-major/bin/../lib/gcc/arm-none-eabi/10.2.1/../../../../arm-none-eabi/lib/thumb/v7e-m/nofp/crt0.o
msh_auto_complete                                 build/msh.o
                                                  build/shell.o
msh_exec                                          build/msh.o
                                                  build/shell.o
msh_help                                          build/msh.o
msh_is_used                                       build/msh.o
                                                  build/shell.o
pFlash                                            build/stm32f4xx_hal_flash.o
                                                  build/stm32f4xx_hal_flash_ex.o
rt_application_init                               build/components.o
rt_assert_handler                                 build/kservice.o
                                                  build/device.o
                                                  build/shell.o
                                                  build/msh.o
                                                  build/cpuport.o
                                                  build/timer.o
                                                  build/thread.o
                                                  build/scheduler.o
                                                  build/object.o
                                                  build/mem.o
                                                  build/ipc.o
                                                  build/idle.o
                                                  build/components.o
rt_assert_hook                                    build/kservice.o
rt_assert_set_hook                                build/kservice.o
rt_calloc                                         build/mem.o
                                                  build/shell.o
rt_components_board_init                          build/components.o
                                                  build/board.o
rt_components_init                                build/components.o
rt_console_get_device                             build/kservice.o
                                                  build/shell.o
rt_console_set_device                             build/kservice.o
rt_critical_level                                 build/scheduler.o
rt_current_priority                               build/scheduler.o
rt_current_thread                                 build/scheduler.o
                                                  build/thread.o
rt_device_close                                   build/device.o
                                                  build/shell.o
                                                  build/kservice.o
rt_device_control                                 build/device.o
rt_device_create                                  build/device.o
rt_device_destroy                                 build/device.o
rt_device_find                                    build/device.o
                                                  build/shell.o
                                                  build/kservice.o
rt_device_init                                    build/device.o
rt_device_init_all                                build/device.o
rt_device_open                                    build/device.o
                                                  build/shell.o
                                                  build/kservice.o
rt_device_read                                    build/device.o
                                                  build/shell.o
rt_device_register                                build/device.o
rt_device_set_rx_indicate                         build/device.o
                                                  build/shell.o
rt_device_set_tx_complete                         build/device.o
rt_device_unregister                              build/device.o
rt_device_write                                   build/device.o
                                                  build/kservice.o
rt_enter_critical                                 build/scheduler.o
                                                  build/object.o
rt_event_control                                  build/ipc.o
rt_event_create                                   build/ipc.o
rt_event_delete                                   build/ipc.o
rt_event_detach                                   build/ipc.o
rt_event_init                                     build/ipc.o
rt_event_recv                                     build/ipc.o
rt_event_send                                     build/ipc.o
rt_exit_critical                                  build/scheduler.o
                                                  build/object.o
rt_free                                           build/mem.o
                                                  build/device.o
                                                  build/shell.o
                                                  build/object.o
                                                  build/kservice.o
                                                  build/ipc.o
                                                  build/idle.o
rt_free_align                                     build/kservice.o
rt_free_sethook                                   build/mem.o
rt_get_errno                                      build/kservice.o
rt_heap_begin_get                                 build/board.o
rt_heap_end_get                                   build/board.o
rt_hw_board_init                                  build/board.o
                                                  build/components.o
rt_hw_console_getchar                             build/board.o
                                                  build/shell.o
rt_hw_console_output                              build/board.o
                                                  build/kservice.o
rt_hw_context_switch                              build/context_gcc.o
                                                  build/scheduler.o
rt_hw_context_switch_interrupt                    build/context_gcc.o
                                                  build/scheduler.o
rt_hw_context_switch_to                           build/context_gcc.o
                                                  build/scheduler.o
rt_hw_cpu_reset                                   build/cpuport.o
rt_hw_cpu_shutdown                                build/cpuport.o
rt_hw_exception_install                           build/cpuport.o
rt_hw_hard_fault_exception                        build/cpuport.o
                                                  build/context_gcc.o
rt_hw_interrupt_disable                           build/context_gcc.o
                                                  build/cmd.o
                                                  build/timer.o
                                                  build/thread.o
                                                  build/scheduler.o
                                                  build/object.o
                                                  build/mem.o
                                                  build/irq.o
                                                  build/ipc.o
                                                  build/idle.o
                                                  build/components.o
                                                  build/clock.o
rt_hw_interrupt_enable                            build/context_gcc.o
                                                  build/cmd.o
                                                  build/timer.o
                                                  build/thread.o
                                                  build/scheduler.o
                                                  build/object.o
                                                  build/mem.o
                                                  build/irq.o
                                                  build/ipc.o
                                                  build/idle.o
                                                  build/clock.o
rt_hw_interrupt_thread_switch                     build/context_gcc.o
rt_hw_stack_init                                  build/cpuport.o
                                                  build/thread.o
rt_interrupt_enter                                build/irq.o
                                                  build/board.o
rt_interrupt_enter_sethook                        build/irq.o
rt_interrupt_from_thread                          build/cpuport.o
                                                  build/context_gcc.o
rt_interrupt_get_nest                             build/irq.o
                                                  build/object.o
                                                  build/mem.o
                                                  build/kservice.o
                                                  build/ipc.o
                                                  build/idle.o
rt_interrupt_leave                                build/irq.o
                                                  build/board.o
rt_interrupt_leave_sethook                        build/irq.o
rt_interrupt_nest                                 build/irq.o
                                                  build/scheduler.o
rt_interrupt_to_thread                            build/cpuport.o
                                                  build/context_gcc.o
rt_kprintf                                        build/kservice.o
                                                  build/device.o
                                                  build/shell.o
                                                  build/msh.o
                                                  build/cmd.o
                                                  build/cpuport.o
                                                  build/scheduler.o
                                                  build/object.o
                                                  build/mem.o
                                                  build/ipc.o
                                                  build/idle.o
                                                  build/components.o
                                                  build/main.o
rt_kputs                                          build/kservice.o
rt_malloc                                         build/mem.o
                                                  build/device.o
                                                  build/shell.o
                                                  build/thread.o
                                                  build/object.o
                                                  build/kservice.o
                                                  build/ipc.o
rt_malloc_align                                   build/kservice.o
rt_malloc_sethook                                 build/mem.o
rt_mb_control                                     build/ipc.o
rt_mb_create                                      build/ipc.o
rt_mb_delete                                      build/ipc.o
rt_mb_detach                                      build/ipc.o
rt_mb_init                                        build/ipc.o
rt_mb_recv                                        build/ipc.o
rt_mb_send                                        build/ipc.o
rt_mb_send_wait                                   build/ipc.o
rt_memcmp                                         build/kservice.o
rt_memcpy                                         build/kservice.o
                                                  build/mem.o
                                                  build/ipc.o
rt_memmove                                        build/kservice.o
                                                  build/shell.o
rt_memory_info                                    build/mem.o
rt_memset                                         build/kservice.o
                                                  build/device.o
                                                  build/thread.o
                                                  build/object.o
                                                  build/mem.o
rt_mq_control                                     build/ipc.o
rt_mq_create                                      build/ipc.o
rt_mq_delete                                      build/ipc.o
rt_mq_detach                                      build/ipc.o
rt_mq_init                                        build/ipc.o
rt_mq_recv                                        build/ipc.o
rt_mq_send                                        build/ipc.o
rt_mq_send_wait                                   build/ipc.o
rt_mq_urgent                                      build/ipc.o
rt_mutex_control                                  build/ipc.o
rt_mutex_create                                   build/ipc.o
rt_mutex_delete                                   build/ipc.o
rt_mutex_detach                                   build/ipc.o
rt_mutex_init                                     build/ipc.o
rt_mutex_release                                  build/ipc.o
rt_mutex_take                                     build/ipc.o
rt_object_allocate                                build/object.o
                                                  build/timer.o
                                                  build/thread.o
                                                  build/ipc.o
rt_object_attach_sethook                          build/object.o
rt_object_delete                                  build/object.o
                                                  build/timer.o
                                                  build/thread.o
                                                  build/ipc.o
                                                  build/idle.o
rt_object_detach                                  build/object.o
                                                  build/device.o
                                                  build/timer.o
                                                  build/thread.o
                                                  build/ipc.o
rt_object_detach_sethook                          build/object.o
rt_object_find                                    build/object.o
                                                  build/device.o
                                                  build/thread.o
rt_object_get_information                         build/object.o
                                                  build/cmd.o
rt_object_get_length                              build/object.o
rt_object_get_pointers                            build/object.o
rt_object_get_type                                build/object.o
                                                  build/device.o
                                                  build/timer.o
                                                  build/thread.o
                                                  build/ipc.o
rt_object_init                                    build/object.o
                                                  build/device.o
                                                  build/timer.o
                                                  build/thread.o
                                                  build/ipc.o
rt_object_is_systemobject                         build/object.o
                                                  build/device.o
                                                  build/timer.o
                                                  build/thread.o
                                                  build/ipc.o
rt_object_put_hook                                build/object.o
                                                  build/timer.o
                                                  build/ipc.o
rt_object_put_sethook                             build/object.o
rt_object_take_hook                               build/object.o
                                                  build/timer.o
                                                  build/ipc.o
rt_object_take_sethook                            build/object.o
rt_object_trytake_hook                            build/object.o
                                                  build/ipc.o
rt_object_trytake_sethook                         build/object.o
rt_realloc                                        build/mem.o
rt_schedule                                       build/scheduler.o
                                                  build/timer.o
                                                  build/thread.o
                                                  build/ipc.o
rt_schedule_insert_thread                         build/scheduler.o
                                                  build/thread.o
rt_schedule_remove_thread                         build/scheduler.o
                                                  build/thread.o
rt_scheduler_sethook                              build/scheduler.o
rt_sem_control                                    build/ipc.o
rt_sem_create                                     build/ipc.o
rt_sem_delete                                     build/ipc.o
rt_sem_detach                                     build/ipc.o
rt_sem_init                                       build/ipc.o
                                                  build/shell.o
                                                  build/mem.o
rt_sem_release                                    build/ipc.o
                                                  build/shell.o
                                                  build/mem.o
rt_sem_take                                       build/ipc.o
                                                  build/shell.o
                                                  build/mem.o
rt_sem_trytake                                    build/ipc.o
rt_set_errno                                      build/kservice.o
                                                  build/device.o
rt_show_version                                   build/kservice.o
                                                  build/cmd.o
                                                  build/components.o
rt_snprintf                                       build/kservice.o
rt_soft_timer_check                               build/timer.o
rt_sprintf                                        build/kservice.o
rt_strcasecmp                                     build/kservice.o
rt_strcmp                                         build/kservice.o
rt_strdup                                         build/kservice.o
rt_strlen                                         build/kservice.o
                                                  build/board.o
rt_strncmp                                        build/kservice.o
                                                  build/object.o
rt_strncpy                                        build/kservice.o
                                                  build/msh.o
                                                  build/object.o
rt_strnlen                                        build/kservice.o
rt_strstr                                         build/kservice.o
rt_system_heap_init                               build/mem.o
                                                  build/board.o
rt_system_object_init                             build/object.o
rt_system_scheduler_init                          build/scheduler.o
                                                  build/components.o
rt_system_scheduler_start                         build/scheduler.o
                                                  build/components.o
rt_system_tick_init                               build/clock.o
rt_system_timer_init                              build/timer.o
                                                  build/components.o
rt_system_timer_thread_init                       build/timer.o
                                                  build/components.o
rt_thread_control                                 build/thread.o
                                                  build/ipc.o
rt_thread_create                                  build/thread.o
                                                  build/shell.o
                                                  build/components.o
rt_thread_defunct                                 build/scheduler.o
                                                  build/thread.o
                                                  build/idle.o
rt_thread_delay                                   build/thread.o
                                                  build/timer.o
rt_thread_delay_until                             build/thread.o
rt_thread_delete                                  build/thread.o
rt_thread_detach                                  build/thread.o
rt_thread_exit                                    build/thread.o
rt_thread_find                                    build/thread.o
rt_thread_idle_delhook                            build/idle.o
rt_thread_idle_excute                             build/idle.o
rt_thread_idle_gethandler                         build/idle.o
rt_thread_idle_init                               build/idle.o
                                                  build/components.o
rt_thread_idle_sethook                            build/idle.o
rt_thread_init                                    build/thread.o
                                                  build/timer.o
                                                  build/idle.o
rt_thread_inited_sethook                          build/thread.o
rt_thread_mdelay                                  build/thread.o
                                                  build/board.o
                                                  build/main.o
rt_thread_priority_table                          build/scheduler.o
                                                  build/thread.o
rt_thread_ready_priority_group                    build/scheduler.o
rt_thread_resume                                  build/thread.o
                                                  build/timer.o
                                                  build/ipc.o
rt_thread_resume_sethook                          build/thread.o
rt_thread_self                                    build/thread.o
                                                  build/cpuport.o
                                                  build/timer.o
                                                  build/kservice.o
                                                  build/ipc.o
                                                  build/clock.o
rt_thread_sleep                                   build/thread.o
rt_thread_startup                                 build/thread.o
                                                  build/shell.o
                                                  build/timer.o
                                                  build/idle.o
                                                  build/components.o
rt_thread_suspend                                 build/thread.o
                                                  build/timer.o
                                                  build/ipc.o
rt_thread_suspend_sethook                         build/thread.o
rt_thread_switch_interrupt_flag                   build/cpuport.o
                                                  build/context_gcc.o
rt_thread_timeout                                 build/thread.o
rt_thread_yield                                   build/thread.o
                                                  build/clock.o
rt_tick_from_millisecond                          build/clock.o
                                                  build/thread.o
rt_tick_get                                       build/clock.o
                                                  build/cmd.o
                                                  build/timer.o
                                                  build/thread.o
                                                  build/ipc.o
rt_tick_increase                                  build/clock.o
                                                  build/board.o
rt_tick_set                                       build/clock.o
rt_timer_check                                    build/timer.o
                                                  build/clock.o
rt_timer_control                                  build/timer.o
                                                  build/thread.o
                                                  build/ipc.o
rt_timer_create                                   build/timer.o
rt_timer_delete                                   build/timer.o
rt_timer_detach                                   build/timer.o
                                                  build/thread.o
rt_timer_enter_sethook                            build/timer.o
rt_timer_exit_sethook                             build/timer.o
rt_timer_init                                     build/timer.o
                                                  build/thread.o
rt_timer_next_timeout_tick                        build/timer.o
rt_timer_start                                    build/timer.o
                                                  build/thread.o
                                                  build/ipc.o
rt_timer_stop                                     build/timer.o
                                                  build/thread.o
rt_vsnprintf                                      build/kservice.o
rt_vsprintf                                       build/kservice.o
rtthread_startup                                  build/components.o
shell                                             build/shell.o
software_init_hook                                c:/gcc-arm-none-eabi-10-2020-q4-major/bin/../lib/gcc/arm-none-eabi/10.2.1/../../../../arm-none-eabi/lib/thumb/v7e-m/nofp/crt0.o
strcpy                                            c:/gcc-arm-none-eabi-10-2020-q4-major/bin/../lib/gcc/arm-none-eabi/10.2.1/../../../../arm-none-eabi/lib/thumb/v7e-m/nofp\libc_nano.a(lib_a-strcpy.o)
                                                  build/shell.o
strlen                                            c:/gcc-arm-none-eabi-10-2020-q4-major/bin/../lib/gcc/arm-none-eabi/10.2.1/../../../../arm-none-eabi/lib/thumb/v7e-m/nofp\libc_nano.a(lib_a-strlen.o)
                                                  build/shell.o
                                                  build/msh.o
strncmp                                           c:/gcc-arm-none-eabi-10-2020-q4-major/bin/../lib/gcc/arm-none-eabi/10.2.1/../../../../arm-none-eabi/lib/thumb/v7e-m/nofp\libc_nano.a(lib_a-strncmp.o)
                                                  build/msh.o
                                                  build/cmd.o
strncpy                                           c:/gcc-arm-none-eabi-10-2020-q4-major/bin/../lib/gcc/arm-none-eabi/10.2.1/../../../../arm-none-eabi/lib/thumb/v7e-m/nofp\libc_nano.a(lib_a-strncpy.o)
                                                  build/shell.o
uwTick                                            build/stm32f4xx_hal.o
uwTickFreq                                        build/stm32f4xx_hal.o
uwTickPrio                                        build/stm32f4xx_hal.o
                                                  build/stm32f4xx_hal_rcc_ex.o
                                                  build/stm32f4xx_hal_rcc.o
version                                           build/cmd.o
