:020000040800F2
:1000000000000220B1500008290900087102000810
:100010002B0900082D0900082F0900080000000026
:100020000000000000000000000000000151000876
:100030003109000800000000F7010008253C000815
:100040000151000801510008015100080151000848
:100050000151000801510008015100080151000838
:100060000151000801510008015100080151000828
:100070000151000801510008015100080151000818
:100080000151000801510008015100080151000808
:1000900001510008015100080151000801510008F8
:1000A00001510008015100080151000801510008E8
:1000B00001510008015100080151000801510008D8
:1000C00001510008015100080151000801510008C8
:1000D00001510008015100080151000801510008B8
:1000E00001510008015100080151000801510008A8
:1000F0000151000801510008015100080151000898
:100100000151000801510008015100080151000887
:100110000151000801510008015100080151000877
:100120000151000801510008015100080151000867
:100130000151000801510008015100080151000857
:100140000151000801510008015100080151000847
:100150000151000801510008015100080151000837
:100160000151000801510008015100080151000827
:100170000151000801510008015100080000000071
:080180000151000801510008C3
:1001880010B5054C237833B9044B13B10448AFF3C9
:1001980000800123237010BD9000002000000000A3
:1001A800C851000808B5034B1BB103490348AFF316
:1001B800008008BD0000000094000020C85100081D
:1001C800EFF3108072B6704780F310887047344A96
:1001D8001368012B04D04FF001031360314A1060FB
:1001E800314A116031484FF0805101607047EFF398
:1001F800108272B62A48016891B14FF0000101607F
:100208002848016829B1EFF3098121E9F00F006856
:100218000160254909680968B1E8F00F81F3098888
:1002280082F310884EF0040E70471F4908601D497C
:100238004FF0000008601A494FF0010008601C48A0
:100248001C49D0F8002041EA0201016017484FF02C
:100258008051016018480068006800BF80F3088872
:1002680061B662B6704700BFEFF308801EF0040F56
:1002780001D0EFF3098020E9F00F40F804ED1EF0FB
:10028800040F02D080F3098801E080F3088800B5E4
:1002980003F014FC5DF804EB4EF0040E7047000008
:1002A800C4080020BC080020C008002004ED00E0BD
:1002B80020ED00E00000FFFF08ED00E0034613F822
:1002C800012B002AFBD1181A0138704753B94AB9D3
:1002D800002908BF00281CBF4FF0FF314FF0FF3046
:1002E80000F074B9ADF1080C6DE904CE00F006F821
:1002F800DDF804E0DDE9022304B070472DE9F0479A
:10030800089E0D4604468846002B4DD18A429446E5
:1003180068D9B2FA82F252B101FA02F3C2F12001AD
:1003280020FA01F10CFA02FC41EA030894404FEA72
:100338001C45210CB8FBF5FE1FFA8CF705FB1E8344
:1003480041EA03430EFB07F199420BD91CEB030367
:100358000EF1FF3080F01E81994240F21B81AEF110
:10036800020E63445B1AA4B2B3FBF5F005FB10332D
:1003780044EA034400FB07F7A7420AD91CEB04042C
:1003880000F1FF3380F00881A74240F20581644400
:100398000238E41B40EA0E4000211EB1D44000237D
:1003A800C6E90043BDE8F0878B4208D9002E00F06B
:1003B800EE800021C6E900050846BDE8F087B3FADB
:1003C80083F100294AD1AB4202D3824200F2F9807C
:1003D800841A65EB030301209846002EE2D0C6E993
:1003E8000048DFE702B9FFDEB2FA82F2002A40F0E5
:1003F8009180A1EB0C054FEA1C471FFA8CFE0121E6
:10040800B5FBF7F307FB1350250C45EA00450EFB37
:1004180003F0A84208D91CEB050503F1FF3802D206
:10042800A84200F2CB8043462D1AA4B2B5FBF7F0E0
:1004380007FB105544EA05440EFB00FEA64508D903
:100448001CEB040400F1FF3502D2A64500F2BB8084
:100458002846A4EB0E0440EA03409EE7C1F12007BA
:100468008B4022FA07FC4CEA030C20FA07F405FA41
:1004780001F31C43FD404FEA1C4900FA01F3B5FBA8
:10048800F9F8200C1FFA8CFE09FB185540EA0545BF
:1004980008FB0EF0A84202FA01F20BD91CEB050585
:1004A80008F1FF3A80F08880A84240F28580A8F1E0
:1004B800020865442D1AA4B2B5FBF9F009FB1055E2
:1004C80044EA054500FB0EFEAE4508D91CEB0505C0
:1004D80000F1FF346CD2AE456AD90238654440EA6F
:1004E8000840A0FB0294A5EB0E05A542C846A64607
:1004F80056D353D05EB1B3EB080265EB0E0505FA8F
:1005080007F722FA01F3CD401F43C6E90075002121
:10051800BDE8F087C2F1200320FA03F10CFA02FCCF
:1005280025FA03F395400D434FEA1C471FFA8CFE4A
:10053800B3FBF7F107FB11302B0C43EA004301FB37
:100548000EF0984204FA02F408D91CEB030301F1F7
:10055800FF382FD298422DD9023963441B1AADB205
:10056800B3FBF7F007FB103345EA034500FB0EF336
:10057800AB4208D91CEB050500F1FF3816D2AB4297
:1005880014D902386544ED1A40EA014138E731468A
:10059800304607E78646E5E61846FAE64B45A9D20F
:1005A800B9EB020864EB0C0E0138A3E74046EAE712
:1005B800204694E74146D1E7D0467BE7023B6544B5
:1005C80032E7084609E76444023842E7704700BF4B
:1005D80072B6FEE700B595B03022002108A804F0F5
:1005E800BFFD002303930493059306930793019398
:1005F800204A116C41F080511164126C02F0805253
:100608000192019A02931C4B1A6842F480421A60C4
:100618001B6803F480430293029B012308934FF461
:100628008033099302220E924FF480030F93042320
:100638001093A82111911292139308A800F092F92F
:1006480098B90F23039302230493002305934FF4CF
:10065800A05306934FF480530793052103A800F095
:10066800E7FB20B915B05DF804FBFFF7B1FFFFF712
:10067800AFFF00BF003802400070004008B500F02E
:1006880033FEFFF7A7FF00F01DF800F0F7F8094860
:1006980001F068FD084801F065FD084801F062FDB9
:1006A8000221074800F092FD4FF4FA7002F0FEFCB8
:1006B800EDE700BF305300084453000854530008C6
:1006C80000100240F0B58FB0002409940A940B94EE
:1006D8000C940D9400945F4B1A6B42F010021A634D
:1006E8001A6B02F010020092009A01941A6B42F4FD
:1006F80080721A631A6B02F480720192019A029452
:100708001A6B42F004021A631A6B02F00402029296
:10071800029A03941A6B42F020021A631A6B02F0D1
:1007280020020392039A04941A6B42F080021A631F
:100738001A6B02F080020492049A05941A6B42F034
:1007480001021A631A6B02F001020592059A0694D7
:100758001A6B42F002021A631A6B02F00202069246
:10076800069A07941A6B42F040021A631A6B02F059
:1007780040020792079A08941A6B42F008021A631B
:100788001B6B03F008030893089B334E2246032192
:10079800304600F015FD1C2309930A940B9409A90F
:1007A800304600F01BFC4FF6E073099303250A95C9
:1007B8000B9409A9304600F011FC40F6FF73099329
:1007C8000A950B9409A9254800F008FC4FF6FF7715
:1007D80009970A950B9409A9214800F0FFFB09978E
:1007E8000A950B9409A91F4800F0F8FB49F6FF7316
:1007F80009930A950B9409A91B4800F0EFFB4FF6E3
:10080800FC7309930A950B9409A9184800F0E6FBB4
:100818004FF63F7309930A950B9409A9144800F001
:10082800DDFB09970A950B9409A9124800F0D6FB3D
:1008380009970A950B9409A90F4800F0CFFB099571
:1008480001230A930B940C9409A9304600F0C6FBC7
:100858000FB0F0BD003802400010024000200240F6
:10086800000802400014024000000240001C024040
:100878000004024000180240000C024008B50A4873
:100888000A4B03604FF4E133436000238360C36085
:1008980003610C2242618361C36100F011FE00B95B
:1008A80008BDFFF795FEFBE7AC00002000100140F3
:1008B80000B589B000230393049305930693079327
:1008C800026803F1804303F588339A4202D009B0E5
:1008D8005DF804FB0021019103F594335A6C42F052
:1008E80010025A645A6C02F010020192019A0291A5
:1008F8001A6B42F002021A631B6B03F002030293A5
:10090800029BC02303930223049303230693072324
:10091800079303A9014800F061FBD8E700040240EF
:10092800FEE7FEE7FEE7FEE77047000082B0002121
:1009380000910B4B5A6C42F480425A645A6C02F490
:1009480080420092009A01911A6C42F080521A6417
:100958001B6C03F080530193019B02B0704700BFEA
:1009680000380240002800F0E08170B582B00446EB
:10097800036813F0010F3BD09F4B9B6803F00C03F7
:10098800042B2CD09C4B9B6803F00C03082B21D024
:100998006368B3F5803F4FD0B3F5A02F52D0964B84
:1009A8001A6822F480321A601A6822F480221A60C7
:1009B8006368002B50D000F0B1FC05468E4B1B68D5
:1009C80013F4003F14D100F0A9FC401B6428F5D9AA
:1009D8000320B1E1884B5B6813F4800FD8D0864BB5
:1009E8001B6813F4003F03D06368002B00F09F815D
:1009F800236813F0020F54D07F4B9B6813F00C0F41
:100A08003ED07D4B9B6803F00C03082B33D0E36882
:100A1800002B68D0794B01221A6000F07FFC054654
:100A2800754B1B6813F0020F54D100F077FC401B84
:100A38000228F5D903207FE16F4A136843F4803315
:100A48001360B5E76C4B1A6842F480221A601A6882
:100A580042F480321A60ABE700F060FC0546664B52
:100A68001B6813F4003FC3D000F058FC401B6428F7
:100A7800F5D9032060E1604B5B6813F4800FC6D1A1
:100A88005D4B1B6813F0020F03D0E368012B40F0A5
:100A98005081594A136823F0F803216943EAC103D6
:100AA8001360236813F0080F42D063696BB3534B8C
:100AB8000122C3F8802E00F031FC05464E4B5B6FD7
:100AC80013F0020F34D100F029FC401B0228F5D99D
:100AD800032031E1484A136823F0F803216943EA07
:100AE800C1031360DDE7454B00221A6000F016FCD5
:100AF8000546414B1B6813F0020FD2D000F00EFCE4
:100B0800401B0228F5D9032016E13C4B0022C3F80C
:100B1800802E00F003FC0546374B5B6F13F0020F85
:100B280006D000F0FBFB401B0228F5D9032003E1A7
:100B3800236813F0040F77D02F4B1B6C13F0805FE2
:100B480033D1002301932C4B1A6C42F080521A6463
:100B58001B6C03F080530193019B0125284B1B68F4
:100B680013F4807F23D0A368012B34D0052B38D011
:100B7800214B1A6F22F001021A671A6F22F0040241
:100B88001A67A368002B3DD000F0C8FB06461A4B35
:100B98001B6F13F0020F46D100F0C0FB801B41F21F
:100BA80088339842F3D90320C6E00025D6E7144AD3
:100BB800136843F48073136000F0B0FB0646104BD3
:100BC8001B6813F4807FCED100F0A8FB801B02289D
:100BD800F5D90320B0E0084A136F43F00103136707
:100BE800CFE7054B1A6F42F004021A671A6F42F0FA
:100BF80001021A67C5E700BF0038024000004742FB
:100C08000070004000F08AFB0646524B1B6F13F041
:100C1800020F08D000F082FB801B41F28833984213
:100C2800F3D9032088E0EDB9A369002B00F0838095
:100C3800484A926802F00C02082A51D0022B17D0B9
:100C4800454B00221A6600F069FB0446414B1B68BD
:100C580013F0007F42D000F061FB001B0228F5D999
:100C6800032069E03B4A136C23F080531364DBE7ED
:100C7800394B00221A6600F051FB0546354B1B68BC
:100C880013F0007F06D000F049FB401B0228F5D97D
:100C9800032051E0E369226A1343626A43EA82133C
:100CA800A26A5208013A43EA0243E26A43EA02634B
:100CB800284A5360284B01221A6600F02FFB04468D
:100CC800244B1B6813F0007F06D100F027FB001BA4
:100CD8000228F5D903202FE000202DE000202BE08A
:100CE800012B2BD01B4B5B6803F48001E269914216
:100CF80026D103F03F02216A8A4223D1616A47F66E
:100D0800C0721A40B2EB811F1ED103F44031A26AAF
:100D18005208013AB1EB024F18D103F07063E26A4E
:100D2800B3EB026F14D1002006E0012070470120C8
:100D380002E0012000E0002002B070BD0120FBE7C6
:100D48000120F9E70120F7E70120F5E70120F3E7A3
:100D58000120F1E7003802400000474208B5314B56
:100D68009B6803F00C03042B57D0082B57D12D4B4D
:100D78005A6802F03F025B6813F4800F2AD0294BAF
:100D88005968C1F3881C4FEA4C11B1EB0C006EEBAB
:100D98000E0E4FEA8E1343EA90638101091A63EB42
:100DA8000E03DB0043EA5173C90011EB0C0C43F14D
:100DB8000003590200234FEA4C2041EADC51FFF7B7
:100DC80085FA184B5B68C3F3014301335B00B0FB42
:100DD800F3F025E0134B5968C1F3881C4FEA4C1116
:100DE800B1EB0C006EEB0E0E4FEA8E1343EA9063E4
:100DF8008101091A63EB0E03DB0043EA5173C90052
:100E080011EB0C0C43F10003990200234FEA8C20EC
:100E180041EA9C51FFF75AFAD3E7034800E0034838
:100E280008BD00BF0038024000127A000024F40018
:100E3800002800F09B8070B50D4604464F4B1B6898
:100E480003F007038B4208D2CBB24C4A13701368E5
:100E580003F007038B4240F08B80236813F0020FE6
:100E680017D013F0040F04D0454A936843F4E053B5
:100E78009360236813F0080F04D0414A936843F441
:100E8800604393603E4A936823F0F003A1680B43E4
:100E98009360236813F0010F32D06368012B21D0CF
:100EA8009A1E012A25D9364A126812F0020F61D01B
:100EB80033498A6822F0030213438B6000F02EFA4C
:100EC80006462F4B9B6803F00C036268B3EB820F56
:100ED80016D000F023FA801B41F288339842F0D9EB
:100EE800032042E0264A126812F4003FE0D10120B4
:100EF8003BE0234A126812F0007FD9D1012034E088
:100F08001E4B1B6803F00703AB4207D9EAB21B4B21
:100F18001A701B6803F00703AB422DD1236813F046
:100F2800040F06D0164A936823F4E053E1680B4394
:100F38009360236813F0080F07D0114A936823F4CD
:100F48006043216943EAC1039360FFF707FF0C4B35
:100F58009B68C3F303130B4AD35CD8400A4B186051
:100F68000A4B186800F09AF9002070BD01207047FC
:100F78000120FAE70120F8E70120F6E7003C0240EB
:100F8800003802405C5300080800002004000020DC
:100F9800014B1868704700BF0800002008B5FFF72C
:100FA800F7FF044B9B68C3F38223034AD35CD84002
:100FB80008BD00BF003802406C53000808B5FFF7B1
:100FC800E7FF044B9B68C3F34233034AD35CD84022
:100FD80008BD00BF003802406C53000800230F2BE7
:100FE80000F2E48070B582B060E085685E0003249A
:100FF800B44025EA0405CC68B4402C4384604568B5
:1010080025EA02054C68C4F300129A402A4342605C
:101018005AE0DC08083450F8246003F00702950011
:101028000F22AA4026EA020E0A69AA4042EA0E02E4
:1010380040F824205CE0072200E0002202FA0EF2C9
:101048002A4302345A4D45F824205A4A94686FEAD4
:101058000C0224EA0C054E6816F4801F01D04CEAF5
:101068000405544CA560E46802EA04054E6816F4C9
:10107800001F01D04CEA04054E4CE560646802EAA2
:1010880004054E6816F4003F01D04CEA0405494CAB
:101098006560246822404D6815F4803F01D04CEA11
:1010A8000402444C226001330F2B7DD801229A4060
:1010B8000C6804EA020C32EA0404F4D14C6804F027
:1010C8000304013C012C90D94A6802F00302032A68
:1010D80009D0C4685D000322AA4024EA02048A6891
:1010E800AA402243C2604A6802F00302022A90D052
:1010F80004684FEA430E032202FA0EF224EA0204BD
:101108004A6802F0030202FA0EF2224302604A68B9
:1011180012F4403FC7D000220192274A546C44F48D
:1011280080445464526C02F480420192019A9C08F3
:10113800A51C1F4A52F8255003F003024FEA820EFD
:101148000F2202FA0EF225EA02051C4A90423FF4E9
:1011580074AF02F5806290421AD002F58062904224
:1011680018D002F58062904216D002F58062904253
:1011780014D002F58062904212D002F5806290424B
:1011880010D002F5806290423FF455AF082255E72F
:10119800012253E7022251E703224FE704224DE7D9
:1011A80005224BE7062249E702B070BD704700BF31
:1011B80000380140003C0140003802400000024075
:1011C8000AB181617047090481617047436901EA86
:1011D800030221EA030141EA0241816170470000EC
:1011E800074AD36823F4E0631B041B0C000200F4D5
:1011F800E060034343F0BF6343F40033D3607047B8
:1012080000ED00E000B5194BDB68C3F30223C3F11E
:10121800070CBCF1040F28BF4FF0040C03F1040EB7
:10122800BEF1060F18D9033B4FF0FF3E0EFA0CFC37
:1012380021EA0C0199400EFA03F322EA0303194349
:1012480000280BDB0901C9B200F1604000F56140DC
:1012580080F800135DF804FB0023E5E700F00F00B9
:101268000901C9B2024B1954F4E700BF00ED00E0D0
:1012780014ED00E00138B0F1807F0BD24FF0E0238D
:101288005861054AF02182F823100020986107224E
:101298001A6170470120704700ED00E010B5044660
:1012A8000E4B18784FF47A73B3FBF0F30C4A1068BE
:1012B800B0FBF3F0FFF7DEFF68B90F2C01D901206E
:1012C8000AE0002221464FF0FF30FFF79BFF054B55
:1012D8001C60002000E0012010BD00BF00000020BD
:1012E800080000200400002008B50B4B1A6842F4DF
:1012F80000721A601A6842F480621A601A6842F42E
:1013080080721A600320FFF76BFF0020FFF7C6FF0B
:10131800FFF70CFB002008BD003C0240014B186899
:10132800704700BFF000002038B504460268136912
:1013380023F44053C1680B43136183680269134364
:1013480042691343C2691A430168CB6823F4164300
:1013580023F00C031343CB600268536923F44073F2
:1013680081690B4353610368314A934206D002F501
:101378008062934202D0FFF711FE01E0FFF71EFEE4
:10138800E369B3F5004F29D00021031849411B1820
:1013980041F10001C90041EA5371DB001818636884
:1013A8004FEA83024FEA937341F10001FEF78EFF83
:1013B800204DA5FB00325109642303FB11031B01D7
:1013C8003233A5FB03235B0903F0F00202EB0112A1
:1013D80003F00F03216813448B6038BD0023021803
:1013E80043EB0301121841F10001C90041EA5271AF
:1013F800D200101841F10001626892185B41FEF7B3
:1014080065FF0C4DA5FB00325109642303FB110352
:10141800DB003233A5FB03235B095A0002F4F872A0
:1014280002EB011203F00703216813448B60D4E731
:10143800001001401F85EB512DE9F84305460F4682
:1014480016469946DDF820802C68246837EA04039C
:101458000CBF4FF0010C4FF0000CB4452DD1B8F182
:10146800FF3FF1D0B8F1000F05D0FFF757FFA0EB11
:1014780009004045E8D92A6802F10C0353E8003F07
:1014880023F4D0730C3242E800310029F3D12A68E2
:1014980002F1140353E8003F23F00103143242E839
:1014A80000310029F3D1202385F83D3085F83E30FE
:1014B800002385F83C30032000E00020BDE8F883D5
:1014C80058B310B5044690F83D300BB3242384F884
:1014D8003D302268D36823F40053D3602046FFF7D9
:1014E80023FF2268136923F4904313612268536928
:1014F80023F02A0353612268D36843F40053D3606E
:1015080000202064202384F83D3084F83E3010BD4C
:1015180080F83C30FFF7CCF9D8E7012070472DE977
:10152800F04182B01E4690F83D30DBB2202B54D1FA
:1015380004460D469046002953D0002A53D090F80F
:101548003C30012B51D0012380F83C300023036448
:10155800212380F83D30FFF7E1FE0746A4F82480F8
:10156800A4F82680A368B3F5805F05D04FF0000883
:10157800002384F83C3012E0236913B14FF00008CF
:10158800F6E7A8460025F3E738F8023B2268C3F3DC
:1015980008035360E28C92B2013A92B2E284E38C7F
:1015A8009BB273B100963B46002280212046FFF78C
:1015B80043FFE0B9002DE7D015F8012B23685A60E6
:1015C800E8E700963B46002240212046FFF734FF1B
:1015D80078B9202384F83D3000E0022002B0BDE84D
:1015E800F0810120FAE70120F8E70220F6E703205E
:1015F800F4E70320F2E77047224B9B6803F00C03E3
:10160800042B14D0082B16D01BB11F4B1F4A1A608D
:1016180002E01D4B1D4A1A601A4B9B68C3F3031363
:101628001B4AD15C184A1368CB4013607047164BAD
:10163800184A1A60F0E7134B59685A6802F03F02DB
:1016480011F4800F13D0134BB3FBF2F30D4A526819
:10165800C2F3881202FB03F30A4A5268C2F301423A
:1016680001325200B3FBF2F3074A1360D4E7074B89
:10167800B3FBF2F3034A5268C2F3881202FB03F386
:10168800EAE700BF00380240080000200024F40008
:101698005C53000800127A00014B1868704700BFBD
:1016A800F400002008B5094A13680133136001F0FB
:1016B80017FC836C013B836413B101F04DFF08BD37
:1016C800436C836401F03AFCF7E700BFF4000020A4
:1016D800002815DB0C4981FB0023C217C2EBA312BB
:1016E8004FF47A7C0CFB02F2831A0CFB03F303F22F
:1016F800E73381FB0301D817C0EBA11010447047F2
:101708004FF0FF30704700BFD34D62100020704784
:1017180000207047002070470020704710B5084C23
:101728000AE02168074800F01DFD636898470146F4
:10173800054800F017FD0834044B9C42F1D310BD56
:10174800F05200087453000884530008005300083E
:1017580010B50A4800F006FD094C0AE0216809485E
:1017680000F000FD636898470146074800F0FAFC5E
:101778000834064B9C42F1D310BD00BF90530008BB
:1017880000530008745300088453000810530008DD
:1017980008B5FFF7DDFFFEF771FF08BD10B582B091
:1017A800142301930A2300934FF48063002208490D
:1017B800084801F09BFB044620B1204601F0C2FC1A
:1017C80002B010BDC5220449044800F03BFDF4E70F
:1017D80099170008B0530008C8530008B853000808
:1017E80008B5FEF7EDFC02F021FA00F0E9FC01F083
:1017F800BBFF01F065F9FFF7D1FF01F0C3FF00F06F
:1018080057F801F083F9002008BD08B5FFF7E8FF95
:10181800002008BD38B5FEF7D3FC044600F0CEF929
:1018280018B92046FEF7D0FC1EE0144D294614488E
:1018380000F098FC93222946124800F003FDF0E7D7
:10184800114B1B681D4655F814195A684A601968E7
:1018580011605B601B60586900F0DEFE284601F0ED
:1018680061F82046FEF7B0FCFEF7AAFC0446064BDA
:101878001A689A42E4D1FEF7A7FC38BD4454000820
:1018880010540008385400080405002010B50BE077
:101898000134032C06D8054B53F82430002BF7D01D
:1018A8009847F5E7FFF7B6FF0024F2E77801002034
:1018B80010B584B00A4C202303931F2302934FF4DE
:1018C80080730193074B00930023074A074920467A
:1018D80001F0D0FA204601F035FC04B010BD00BF7D
:1018E800F800002088010020951800083C540008E2
:1018F800F8B50F4615461E46044678B1B5F5803F43
:1019080012D23A460221204600F046FF04F11403A1
:10191800A3616361A58366720020F8BDD2220549E0
:10192800054800F08FFCE9E7D3220249034800F09C
:1019380089FCE6E74C5500085C5400086C54000824
:101948002DE9F04182B00191054600284BD0284688
:1019580001F034F802284DD1554B1B680BB12846CD
:101968009847FEF72DFC0746AB8B002B49D1019B0E
:10197800002B4BD0FEF724FC044601F0B1FA0028F6
:1019880049D0FEF71DFC064600F018F900284ED194
:101998003046FEF719FC2046FEF716FC01F0A0FAC7
:1019A80004460023036305F1140695F8098001F045
:1019B800F3FAB8F1000F47D0B8F1010F4DD0019BF1
:1019C800002B68DC3846FEF7FFFB01F0B7F8206B08
:1019D80030B9384B1B68002B68D028469847002040
:1019E80002B0BDE8F0814FF4A6723349334800F0E5
:1019F80029FCACE740F24D122F49314800F022FC97
:101A0800AAE7013BAB83FEF7DFFBE2E7FEF7DCFB6F
:101A18006FF00100E4E7284E31462A4800F0A2FBA7
:101A280040F26D123146284800F00CFCA9E7DFF8B7
:101A380088804146254800F095FB40F26D124146EA
:101A4800214800F0FFFBA3E704F114037268136058
:101A58007268A26173606661B1E76B699E420FD0DC
:101A680094F8351093F82120914201D31B68F5E7CB
:101A780004F1140259680A605968A1615A606361E7
:101A88009E429CD104F11403726813607268A261CB
:101A98007360666193E704F14C0601AA00213046A1
:101AA80001F016FD304601F01DFC8BE7002097E79A
:101AB800F0040020EC040020405500085C540008A5
:101AC80080540008F85400083854000810540008DE
:101AD80038B50446E0B1204600F070FF02281ED158
:101AE8001C4B1B680BB120469847FEF769FB05465F
:101AF80004F114036069834218D0143801F0DCFA49
:101B080001242846FEF760FB012C1ED0204638BD74
:101B180040F2B7121049114800F094FBDBE74FF48C
:101B2800DC720D490E4800F08DFBD9E7A38B4FF608
:101B3800FF72934203D00133A3830024E1E72846D0
:101B4800FEF742FB6FF00204E0E700F0F7FF002425
:101B5800DCE700BFE8040020305500085C540008AA
:101B68008054000810B5FEF72BFB0446064A13788C
:101B78000133DBB21370054B1B6803B1984720464D
:101B8800FEF722FB10BD00BF900200208802002053
:101B980010B5FEF715FB0446064A1378013BDBB285
:101BA8001370054B1B6803B198472046FEF70CFBE2
:101BB80010BD00BF900200208C02002010B5FEF777
:101BC800FFFA034B1C78E4B2FEF7FEFA204610BD7C
:101BD800900200202DE9F04784B099460D9C0E9D97
:101BE80015F0400F17D0DFF848A115F0100F01D0FD
:101BF80025F0010515F0010F10D0302615F0020F61
:101C080011D0002A0CDB15F0040F21D115F0080FB4
:101C180020D1002708E0DFF81CA1E6E72026EDE741
:101C280052422D2700E000278ABB30238DF8003070
:101C38004FF0010CA4452DDC22460C9B9B1A15F095
:101C4800110F37D117B1002B00DD013B9E4625E06F
:101C58002B27E9E72027E7E7374BA3FB023E4FEAAC
:101C6800DE0E0EEB8E08A2EB480872461AF808E062
:101C780004AB634403F810EC0CF1010C002AD9D032
:101C8800B9F10A0FE8D002F00F081209EEE74FF099
:101C9800000CF3E76246D0E701309E460EF1FF33B1
:101CA800BEF1000F06DD8842F6D24FF0200E80F814
:101CB80000E0F1E727B1884200D20770013B01300C
:101CC80015F0100F02D00CE001302B465D1E002BE2
:101CD80003DD8842F8D20670F6E72B4601E00130B2
:101CE800724602F1FF3E624506DD8842F7D2302295
:101CF8000270F4E7013094460CF1FF32BCF1000F9A
:101D08000ADD4CB18842F5D204AD154415F8105CD3
:101D18000570EFE7013013465A1E002B04DD884298
:101D2800F8D220230370F5E704B0BDE8F08700BFC0
:101D38002057000834570008CDCCCCCC10B5044649
:101D4800FFF73CFF10B1054B1C6010BD01F0C8F84F
:101D580008B10463F9E7014B1C60F6E79402002020
:101D6800032A22D910B4CCB210F0030F1FD144EAD1
:101D7800042444EA0444034605E01C605C609C605B
:101D8800DC60103A10330F2AF7D802E043F8044B0E
:101D9800043A032AFAD802E003F8011B624602F16A
:101DA800FF3C002AF8D110BC7047034604E0034604
:101DB800F5E703F8011B624602F1FF3C002AF8D15F
:101DC8007047884218D98B18834217D900EB020C48
:101DD80004E013F8012D0CF8012D0A46511E002AC3
:101DE800F7D1704711F8012B03F8012B624602F175
:101DF800FF3C002AF6D170470346F8E70346F6E7AA
:101E08009AB110B5944603468E460C7801311C7081
:101E180001331CB1BCF1010CF6D110BDBCF1010CB1
:101E2800FBD0002203F8012BF8E770470346002097
:101E38006AB110B41C7811F8010B201A40B220B90D
:101E4800013314B1013A002AF4D110BC704770472D
:101E5800034600E001331A78002AFBD1181A7047AC
:101E68002DE9F04186B00746884614460593461882
:101E780003D36FEA00084FF0FF36384601E001301F
:101E880001342378002B00F05681252B03D0B04273
:101E9800F5D20370F3E7002101E041F0100114F8D6
:101EA800013F2D2BF9D02B2B08D0202B09D0232B29
:101EB8000AD0302B0BD141F00101F0E741F00401C9
:101EC800EDE741F00801EAE741F02001E7E7A3F177
:101ED8003002092A1BD92A2B1BD04FF0FF35237853
:101EE8002E2B21D04FF0FF3C2278682A43D06C2A51
:101EF80041D0002240E005EB850514F8013B03EBD7
:101F08004505303D2378303B092BF4D9E7E7002518
:101F1800F8E70134059B1A1D05921D68002DDEDACD
:101F28006D4241F01001DAE714F8013FA3F13002E5
:101F3800092A16D92A2B17D04FF0000CD4E70CEB3E
:101F48008C0C14F8013B03EB4C0CACF1300C2378EF
:101F5800303B092BF3D9BCF1000FC5DA4FF0000C68
:101F6800C2E74FF0000CF2E70134059B1A1D0592F9
:101F7800D3F800C0EFE701342378252B00F09180D7
:101F8800C0F0B080782B00F2AD80582BC0F0AA804A
:101F9800583B202B00F2A680DFE803F09CA4A4A401
:101FA800A4A4A4A4A4A4A411A0A4A4A4A4A0A4A484
:101FB800A4A4A4896FA4A430A4B3A4A4B50011F068
:101FC800100F09D0059B1A1D05921B78B04200D24C
:101FD8000370013009E00130013D002DF2DDB0420F
:101FE800F9D220230370F6E70130013D002D7FF779
:101FF80047AFB042F8D220230370F5E7059B1A1DBE
:1020080005921A680AB1002302E0524AFBE701333D
:10201800AB4204D012F803E0BEF1000FF7D1BCF1D7
:10202800000F02DD634500DD634611F0100F03D099
:1020380000210EE001300D46691EAB4204DAB042C1
:10204800F8D220250570F5E70D46F1E70130013299
:102058000131994208DAB042F8D292F800C080F80B
:1020680000C0F3E7013015466A1EAB42BFF608AF61
:10207800B042F7D220210170F4E7B5F1FF3F0CD050
:10208800059B1A1D05921A680291CDF804C00095A7
:1020980010233146FFF79EFDF2E641F001010825C5
:1020A800EEE7B04201D2252303700130E8E60823A9
:1020B8006C2A2AD0682A2FD0059A02F1040ECDF88E
:1020C80014E012680291CDF804C000953146FFF77C
:1020D80081FDD5E641F040011023E9E741F0020116
:1020E8000A23E5E7B04201D225230370421C237876
:1020F80023B1964200D943700230C1E6013C104634
:10210800BEE60A23D4E71023D2E7059A02F1040EAB
:10211800CDF814E01268D5E7059A02F1040ECDF85F
:1021280014E0D2F800E01FFA8EF211F0020FC9D0C5
:102138000FFA8EF2C6E7B8F1000F02D0B04204D20F
:102148000370C01B06B0BDE8F081002306F8013C0F
:10215800F7E700BF58550008014B1868704700BFE3
:10216800980200200FB410B582B004AB53F8042BCA
:10217800019340F2FF111048FFF772FE0346B0F5D5
:10218800007F01D340F2FF130C4A106878B1048B2A
:1021980044F040020283084A002102F02BFF074B5B
:1021A8001B681C8302B0BDE8104004B070470248A9
:1021B80001F05AFDF6E700BFA002002098020020B7
:1021C80000B583B00948FFF7CDFF0948FFF7CAFFFC
:1021D800084B00930523012203210748FFF7C2FF9C
:1021E8000648FFF7BFFF03B05DF804FB6055000821
:1021F8006C550008B055000890550008BC550008FB
:10220800E8B110F0FF020AD110F47F4F0BD110F49F
:102218007F0F0ED1030E0A4AD05C19307047084B65
:10222800985C01307047C0F30723054AD05C093039
:102238007047C0F30743024AD05C113070477047BB
:102248002056000800B583B000238DF80730094BED
:102258001B681BB1984703B05DF804FB13460A4698
:1022680001460548FFF77EFF9DF80730002BFBD09D
:10227800F1E700BF9C020020E855000808B5084BAC
:1022880019680848FFF76EFF074B19680748FFF7FA
:1022980069FF074B19680748FFF764FF08BD00BFCF
:1022A800D004002048570008DC0400205C570008D0
:1022B800CC0400207057000810B50446244B1B6856
:1022C80083422DD8234B1B68A3422FD96388002B48
:1022D80032D11F4B196862680A4494420FD0538860
:1022E8006BB91C4B1B68934209D01B4B1B6893426C
:1022F80028D05368636053680B44621A9A60A368D5
:102308000B449C420BD05A884AB9134A1268A2421D
:102318001BD062685A6062680A445B1A936010BDF9
:10232800A1220E490E48FFF78DFFCBE7A2220B49E9
:102338000C48FFF787FFC9E7A32208490A48FFF7B7
:1023480081FFC6E7044B1C60D3E7034A1360E0E74C
:10235800A4040020A0040020C8040020205A00087B
:1023680090570008B0570008DC5700082DE9F843DB
:1023780006460F46C41C24F0030421F00305FDF7AC
:102388001FFF8046FFF71AFC78B94046FDF71CFF8F
:10239800182D03D9A5F11803A34212D23A463146A3
:1023A8001748FFF7DFFEBDE8F883DFF85890494685
:1023B8001548FFF7D7FED22249461448FFF742FFD7
:1023C800E3E72D1BA5F11802114B1A60114E34607A
:1023D8004FF4F55222800C3D65600023A3606380B2
:1023E80061190D480160625301224A804D608D6079
:1023F8000A490B48FFF77CFA32680A4B1A60D2E7A1
:10240800F4570008385A00081054000838540008D7
:10241800D0040020A4040020A0040020EC570008E9
:10242800A8040020C8040020F8B5002800F0C380E4
:102438000546FDF7C5FE0446FFF7C0FBC0B92046B8
:10244800FDF7C2FE033525F003055D4B1B689D4271
:1024580000F2B3800B2D00D80C254FF0FF315948FE
:10246800FFF76EFA584B1F68584B18683B1A49E03B
:10247800574E31465748FFF775FE4FF48C72314678
:102488005548FFF7DFFEDAE701236380231AF31AC2
:10249800524A11680B441360514A1268934267D933
:1024A8004F4A136064E05B680344474A1360464B35
:1024B8001B685A881AB14B4909688B42F3D14949BC
:1024C80009688B4259D0002A57D04FF4C17240494D
:1024D8004548FFF7B7FE50E04FF4C3723C49434804
:1024E800FFF7B0FE52E040F2871239494048FFF743
:1024F800A9FE50E04FF4C47235493E48FFF7A2FEEA
:102508004CE063682E4A1268511B8B424DD2C418A6
:1025180061880029F5D16668F11A0C39A942F0D30F
:1025280005F1180C6145AFD3E9180C3100EB010C2B
:102538004FF4F55646520026ACF802606668CCF8AF
:102548000460CCF80830616001236380DCF8043053
:102558000C32934201D003449960204A13682B44FB
:102568000C3313601E4A1268934201D91C4A136047
:102578004FF4F5532380A74299D01248FFF7A8FAE1
:1025880063190C33174A12689342A5D804F10C0654
:1025980014F0030FA7D114F0030FABD1164B1B682F
:1025A8003BB129463046984703E00648FFF790FAC2
:1025B80000263046F8BD0026FBE70026F9E700BFF5
:1025C800D0040020A8040020C8040020A40400208F
:1025D8002C5A00081054000838540008DC04002065
:1025E800CC040020A00400203058000858580008E7
:1025F8009C580008E8580008D804002038B501FBAA
:1026080000F42046FFF710FF054618B122460021C6
:10261800FFF7A6FB284638BD002800F08B8070B570
:102628000446FDF7CDFD0546FFF7C8FA08BB284666
:10263800FDF7CAFD14F0030F27D13F4B1B68A342D7
:1026480003D83E4B1B68A34205D840F22F223C49D1
:102658003C48FFF7F7FD3C4B1B680BB120469847F9
:10266800354B1B68A34203D8344B1B68A34213D8CD
:1026780070BD334E31463548FFF774FD4FF40B7289
:1026880031463348FFF7DEFDD1E740F22E222C49D0
:102698003048FFF7D7FDD0E7A4F10C054FF0FF3124
:1026A8002D48FFF74DF934F80A3C23B134F80C3CB7
:1026B800B3F5F55F0AD02948FFF754FD34F80C3C10
:1026C80034F80A2C29462648FFF74CFD34F80A3C12
:1026D80013B334F80C3CB3F5F55F24D1002324F888
:1026E8000A3C4FF4F55324F80C3C1E4B1B68AB42D4
:1026F80001D91C4B1D60104B1B68EB1A54F8081CC1
:10270800194A5B1A11680B4413602846FFF7D4FD79
:102718001148FFF7DDF9ABE740F24E2208491348AC
:10272800FFF790FDD5E740F24F2205491048FFF723
:1027380089FDD3E7704700BFA4040020A00400204F
:10274800185A000848590008D404002010540008FA
:102758003854000818590008A8040020A459000893
:10276800C0590008C8040020DC040020F059000803
:10277800FC5900080023072B09DC1A0105498A5C6B
:10278800824201D00133F6E701EB031070470020C5
:10279800704700BF0C0000202DE9F8430646884624
:1027A80091460846FFF7E6FF074618B100F070FAB1
:1027B8007C6807E040F2331219491A48FFF742FDD6
:1027C800F4E724683D1DA5420BD0B4F10C03F8D002
:1027D8009E42F6D140F2431211491348FFF732FDE9
:1027E800EFE700F061FA68F07F0886F808800822B1
:1027F80049463046FFF704FB0C4B1B680BB13046CB
:102808009847FDF7DDFC06F10C037A6853607A6897
:10281800F2607B603561FDF7D7FCBDE8F88300BF47
:102828005C5B0008785A0008905A0008E004002011
:1028380010B50446A0B10E4B1B680BB12046984753
:1028480000232372FDF7BCFC04F10C03E168226944
:102858004A60E16811602361E360FDF7B5FC10BDD3
:102868004FF4B37203490448FFF7ECFCE3E700BFF9
:10287800E4040020485B0008A05A0008F8B50646A2
:102888000F46FDF79DFC0446FFF798F960BB20460C
:10289800FDF79AFC3046FFF76DFF054680B3E86800
:1028A800FFF7C2FD0446E8B1EA680021FFF758FACD
:1028B800267200236372082239462046FFF7A0FAE1
:1028C800134B1B680BB120469847FDF779FC2A1D6E
:1028D80004F10C0369684B606968E1606B60226110
:1028E800FDF772FC2046F8BD0A4D29460A48FFF755
:1028F80039FC4FF4C37229460848FFF7A3FCC6E722
:102908004FF4C57203490648FFF79CFCC7E700BFB0
:10291800E0040020345B0008105400083854000814
:10292800785A000810B50446D8B194F90830002B3D
:102938001EDB134B1B680BB12046984700232372FC
:10294800FDF73EFC04F10C03E16822694A60E16886
:1029580011602361E360FDF737FC2046FFF75CFE5A
:1029680010BD4FF4DD7207490748FFF76BFCDCE741
:1029780040F2BB1203490548FFF764FCD9E700BFE2
:10298800E4040020205B0008A05A0008B45A00089C
:1029980010B5044628B194F90830002B08DB002054
:1029A80010BD4FF4EE7203490348FFF74BFCF2E702
:1029B8000120F5E7045B0008A05A000810B504469A
:1029C80018B1207A00F07F0010BD40F2EF120249E2
:1029D8000248FFF737FCF4E7F05A0008A05A00084D
:1029E800F8B507460846FFF7C5FE77B3064670B345
:1029F800FDF7E6FB0446FFF7E1F890B92046FDF73E
:102A0800E3FB00F045F97468331DA34218D0A4F124
:102A18000C05082239462846FFF708FA68B12468E9
:102A2800F2E70C4D29460C48FFF79CFB4FF4037264
:102A380029460A48FFF706FCE0E700F035F902E00E
:102A480000F032F900252846F8BD3D46FBE705466B
:102A5800F9E700BFE05A000810540008385400088D
:102A680010B50446A8B1A36A1A78232A06D1E269E8
:102A78009A4203D9E16A19448A4210D921460C487E
:102A8800FFF770FB01F094F9FDF79AFB0028FDD1E0
:102A980010BD502207490848FFF7D4FBE3E720336D
:102AA8009A42F5D821460548FFF75CFBF0E700BFDE
:102AB800805B00080C5C00086C5B00089C5B0008ED
:102AC80000230C4A138006E00B4901EBC302526055
:102AD80041F8332001331F2BF6DD084B1F221A70F3
:102AE8000023074A1360074A1360074B5B601B60AB
:102AF800704700BF000500200C050020F4040020EA
:102B0800F80400200C0600200405002008B5084B36
:102B18001868FFF775FB0138064B53F83000A0F131
:102B28001402054B1A600830FDF77FFB08BD00BF93
:102B38000C0600200C050020F8040020F8B5FDF76D
:102B48003FFB04461A4BB3F900301BBB194B1868FE
:102B5800FFF756FB0138184B53F83070A7F11405EE
:102B6800164B1E68AE4215D0154B1870134B1D60DE
:102B7800144B1B6813B12946304698472846FFF77F
:102B88006FFF114B1B784BB107F1080106F11C00D0
:102B9800FDF71DFB2046FDF717FBF8BD07F10801FF
:102BA80006F11C00FDF713FB2046FDF70DFBF4E7CB
:102BB800000500200C0600200C050020F804002069
:102BC800F4040020FC0400209002002010B5044604
:102BD800F0B1FDF7F5FA94F9343023F00F0343F020
:102BE800010384F8343094F835200D4B03EBC2030D
:102BF80004F1140259680A605968A1615A60636156
:102C0800A16B084A13680B431360FDF7DDFA10BD8A
:102C180040F2171204490548FFF714FBD9E700BF33
:102C28000C0500200C060020F05B00086C5B000817
:102C380010B50446B0B1FDF7C3FA04F11403616995
:102C4800A2694A6061691160A361636194F83520E3
:102C58000B4B03EBC20153F83230994209D0FDF710
:102C6800B3FA10BD40F2451206490748FFF7EAFAE1
:102C7800E1E7A16B054A136823EA01031360EEE755
:102C88000C050020D45B00086C5B00080C060020D3
:102C980008B5FDF795FA034A138801331380FDF749
:102CA80093FA08BD0005002008B5FDF789FA0B4A1C
:102CB8001388013B1BB21380002B02DDFDF784FA59
:102CC80008BD134600221A80FDF77EFA044B1B68E4
:102CD800002BF5D0FFF732FFF2E700BF0005002018
:102CE800F804002038B50446FDF76AFA0546A36FD4
:102CF8000BB1204698472846FDF766FA38BD000014
:102D080038B5144B1C68FDF75BFA05462046FFF7FB
:102D1800E9FF2046FFF78CFF042384F8343004F1E0
:102D28004C0000F097FA2046FFF732FE01280DD03C
:102D380004F11402084B19684A6061611A60A361C2
:102D4800FFF7FCFE2846FDF73FFA38BD2046FFF79F
:102D58006FFDF5E7F804002004050020F0B583B006
:102D6800044617460898099A9DF828500B9E04F1C6
:102D78001401A161616127626362A062E26223219A
:102D8800FEF7EEFFA16AE36A1A1F164B0A44616A4E
:102D9800206A00F06DFEE0611F2D1DD884F83650C2
:102DA80084F835500023A3636664A664236384F81B
:102DB8003430A367E3670193009323460A4A214608
:102DC80004F14C0000F024FA084B1B680BB12046B4
:102DD8009847002003B0F0BDA72205490548FFF732
:102DE80031FADBE7092D0008012E00081006002043
:102DF8008C5D0008285C000810B50446E0B194F822
:102E0800343003F00F03022B1DD12046FFF7D6FD07
:102E180001281FD16FF00103236304F114036169D2
:102E2800A2694A6061691160A36163612046FFF786
:102E3800CDFEFFF783FE10BD40F2233209490A4850
:102E4800FFF700FADBE74FF4497206490748FFF736
:102E5800F9F9DAE740F2253202490548FFF7F2F9B5
:102E6800D8E700BF1C5D00086C5B00084C5C0008DC
:102E7800885C00082DE9F04184B00C4615461E46D2
:102E8800DDF828800746C8B1B8F1000F1CD02246EB
:102E980001213846FFF780FC0D9B03939DF83030E5
:102EA80002930B9B0193CDF8008033462A462146B6
:102EB8003846FFF753FF04B0BDE8F081E922054921
:102EC8000548FFF7BFF9DFE7EA2202490348FFF7A1
:102ED800B9F9DCE7445D00086C5B0008CC5C0008CD
:102EE800014B1868704700BFF80400202DE9F04333
:102EF80085B004460F4690461D4601460120FFF75F
:102F0800BDFC064688B12846FFF78EFA814680B197
:102F18000D9B03939DF83030029301950090434632
:102F28003A4621463046FFF719FF304605B0BDE85E
:102F3800F0833046FFF7F6FC4E46F6E710B5FDF78E
:102F48003FF9134B1B6893F8342002F00F02012A53
:102F580003D159699A69914203D1FDF735F90020E7
:102F680010BD03F114044A60596911609C615C61E9
:102F780093F83510074A02EBC10251680C6051689A
:102F8800996154605A61FDF71FF9FFF7D7FDE6E72D
:102F9800F80400200C05002038B5044630B320465C
:102FA800FFF70CFD012828D194F8343003F00F0303
:102FB800012B29D1FDF704F905462046FFF738FE15
:102FC80094F9343023F00F0343F0020384F83430CB
:102FD80004F14C0000F034FA2846FDF7F5F80D4BE3
:102FE8001B68A3B120469847002038BD40F2CD2287
:102FF80009490A48FFF726F9D1E740F2CE220649E7
:103008000748FFF71FF9CFE74FF0FF30EDE7002043
:10301800EBE700BF18060020545D00086C5B000851
:10302800885C000870B582B00190FDF7C9F80646C3
:10303800184B1C68ECB12046FFF7C0FC01281FD1D3
:103048002046FFF7A9FF04F14C0501AA00212846F4
:1030580000F03EFA284600F045F93046FDF7B4F88E
:10306800FFF76CFD236B13F1020F10D0002002B0A4
:1030780070BD40F2FB1208490848FFF7E3F8DAE7A9
:103088004FF4FE7204490648FFF7DCF8D8E700233E
:103098002363EBE7F8040020685D00086C5B000818
:1030A800885C000808B5FFF7BDFF08BD08B5FEF746
:1030B8000FFBFFF7B7FF08BD38B5044638B3204605
:1030C800FFF77CFC012829D194F8343003F00F0372
:1030D800022B2AD1FDF774F8054604F1140361693F
:1030E800A2694A6061691160A361636104F14C00DF
:1030F80000F0A6F92846FDF767F82046FFF766FDB9
:103108000C4B1B68A3B120469847002038BD40F2FD
:10311800F72209490948FFF795F8D0E74FF43E72BE
:1031280005490748FFF78EF8CEE74FF0FF30EDE787
:103138000020EBE714060020305D00086C5B0008F7
:10314800885C000810B50446E8B194F8343013F0F0
:103158000F0F1FD12046FFF731FC012821D194F829
:10316800362084F8352001239340A363022384F892
:1031780034302046FFF7A0FFFFF7B2FE08B1FFF793
:10318800DDFC002010BD40F20D1209490948FFF787
:1031980059F8DAE74FF4877205490748FFF752F8FC
:1031A800D8E740F20F1202490448FFF74BF8D6E778
:1031B800785D00086C5B0008E45C0008885C000827
:1031C8009DF800C080F809C02CF0010C80F809C0F7
:1031D800C16102620022826243621346002B00DD55
:1031E80070479A1C00EBC202111D916051600133B7
:1031F800F4E710B50446FCF7E3FF23689C4204D0CB
:103208005C69FCF7E1FF204610BD4FF0FF34F8E79A
:10321800F0B583B00E4614461D46074678B13246CF
:103228000A213846FFF7B8FA9DF824300093089B26
:103238002A4621463846FFF7C3FF03B0F0BDC9222E
:1032480002490348FEF7FEFFE9E700BF885E000871
:103258009C5D000838B50446C0B12046FFF7AEFBB8
:103268000A2819D12046FFF793FBD8B1FCF7A8FF2D
:103278000022002A1CDD637A23F001036372FCF745
:10328800A3FF2046FFF7D4FA002038BDDD221149FC
:103298001148FEF7D7FFE0E7DE220E490F48FEF798
:1032A800D1FFDFE7DF220B490D48FEF7CBFFDDE753
:1032B800931C04EBC303191D9D68D3F804C0CCF814
:1032C8000450D3F804C0C5F800C0996059600132B1
:1032D800CFE700BF785E00089C5D0008B05D00087D
:1032E800EC5D0008F0B583B00446002845D02046C0
:1032F800FFF764FB0A2847D1FCF762FF0546002266
:10330800002A48DD637A23F001036372424B1B688D
:103318000BB120469847626A6FF000439A4247D241
:10332800FEF7BAF9636A1844A062637A13F0040FCF
:1033380045D03A4F01970022002A47D0384A1368EF
:1033480001331360019B04F1140219684A6019687B
:1033580061611A60A361637A43F0010363722846CE
:10336800FCF732FF637A13F0040F03D02D4B1B7860
:10337800012B43D0002003B0F0BD40F241122A498E
:103388002A48FEF75FFFB2E74FF4A17226492848A2
:10339800FEF758FFB0E7931C04EBC303191D5E68E2
:1033A800986870605E680660996059600132A7E7A6
:1033B80040F251121C491F48FEF744FFB0E71E4F68
:1033C800B8E702AB03EB820343F8041C02AB03EB40
:1033D800820353F8041CD30007EBC2067668B14297
:1033E8000AD009681433CB1A9B6A9842E9D01B1A91
:1033F8006FF00046B342E4D201329DE70F4B93F8D9
:10340800343003F00F03022BB4D10C48FFF754FEFD
:10341800FFF794FBAEE700BFEC0400202006002075
:103428001C0600208C000020685E00089C5D0008D7
:10343800B05D0008185E000830060020380600203D
:1034480038B50446D0B12046FFF7B8FA0A281CD18F
:10345800637A13F0010F30D0194B1B680BB120466B
:103468009847FCF7ADFE0022002A15DD637A23F0A9
:1034780001036372FCF7A8FE002038BD4FF4DB722D
:1034880010491148FEF7DEFEDDE740F2B7120D499C
:103498000E48FEF7D7FEDBE7931C04EBC303191DA8
:1034A8009D68D3F804C0CCF80450D3F804C0C5F81C
:1034B80000C0996059600132D6E74FF0FF30DCE771
:1034C800E8040020585E00089C5D0008B05D000814
:1034D80070B50C461546064668B13046FFF76EFAD9
:1034E8000A280FD1FCF76CFE042C14D8DFE804F08E
:1034F80017111A1F240040F2D91214491448FEF774
:10350800A1FEEAE74FF4ED7210491248FEF79AFE61
:10351800E8E7736A2B60FCF757FE002070BD2B6844
:103528007362F8E7737A23F002037372F3E7737A2E
:1035380043F002037372EEE7737A13F0010F02D0BF
:1035480001232B60E7E700232B60E4E7445E0008D3
:103558009C5D0008B05D0008F0B583B0CDF804D0DC
:10356800CDF800D0FEF798F80546FCF729FE074687
:103578002EE0931C06EBC303191D5D68986868600C
:103588005D68056099605960013233E0009B5C60BA
:1035980023600094C4F804D0A368E0689847FEF755
:1035A8007BF80546204B1B680BB130469847009ABC
:1035B8006B469A420CD022686368536022681A608E
:1035C8006460246014F80B3C03F00302032A1DD046
:1035D800164B1C689C4221D0A4F114066369EB1AAF
:1035E8006FF00042934219D2114B1B680BB1304661
:1035F80098470022002ABCDD14F80B3C13F0020F98
:10360800C4D123F0010304F80B3CBFE723F0010306
:1036180004F80B3C3046FFF765FED9E73846FCF75F
:10362800D3FD03B0F0BD00BF2C06002030060020FB
:103638002806002070B582B0CDF804D0CDF800D0AF
:10364800FCF7BEFD05463BE0931C06EBC303191DC2
:103658009868D3F804C0CCF80400D3F804C0C0F8C4
:1036680000C09960596001323EE0009B5C602360B5
:103678000094C4F804D0294B00221A702846FCF79D
:10368800A3FDA368E0689847254B1B680BB130463B
:103698009847FCF795FD0546204B01221A70009AC1
:1036A8006B469A420CD022686368536022681A609D
:1036B8006460246014F80B3C03F00302032A1FD053
:1036C800184B1C689C4223D0A4F11406FDF7E4FFB4
:1036D8006369C01A6FF00043984219D2124B1B68F5
:1036E8000BB1304698470022002AADDD14F80B3C98
:1036F80013F0020FB9D123F0010304F80B3CB4E72F
:1037080023F0010304F80B3C3046FFF7EBFDD7E745
:103718002846FCF759FD02B070BD00BF8C000020A0
:103728002C060020200600202806002010B507E0FF
:10373800FFF7D6FBFFF730FCFFF700FAFFF77AFF39
:103748000848FFF756FDB0F1FF3FF1D00446FDF7FA
:10375800A3FF201A6FF000439842EFD2FFF7A2FCB4
:10376800ECE700BF20060020002303B1704704499E
:1037780001EBC302526041F833200133F5E700BF83
:103788003006002010B584B00023A3B10E4C0A23E4
:103798000393042302934FF4007301930B4B00939C
:1037A80000230B4A0B492046FFF764FB2046FFF72E
:1037B800C9FC04B010BD084901EBC302526041F8CE
:1037C80033200133E1E700BF38060020B8060020A7
:1037D800353700083C5E00082006002010B5264852
:1037E800FEF7C0FC254C94F829102548FEF7BAFCD2
:1037F80094F8293013F0010F21D1204B93F8293088
:1038080013F0020F1FD11D4B93F8293013F0040F4A
:103818001DD11A4B93F8293013F0080F1BD1174B01
:1038280093F8293013F0100F19D1144B93F829305D
:1038380013F0800F17D11348FEF794FC10BD1248FF
:10384800FEF790FCD9E71148FEF78CFCDBE710483F
:10385800FEF788FCDDE70F48FEF784FCDFE70E483B
:10386800FEF780FCE1E74FF0E023D3F8381D0B4862
:10387800FEF778FCE2E700BF985E000800ED00E084
:10388800A45E00083C610008BC5E0008C85E000831
:10389800D45E0008E45E0008F05E0008F85E0008E8
:1038A80010B52148FEF75EFC204C94F828102048FB
:1038B800FEF758FC94F8283013F0010F1BD11B4B6E
:1038C80093F8283013F0020F19D1184B93F82830C9
:1038D80013F0080F17D1154B93F8283013F0100F79
:1038E80015D1124B93F8283013F0800F13D11148DB
:1038F800FEF738FC10BD1048FEF734FCDFE70F4830
:10390800FEF730FCE1E70E48FEF72CFCE3E70D4834
:10391800FEF728FCE5E74FF0E023D3F8341D0A480A
:10392800FEF720FCE6E700BF085F000800ED00E0B6
:103938001C5F00083C610008345F0008405F000815
:103948004C5F0008585F0008645F000810B5214804
:10395800FEF708FC204C618D89B22048FEF702FC76
:10396800638D13F0010F1CD11B4B5B8D13F0020FFD
:103978001BD1194B5B8D13F0040F1AD1164B5B8DBD
:1039880013F0080F19D1144B5B8D13F4807F18D1F5
:10399800114B5B8D13F4007F17D11148FEF7E2FB42
:1039A80010BD1048FEF7DEFBDEE70F48FEF7DAFB36
:1039B800DFE70E48FEF7D6FBE0E70D48FEF7D2FB3F
:1039C800E1E70C48FEF7CEFBE2E70B48FEF7CAFB3F
:1039D800E3E700BF745F000800ED00E0845F0008C3
:1039E8003C6100089C5F0008A85F0008B45F0008FD
:1039F800BC5F0008C45F0008D05F000808B54FF03E
:103A0800E023D3F82C3D13F0020F19D14FF0E02337
:103A1800D3F82C3D13F0804F0BD0124B93F829307C
:103A280093B9104B93F828308BB90E4B5B8D9BB232
:103A380083B94FF0E023D3F82C3D002B0DDB08BDF4
:103A48000948FEF78FFBE1E7FFF7C8FEE9E7FFF754
:103A580027FFEAE7FFF77AFFEBE70448FEF782FB68
:103A6800EDE700BF00ED00E0DC5F0008F45F000850
:103A780030B40546043222F0070CACF140000022B5
:103A880003E00D4C40F8224001320F2AF9D94CF8D6
:103A9800201C00224CF81C2C4CF8182C4CF8142C28
:103AA8004CF8102C4CF80C3C4CF8085C4FF0807328
:103AB8004CF8043C30BC7047EFBEADDE10B5044690
:103AC800314B1B681BB12430984700285AD0216C11
:103AD8002E48FEF747FB616A2D48FEF743FBA16AB3
:103AE8002C48FEF73FFBE16A2B48FEF73BFB216BB6
:103AF8002A48FEF737FB61682948FEF733FBA168BF
:103B08002848FEF72FFBE1682748FEF72BFB2169C1
:103B18002648FEF727FB61692548FEF723FBA169C4
:103B28002448FEF71FFBE1692348FEF71BFB216AC7
:103B38002248FEF717FB616B2148FEF713FBA16BC8
:103B48002048FEF70FFBE16B1F48FEF70BFB2368CD
:103B580013F0040F0ED0FFF7C3F901461B48FEF718
:103B680001FB00F025F9236813F0100F06D0FFF7CA
:103B780045FFFEE71648FEF7F5FAF4E71548FEF7A5
:103B8800F1FAF4E710BD00BFB8080020046000088F
:103B980014600008246000083460000844600008CD
:103BA80054600008646000087460000884600008BD
:103BB80094600008A4600008B4600008C4600008AD
:103BC800D4600008E4600008F4600008046100089C
:103BD800246100084061000808B50A480A4B0360E0
:103BE8004FF4E133436000238360C36003610C2218
:103BF80042618361C361FDF763FC00B1FEE7002009
:103C080008BD00BFC80800200010014000487047E8
:103C18000C090020004870470C45002008B5FDF746
:103C2800A1FFFDF73FFDFDF7B3FF08BD10B5FDF798
:103C38005BFBFCF7CFFCFDF7DFFCFDF7A9F9094BAF
:103C4800A3FB00308009FDF715FBFDF767FDFFF7C3
:103C5800DDFF0446FFF7DEFF01462046FEF786FB40
:103C680010BD00BFD34D6210F0B583B005460D23DB
:103C78008DF8073000240F4B83F83C40FEF7E8F836
:103C8800074606E001231A4631460A48FDF747FC75
:103C98000134BC420BD22E192B5D0A2BF2D1012321
:103CA8001A460DF107010348FDF739FCEAE703B0AE
:103CB800F0BD00BFC808002008B5084B1B681A688B
:103CC80012F0200F03D05868C0B2C0B208BD0A2055
:103CD800FFF7ECF94FF0FF30F7E700BFC808002006
:103CE80008B50248FEF73EFA002008BD5C610008EE
:103CF80038B50546046800E02468AC420BD0A4F14E
:103D080014010548FEF72EFA2368AB42F4D00348A5
:103D1800FEF728FAF0E738BD706100087461000802
:103D280008B5FEF74DFA002008BDF8B500230B6171
:103D3800CB684BB304460E460B7A3BB30F68B0B161
:103D48000025FCF73DFA35B914F8043C23F080034C
:103D5800327A93420ED1736800252468A7420DD0A9
:103D6800013543F8044BF268AA42F6D107E03C4615
:103D78000125E6E7FCF728FA002403E00024FCF715
:103D880023FA35612046F8BD0024FBE70024F9E753
:103D9800F8B504460D4617461E460846FEF7EAFCE7
:103DA8000430206025726760E66000232361F8BD57
:103DB8002DE9F043B1B0082323AA01212BA8FFF76E
:103DC800E7FF434A08214348FEF7CCF94FF00808BB
:103DD80008F1FF34B8F1000F04D03F48FEF7C2F9EC
:103DE800A046F5E73D48FEF7BDF9002765E08022CB
:103DF800494603A801F0A6F93046FCF7E5F994F81E
:103E080029300093A4F10C03082211463448FEF728
:103E1800A9F994F8283003F00F03012B09D0022BDD
:103E28000BD073B1042B10D0032B12D0E0690346DA
:103E380014E02C48FEF796F9F8E72B48FEF792F9BC
:103E4800F4E72A48FEF78EF9F0E72948FEF78AF9E1
:103E5800ECE72848FEF786F9E8E701331A78232AC1
:103E6800FBD0226A2169411AC31A1344642000FB5B
:103E780003F3606A0190E06B0090B3FBF2F3114426
:103E88001D48FEF76FF901352F9BAB4214DD30ABAF
:103E980003EB850353F8344CA4F10C09FCF790F9B3
:103EA800064614F8043C23F080039DF8B42093429E
:103EB8009DD0FCF789F9E6E737B12BA93846FFF71B
:103EC80034FF07464546DFE7002031B0BDE8F08300
:103ED8007861000880610008C4610008C8610008B2
:103EE8000862000814620008206200082C620008BA
:103EF8003862000844620008506200082DE9F04169
:103F080090B0082303AA02210BA8FFF741FF344A07
:103F180008213448FEF726F94FF0080808F1FF3465
:103F2800B8F1000F04D03048FEF71CF9A046F5E7B9
:103F38002E48FEF717F9002746E0FCF745F901354A
:103F48000F9BAB423FDD10AB03EB850353F8346C9A
:103F5800FCF736F916F8043C23F080039DF834206A
:103F68009342EAD1FCF730F906F10804B3689C42A1
:103F780017D0A6F10C03308A2246002100E0013157
:103F880012689442FBD1019100900822114618480A
:103F9800FEF7E8F82046FFF7ABFE1648FEF7E2F812
:103FA800CDE7A6F10C03308A2246002100E001315A
:103FB80012689442FBD101910090082211460E48E4
:103FC800FEF7D0F8BBE737B10BA93846FFF7ADFECF
:103FD80007464546B4E7002010B0BDE8F08100BFB1
:103FE8007862000884620008C4610008A0620008C2
:103FF800B86200083C610008C86200082DE9F04179
:1040080090B0082303AA04210BA8FFF7C1FE304A89
:1040180008213048FEF7A6F84FF0080808F1FF34E9
:10402800B8F1000F04D02C48FEF79CF8A046F5E73D
:104038002A48FEF797F800273EE0FCF7C5F8013557
:104048000F9BAB4237DD10AB03EB850353F8346CA1
:10405800FCF7B6F816F8043C23F080039DF83420EA
:104068009342EAD1FCF7B0F806F10804B3689C4221
:1040780017D0A6F10C0330692246002100E0013177
:1040880012689442FBD1019100900822114614480D
:10409800FEF768F82046FFF72BFE1248FEF762F895
:1040A800CDE733690093A6F10C03082211460E48A8
:1040B800FEF758F8C3E737B10BA93846FFF735FEC6
:1040C80007464546BCE7002010B0BDE8F08100BFB8
:1040D800D8620008E0620008C461000804630008B0
:1040E800246300083C6100083C630008F0B593B005
:1040F800082305AA03210DA8FFF74AFE254A08212F
:104108002548FEF72FF808277C1E27B12348FEF71D
:1041180029F82746F8E72248FEF724F800262FE07A
:10412800FCF752F8A4F10C03606994F813C0083442
:104138002246002100E0013112689442FBD103912C
:10414800CDF808C00190082100910A461548FEF7ED
:1041580009F80135119BAB4211DD12AB03EB850366
:1041680053F8344CFCF72CF814F8043C23F0800383
:104178009DF83C209342D3D0FCF726F8E9E736B106
:104188000DA93046FFF7D1FD06463D46E2E700207F
:1041980013B0F0BD5063000858630008C4610008FC
:1041A8007C6300089C6300082DE9F04192B0082365
:1041B80005AA05210DA8FFF7EBFD364A0821364868
:1041C800FDF7D0FF4FF0080808F1FF34B8F1000FF1
:1041D80004D03248FDF7C6FFA046F5E73048FDF7A2
:1041E800C1FF00274AE0FBF7EFFF0136119BB342FE
:1041F80043DD12AB03EB860353F8345CFBF7E0FFB7
:1042080015F8043C23F080039DF83C209342EAD142
:10421800FBF7DAFF05F10804AB689C4219D0A5F159
:104228000C03E88AAD8A2246002100E001311268B9
:104238009442FBD102910195009008221146194839
:10424800FDF790FF2046FFF753FD1748FDF78AFF5B
:10425800CBE7A5F10C03E88AAD8A2246002100E0ED
:10426800013112689442FBD1029101950090082215
:1042780011460E48FDF776FFB7E737B10DA9384666
:10428800FFF753FD07464646B0E7002012B0BDE8E9
:10429800F08100BFB4630008BC630008C461000873
:1042A800E0630008FC6300083C610008146400082F
:1042B8002DE9F04190B0082303AA06210BA8FFF7C7
:1042C80067FD344A08213448FDF74CFF4FF00808D1
:1042D80008F1FF34B8F1000F04D03048FDF742FF71
:1042E800A046F5E72E48FDF73DFF002746E0FBF71F
:1042F8006BFF01350F9BAB423FDD10AB03EB850332
:1043080053F8346CFBF75CFF16F8043C23F0800389
:104318009DF834209342EAD1FBF756FF06F10804D2
:10432800B3689C4217D0A6F10C03308B22460021BB
:1043380000E0013112689442FBD1019100900822FB
:1043480011461848FDF70EFF2046FFF7D1FC164826
:10435800FDF708FFCDE7A6F10C03308B22460021BC
:1043680000E0013112689442FBD1019100900822CB
:1043780011460E48FDF7F6FEBBE737B10BA93846E4
:10438800FFF7D3FC07464546B4E7002010B0BDE868
:10439800F08100BF2C64000838640008C46100087C
:1043A800546400086C6400083C61000880640008DC
:1043B800F0B591B0082303AA09210BA8FFF7E8FC80
:1043C800234A08212348FDF7CDFE082703E02248A9
:1043D800FDF7C8FE27467C1E002FF8D11F48FDF7C1
:1043E800C1FE00262AE0FBF7EFFE08E01C49AA7B85
:1043F80001920091082211461A48FDF7B3FE0134D4
:104408000F9BA34219DD10AB03EB840353F8345C14
:10441800FBF7D6FE15F8043C23F080039DF8342002
:104428009342E0D1FBF7D0FEA5F10C032A7A152AB6
:10443800DCD80D4951F82210D9E736B10BA930461E
:10444800FFF773FC06463C46DAE7002011B0F0BDE2
:104458009C640008A4640008C4610008CC640008D7
:1044680094640008F0640008F8660008F0B591B09C
:10447800082303AA0A210BA8FFF78AFC294A082166
:104488002948FDF76FFE082703E02848FDF76AFE74
:1044980027467C1E002FF8D12548FDF763FE00262D
:1044A8002FE0FBF791FE01340F9BA34228DD10ABF0
:1044B80003EB840353F8345CFBF782FE15F8043CE5
:1044C80023F080039DF834209342EAD1FBF77CFE69
:1044D800EB690193AB690093A5F10C03082211461F
:1044E8001448FDF73FFE15F8033C13F0010F03D005
:1044F8001148FDF737FED6E71048FDF733FED2E73F
:1045080036B10BA93046FFF710FC06463C46CBE710
:10451800FDF7C2F801460A48FDF724FE002011B055
:10452800F0BD00BF3C5E000804650008C4610008D7
:104538002C65000850650008686500087465000867
:104548008465000838B50D48FDF70CFE0C4B1C6857
:1045580000E00C340B4B1B68A3420DD925680222DE
:104568000949284600F004FE0028F2D0626829466E
:104578000648FDF7F7FDECE7002038BD9C6500080C
:104588000C45002010450020B0650008B4650008FF
:104598000346027862B110B40C7834B1A24204D157
:1045A800013301311A78002AF6D1181A10BC704765
:1045B800001A704770B515460024234651E08B4217
:1045C8000BD2002200F8012B013390F800C0BCF197
:1045D800200FF4D0BCF1090FF1D0072C08D88B427A
:1045E80016D2BCF1220F15D045F8240001342FE073
:1045F8001D48FDF7B7FD0026B44206D955F8261028
:104608001A48FDF7AFFD0136F6E71948FDF7AAFD90
:10461800204670BD0130013345F82400013401E023
:10462800013001330278222A09D08B4207D25C2A52
:10463800F6D14278222AF3D101300133F0E78B42D8
:10464800E6D2002200F8012B01330AE001300133E1
:104658000278202A03D0092A01D08B42F6D38B4254
:10466800D6D28B42B1D3D3E7706A0008906A0008AB
:104678003C61000838B50F48FDF774FD0E4B1C6807
:1046880000E00C340D4B1B68A3420DD925680622A7
:104698000B49284600F06CFD0028F2D16268A91D7C
:1046A8000848FDF75FFDECE70748FDF75BFD0020D4
:1046B80038BD00BF946A00080C4500201045002052
:1046C800B06A0008B86A00083C610008F8B50746F7
:1046D8000E460F4B1C6800E00C340E4B1B68A342BF
:1046E80014D9256806220C49284600F041FD002807
:1046F800F2D132463946A81D00F03AFD0028EBD128
:10470800B31DEB5C002BE7D1A06800E00020F8BDEA
:104718000C45002010450020B06A000808B5FFF7D6
:1047280047FB002008BD08B5FDF7A8FD002008BD1F
:10473800F0B589B00C461646054610B146B10021C1
:104748000EE040F237121A491A48FDF77BFDF5E7EB
:104758004FF49C7216491848FDF774FDEFE70131D4
:104768006B5C202B03D0092B01D0A142F7D3A9B150
:104778002846FFF7ABFF074698B12022002168467C
:1047880000F0EEFC6A4621462846FFF713FF58B1B1
:104798006946B8473060002009B0F0BD4FF0FF30DF
:1047A800FAE74FF0FF30F7E74FF0FF30F4E700BFCC
:1047B800E86A0008C46A0008C86A0008012070474F
:1047C80010B582B0044601E00134013921B12378E3
:1047D800202BF9D0092BF7D011B9002002B010BD59
:1047E80001AA2046FFF7A4FF80B90198F6E7013235
:1047F8001378202B01D0002BF9D100231370214608
:104808000348FDF7AFFC4FF0FF30E7E72246EFE73C
:10481800D06A00082DE9F843037833B10646204BE7
:104828001D684FF0000847460AE000210846FFF7D8
:1048380021FF33E021461B48FDF794FC4F460C3519
:10484800194B1B68AB4221D92C6806221749204610
:1048580000F08EFC0028F2D106343046FBF72EFD1E
:1048680002462146304600F083FC0028E7D127B9EC
:104878002046FBF723FD0746A04621464046FFF7A2
:1048880087FE81468742D5DCB946D3E7B8F1000FE9
:1048980004D03A4641463046FDF7B2FABDE8F883FF
:1048A8000C450020C06A000810450020B06A0008C6
:1048B80008B5074B1B682BB1054B1868FDF708F9BD
:1048C800002008BDC52203490348FDF7BBFCF3E7F8
:1048D80024470020146C0008786B000800B583B0EA
:1048E80000238DF80730134B1B6833B1114B1B683D
:1048F8009B6F73B9FFF7E0F919E0B0220E490F4832
:10490800FDF7A0FCF2E74FF0FF310A4B1868FDF7FE
:1049180017F8084B186801230DF107024FF0FF3113
:10492800806F00F02DFB0128EDD19DF8070003B042
:104938005DF804FB24470020046C0008786B00082D
:10494800184B1B6893F8213013F0020F0AD010B5EA
:10495800154B196859B14FF40072144800F01CFC4B
:10496800124810BD114B00221A7010487047FFF70B
:1049780025FF68B10D4B0E4A92E8030018601971C3
:104988000A4C2046FBF79AFC0A4B1B882352E7E7A0
:10499800064B094A92E8030018609980090C99713E
:1049A800EEE700BF24470020204700201C450020D8
:1049B8008C6B00089C6B0008946B000810B50446CB
:1049C8000948FDF7CFFBFFF7F9FE012807D0FFF7ED
:1049D800B7FF014622460548FDF7C4FB10BD204637
:1049E800FFF718FFF3E700BF3C610008A06B000861
:1049F80010B50446084B1B6843B1074B1B6893F876
:104A0800212064F3410283F8212010BDA422034928
:104A18000348FDF717FCF0E724470020386C00082E
:104A2800786B000838B504461D4B1B686BB32046ED
:104A380000F00AFA054670B3194B1B689B6F834256
:104A480022D040F2431100F005FAE8B9144B1B6874
:104A5800986F38B100F060FA114B1B680021986F0D
:104A680000F002FB0E4B1C685022002104F12200CA
:104A780000F076FB0023A4F87230A4F87430A56720
:104A88000849284600F0F0FA38BDD82206490748F8
:104A9800FDF7D8FBCBE721460548FDF763FBF3E7B5
:104AA80024470020B9480008246C0008786B0008E7
:104AB800A86B000810B5AF4B1B6893F8212042F093
:104AC800010283F821209B6F23B1FFF739FFFDF71F
:104AD80049FB0BE0FDF740FB0028F6D0FFF7A2FFEB
:104AE800F3E7A44B1B68012283F82020FFF7F6FEAA
:104AF800041EFBDB1B2CF4D09E4B1B6893F8202074
:104B0800012A40D0022A48D0002CEFD0FF2CEDD04B
:104B1800092C00F089807F2C00F08880082C00F098
:104B280085800D2C00F0C9800A2C00F0C680B3F8EF
:104B380072204F2A02D90022A3F87220B3F874C059
:104B4800B3F872209445C0F0E1801A4482F82240FC
:104B580093F8213013F0010F40F00781854B1A6854
:104B6800B2F8723001339BB2A2F87230B2F8741006
:104B78000131A2F874104F2BB8D90023A2F8723073
:104B8800A2F87430B2E75B2C03D0002283F820200F
:104B9800BAE7022283F82020A8E7002283F8202021
:104BA800412CA3D0422CA1D0442C15D0432CABD1FE
:104BB800B3F87420B3F872108A4297D2134493F86A
:104BC80022106D48FDF7CEFA6A4B1A68B2F87430B5
:104BD8000133A2F8743089E7B3F87430002B85D01C
:104BE8006648FDF7BFFA634B1A68B2F87430013BA8
:104BF800A2F874307AE76148FDF7B4FA01345D4BE6
:104C08001868B0F87430A342F5DC2230FFF7D6FEFE
:104C1800584B1C6804F12200FBF750FB80B2A4F843
:104C28007200A4F8740061E70024E8E7B3F8741090
:104C380000293FF45BAFB3F87220013A92B2A3F8AF
:104C48007220013989B2A3F874108A420BD84C48F3
:104C5800FDF788FA474B1B68B3F87220134400220B
:104C680083F8222042E701F12000184401F12104D1
:104C78002344521A991C0230FDF7A3F83D4C2368CF
:104C8800B3F872201A44002182F82210B3F8742075
:104C980020321344991C3B48FDF764FA2368B3F8A3
:104CA8007440344B1B68B3F87230A342FFF61EAF52
:104CB8003248FDF757FA0134F3E7FFF77FFD012883
:104CC80011D0FFF73DFEFDF74DFA2A4B1C68502224
:104CD800002104F1220000F043FA0023A4F8723006
:104CE800A4F8743002E7234B1B6893F8213013F0C3
:104CF800010F07D11F4B1868B0F872102230FFF768
:104D08005FFDDEE72048FDF72DFAF3E70CF12100FF
:104D180018440CF120011944A2EB0C0202310230B4
:104D2800FDF74FF8134B1B68B3F87420991881F8F6
:104D3800224093F8211011F0010F04D10D4B1B688C
:104D4800B3F874400AE020321344991C0F48FDF769
:104D580009FAF3E70948FDF705FA0134054B1B6822
:104D6800B3F87230A342F5DCF8E621460248FDF7B5
:104D7800F9F9F3E624470020CC6B0008C86B00085B
:104D8800D86B0008D06B00083C610008706100080F
:104D9800024B1860024B1960704700BF0C45002099
:104DA80010450020024B1860024B1960704700BF85
:104DB800144500201845002010B582B019491A483A
:104DC800FFF7E6FF19491A48FFF7ECFF7C2101209D
:104DD800FDF714FC174B1860E0B10A230193152363
:104DE80000934FF48063002213491448FEF77EF8BD
:104DF800044600231A4612490E480068FCF778FD5D
:104E08000120FFF7F5FD5CB12046FEF79BF9002075
:104E180002B010BD0B48FDF7A5F94FF0FF30F7E7DA
:104E28000020F5E7E8520008C8510008E8520008D9
:104E3800E852000824470020BD4A0008F46B000827
:104E4800FC6B0008DC6B000808B50921FDF7C8FDFC
:104E580008BD000070B50E46044698B12046FDF71F
:104E6800ADFD092814D1E38A13F0100F1ED1636A2F
:104E7800D3B120469847054680B9E38A43F010032A
:104E8800E38214E0D0221F491F48FDF7DBF9E5E76C
:104E9800D1221C491D48FDF7D5F9E4E70246214611
:104EA8001B48FDF75FF91DE00025E6E70025E38ACA
:104EB80013F0080F03D0238B13F0080F1FD1A36A38
:104EC80093B1314620469847054615B115F1060FAE
:104ED80008D1238B43F008032383A37E0133DBB27D
:104EE800A37633B1284670BD40F60F713140218357
:104EF800EBE7FF2203490748FDF7A4F9F2E76FF053
:104F08000605EFE7706D0008646C0008746C000813
:104F1800D86C0008106D000810B5044698B12046FA
:104F2800FDF74CFD092815D1A37EF3B1013BDBB297
:104F3800A376EBB9E36AA3B12046984790B110F184
:104F4800060F11D10EE04FF488720A490A48FDF79E
:104F580079F9E4E740F2111206490848FDF772F9B9
:104F6800E2E700200023238310BD4FF0FF30FBE76A
:104F78000020F9E7606D0008646C0008746C000894
:104F88002DE9F0410D4616461F46044690B12046CD
:104F9800FDF714FD092814D1A37ECBB1D4F83080D5
:104FA800B8F1000F1AD03B46324629462046C04782
:104FB800BDE8F08140F239120B490C48FDF742F97F
:104FC800E5E74FF49D7208490948FDF73BF9E3E727
:104FD8004FF0FF30FCF7B2FE0020E9E76FF0050064
:104FE800FCF7ACFE0020E3E7506D0008646C000895
:104FF800746C00082DE9F0410D4616461F4604461C
:1050080090B12046FDF7DAFC092814D1A37ECBB174
:10501800D4F83480B8F1000F1AD03B4632462946FE
:105028002046C047BDE8F08140F25F120B490C48AA
:10503800FDF708F9E5E74FF4B07208490948FDF7AC
:1050480001F9E3E74FF0FF30FCF778FE0020E9E7CD
:105058006FF00500FCF772FE0020E3E7406D0008E2
:10506800646C0008746C000838B50C46054638B105
:105078002846FDF7A3FC092809D1EC61002038BDBA
:105088004FF4CC7205490648FDF7DCF8F0E740F22A
:10509800991202490348FDF7D5F8EEE7246D000898
:1050A800646C0008746C0008DFF834D00D480E49B1
:1050B8000E4A002302E0D458C4500433C4188C426A
:1050C800F9D30B4A0B4C002301E013600432A242CF
:1050D800FBD3FCF790FA00F011F8FCF796FB704749
:1050E800000002200000002090000020906D0008C1
:1050F8009000002028470020FEE7000070B50D4D05
:105108000D4C641BA4100026A64209D10B4D0C4C73
:1051180000F0FEF8641BA4100026A64205D170BD5D
:1051280055F8043B98470136EEE755F8043B984795
:105138000136F2E7886D0008886D0008886D000860
:105148008C6D00080A44914200F1FF3300D170478A
:1051580010B511F8014B03F8014F9142F9D110BD78
:1051680002440346934200D1704703F8011BF9E754
:1051780010B5034672B10139841813F8010B11F800
:10518800012F904201D1A34201D1801A10BD0028FD
:10519800F3D1FAE71046F9E710B50139034632B101
:1051A80011F8014F03F8014B013A002CF7D11A44CA
:1051B8000021934200D110BD03F8011BF9E700005C
:1051C8006C5A00084C5A0008852200086C670008D1
:1051D800506700084D4500088C6700087467000890
:1051E800B9430008B8670008A0670008B943000879
:1051F800DC670008C46700087544000808680008F0
:10520800F06700087544000834680008146800084E
:10521800B94200086868000848680008B9420008F0
:105228009068000878680008B1410008BC68000868
:10523800A4680008B1410008E4680008CC680008C8
:10524800F540000810690008F8680008F5400008F3
:10525800346900081C6900080540000860690008F6
:105268004869000805400008886900086C6900085A
:10527800053F0008B469000898690008053F000860
:10528800CC690008C0690008B93D0008EC6900084D
:10529800E0690008B93D00081C6A0008F8690008C0
:1052A800293D0008506A00082C6A0008293D0008BA
:1052B800686A0008586A0008E93C0008206B000882
:1052C800F86A00082F470008486B00082C6B000894
:1052D800254700086C6B0008546B00087D460008E1
:1052E8000454000815170008EC53000819170008A3
:1052F80050610008E13B0008DC5300081D17000856
:10530800506C0008C14D0008FC5300082117000824
:10531800F8B500BFF8BC08BC9E467047F8B500BF9A
:08532800F8BC08BC9E4670476A
:105330001B5B303B33323B33336D205B4445425D76
:105340002000000068656C6C6F20776F726C640AD7
:10535000000000001B5B306D00000000000000003A
:105360000000000001020304060708090000000015
:1053700001020304696E697469616C697A652025AC
:10538000730000003A256420646F6E650A00000017
:10539000646F20636F6D706F6E656E747320696EDD
:1053A000697469616C697A6174696F6E2E0A0000B4
:1053B0006D61696E0000000074696420213D205217
:1053C000545F4E554C4C000072745F6170706C6994
:1053D000636174696F6E5F696E6974007274695F8E
:1053E000626F6172645F656E640000007274695F71
:1053F000626F6172645F7374617274007274695F6A
:10540000656E64007274695F737461727400000089
:1054100046756E6374696F6E5B25735D207368619A
:105420006C6C206E6F7420626520757365642069F2
:105430006E204953520A0000300000007469646C09
:105440006500000072745F7468726561645F69640E
:105450006C655F65786375746500000073656D2029
:10546000213D2052545F4E554C4C000076616C75C6
:1054700065203C203078313030303055000000005D
:1054800072745F6F626A6563745F6765745F747975
:105490007065282673656D2D3E706172656E742E81
:1054A000706172656E7429203D3D2052545F4F62D9
:1054B0006A6563745F436C6173735F53656D61709C
:1054C000686F72650000000072745F6F626A6563E6
:1054D000745F69735F73797374656D6F626A656316
:1054E00074282673656D2D3E706172656E742E7022
:1054F0006172656E7429000046756E6374696F6E23
:105500005B25735D207368616C6C206E6F74206224
:10551000652075736564206265666F7265207363CC
:10552000686564756C65722073746172740A00003A
:1055300072745F73656D5F72656C656173650000A1
:1055400072745F73656D5F74616B650072745F7315
:10555000656D5F696E697400284E554C4C290000DA
:105560000A205C207C202F0A000000002D205254CD
:10557000202D2020202020546872656164204F7007
:1055800065726174696E672053797374656D0A0082
:10559000202F207C205C202020202025642E2564C4
:1055A0002E2564206275696C642025730A00000052
:1055B0004A616E20203820323032330020323030C1
:1055C00036202D203230323020436F707972696777
:1055D00068742062792072742D7468726561642029
:1055E0007465616D0A0000002825732920617373BA
:1055F000657274696F6E206661696C6564206174A0
:105600002066756E6374696F6E3A25732C206C6921
:105610006E65206E756D6265723A2564200A000021
:10562000000001000200010003000100020001006F
:10563000040001000200010003000100020001005B
:10564000050001000200010003000100020001004A
:10565000040001000200010003000100020001003B
:105660000600010002000100030001000200010029
:10567000040001000200010003000100020001001B
:10568000050001000200010003000100020001000A
:1056900004000100020001000300010002000100FB
:1056A00007000100020001000300010002000100E8
:1056B00004000100020001000300010002000100DB
:1056C00005000100020001000300010002000100CA
:1056D00004000100020001000300010002000100BB
:1056E00006000100020001000300010002000100A9
:1056F000040001000200010003000100020001009B
:105700000500010002000100030001000200010089
:10571000040001000200010003000100020001007A
:1057200030313233343536373839414243444546D7
:105730000000000030313233343536373839616299
:105740006364656600000000746F74616C206D65B1
:105750006D6F72793A2025640A00000075736564E4
:10576000206D656D6F7279203A2025640A00000073
:105770006D6178696D756D20616C6C6F63617465C6
:1057800064206D656D6F72793A2025640A0000000F
:105790002872745F75696E74385F74202A296D658C
:1057A0006D203E3D20686561705F7074720000007E
:1057B0002872745F75696E74385F74202A296D656C
:1057C0006D203C202872745F75696E74385F742098
:1057D0002A29686561705F656E6400006D656D2DD6
:1057E0003E75736564203D3D203000006865617042
:1057F000000000006D656D20696E69742C20657273
:10580000726F7220626567696E206164647265738D
:105810007320307825782C20616E6420656E6420BA
:105820006164647265737320307825780A00000023
:1058300028286C66726565203D3D20686561705F53
:10584000656E6429207C7C2028216C667265652D3C
:105850003E757365642929002872745F75626173EF
:10586000655F74296D656D202B2053495A454F465D
:105870005F5354525543545F4D454D202B2073695F
:105880007A65203C3D202872745F75626173655FA4
:105890007429686561705F656E6400002872745FCA
:1058A00075626173655F7429282872745F75696E0B
:1058B00074385F74202A296D656D202B2053495A56
:1058C000454F465F5354525543545F4D454D292033
:1058D000252052545F414C49474E5F53495A452059
:1058E0003D3D20300000000028282872745F75625A
:1058F0006173655F74296D656D29202620285254D7
:105900005F414C49474E5F53495A45202D2031296C
:1059100029203D3D2030000028282872745F7562E0
:105920006173655F7429726D656D29202620285288
:10593000545F414C49474E5F53495A45202D203111
:105940002929203D3D2030002872745F75696E74EE
:10595000385F74202A29726D656D203E3D202872C3
:10596000745F75696E74385F74202A296865617088
:105970005F707472202626202872745F75696E74B9
:10598000385F74202A29726D656D203C202872745E
:105990005F75696E74385F74202A29686561705F6D
:1059A000656E6400746F20667265652061206261B7
:1059B00064206461746120626C6F636B3A0A00005A
:1059C0006D656D3A203078253038782C20757365F8
:1059D0006420666C61673A2025642C206D616769DC
:1059E0006320636F64653A203078253034780A008C
:1059F0006D656D2D3E757365640000006D656D2DE0
:105A00003E6D61676963203D3D20484541505F4DD3
:105A1000414749430000000072745F66726565008B
:105A2000706C75675F686F6C6573000072745F6D92
:105A3000616C6C6F6300000072745F7379737465DE
:105A40006D5F686561705F696E6974006C6973741D
:105A5000206D656D6F727920757361676520696E61
:105A6000666F726D6174696F6E0000006C697374AB
:105A70005F6D656D00000000696E666F726D617428
:105A8000696F6E20213D2052545F4E554C4C0000F2
:105A90006F626A20213D206F626A656374000000B6
:105AA0006F626A65637420213D2052545F4E554CED
:105AB0004C00000021286F626A6563742D3E747982
:105AC000706520262052545F4F626A6563745F439D
:105AD0006C6173735F537461746963290000000023
:105AE00072745F6F626A6563745F66696E640000FA
:105AF00072745F6F626A6563745F6765745F7479FF
:105B00007065000072745F6F626A6563745F6973C9
:105B10005F73797374656D6F626A6563740000000A
:105B200072745F6F626A6563745F64656C657465E7
:105B30000000000072745F6F626A6563745F616C7D
:105B40006C6F63617465000072745F6F626A656395
:105B5000745F6465746163680000000072745F6F55
:105B6000626A6563745F696E697400007468726567
:105B7000616420213D2052545F4E554C4C00000082
:105B80007468726561643A257320737461636B2075
:105B90006F766572666C6F770A0000007761726ECF
:105BA000696E673A20257320737461636B20697393
:105BB00020636C6F736520746F20656E64206F6660
:105BC00020737461636B20616464726573732E0A61
:105BD0000000000072745F7363686564756C655FD4
:105BE00072656D6F76655F74687265616400000050
:105BF00072745F7363686564756C655F696E736505
:105C000072745F7468726561640000005F72745F33
:105C10007363686564756C65725F737461636B5FF1
:105C2000636865636B0000007072696F72697479F4
:105C3000203C2052545F5448524541445F505249E1
:105C40004F524954595F4D41580000002874687202
:105C50006561642D3E7374617420262052545F5434
:105C600048524541445F535441545F4D41534B2981
:105C7000203D3D2052545F5448524541445F5355A6
:105C80005350454E4400000072745F6F626A656352
:105C9000745F6765745F74797065282872745F6FCC
:105CA000626A6563745F742974687265616429202F
:105CB0003D3D2052545F4F626A6563745F436C617F
:105CC00073735F546872656164000000737461638C
:105CD0006B5F737461727420213D2052545F4E5586
:105CE0004C4C0000287468726561642D3E737461C9
:105CF0007420262052545F5448524541445F535407
:105D000041545F4D41534B29203D3D2052545F5437
:105D100048524541445F494E4954000072745F74D3
:105D200068726561645F74696D656F757400000009
:105D300072745F7468726561645F726573756D65B6
:105D40000000000072745F7468726561645F696E60
:105D50006974000072745F7468726561645F737562
:105D60007370656E6400000072745F7468726561C0
:105D7000645F736C6565700072745F7468726561EE
:105D8000645F737461727475700000005F72745F99
:105D90007468726561645F696E69740074696D65C9
:105DA0007220213D2052545F4E554C4C00000000A3
:105DB00072745F6F626A6563745F6765745F74793C
:105DC0007065282674696D65722D3E706172656E0E
:105DD0007429203D3D2052545F4F626A6563745FB1
:105DE000436C6173735F54696D65720072745F6FA9
:105DF000626A6563745F69735F73797374656D6FED
:105E0000626A656374282674696D65722D3E7061DF
:105E100072656E742900000074696D65722D3E69AB
:105E20006E69745F7469636B203C2052545F5449FF
:105E3000434B5F4D4158202F2032000074696D653F
:105E40007200000072745F74696D65725F636F6EDB
:105E500074726F6C0000000072745F74696D65721B
:105E60005F73746F7000000072745F74696D6572A7
:105E70005F7374617274000072745F74696D65722F
:105E80005F6465746163680072745F74696D6572E4
:105E90005F696E6974000000627573206661756CDD
:105EA000743A0A005343425F434653525F4246539B
:105EB000523A30782530325820000000494255537C
:105EC000455252200000000050524543495345526C
:105ED00052200000494D50524543495345525220EB
:105EE00000000000554E53544B4552522000000014
:105EF00053544B45525220005343422D3E4246419B
:105F0000523A253038580A006D656D206D616E611A
:105F10006765206661756C743A0A00005343425FFE
:105F2000434653525F4D4653523A307825303258EB
:105F3000200000004941434356494F4C20000000D7
:105F40004441434356494F4C200000004D554E53A9
:105F5000544B4552522000004D53544B4552522051
:105F6000000000005343422D3E4D4D41523A253032
:105F700038580A007573616765206661756C743AFC
:105F80000A0000005343425F434653525F55465355
:105F9000523A30782530325820000000554E4445A2
:105FA00046494E5354522000494E5653544154458D
:105FB00020000000494E5650432000004E4F4350F1
:105FC00020000000554E414C49474E4544200000FA
:105FD00044495642595A45524F2000006661696C47
:105FE000656420766563746F722066657463680A01
:105FF000000000006465627567206576656E740A4E
:10600000000000007073723A203078253038780A2A
:10601000000000007230303A203078253038780A9D
:10602000000000007230313A203078253038780A8C
:10603000000000007230323A203078253038780A7B
:10604000000000007230333A203078253038780A6A
:10605000000000007230343A203078253038780A59
:10606000000000007230353A203078253038780A48
:10607000000000007230363A203078253038780A37
:10608000000000007230373A203078253038780A26
:10609000000000007230383A203078253038780A15
:1060A000000000007230393A203078253038780A04
:1060B000000000007231303A203078253038780AFC
:1060C000000000007231313A203078253038780AEB
:1060D000000000007231323A203078253038780ADA
:1060E00000000000206C723A203078253038780AA1
:1060F000000000002070633A203078253038780A9C
:106100000000000068617264206661756C74206F25
:106110006E207468726561643A2025730D0A0D0A59
:106120000000000068617264206661756C74206F05
:106130006E2068616E646C65720D0A0D0A000000C5
:1061400046505520616374697665210D0A00000090
:10615000756172745F696E697400000048656C6CEB
:106160006F2052542D546872656164210A0000004A
:10617000257300002F0000007468726561640000E0
:10618000252D2A2E73207072692020737461747516
:106190007320202020202073702020202020737462
:1061A00061636B2073697A65206D61782075736512
:1061B00064206C656674207469636B20206572725C
:1061C0006F720A002D000000202D2D2D20202D2D76
:1061D0002D2D2D2D2D202D2D2D2D2D2D2D2D2D2DFC
:1061E000202D2D2D2D2D2D2D2D2D2D20202D2D2D06
:1061F0002D2D2D20202D2D2D2D2D2D2D2D2D2D20F6
:106200002D2D2D0A00000000252D2A2E2A73202571
:106210003364200020726561647920200000000052
:106220002073757370656E640000000020696E69EC
:10623000742020200000000020636C6F7365202014
:10624000000000002072756E6E696E67000000002D
:106250002030782530387820307825303878202064
:106260002020253032642525202020307825303824
:106270007820253033640A0073656D6170686F7231
:1062800065000000252D2A2E7320762020207375AE
:106290007370656E64207468726561640A00000042
:1062A000202D2D2D202D2D2D2D2D2D2D2D2D2D2D38
:1062B0002D2D2D0A00000000252D2A2E2A732025C1
:1062C0003033642025643A00252D2A2E2A73202598
:1062D0003033642025640A006576656E7400000022
:1062E000252D2A2E73202020202020736574202045
:1062F000202073757370656E6420746872656164C4
:106300000A00000020202D2D2D2D2D2D2D2D2D2D81
:10631000202D2D2D2D2D2D2D2D2D2D2D2D2D2D0ADD
:1063200000000000252D2A2E2A73202030782530E9
:10633000387820253033643A00000000252D2A2EBD
:106340002A73202030782530387820300A00000069
:106350006D75746578000000252D2A2E732020208D
:106360006F776E65722020686F6C64207375737030
:10637000656E64207468726561640A00202D2D2D9D
:106380002D2D2D2D2D202D2D2D2D202D2D2D2D2D57
:106390002D2D2D2D2D2D2D2D2D0A0000252D2A2EB4
:1063A0002A7320252D382E2A732025303464202589
:1063B000640A00006D61696C626F7800252D2A2ED9
:1063C0007320656E7472792073697A6520737573B2
:1063D00070656E64207468726561640A0000000074
:1063E000202D2D2D2D20202D2D2D2D202D2D2D2D11
:1063F0002D2D2D2D2D2D2D2D2D2D0A00252D2A2E27
:106400002A7320253034642020253034642025640C
:106410003A000000252D2A2E2A73202530346420CE
:1064200020253034642025640A0000006D736771F4
:106430007565756500000000252D2A2E7320656E98
:106440007472792073757370656E642074687265F8
:1064500061640A00202D2D2D2D20202D2D2D2D2D78
:106460002D2D2D2D2D2D2D2D2D0A0000252D2A2EE3
:106470002A732025303464202025643A000000006F
:10648000252D2A2E2A732025303464202025640AE5
:1064900000000000556E6B6E6F776E006465766964
:1064A00063650000252D2A2E732020202020202027
:1064B0002020747970652020202020202020207248
:1064C000656620636F756E740A000000202D2D2D07
:1064D0002D2D2D2D2D2D2D2D2D2D2D2D2D2D2D2DEC
:1064E0002D202D2D2D2D2D2D2D2D2D2D0A00000093
:1064F000252D2A2E2A7320252D32307320252D3864
:10650000640A0000252D2A2E732020706572696FA1
:1065100064696320202074696D656F757420202084
:1065200020202020666C61670A000000202D2D2DA0
:106530002D2D2D2D2D2D2D202D2D2D2D2D2D2D2D98
:106540002D2D202D2D2D2D2D2D2D2D2D2D2D0A00D8
:10655000252D2A2E2A73203078253038782030785F
:1065600025303878200000006163746976617465B5
:10657000640A000064656163746976617465640A25
:106580000000000063757272656E74207469636B3D
:106590003A3078253038780A000000002D2D4675F5
:1065A0006E6374696F6E204C6973743A0A00000060
:1065B0005F5F0000252D313673202D2D2025730AB5
:1065C0000000000043686172616374657220446575
:1065D0007669636500000000426C6F636B20446560
:1065E00076696365000000004E6574776F726B20FA
:1065F000496E746572666163650000004D54442005
:10660000446576696365000043414E2044657669C0
:106610006365000052544300536F756E64204465F7
:1066200076696365000000004772617068696320E5
:106630004465766963650000493243204275730002
:1066400055534220536C61766520446576696365D5
:106650000000000055534220486F73742042757348
:1066600000000000535049204275730053504920E8
:1066700044657669636500005344494F2042757351
:1066800000000000504D2050736575646F20446514
:1066900076696365000000005069706500000000C5
:1066A000506F7274616C2044657669636500000008
:1066B00054696D6572204465766963650000000069
:1066C0004D697363656C6C616E656F7573204465AD
:1066D000766963650000000053656E736F72204435
:1066E0006576696365000000546F756368204465D2
:1066F0007669636500000000C4650008D86500087D
:10670000E8650008FC6500080866000814660008D3
:106710001866000828660008386600084066000809
:1067200054660008646600086C6600087866000815
:106730008466000898660008A0660008B066000835
:10674000C0660008D8660008E8660008946400087F
:106750006C69737420616C6C2073796D626F6C204E
:10676000696E2073797374656D0000006C697374D1
:10677000000000006C6973742064657669636520AD
:10678000696E2073797374656D0000005F5F636DDF
:10679000645F6C6973745F646576696365000000AB
:1067A0006C6973742064657669636520696E207313
:1067B000797374656D0000006C6973745F6465764D
:1067C000696365006C6973742074696D6572206912
:1067D0006E2073797374656D000000005F5F636DF8
:1067E000645F6C6973745F74696D657200000000AA
:1067F0006C6973742074696D657220696E20737999
:106800007374656D000000006C6973745F74696D6A
:10681000657200006C697374206D657373616765E0
:1068200020717565756520696E2073797374656D67
:10683000000000005F5F636D645F6C6973745F6D7F
:1068400073677175657565006C697374206D657328
:106850007361676520717565756520696E20737950
:106860007374656D000000006C6973745F6D73670D
:1068700071756575650000006C697374206D6169E0
:106880006C20626F7820696E2073797374656D0077
:106890005F5F636D645F6C6973745F6D61696C6287
:1068A0006F7800006C697374206D61696C20626F91
:1068B0007820696E2073797374656D006C697374E8
:1068C0005F6D61696C626F78000000006C697374C1
:1068D000206D7574657820696E2073797374656DA9
:1068E000000000005F5F636D645F6C6973745F6DCF
:1068F00075746578000000006C697374206D7574A0
:10690000657820696E2073797374656D00000000EE
:106910006C6973745F6D7574657800006C6973746D
:10692000206576656E7420696E2073797374656D69
:10693000000000005F5F636D645F6C6973745F6586
:1069400076656E74000000006C697374206576656E
:106950006E7420696E2073797374656D0000000099
:106960006C6973745F6576656E7400006C6973742E
:106970002073656D6170686F726520696E20737930
:106980007374656D000000005F5F636D645F6C6928
:1069900073745F73656D00006C6973742073656D4B
:1069A0006170686F726520696E2073797374656DAC
:1069B000000000006C6973745F73656D0000000077
:1069C0006C69737420746872656164005F5F636DE5
:1069D000645F6C6973745F74687265616400000061
:1069E0006C69737420746872656164006C69737497
:1069F0005F7468726561640073686F772052542D0C
:106A00005468726561642076657273696F6E20697F
:106A10006E666F726D6174696F6E00005F5F636DAB
:106A2000645F76657273696F6E00000073686F77DC
:106A30002052542D546872656164207665727369C2
:106A40006F6E20696E666F726D6174696F6E0000A3
:106A500076657273696F6E007361792068656C6C1E
:106A60006F20776F726C640068656C6C6F0000005B
:106A7000546F6F206D616E792061726773202120E1
:106A80005765206F6E6C79205573653A0A000000D7
:106A90002573200052542D54687265616420736818
:106AA000656C6C20636F6D6D616E64733A0A0000F3
:106AB0005F5F636D645F0000252D313673202D20EC
:106AC00025730A00636D6400726574700000000035
:106AD00025733A20636F6D6D616E64206E6F742054
:106AE000666F756E642E0A005F6D73685F6578650A
:106AF000635F636D6400000053686F77207468659E
:106B0000206D656D6F727920757361676520696EA0
:106B1000207468652073797374656D2E0000000021
:106B20005F5F636D645F6672656500004C697374D6
:106B3000207468726561647320696E2074686520D2
:106B400073797374656D2E005F5F636D645F70733E
:106B50000000000052542D5468726561642073680F
:106B6000656C6C2068656C702E0000005F5F636D63
:106B7000645F68656C7000007368656C6C20213D13
:106B80002052545F4E554C4C000000006D7368203D
:106B90000000000066696E73682000003E0000007F
:106BA000257325730000000066696E73683A2063E0
:106BB000616E206E6F742066696E6420646576690C
:106BC00063653A2025730A00080000002563000071
:106BD0000825732020080000082008006E6F206D33
:106BE000656D6F727920666F72207368656C6C0AD0
:106BF00000000000747368656C6C00007368727844
:106C00000000000066696E73685F676574636861A1
:106C10007200000066696E73685F72785F696E6407
:106C20000000000066696E73685F7365745F646579
:106C3000766963650000000066696E73685F73655E
:106C4000745F70726F6D70745F6D6F6465000000CB
:106C500066696E73685F73797374656D5F696E6979
:106C60007400000064657620213D2052545F4E552B
:106C70004C4C000072745F6F626A6563745F676595
:106C8000745F7479706528266465762D3E70617234
:106C9000656E7429203D3D2052545F4F626A6563E2
:106CA000745F436C6173735F44657669636500006C
:106CB00072745F6F626A6563745F69735F7379731F
:106CC00074656D6F626A65637428266465762D3E0F
:106CD000706172656E742900546F20696E69746901
:106CE000616C697A65206465766963653A2573200D
:106CF0006661696C65642E20546865206572726FE8
:106D00007220636F64652069732025640A000000A7
:106D10006465762D3E7265665F636F756E742021C3
:106D20003D20300072745F6465766963655F7365EA
:106D3000745F72785F696E646963617465000000F6
:106D400072745F6465766963655F77726974650004
:106D500072745F6465766963655F72656164000083
:106D600072745F6465766963655F636C6F736500F9
:106D700072745F6465766963655F6F70656E00004D
:086D80008495FF7F0100000073
:046D8800AD01000851
:046D8C008901000871
:106D900001000000100000000024F40001000000C9
:106DA0001000002010000020800000000200000001
:106DB0002000002020000020200000000300000030
:106DC00030000020300000202400000004000000FB
:106DD00040000020400000202000000005000000CE
:106DE000500000205000002030000000060000008D
:106DF00060000020600000203C000000090000004E
:106E00007000002070000020400000000A00000018
:106E100080000020800000202C0000000100000005
:04000005080050B1EE
:00000001FF
